{
  "address": "0x89e96174732bd9D611a6DEc84AB91695Ee5450aB",
  "abi": [
    {
      "inputs": [],
      "stateMutability": "nonpayable",
      "type": "constructor"
    },
    {
      "inputs": [
        {
          "internalType": "bytes32",
          "name": "key",
          "type": "bytes32"
        }
      ],
      "name": "EnumerableMapNonexistentKey",
      "type": "error"
    },
    {
      "inputs": [],
      "name": "InvalidCaller",
      "type": "error"
    },
    {
      "inputs": [],
      "name": "InvalidInitialization",
      "type": "error"
    },
    {
      "inputs": [],
      "name": "NotAllowed",
      "type": "error"
    },
    {
      "inputs": [],
      "name": "NotInitializing",
      "type": "error"
    },
    {
      "inputs": [],
      "name": "ParamError",
      "type": "error"
    },
    {
      "inputs": [
        {
          "internalType": "address",
          "name": "token",
          "type": "address"
        }
      ],
      "name": "SafeERC20FailedOperation",
      "type": "error"
    },
    {
      "anonymous": false,
      "inputs": [
        {
          "indexed": false,
          "internalType": "uint64",
          "name": "version",
          "type": "uint64"
        }
      ],
      "name": "Initialized",
      "type": "event"
    },
    {
      "anonymous": false,
      "inputs": [
        {
          "indexed": true,
          "internalType": "uint256",
          "name": "listingId",
          "type": "uint256"
        },
        {
          "indexed": true,
          "internalType": "address",
          "name": "from",
          "type": "address"
        },
        {
          "indexed": true,
          "internalType": "address",
          "name": "to",
          "type": "address"
        },
        {
          "indexed": false,
          "internalType": "address",
          "name": "sourceToken",
          "type": "address"
        },
        {
          "indexed": false,
          "internalType": "uint256",
          "name": "amount",
          "type": "uint256"
        },
        {
          "indexed": false,
          "internalType": "address",
          "name": "payoutToken",
          "type": "address"
        },
        {
          "indexed": false,
          "internalType": "uint256",
          "name": "swapAmount",
          "type": "uint256"
        },
        {
          "indexed": false,
          "internalType": "bool",
          "name": "isFee",
          "type": "bool"
        },
        {
          "indexed": false,
          "internalType": "bool",
          "name": "swapRequested",
          "type": "bool"
        },
        {
          "indexed": false,
          "internalType": "bool",
          "name": "swapSuccessful",
          "type": "bool"
        },
        {
          "indexed": false,
          "internalType": "uint16",
          "name": "slippageBps",
          "type": "uint16"
        }
      ],
      "name": "PaymentProcessed",
      "type": "event"
    },
    {
      "anonymous": false,
      "inputs": [
        {
          "indexed": true,
          "internalType": "address",
          "name": "currency",
          "type": "address"
        }
      ],
      "name": "PriceFeedRemoved",
      "type": "event"
    },
    {
      "anonymous": false,
      "inputs": [
        {
          "indexed": true,
          "internalType": "address",
          "name": "currency",
          "type": "address"
        },
        {
          "indexed": false,
          "internalType": "bytes32",
          "name": "feedId",
          "type": "bytes32"
        }
      ],
      "name": "PriceFeedSet",
      "type": "event"
    },
    {
      "stateMutability": "payable",
      "type": "fallback"
    },
    {
      "inputs": [
        {
          "internalType": "address",
          "name": "_currency",
          "type": "address"
        }
      ],
      "name": "getPriceFeedId",
      "outputs": [
        {
          "internalType": "bytes32",
          "name": "",
          "type": "bytes32"
        }
      ],
      "stateMutability": "view",
      "type": "function"
    },
    {
      "inputs": [],
      "name": "getPriceFeeds",
      "outputs": [
        {
          "components": [
            {
              "internalType": "address",
              "name": "currency",
              "type": "address"
            },
            {
              "internalType": "bytes32",
              "name": "feedId",
              "type": "bytes32"
            }
          ],
          "internalType": "struct GildiExchangePaymentProcessor.PriceFeedInfo[]",
          "name": "priceFeedInfos",
          "type": "tuple[]"
        }
      ],
      "stateMutability": "view",
      "type": "function"
    },
    {
      "inputs": [],
      "name": "gildiExchange",
      "outputs": [
        {
          "internalType": "contract IGildiExchange",
          "name": "",
          "type": "address"
        }
      ],
      "stateMutability": "view",
      "type": "function"
    },
    {
      "inputs": [
        {
          "internalType": "uint256",
          "name": "_releaseId",
          "type": "uint256"
        },
        {
          "internalType": "address",
          "name": "_buyer",
          "type": "address"
        },
        {
          "internalType": "address",
          "name": "_seller",
          "type": "address"
        },
        {
          "internalType": "uint256",
          "name": "_value",
          "type": "uint256"
        },
        {
          "internalType": "address",
          "name": "_amountCurrency",
          "type": "address"
        },
        {
          "internalType": "bool",
          "name": "_createFund",
          "type": "bool"
        },
        {
          "internalType": "address",
          "name": "_operator",
          "type": "address"
        },
        {
          "internalType": "bool",
          "name": "_isProxyOperation",
          "type": "bool"
        },
        {
          "internalType": "uint256",
          "name": "_listingId",
          "type": "uint256"
        },
        {
          "internalType": "address",
          "name": "_listingPayoutCurrency",
          "type": "address"
        },
        {
          "internalType": "uint16",
          "name": "_slippageBps",
          "type": "uint16"
        }
      ],
      "name": "handleProcessPaymentWithFees",
      "outputs": [],
      "stateMutability": "nonpayable",
      "type": "function"
    },
    {
      "inputs": [
        {
          "internalType": "address",
          "name": "_gildiExchange",
          "type": "address"
        }
      ],
      "name": "initialize",
      "outputs": [],
      "stateMutability": "nonpayable",
      "type": "function"
    },
    {
      "inputs": [
        {
          "internalType": "uint256",
          "name": "_priceInUSD",
          "type": "uint256"
        },
        {
          "internalType": "address",
          "name": "_currency",
          "type": "address"
        }
      ],
      "name": "quoteInCurrency",
      "outputs": [
        {
          "internalType": "uint256",
          "name": "",
          "type": "uint256"
        }
      ],
      "stateMutability": "view",
      "type": "function"
    },
    {
      "inputs": [
        {
          "internalType": "address",
          "name": "_currency",
          "type": "address"
        }
      ],
      "name": "removePriceFeedId",
      "outputs": [],
      "stateMutability": "nonpayable",
      "type": "function"
    },
    {
      "inputs": [
        {
          "internalType": "address",
          "name": "_currency",
          "type": "address"
        },
        {
          "internalType": "bytes32",
          "name": "_feedId",
          "type": "bytes32"
        }
      ],
      "name": "setPriceFeedId",
      "outputs": [],
      "stateMutability": "nonpayable",
      "type": "function"
    },
    {
      "stateMutability": "payable",
      "type": "receive"
    }
  ],
  "transactionHash": "0xd711e1d3bc0ad97a6b6ee8de2f428e88de3a656676c1907200860ef7497eb14d",
  "args": [],
  "numDeployments": 1,
  "solcInputHash": "594efa0505e6449b9b54376cc6a6f699",
  "bytecode": "0x608080604052346100b8577ff0c57e16840df040f15088dc2f81fe391c3923bec73e23a9662efc9c229c6a009081549060ff8260401c166100a957506001600160401b036002600160401b031982821601610064575b60405161269090816100be8239f35b6001600160401b031990911681179091556040519081527fc7f505b2f371ae2175ee4913f4499e1f2633a7b5936321eed1cdaeb6115181d290602090a1388080610055565b63f92ee8a960e01b8152600490fd5b600080fdfe60e0604081815260049182361015610033575b5036156100265751631eb49d6d60e11b8152fd5b51631eb49d6d60e11b8152fd5b600090813560e01c90816327092e7f1461085c575080634e61dea1146107915780636ca42ae3146105935780637ca6ba5e146103af5780639327a4fc14610378578063c4d66de814610241578063d3c217cd146100bf5763d4d5347f036100125790346100bb57816003193601126100bb57905490516001600160a01b039091168152602090f35b5080fd5b5091903461023d578060031936011261023d576100da6109c6565b83548251639662022560e01b81529360243593926001600160a01b0392909190831687878381845afa968715610233579480969761014b968a91610211575b5001518651632474521560e21b8152838101918252336020838101919091529690928792849283918291604090910190565b03915afa9081156102075788916101ce575b50156101c057501692806101708561240b565b90500361017b578480f35b7f65e4ba705db6091cf209ad98e61b9b8203308a9bb349e9add9809174481dbd62928486526003835281818720556101b2856125cf565b5051908152a2388080808480f35b84516348f5c3ed60e01b8152fd5b90508481813d8311610200575b6101e58183610ac4565b810103126101fc576101f690610de5565b3861015d565b8780fd5b503d6101db565b86513d8a823e3d90fd5b61022d91503d808c833e6102258183610ac4565b810190610c9d565b38610119565b85513d8a823e3d90fd5b8280fd5b50913461023d57602036600319011261023d5761025c6109c6565b907ff0c57e16840df040f15088dc2f81fe391c3923bec73e23a9662efc9c229c6a0091825460ff81861c1615926001600160401b03821680159081610370575b6001149081610366575b15908161035d575b5061034f575067ffffffffffffffff198116600117845582610330575b5084546001600160a01b0319166001600160a01b03919091161784556102ef578280f35b805468ff00000000000000001916905551600181527fc7f505b2f371ae2175ee4913f4499e1f2633a7b5936321eed1cdaeb6115181d290602090a138808280f35b68ffffffffffffffffff191668010000000000000001178355386102cb565b855163f92ee8a960e01b8152fd5b905015386102ae565b303b1591506102a6565b85915061029c565b5090346100bb5760203660031901126100bb576020906103a76001600160a01b036103a16109c6565b1661240b565b915191825250f35b50346105905781600319360112610590578235926103cb6109e1565b906103d46113d0565b926001600160a01b039283169260606103ec8561240b565b969050519160c060ff8451169301511695604488518098819363052571af60e51b83528883015261012c60248301525afa94851561058657829561052b575b50855196879463313ce56760e01b8652858560209a8b935afa9485156105215783956104e6575b50858801805160ff9392919084168381106104c8575061047b6104869385610480935116610e1c565b61138f565b906113bd565b935b1691604d83116104b55750506104ae92916104a691600a0a906113bd565b90519061139d565b9051908152f35b634e487b7160e01b825260119052602490fd5b6104da915061047b906104e094610e1c565b9061139d565b93610488565b9094508781813d831161051a575b6104fe8183610ac4565b8101031261023d579061051260ff92610ae5565b949091610452565b503d6104f4565b87513d85823e3d90fd5b9094506060813d60601161057e575b8161054760609383610ac4565b810103126100bb578580519161055c83610a28565b8051835261056c60208201610ae5565b6020840152015186820152933861042b565b3d915061053a565b86513d84823e3d90fd5b80fd5b5091903461023d578260031936011261023d5791908251918260019081548086526020809601908385527fb10e2d527612073b26eecdfd717e6a320cf44b4afac2b0732d9fcbe2b7fa0cf690855b81811061077e57505050816105f7910382610ac4565b80519361061b61060686610af3565b9561061389519788610ac4565b808752610af3565b601f1901845b8181106107515750508284905b610687575b505050845194848695860191818752855180935281818801960194905b83821061065d5787870388f35b855180516001600160a01b0316885283015187840152889750958601959482019490840190610650565b829794979693959651811015610745576001600160a01b03806106aa8386610df2565b5116906106b78386610df2565b5116808a5260038652868a205490811580610727575b610711575091879493929185928851916106e6836109f7565b8252878201526106f6828b610df2565b52610701818a610df2565b500190919293969597949761062e565b8460249189519163015ab34360e11b8352820152fd5b5061073f816000526002602052604060002054151590565b156106cd565b96939695949295610633565b968094969789969951610763816109f7565b8a81528a8382015282828b0101520197949796959396610621565b82548452928801929185019185016105e1565b5090346100bb576101603660031901126100bb576107ad6109e1565b6001600160a01b03919060443583811681036108585760843584811681036108545760a43580151581036108505760c4359186831683036101fc5760e43593841515850361084c576101243596888816880361084857610144359861ffff8a168a03610844578a54163303610835575098610832989961010435966064359235610e3f565b80f35b516348f5c3ed60e01b81528a90fd5b8a80fd5b8980fd5b8880fd5b8680fd5b8580fd5b8480fd5b84848492346109c257602092836003193601126108585761087b6109c6565b8554639662022560e01b84526001600160a01b03939192919084169087818481855afa90811561020757918688926108dd948b916109a8575b5001518751632474521560e21b8152858101918252336020830152938492918391829160400190565b03915afa90811561099e578791610969575b501561095b5750908492911692610913846000526002602052604060002054151590565b61091b578280f35b6003908484525281205561092e816124ce565b507ffd58461c4683df397133c7e91fe2aa71559919b405f9e09c9c3af7e875f54e3b8280a2818181808280f35b83516348f5c3ed60e01b8152fd5b90508581813d8311610997575b6109808183610ac4565b810103126108505761099190610de5565b876108ef565b503d610976565b85513d89823e3d90fd5b6109bc91503d808d833e6102258183610ac4565b8b6108b4565b8380fd5b600435906001600160a01b03821682036109dc57565b600080fd5b602435906001600160a01b03821682036109dc57565b604081019081106001600160401b03821117610a1257604052565b634e487b7160e01b600052604160045260246000fd5b606081019081106001600160401b03821117610a1257604052565b60a081019081106001600160401b03821117610a1257604052565b61014081019081106001600160401b03821117610a1257604052565b6001600160401b038111610a1257604052565b61010081019081106001600160401b03821117610a1257604052565b608081019081106001600160401b03821117610a1257604052565b90601f801991011681019081106001600160401b03821117610a1257604052565b519060ff821682036109dc57565b6001600160401b038111610a125760051b60200190565b51906001600160a01b03821682036109dc57565b519061ffff821682036109dc57565b91908260609103126109dc57604051610b4581610a28565b6040610b6f818395610b5681610b0a565b8552610b6460208201610b0a565b602086015201610b1e565b910152565b9080601f830112156109dc57815190602091610b8f81610af3565b93604092610ba06040519687610ac4565b828652848087019360051b830101938185116109dc57858301935b858510610bcc575050505050505090565b84516001600160401b03908181116109dc5785019060809182601f1982880301126109dc57845192610bfd846109f7565b610c09878c8401610b2d565b84528101519182116109dc570184603f820112156109dc5788810151610c2e81610af3565b91610c3b86519384610ac4565b8183528a8301866060809402830101918883116109dc5791878d969492979593015b818110610c795750505083809550820152815201940193610bbb565b9193958491939597610c8b8b85610b2d565b8152019101918c959391969492610c5d565b6020818303126109dc5780516001600160401b03918282116109dc570160a0818403126109dc576040805193610cd285610a43565b82518481116109dc57830193610140858303126109dc57825191610cf583610a5e565b610cfe86610ae5565b835260208601519182116109dc57610d17918601610b74565b6020820152838201516001600160a01b039081811681036109dc578383015260608501516060830152608085015181811681036109dc57608083015260a085015181811681036109dc5760a083015260c085015181811681036109dc5760c083015260e085015181811681036109dc5760e0830152610100808601519082821682036109dc578301526101208095015190811681036109dc576080948201528452610dc460208301610b1e565b60208501528082015190840152606081015160608401520151608082015290565b519081151582036109dc57565b8051821015610e065760209160051b010190565b634e487b7160e01b600052603260045260246000fd5b91908203918211610e2957565b634e487b7160e01b600052601160045260246000fd5b95949996909397919960c05260a05260805260018060a01b03881660018060a01b0383161461138557610e706113d0565b600091610e7b6113d0565b83546040516321ed417560e11b815260048101899052936001600160a01b03909116908585602481855afa94851561137a578695611338575b508451928693875b8181106112f45750610ecd85610af3565b94610edb6040519687610ac4565b808652610eea601f1991610af3565b01885b8181106112cb57508897889150815b83831061112157505050505060c05161109b575b5050805190845b828110610fca5750505090610f2b91610e1c565b9485610f3d575b505050505050505050565b60c05115610f62575050610f549660a0519361227d565b388080808080808080610f32565b935094905061ffff93610fc59760409793975197610f7f89610a8d565b608080518a526001600160a01b0391821660208b015291811660408a01526060890192909252918116918701919091521660a08501521660c083015260e082015261169d565b610f54565b6001906001600160a01b03610fdf8285610df2565b51511661ffff6040610ff18487610df2565b510151168d848060a01b0360206110088689610df2565b51015116918061101d575b5050505001610f17565b8d8d8d60c051600014611040576110379660a0519361227d565b38808d81611013565b509392919050611096946040519461105786610a8d565b6080518652888060a01b0316602086015260408501526060840152858060a01b0316608083015260a08201526101f460c08201528360e082015261169d565b611037565b5160e001516001600160a01b0316813b156108545760405163cc3dcc8f60e01b81526001600160a01b038981166004830152918216602482015260448101859052908b1660648201529085908290608490829084905af1801561111657611103575b80610f10565b61110f90949194610a7a565b92386110fd565b6040513d87823e3d90fd5b9860409961115461114561ffff6111388787610df2565b519d8e510151168c6113bd565b61ffff6020890151169061139d565b61115f818094611491565b9b602081015151936001840184116112b7578e905b8c8a878410611200575050915180516020909101516040519461ffff945092506001600160a01b0390811691166111aa85610a28565b845260208401521660408201526111c1828b610df2565b526111cc818a610df2565b50600182018092116111ec576001916111e491611491565b920191610efc565b634e487b7160e01b8c52601160045260248cfd5b9083956112a961123c6112af9461ffff602061123282604061122860019c9d8f860151610df2565b510151168b6113bd565b920151169061139d565b92858060a01b036112518a60208b0151610df2565b51511690868060a01b03602061126a8c828d0151610df2565b510151166040519261127b84610a28565b8352602083015261ffff851660408301526112988a888d01611491565b916112a38383610df2565b52610df2565b50610e1c565b930190611174565b634e487b7160e01b8f52601160045260248ffd5b6020906040516112da81610a28565b8b8152828c818301528c6040830152828a01015201610eed565b946020611301878a610df2565b5101515190600182018092116113245760019161131d91611491565b9501610ebc565b634e487b7160e01b8a52601160045260248afd5b9094503d8087833e61134a8183610ac4565b810190602081830312610850578051906001600160401b0382116101fc57611373929101610b74565b9338610eb4565b6040513d88823e3d90fd5b5050505050505050565b604d8111610e2957600a0a90565b81156113a7570490565b634e487b7160e01b600052601260045260246000fd5b81810292918115918404141715610e2957565b6040600481516113df81610a43565b82516113ea81610a5e565b6080600092828480945260606020820152838782015283606082015283838201528360a08201528360c08201528360e082015283610100820152836101208201528152826020820152828682015282606082015201528060018060a01b03815416845193848092639662022560e01b82525afa9283156114875750809261147057505090565b61148492503d8091833e6102258183610ac4565b90565b51903d90823e3d90fd5b91908201809211610e2957565b9080601f830112156109dc578151906020916114b981610af3565b936114c76040519586610ac4565b81855260208086019260051b8201019283116109dc57602001905b8282106114f0575050505090565b81516fffffffffffffffffffffffffffffffff811681036109dc5781529083019083016114e2565b916060838303126109dc5761152c83610de5565b92602090818101519360408201516001600160401b03928382116109dc57019160a0838303126109dc576040519361156385610a43565b61156c84610b0a565b8552808401518281116109dc5784019083601f830112156109dc5781519161159383610af3565b926115a16040519485610ac4565b808452828085019160051b830101918683116109dc5783809101915b838310611623575050505085015260408301518181116109dc57826115e391850161149e565b604085015260608301518181116109dc578261160091850161149e565b606085015260808301519081116109dc5761161b920161149e565b608082015290565b819061162e84610b0a565b81520191019083906115bd565b61ffff9182169082160391908211610e2957565b6001600160a01b0391821681526020810192909252909116604082015260608101919091529015156080820152600160a0820181905260c082015261ffff9190911660e08201526101000190565b60208101516000906001600160a01b0316301461226b576116bc6113d0565b60408301519091906001600160a01b0316801590811561225f575b50611bf0575b60a0830151606084015191928392918391906001600160a01b03168015908115611bd9575b508015611bc1575b8015611baa575b15611859575080546020860151604087015160608801516080890180519095946001600160a01b03918216949293908216929082169116823b156108545760405163cc3dcc8f60e01b81526001600160a01b0391821660048201529181166024830152604482019390935292909116606483015282908290608490829084905af1801561184e5761183a575b50505160008051602061263b83398151915291610100916001600160a01b03165b86519460018060a01b036020890151169660018060a01b0360408a0151169860018060a01b036080820151169460608201519461ffff60c060e085015115159401511695604051978852602088015260018060a01b0316604087015260608601526080850152151560a0840152151560c083015260e0820152a4565b6118448291610a7a565b610590578061179d565b6040513d84823e3d90fd5b608086015182546020880151600197506001600160a01b0392831694929182169116813b1561023d5760405163cc3dcc8f60e01b81526001600160a01b0391821660048201523060248201526044810187905290851660648201529082908290608490829084905af1801561184e57908291611b96575b5082516101200151606089015160808a015160a08b0151604051633dccbfc560e01b815260048101939093526001600160a01b0391821660248401528116604483015290929183916064918391165afa90811561184e5782908392611b70575b5080611b67575b15611b355782516101200151604051636eb1769f60e11b81523060048201526001600160a01b039091166024820152602081604481885afa908115611b2a578391611af7575b506020916119c29160608b015111611ad8575b6119b26119b9848701928c61ffff9384918260c081895116920151169061163b565b16906113bd565b9151169061139d565b92516101200151606089015160808a015160a08b01516040808d0151905163545ac70d60e01b815260048101949094526001600160a01b03928316602485015290821660448401526064830196909652948516608482015293849160a49183918691165af1909181611aa4575b50611a77575060008051602061263b83398151915291611a646101009260018060a01b036040890151166060890151916123cf565b60808601516001600160a01b03166117be565b60a08601516001945060008051602061263b833981519152935061010092506001600160a01b03166117be565b9091506020813d602011611ad0575b81611ac060209383610ac4565b810103126109dc57519038611a2f565b3d9150611ab3565b84516101200151611af2906001600160a01b03168761231c565b611990565b90506020813d602011611b22575b81611b1260209383610ac4565b810103126109dc5751602061197d565b3d9150611b05565b6040513d85823e3d90fd5b50505060008051602061263b83398151915291611a646101009260018060a01b036040890151166060890151916123cf565b50801515611937565b9050611b8e91503d8084833e611b868183610ac4565b810190611518565b509038611930565b611b9f90610a7a565b6105905780386118d0565b50805161012001516001600160a01b031615611711565b5060408601516001600160a01b031661dead1461170a565b60808801516001600160a01b031614905038611702565b60a08301519092906001600160a01b03168015159081612247575b508061222f575b611d35575b8254602082810151606084018051608086018051604051631e7ea6e960e21b81526001600160a01b039586166004820152602481019390935284166044830152969194919390929091839160649183918b91165af190811561137a578691611cfb575b5015611cea575061010060008051602061263b8339815191529183519360e060018060a01b036020830151169660018060a01b039051169251910151151590604051928084528160208501526040840152606083015260808201528560a08201528560c08201528560e0820152a4565b9250509161dead60408401526116dd565b90506020813d602011611d2d575b81611d1660209383610ac4565b8101031261085457611d2790610de5565b38611c7a565b3d9150611d09565b60808101518354602083015160608401516001600160a01b039384169392831692909116823b156108505760405163cc3dcc8f60e01b81526001600160a01b0391821660048201523060248201526044810192909252831660648201529085908290608490829084905af180156111165761221a575b50825161012001516060830151608084015160a0850151604051633dccbfc560e01b815260048101939093526001600160a01b0391821660248401528116604483015290929186918491168180606481015b03915afa91821561111657859086936121fa575b50806121f1575b611e24575b5050611c17565b83516101200151604051636eb1769f60e11b81523060048201526001600160a01b039091166024820152602081604481855afa90811561137a5786916121bf575b5060608401511161219d575b5060208301611e9961ffff91826119b98183511695826119b260c08a0198828a51169061163b565b845161012001516060850151608086015160a087015160405163545ac70d60e01b815260048101939093526001600160a01b03918216602484015281166044830152606482019390935230608482015291602091839160a49183918b91165af1869181612169575b50611f0c5750611e1d565b60a0840151865460405163095ea7b360e01b60208083018281526001600160a01b039485166024850181905260448086018990528552989a509697959691959294939093169290600090611f61606487610ac4565b85519082865af16000513d8261214d575b505015612114575b5050865460a0860151604051631e7ea6e960e21b8152306004820152602481018690526001600160a01b039182166044820152935060209250839160649183918b91165af190811561137a5786916120da575b5015612035579060008051602061263b8339815191529161203084519460018060a01b036020820151169660018060a01b036080830151169360608301519560e060018060a01b0360a0860151169401511515925116926040519687968761164f565b0390a4565b60a083015160405163a9059cbb60e01b602082015261dead6024820181905260448083018590528252965060008051602061263b83398151915293929161208e91906001600160a01b031661208982610aa9565b61243b565b61203084519460018060a01b036020820151169660018060a01b036080830151169360608301519560e060018060a01b0360a0860151169401511515925116926040519687968761164f565b90506020813d60201161210c575b816120f560209383610ac4565b810103126108545761210690610de5565b38611fcd565b3d91506120e8565b61214493612089916040519160208301526024820152600060448201526044815261213e81610aa9565b8261243b565b38808080611f7a565b9091506121615750813b15155b3880611f72565b60011461215a565b9091506020813d602011612195575b8161218560209383610ac4565b810103126109dc57519038611f01565b3d9150612178565b835161012001516121b9916001600160a01b039091169061231c565b38611e71565b90506020813d6020116121e9575b816121da60209383610ac4565b810103126109dc575138611e65565b3d91506121cd565b50811515611e18565b90506122119192503d8087833e611b868183610ac4565b50919038611e11565b93612228611dfd9295610a7a565b9390611dab565b50815161012001516001600160a01b03161515611c12565b60808301516001600160a01b03161415905038611c0b565b61dead915014386116d7565b604051633ee76a8d60e11b8152600490fd5b6001600160a01b039791969095929391928860e06122996113d0565b5101511695863b156109dc57898096948180966040519d8e9d8e9d8e63cf8626b160e01b8152600401521660248d01521660448b01521660648901521515608488015260a48701521660c48501521660e48301525a926000610104928195f18015612310576123055750565b61230e90610a7a565b565b6040513d6000823e3d90fd5b604051906020820163095ea7b360e01b938482526020600060018060a01b0380931693846024880152811960448801526044875261235987610aa9565b86519082875af1903d60005190836123ae575b5050501561237b575b50505050565b6123a593612089916040519160208301526024820152600060448201526044815261213e81610aa9565b38808080612375565b919250906123c5575082163b15155b38808061236c565b60019150146123bd565b60405163a9059cbb60e01b60208201526001600160a01b0392909216602483015260448083019390935291815261230e91612089606483610ac4565b6000526003602052604060002054801560001461243657506002602052604060002054151590600090565b600191565b906000602091828151910182855af115612310576000513d61248e57506001600160a01b0381163b155b61246c5750565b604051635274afe760e01b81526001600160a01b039091166004820152602490fd5b60011415612465565b600154811015610e065760016000527fb10e2d527612073b26eecdfd717e6a320cf44b4afac2b0732d9fcbe2b7fa0cf60190600090565b60008181526002602052604081205490919080156125ca57600019908082018181116125b657600154908382019182116125a257818103612557575b50505060015480156125435781019061252282612497565b909182549160031b1b19169055600155815260026020526040812055600190565b634e487b7160e01b84526031600452602484fd5b61258c61256661257593612497565b90549060031b1c928392612497565b819391549060031b91821b91600019901b19161790565b905584526002602052604084205538808061250a565b634e487b7160e01b86526011600452602486fd5b634e487b7160e01b85526011600452602485fd5b505090565b600081815260026020526040812054612635576001546801000000000000000081101561262157908261260d61257584600160409601600155612497565b905560015492815260026020522055600190565b634e487b7160e01b82526041600452602482fd5b90509056fe112b8b73a27d8afb6728eb4d4bca1f123c3c9e55399b808fc64bd91a8b5b05a1a2646970667358221220a52be0f6fdce4f7853f120156c6abedf6862124682802d4c81e93ebef2efb36164736f6c63430008180033",
  "devdoc": {
    "author": "Gildi Company",
    "custom:security-contact": "security@gildi.io",
    "errors": {
      "EnumerableMapNonexistentKey(bytes32)": [
        {
          "details": "Query for a nonexistent map key."
        }
      ],
      "InvalidCaller()": [
        {
          "details": "Emitted when the caller is invalid"
        }
      ],
      "InvalidInitialization()": [
        {
          "details": "The contract is already initialized."
        }
      ],
      "NotAllowed()": [
        {
          "details": "Emitted when an operation is not allowed for the caller"
        }
      ],
      "NotInitializing()": [
        {
          "details": "The contract is not initializing."
        }
      ],
      "ParamError()": [
        {
          "details": "Emitted when a function parameter is invalid or out-of-range (e.g. zero batchSize, zero price, etc.)"
        }
      ],
      "SafeERC20FailedOperation(address)": [
        {
          "details": "An operation with an ERC-20 token failed."
        }
      ]
    },
    "events": {
      "Initialized(uint64)": {
        "details": "Triggered when the contract has been initialized or reinitialized."
      },
      "PaymentProcessed(uint256,address,address,address,uint256,address,uint256,bool,bool,bool,uint16)": {
        "params": {
          "amount": "The amount of source token",
          "from": "The address sending the payment",
          "isFee": "Whether this payment is a fee transfer",
          "listingId": "The ID of the listing being purchased",
          "payoutToken": "The token received by the recipient (may differ from sourceToken if swapped)",
          "slippageBps": "The slippage tolerance in basis points used for swaps",
          "sourceToken": "The source token used for payment",
          "swapAmount": "The amount received after swap (if performed)",
          "swapRequested": "Whether a token swap was requested",
          "swapSuccessful": "Whether the swap was successful (if requested)",
          "to": "The address receiving the payment"
        }
      },
      "PriceFeedRemoved(address)": {
        "params": {
          "currency": "The currency address"
        }
      },
      "PriceFeedSet(address,bytes32)": {
        "params": {
          "currency": "The currency address",
          "feedId": "The price feed ID"
        }
      }
    },
    "kind": "dev",
    "methods": {
      "constructor": {
        "custom:oz-upgrades-unsafe-allow": "constructor"
      },
      "getPriceFeedId(address)": {
        "params": {
          "_currency": "The currency address"
        },
        "returns": {
          "_0": "The price feed ID"
        }
      },
      "getPriceFeeds()": {
        "returns": {
          "priceFeedInfos": "Array of price feed information"
        }
      },
      "handleProcessPaymentWithFees(uint256,address,address,uint256,address,bool,address,bool,uint256,address,uint16)": {
        "params": {
          "_amountCurrency": "The currency of the amount",
          "_buyer": "The address of the buyer",
          "_createFund": "Whether to create an fund",
          "_isProxyOperation": "Whether this is a proxy operation",
          "_listingId": "The ID of the listing",
          "_listingPayoutCurrency": "The currency to payout in from the listing",
          "_operator": "The address of the operator",
          "_releaseId": "The ID of the release",
          "_seller": "The address of the seller",
          "_value": "The value to process fees for"
        }
      },
      "initialize(address)": {
        "params": {
          "_gildiExchange": "The address of the GildiExchange contract"
        }
      },
      "quoteInCurrency(uint256,address)": {
        "params": {
          "_currency": "The address of the currency to convert to",
          "_priceInUSD": "The price in USD to convert"
        },
        "returns": {
          "_0": "The equivalent amount in the specified currency"
        }
      },
      "removePriceFeedId(address)": {
        "params": {
          "_currency": "The currency address"
        }
      },
      "setPriceFeedId(address,bytes32)": {
        "params": {
          "_currency": "The currency address",
          "_feedId": "The price feed ID"
        }
      }
    },
    "stateVariables": {
      "DEAD_ADDRESS": {
        "details": "Dead address for burning tokens"
      },
      "DEFAULT_SLIPPAGE_BPS": {
        "details": "Default slippage tolerance in basis points (5%)"
      },
      "priceFeedIds": {
        "details": "Mapping from currency address to price feed ID"
      }
    },
    "title": "Gildi Exchange Payment Processor",
    "version": 1
  },
  "userdoc": {
    "events": {
      "PaymentProcessed(uint256,address,address,address,uint256,address,uint256,bool,bool,bool,uint16)": {
        "notice": "Emitted when a payment is processed for a listing purchase or fee transfer"
      },
      "PriceFeedRemoved(address)": {
        "notice": "Emitted when a price feed is removed"
      },
      "PriceFeedSet(address,bytes32)": {
        "notice": "Emitted when a price feed is set"
      }
    },
    "kind": "user",
    "methods": {
      "getPriceFeedId(address)": {
        "notice": "Gets the price feed ID for a currency"
      },
      "getPriceFeeds()": {
        "notice": "Returns all price feeds"
      },
      "gildiExchange()": {
        "notice": "The GildiExchange contract that calls this contract"
      },
      "handleProcessPaymentWithFees(uint256,address,address,uint256,address,bool,address,bool,uint256,address,uint16)": {
        "notice": "Processes payment with fees.      Calculates fees, transfers funds to fee recipients, and optionally creates funds"
      },
      "initialize(address)": {
        "notice": "Initializes the contract"
      },
      "quoteInCurrency(uint256,address)": {
        "notice": "Converts a price in USD to the equivalent amount in the specified currency"
      },
      "removePriceFeedId(address)": {
        "notice": "Removes a price feed for a currency"
      },
      "setPriceFeedId(address,bytes32)": {
        "notice": "Sets a price feed ID for a currency"
      }
    },
    "notice": "Handles payment processing, fee calculation, and currency conversions for the Gildi Exchange",
    "version": 1
  },
  "storageLayout": {
    "storage": [
      {
        "astId": 22646,
        "contract": "contracts/marketplace/exchange/GildiExchangePaymentProcessor.sol:GildiExchangePaymentProcessor",
        "label": "gildiExchange",
        "offset": 0,
        "slot": "0",
        "type": "t_contract(IGildiExchange)12307"
      },
      {
        "astId": 22650,
        "contract": "contracts/marketplace/exchange/GildiExchangePaymentProcessor.sol:GildiExchangePaymentProcessor",
        "label": "priceFeedIds",
        "offset": 0,
        "slot": "1",
        "type": "t_struct(AddressToBytes32Map)9137_storage"
      }
    ],
    "types": {
      "t_array(t_bytes32)dyn_storage": {
        "base": "t_bytes32",
        "encoding": "dynamic_array",
        "label": "bytes32[]",
        "numberOfBytes": "32"
      },
      "t_bytes32": {
        "encoding": "inplace",
        "label": "bytes32",
        "numberOfBytes": "32"
      },
      "t_contract(IGildiExchange)12307": {
        "encoding": "inplace",
        "label": "contract IGildiExchange",
        "numberOfBytes": "20"
      },
      "t_mapping(t_bytes32,t_bytes32)": {
        "encoding": "mapping",
        "key": "t_bytes32",
        "label": "mapping(bytes32 => bytes32)",
        "numberOfBytes": "32",
        "value": "t_bytes32"
      },
      "t_mapping(t_bytes32,t_uint256)": {
        "encoding": "mapping",
        "key": "t_bytes32",
        "label": "mapping(bytes32 => uint256)",
        "numberOfBytes": "32",
        "value": "t_uint256"
      },
      "t_struct(AddressToBytes32Map)9137_storage": {
        "encoding": "inplace",
        "label": "struct EnumerableMap.AddressToBytes32Map",
        "members": [
          {
            "astId": 9136,
            "contract": "contracts/marketplace/exchange/GildiExchangePaymentProcessor.sol:GildiExchangePaymentProcessor",
            "label": "_inner",
            "offset": 0,
            "slot": "0",
            "type": "t_struct(Bytes32ToBytes32Map)7455_storage"
          }
        ],
        "numberOfBytes": "96"
      },
      "t_struct(Bytes32Set)10530_storage": {
        "encoding": "inplace",
        "label": "struct EnumerableSet.Bytes32Set",
        "members": [
          {
            "astId": 10529,
            "contract": "contracts/marketplace/exchange/GildiExchangePaymentProcessor.sol:GildiExchangePaymentProcessor",
            "label": "_inner",
            "offset": 0,
            "slot": "0",
            "type": "t_struct(Set)10214_storage"
          }
        ],
        "numberOfBytes": "64"
      },
      "t_struct(Bytes32ToBytes32Map)7455_storage": {
        "encoding": "inplace",
        "label": "struct EnumerableMap.Bytes32ToBytes32Map",
        "members": [
          {
            "astId": 7450,
            "contract": "contracts/marketplace/exchange/GildiExchangePaymentProcessor.sol:GildiExchangePaymentProcessor",
            "label": "_keys",
            "offset": 0,
            "slot": "0",
            "type": "t_struct(Bytes32Set)10530_storage"
          },
          {
            "astId": 7454,
            "contract": "contracts/marketplace/exchange/GildiExchangePaymentProcessor.sol:GildiExchangePaymentProcessor",
            "label": "_values",
            "offset": 0,
            "slot": "2",
            "type": "t_mapping(t_bytes32,t_bytes32)"
          }
        ],
        "numberOfBytes": "96"
      },
      "t_struct(Set)10214_storage": {
        "encoding": "inplace",
        "label": "struct EnumerableSet.Set",
        "members": [
          {
            "astId": 10209,
            "contract": "contracts/marketplace/exchange/GildiExchangePaymentProcessor.sol:GildiExchangePaymentProcessor",
            "label": "_values",
            "offset": 0,
            "slot": "0",
            "type": "t_array(t_bytes32)dyn_storage"
          },
          {
            "astId": 10213,
            "contract": "contracts/marketplace/exchange/GildiExchangePaymentProcessor.sol:GildiExchangePaymentProcessor",
            "label": "_positions",
            "offset": 0,
            "slot": "1",
            "type": "t_mapping(t_bytes32,t_uint256)"
          }
        ],
        "numberOfBytes": "64"
      },
      "t_uint256": {
        "encoding": "inplace",
        "label": "uint256",
        "numberOfBytes": "32"
      }
    }
  }
}