{
  "address": "0x0e29f7b663c843c4C8B07E1BAd8360C34F38dEaa",
  "abi": [
    {
      "inputs": [],
      "stateMutability": "nonpayable",
      "type": "constructor"
    },
    {
      "inputs": [],
      "name": "AccessControlBadConfirmation",
      "type": "error"
    },
    {
      "inputs": [
        {
          "internalType": "address",
          "name": "account",
          "type": "address"
        },
        {
          "internalType": "bytes32",
          "name": "neededRole",
          "type": "bytes32"
        }
      ],
      "name": "AccessControlUnauthorizedAccount",
      "type": "error"
    },
    {
      "inputs": [],
      "name": "FailedCall",
      "type": "error"
    },
    {
      "inputs": [],
      "name": "IncorrectMsgValue",
      "type": "error"
    },
    {
      "inputs": [],
      "name": "IndexOutOfRange",
      "type": "error"
    },
    {
      "inputs": [
        {
          "internalType": "uint256",
          "name": "balance",
          "type": "uint256"
        },
        {
          "internalType": "uint256",
          "name": "needed",
          "type": "uint256"
        }
      ],
      "name": "InsufficientBalance",
      "type": "error"
    },
    {
      "inputs": [],
      "name": "InsufficientLiquidity",
      "type": "error"
    },
    {
      "inputs": [],
      "name": "InsufficientReceiveAmount",
      "type": "error"
    },
    {
      "inputs": [],
      "name": "InvalidInitialization",
      "type": "error"
    },
    {
      "inputs": [],
      "name": "NativeNotAllowed",
      "type": "error"
    },
    {
      "inputs": [],
      "name": "NoAdapters",
      "type": "error"
    },
    {
      "inputs": [],
      "name": "NoValidRoute",
      "type": "error"
    },
    {
      "inputs": [],
      "name": "NotEnoughSourceTokensForBestRoute",
      "type": "error"
    },
    {
      "inputs": [],
      "name": "NotInitializing",
      "type": "error"
    },
    {
      "inputs": [
        {
          "internalType": "address",
          "name": "token",
          "type": "address"
        }
      ],
      "name": "PurchaseTokenNotAllowed",
      "type": "error"
    },
    {
      "inputs": [],
      "name": "ReentrancyGuardReentrantCall",
      "type": "error"
    },
    {
      "inputs": [
        {
          "internalType": "address",
          "name": "token",
          "type": "address"
        }
      ],
      "name": "SafeERC20FailedOperation",
      "type": "error"
    },
    {
      "inputs": [],
      "name": "SlippageExceeded",
      "type": "error"
    },
    {
      "inputs": [],
      "name": "SwapOutFailed",
      "type": "error"
    },
    {
      "anonymous": false,
      "inputs": [
        {
          "indexed": false,
          "internalType": "contract IGildiExchangeSwapAdapter",
          "name": "adapter",
          "type": "address"
        }
      ],
      "name": "AdapterAdded",
      "type": "event"
    },
    {
      "anonymous": false,
      "inputs": [
        {
          "indexed": false,
          "internalType": "contract IGildiExchangeSwapAdapter",
          "name": "adapter",
          "type": "address"
        }
      ],
      "name": "AdapterRemoved",
      "type": "event"
    },
    {
      "anonymous": false,
      "inputs": [
        {
          "indexed": false,
          "internalType": "address",
          "name": "token",
          "type": "address"
        },
        {
          "indexed": false,
          "internalType": "bool",
          "name": "allowed",
          "type": "bool"
        }
      ],
      "name": "AllowedSwapInTokenSet",
      "type": "event"
    },
    {
      "anonymous": false,
      "inputs": [
        {
          "indexed": false,
          "internalType": "uint64",
          "name": "version",
          "type": "uint64"
        }
      ],
      "name": "Initialized",
      "type": "event"
    },
    {
      "anonymous": false,
      "inputs": [
        {
          "indexed": true,
          "internalType": "address",
          "name": "marketplaceToken",
          "type": "address"
        },
        {
          "indexed": false,
          "internalType": "address",
          "name": "recipient",
          "type": "address"
        },
        {
          "indexed": false,
          "internalType": "uint256",
          "name": "sourceAmount",
          "type": "uint256"
        },
        {
          "indexed": false,
          "internalType": "bool",
          "name": "swapped",
          "type": "bool"
        },
        {
          "indexed": false,
          "internalType": "address",
          "name": "targetToken",
          "type": "address"
        },
        {
          "indexed": false,
          "internalType": "uint256",
          "name": "targetAmount",
          "type": "uint256"
        }
      ],
      "name": "MarketplaceLeftoverReturned",
      "type": "event"
    },
    {
      "anonymous": false,
      "inputs": [
        {
          "indexed": false,
          "internalType": "bool",
          "name": "allow",
          "type": "bool"
        }
      ],
      "name": "PurchaseAllowNativeSet",
      "type": "event"
    },
    {
      "anonymous": false,
      "inputs": [
        {
          "indexed": true,
          "internalType": "bytes32",
          "name": "role",
          "type": "bytes32"
        },
        {
          "indexed": true,
          "internalType": "bytes32",
          "name": "previousAdminRole",
          "type": "bytes32"
        },
        {
          "indexed": true,
          "internalType": "bytes32",
          "name": "newAdminRole",
          "type": "bytes32"
        }
      ],
      "name": "RoleAdminChanged",
      "type": "event"
    },
    {
      "anonymous": false,
      "inputs": [
        {
          "indexed": true,
          "internalType": "bytes32",
          "name": "role",
          "type": "bytes32"
        },
        {
          "indexed": true,
          "internalType": "address",
          "name": "account",
          "type": "address"
        },
        {
          "indexed": true,
          "internalType": "address",
          "name": "sender",
          "type": "address"
        }
      ],
      "name": "RoleGranted",
      "type": "event"
    },
    {
      "anonymous": false,
      "inputs": [
        {
          "indexed": true,
          "internalType": "bytes32",
          "name": "role",
          "type": "bytes32"
        },
        {
          "indexed": true,
          "internalType": "address",
          "name": "account",
          "type": "address"
        },
        {
          "indexed": true,
          "internalType": "address",
          "name": "sender",
          "type": "address"
        }
      ],
      "name": "RoleRevoked",
      "type": "event"
    },
    {
      "anonymous": false,
      "inputs": [
        {
          "indexed": false,
          "internalType": "address",
          "name": "token",
          "type": "address"
        },
        {
          "indexed": false,
          "internalType": "bool",
          "name": "allowed",
          "type": "bool"
        }
      ],
      "name": "SourceTokenSet",
      "type": "event"
    },
    {
      "anonymous": false,
      "inputs": [
        {
          "indexed": true,
          "internalType": "address",
          "name": "sourceToken",
          "type": "address"
        },
        {
          "indexed": true,
          "internalType": "address",
          "name": "targetToken",
          "type": "address"
        },
        {
          "indexed": false,
          "internalType": "uint256",
          "name": "sourceAmount",
          "type": "uint256"
        },
        {
          "indexed": false,
          "internalType": "uint256",
          "name": "targetAmount",
          "type": "uint256"
        },
        {
          "indexed": false,
          "internalType": "address",
          "name": "recipient",
          "type": "address"
        },
        {
          "indexed": false,
          "internalType": "address",
          "name": "adapter",
          "type": "address"
        },
        {
          "components": [
            {
              "internalType": "address",
              "name": "marketplaceAdapter",
              "type": "address"
            },
            {
              "internalType": "address[]",
              "name": "route",
              "type": "address[]"
            },
            {
              "internalType": "uint128[]",
              "name": "fees",
              "type": "uint128[]"
            },
            {
              "internalType": "uint128[]",
              "name": "amounts",
              "type": "uint128[]"
            },
            {
              "internalType": "uint128[]",
              "name": "virtualAmountsWithoutSlippage",
              "type": "uint128[]"
            }
          ],
          "indexed": false,
          "internalType": "struct IGildiExchangeSwapAdapter.QuoteRoute",
          "name": "route",
          "type": "tuple"
        }
      ],
      "name": "SwapExecuted",
      "type": "event"
    },
    {
      "anonymous": false,
      "inputs": [
        {
          "indexed": true,
          "internalType": "address",
          "name": "sourceToken",
          "type": "address"
        },
        {
          "indexed": true,
          "internalType": "address",
          "name": "targetToken",
          "type": "address"
        },
        {
          "indexed": false,
          "internalType": "uint256",
          "name": "amount",
          "type": "uint256"
        },
        {
          "indexed": false,
          "internalType": "uint256",
          "name": "expectedOutput",
          "type": "uint256"
        },
        {
          "indexed": false,
          "internalType": "address",
          "name": "selectedAdapter",
          "type": "address"
        }
      ],
      "name": "SwapRouteSelected",
      "type": "event"
    },
    {
      "anonymous": false,
      "inputs": [
        {
          "indexed": false,
          "internalType": "address",
          "name": "wnative",
          "type": "address"
        }
      ],
      "name": "WrappedNativeSet",
      "type": "event"
    },
    {
      "inputs": [],
      "name": "ADMIN_ROLE",
      "outputs": [
        {
          "internalType": "bytes32",
          "name": "",
          "type": "bytes32"
        }
      ],
      "stateMutability": "view",
      "type": "function"
    },
    {
      "inputs": [],
      "name": "DEFAULT_ADMIN_ROLE",
      "outputs": [
        {
          "internalType": "bytes32",
          "name": "",
          "type": "bytes32"
        }
      ],
      "stateMutability": "view",
      "type": "function"
    },
    {
      "inputs": [
        {
          "internalType": "contract IGildiExchangeSwapAdapter",
          "name": "_adapter",
          "type": "address"
        }
      ],
      "name": "addAdapter",
      "outputs": [],
      "stateMutability": "nonpayable",
      "type": "function"
    },
    {
      "inputs": [
        {
          "internalType": "uint256",
          "name": "_releaseId",
          "type": "uint256"
        },
        {
          "internalType": "uint256",
          "name": "_amount",
          "type": "uint256"
        },
        {
          "internalType": "address",
          "name": "_buyer",
          "type": "address"
        },
        {
          "internalType": "address",
          "name": "_sourceToken",
          "type": "address"
        }
      ],
      "name": "estimatePurchase",
      "outputs": [
        {
          "internalType": "uint256",
          "name": "sourceNeeded",
          "type": "uint256"
        },
        {
          "internalType": "address",
          "name": "releaseCurrency",
          "type": "address"
        },
        {
          "components": [
            {
              "internalType": "address",
              "name": "marketplaceAdapter",
              "type": "address"
            },
            {
              "internalType": "address[]",
              "name": "route",
              "type": "address[]"
            },
            {
              "internalType": "uint128[]",
              "name": "fees",
              "type": "uint128[]"
            },
            {
              "internalType": "uint128[]",
              "name": "amounts",
              "type": "uint128[]"
            },
            {
              "internalType": "uint128[]",
              "name": "virtualAmountsWithoutSlippage",
              "type": "uint128[]"
            }
          ],
          "internalType": "struct IGildiExchangeSwapAdapter.QuoteRoute",
          "name": "quoteRoute",
          "type": "tuple"
        },
        {
          "internalType": "uint256",
          "name": "totalPriceUsd",
          "type": "uint256"
        }
      ],
      "stateMutability": "view",
      "type": "function"
    },
    {
      "inputs": [],
      "name": "getAdapters",
      "outputs": [
        {
          "internalType": "contract IGildiExchangeSwapAdapter[]",
          "name": "",
          "type": "address[]"
        }
      ],
      "stateMutability": "view",
      "type": "function"
    },
    {
      "inputs": [],
      "name": "getAllowedPurchaseTokens",
      "outputs": [
        {
          "internalType": "address[]",
          "name": "",
          "type": "address[]"
        }
      ],
      "stateMutability": "view",
      "type": "function"
    },
    {
      "inputs": [],
      "name": "getGildiExchange",
      "outputs": [
        {
          "internalType": "contract IGildiExchange",
          "name": "",
          "type": "address"
        }
      ],
      "stateMutability": "view",
      "type": "function"
    },
    {
      "inputs": [
        {
          "internalType": "uint256",
          "name": "_releaseId",
          "type": "uint256"
        }
      ],
      "name": "getMarketplaceToken",
      "outputs": [
        {
          "internalType": "address",
          "name": "",
          "type": "address"
        }
      ],
      "stateMutability": "view",
      "type": "function"
    },
    {
      "inputs": [],
      "name": "getPurchaseAllowNative",
      "outputs": [
        {
          "internalType": "bool",
          "name": "",
          "type": "bool"
        }
      ],
      "stateMutability": "view",
      "type": "function"
    },
    {
      "inputs": [
        {
          "internalType": "bytes32",
          "name": "role",
          "type": "bytes32"
        }
      ],
      "name": "getRoleAdmin",
      "outputs": [
        {
          "internalType": "bytes32",
          "name": "",
          "type": "bytes32"
        }
      ],
      "stateMutability": "view",
      "type": "function"
    },
    {
      "inputs": [],
      "name": "getWrappedNative",
      "outputs": [
        {
          "internalType": "address",
          "name": "",
          "type": "address"
        }
      ],
      "stateMutability": "view",
      "type": "function"
    },
    {
      "inputs": [
        {
          "internalType": "bytes32",
          "name": "role",
          "type": "bytes32"
        },
        {
          "internalType": "address",
          "name": "account",
          "type": "address"
        }
      ],
      "name": "grantRole",
      "outputs": [],
      "stateMutability": "nonpayable",
      "type": "function"
    },
    {
      "inputs": [
        {
          "internalType": "bytes32",
          "name": "role",
          "type": "bytes32"
        },
        {
          "internalType": "address",
          "name": "account",
          "type": "address"
        }
      ],
      "name": "hasRole",
      "outputs": [
        {
          "internalType": "bool",
          "name": "",
          "type": "bool"
        }
      ],
      "stateMutability": "view",
      "type": "function"
    },
    {
      "inputs": [
        {
          "internalType": "address",
          "name": "_gildiExchange",
          "type": "address"
        },
        {
          "internalType": "address",
          "name": "_wNativeAddress",
          "type": "address"
        },
        {
          "internalType": "address",
          "name": "_initialDefaultAdmin",
          "type": "address"
        },
        {
          "internalType": "address",
          "name": "_initialContractAdmin",
          "type": "address"
        }
      ],
      "name": "initialize",
      "outputs": [],
      "stateMutability": "nonpayable",
      "type": "function"
    },
    {
      "inputs": [
        {
          "internalType": "address",
          "name": "_token",
          "type": "address"
        }
      ],
      "name": "isPurchaseTokenAllowed",
      "outputs": [
        {
          "internalType": "bool",
          "name": "",
          "type": "bool"
        }
      ],
      "stateMutability": "view",
      "type": "function"
    },
    {
      "inputs": [
        {
          "internalType": "uint256",
          "name": "_amount",
          "type": "uint256"
        },
        {
          "internalType": "address",
          "name": "_sourceCurrency",
          "type": "address"
        },
        {
          "internalType": "address",
          "name": "_targetToken",
          "type": "address"
        }
      ],
      "name": "previewSwapOut",
      "outputs": [
        {
          "internalType": "bool",
          "name": "hasValidRoute",
          "type": "bool"
        },
        {
          "internalType": "uint256",
          "name": "expectedTargetAmount",
          "type": "uint256"
        },
        {
          "components": [
            {
              "internalType": "address",
              "name": "marketplaceAdapter",
              "type": "address"
            },
            {
              "internalType": "address[]",
              "name": "route",
              "type": "address[]"
            },
            {
              "internalType": "uint128[]",
              "name": "fees",
              "type": "uint128[]"
            },
            {
              "internalType": "uint128[]",
              "name": "amounts",
              "type": "uint128[]"
            },
            {
              "internalType": "uint128[]",
              "name": "virtualAmountsWithoutSlippage",
              "type": "uint128[]"
            }
          ],
          "internalType": "struct IGildiExchangeSwapAdapter.QuoteRoute",
          "name": "bestRoute",
          "type": "tuple"
        }
      ],
      "stateMutability": "view",
      "type": "function"
    },
    {
      "inputs": [
        {
          "internalType": "uint256",
          "name": "_releaseId",
          "type": "uint256"
        },
        {
          "internalType": "uint256",
          "name": "_amount",
          "type": "uint256"
        },
        {
          "internalType": "address",
          "name": "_sourceToken",
          "type": "address"
        },
        {
          "internalType": "uint256",
          "name": "_sourceMaxAmount",
          "type": "uint256"
        }
      ],
      "name": "purchase",
      "outputs": [
        {
          "internalType": "uint256",
          "name": "amountUsdSpent",
          "type": "uint256"
        }
      ],
      "stateMutability": "payable",
      "type": "function"
    },
    {
      "inputs": [
        {
          "internalType": "uint256",
          "name": "index",
          "type": "uint256"
        }
      ],
      "name": "removeAdapter",
      "outputs": [],
      "stateMutability": "nonpayable",
      "type": "function"
    },
    {
      "inputs": [
        {
          "internalType": "contract IGildiExchangeSwapAdapter",
          "name": "adapter",
          "type": "address"
        }
      ],
      "name": "removeAdapter",
      "outputs": [],
      "stateMutability": "nonpayable",
      "type": "function"
    },
    {
      "inputs": [
        {
          "internalType": "bytes32",
          "name": "role",
          "type": "bytes32"
        },
        {
          "internalType": "address",
          "name": "callerConfirmation",
          "type": "address"
        }
      ],
      "name": "renounceRole",
      "outputs": [],
      "stateMutability": "nonpayable",
      "type": "function"
    },
    {
      "inputs": [
        {
          "internalType": "bytes32",
          "name": "role",
          "type": "bytes32"
        },
        {
          "internalType": "address",
          "name": "account",
          "type": "address"
        }
      ],
      "name": "revokeRole",
      "outputs": [],
      "stateMutability": "nonpayable",
      "type": "function"
    },
    {
      "inputs": [
        {
          "internalType": "address",
          "name": "_token",
          "type": "address"
        },
        {
          "internalType": "bool",
          "name": "_allowed",
          "type": "bool"
        }
      ],
      "name": "setAllowedPurchaseToken",
      "outputs": [],
      "stateMutability": "nonpayable",
      "type": "function"
    },
    {
      "inputs": [
        {
          "internalType": "bool",
          "name": "_allow",
          "type": "bool"
        }
      ],
      "name": "setPurchaseAllowNative",
      "outputs": [],
      "stateMutability": "nonpayable",
      "type": "function"
    },
    {
      "inputs": [
        {
          "internalType": "address",
          "name": "_wnative",
          "type": "address"
        }
      ],
      "name": "setWrappedNative",
      "outputs": [],
      "stateMutability": "nonpayable",
      "type": "function"
    },
    {
      "inputs": [
        {
          "internalType": "bytes4",
          "name": "interfaceId",
          "type": "bytes4"
        }
      ],
      "name": "supportsInterface",
      "outputs": [
        {
          "internalType": "bool",
          "name": "",
          "type": "bool"
        }
      ],
      "stateMutability": "view",
      "type": "function"
    },
    {
      "inputs": [
        {
          "internalType": "uint256",
          "name": "_amount",
          "type": "uint256"
        },
        {
          "internalType": "address",
          "name": "_sourceCurrency",
          "type": "address"
        },
        {
          "internalType": "address",
          "name": "_targetToken",
          "type": "address"
        },
        {
          "internalType": "uint256",
          "name": "_minTargetAmount",
          "type": "uint256"
        },
        {
          "internalType": "address",
          "name": "_recipient",
          "type": "address"
        }
      ],
      "name": "swapOut",
      "outputs": [
        {
          "internalType": "uint256",
          "name": "targetReceived",
          "type": "uint256"
        }
      ],
      "stateMutability": "nonpayable",
      "type": "function"
    }
  ],
  "transactionHash": "0x783a49ebc4076d644612694da488b6a3b7bb7e25f8de80d8005fc19ac4f0595c",
  "args": [],
  "numDeployments": 1,
  "solcInputHash": "594efa0505e6449b9b54376cc6a6f699",
  "bytecode": "0x608080604052346100b9577ff0c57e16840df040f15088dc2f81fe391c3923bec73e23a9662efc9c229c6a009081549060ff8260401c166100aa57506001600160401b036002600160401b031982821601610065575b604051612fc59081620000bf8239f35b6001600160401b031990911681179091556040519081527fc7f505b2f371ae2175ee4913f4499e1f2633a7b5936321eed1cdaeb6115181d290602090a1388080610055565b63f92ee8a960e01b8152600490fd5b600080fdfe608080604052600436101561001357600080fd5b600090813560e01c90816301ffc9a71461144e5750806313636c40146113e7578063248a9ca3146113ad5780632591cf7e146112d55780632f2ff15d1461128a57806336568abe146112425780633dccbfc5146111ea5780634bee3c6f14610fa057806352cb60ca14610f7b578063545ac70d14610edc578063585cd34b14610db85780635bbbef3614610d8657806360d54d4114610d5057806375b238fc14610d1557806384b248cc14610cdf5780638742003414610cad57806391d1485414610c575780639242ac4d14610c24578063a217fddf14610c08578063a4ed81b314610b35578063b82e16e314610a74578063c08afa11146103ca578063d547741f1461037b578063e861e90714610345578063f212578f146103145763f8c8765e1461013f57600080fd5b34610311576080366003190112610311576101586114e9565b6101606114d3565b6101686114a7565b6101706114bd565b917ff0c57e16840df040f15088dc2f81fe391c3923bec73e23a9662efc9c229c6a009384549360ff8560401c16159467ffffffffffffffff811680159081610309575b60011490816102ff575b1590816102f6575b506102e45767ffffffffffffffff198116600117875561027f946102719361026b92886102c5575b506101f6612e6e565b6101fe612e6e565b610206612e6e565b61020e612e6e565b60017f9b779b17422d0df92223018b32b4d1fa46e071723d6817e2486d003becc55f005561023a612e6e565b600080516020612f7083398151915280546001600160a01b0319166001600160a01b03909216919091179055612126565b506121c6565b5061027a612967565b612544565b610287575080f35b68ff00000000000000001981541690557fc7f505b2f371ae2175ee4913f4499e1f2633a7b5936321eed1cdaeb6115181d2602060405160018152a180f35b68ffffffffffffffffff191668010000000000000001178955386101ed565b60405163f92ee8a960e01b8152600490fd5b905015386101c5565b303b1591506101bd565b8791506101b3565b80fd5b5034610311576020366003190112610311576020610333600435611abd565b6040516001600160a01b039091168152f35b5034610311578060031936011261031157600080516020612eb0833981519152546040516001600160a01b039091168152602090f35b5034610311576040366003190112610311576103c660043561039b6114d3565b90808452600080516020612f508339815191526020526103c1600160408620015461202e565b61230f565b5080f35b506080366003190112610311576103df6114a7565b600080516020612f708339815191525460405163d6d6254960e01b815260048035908201526024803590820152336044820152908290606090839060649082906001600160a01b03165afa8015610a695784928591610a33575b506001600160a01b03841693846109f15750905060ff600080516020612f708339815191525460a01c161580156109d1575b6109bf5760643534036109ad57600080516020612eb083398151915280546001600160a01b031685813b1561031157604051630d0e30db60e41b81529182906004908290606435905af1801561097957610996575b50548492916001600160a01b03909116905b92938493906001600160a01b03828116908416036108a5575b600080516020612f7083398151915254604051636eb1769f60e11b81523060048201526001600160a01b0391821660248201819052916020908290604490829088165afa90811561078f57879161086a575b50851161079a575b50604060018060a01b03600080516020612f70833981519152541660a482518098819362b9a28560e81b835260043560048401526024356024840152896044840152336064840152600160848401525af195861561078f5787958897610754575b506001600160a01b038481169084161461074d575b6064358110610616575b50506020955082841080610600575b6105e3575b8585604051908152f35b6105f16105f7943394611a9a565b90612a34565b388080806105d9565b506001600160a01b0382811690821614156105d4565b61062290606435611a9a565b9061073057600080516020612eb08339815191525487906001600160a01b0316803b1561072c57818091602460405180948193632e1a7d4d60e01b83528860048401525af1801561072157610709575b50508047106106e9578680808093335af13d156106e0573d61069381611b73565b906106a16040519283611655565b8152809760203d92013e5b156106bd57602095505b38806105c5565b85518690156106ce57602081519101fd5b60405163d6bda27560e01b8152600490fd5b606096506106ac565b60405163cf47918160e01b81524760048201526024810191909152604490fd5b610712906115d7565b61071d578638610672565b8680fd5b6040513d84823e3d90fd5b5080fd5b6020965061074890336001600160a01b038516612d70565b6106b6565b50846105bb565b955095506040853d604011610787575b8161077160409383611655565b8101031261071d576020855195015195386105a6565b3d9150610764565b6040513d89823e3d90fd5b60405160208101916020600063095ea7b360e01b9485815283602486015281196044860152604485526107cc8561161d565b845190826001600160a01b038a165af16000513d82610845575b5050156107f5575b5050610545565b61083d9261082e916040519160208301526024820152600060448201526044815261081f8161161d565b6001600160a01b038616612d14565b6001600160a01b038416612d14565b3880806107ee565b90915061086257506001600160a01b0385163b15155b38806107e6565b60011461085b565b9650506020863d60201161089d575b8161088660209383611655565b8101031261089857848896519061053d565b600080fd5b3d9150610879565b935093506108b66004358383611da5565b5095919060643510610984578695602091610907916108e46064356001600160a01b03808516908916612da9565b6040519889809481936312601ff160e31b8352308b6064358b8d60048801611a5e565b03926001600160a01b03165af1948515610979578695610945575b5084606435106109335785936104eb565b604051638199f5f360e01b8152600490fd5b9094506020813d602011610971575b8161096160209383611655565b8101031261089857519338610922565b3d9150610954565b6040513d88823e3d90fd5b6040516303baa8b560e61b8152600490fd5b6109a49095919392956115d7565b939091386104c0565b6040516326ea953d60e01b8152600490fd5b6040516320f2ada960e11b8152600490fd5b50600080516020612eb0833981519152546001600160a01b03161561046b565b6109fc60ff916119dd565b541615610a1a5790849291610a156064353033886125b3565b6104d2565b604051634f85a0e360e11b815260048101859052602490fd5b9050610a5891925060603d606011610a62575b610a508183611655565b8101906116b6565b5091909138610439565b503d610a46565b6040513d86823e3d90fd5b50346103115780600319360112610311576040518091600080516020612f1083398151915290815480845260208094019081938352600080516020612ed083398151915290835b818110610b185750505084610ad1910385611655565b60405193838594850191818652518092526040850193925b828110610af857505050500390f35b83516001600160a01b031685528695509381019392810192600101610ae9565b82546001600160a01b031684529286019260019283019201610abb565b50346103115780600319360112610311576040518091600080516020612ef0833981519152908154808452602080940190819383527f685bee2f432a88d68bec8e47b0c5e34915fc950db830614bd33d8bd5246ddba190835b818110610beb5750505084610ba4910385611655565b60405193838594850191818652518092526040850193925b828110610bcb57505050500390f35b83516001600160a01b031685528695509381019392810192600101610bbc565b82546001600160a01b031684529286019260019283019201610b8e565b5034610311578060031936011261031157602090604051908152f35b5034610311578060031936011261031157602060ff600080516020612f708339815191525460a01c166040519015158152f35b50346103115760403660031901126103115760ff6040602092610c786114d3565b6004358252600080516020612f5083398151915285528282206001600160a01b03909116825284522054604051911615158152f35b503461031157602036600319011261031157600435801515810361072c57610cdc90610cd7611fb4565b6129ca565b80f35b5034610311578060031936011261031157600080516020612f70833981519152546040516001600160a01b039091168152602090f35b503461031157806003193601126103115760206040517fa49807205ce4d355092ef5a8a18f56e8913cf4a201fbe287825b095693c217758152f35b5034610311576020366003190112610311576004356001600160a01b038116810361072c57610cdc90610d81611fb4565b6127fb565b503461031157602036600319011261031157602060ff610dac610da76114e9565b6119dd565b54166040519015158152f35b50346103115760208060031936011261072c576001600160a01b0360043581811690819003610ed857610de9611fb4565b600080516020612f108339815191525490845b828110610e07578580f35b83610e1182612061565b919054600392831b1c168314610e2a5750600101610dfc565b9391947fdf980d21d8c7bb34800e668dbe003299093bac8e693614151d3c57f73f98a93d9195604051908152a16000198201918211610ec457818403610e80575b50505050610e776120d5565b38808080808580f35b610eb992610e90610e9c93612061565b9054911b1c1692612061565b819391549060031b9160018060a01b03809116831b921b19161790565b905538808080610e6b565b634e487b7160e01b85526011600452602485fd5b8380fd5b50346103115760a03660031901126103115760043590610efa6114d3565b610f026114a7565b6001600160a01b03926084359260643592918585168503610311575082610f2a83838961185a565b50919015918215610f71575b5050610f5f5785610f52602097610f57973090339086166125b3565b61263d565b604051908152f35b6040516317813d4560e01b8152600490fd5b1090508338610f36565b503461031157602036600319011261031157610cdc610f986114e9565b61027a611fb4565b503461031157604036600319011261031157610fba6114e9565b60249060243591821515928381036111e657610fd4611fb4565b156110b357509060ff610fe6836119dd565b54161561101a575b600080516020612f30833981519152916040915b82516001600160a01b0390921682526020820152a180f35b600080516020612ef0833981519152805490600160401b82101561109f579161108061105e836040956001600080516020612f308339815191529896019055612092565b815491926001600160a01b0386811660039390931b92831b921b199092161790565b905561108b826119dd565b600160ff1982541617905591509150610fee565b634e487b7160e01b85526041600452602485fd5b60ff6110be836119dd565b54166110de575b50604090600080516020612f3083398151915292611002565b916110e8826119dd565b805460ff19169055600080516020612ef083398151915280546001600160a01b038481169590929190875b828110611126575b5050505050916110c5565b8461113082612092565b919054600392831b1c1689146111495750600101611113565b95969750600094939419928381019081116111d357610e9c8561116e61117b93612092565b9054908a1b1c1692612092565b905583549081156111c15750916040959391600080516020612f3083398151915297959301926111aa84612092565b81939154921b1b191690555590913880808061111b565b634e487b7160e01b8952603160045288fd5b634e487b7160e01b8a526011600452828afd5b8480fd5b50346103115760603660031901126103115761123e61121b61120a6114d3565b6112126114a7565b9060043561185a565b60409391935193849315158452602084015260606040840152606083019061153c565b0390f35b50346103115760403660031901126103115761125c6114d3565b336001600160a01b03821603611278576103c69060043561230f565b60405163334bd91960e11b8152600490fd5b5034610311576040366003190112610311576103c66004356112aa6114d3565b90808452600080516020612f508339815191526020526112d0600160408620015461202e565b612288565b5034610311576020366003190112610311576004356112f2611fb4565b600080516020612f10833981519152548082101561139b576020907fdf980d21d8c7bb34800e668dbe003299093bac8e693614151d3c57f73f98a93d61133784612061565b905460405160039290921b1c6001600160a01b0390811682529390a160001981019081116113875761137d9161136f610e9c92612061565b90549060031b1c1692612061565b9055610cdc6120d5565b634e487b7160e01b84526011600452602484fd5b604051631390f2a160e01b8152600490fd5b503461031157602036600319011261031157600160406020926004358152600080516020612f508339815191528452200154604051908152f35b50346103115760803660031901126103115761144461141b6114076114a7565b61140f6114bd565b906024356004356116f0565b919390604051948594855260018060a01b0316602085015260806040850152608084019061153c565b9060608301520390f35b90503461072c57602036600319011261072c5760043563ffffffff60e01b81168091036114a35760209250637965db0b60e01b8114908115611492575b5015158152f35b6301ffc9a760e01b1490503861148b565b8280fd5b604435906001600160a01b038216820361089857565b606435906001600160a01b038216820361089857565b602435906001600160a01b038216820361089857565b600435906001600160a01b038216820361089857565b90815180825260208080930193019160005b82811061151f575050505090565b83516001600160801b031685529381019392810192600101611511565b80516001600160a01b03908116835260208083015160a0828601819052815190860181905260c08601969593929182019160005b8281106115c157505050505060806115ad61159b6115be9596604086015185820360408701526114ff565b606085015184820360608601526114ff565b9201519060808184039101526114ff565b90565b8351851689529781019792810192600101611570565b67ffffffffffffffff81116115eb57604052565b634e487b7160e01b600052604160045260246000fd5b60a0810190811067ffffffffffffffff8211176115eb57604052565b6080810190811067ffffffffffffffff8211176115eb57604052565b6020810190811067ffffffffffffffff8211176115eb57604052565b90601f8019910116810190811067ffffffffffffffff8211176115eb57604052565b6040519061168482611601565b60606080836000815282602082015282604082015282808201520152565b51906001600160a01b038216820361089857565b908160609103126108985780519160406116d2602084016116a2565b92015190565b67ffffffffffffffff81116115eb5760051b60200190565b909161176694936116ff611677565b506001600160a01b039181831615611841575b600080516020612f70833981519152546040805163d6d6254960e01b81526004810187905260248101979097526001600160a01b039092166044870152949690946060918891851690829081906064820190565b03915afa9384156118375760009260009760009661180c575b50808816908316146117a15750906117979291611da5565b9492505093929190565b949250508351936117b185611639565b6000855280516117c081611639565b600081528151906117d082611639565b600082528251926117e084611639565b600084528051976117f089611601565b6000895260208901528701526060860152608085015293929190565b919350945061182b91965060603d606011610a6257610a508183611655565b9691929096943861177f565b513d6000823e3d90fd5b600080516020612eb08339815191525483169150611712565b9291611864611677565b506001600160a01b03938185168386161461197257604080518081600080516020612f1083398151915298895480845260208094019160009b8c52600080516020612ed0833981519152948c915b83831061195657505050506118c992500382611655565b51156118f057506118db939450612392565b60208101519060806060820151910151151592565b939250505081519161190183611639565b838352805161190f81611639565b84815281519061191e82611639565b85825282519261192d84611639565b86845280519561193c87611601565b878752602087015285015260608401526080830152829190565b86548116855260019687019688965094820194909201916118b2565b9350505060409081519161198583611639565b600090818452805161199681611639565b8281528151906119a582611639565b8382528251926119b484611639565b8484528051966119c388611601565b858852602088015286015260608501526080840152929190565b6001600160a01b031660009081527f29b67bb007a31b15dbc8250e7a602c4b79c971e992017fd3dae3b054f8ae4e046020526040902090565b60005b838110611a295750506000910152565b8181015183820152602001611a19565b90602091611a5281518092818552858086019101611a16565b601f01601f1916010190565b929360c0946115be97969260018060a01b0394858092168752166020860152604085015260608401521660808201528160a08201520190611a39565b91908203918211611aa757565b634e487b7160e01b600052601160045260246000fd5b600080516020612f7083398151915254604051636c493fa160e11b81526004810192909252602090829060249082906001600160a01b03165afa908115611b3d57600091611b09575090565b90506020813d602011611b35575b81611b2460209383611655565b81010312610898576115be906116a2565b3d9150611b17565b6040513d6000823e3d90fd5b8051821015611b5d5760209160051b010190565b634e487b7160e01b600052603260045260246000fd5b67ffffffffffffffff81116115eb57601f01601f191660200190565b9080601f8301121561089857815190602091611baa816116d8565b93611bb86040519586611655565b81855260208086019260051b82010192831161089857602001905b828210611be1575050505090565b81516001600160801b0381168103610898578152908301908301611bd3565b6020808284031261089857815167ffffffffffffffff9283821161089857019060808285031261089857604080519460808601868110868211176115eb578252835186528284015185811161089857840181601f8201121561089857805190611c6882611b73565b91611c7585519384611655565b8083528386828401011161089857611c9291868085019101611a16565b83870152818401518581116108985784019060a08282031261089857825193611cba85611601565b611cc3836116a2565b8552808301518781116108985783019082601f8301121561089857815191611cea836116d8565b92611cf787519485611655565b808452828085019160051b830101918583116108985783809101915b838310611d8d5750505050850152828201518681116108985781611d38918401611b8f565b8385015260608201518681116108985781611d54918401611b8f565b6060850152608082015195861161089857606095611d729201611b8f565b60808301528401520151801515810361089857606082015290565b8190611d98846116a2565b8152019101908390611d13565b9190600092611db2611677565b5060405192838094600080516020612f108339815191529060208254918281520191600052600080516020612ed08339815191529060005b818110611f9257505050611e099291611e04910386611655565b611abd565b835115611f805760001995606090611e1f611677565b9060009760009860005b8951811015611f3a57611e8b60008a6001600160a01b03611e4a858f611b49565b51604051631ccfbc4f60e01b81526001600160a01b03808f1660048301528d1660248201526044810193909352919384929190911690829081906064820190565b03915afa908115611b3d57600091611f17575b506060810151611eb2575b50600101611e29565b91509960019180518015600014611ed1575050506001819a5b90611ea9565b8d819d939d10611ee6575b5050600190611ecb565b9c509550935090506001600160a01b03611f00848a611b49565b511690600160406020870151960151949038611edc565b611f3491503d806000833e611f2c8183611655565b810190611c00565b38611e9e565b5094509450945094509460018060a01b03831615611f5a57505093929190565b81611f78575b5015610f5f5760405163bb55fd2760e01b8152600490fd5b905081611f60565b6040516376866e3360e01b8152600490fd5b82546001600160a01b0316845288945060209093019260019283019201611dea565b3360009081527fb16e88c42fd4e48df2dd6a2eabd6bc9aec654ec170056b470819f8892cc6431c60205260409020547fa49807205ce4d355092ef5a8a18f56e8913cf4a201fbe287825b095693c217759060ff16156120105750565b6044906040519063e2517d3f60e01b82523360048301526024820152fd5b80600052600080516020612f5083398151915260205260406000203360005260205260ff60406000205416156120105750565b600080516020612f108339815191528054821015611b5d57600052600080516020612ed08339815191520190600090565b600080516020612ef08339815191528054821015611b5d576000527f685bee2f432a88d68bec8e47b0c5e34915fc950db830614bd33d8bd5246ddba10190600090565b600080516020612f10833981519152805480156121105760001901906120fa82612061565b81549060018060a01b039060031b1b1916905555565b634e487b7160e01b600052603160045260246000fd5b6001600160a01b031660008181527fb7db2dd08fcb62d0c9e08c51941cae53c267786a0b75803fb7960902fc8ef97d6020526040812054909190600080516020612f508339815191529060ff166121c1578280526020526040822081835260205260408220600160ff1982541617905533917f2f8788117e7eff1d82e926ec794901d17c78024a50270940304540a733656f0d8180a4600190565b505090565b6001600160a01b031660008181527fb16e88c42fd4e48df2dd6a2eabd6bc9aec654ec170056b470819f8892cc6431c60205260408120549091907fa49807205ce4d355092ef5a8a18f56e8913cf4a201fbe287825b095693c2177590600080516020612f508339815191529060ff16612282578184526020526040832082845260205260408320600160ff198254161790557f2f8788117e7eff1d82e926ec794901d17c78024a50270940304540a733656f0d339380a4600190565b50505090565b90600091808352600080516020612f5083398151915280602052604084209260018060a01b03169283855260205260ff60408520541615600014612282578184526020526040832082845260205260408320600160ff198254161790557f2f8788117e7eff1d82e926ec794901d17c78024a50270940304540a733656f0d339380a4600190565b90600091808352600080516020612f5083398151915280602052604084209260018060a01b03169283855260205260ff60408520541660001461228257818452602052604083208284526020526040832060ff1981541690557ff6391f5c32d9c69d2a47ea670b442974b53935d1edc7fd64eb21e047a839171b339380a4600190565b6040519193926123a183611601565b6000835260006020840152606060408401526123bb611677565b6060840152600060808401528294604051958687600080516020612f1083398151915260208154938481520190600052600080516020612ed08339815191529260005b81811061252257505061241392500388611655565b6000602086015260005b8751811015612519576001906001600160a01b0361243b828b611b49565b5160405163156e586360e11b81526001600160a01b03888116600483015287166024820152604481018990529160009183916064918391165afa600091816124fc575b5061248b57505b0161241d565b606081015161249b575b50612485565b8051906020890151821180156124f0575b6124b7575b50612495565b60409160208a0152838060a01b036124cf848d611b49565b511689526020810151828a01520151606088015281608088015238806124b1565b506080890151156124ac565b6125129192503d806000833e611f2c8183611655565b903861247e565b50955050505050565b84546001600160a01b031683526001948501948c9450602090930192016123fe565b600080516020612eb0833981519152805490916001600160a01b0390811690821681146125ae577f141c8827a0e1bf1f8e0a0f1d0b4fce811fd3b387abb10419267afc2b7458377692816020936bffffffffffffffffffffffff60a01b16179055604051908152a1565b505050565b6040516323b872dd60e01b60208201526001600160a01b0392831660248201529290911660448301526064820192909252612604916125ff82608481015b03601f198101845283611655565b612d14565b565b90815260208101919091526001600160a01b0391821660408201529116606082015260a0608082018190526115be9291019061153c565b92936001600160a01b0380841694818416949093909290918686146127e957612667838587612392565b92608084015115610f5f5760208401908151156127d757898251106127c557868a92818588511690612699918c612da9565b5186516040805184815260208101939093529086166001600160a01b03168282015297908b908b908060608101037eca6e73aca46e0ddb95d988d9ed12ccb9c0a8fee020318f9c1367fb575443fc91a3848751169288880151878a519e8f958695634ad2cad760e11b8752600487019561271296611a5e565b03815a602094600091f19889156127ba57600099612786575b50881061277557928261276f9260608a967fccad6e02c54518d4498d41df1a13ae7b76100987b53410e79190eed4660822cf98965116920151925195869586612606565b0390a390565b835163015c439d60e21b8152600490fd5b90986020823d6020116127b2575b816127a160209383611655565b81010312610311575051973861272b565b3d9150612794565b85513d6000823e3d90fd5b60405163d83fd56f60e01b8152600490fd5b60405163bb55fd2760e01b8152600490fd5b5092955050506115be92508391612d70565b600090600080516020612f108339815191528054925b6040805180868252602080920185600052600080516020612ed083398151915260005b89811061294a57505081612849910382611655565b518310156128d557905185815260008481526001600160a01b03928391859180850191600080516020612ed0833981519152915b8b82106128b557505050926128988161289d94950382611655565b611b49565b5116908416146128af57600101612811565b50505050565b60019295839295509381948754168152019401920191869286949261287d565b5050509091600160401b8110156115eb577fcf9c2c7f9adbb156bd76affb04df84595f8f5e69cab2e61221b05b05a902fa269261291d82602094600161293f95019055612061565b81546001600160a01b0393841694929360039290921b85811b92901b19161790565b9055604051908152a1565b81546001600160a01b031683529184019160019182019101612834565b600080516020612f70833981519152805460ff8160a01c1615156001146129c65760ff60a01b1916600160a01b179055604051600181527f61fc8ba2723b8e5549ddaf194062961ae4398bf7c9db7e332a16ac936707cf2c90602090a1565b5050565b600080516020612f7083398151915290815490151560ff8260a01c16151581146125ae5760ff60a01b1990911660a082901b60ff60a01b16179091556040519081527f61fc8ba2723b8e5549ddaf194062961ae4398bf7c9db7e332a16ac936707cf2c90602090a1565b6001600160a01b0380821694929390929183821691828714612d065790612a5b9186612392565b906000916080810151151580612cf9575b612ad9575b505015612a7e5750505050565b8260a092612aae7ff9d082f0aef9f7627e1314708c9f0a8f2b3acf5b3feec8790b2017b16472869a958488612d70565b604051921682526020820152600060408201526000606082015260006080820152a2388080806128af565b6020818101518251604080518a8152808501939093529088166001600160a01b0316828201529391928792909181908b907eca6e73aca46e0ddb95d988d9ed12ccb9c0a8fee020318f9c1367fb575443fc90606090a3612b3d89848451168c612da9565b8987612b90868c878751168a880151918c8c51809681958294634ad2cad760e11b84528b60048501528c602485015260448401528360648401528d8a16608484015260c060a484015260c4830190611a39565b03925af1899181612cbe575b50612c555750505050511691805191808301938160008b63095ea7b360e01b9788815284602489015282604489015260448852612bd88861161d565b828851925af16000513d82612c39575b505015612bfd575b50505050505b3880612a71565b612c2f94612c2993519283015260248201526000604482015260448152612c238161161d565b88612d14565b86612d14565b3880808080612bf0565b909150612c4d5750893b15155b3880612be8565b600114612c46565b93919550935082959195612c6f575b505050505050612bf6565b7fccad6e02c54518d4498d41df1a13ae7b76100987b53410e79190eed4660822cf94959650908160608a612cae94511691015191519485948c86612606565b0390a36001388583828080612c64565b93509394955050508481813d8311612cf2575b612cdb8183611655565b8101031261071d5787899493928c92519038612b9c565b503d612cd1565b5060208101511515612a6c565b505050905061260492612d70565b906000602091828151910182855af115611b3d576000513d612d6757506001600160a01b0381163b155b612d455750565b604051635274afe760e01b81526001600160a01b039091166004820152602490fd5b60011415612d3e565b60405163a9059cbb60e01b60208201526001600160a01b0390921660248301526044820192909252612604916125ff82606481016125f1565b60405163095ea7b360e01b60208083018281526001600160a01b03861660248501526044808501979097529583529094919391600090612dea606487611655565b85519082865af16000513d82612e49575b505015612e085750505050565b612e40936125ff9160405191602083015260018060a01b031660248201526000604482015260448152612e3a8161161d565b82612d14565b388080806128af565b909150612e6657506001600160a01b0382163b15155b3880612dfb565b600114612e5f565b60ff7ff0c57e16840df040f15088dc2f81fe391c3923bec73e23a9662efc9c229c6a005460401c1615612e9d57565b604051631afcd79f60e31b8152600490fdfe29b67bb007a31b15dbc8250e7a602c4b79c971e992017fd3dae3b054f8ae4e016c7e8d030f530c774f3a6dd2421a053a4f87dbee12eeeb19716eeafac718564e29b67bb007a31b15dbc8250e7a602c4b79c971e992017fd3dae3b054f8ae4e0329b67bb007a31b15dbc8250e7a602c4b79c971e992017fd3dae3b054f8ae4e02bb9f8b65acf4c7b7609ee42e01734bfd2dca87d2dba521cffe793a4553e94c6b02dd7bc7dec4dceedda775e58dd541e08a116c6c53815c0bd028192f7b62680029b67bb007a31b15dbc8250e7a602c4b79c971e992017fd3dae3b054f8ae4e00a26469706673582212205bd638d2e9a034d7175f17c3947752547f9df934e399f4cf3c31cda4334b9e4b64736f6c63430008180033",
  "devdoc": {
    "author": "Gildi Company",
    "custom:security-contact": "security@gildi.io",
    "errors": {
      "AccessControlBadConfirmation()": [
        {
          "details": "The caller of a function is not the expected one. NOTE: Don't confuse with {AccessControlUnauthorizedAccount}."
        }
      ],
      "AccessControlUnauthorizedAccount(address,bytes32)": [
        {
          "details": "The `account` is missing a role."
        }
      ],
      "FailedCall()": [
        {
          "details": "A call to an address target failed. The target may have reverted."
        }
      ],
      "IncorrectMsgValue()": [
        {
          "details": "Emitted when the msg.value does not match the expected amount."
        }
      ],
      "IndexOutOfRange()": [
        {
          "details": "Emitted when an index is out of bounds."
        }
      ],
      "InsufficientBalance(uint256,uint256)": [
        {
          "details": "The ETH balance of the account is not enough to perform the operation."
        }
      ],
      "InsufficientLiquidity()": [
        {
          "details": "Emitted when there is insufficient liquidity for a swap."
        }
      ],
      "InsufficientReceiveAmount()": [
        {
          "details": "Emitted when the received amount is less than the required minimum."
        }
      ],
      "InvalidInitialization()": [
        {
          "details": "The contract is already initialized."
        }
      ],
      "NativeNotAllowed()": [
        {
          "details": "Emitted when native currency is not allowed for purchase."
        }
      ],
      "NoAdapters()": [
        {
          "details": "Emitted when there are no swap adapters configured."
        }
      ],
      "NoValidRoute()": [
        {
          "details": "Emitted when no valid route is found for a swap."
        }
      ],
      "NotEnoughSourceTokensForBestRoute()": [
        {
          "details": "Emitted when there are not enough source tokens for the best route."
        }
      ],
      "NotInitializing()": [
        {
          "details": "The contract is not initializing."
        }
      ],
      "PurchaseTokenNotAllowed(address)": [
        {
          "details": "Emitted when a token is not allowed for purchase.",
          "params": {
            "token": "The token that is not allowed."
          }
        }
      ],
      "ReentrancyGuardReentrantCall()": [
        {
          "details": "Unauthorized reentrant call."
        }
      ],
      "SafeERC20FailedOperation(address)": [
        {
          "details": "An operation with an ERC-20 token failed."
        }
      ],
      "SlippageExceeded()": [
        {
          "details": "Emitted when slippage exceeds the limit."
        }
      ],
      "SwapOutFailed()": [
        {
          "details": "Emitted when a swap operation fails."
        }
      ]
    },
    "events": {
      "AdapterAdded(address)": {
        "params": {
          "adapter": "The adapter that was added."
        }
      },
      "AdapterRemoved(address)": {
        "params": {
          "adapter": "The adapter that was removed."
        }
      },
      "AllowedSwapInTokenSet(address,bool)": {
        "params": {
          "allowed": "Whether the token is allowed for swap-in.",
          "token": "The token address."
        }
      },
      "Initialized(uint64)": {
        "details": "Triggered when the contract has been initialized or reinitialized."
      },
      "PurchaseAllowNativeSet(bool)": {
        "params": {
          "allow": "Whether native payments are allowed."
        }
      },
      "RoleAdminChanged(bytes32,bytes32,bytes32)": {
        "details": "Emitted when `newAdminRole` is set as ``role``'s admin role, replacing `previousAdminRole` `DEFAULT_ADMIN_ROLE` is the starting admin for all roles, despite {RoleAdminChanged} not being emitted to signal this."
      },
      "RoleGranted(bytes32,address,address)": {
        "details": "Emitted when `account` is granted `role`. `sender` is the account that originated the contract call. This account bears the admin role (for the granted role). Expected in cases where the role was granted using the internal {AccessControl-_grantRole}."
      },
      "RoleRevoked(bytes32,address,address)": {
        "details": "Emitted when `account` is revoked `role`. `sender` is the account that originated the contract call:   - if using `revokeRole`, it is the admin role bearer   - if using `renounceRole`, it is the role bearer (i.e. `account`)"
      },
      "SourceTokenSet(address,bool)": {
        "params": {
          "allowed": "Whether the token is allowed as a source.",
          "token": "The token address."
        }
      },
      "SwapExecuted(address,address,uint256,uint256,address,address,(address,address[],uint128[],uint128[],uint128[]))": {
        "params": {
          "adapter": "The adapter used for the swap.",
          "recipient": "The address that received the target tokens.",
          "route": "The detailed routing information used for the swap.",
          "sourceAmount": "The amount of source tokens swapped.",
          "sourceToken": "The address of the source token.",
          "targetAmount": "The amount of target tokens received.",
          "targetToken": "The address of the target token."
        }
      },
      "SwapRouteSelected(address,address,uint256,uint256,address)": {
        "params": {
          "amount": "The amount to be swapped.",
          "expectedOutput": "The expected output amount.",
          "selectedAdapter": "The address of the selected adapter for the route.",
          "sourceToken": "The starting token for the swap.",
          "targetToken": "The desired output token."
        }
      },
      "WrappedNativeSet(address)": {
        "params": {
          "wnative": "The wrapped native token address."
        }
      }
    },
    "kind": "dev",
    "methods": {
      "addAdapter(address)": {
        "params": {
          "_adapter": "The adapter to add."
        }
      },
      "constructor": {
        "custom:oz-upgrades-unsafe-allow": "constructor"
      },
      "estimatePurchase(uint256,uint256,address,address)": {
        "params": {
          "_amount": "The amount of the release.",
          "_buyer": "The buyer of the release.",
          "_releaseId": "The release ID.",
          "_sourceToken": "The token to swap from."
        },
        "returns": {
          "quoteRoute": "The route of the quote.",
          "releaseCurrency": "The active martketplace currency of the release.",
          "sourceNeeded": "The amount of `_sourceToken` required.",
          "totalPriceUsd": "The total price in USD (using exchange's priceAskDecimals)."
        }
      },
      "getGildiExchange()": {
        "returns": {
          "_0": "The GildiExchange contract."
        }
      },
      "getMarketplaceToken(uint256)": {
        "params": {
          "_releaseId": "Optional release ID to get the specific token for, or 0 for default"
        },
        "returns": {
          "_0": "The marketplace token address to use for the specified release"
        }
      },
      "getRoleAdmin(bytes32)": {
        "details": "Returns the admin role that controls `role`. See {grantRole} and {revokeRole}. To change a role's admin, use {_setRoleAdmin}."
      },
      "grantRole(bytes32,address)": {
        "details": "Grants `role` to `account`. If `account` had not been already granted `role`, emits a {RoleGranted} event. Requirements: - the caller must have ``role``'s admin role. May emit a {RoleGranted} event."
      },
      "hasRole(bytes32,address)": {
        "details": "Returns `true` if `account` has been granted `role`."
      },
      "initialize(address,address,address,address)": {
        "params": {
          "_gildiExchange": "The address of the Gildi Exchange.",
          "_initialContractAdmin": "The address of the initial contract admin.",
          "_initialDefaultAdmin": "The address of the initial default admin.",
          "_wNativeAddress": "The address of the wrapped native token."
        }
      },
      "previewSwapOut(uint256,address,address)": {
        "params": {
          "_amount": "The amount of source tokens to swap.",
          "_sourceCurrency": "The address of the source token.",
          "_targetToken": "The token to swap to."
        },
        "returns": {
          "bestRoute": "The best route for the swap.",
          "expectedTargetAmount": "The expected amount of target tokens to receive.",
          "hasValidRoute": "Whether there's a valid route for the swap."
        }
      },
      "purchase(uint256,uint256,address,uint256)": {
        "params": {
          "_amount": "The amount to purchase.",
          "_releaseId": "The release ID.",
          "_sourceMaxAmount": "Maximum amount of _sourceToken to spend.",
          "_sourceToken": "The token used for payment (address(0) means native)."
        },
        "returns": {
          "amountUsdSpent": "The amount spent in USD"
        }
      },
      "removeAdapter(address)": {
        "params": {
          "adapter": "The adapter instance to remove."
        }
      },
      "removeAdapter(uint256)": {
        "params": {
          "index": "The index of the adapter to remove."
        }
      },
      "renounceRole(bytes32,address)": {
        "details": "Revokes `role` from the calling account. Roles are often managed via {grantRole} and {revokeRole}: this function's purpose is to provide a mechanism for accounts to lose their privileges if they are compromised (such as when a trusted device is misplaced). If the calling account had been revoked `role`, emits a {RoleRevoked} event. Requirements: - the caller must be `callerConfirmation`. May emit a {RoleRevoked} event."
      },
      "revokeRole(bytes32,address)": {
        "details": "Revokes `role` from `account`. If `account` had been granted `role`, emits a {RoleRevoked} event. Requirements: - the caller must have ``role``'s admin role. May emit a {RoleRevoked} event."
      },
      "setAllowedPurchaseToken(address,bool)": {
        "params": {
          "_allowed": "True to allow the token.",
          "_token": "The address of the token."
        }
      },
      "setPurchaseAllowNative(bool)": {
        "params": {
          "_allow": "True if native payments are enabled."
        }
      },
      "setWrappedNative(address)": {
        "params": {
          "_wnative": "The address of the wrapped native token."
        }
      },
      "supportsInterface(bytes4)": {
        "details": "Returns true if this contract implements the interface defined by `interfaceId`. See the corresponding https://eips.ethereum.org/EIPS/eip-165#how-interfaces-are-identified[ERC section] to learn more about how these ids are created. This function call must use less than 30 000 gas."
      },
      "swapOut(uint256,address,address,uint256,address)": {
        "params": {
          "_amount": "The amount of source tokens to swap.",
          "_minTargetAmount": "The minimum amount of target tokens to receive (slippage protection).",
          "_recipient": "The recipient of the target tokens.",
          "_sourceCurrency": "The address of the source token.",
          "_targetToken": "The token to swap to."
        },
        "returns": {
          "targetReceived": "The amount of target tokens received."
        }
      }
    },
    "title": "GildiExchangePaymentAggregator",
    "version": 1
  },
  "userdoc": {
    "events": {
      "AdapterAdded(address)": {
        "notice": "Emitted when a new swap adapter is added."
      },
      "AdapterRemoved(address)": {
        "notice": "Emitted when a swap adapter is removed."
      },
      "AllowedSwapInTokenSet(address,bool)": {
        "notice": "Emitted when a token's swap-in status is changed."
      },
      "MarketplaceLeftoverReturned(address,address,uint256,bool,address,uint256)": {
        "notice": "Emitted when a marketplace token leftover is returned."
      },
      "PurchaseAllowNativeSet(bool)": {
        "notice": "Emitted when the native payment allowance is changed."
      },
      "SourceTokenSet(address,bool)": {
        "notice": "Emitted when a token's source status is changed."
      },
      "SwapExecuted(address,address,uint256,uint256,address,address,(address,address[],uint128[],uint128[],uint128[]))": {
        "notice": "Emitted when a swap operation is executed."
      },
      "SwapRouteSelected(address,address,uint256,uint256,address)": {
        "notice": "Emitted when a swap route is selected for a transaction."
      },
      "WrappedNativeSet(address)": {
        "notice": "Emitted when the wrapped native token address is set."
      }
    },
    "kind": "user",
    "methods": {
      "addAdapter(address)": {
        "notice": "Adds a new aggregator/DEX adapter."
      },
      "estimatePurchase(uint256,uint256,address,address)": {
        "notice": "Estimates the amount of `_sourceToken` required to get `_amount` of `_releaseId` for `_buyer` of the marketplace token and returns the current best route."
      },
      "getGildiExchange()": {
        "notice": "Returns the GildiExchange contract instance."
      },
      "getMarketplaceToken(uint256)": {
        "notice": "Returns the active marketplace token address for a given release or the default marketplace token."
      },
      "initialize(address,address,address,address)": {
        "notice": "Initializes the aggregator with the exchange, marketplace token, and wrapped native token."
      },
      "previewSwapOut(uint256,address,address)": {
        "notice": "Previews a swap out operation to check if there's a valid route and estimate the output amount."
      },
      "purchase(uint256,uint256,address,uint256)": {
        "notice": "Executes the purchase payment flow."
      },
      "removeAdapter(address)": {
        "notice": "Removes an adapter by instance."
      },
      "removeAdapter(uint256)": {
        "notice": "Removes an adapter by its index."
      },
      "setAllowedPurchaseToken(address,bool)": {
        "notice": "Sets the allowed purchase status for a given source token."
      },
      "setPurchaseAllowNative(bool)": {
        "notice": "Sets whether native payments are allowed for purchases."
      },
      "setWrappedNative(address)": {
        "notice": "Sets the wrapped native token address."
      },
      "swapOut(uint256,address,address,uint256,address)": {
        "notice": "Executes a swap out operation to convert source tokens to a target token."
      }
    },
    "notice": "A generic payment adapter that aggregates multiple DEX/aggregator adapters.",
    "version": 1
  },
  "storageLayout": {
    "storage": [],
    "types": null
  }
}