{
  "address": "0x189F7c24C1aEb8F68B2171C9255147C8D6Ec0A00",
  "abi": [
    {
      "inputs": [],
      "stateMutability": "nonpayable",
      "type": "constructor"
    },
    {
      "inputs": [],
      "name": "AccessControlBadConfirmation",
      "type": "error"
    },
    {
      "inputs": [
        {
          "internalType": "address",
          "name": "account",
          "type": "address"
        },
        {
          "internalType": "bytes32",
          "name": "neededRole",
          "type": "bytes32"
        }
      ],
      "name": "AccessControlUnauthorizedAccount",
      "type": "error"
    },
    {
      "inputs": [],
      "name": "DataSourceAddressZero",
      "type": "error"
    },
    {
      "inputs": [],
      "name": "InvalidInitialization",
      "type": "error"
    },
    {
      "inputs": [],
      "name": "NotInitializing",
      "type": "error"
    },
    {
      "inputs": [],
      "name": "OracleAddressZero",
      "type": "error"
    },
    {
      "inputs": [],
      "name": "PairNotFound",
      "type": "error"
    },
    {
      "anonymous": false,
      "inputs": [
        {
          "indexed": false,
          "internalType": "uint64",
          "name": "version",
          "type": "uint64"
        }
      ],
      "name": "Initialized",
      "type": "event"
    },
    {
      "anonymous": false,
      "inputs": [
        {
          "indexed": true,
          "internalType": "bytes32",
          "name": "role",
          "type": "bytes32"
        },
        {
          "indexed": true,
          "internalType": "bytes32",
          "name": "previousAdminRole",
          "type": "bytes32"
        },
        {
          "indexed": true,
          "internalType": "bytes32",
          "name": "newAdminRole",
          "type": "bytes32"
        }
      ],
      "name": "RoleAdminChanged",
      "type": "event"
    },
    {
      "anonymous": false,
      "inputs": [
        {
          "indexed": true,
          "internalType": "bytes32",
          "name": "role",
          "type": "bytes32"
        },
        {
          "indexed": true,
          "internalType": "address",
          "name": "account",
          "type": "address"
        },
        {
          "indexed": true,
          "internalType": "address",
          "name": "sender",
          "type": "address"
        }
      ],
      "name": "RoleGranted",
      "type": "event"
    },
    {
      "anonymous": false,
      "inputs": [
        {
          "indexed": true,
          "internalType": "bytes32",
          "name": "role",
          "type": "bytes32"
        },
        {
          "indexed": true,
          "internalType": "address",
          "name": "account",
          "type": "address"
        },
        {
          "indexed": true,
          "internalType": "address",
          "name": "sender",
          "type": "address"
        }
      ],
      "name": "RoleRevoked",
      "type": "event"
    },
    {
      "inputs": [],
      "name": "DEFAULT_ADMIN_ROLE",
      "outputs": [
        {
          "internalType": "bytes32",
          "name": "",
          "type": "bytes32"
        }
      ],
      "stateMutability": "view",
      "type": "function"
    },
    {
      "inputs": [],
      "name": "dataSource",
      "outputs": [
        {
          "internalType": "contract GildiPriceProvider",
          "name": "",
          "type": "address"
        }
      ],
      "stateMutability": "view",
      "type": "function"
    },
    {
      "inputs": [
        {
          "internalType": "bytes32",
          "name": "_pairId",
          "type": "bytes32"
        }
      ],
      "name": "getPrice",
      "outputs": [
        {
          "components": [
            {
              "internalType": "uint256",
              "name": "price",
              "type": "uint256"
            },
            {
              "internalType": "uint8",
              "name": "decimals",
              "type": "uint8"
            },
            {
              "internalType": "uint256",
              "name": "timestamp",
              "type": "uint256"
            }
          ],
          "internalType": "struct IGildiPriceResolver.PriceData",
          "name": "priceData",
          "type": "tuple"
        }
      ],
      "stateMutability": "view",
      "type": "function"
    },
    {
      "inputs": [
        {
          "internalType": "bytes32",
          "name": "_pairId",
          "type": "bytes32"
        },
        {
          "internalType": "uint256",
          "name": "_age",
          "type": "uint256"
        }
      ],
      "name": "getPriceNoOlderThan",
      "outputs": [
        {
          "components": [
            {
              "internalType": "uint256",
              "name": "price",
              "type": "uint256"
            },
            {
              "internalType": "uint8",
              "name": "decimals",
              "type": "uint8"
            },
            {
              "internalType": "uint256",
              "name": "timestamp",
              "type": "uint256"
            }
          ],
          "internalType": "struct IGildiPriceResolver.PriceData",
          "name": "priceData",
          "type": "tuple"
        }
      ],
      "stateMutability": "view",
      "type": "function"
    },
    {
      "inputs": [
        {
          "internalType": "bytes32",
          "name": "role",
          "type": "bytes32"
        }
      ],
      "name": "getRoleAdmin",
      "outputs": [
        {
          "internalType": "bytes32",
          "name": "",
          "type": "bytes32"
        }
      ],
      "stateMutability": "view",
      "type": "function"
    },
    {
      "inputs": [
        {
          "internalType": "bytes32",
          "name": "role",
          "type": "bytes32"
        },
        {
          "internalType": "address",
          "name": "account",
          "type": "address"
        }
      ],
      "name": "grantRole",
      "outputs": [],
      "stateMutability": "nonpayable",
      "type": "function"
    },
    {
      "inputs": [
        {
          "internalType": "bytes32",
          "name": "role",
          "type": "bytes32"
        },
        {
          "internalType": "address",
          "name": "account",
          "type": "address"
        }
      ],
      "name": "hasRole",
      "outputs": [
        {
          "internalType": "bool",
          "name": "",
          "type": "bool"
        }
      ],
      "stateMutability": "view",
      "type": "function"
    },
    {
      "inputs": [
        {
          "internalType": "contract GildiPriceProvider",
          "name": "_gildiPriceProvider",
          "type": "address"
        },
        {
          "internalType": "address",
          "name": "_defaultAdmin",
          "type": "address"
        }
      ],
      "name": "initialize",
      "outputs": [],
      "stateMutability": "nonpayable",
      "type": "function"
    },
    {
      "inputs": [
        {
          "internalType": "bytes32",
          "name": "role",
          "type": "bytes32"
        },
        {
          "internalType": "address",
          "name": "callerConfirmation",
          "type": "address"
        }
      ],
      "name": "renounceRole",
      "outputs": [],
      "stateMutability": "nonpayable",
      "type": "function"
    },
    {
      "inputs": [
        {
          "internalType": "bytes32",
          "name": "role",
          "type": "bytes32"
        },
        {
          "internalType": "address",
          "name": "account",
          "type": "address"
        }
      ],
      "name": "revokeRole",
      "outputs": [],
      "stateMutability": "nonpayable",
      "type": "function"
    },
    {
      "inputs": [
        {
          "internalType": "bytes4",
          "name": "interfaceId",
          "type": "bytes4"
        }
      ],
      "name": "supportsInterface",
      "outputs": [
        {
          "internalType": "bool",
          "name": "",
          "type": "bool"
        }
      ],
      "stateMutability": "view",
      "type": "function"
    }
  ],
  "transactionHash": "0x704b44920de326dbe5b0dd2363c6c0ba15dba3818c2042dc6b0ea2ef409807a6",
  "args": [],
  "numDeployments": 1,
  "solcInputHash": "5fcb370cb2b9ee0340656465635a79fa",
  "bytecode": "0x608080604052346100b8577ff0c57e16840df040f15088dc2f81fe391c3923bec73e23a9662efc9c229c6a009081549060ff8260401c166100a957506001600160401b036002600160401b031982821601610064575b60405161086890816100be8239f35b6001600160401b031990911681179091556040519081527fc7f505b2f371ae2175ee4913f4499e1f2633a7b5936321eed1cdaeb6115181d290602090a1388080610055565b63f92ee8a960e01b8152600490fd5b600080fdfe608060408181526004908136101561001657600080fd5b600092833560e01c90816301ffc9a7146104f1575080631b076edc146104c9578063248a9ca3146104915780632f2ff15d1461046957806331d98b3f146103e957806336568abe146103a2578063485cc9551461022557806391d14854146101d1578063a217fddf146101b2578063a4ae35e0146100eb5763d547741f1461009d57600080fd5b346100e757806003193601126100e7576100e391356100de60016100bf610545565b9383875260008051602061081383398151915260205286200154610611565b61078f565b5080f35b8280fd5b50346100e757806003193601126100e7576101046105b4565b508254815163052571af60e51b81528335938101939093526024803590840152606090839060449082906001600160a01b03165afa9182156101a8576101739392610177575b50519182918291909160408060608301948051845260ff60208201511660208501520151910152565b0390f35b61019a91925060603d6060116101a1575b6101928183610592565b8101906105d3565b903861014a565b503d610188565b81513d85823e3d90fd5b8382346101cd57816003193601126101cd5751908152602090f35b5080fd5b5090346100e757816003193601126100e7578160209360ff926101f2610545565b9035825260008051602061081383398151915286528282206001600160a01b039091168252855220549151911615158152f35b5090346100e757816003193601126100e75780356001600160a01b038116919082900361039e57610254610545565b7ff0c57e16840df040f15088dc2f81fe391c3923bec73e23a9662efc9c229c6a009283549260ff84871c16159367ffffffffffffffff811680159081610396575b600114908161038c575b159081610383575b506103745767ffffffffffffffff198116600117865584610355575b5060ff8554871c1615610347578115610339575085546001600160a01b0319161785556102ef90610662565b506102f8578280f35b805468ff00000000000000001916905551600181527fc7f505b2f371ae2175ee4913f4499e1f2633a7b5936321eed1cdaeb6115181d290602090a138808280f35b8551631a2da44960e31b8152fd5b8551631afcd79f60e31b8152fd5b68ffffffffffffffffff191668010000000000000001178555386102c3565b50855163f92ee8a960e01b8152fd5b905015386102a7565b303b15915061029f565b869150610295565b8380fd5b508290346101cd57806003193601126101cd576103bd610545565b90336001600160a01b038316036103da57506100e391923561078f565b5163334bd91960e11b81528390fd5b50346100e75760203660031901126100e7576104036105b4565b50825481516331d98b3f60e01b8152833593810193909352606090839060249082906001600160a01b03165afa9182156101a85761017393926101775750519182918291909160408060608301948051845260ff60208201511660208501520151910152565b50346100e757806003193601126100e7576100e3913561048c60016100bf610545565b610702565b5090346100e75760203660031901126100e7578160209360019235815260008051602061081383398151915285522001549051908152f35b8382346101cd57816003193601126101cd57905490516001600160a01b039091168152602090f35b849084346100e75760203660031901126100e7573563ffffffff60e01b81168091036100e75760209250637965db0b60e01b8114908115610534575b5015158152f35b6301ffc9a760e01b1490508361052d565b602435906001600160a01b038216820361055b57565b600080fd5b6060810190811067ffffffffffffffff82111761057c57604052565b634e487b7160e01b600052604160045260246000fd5b90601f8019910116810190811067ffffffffffffffff82111761057c57604052565b604051906105c182610560565b60006040838281528260208201520152565b9081606091031261055b57604051906105eb82610560565b8051825260208101519060ff8216820361055b5760409160208401520151604082015290565b8060005260008051602061081383398151915260205260406000203360005260205260ff60406000205416156106445750565b6044906040519063e2517d3f60e01b82523360048301526024820152fd5b6001600160a01b031660008181527fb7db2dd08fcb62d0c9e08c51941cae53c267786a0b75803fb7960902fc8ef97d60205260408120549091906000805160206108138339815191529060ff166106fd578280526020526040822081835260205260408220600160ff1982541617905533917f2f8788117e7eff1d82e926ec794901d17c78024a50270940304540a733656f0d8180a4600190565b505090565b9060009180835260008051602061081383398151915280602052604084209260018060a01b03169283855260205260ff60408520541615600014610789578184526020526040832082845260205260408320600160ff198254161790557f2f8788117e7eff1d82e926ec794901d17c78024a50270940304540a733656f0d339380a4600190565b50505090565b9060009180835260008051602061081383398151915280602052604084209260018060a01b03169283855260205260ff60408520541660001461078957818452602052604083208284526020526040832060ff1981541690557ff6391f5c32d9c69d2a47ea670b442974b53935d1edc7fd64eb21e047a839171b339380a460019056fe02dd7bc7dec4dceedda775e58dd541e08a116c6c53815c0bd028192f7b626800a2646970667358221220dd35cc808723266cbbc2ddceb6ccd6f801a4fc5cad21b953c2d16c8a01e517c464736f6c63430008180033",
  "devdoc": {
    "author": "Gildi Company",
    "custom:security-contact": "security@gildi.io",
    "errors": {
      "AccessControlBadConfirmation()": [
        {
          "details": "The caller of a function is not the expected one. NOTE: Don't confuse with {AccessControlUnauthorizedAccount}."
        }
      ],
      "AccessControlUnauthorizedAccount(address,bytes32)": [
        {
          "details": "The `account` is missing a role."
        }
      ],
      "DataSourceAddressZero()": [
        {
          "details": "Thrown when the data source address is zero"
        }
      ],
      "InvalidInitialization()": [
        {
          "details": "The contract is already initialized."
        }
      ],
      "NotInitializing()": [
        {
          "details": "The contract is not initializing."
        }
      ],
      "OracleAddressZero()": [
        {
          "details": "Thrown when the oracle address is zero"
        }
      ],
      "PairNotFound()": [
        {
          "details": "Thrown when a pair is not found"
        }
      ]
    },
    "events": {
      "Initialized(uint64)": {
        "details": "Triggered when the contract has been initialized or reinitialized."
      },
      "RoleAdminChanged(bytes32,bytes32,bytes32)": {
        "details": "Emitted when `newAdminRole` is set as ``role``'s admin role, replacing `previousAdminRole` `DEFAULT_ADMIN_ROLE` is the starting admin for all roles, despite {RoleAdminChanged} not being emitted to signal this."
      },
      "RoleGranted(bytes32,address,address)": {
        "details": "Emitted when `account` is granted `role`. `sender` is the account that originated the contract call. This account bears the admin role (for the granted role). Expected in cases where the role was granted using the internal {AccessControl-_grantRole}."
      },
      "RoleRevoked(bytes32,address,address)": {
        "details": "Emitted when `account` is revoked `role`. `sender` is the account that originated the contract call:   - if using `revokeRole`, it is the admin role bearer   - if using `renounceRole`, it is the role bearer (i.e. `account`)"
      }
    },
    "kind": "dev",
    "methods": {
      "constructor": {
        "custom:oz-upgrades-unsafe-allow": "constructor"
      },
      "getPrice(bytes32)": {
        "params": {
          "pairId": "The identifier of the asset pair"
        },
        "returns": {
          "priceData": "The price data for the asset pair"
        }
      },
      "getPriceNoOlderThan(bytes32,uint256)": {
        "params": {
          "age": "The maximum age of the price data in seconds",
          "pairId": "The identifier of the asset pair"
        }
      },
      "getRoleAdmin(bytes32)": {
        "details": "Returns the admin role that controls `role`. See {grantRole} and {revokeRole}. To change a role's admin, use {_setRoleAdmin}."
      },
      "grantRole(bytes32,address)": {
        "details": "Grants `role` to `account`. If `account` had not been already granted `role`, emits a {RoleGranted} event. Requirements: - the caller must have ``role``'s admin role. May emit a {RoleGranted} event."
      },
      "hasRole(bytes32,address)": {
        "details": "Returns `true` if `account` has been granted `role`."
      },
      "initialize(address,address)": {
        "params": {
          "_defaultAdmin": "The address of the default admin",
          "_gildiPriceProvider": "The address of the external data source"
        }
      },
      "renounceRole(bytes32,address)": {
        "details": "Revokes `role` from the calling account. Roles are often managed via {grantRole} and {revokeRole}: this function's purpose is to provide a mechanism for accounts to lose their privileges if they are compromised (such as when a trusted device is misplaced). If the calling account had been revoked `role`, emits a {RoleRevoked} event. Requirements: - the caller must be `callerConfirmation`. May emit a {RoleRevoked} event."
      },
      "revokeRole(bytes32,address)": {
        "details": "Revokes `role` from `account`. If `account` had been granted `role`, emits a {RoleRevoked} event. Requirements: - the caller must have ``role``'s admin role. May emit a {RoleRevoked} event."
      },
      "supportsInterface(bytes4)": {
        "details": "Returns true if this contract implements the interface defined by `interfaceId`. See the corresponding https://eips.ethereum.org/EIPS/eip-165#how-interfaces-are-identified[ERC section] to learn more about how these ids are created. This function call must use less than 30 000 gas."
      }
    },
    "title": "Gildi Price Resolver",
    "version": 1
  },
  "userdoc": {
    "kind": "user",
    "methods": {
      "dataSource()": {
        "notice": "The external data source for price data (could be another contract or oracle)"
      },
      "getPrice(bytes32)": {
        "notice": "Retrieves the price data for a given pair ID"
      },
      "getPriceNoOlderThan(bytes32,uint256)": {
        "notice": "Retrieves the price data for a given pair ID, with a maximum age"
      },
      "initialize(address,address)": {
        "notice": "Initializes the contract with the address of the external data source"
      }
    },
    "notice": "Resolves prices using an external data source",
    "version": 1
  },
  "storageLayout": {
    "storage": [
      {
        "astId": 51777,
        "contract": "contracts/oracles/price/resolvers/GildiPriceResolver.sol:GildiPriceResolver",
        "label": "dataSource",
        "offset": 0,
        "slot": "0",
        "type": "t_contract(GildiPriceProvider)51759"
      }
    ],
    "types": {
      "t_contract(GildiPriceProvider)51759": {
        "encoding": "inplace",
        "label": "contract GildiPriceProvider",
        "numberOfBytes": "20"
      }
    }
  }
}