{
  "address": "0xfaf93CfF860aec64ce0Dc2254C7BC127EDafb9d8",
  "abi": [
    {
      "inputs": [],
      "stateMutability": "nonpayable",
      "type": "constructor"
    },
    {
      "inputs": [],
      "name": "AccessControlBadConfirmation",
      "type": "error"
    },
    {
      "inputs": [
        {
          "internalType": "address",
          "name": "account",
          "type": "address"
        },
        {
          "internalType": "bytes32",
          "name": "neededRole",
          "type": "bytes32"
        }
      ],
      "name": "AccessControlUnauthorizedAccount",
      "type": "error"
    },
    {
      "inputs": [],
      "name": "EnforcedPause",
      "type": "error"
    },
    {
      "inputs": [],
      "name": "ExpectedPause",
      "type": "error"
    },
    {
      "inputs": [
        {
          "internalType": "uint256",
          "name": "requested",
          "type": "uint256"
        },
        {
          "internalType": "uint256",
          "name": "available",
          "type": "uint256"
        }
      ],
      "name": "InsufficientQuantity",
      "type": "error"
    },
    {
      "inputs": [],
      "name": "InvalidCaller",
      "type": "error"
    },
    {
      "inputs": [],
      "name": "InvalidInitialization",
      "type": "error"
    },
    {
      "inputs": [],
      "name": "NotAllowed",
      "type": "error"
    },
    {
      "inputs": [
        {
          "internalType": "uint256",
          "name": "requested",
          "type": "uint256"
        },
        {
          "internalType": "uint256",
          "name": "available",
          "type": "uint256"
        }
      ],
      "name": "NotEnoughTokensInListings",
      "type": "error"
    },
    {
      "inputs": [],
      "name": "NotInitializing",
      "type": "error"
    },
    {
      "inputs": [],
      "name": "ParamError",
      "type": "error"
    },
    {
      "inputs": [],
      "name": "PurchaseError",
      "type": "error"
    },
    {
      "inputs": [],
      "name": "ReentrancyGuardReentrantCall",
      "type": "error"
    },
    {
      "inputs": [
        {
          "internalType": "uint256",
          "name": "releaseId",
          "type": "uint256"
        }
      ],
      "name": "ReleaseNotFound",
      "type": "error"
    },
    {
      "inputs": [
        {
          "internalType": "uint256",
          "name": "releaseId",
          "type": "uint256"
        }
      ],
      "name": "ReleaseStateError",
      "type": "error"
    },
    {
      "inputs": [
        {
          "internalType": "address",
          "name": "token",
          "type": "address"
        }
      ],
      "name": "SafeERC20FailedOperation",
      "type": "error"
    },
    {
      "inputs": [],
      "name": "SetupError",
      "type": "error"
    },
    {
      "anonymous": false,
      "inputs": [
        {
          "indexed": false,
          "internalType": "uint8",
          "name": "askDecimals",
          "type": "uint8"
        }
      ],
      "name": "AskDecimalsSet",
      "type": "event"
    },
    {
      "anonymous": false,
      "inputs": [
        {
          "indexed": true,
          "internalType": "uint256",
          "name": "releaseId",
          "type": "uint256"
        }
      ],
      "name": "FeesUpdated",
      "type": "event"
    },
    {
      "anonymous": false,
      "inputs": [
        {
          "indexed": true,
          "internalType": "uint256",
          "name": "releaseId",
          "type": "uint256"
        },
        {
          "indexed": true,
          "internalType": "address",
          "name": "seller",
          "type": "address"
        },
        {
          "indexed": false,
          "internalType": "uint256[]",
          "name": "assetQuantities",
          "type": "uint256[]"
        },
        {
          "indexed": false,
          "internalType": "uint256[]",
          "name": "assetPrices",
          "type": "uint256[]"
        },
        {
          "indexed": false,
          "internalType": "uint256",
          "name": "maxBuy",
          "type": "uint256"
        },
        {
          "indexed": false,
          "internalType": "uint256",
          "name": "startTime",
          "type": "uint256"
        },
        {
          "indexed": false,
          "internalType": "uint256",
          "name": "duration",
          "type": "uint256"
        },
        {
          "indexed": false,
          "internalType": "bool",
          "name": "whitelistEnabled",
          "type": "bool"
        },
        {
          "indexed": false,
          "internalType": "uint256",
          "name": "whitelistDuration",
          "type": "uint256"
        },
        {
          "indexed": false,
          "internalType": "address",
          "name": "saleCurrency",
          "type": "address"
        },
        {
          "indexed": false,
          "internalType": "address",
          "name": "payoutCurrency",
          "type": "address"
        },
        {
          "components": [
            {
              "components": [
                {
                  "internalType": "address",
                  "name": "receiverAddress",
                  "type": "address"
                },
                {
                  "internalType": "address",
                  "name": "payoutCurrency",
                  "type": "address"
                },
                {
                  "internalType": "uint16",
                  "name": "value",
                  "type": "uint16"
                }
              ],
              "internalType": "struct IGildiExchange.Receiver",
              "name": "feeReceiver",
              "type": "tuple"
            },
            {
              "components": [
                {
                  "internalType": "address",
                  "name": "receiverAddress",
                  "type": "address"
                },
                {
                  "internalType": "address",
                  "name": "payoutCurrency",
                  "type": "address"
                },
                {
                  "internalType": "uint16",
                  "name": "value",
                  "type": "uint16"
                }
              ],
              "internalType": "struct IGildiExchange.Receiver[]",
              "name": "subFeeReceivers",
              "type": "tuple[]"
            }
          ],
          "indexed": false,
          "internalType": "struct IGildiExchange.FeeDistribution[]",
          "name": "saleFees",
          "type": "tuple[]"
        }
      ],
      "name": "InitialSaleCreated",
      "type": "event"
    },
    {
      "anonymous": false,
      "inputs": [
        {
          "indexed": true,
          "internalType": "uint256",
          "name": "releaseId",
          "type": "uint256"
        }
      ],
      "name": "InitialSaleEnded",
      "type": "event"
    },
    {
      "anonymous": false,
      "inputs": [
        {
          "indexed": false,
          "internalType": "uint64",
          "name": "version",
          "type": "uint64"
        }
      ],
      "name": "Initialized",
      "type": "event"
    },
    {
      "anonymous": false,
      "inputs": [
        {
          "indexed": false,
          "internalType": "address",
          "name": "marketplaceCurrency",
          "type": "address"
        }
      ],
      "name": "MarketplaceCurrencySet",
      "type": "event"
    },
    {
      "anonymous": false,
      "inputs": [
        {
          "indexed": false,
          "internalType": "address",
          "name": "account",
          "type": "address"
        }
      ],
      "name": "Paused",
      "type": "event"
    },
    {
      "anonymous": false,
      "inputs": [
        {
          "indexed": true,
          "internalType": "uint256",
          "name": "releaseId",
          "type": "uint256"
        },
        {
          "indexed": true,
          "internalType": "address",
          "name": "buyer",
          "type": "address"
        },
        {
          "indexed": true,
          "internalType": "address",
          "name": "seller",
          "type": "address"
        },
        {
          "indexed": false,
          "internalType": "address",
          "name": "operator",
          "type": "address"
        },
        {
          "indexed": false,
          "internalType": "uint256",
          "name": "listingId",
          "type": "uint256"
        },
        {
          "indexed": false,
          "internalType": "uint256",
          "name": "priceInUSD",
          "type": "uint256"
        },
        {
          "indexed": false,
          "internalType": "uint256",
          "name": "quantity",
          "type": "uint256"
        },
        {
          "indexed": false,
          "internalType": "uint256",
          "name": "priceInAsset",
          "type": "uint256"
        },
        {
          "indexed": false,
          "internalType": "address",
          "name": "asset",
          "type": "address"
        }
      ],
      "name": "Purchased",
      "type": "event"
    },
    {
      "anonymous": false,
      "inputs": [
        {
          "indexed": true,
          "internalType": "uint256",
          "name": "releaseId",
          "type": "uint256"
        },
        {
          "indexed": false,
          "internalType": "bool",
          "name": "isActive",
          "type": "bool"
        }
      ],
      "name": "ReleaseActiveStateChanged",
      "type": "event"
    },
    {
      "anonymous": false,
      "inputs": [
        {
          "indexed": true,
          "internalType": "uint256",
          "name": "releaseId",
          "type": "uint256"
        }
      ],
      "name": "ReleaseCancellationStarted",
      "type": "event"
    },
    {
      "anonymous": false,
      "inputs": [
        {
          "indexed": true,
          "internalType": "uint256",
          "name": "releaseId",
          "type": "uint256"
        }
      ],
      "name": "ReleaseCancelled",
      "type": "event"
    },
    {
      "anonymous": false,
      "inputs": [
        {
          "indexed": true,
          "internalType": "uint256",
          "name": "releaseId",
          "type": "uint256"
        }
      ],
      "name": "ReleaseInitialized",
      "type": "event"
    },
    {
      "anonymous": false,
      "inputs": [
        {
          "indexed": true,
          "internalType": "bytes32",
          "name": "role",
          "type": "bytes32"
        },
        {
          "indexed": true,
          "internalType": "bytes32",
          "name": "previousAdminRole",
          "type": "bytes32"
        },
        {
          "indexed": true,
          "internalType": "bytes32",
          "name": "newAdminRole",
          "type": "bytes32"
        }
      ],
      "name": "RoleAdminChanged",
      "type": "event"
    },
    {
      "anonymous": false,
      "inputs": [
        {
          "indexed": true,
          "internalType": "bytes32",
          "name": "role",
          "type": "bytes32"
        },
        {
          "indexed": true,
          "internalType": "address",
          "name": "account",
          "type": "address"
        },
        {
          "indexed": true,
          "internalType": "address",
          "name": "sender",
          "type": "address"
        }
      ],
      "name": "RoleGranted",
      "type": "event"
    },
    {
      "anonymous": false,
      "inputs": [
        {
          "indexed": true,
          "internalType": "bytes32",
          "name": "role",
          "type": "bytes32"
        },
        {
          "indexed": true,
          "internalType": "address",
          "name": "account",
          "type": "address"
        },
        {
          "indexed": true,
          "internalType": "address",
          "name": "sender",
          "type": "address"
        }
      ],
      "name": "RoleRevoked",
      "type": "event"
    },
    {
      "anonymous": false,
      "inputs": [
        {
          "indexed": false,
          "internalType": "address",
          "name": "account",
          "type": "address"
        }
      ],
      "name": "Unpaused",
      "type": "event"
    },
    {
      "stateMutability": "payable",
      "type": "fallback"
    },
    {
      "inputs": [],
      "name": "DEFAULT_ADMIN_ROLE",
      "outputs": [
        {
          "internalType": "bytes32",
          "name": "",
          "type": "bytes32"
        }
      ],
      "stateMutability": "view",
      "type": "function"
    },
    {
      "inputs": [],
      "name": "DEFAULT_SLIPPAGE_BPS",
      "outputs": [
        {
          "internalType": "uint16",
          "name": "",
          "type": "uint16"
        }
      ],
      "stateMutability": "view",
      "type": "function"
    },
    {
      "inputs": [
        {
          "internalType": "uint256",
          "name": "_releaseId",
          "type": "uint256"
        },
        {
          "internalType": "address",
          "name": "_buyer",
          "type": "address"
        }
      ],
      "name": "canBuy",
      "outputs": [
        {
          "internalType": "bool",
          "name": "buyAllowed",
          "type": "bool"
        },
        {
          "internalType": "uint256",
          "name": "maxBuyAmount",
          "type": "uint256"
        }
      ],
      "stateMutability": "view",
      "type": "function"
    },
    {
      "inputs": [
        {
          "internalType": "uint256[]",
          "name": "_releaseIds",
          "type": "uint256[]"
        }
      ],
      "name": "canSell",
      "outputs": [
        {
          "internalType": "bool[]",
          "name": "",
          "type": "bool[]"
        }
      ],
      "stateMutability": "view",
      "type": "function"
    },
    {
      "inputs": [
        {
          "internalType": "uint256",
          "name": "_listingId",
          "type": "uint256"
        }
      ],
      "name": "cancelListing",
      "outputs": [],
      "stateMutability": "nonpayable",
      "type": "function"
    },
    {
      "inputs": [
        {
          "internalType": "uint256",
          "name": "_releaseId",
          "type": "uint256"
        },
        {
          "internalType": "uint256",
          "name": "_batchSize",
          "type": "uint256"
        }
      ],
      "name": "cancelRelease",
      "outputs": [],
      "stateMutability": "nonpayable",
      "type": "function"
    },
    {
      "inputs": [
        {
          "components": [
            {
              "internalType": "uint256",
              "name": "releaseId",
              "type": "uint256"
            },
            {
              "internalType": "uint256[]",
              "name": "assetQuantities",
              "type": "uint256[]"
            },
            {
              "internalType": "uint256[]",
              "name": "assetPrices",
              "type": "uint256[]"
            },
            {
              "internalType": "address",
              "name": "seller",
              "type": "address"
            },
            {
              "internalType": "uint256",
              "name": "maxBuy",
              "type": "uint256"
            },
            {
              "internalType": "uint256",
              "name": "start",
              "type": "uint256"
            },
            {
              "internalType": "uint256",
              "name": "duration",
              "type": "uint256"
            },
            {
              "internalType": "bool",
              "name": "whitelist",
              "type": "bool"
            },
            {
              "internalType": "address[]",
              "name": "whitelistAddresses",
              "type": "address[]"
            },
            {
              "internalType": "uint256",
              "name": "whitelistDuration",
              "type": "uint256"
            },
            {
              "internalType": "address",
              "name": "initialSaleCurrency",
              "type": "address"
            },
            {
              "internalType": "address",
              "name": "payoutCurrency",
              "type": "address"
            },
            {
              "internalType": "address",
              "name": "fundsReceiver",
              "type": "address"
            },
            {
              "components": [
                {
                  "components": [
                    {
                      "internalType": "address",
                      "name": "receiverAddress",
                      "type": "address"
                    },
                    {
                      "internalType": "address",
                      "name": "payoutCurrency",
                      "type": "address"
                    },
                    {
                      "internalType": "uint16",
                      "name": "value",
                      "type": "uint16"
                    }
                  ],
                  "internalType": "struct IGildiExchange.Receiver",
                  "name": "feeReceiver",
                  "type": "tuple"
                },
                {
                  "components": [
                    {
                      "internalType": "address",
                      "name": "receiverAddress",
                      "type": "address"
                    },
                    {
                      "internalType": "address",
                      "name": "payoutCurrency",
                      "type": "address"
                    },
                    {
                      "internalType": "uint16",
                      "name": "value",
                      "type": "uint16"
                    }
                  ],
                  "internalType": "struct IGildiExchange.Receiver[]",
                  "name": "subFeeReceivers",
                  "type": "tuple[]"
                }
              ],
              "internalType": "struct IGildiExchange.FeeDistribution[]",
              "name": "fees",
              "type": "tuple[]"
            }
          ],
          "internalType": "struct GildiExchange.InitialSaleParams",
          "name": "_params",
          "type": "tuple"
        }
      ],
      "name": "createInitialSale",
      "outputs": [],
      "stateMutability": "nonpayable",
      "type": "function"
    },
    {
      "inputs": [
        {
          "internalType": "uint256",
          "name": "_releaseId",
          "type": "uint256"
        },
        {
          "internalType": "address",
          "name": "_seller",
          "type": "address"
        },
        {
          "internalType": "uint256",
          "name": "_pricePerItem",
          "type": "uint256"
        },
        {
          "internalType": "uint256",
          "name": "_quantity",
          "type": "uint256"
        },
        {
          "internalType": "address",
          "name": "_payoutCurrency",
          "type": "address"
        },
        {
          "internalType": "address",
          "name": "_fundsReceiver",
          "type": "address"
        }
      ],
      "name": "createListing",
      "outputs": [],
      "stateMutability": "nonpayable",
      "type": "function"
    },
    {
      "inputs": [
        {
          "internalType": "uint256",
          "name": "_releaseId",
          "type": "uint256"
        }
      ],
      "name": "getActiveMarketplaceReleaseAsset",
      "outputs": [
        {
          "internalType": "address",
          "name": "",
          "type": "address"
        }
      ],
      "stateMutability": "view",
      "type": "function"
    },
    {
      "inputs": [],
      "name": "getAppEnvironment",
      "outputs": [
        {
          "components": [
            {
              "components": [
                {
                  "internalType": "uint8",
                  "name": "priceAskDecimals",
                  "type": "uint8"
                },
                {
                  "components": [
                    {
                      "components": [
                        {
                          "internalType": "address",
                          "name": "receiverAddress",
                          "type": "address"
                        },
                        {
                          "internalType": "address",
                          "name": "payoutCurrency",
                          "type": "address"
                        },
                        {
                          "internalType": "uint16",
                          "name": "value",
                          "type": "uint16"
                        }
                      ],
                      "internalType": "struct IGildiExchange.Receiver",
                      "name": "feeReceiver",
                      "type": "tuple"
                    },
                    {
                      "components": [
                        {
                          "internalType": "address",
                          "name": "receiverAddress",
                          "type": "address"
                        },
                        {
                          "internalType": "address",
                          "name": "payoutCurrency",
                          "type": "address"
                        },
                        {
                          "internalType": "uint16",
                          "name": "value",
                          "type": "uint16"
                        }
                      ],
                      "internalType": "struct IGildiExchange.Receiver[]",
                      "name": "subFeeReceivers",
                      "type": "tuple[]"
                    }
                  ],
                  "internalType": "struct IGildiExchange.FeeDistribution[]",
                  "name": "fees",
                  "type": "tuple[]"
                },
                {
                  "internalType": "contract IERC20",
                  "name": "marketplaceCurrency",
                  "type": "address"
                },
                {
                  "internalType": "uint256",
                  "name": "maxBuyPerTransaction",
                  "type": "uint256"
                },
                {
                  "internalType": "contract IGildiManager",
                  "name": "gildiManager",
                  "type": "address"
                },
                {
                  "internalType": "contract IGildiExchangeOrderBook",
                  "name": "orderBook",
                  "type": "address"
                },
                {
                  "internalType": "contract IGildiPriceOracle",
                  "name": "gildiPriceOracle",
                  "type": "address"
                },
                {
                  "internalType": "contract IGildiExchangeFundManager",
                  "name": "fundManager",
                  "type": "address"
                },
                {
                  "internalType": "contract IGildiExchangePaymentProcessor",
                  "name": "paymentProcessor",
                  "type": "address"
                },
                {
                  "internalType": "contract IGildiExchangePaymentAggregator",
                  "name": "paymentAggregator",
                  "type": "address"
                }
              ],
              "internalType": "struct IGildiExchange.AppSettings",
              "name": "settings",
              "type": "tuple"
            },
            {
              "internalType": "uint16",
              "name": "basisPoints",
              "type": "uint16"
            },
            {
              "internalType": "bytes32",
              "name": "adminRole",
              "type": "bytes32"
            },
            {
              "internalType": "bytes32",
              "name": "marketplaceManagerRole",
              "type": "bytes32"
            },
            {
              "internalType": "bytes32",
              "name": "claimerRole",
              "type": "bytes32"
            }
          ],
          "internalType": "struct IGildiExchange.AppEnvironment",
          "name": "",
          "type": "tuple"
        }
      ],
      "stateMutability": "view",
      "type": "function"
    },
    {
      "inputs": [
        {
          "internalType": "uint256",
          "name": "_releaseId",
          "type": "uint256"
        }
      ],
      "name": "getInitialSaleByReleaseId",
      "outputs": [
        {
          "components": [
            {
              "internalType": "bool",
              "name": "active",
              "type": "bool"
            },
            {
              "internalType": "bool",
              "name": "whitelist",
              "type": "bool"
            },
            {
              "internalType": "uint256",
              "name": "startTime",
              "type": "uint256"
            },
            {
              "internalType": "uint256",
              "name": "endTime",
              "type": "uint256"
            },
            {
              "internalType": "uint256",
              "name": "whitelistUntil",
              "type": "uint256"
            },
            {
              "internalType": "uint256",
              "name": "maxBuy",
              "type": "uint256"
            },
            {
              "internalType": "address",
              "name": "saleCurrency",
              "type": "address"
            },
            {
              "components": [
                {
                  "components": [
                    {
                      "internalType": "address",
                      "name": "receiverAddress",
                      "type": "address"
                    },
                    {
                      "internalType": "address",
                      "name": "payoutCurrency",
                      "type": "address"
                    },
                    {
                      "internalType": "uint16",
                      "name": "value",
                      "type": "uint16"
                    }
                  ],
                  "internalType": "struct IGildiExchange.Receiver",
                  "name": "feeReceiver",
                  "type": "tuple"
                },
                {
                  "components": [
                    {
                      "internalType": "address",
                      "name": "receiverAddress",
                      "type": "address"
                    },
                    {
                      "internalType": "address",
                      "name": "payoutCurrency",
                      "type": "address"
                    },
                    {
                      "internalType": "uint16",
                      "name": "value",
                      "type": "uint16"
                    }
                  ],
                  "internalType": "struct IGildiExchange.Receiver[]",
                  "name": "subFeeReceivers",
                  "type": "tuple[]"
                }
              ],
              "internalType": "struct IGildiExchange.FeeDistribution[]",
              "name": "fees",
              "type": "tuple[]"
            }
          ],
          "internalType": "struct GildiExchange.InitialSale",
          "name": "",
          "type": "tuple"
        }
      ],
      "stateMutability": "view",
      "type": "function"
    },
    {
      "inputs": [
        {
          "internalType": "uint256",
          "name": "_releaseId",
          "type": "uint256"
        }
      ],
      "name": "getReleaseById",
      "outputs": [
        {
          "components": [
            {
              "internalType": "uint256",
              "name": "releaseId",
              "type": "uint256"
            },
            {
              "components": [
                {
                  "components": [
                    {
                      "internalType": "address",
                      "name": "receiverAddress",
                      "type": "address"
                    },
                    {
                      "internalType": "address",
                      "name": "payoutCurrency",
                      "type": "address"
                    },
                    {
                      "internalType": "uint16",
                      "name": "value",
                      "type": "uint16"
                    }
                  ],
                  "internalType": "struct IGildiExchange.Receiver",
                  "name": "feeReceiver",
                  "type": "tuple"
                },
                {
                  "components": [
                    {
                      "internalType": "address",
                      "name": "receiverAddress",
                      "type": "address"
                    },
                    {
                      "internalType": "address",
                      "name": "payoutCurrency",
                      "type": "address"
                    },
                    {
                      "internalType": "uint16",
                      "name": "value",
                      "type": "uint16"
                    }
                  ],
                  "internalType": "struct IGildiExchange.Receiver[]",
                  "name": "subFeeReceivers",
                  "type": "tuple[]"
                }
              ],
              "internalType": "struct IGildiExchange.FeeDistribution[]",
              "name": "additionalFees",
              "type": "tuple[]"
            },
            {
              "internalType": "bool",
              "name": "initialized",
              "type": "bool"
            },
            {
              "internalType": "bool",
              "name": "active",
              "type": "bool"
            },
            {
              "internalType": "bool",
              "name": "isCancelling",
              "type": "bool"
            }
          ],
          "internalType": "struct GildiExchange.Release",
          "name": "",
          "type": "tuple"
        }
      ],
      "stateMutability": "view",
      "type": "function"
    },
    {
      "inputs": [
        {
          "internalType": "uint256",
          "name": "_releaseId",
          "type": "uint256"
        }
      ],
      "name": "getReleaseFees",
      "outputs": [
        {
          "components": [
            {
              "components": [
                {
                  "internalType": "address",
                  "name": "receiverAddress",
                  "type": "address"
                },
                {
                  "internalType": "address",
                  "name": "payoutCurrency",
                  "type": "address"
                },
                {
                  "internalType": "uint16",
                  "name": "value",
                  "type": "uint16"
                }
              ],
              "internalType": "struct IGildiExchange.Receiver",
              "name": "feeReceiver",
              "type": "tuple"
            },
            {
              "components": [
                {
                  "internalType": "address",
                  "name": "receiverAddress",
                  "type": "address"
                },
                {
                  "internalType": "address",
                  "name": "payoutCurrency",
                  "type": "address"
                },
                {
                  "internalType": "uint16",
                  "name": "value",
                  "type": "uint16"
                }
              ],
              "internalType": "struct IGildiExchange.Receiver[]",
              "name": "subFeeReceivers",
              "type": "tuple[]"
            }
          ],
          "internalType": "struct IGildiExchange.FeeDistribution[]",
          "name": "",
          "type": "tuple[]"
        }
      ],
      "stateMutability": "view",
      "type": "function"
    },
    {
      "inputs": [
        {
          "internalType": "bool",
          "name": "_activeOnly",
          "type": "bool"
        }
      ],
      "name": "getReleaseIds",
      "outputs": [
        {
          "internalType": "uint256[]",
          "name": "",
          "type": "uint256[]"
        }
      ],
      "stateMutability": "view",
      "type": "function"
    },
    {
      "inputs": [
        {
          "internalType": "bytes32",
          "name": "role",
          "type": "bytes32"
        }
      ],
      "name": "getRoleAdmin",
      "outputs": [
        {
          "internalType": "bytes32",
          "name": "",
          "type": "bytes32"
        }
      ],
      "stateMutability": "view",
      "type": "function"
    },
    {
      "inputs": [
        {
          "internalType": "uint256",
          "name": "_releaseId",
          "type": "uint256"
        }
      ],
      "name": "getWhitelist",
      "outputs": [
        {
          "internalType": "address[]",
          "name": "",
          "type": "address[]"
        }
      ],
      "stateMutability": "view",
      "type": "function"
    },
    {
      "inputs": [
        {
          "internalType": "bytes32",
          "name": "role",
          "type": "bytes32"
        },
        {
          "internalType": "address",
          "name": "account",
          "type": "address"
        }
      ],
      "name": "grantRole",
      "outputs": [],
      "stateMutability": "nonpayable",
      "type": "function"
    },
    {
      "inputs": [
        {
          "internalType": "bytes32",
          "name": "role",
          "type": "bytes32"
        },
        {
          "internalType": "address",
          "name": "account",
          "type": "address"
        }
      ],
      "name": "hasRole",
      "outputs": [
        {
          "internalType": "bool",
          "name": "",
          "type": "bool"
        }
      ],
      "stateMutability": "view",
      "type": "function"
    },
    {
      "inputs": [
        {
          "internalType": "address",
          "name": "_initialDefaultAdmin",
          "type": "address"
        },
        {
          "internalType": "address",
          "name": "_initialAdmin",
          "type": "address"
        },
        {
          "internalType": "address",
          "name": "_initialMarketplaceManager",
          "type": "address"
        },
        {
          "internalType": "contract IGildiManager",
          "name": "_gildiManager",
          "type": "address"
        },
        {
          "internalType": "contract IERC20",
          "name": "_marketplaceCurrency",
          "type": "address"
        }
      ],
      "name": "initialize",
      "outputs": [],
      "stateMutability": "nonpayable",
      "type": "function"
    },
    {
      "inputs": [
        {
          "internalType": "uint256",
          "name": "_tokenId",
          "type": "uint256"
        },
        {
          "components": [
            {
              "components": [
                {
                  "internalType": "address",
                  "name": "receiverAddress",
                  "type": "address"
                },
                {
                  "internalType": "address",
                  "name": "payoutCurrency",
                  "type": "address"
                },
                {
                  "internalType": "uint16",
                  "name": "value",
                  "type": "uint16"
                }
              ],
              "internalType": "struct IGildiExchange.Receiver",
              "name": "feeReceiver",
              "type": "tuple"
            },
            {
              "components": [
                {
                  "internalType": "address",
                  "name": "receiverAddress",
                  "type": "address"
                },
                {
                  "internalType": "address",
                  "name": "payoutCurrency",
                  "type": "address"
                },
                {
                  "internalType": "uint16",
                  "name": "value",
                  "type": "uint16"
                }
              ],
              "internalType": "struct IGildiExchange.Receiver[]",
              "name": "subFeeReceivers",
              "type": "tuple[]"
            }
          ],
          "internalType": "struct IGildiExchange.FeeDistribution[]",
          "name": "_additionalFees",
          "type": "tuple[]"
        }
      ],
      "name": "initializeRelease",
      "outputs": [],
      "stateMutability": "nonpayable",
      "type": "function"
    },
    {
      "inputs": [
        {
          "internalType": "uint256",
          "name": "_releaseId",
          "type": "uint256"
        }
      ],
      "name": "isInInitialSale",
      "outputs": [
        {
          "internalType": "bool",
          "name": "",
          "type": "bool"
        }
      ],
      "stateMutability": "view",
      "type": "function"
    },
    {
      "inputs": [
        {
          "internalType": "uint256",
          "name": "",
          "type": "uint256"
        },
        {
          "internalType": "address",
          "name": "",
          "type": "address"
        }
      ],
      "name": "isInitialSaleWhitelistBuyer",
      "outputs": [
        {
          "internalType": "bool",
          "name": "",
          "type": "bool"
        }
      ],
      "stateMutability": "view",
      "type": "function"
    },
    {
      "inputs": [
        {
          "internalType": "uint256",
          "name": "_releaseId",
          "type": "uint256"
        }
      ],
      "name": "isWhitelistSale",
      "outputs": [
        {
          "internalType": "bool",
          "name": "",
          "type": "bool"
        }
      ],
      "stateMutability": "view",
      "type": "function"
    },
    {
      "inputs": [
        {
          "internalType": "uint256",
          "name": "_listingId",
          "type": "uint256"
        },
        {
          "internalType": "uint256",
          "name": "_newPricePerItem",
          "type": "uint256"
        },
        {
          "internalType": "uint256",
          "name": "_newQuantity",
          "type": "uint256"
        },
        {
          "internalType": "address",
          "name": "_payoutCurrency",
          "type": "address"
        },
        {
          "internalType": "address",
          "name": "_fundsReceiver",
          "type": "address"
        }
      ],
      "name": "modifyListing",
      "outputs": [],
      "stateMutability": "nonpayable",
      "type": "function"
    },
    {
      "inputs": [],
      "name": "pause",
      "outputs": [],
      "stateMutability": "nonpayable",
      "type": "function"
    },
    {
      "inputs": [],
      "name": "paused",
      "outputs": [
        {
          "internalType": "bool",
          "name": "",
          "type": "bool"
        }
      ],
      "stateMutability": "view",
      "type": "function"
    },
    {
      "inputs": [
        {
          "internalType": "uint256",
          "name": "_releaseId",
          "type": "uint256"
        },
        {
          "internalType": "uint256",
          "name": "_amount",
          "type": "uint256"
        },
        {
          "internalType": "uint256",
          "name": "_maxTotalPrice",
          "type": "uint256"
        },
        {
          "internalType": "address",
          "name": "_beneficiary",
          "type": "address"
        },
        {
          "internalType": "bool",
          "name": "_isProxyOperation",
          "type": "bool"
        }
      ],
      "name": "purchase",
      "outputs": [
        {
          "internalType": "uint256",
          "name": "amountSpent",
          "type": "uint256"
        },
        {
          "internalType": "uint256",
          "name": "amountUsdSpent",
          "type": "uint256"
        }
      ],
      "stateMutability": "nonpayable",
      "type": "function"
    },
    {
      "inputs": [
        {
          "internalType": "uint256",
          "name": "_releaseId",
          "type": "uint256"
        },
        {
          "internalType": "uint256",
          "name": "_priceInUsd",
          "type": "uint256"
        }
      ],
      "name": "quotePrice",
      "outputs": [
        {
          "internalType": "address",
          "name": "activeMarketplaceReleaseAsset",
          "type": "address"
        },
        {
          "internalType": "uint256",
          "name": "priceInAsset",
          "type": "uint256"
        }
      ],
      "stateMutability": "view",
      "type": "function"
    },
    {
      "inputs": [
        {
          "internalType": "uint256",
          "name": "_releaseId",
          "type": "uint256"
        },
        {
          "internalType": "uint256",
          "name": "_amountToBuy",
          "type": "uint256"
        },
        {
          "internalType": "address",
          "name": "_buyer",
          "type": "address"
        }
      ],
      "name": "quotePricePreview",
      "outputs": [
        {
          "internalType": "uint256",
          "name": "",
          "type": "uint256"
        },
        {
          "internalType": "address",
          "name": "",
          "type": "address"
        },
        {
          "internalType": "uint256",
          "name": "",
          "type": "uint256"
        }
      ],
      "stateMutability": "view",
      "type": "function"
    },
    {
      "inputs": [
        {
          "internalType": "uint256",
          "name": "",
          "type": "uint256"
        }
      ],
      "name": "releases",
      "outputs": [
        {
          "internalType": "uint256",
          "name": "releaseId",
          "type": "uint256"
        },
        {
          "internalType": "bool",
          "name": "initialized",
          "type": "bool"
        },
        {
          "internalType": "bool",
          "name": "active",
          "type": "bool"
        },
        {
          "internalType": "bool",
          "name": "isCancelling",
          "type": "bool"
        }
      ],
      "stateMutability": "view",
      "type": "function"
    },
    {
      "inputs": [
        {
          "internalType": "bytes32",
          "name": "role",
          "type": "bytes32"
        },
        {
          "internalType": "address",
          "name": "callerConfirmation",
          "type": "address"
        }
      ],
      "name": "renounceRole",
      "outputs": [],
      "stateMutability": "nonpayable",
      "type": "function"
    },
    {
      "inputs": [
        {
          "internalType": "bytes32",
          "name": "role",
          "type": "bytes32"
        },
        {
          "internalType": "address",
          "name": "account",
          "type": "address"
        }
      ],
      "name": "revokeRole",
      "outputs": [],
      "stateMutability": "nonpayable",
      "type": "function"
    },
    {
      "inputs": [
        {
          "internalType": "uint8",
          "name": "_askDecimals",
          "type": "uint8"
        }
      ],
      "name": "setAskDecimals",
      "outputs": [],
      "stateMutability": "nonpayable",
      "type": "function"
    },
    {
      "inputs": [
        {
          "components": [
            {
              "components": [
                {
                  "internalType": "address",
                  "name": "receiverAddress",
                  "type": "address"
                },
                {
                  "internalType": "address",
                  "name": "payoutCurrency",
                  "type": "address"
                },
                {
                  "internalType": "uint16",
                  "name": "value",
                  "type": "uint16"
                }
              ],
              "internalType": "struct IGildiExchange.Receiver",
              "name": "feeReceiver",
              "type": "tuple"
            },
            {
              "components": [
                {
                  "internalType": "address",
                  "name": "receiverAddress",
                  "type": "address"
                },
                {
                  "internalType": "address",
                  "name": "payoutCurrency",
                  "type": "address"
                },
                {
                  "internalType": "uint16",
                  "name": "value",
                  "type": "uint16"
                }
              ],
              "internalType": "struct IGildiExchange.Receiver[]",
              "name": "subFeeReceivers",
              "type": "tuple[]"
            }
          ],
          "internalType": "struct IGildiExchange.FeeDistribution[]",
          "name": "_fees",
          "type": "tuple[]"
        }
      ],
      "name": "setFees",
      "outputs": [],
      "stateMutability": "nonpayable",
      "type": "function"
    },
    {
      "inputs": [
        {
          "internalType": "address",
          "name": "_marketplaceCurrency",
          "type": "address"
        }
      ],
      "name": "setMarketplaceCurrency",
      "outputs": [],
      "stateMutability": "nonpayable",
      "type": "function"
    },
    {
      "inputs": [
        {
          "internalType": "uint256",
          "name": "_maxBuyPerTransaction",
          "type": "uint256"
        }
      ],
      "name": "setMaxBuyPerTransaction",
      "outputs": [],
      "stateMutability": "nonpayable",
      "type": "function"
    },
    {
      "inputs": [
        {
          "internalType": "uint256",
          "name": "_releaseId",
          "type": "uint256"
        },
        {
          "internalType": "bool",
          "name": "_active",
          "type": "bool"
        }
      ],
      "name": "setReleaseActive",
      "outputs": [],
      "stateMutability": "nonpayable",
      "type": "function"
    },
    {
      "inputs": [
        {
          "internalType": "uint256",
          "name": "_releaseId",
          "type": "uint256"
        },
        {
          "components": [
            {
              "components": [
                {
                  "internalType": "address",
                  "name": "receiverAddress",
                  "type": "address"
                },
                {
                  "internalType": "address",
                  "name": "payoutCurrency",
                  "type": "address"
                },
                {
                  "internalType": "uint16",
                  "name": "value",
                  "type": "uint16"
                }
              ],
              "internalType": "struct IGildiExchange.Receiver",
              "name": "feeReceiver",
              "type": "tuple"
            },
            {
              "components": [
                {
                  "internalType": "address",
                  "name": "receiverAddress",
                  "type": "address"
                },
                {
                  "internalType": "address",
                  "name": "payoutCurrency",
                  "type": "address"
                },
                {
                  "internalType": "uint16",
                  "name": "value",
                  "type": "uint16"
                }
              ],
              "internalType": "struct IGildiExchange.Receiver[]",
              "name": "subFeeReceivers",
              "type": "tuple[]"
            }
          ],
          "internalType": "struct IGildiExchange.FeeDistribution[]",
          "name": "_additionalFees",
          "type": "tuple[]"
        }
      ],
      "name": "setReleaseFees",
      "outputs": [],
      "stateMutability": "nonpayable",
      "type": "function"
    },
    {
      "inputs": [
        {
          "internalType": "contract IGildiPriceOracle",
          "name": "_gildiPriceOracle",
          "type": "address"
        },
        {
          "internalType": "uint8",
          "name": "_askDecimals",
          "type": "uint8"
        },
        {
          "internalType": "contract IGildiExchangeOrderBook",
          "name": "_orderBook",
          "type": "address"
        },
        {
          "internalType": "contract IGildiExchangeFundManager",
          "name": "_fundManager",
          "type": "address"
        },
        {
          "internalType": "contract IGildiExchangePaymentProcessor",
          "name": "_paymentProcessor",
          "type": "address"
        },
        {
          "internalType": "contract IGildiExchangePaymentAggregator",
          "name": "_paymentAggregator",
          "type": "address"
        }
      ],
      "name": "setup",
      "outputs": [],
      "stateMutability": "nonpayable",
      "type": "function"
    },
    {
      "inputs": [
        {
          "internalType": "bytes4",
          "name": "interfaceId",
          "type": "bytes4"
        }
      ],
      "name": "supportsInterface",
      "outputs": [
        {
          "internalType": "bool",
          "name": "",
          "type": "bool"
        }
      ],
      "stateMutability": "view",
      "type": "function"
    },
    {
      "inputs": [
        {
          "internalType": "address",
          "name": "_from",
          "type": "address"
        },
        {
          "internalType": "address",
          "name": "_to",
          "type": "address"
        },
        {
          "internalType": "uint256",
          "name": "_value",
          "type": "uint256"
        },
        {
          "internalType": "address",
          "name": "_amountCurrency",
          "type": "address"
        }
      ],
      "name": "transferTokenInContext",
      "outputs": [],
      "stateMutability": "nonpayable",
      "type": "function"
    },
    {
      "inputs": [
        {
          "internalType": "address",
          "name": "_from",
          "type": "address"
        },
        {
          "internalType": "uint256",
          "name": "_value",
          "type": "uint256"
        },
        {
          "internalType": "address",
          "name": "_amountCurrency",
          "type": "address"
        }
      ],
      "name": "tryBurnTokenInContext",
      "outputs": [
        {
          "internalType": "bool",
          "name": "",
          "type": "bool"
        }
      ],
      "stateMutability": "nonpayable",
      "type": "function"
    },
    {
      "inputs": [
        {
          "internalType": "uint256",
          "name": "_releaseId",
          "type": "uint256"
        },
        {
          "internalType": "uint256",
          "name": "_batchSize",
          "type": "uint256"
        }
      ],
      "name": "unlistAllListings",
      "outputs": [],
      "stateMutability": "nonpayable",
      "type": "function"
    },
    {
      "inputs": [],
      "name": "unpause",
      "outputs": [],
      "stateMutability": "nonpayable",
      "type": "function"
    },
    {
      "stateMutability": "payable",
      "type": "receive"
    }
  ],
  "transactionHash": "0x1c0614db33f383164235c65abf7beeb8b983a12a4490ba6d8133a1ce07804280",
  "args": [],
  "numDeployments": 2,
  "solcInputHash": "1e10828a34271bc2b619ac58f0876cd3",
  "bytecode": "0x60808060405234620000bd577ff0c57e16840df040f15088dc2f81fe391c3923bec73e23a9662efc9c229c6a009081549060ff8260401c16620000ae57506001600160401b036002600160401b03198282160162000068575b604051615cc99081620000c38239f35b6001600160401b031990911681179091556040519081527fc7f505b2f371ae2175ee4913f4499e1f2633a7b5936321eed1cdaeb6115181d290602090a138808062000058565b63f92ee8a960e01b8152600490fd5b600080fdfe61010080604052600436101561003b575b50361561002957604051631eb49d6d60e11b8152600490fd5b604051631eb49d6d60e11b8152600490fd5b600060c05260c0513560e01c90816301ffc9a714613b675750806302c1bab414613a30578063037889ff146139fc5780631459457a14613807578063248a9ca3146137c95780632f2ff15d1461377b578063305a67a8146135d457806336568abe1461358d5780633f4ba83a14613511578063401ee72c1461328957806343da82ea1461317057806344c4ad1714612f3d5780634d57bab414612f1f5780634deee03e14612ef557806355d2a70b14612e3757806356f8ab1f14612e1a5780635ae19be214612daf5780635c975abb14612d7e5780635e44cbd214612d5957806366445b3f14612c105780636feec2f214612a0957806379fa9ba4146129d95780637aec70ed14611ee55780637b98b19614611ebd5780638144116014611d8a5780638456cb5914611d1e57806391d1485414611cc257806394a1dd8d14611c7357806396620225146119ea57806396db752a1461192c57806399d1891b1461190d578063a217fddf146118ef578063a5ab6a1014611809578063ae67e06d1461144e578063b6a9f40f146113f6578063b9a28500146109d4578063cc1bdf8a146109ab578063cc3dcc8f1461096e578063d547741f14610919578063d6d6254914610737578063d8927f4214610707578063dfd4b9c114610432578063e2636f2b146103545763e9754b35146102325738610010565b346103495760c0366003190112610349576001600160a01b03600435818116908190036103495760243560ff8116810361034f57604435838116809103610349576064359084821680920361034957608435928584168094036103495760a435958616809603610349576102b5906102a86156ad565b6102b06156ad565b61489c565b83158015610341575b8015610339575b8015610331575b8015610329575b610317576001600160601b0360a01b93846006541617600655836005541617600555826007541617600755816008541617600855600954161760095560c05160c051f35b604051633ee76a8d60e11b8152600490fd5b5082156102d3565b5084156102cc565b5081156102c5565b5080156102be565b60c05180fd5b600080fd5b34610349576040366003190112610349576004356024358015159081810361034f5761037e6156ad565b8260c05152600b6020526002604060c0512001805460ff8116156104195782908161040b575b506103f257805461ff00191691151560081b61ff00169190911790557f1e3f43a599d18ce73815d1c5cdc10ba47dc43f357ba6ebdcd458d2793d5083c490602090604051908152a260c05180f35b6040516337852fe560e21b815260048101859052602490fd5b60ff915060101c16856103a4565b6040516337852fe560e21b815260048101869052602490fd5b34610349576020366003190112610349576004356001600160401b03811161034957610462903690600401613d30565b61046a6156ad565b61047d610478368385614c02565b615882565b600160401b81116106f15760015481600155808210610675575b5081600160c05152600080516020615c148339815191529060c051935b8385106104e85760c0517f9fe6eeb0f0541c644a56c67efeb872dbadd803a60b909d7dde1b35a3fe230b0e8180a260c05180f35b6104f28183614419565b6001600160a01b0361050382614711565b85546001600160a01b0319169116178455600184016001600160a01b0361052c60208401614711565b82546001600160a01b0319169116178155604082013561ffff8116810361034957815461ffff60a01b191660a09190911b61ffff60a01b16179055606081013590601e198136030182121561034957016001600160401b0381351161034957606081350236036020820113610349576105a98135600286016145c2565b60208101906002850160c05152602060c051209160c051905b823582106105e1575050505060036020600192019301940193916104b4565b6001600160a01b036105f282614711565b85546001600160a01b03191691161784556001600160a01b0361061760208301614711565b166001600160601b0360a01b60018601541617600185015561ffff604082013516604082013503610349576001848101805461ffff60a01b1916604084013560a01b61ffff60a01b16179055906002906060019401910190926105c2565b600390806003029060038204036106db57826003026003810484036106db576001600052600080516020615c1483398151915291820191015b8181106106bc575050610497565b806000849255600060018201556106d56002820161455c565b016106ae565b634e487b7160e01b600052601160045260246000fd5b634e487b7160e01b600052604160045260246000fd5b346103495760203660031901126103495760206107256004356153bf565b6040516001600160a01b039091168152f35b3461034957606036600319011261034957600435602435610756613cda565b908260c05152600b602052604060c05120600c60205260ff604060c0512054169081610909575b81156108f7575b81156108e4575b506108cb576005546040516305cad88760e41b815260048101949094526001600160a01b039283166024850152604484018290526080908490606490829086165afa9283156108be5760c05193610844575b5082518181106108265750506108226060602084015192604085015116930151604051938493846040919493926060820195825260018060a01b031660208201520152565b0390f35b6044925060405191633d346c4760e01b835260048301526024820152fd5b9092506080813d6080116108b6575b8161086060809383613e45565b81010312610349576040519060808201908282106001600160401b038311176106f15760609160405280518352602081015160208401526108a360408201614240565b60408401520151606082015291836107dd565b3d9150610853565b6040513d60c051823e3d90fd5b6040516337852fe560e21b815260048101849052602490fd5b60ff91506002015460081c16158461078b565b600281015460101c60ff169150610784565b600281015460ff1615915061077d565b3461034957604036600319011261034957610967600435610938613cae565b908060c05152600080516020615bf48339815191526020526109626001604060c051200154615771565b6157ff565b5060c05180f35b34610349576080366003190112610349576109a561098a613cc4565b610992613cae565b9061099b613d06565b91604435916152c5565b60c05180f35b34610349576020366003190112610349576109a56109c7613cc4565b6109cf6156ad565b615661565b346103495760a0366003190112610349576109ed613d06565b60843560e05260e051151560e0510361034f57610a086157a4565b610a106157d4565b6001600160a01b0381166113f15750335b610a2d81600435613ffd565b90156113265780151590816113e5575b5061132657610a4d600435615993565b610a586004356153bf565b60043560c05152600b6020526002604060c05120015460ff8116159081156113d6575b81156113c7575b506110e057600554604051633951390760e21b815260048035908201526001600160a01b0384811660248301529091169190602081604481865afa9081156108be5760c05191611395575b5060243581106113755750610ae360043561480c565b9160243560a05260c0519060c051946024602060c051936040519283809263297d189f60e11b825260043560048301525afa9081156108be5760c05191611343575b5095909195925b83151580611338575b156111da5760055460405163083d13a560e11b81526004810186905292906001600160a01b031661018084602481845afa9384156108be5760c051946111a7575b5060408401516001600160a01b0386811691161461113b575090829160a0610c079594015160c05160805260a051811015600014611133575060a0516080525b610bc460805160a051613ff0565b60a0526008546060840151604051633e535d2f60e11b815260048101919091526001600160a01b0389811660248301529096911690602090879081906044820190565b0381845afa9586156108be5760c051966110ff575b50610c2960805187614549565b91610c3a6080516060870151614549565b6101608601519092906001600160a01b0316806110f9575060408601516001600160a01b0316905b86519060018060a01b0360808901511661ffff60c08a0151169160043560c05152600b60205260ff6002604060c05120015416156110e057610ca560043561480c565b1561104e57506008546001600160a01b031692833b1561034957604051634e61dea160e01b815260048035908201526001600160a01b038c81166024830152958616604482015260648101899052948e166084860152600160a48601523360c486015260e051151560e486015261010485015261012484015261014483015260c05190829061016490829084905af180156108be57611038575b50610d5392610d4d9161432e565b9961432e565b600454604084015160208501519296926001600160a01b039182169290911690813b15610349576040519263cd3877df60e01b84526004840152602483015260805160448301528160648160c0519360c051905af180156108be57611022575b508715610f925760045460408401516001600160a01b039182169116813b1561034957604051630cf76cab60e21b815260c0805160805160048035908501526001600160a01b0394851660248501529389166044840152606483019390935251909283916084918391905af180156108be57610f7c575b50610eac925b60018060a01b03604082015116916060825192015160405192338452602084015260408301526080516060830152608082015260018060a01b03881660a082015260018060a01b038516907f64ed19115a88ec244d5b99e1b64c488e9d277040094c45ab2cd318de2212fcad60c060043592a46080519061432e565b60055460405163393f52b360e11b8152600481018690529194906001600160a01b0316602083602481845afa9283156108be5760c05193610f48575b50803b15610349576040519163754f2c0160e11b8352600483015260805160248301528160448160c0519360c051905af180156108be57610f32575b50945b949295909195610b2c565b610f3b90613dc5565b60c0516103495787610f24565b9092506020813d602011610f74575b81610f6460209383613e45565b8101031261034f57519189610ee8565b3d9150610f57565b610f8590613dc5565b60c0516103495789610e2a565b60045460408401516001600160a01b039182169116813b15610349576040516307de1d4560e41b815260c0805160805160048035908501526001600160a01b0394851660248501529389166044840152606483019390935251909283916084918391905af180156108be5761100c575b50610eac92610e30565b61101590613dc5565b60c0516103495789611002565b61102b90613dc5565b60c0516103495789610db3565b61104190613dc5565b60c051610349578b610d3f565b92833b1561034957604051634e61dea160e01b815260048035908201526001600160a01b038c81166024830152958616604482015260648101899052948e166084860152600060a486018190523360c487015260e486015261010485015261012484015261014483015260c05190829061016490829084905af180156108be576110385750610d5392610d4d9161432e565b60246040516337852fe560e21b81526004356004820152fd5b90610c62565b9095506020813d60201161112b575b8161111b60209383613e45565b8101031261034f5751948a610c1c565b3d915061110e565b608052610bb6565b91946020919894935060246040518094819363393f52b360e11b835260048301525afa9081156108be5760c05191611175575b5094610f27565b90506020813d60201161119f575b8161119060209383613e45565b8101031261034f57518761116e565b3d9150611183565b6111cc9194506101803d610180116111d3575b6111c48183613e45565b810190614254565b9289610b76565b503d6111ba565b9186908660443584116113265760a0516112f957611215575b604083836001600080516020615c548339815191525582519182526020820152f35b60249360043560c051526010602052611235604060c05120918254613ff0565b905560043560c05152600f602052604060c051209060018060a01b031660005260205260406000206112698435825461432e565b905560055460405163f16a1eed60e01b815260048035908201529360209185919082906001600160a01b03165afa80156108be5760c051906112c6575b60409350156112b6575b836111f3565b6112c16004356159cb565b6112b0565b506020833d6020116112f1575b816112e060209383613e45565b8101031261034f57604092516112a6565b3d91506112d3565b604461130960a051602435613ff0565b60405190632a2d98e760e11b825260243560048301526024820152fd5b604051637741130160e11b8152600490fd5b5060a0511515610b35565b90506020813d60201161136d575b8161135e60209383613e45565b8101031261034f575187610b25565b3d9150611351565b60449060405190632a2d98e760e11b825260243560048301526024820152fd5b90506020813d6020116113bf575b816113b060209383613e45565b8101031261034f575184610acd565b3d91506113a3565b60ff915060081c161583610a82565b905060ff8160101c1690610a7b565b90506024351182610a3d565b610a21565b346103495760203660031901126103495760043560c05152600b6020526080604060c0512060ff6002825492015460405192835281811615156020840152818160081c161515604084015260101c1615156060820152f35b346103495761145c36613d60565b906114656156ad565b8260c05152600b60205260ff6002604060c051200154166108cb576004805460405163089bb30560e11b8152918201859052602090829060249082906001600160a01b03165afa9081156108be5760c051916117da575b50156117c1576001546114d76114d2848361432e565b61433b565b60c051909181905b80821061178a57505060c051905b84821061174d5750509061150361151a92615882565b6040519261151084613dd8565b8484523691614c02565b602082019081526001604083015260c051606083015260c05160808301528260c05152600b602052604060c051209082518255516020815191611560836001860161469a565b016001830160c05152602060c0512060c051915b838310611648576040860151600286018054606089015161ff0090151560081b1692151560ff1661ffff199091161791909117815587906080880151815462ff0000191690151560101b62ff000016179055600a54600160401b81101561163057816115e98260016116029401600a5561484d565b90919082549060031b91821b91600019901b1916179055565b7facae4de470639cd8948c4ab5ca6850bab5f54cd1d6c7ad560fafb9016e2f5c4560c05160c051a260c05180f35b634e487b7160e01b60c051526041600452602460c051fd5b80518051805184546001600160a01b0319166001600160a01b0391821617855560208201516001860180546040909401516001600160b01b0319909416919092161760a09290921b61ffff60a01b169190911790556020600284019101519060208251926116b684846145c2565b019060c05152602060c051209060c051905b8382106116e657505050506003602060019201920192019190611574565b8051805184546001600160a01b039182166001600160a01b03199091161785556020808301516001808801805460409096015161ffff60a01b60a09190911b16929094166001600160b01b03199095169490941717909155600290940193920191016116c8565b61178260019161176736611762868a8a61442e565b61449e565b61177182876143f6565b5261177c81866143f6565b5061440a565b9101906114ed565b90916117b96001916117a461179e866143b7565b50613eb8565b6117ae82886143f6565b5261177c81876143f6565b9201906114df565b60405163f0e5261160e01b815260048101849052602490fd5b6117fc915060203d602011611802575b6117f48183613e45565b810190614316565b846114bc565b503d6117ea565b34610349576020806003193601126103495760405161182781613dd8565b60c051815260608282015260c051604082015260c0516060820152608060c05191015260043560c05152600b8152604060c051206040519061186882613dd8565b80548252600261187a60018301613f9a565b918484019283520154604083019160ff8216151583526118d2606085019160ff8460081c161515835260ff608087019460101c161515845260405196879681885251908701525160a0604087015260c0860190613bba565b925115156060850152511515608084015251151560a08301520390f35b346103495760c05136600319011261034957602060405160c0518152f35b34610349576109a561191e36613d93565b90611927615715565b614d93565b34610349576020806003193601126103495760043560c05152600d8152604060c051206040519081838254918281520190819260c051528460c051209060c0515b868282106119cd57868661198382880383613e45565b604051928392818401908285525180915260408401929160c0515b8281106119ad57505050500390f35b83516001600160a01b03168552869550938101939281019260010161199e565b83546001600160a01b03168552909301926001928301920161196d565b346103495760c05136600319011261034957604051611a0881613dd8565b604051611a1481613df3565b60c05181526060602082015260c051604082015260c051606082015260c051608082015260c05160a082015260c05160c082015260c05160e082015260c05161010082015260c051610120820152815260c051602082015260c051604082015260c0516060820152608060c051910152604051611a9081613dd8565b604051611a9c81613df3565b60ff60c05154168152611aad613f32565b602082015260018060a01b03600254166040820152600354606082015260018060a01b0360045416608082015260018060a01b036005541660a082015260018060a01b036006541660c082015260018060a01b036007541660e082015260018060a01b036008541661010082015260018060a01b036009541661012082015281526127106020820152600080516020615c7483398151915260408201527feaf9385a147c4441b7cff84a8a185a566b6f7c496b77a003346be0e33336974160608201527f11a8cb5a02bd6c42679835e867ef2118ba78f088f8300511420c6603c21d9c786080820152604051809160208252608081519160a0602085015260ff83511660c0850152611bd0602084015161014060e0870152610200860190613bba565b6040808501516001600160a01b0390811661010088810191909152606080880151610120808b01919091528789015184166101408b015260a0808a015185166101608c015260c08a015185166101808c015260e08a015185166101a08c01529289015184166101c08b0152909701519091166101e0880152602084015161ffff168783015290830151858701529382015183860152910151918301919091520390f35b3461034957604036600319011261034957611c8c613cae565b60043560c05152600e602052604060c051209060018060a01b0316600052602052602060ff604060002054166040519015158152f35b3461034957604036600319011261034957611cdb613cae565b60043560c05152600080516020615bf4833981519152602052604060c051209060018060a01b0316600052602052602060ff604060002054166040519015158152f35b346103495760c05136600319011261034957611d386156ad565b611d406157d4565b600080516020615c34833981519152600160ff198254161790557f62e78cea01bee320cd4e420270b5ea74000d11b0c9f74754ebdbfc544b05a2586020604051338152a160c05180f35b3461034957602080600319360112610349576004356001600160401b03811161034957611dbb903690600401613d30565b90611dc582613e66565b90611dd36040519283613e45565b828252611ddf83613e66565b8285019390601f190136853760c0515b818110611e3d5750505090604051928392818401908285525180915260408401929160c0515b828110611e2457505050500390f35b8351151585528695509381019392810192600101611e15565b80611e4b6001928486614c71565b358060c05152600b88526002604060c0512001549060ff8083169283611eaf575b83611ea1575b505081611e90575b50611e8582876143f6565b901515905201611def565b611e9a915061480c565b1588611e7a565b60101c161591508980611e72565b9250808360081c1692611e6c565b34610349576020366003190112610349576020611edb600435614ce5565b6040519015158152f35b3461034957600319602036820112610349576001600160401b0360043511610349576101c0906004353603011261034957611f1e6157d4565b611f26615715565b6004356004013560c05152600b6020526002604060c0512001805460ff8116159081156129ca575b81156129bc575b508015612957575b80156128f3575b80156128de575b6128c157611f83602460043501600435600401614bc0565b9050611f99604460043501600435600401614bc0565b9190501480159061288e575b8015612859575b610317576001600160a01b03611fc760043561014401614711565b161515806127cb575b610317574260043560a4013510156127bf57425b60043560c401356127b25762093a80905b61200360e460043501614bf5565b806127a2575b156127995761201f61012460043501358261432e565b925b6004356004013560c05152600c602052604060c051209361205f61204960e460043501614bf5565b865461ff00191690151560081b61ff0016178655565b600385015560846004350135600485015561207f61014460043501614711565b6005850180546001600160a01b0319166001600160a01b039092169190911790556120c06104786120b9600480356101a481019101614bc0565b3691614c02565b6120d56101a460043501600435600401614bc0565b60068601916120e4828461469a565b809260c05152602060c051209060c051935b83851061261857505050505061211761010460043501600435600401614bc0565b905060c0515b81811061252657825461ff001916610100178355855460ff1916600190811787558601849055856002612150878761432e565b9101556004546001600160a01b0316803b156103495760405190633f5df1bd60e21b82526004356004013560048301528160248160c0519360c051905af180156108be57612510575b5060c0515b6121b2602460043501600435600401614bc0565b90508110156122fa576121d9816121d3602460043501600435600401614bc0565b90614c71565b356004356004013560c0515260106020526121fb604060c0512091825461432e565b90556005546001600160a01b0316612217600435606401614711565b61222f836121d3604460043501600435600401614bc0565b3591612249846121d3602460043501600435600401614bc0565b359061225a61016460043501614711565b9161226a61018460043501614711565b94823b1561034957604051635bdc28a360e11b815260c0805160048035810135908401526001600160a01b039788166024840152604483019390935260648083019490945294861660848201529590941660a486015260c48501529051839160e49183915af180156108be576122e4575b5060010161219e565b6122ed90613dc5565b60c05161034957816122db565b612308606460043501614711565b61239561231f602460043501600435600401614bc0565b9290612335604460043501600435600401614bc0565b61234660e460049693963501614bf5565b946123a361235961014460043501614711565b9161236961016460043501614711565b9361237f6101a460043501600435600401614bc0565b9690976040519b8c6101408091528d0191614c81565b918a830360208c0152614c81565b600435608481013560408a015260a481013560608a015260c481013560808a015296151560a08901526101249096013560c0808901919091526001600160a01b0391821660e0890152911661010087015285850361012087015281855251600582901b85016020908101959081019084905b848410612458576001600160a01b0387166004803501357f9401a85db6ce4cfc10f6fcec81b17413228beef77927e835634b317f2a0741858b8b038ca360c05180f35b909192939496601f198282030184528735607e198436030181121561034957830160808201906124888382614ca5565b6060810135601e1982360301811215610349570190602082359201926001600160401b038311610349576060830236038413610349578260a092608060608401525201919060c051905b8082106124f2575050506020806001929901940194019294939190612415565b9091926060808261250560019488614ca5565b0194019201906124d2565b61251990613dc5565b60c0516103495780612199565b612547612542826121d361010460043501600435600401614bc0565b614711565b906004356004013560c05152600e80602052604060c0512060018060a01b03841660005260205260ff6040600020541615612588575b50600191500161211d565b6004356004013560c05152602052604060c0512060018060a01b0383166000526020526040600020600160ff198254161790556004356004013560c05152600d602052604060c0512091825492600160401b84101561163057836125f29160018096018155614884565b819291549060031b91858060a01b0316821b91858060a01b03901b19161790558761257d565b6126228183614419565b6001600160a01b0361263382614711565b85546001600160a01b0319169116178455600184016001600160a01b0361265c60208401614711565b82546001600160a01b0319169116178155604082013561ffff8116810361034957815461ffff60a01b191660a09190911b61ffff60a01b16179055606081013590601e198136030182121561034957016001600160401b0381351161034957606081350236036020820113610349576126d98135600286016145c2565b60208101906002850160c05152602060c0512060c051925b82358410612710575050505060036020600192019301940193916120f6565b6001600160a01b0361272182614711565b83546001600160a01b0319169116178255600182016001600160a01b0361274a60208401614711565b82546001600160a01b0319169116178155604082013561ffff8116810361034957815461ffff60a01b191660a09190911b61ffff60a01b161790556001906002906060019201930192906126f1565b60c05192612021565b5061012460043501351515612009565b60c4600435013590611ff5565b60a46004350135611fe4565b506008546001600160a01b031660206127e960043561014401614711565b6040516324c9e93f60e21b81526001600160a01b03909116600482015291829060249082905afa9081156108be5760c05191612827575b5015611fd0565b90506020813d602011612851575b8161284260209383613e45565b81010312610349575182612820565b3d9150612835565b5061286860e460043501614bf5565b158015611fac575061288561010460043501600435600401614bc0565b90501515611fac565b5061289d60e460043501614bf5565b8015611fa557506128b961010460043501600435600401614bc0565b905015611fa5565b60246040516337852fe560e21b8152600435600401356004820152fd5b506128ee6004356004013561480c565b611f6b565b506024602060018060a01b036004541660405192838092631355eead60e21b82526004356004013560048301525afa9081156108be5760c05191612938575b50611f64565b612951915060203d602011611802576117f48183613e45565b82612932565b506024602060018060a01b03600454166040519283809263f6aacfb160e01b82526004356004013560048301525afa9081156108be5760c0519161299d575b5015611f5d565b6129b6915060203d602011611802576117f48183613e45565b82612996565b60ff915060101c1682611f55565b905060ff8160081c1690611f4e565b34610349576060366003190112610349576020611edb6129f7613cc4565b6129ff613cda565b9060243590614b15565b346103495760a036600319011261034957600435612a25613d06565b612a2d613cf0565b612a356157d4565b612a3d6157a4565b612a4683615993565b60055460405163083d13a560e11b8152600481018590526001600160a01b039182169391929190610180908181602481895afa9182156108be5760c05192612bf3575b50508360408201511633141580612bb1575b610029576020846004541691019060208251602460405180948193631355eead60e21b835260048301525afa9081156108be5760c05191612b92575b5080612b82575b612b695750833b156103495782906040519563cfd24ba560e01b8752600487015260243560248701526044356044870152166064850152166084830152606460a48301528160c48160c0519360c051905af180156108be57612b53575b6001600080516020615c548339815191525560c05180f35b612b5c90613dc5565b60c0516103495780612b3b565b60249051604051906337852fe560e21b82526004820152fd5b50612b8d815161480c565b612ade565b612bab915060203d602011611802576117f48183613e45565b87612ad7565b50600080516020615c7483398151915260c05152600080516020615bf4833981519152602052604060c051203360005260205260ff6040600020541615612a9b565b612c099250803d106111d3576111c48183613e45565b8680612a89565b3461034957612c1e36613d93565b90612c276156ad565b8115612d4f575b60c05190815b600a54811080612d46575b15612d3d57612c4d8161484d565b90549060031b1c928284141580612d34575b612d2957612c6d8186613ff0565b60649081811115612d215750905b60055460405163fa8d346b60e01b815260048101969096526024860183905260c051602096918791839160449183916001600160a01b03165af19586156108be5760c05196612cef575b505084612cd19161432e565b9310612ce557612ce09061440a565b612c34565b5050505060c05180f35b9080929650813d8311612d1a575b612d078183613e45565b8101031261034f575193612cd187612cc5565b503d612cfd565b905090612c7b565b9250612ce09061440a565b50821515612c5f565b505050506109a5565b50838310612c3f565b6000199150612c2e565b3461034957602036600319011261034957612d726156ad565b60043560035560c05180f35b346103495760c05136600319011261034957602060ff600080516020615c3483398151915254166040519015158152f35b346103495760208060031936011261034957600435801515810361034f57612dd6906149d8565b906040519181839283018184528251809152816040850193019160c0515b828110612e0357505050500390f35b835185528695509381019392810192600101612df4565b346103495760c05136600319011261034957602060405160648152f35b3461034957612e90612e546020612e4d36613d93565b92906153bf565b600854604051633e535d2f60e11b815260048101949094526001600160a01b038083166024860152939491938592911690829081906044820190565b03915afa9182156108be5760c05192612ec1575b50604080516001600160a01b039290921682526020820192909252f35b9091506020813d602011612eed575b81612edd60209383613e45565b8101031261034f57519082612ea4565b3d9150612ed0565b346103495760203660031901126103495760043560ff8116810361034f576109a5906102b06156ad565b34610349576020366003190112610349576020611edb60043561480c565b346103495760c036600319011261034957600435612f59613cae565b90612f62613cf0565b60a435906001600160a01b03808316830361034f57612f7f6157d4565b612f876157a4565b612f9084615993565b8360c051526020600b8152604060c0512033838816141580613130575b610029576002015460ff8160101c16908115613121575b5061041957816004541660405163f6aacfb160e01b81528660048201528281602481855afa9081156108be5760c05191613104575b506130eb578160249160405192838092631355eead60e21b82528a60048301525afa9182156108be5760c051926130ce575b5050806130bf575b6103f2576005541690813b1561034957604051635bdc28a360e11b815260c0805160048301969096526001600160a01b0396871660248301526044803590830152606480358184015292871660848301529390951660a486015260c48501529051839160e49183915af180156108be57612b53576001600080516020615c548339815191525560c05180f35b506130c98461480c565b613033565b6130e49250803d10611802576117f48183613e45565b868061302b565b6040516337852fe560e21b815260048101879052602490fd5b61311b9150833d8511611802576117f48183613e45565b88612ff9565b60ff915060081c161587612fc4565b50600080516020615c7483398151915260c05152600080516020615bf48339815191528252604060c0512033600052825260ff6040600020541615612fad565b34610349576020806003193601126103495761318d600435614725565b90604051918183928301818452825180915260408401918060408360051b87010194019260c051905b8382106131c35786860387f35b919395509193603f1987820301825283865160808260a0818387019461320c88825161ffff6040809260018060a01b038082511686526020820151166020860152015116910152565b0151956060938482015286518095520194019160c051915b818310613245575050505080600192970192019201869594929391936131b6565b9193828661327a8698600195975161ffff6040809260018060a01b038082511686526020820151166020860152015116910152565b01950193019091879392613224565b346103495761329736613d60565b61329f6156ad565b8260c05152600b602052604060c0512060ff600282015416156103f2576001546132cc6114d2848361432e565b60c051909181905b8082106134f557505060c051905b8482106134d8575050906132f7600192615882565b0191613303828461469a565b809260c05152602060c051209060c051935b83851061334b57857f9fe6eeb0f0541c644a56c67efeb872dbadd803a60b909d7dde1b35a3fe230b0e60c05160c051a260c05180f35b6133558183614419565b6001600160a01b0361336682614711565b85546001600160a01b0319169116178455600184016001600160a01b0361338f60208401614711565b82546001600160a01b0319169116178155604082013561ffff8116810361034957815461ffff60a01b191660a09190911b61ffff60a01b16179055606081013590601e198136030182121561034957016001600160401b03813511610349576060813502360360208201136103495761340c8135600286016145c2565b60208101906002850160c05152602060c051209160c051905b8235821061344457505050506003602060019201930194019391613315565b6001600160a01b0361345582614711565b85546001600160a01b03191691161784556001600160a01b0361347a60208301614711565b166001600160601b0360a01b60018601541617600185015561ffff604082013516604082013503610349576001848101805461ffff60a01b1916604084013560a01b61ffff60a01b1617905590600290606001940191019092613425565b6134ed60019161176736611762868a8c61442e565b9101906132e2565b90916135096001916117a461179e866143b7565b9201906132d4565b346103495760c0513660031901126103495761352b6156ad565b600080516020615c34833981519152805460ff81161561357b5760ff191690557f5db9ee0a495bf2e6ff9c91a7834c1ba4fdd244a5e8aa4e537bd38aeae4b073aa6020604051338152a160c05180f35b604051638dfc202b60e01b8152600490fd5b34610349576040366003190112610349576135a6613cae565b336001600160a01b038216036135c257610967906004356157ff565b60405163334bd91960e11b8152600490fd5b346103495760208060031936011261034957600435906135f26157a4565b6135fa6157d4565b60055460405163083d13a560e11b8152600481018490526001600160a01b03918216926101809290918381602481885afa9384156108be5760c0519461375c575b5050806040840151163314158061371a575b61002957819060045416920191818351602460405180948193631355eead60e21b835260048301525afa9182156108be5760c051926136fd575b5050806136ed575b612b695750803b15610349576040519163b9344ea560e01b835260048301528160248160c0519360c051905af180156108be576136de576001600080516020615c548339815191525560c05180f35b6136e790613dc5565b80612b3b565b506136f8815161480c565b61368f565b6137139250803d10611802576117f48183613e45565b8480613687565b50600080516020615c7483398151915260c05152600080516020615bf48339815191528252604060c051203360c05152825260ff604060c0512054161561364d565b613773929450803d106111d3576111c48183613e45565b91858061363b565b346103495760403660031901126103495761096760043561379a613cae565b908060c05152600080516020615bf48339815191526020526137c46001604060c051200154615771565b6155ec565b346103495760203660031901126103495760043560c05152600080516020615bf483398151915260205260206001604060c051200154604051908152f35b346103495760a036600319011261034957613820613cc4565b613828613cae565b90613831613cda565b6001600160a01b039290606435848116908190036103495760843591858316809303610349577ff0c57e16840df040f15088dc2f81fe391c3923bec73e23a9662efc9c229c6a009586549460ff8660401c1615966001600160401b038716801590816139f4575b60011490816139ea575b1590816139e1575b506139cf5767ffffffffffffffff198716600117895561393e96886139b0575b5082816138d5615952565b6138dd615952565b6138e5615952565b6138ed615952565b6001600080516020615c548339815191525516156139a9575b61390f90615416565b50818116613999575b508116613989575b50600f6003556001600160601b0360a01b6004541617600455615661565b6139485760c05180f35b68ff00000000000000001981541690557fc7f505b2f371ae2175ee4913f4499e1f2633a7b5936321eed1cdaeb6115181d2602060405160018152a1806109a5565b61399290615542565b5085613920565b6139a2906154a4565b5087613918565b5033613906565b68ffffffffffffffffff191668010000000000000001178955896138ca565b60405163f92ee8a960e01b8152600490fd5b9050158a6138aa565b303b1591506138a2565b899150613898565b34610349576040366003190112610349576040613a22613a1a613cae565b600435613ffd565b825191151582526020820152f35b346103495760208060031936011261034957606060e0604051613a5281613da9565b60c051815260c0518482015260c051604082015260c0518382015260c051608082015260c05160a082015260c05160c0820152015260043560c05152600c8152604060c0512061082260405191613aa883613da9565b80549060ff82161515845260ff8585019260081c16151582526001810154906040850191825260028101546060860190815260038201546080870190815260048301549160a0880192835260018060a01b0394613b156006876005880154169660c08c0197885201613f9a565b9660e08a019788526040519a8b9a818c52511515908b015251151560408a01525160608901525160808801525160a08701525160c0860152511660e08401525161010080840152610120830190613bba565b34610349576020366003190112610349576004359063ffffffff60e01b821680920361034957602091637965db0b60e01b8114908115613ba9575b5015158152f35b6301ffc9a760e01b14905083613ba2565b908082519081815260208091019281808460051b830101950193600080925b858410613bea575050505050505090565b90919293949596601f1982820301845285885160808260a08183870194613c3488825161ffff6040809260018060a01b038082511686526020820151166020860152015116910152565b0151956060938482015286518095520194019186915b818310613c6a575050505080600192990194019401929594939190613bd9565b91938286613c9f8698600195975161ffff6040809260018060a01b038082511686526020820151166020860152015116910152565b01950193019091899392613c4a565b602435906001600160a01b038216820361034f57565b600435906001600160a01b038216820361034f57565b604435906001600160a01b038216820361034f57565b608435906001600160a01b038216820361034f57565b606435906001600160a01b038216820361034f57565b35906001600160a01b038216820361034f57565b9181601f8401121561034f578235916001600160401b03831161034f576020808501948460051b01011161034f57565b90604060031983011261034f5760043591602435906001600160401b03821161034f57613d8f91600401613d30565b9091565b604090600319011261034f576004359060243590565b61010081019081106001600160401b038211176106f157604052565b6001600160401b0381116106f157604052565b60a081019081106001600160401b038211176106f157604052565b61014081019081106001600160401b038211176106f157604052565b606081019081106001600160401b038211176106f157604052565b604081019081106001600160401b038211176106f157604052565b90601f801991011681019081106001600160401b038211176106f157604052565b6001600160401b0381116106f15760051b60200190565b90604051613e8a81613e0f565b82546001600160a01b039081168252600190930154928316602082015260a09290921c61ffff166040830152565b9060405191613ec683613e2a565b82613ed082613e7d565b8152600280920191825490613ee482613e66565b93613ef26040519586613e45565b828552600090815260208082208187015b858410613f165750505050505060200152565b8483600192613f2485613e7d565b815201920193019290613f03565b60019060015491613f4283613e66565b92613f506040519485613e45565b808452600160009081526020600080516020615c148339815191528187015b848410613f7e57505050505050565b6003838792613f8c85613eb8565b815201920193019290613f6f565b908154613fa681613e66565b92613fb46040519485613e45565b818452600090815260208082208186015b848410613fd3575050505050565b600383600192613fe285613eb8565b815201920193019290613fc5565b919082039182116106db57565b6005546000828152600b60209081526040808320600201546001600160a01b0394851697969195949060081c60ff16156142165761403a85614ce5565b80614221575b6142165761404d8561480c565b156141de57848452600c835285842060018101544210614148576004015490811561415457858552600f84528685209083168552835285842054908082101561414857916140a28493926140db969593613ff0565b6003548851633951390760e21b815260048101989098526001600160a01b03909216602488015298909594859190829081906044820190565b03915afa94851561413d57508194614107575b5050508180821091180218600192818082109118021890565b909180939450813d8311614136575b6141208183613e45565b81010312614133575051903880806140ee565b80fd5b503d614116565b51913d9150823e3d90fd5b50505050935050508190565b50506003548551633951390760e21b815260048101959095526001600160a01b03909116602485015295819084908180604481015b03915afa93841561413d575081936141ad575b505050600192818082109118021890565b9091809350813d83116141d7575b6141c58183613e45565b8101031261413357505138808061419c565b503d6141bb565b506003548551633951390760e21b815260048101959095526001600160a01b0390911660248501529581908490818060448101614189565b505050935050508190565b50848452600e83528584208183168552835260ff868520541615614040565b51906001600160a01b038216820361034f57565b8091610180928391031261034f576040519182018281106001600160401b038211176106f157604052805182526020810151602083015261429760408201614240565b6040830152606081015160608301526142b260808201614240565b608083015260a081015160a083015260c081015161ffff8116810361034f5760c083015260e081015160e083015261010080820151908301526101208082015190830152610140808201519083015261430f610160809201614240565b9082015290565b9081602091031261034f5751801515810361034f5790565b919082018092116106db57565b9061434582613e66565b6040906143556040519182613e45565b8381528093614366601f1991613e66565b019160009160005b84811061437c575050505050565b602090835161438a81613e2a565b845161439581613e0f565b868152839087828201528787820152825260608183015282850101520161436e565b6001548110156143e057600390600160005202600080516020615c148339815191520190600090565b634e487b7160e01b600052603260045260246000fd5b80518210156143e05760209160051b010190565b60001981146106db5760010190565b903590607e198136030182121561034f570190565b908210156143e0576144459160051b810190614419565b90565b359061ffff8216820361034f57565b919082606091031261034f5760405161446f81613e0f565b604061449981839561448081613d1c565b855261448e60208201613d1c565b602086015201614448565b910152565b919060808382031261034f576040516144b681613e2a565b80936144c28382614457565b82526060906060810135906001600160401b03821161034f570183601f8201121561034f57602081356144f481613e66565b956145026040519788613e45565b8187526020606081890193028501019381851161034f57602001915b8483106145315750505050505060200152565b83869161453e8486614457565b81520192019161451e565b818102929181159184041417156106db57565b8054906000908181558261456f57505050565b6001906001600160ff1b03841684036145ae578252602082209260011b8301925b83811061459d5750505050565b808360029255838382015501614590565b634e487b7160e01b83526011600452602483fd5b600160401b82116106f15780548282558083106145de57505050565b6001906001600160ff1b0380821682036106db57841684036106db5760009260005260206000209060011b81019360011b015b83811061461e5750505050565b808360029255838382015501614611565b805460008083558161464057505050565b6003928260030292600384040361468657815260208120918201915b8281106146695750505050565b80828592558260018201556146806002820161455c565b0161465c565b634e487b7160e01b82526011600452602482fd5b600160401b82116106f1578054908281558183106146b757505050565b600392826003029260038404036106db57806003029060038204036106db57600091600052602060002092830192015b8281106146f45750505050565b808285925582600182015561470b6002820161455c565b016146e7565b356001600160a01b038116810361034f5790565b60009081526020600b6020526040822090600c6020526040832060ff8154166147fb575060018092019283549182156147ee57600154916147696114d2858561432e565b9585825b8581106147c4575050815b858110614789575050505050505090565b86908284526147bd8585206147ac6147a1848a61432e565b916003850201613eb8565b6147b6828d6143f6565b528a6143f6565b5001614778565b6147d061179e826143b7565b6147da828b6143f6565b526147e5818a6143f6565b5001869061476d565b5050505050614445613f32565b905061444592506006915001613f9a565b600052600c602052604060002060ff815416908161483f575b508061482e5790565b506010602052604060002054151590565b600291500154421038614825565b600a548110156143e057600a6000527fc65a7bb8d6351c1cf70c95a316cc6a92839c986682d98bc35f958f4883f9d2a80190600090565b80548210156143e05760005260206000200190600090565b600060ff815492169160ff811683146149a1576008831161031757600a546005546001600160a01b031690835b8181106149095750505060ff1916821790556040519081527f3eef9f8a630843d5ed0b5b835c35621f2e3c1d707bf6ff4a774417e1b5f35fe290602090a1565b6149128161484d565b905460409081519063f16a1eed60e01b825260049360031b1c8382015260209081816024818a5afa918215614997578992614965575b50506149585750506001016148c9565b516304b80b4560e21b8152fd5b90809250813d8311614990575b61497c8183613e45565b8101031261498c57513880614948565b8780fd5b503d614972565b83513d8b823e3d90fd5b505050565b906149b082613e66565b6149bd6040519182613e45565b82815280926149ce601f1991613e66565b0190602036910137565b15614aa957600a54906149ea826149a6565b91600090815b818110614a33575050614a02816149a6565b9060005b818110614a14575090925050565b80614a21600192876143f6565b51614a2c82866143f6565b5201614a06565b614a3c8161484d565b90549060031b1c806000526020600b815260ff604081600282600020015460081c16928315614a96575b505050614a77575b506001016149f0565b83614a8f91614a8960019496896143f6565b5261440a565b9290614a6e565b600c905260002054169050388080614a66565b6040518081600a54808352602080930190600a6000527fc65a7bb8d6351c1cf70c95a316cc6a92839c986682d98bc35f958f4883f9d2a8936000905b828210614afb5750505061444592500382613e45565b855484526001958601958795509381019390910190614ae5565b9092916000916001600160a01b039182169182158015614bb6575b61031757600854163303614ba457813b15614ba05760405163079cc67960e41b81526001600160a01b03919091166004820152602481019490945291929181908390604490829084905af19182614b91575b5090614b8b5790565b50600190565b614b9a90613dc5565b38614b82565b8280fd5b6040516348f5c3ed60e01b8152600490fd5b5080821615614b30565b903590601e198136030182121561034f57018035906001600160401b03821161034f57602001918160051b3603831361034f57565b35801515810361034f5790565b92919092614c0f84613e66565b91614c1d6040519384613e45565b829480845260208094019060051b83019282841161034f5780915b848310614c4757505050505050565b82356001600160401b03811161034f578691614c66868493860161449e565b815201920191614c38565b91908110156143e05760051b0190565b81835290916001600160fb1b03831161034f5760209260051b809284830137010190565b60409061ffff90614cdf9083906001600160a01b0380614cc483613d1c565b168752614cd360208301613d1c565b16602087015201614448565b16910152565b614cee8161480c565b15614d2557600052600c602052604060002060ff815460081c1615614d2557600301548015908115614d1e575090565b9050421090565b50600090565b8054906000906000815582614d3f57505050565b6000526020600020918201915b828110614d5857505050565b818155600101614d4c565b6006614d9191600080825580600183015580600283015580600383015580600483015560058201550161462f565b565b6064821192916000908480156152bd575b61031757828252602090600b8252604095868420600c845260028886209101805460ff8116156152a55760ff8160081c166152a557908160ff899695949360101c161561526c575b505060ff8154166151ff575b8591156151f9576064925b60018060a01b039187878c6044866005541691518094819363fa8d346b60e01b835260049c8d84015260249b8c8401525af18991816151ca575b506151c2575b5081841015614ec5578a878a6044898c8860075416614e628b8a613ff0565b96519687958694630bd01dcb60e01b86528501528c8401525af1899181615193575b50615182575b508a878a87866005541693518094819363f16a1eed60e01b83528c8301525afa90811561514b578991615155575b5015806150f9575b614ed2575b5050505050505050509050565b5460ff16615033575b505050909195614f1590858552600b8852600c8186209860008a5586600260019b614f086001820161462f565b0155878752528420614d63565b82865b614f56575b5050507f1efbd6f0c0cbcc55b40dc3c05fdb53ca42b3db697c33a7d3e146abe31bd1ecc59192935080a280388080808080808080614ec5565b600a80548083101561502c57908691614f6e8461484d565b939054600394851b1c14614f8757505050860186614f18565b929093919498506000199283810190811161501a57906115e9614fac614fb89361484d565b905490881b1c9161484d565b8254978815615009575050807f1efbd6f0c0cbcc55b40dc3c05fdb53ca42b3db697c33a7d3e146abe31bd1ecc59596970192614ff38461484d565b81939154921b1b19169055558392913880614f1d565b634e487b7160e01b86526031905284fd5b634e487b7160e01b875260118a528287fd5b5050614f1d565b9297919594959390935b878652600d875289862080548210806150f0575b156150a9579085615065826150a494614884565b90549060031b1c16898852600e89528b88208160005289528b60002060ff198154169055898852600f89528b882090600052885260008b81205561440a565b61503d565b50509250959050929192848452600d835286842080546150e6576002976150d2614f1592614d2b565b868652601085526000818720559738614edb565b5050505050509050565b50848210615051565b508a878a87866007541693518094819363c30be57360e01b83528c8301525afa90811561514b57899161512e575b5015614ec0565b6151459150883d8a11611802576117f48183613e45565b38615127565b8c513d8b823e3d90fd5b90508781813d831161517b575b61516c8183613e45565b8101031261034f575138614eb8565b503d615162565b61518c919461432e565b9238614e8a565b9091508881813d83116151bb575b6151ab8183613e45565b8101031261034f57519038614e84565b503d6151a1565b935038614e43565b9091508881813d83116151f2575b6151e28183613e45565b8101031261034f57519038614e3d565b503d6151d8565b82614e03565b60045492935090916001600160a01b0316803b156152685785809160248b5180948193638d073d1b60e01b83528c60048401525af1801561525e5790879493929161524b575b50614df8565b61525790969196613dc5565b9438615245565b89513d88823e3d90fd5b8580fd5b62ff0000191662010000179055837f226c41535648539c2f2d1bbdd79eb9f3dab29955870bf65f69fb53cbdf5297818780a23880614dec565b89516337852fe560e21b815260048101899052602490fd5b508015614da4565b90926001600160a01b039081169190821580156153b5575b80156153ab575b6103175780600854163314158061539d575b614ba4578085169116908082148015615395575b61538e5730820361535957505060405163a9059cbb60e01b60208201526001600160a01b03939093166024840152604480840192909252908252614d919190615354606483613e45565b615b6b565b614d919450604093919351936323b872dd60e01b60208601526024850152604484015260648301526064825261535482613dd8565b5050505050565b50831561530a565b5080600754163314156152f6565b50808516156152e4565b50808216156152dd565b80600052600c6020526153d660406000209161480c565b80615400575b6153f057506002546001600160a01b031690565b600501546001600160a01b031690565b5060058101546001600160a01b031615156153dc565b6001600160a01b031660008181527fb7db2dd08fcb62d0c9e08c51941cae53c267786a0b75803fb7960902fc8ef97d6020526040812054909190600080516020615bf48339815191529060ff1661549f578280526020526040822081835260205260408220600160ff198254161790553391600080516020615bd48339815191528180a4600190565b505090565b6001600160a01b031660008181527fb16e88c42fd4e48df2dd6a2eabd6bc9aec654ec170056b470819f8892cc6431c6020526040812054909190600080516020615c7483398151915290600080516020615bf48339815191529060ff1661553c578184526020526040832082845260205260408320600160ff19825416179055600080516020615bd4833981519152339380a4600190565b50505090565b6001600160a01b031660008181527f146147d4d830fbfd39acc320fe8416a5d16accbaf9578d5f5b064dbe9ba900a660205260408120549091907feaf9385a147c4441b7cff84a8a185a566b6f7c496b77a003346be0e33336974190600080516020615bf48339815191529060ff1661553c578184526020526040832082845260205260408320600160ff19825416179055600080516020615bd4833981519152339380a4600190565b90600091808352600080516020615bf483398151915280602052604084209260018060a01b03169283855260205260ff6040852054161560001461553c578184526020526040832082845260205260408320600160ff19825416179055600080516020615bd4833981519152339380a4600190565b600280546001600160a01b0319166001600160a01b0390921691821790556040519081527f058be4c9ec2ed08dd5bb1ef29557642983ca585ca9afaead168a9686736b59e690602090a1565b3360009081527fb16e88c42fd4e48df2dd6a2eabd6bc9aec654ec170056b470819f8892cc6431c6020526040902054600080516020615c748339815191529060ff16156156f75750565b6044906040519063e2517d3f60e01b82523360048301526024820152fd5b3360009081527f146147d4d830fbfd39acc320fe8416a5d16accbaf9578d5f5b064dbe9ba900a660205260409020547feaf9385a147c4441b7cff84a8a185a566b6f7c496b77a003346be0e3333697419060ff16156156f75750565b80600052600080516020615bf483398151915260205260406000203360005260205260ff60406000205416156156f75750565b600080516020615c5483398151915260028154146157c25760029055565b604051633ee5aeb560e01b8152600490fd5b60ff600080516020615c3483398151915254166157ed57565b60405163d93c066560e01b8152600490fd5b90600091808352600080516020615bf483398151915280602052604084209260018060a01b03169283855260205260ff60408520541660001461553c57818452602052604083208284526020526040832060ff1981541690557ff6391f5c32d9c69d2a47ea670b442974b53935d1edc7fd64eb21e047a839171b339380a4600190565b600081519160005b8381106158975750505050565b61ffff926158b860409185836158ad86886143f6565b51510151169061432e565b9361271090818611615941576000906020806158d487896143f6565b5101515183925b86888a84871061590a5750505050505050116158fa575060010161588a565b516304b80b4560e21b8152600490fd5b926159379261592d888861592585999a9b9c966001996143f6565b5101516143f6565b510151169061432e565b94019291906158db565b82516304b80b4560e21b8152600490fd5b60ff7ff0c57e16840df040f15088dc2f81fe391c3923bec73e23a9662efc9c229c6a005460401c161561598157565b604051631afcd79f60e31b8152600490fd5b80600052600c60205260ff60406000205416806159bb575b6159b25750565b614d91906159cb565b506159c58161480c565b156159ab565b60008181526020600d8152604090818320805490600c83526159ee848620614d63565b845b828110615b1c57505050838352600d8152615a0c828420614d2b565b83835260108152818320839055600480548351631355eead60e21b81529182018690526001600160a01b031691908181602481865afa918215615b12578592615af5575b5050615a7f575b5050807f64c64ca7ab916fab6a741368067628b70d8975e69483389acadd1ba7bd54c22291a2565b803b15614ba0579082809260248351809581936376772d8160e11b83528960048401525af1908115615aec5750907f64c64ca7ab916fab6a741368067628b70d8975e69483389acadd1ba7bd54c2229291615add575b819250615a57565b615ae690613dc5565b38615ad5565b513d84823e3d90fd5b615b0b9250803d10611802576117f48183613e45565b3880615a50565b84513d87823e3d90fd5b80615b2960019284614884565b838060a01b0391549060031b1c16888852600e8652868820818952865286882060ff198154169055888852600f865286882090885285528686812055016159f0565b906000602091828151910182855af115615bc7576000513d615bbe57506001600160a01b0381163b155b615b9c5750565b604051635274afe760e01b81526001600160a01b039091166004820152602490fd5b60011415615b95565b6040513d6000823e3d90fdfe2f8788117e7eff1d82e926ec794901d17c78024a50270940304540a733656f0d02dd7bc7dec4dceedda775e58dd541e08a116c6c53815c0bd028192f7b626800b10e2d527612073b26eecdfd717e6a320cf44b4afac2b0732d9fcbe2b7fa0cf6cd5ed15c6e187e77e9aee88184c21f4f2182ab5827cb3b7e07fbedcd63f033009b779b17422d0df92223018b32b4d1fa46e071723d6817e2486d003becc55f00a49807205ce4d355092ef5a8a18f56e8913cf4a201fbe287825b095693c21775a26469706673582212205d5af5e22cb4382e772f29a06e96c8f95c9f34efad1bb32ff7eeb4fe2a94260364736f6c63430008180033",
  "devdoc": {
    "author": "Gildi Digital LLC",
    "custom:security-contact": "security@gildi.to",
    "errors": {
      "AccessControlBadConfirmation()": [
        {
          "details": "The caller of a function is not the expected one. NOTE: Don't confuse with {AccessControlUnauthorizedAccount}."
        }
      ],
      "AccessControlUnauthorizedAccount(address,bytes32)": [
        {
          "details": "The `account` is missing a role."
        }
      ],
      "EnforcedPause()": [
        {
          "details": "The operation failed because the contract is paused."
        }
      ],
      "ExpectedPause()": [
        {
          "details": "The operation failed because the contract is not paused."
        }
      ],
      "InsufficientQuantity(uint256,uint256)": [
        {
          "details": "Emitted when the requested quantity exceeds available inventory.The quantity that was requested.The quantity that was available."
        }
      ],
      "InvalidCaller()": [
        {
          "details": "Emitted when the caller is invalid"
        }
      ],
      "InvalidInitialization()": [
        {
          "details": "The contract is already initialized."
        }
      ],
      "NotAllowed()": [
        {
          "details": "Emitted when an operation is not allowed for the caller"
        }
      ],
      "NotEnoughTokensInListings(uint256,uint256)": [
        {
          "details": "Emitted when the requested number of tokens to buy cannot be fulfilled by the available listings.The total amount of tokens requestedThe amount of tokens actually found in listings"
        }
      ],
      "NotInitializing()": [
        {
          "details": "The contract is not initializing."
        }
      ],
      "ParamError()": [
        {
          "details": "Emitted when a function parameter is invalid or out-of-range (e.g. zero batchSize, zero price, etc.)"
        }
      ],
      "PurchaseError()": [
        {
          "details": "Emitted when a purchase cannot proceed (e.g. buyer not whitelisted, amount exceeds max buy, not enough tokens)."
        }
      ],
      "ReentrancyGuardReentrantCall()": [
        {
          "details": "Unauthorized reentrant call."
        }
      ],
      "ReleaseNotFound(uint256)": [
        {
          "details": "Emitted when a release is not found in the manager (e.g. gildiManager.releaseExists(...) fails).The ID that could not be found."
        }
      ],
      "ReleaseStateError(uint256)": [
        {
          "details": "Emitted when a release is in a wrong state (e.g. uninitialized, cancelling when it should not be, or active/inactive mismatch).The ID of the release in question."
        }
      ],
      "SafeERC20FailedOperation(address)": [
        {
          "details": "An operation with an ERC-20 token failed."
        }
      ],
      "SetupError()": [
        {
          "details": "Emitted when there is a setup/configuration issue (e.g. oracle decimals not set, invalid fee distribution)."
        }
      ]
    },
    "events": {
      "AskDecimalsSet(uint8)": {
        "params": {
          "askDecimals": "The new ask decimals"
        }
      },
      "FeesUpdated(uint256)": {
        "params": {
          "releaseId": "The ID of the release"
        }
      },
      "InitialSaleCreated(uint256,address,uint256[],uint256[],uint256,uint256,uint256,bool,uint256,address,address,((address,address,uint16),(address,address,uint16)[])[])": {
        "params": {
          "assetPrices": "The prices of the asset for the quantity bracket",
          "assetQuantities": "The quantities of the asset",
          "duration": "The duration of the initial sale",
          "maxBuy": "The maximum amount of tokens a buyer can buy in the initial sale",
          "payoutCurrency": "The currency of the payout",
          "releaseId": "The ID of the release",
          "saleCurrency": "The currency of the initial sale",
          "saleFees": "The fees for the initial sale",
          "seller": "The address of the seller",
          "startTime": "The start time of the initial sale",
          "whitelistDuration": "The duration the whitelist is enforced",
          "whitelistEnabled": "If the initial sale is a whitelist sale"
        }
      },
      "InitialSaleEnded(uint256)": {
        "params": {
          "releaseId": "The ID of the release"
        }
      },
      "Initialized(uint64)": {
        "details": "Triggered when the contract has been initialized or reinitialized."
      },
      "MarketplaceCurrencySet(address)": {
        "params": {
          "marketplaceCurrency": "The new marketplace currency"
        }
      },
      "Paused(address)": {
        "details": "Emitted when the pause is triggered by `account`."
      },
      "Purchased(uint256,address,address,address,uint256,uint256,uint256,uint256,address)": {
        "params": {
          "buyer": "The address of the buyer",
          "listingId": "The ID of the listing",
          "operator": "The address of the operator",
          "priceInUSD": "The price per item in USD",
          "quantity": "The quantity of the release being purchased",
          "releaseId": "The ID of the release being purchased",
          "seller": "The address of the seller"
        }
      },
      "ReleaseActiveStateChanged(uint256,bool)": {
        "params": {
          "isActive": "The new active state",
          "releaseId": "The ID of the release"
        }
      },
      "ReleaseCancellationStarted(uint256)": {
        "params": {
          "releaseId": "The ID of the release being cancelled"
        }
      },
      "ReleaseCancelled(uint256)": {
        "params": {
          "releaseId": "The ID of the release being cancelled"
        }
      },
      "ReleaseInitialized(uint256)": {
        "params": {
          "releaseId": "The ID of the release"
        }
      },
      "RoleAdminChanged(bytes32,bytes32,bytes32)": {
        "details": "Emitted when `newAdminRole` is set as ``role``'s admin role, replacing `previousAdminRole` `DEFAULT_ADMIN_ROLE` is the starting admin for all roles, despite {RoleAdminChanged} not being emitted to signal this."
      },
      "RoleGranted(bytes32,address,address)": {
        "details": "Emitted when `account` is granted `role`. `sender` is the account that originated the contract call. This account bears the admin role (for the granted role). Expected in cases where the role was granted using the internal {AccessControl-_grantRole}."
      },
      "RoleRevoked(bytes32,address,address)": {
        "details": "Emitted when `account` is revoked `role`. `sender` is the account that originated the contract call:   - if using `revokeRole`, it is the admin role bearer   - if using `renounceRole`, it is the role bearer (i.e. `account`)"
      },
      "Unpaused(address)": {
        "details": "Emitted when the pause is lifted by `account`."
      }
    },
    "kind": "dev",
    "methods": {
      "canBuy(uint256,address)": {
        "details": "Considers whitelist status, initial sale status, and transaction limits",
        "params": {
          "_buyer": "The address of the buyer",
          "_releaseId": "The ID of the release"
        },
        "returns": {
          "buyAllowed": "True if the user can buy the release, false otherwise",
          "maxBuyAmount": "The maximum amount the user can buy (0 if not allowed)"
        }
      },
      "canSell(uint256[])": {
        "params": {
          "_releaseIds": "The IDs of the releases"
        },
        "returns": {
          "_0": "result An array containing whether or not each release can be sold"
        }
      },
      "cancelListing(uint256)": {
        "params": {
          "_listingId": "The ID of the listing"
        }
      },
      "cancelRelease(uint256,uint256)": {
        "params": {
          "_batchSize": "The batch size (min 1, max 100)",
          "_releaseId": "The ID of the release"
        }
      },
      "constructor": {
        "custom:oz-upgrades-unsafe-allow": "constructor"
      },
      "createInitialSale((uint256,uint256[],uint256[],address,uint256,uint256,uint256,bool,address[],uint256,address,address,address,((address,address,uint16),(address,address,uint16)[])[]))": {
        "params": {
          "_params": "The parameters for creating the initial sale"
        }
      },
      "createListing(uint256,address,uint256,uint256,address,address)": {
        "params": {
          "_fundsReceiver": "The address to receive funds from the sale (if address(0), defaults to seller)",
          "_payoutCurrency": "The currency the seller wants to receive payment in",
          "_pricePerItem": "The price per item in USD",
          "_quantity": "The quantity being listed",
          "_releaseId": "The ID of the release",
          "_seller": "The address of the seller"
        }
      },
      "getActiveMarketplaceReleaseAsset(uint256)": {
        "params": {
          "_releaseId": "The ID of the release"
        },
        "returns": {
          "_0": "The address of the active marketplace asset for the release"
        }
      },
      "getAppEnvironment()": {
        "returns": {
          "_0": "appEnvironment The app environment"
        }
      },
      "getInitialSaleByReleaseId(uint256)": {
        "params": {
          "_releaseId": "The ID of the release"
        },
        "returns": {
          "_0": "initialSale The initial sale"
        }
      },
      "getReleaseById(uint256)": {
        "params": {
          "_releaseId": "The ID of the release"
        },
        "returns": {
          "_0": "release The release"
        }
      },
      "getReleaseFees(uint256)": {
        "params": {
          "_releaseId": "The ID of the release"
        },
        "returns": {
          "_0": "An array of fee distributions for the release"
        }
      },
      "getReleaseIds(bool)": {
        "params": {
          "_activeOnly": "Whether or not to only return active releases"
        },
        "returns": {
          "_0": "activeReleases An array of release IDs"
        }
      },
      "getRoleAdmin(bytes32)": {
        "details": "Returns the admin role that controls `role`. See {grantRole} and {revokeRole}. To change a role's admin, use {_setRoleAdmin}."
      },
      "getWhitelist(uint256)": {
        "params": {
          "_releaseId": "The ID of the release"
        },
        "returns": {
          "_0": "whitelist The whitelist of the release"
        }
      },
      "grantRole(bytes32,address)": {
        "details": "Grants `role` to `account`. If `account` had not been already granted `role`, emits a {RoleGranted} event. Requirements: - the caller must have ``role``'s admin role. May emit a {RoleGranted} event."
      },
      "hasRole(bytes32,address)": {
        "details": "Returns `true` if `account` has been granted `role`."
      },
      "initialize(address,address,address,address,address)": {
        "params": {
          "_gildiManager": "The address of the Gildi Manager",
          "_initialAdmin": "The address of the initial admin",
          "_initialDefaultAdmin": "The address of the initial default admin",
          "_initialMarketplaceManager": "The address of the initial marketplace manager",
          "_marketplaceCurrency": "The address of the marketplace currency"
        }
      },
      "initializeRelease(uint256,((address,address,uint16),(address,address,uint16)[])[])": {
        "params": {
          "_additionalFees": "Additional fees for the release",
          "_tokenId": "The ID of the release"
        }
      },
      "isInInitialSale(uint256)": {
        "params": {
          "_releaseId": "The ID of the release"
        },
        "returns": {
          "_0": "True if the release is in active initial sale, false otherwise"
        }
      },
      "isWhitelistSale(uint256)": {
        "params": {
          "_releaseId": "The ID of the release"
        }
      },
      "modifyListing(uint256,uint256,uint256,address,address)": {
        "params": {
          "_fundsReceiver": "The address to receive funds from the sale (if address(0), defaults to seller)",
          "_listingId": "The ID of the listing to modify",
          "_newPricePerItem": "The new price per item in USD",
          "_newQuantity": "The new quantity (if 0, the listing will be removed)",
          "_payoutCurrency": "The new payout currency"
        }
      },
      "paused()": {
        "details": "Returns true if the contract is paused, and false otherwise."
      },
      "purchase(uint256,uint256,uint256,address,bool)": {
        "details": "Sweeps the floor",
        "params": {
          "_amount": "The amount of tokens to purchase",
          "_beneficiary": "The address to send the tokens to",
          "_isProxyOperation": "Whether the operation is a proxy operation",
          "_maxTotalPrice": "The maximum total price to spend in Marketplace Currency",
          "_releaseId": "The ID of the release"
        },
        "returns": {
          "amountSpent": "The amount of Marketplace Currency spent",
          "amountUsdSpent": "The amount spent in USD"
        }
      },
      "quotePrice(uint256,uint256)": {
        "params": {
          "_priceInUsd": "The price in USD to convert",
          "_releaseId": "The ID of the release"
        },
        "returns": {
          "activeMarketplaceReleaseAsset": "The address of the active marketplace asset for the release",
          "priceInAsset": "The equivalent amount in the active marketplace asset"
        }
      },
      "quotePricePreview(uint256,uint256,address)": {
        "params": {
          "_amountToBuy": "The amount of tokens to buy",
          "_buyer": "The address of the buyer (optional)",
          "_releaseId": "The ID of the release"
        },
        "returns": {
          "_0": "The total cost in marketplace currency",
          "_1": "The asset the price is in",
          "_2": "The total price in USD (using exchange's priceAskDecimals)"
        }
      },
      "renounceRole(bytes32,address)": {
        "details": "Revokes `role` from the calling account. Roles are often managed via {grantRole} and {revokeRole}: this function's purpose is to provide a mechanism for accounts to lose their privileges if they are compromised (such as when a trusted device is misplaced). If the calling account had been revoked `role`, emits a {RoleRevoked} event. Requirements: - the caller must be `callerConfirmation`. May emit a {RoleRevoked} event."
      },
      "revokeRole(bytes32,address)": {
        "details": "Revokes `role` from `account`. If `account` had been granted `role`, emits a {RoleRevoked} event. Requirements: - the caller must have ``role``'s admin role. May emit a {RoleRevoked} event."
      },
      "setAskDecimals(uint8)": {
        "params": {
          "_askDecimals": "The number of decimals for price asks (max 8)"
        }
      },
      "setMarketplaceCurrency(address)": {
        "params": {
          "_marketplaceCurrency": "The address of the marketplace currency"
        }
      },
      "setMaxBuyPerTransaction(uint256)": {
        "params": {
          "_maxBuyPerTransaction": "The maximum buy per transaction (0 = unlimited)"
        }
      },
      "setReleaseActive(uint256,bool)": {
        "params": {
          "_active": "The active state",
          "_releaseId": "The ID of the release"
        }
      },
      "setReleaseFees(uint256,((address,address,uint16),(address,address,uint16)[])[])": {
        "params": {
          "_additionalFees": "The additional fees for the release",
          "_releaseId": "The ID of the release"
        }
      },
      "setup(address,uint8,address,address,address,address)": {
        "params": {
          "_askDecimals": "The number of decimals for price asks",
          "_fundManager": "The fund manager contract for handling funds",
          "_gildiPriceOracle": "The price oracle for currency conversions",
          "_orderBook": "The order book contract for managing listings",
          "_paymentAggregator": "The payment aggregator for handling payments"
        }
      },
      "supportsInterface(bytes4)": {
        "details": "Returns true if this contract implements the interface defined by `interfaceId`. See the corresponding https://eips.ethereum.org/EIPS/eip-165#how-interfaces-are-identified[ERC section] to learn more about how these ids are created. This function call must use less than 30 000 gas."
      },
      "transferTokenInContext(address,address,uint256,address)": {
        "params": {
          "_amountCurrency": "The currency of the amount",
          "_from": "The address to transfer from",
          "_to": "The address to transfer to",
          "_value": "The amount to transfer"
        }
      },
      "tryBurnTokenInContext(address,uint256,address)": {
        "params": {
          "_amountCurrency": "The currency of the amount",
          "_from": "The address to burn from",
          "_value": "The amount to burn"
        },
        "returns": {
          "_0": "Whether the burn was successful"
        }
      },
      "unlistAllListings(uint256,uint256)": {
        "params": {
          "_batchSize": "The batch size (0 = unlimited)",
          "_releaseId": "The ID of the release (0 = all)"
        }
      }
    },
    "title": "Gildi Exchange",
    "version": 1
  },
  "userdoc": {
    "events": {
      "AskDecimalsSet(uint8)": {
        "notice": "Emitted when the ask decimals are set"
      },
      "FeesUpdated(uint256)": {
        "notice": "Emitted when a release's fees are updated"
      },
      "InitialSaleCreated(uint256,address,uint256[],uint256[],uint256,uint256,uint256,bool,uint256,address,address,((address,address,uint16),(address,address,uint16)[])[])": {
        "notice": "Emitted when an initial sale is created"
      },
      "InitialSaleEnded(uint256)": {
        "notice": "Emitted when the initial sale ends"
      },
      "MarketplaceCurrencySet(address)": {
        "notice": "Emitted when the marketplace currency is set"
      },
      "Purchased(uint256,address,address,address,uint256,uint256,uint256,uint256,address)": {
        "notice": "Emitted when a purchase is made"
      },
      "ReleaseActiveStateChanged(uint256,bool)": {
        "notice": "Emitted when a release's active state is changed"
      },
      "ReleaseCancellationStarted(uint256)": {
        "notice": "Emitted when a release cancellation is started"
      },
      "ReleaseCancelled(uint256)": {
        "notice": "Emitted when a release is fully cancelled"
      },
      "ReleaseInitialized(uint256)": {
        "notice": "Emitted when a release is initialized"
      }
    },
    "kind": "user",
    "methods": {
      "DEFAULT_SLIPPAGE_BPS()": {
        "notice": "Default slippage tolerance in basis points (1%)"
      },
      "canBuy(uint256,address)": {
        "notice": "Checks if a user can buy a release and determines the maximum amount they can buy"
      },
      "canSell(uint256[])": {
        "notice": "Checks whether or not a list of releases can be sold."
      },
      "cancelListing(uint256)": {
        "notice": "Cancels a listing by ID"
      },
      "cancelRelease(uint256,uint256)": {
        "notice": "Cancels a release in batches."
      },
      "createInitialSale((uint256,uint256[],uint256[],address,uint256,uint256,uint256,bool,address[],uint256,address,address,address,((address,address,uint16),(address,address,uint16)[])[]))": {
        "notice": "Creates an initial sale."
      },
      "createListing(uint256,address,uint256,uint256,address,address)": {
        "notice": "Creates a listing with default slippage"
      },
      "getActiveMarketplaceReleaseAsset(uint256)": {
        "notice": "Gets the active marketplace asset for a release"
      },
      "getAppEnvironment()": {
        "notice": "Returns the app environment."
      },
      "getInitialSaleByReleaseId(uint256)": {
        "notice": "Gets the initial sale by release ID"
      },
      "getReleaseById(uint256)": {
        "notice": "Gets a release by ID"
      },
      "getReleaseFees(uint256)": {
        "notice": "Get the fees of a specific release"
      },
      "getReleaseIds(bool)": {
        "notice": "Get a list of release IDs"
      },
      "getWhitelist(uint256)": {
        "notice": "Gets the whitelist of a release."
      },
      "initialize(address,address,address,address,address)": {
        "notice": "Initializes the contract"
      },
      "initializeRelease(uint256,((address,address,uint16),(address,address,uint16)[])[])": {
        "notice": "Initializes the release"
      },
      "isInInitialSale(uint256)": {
        "notice": "Checks if a release is currently in its initial sale period"
      },
      "isInitialSaleWhitelistBuyer(uint256,address)": {
        "notice": "Mapping from release ID to buyer address to whitelist status"
      },
      "isWhitelistSale(uint256)": {
        "notice": "Whether or not the release is in a whitelist sale state"
      },
      "modifyListing(uint256,uint256,uint256,address,address)": {
        "notice": "Modifies a listing with default slippage"
      },
      "pause()": {
        "notice": "Pauses the contract"
      },
      "purchase(uint256,uint256,uint256,address,bool)": {
        "notice": "Purchases tokens of a release"
      },
      "quotePrice(uint256,uint256)": {
        "notice": "Converts a price in USD to the equivalent amount in the release's active marketplace asset"
      },
      "quotePricePreview(uint256,uint256,address)": {
        "notice": "Gets the price needed to pay in marketplace currency to buy `_amountToBuy` units of `_releaseId`."
      },
      "releases(uint256)": {
        "notice": "Mapping from release ID to Release struct"
      },
      "setAskDecimals(uint8)": {
        "notice": "Sets the number of decimals for price asks"
      },
      "setFees(((address,address,uint16),(address,address,uint16)[])[])": {
        "notice": "Sets the marketplace fees"
      },
      "setMarketplaceCurrency(address)": {
        "notice": "Sets the marketplace currency"
      },
      "setMaxBuyPerTransaction(uint256)": {
        "notice": "Sets the max buy per transaction"
      },
      "setReleaseActive(uint256,bool)": {
        "notice": "Sets the active state of a release"
      },
      "setReleaseFees(uint256,((address,address,uint16),(address,address,uint16)[])[])": {
        "notice": "Sets the fees for a specific release"
      },
      "setup(address,uint8,address,address,address,address)": {
        "notice": "Sets up the exchange with required dependencies"
      },
      "transferTokenInContext(address,address,uint256,address)": {
        "notice": "Transfer a token in the context of the Gildi Exchange"
      },
      "tryBurnTokenInContext(address,uint256,address)": {
        "notice": "Tries to burn a token in the context of the Gildi Exchange"
      },
      "unlistAllListings(uint256,uint256)": {
        "notice": "Unlists all listings of a release in batches."
      },
      "unpause()": {
        "notice": "Unpauses the contract"
      }
    },
    "notice": "Marketplace of the Gildi platform.",
    "version": 1
  },
  "storageLayout": {
    "storage": [
      {
        "astId": 13188,
        "contract": "contracts/marketplace/exchange/GildiExchange.sol:GildiExchange",
        "label": "appSettings",
        "offset": 0,
        "slot": "0",
        "type": "t_struct(AppSettings)12136_storage"
      },
      {
        "astId": 13192,
        "contract": "contracts/marketplace/exchange/GildiExchange.sol:GildiExchange",
        "label": "releaseIds",
        "offset": 0,
        "slot": "10",
        "type": "t_array(t_uint256)dyn_storage"
      },
      {
        "astId": 13198,
        "contract": "contracts/marketplace/exchange/GildiExchange.sol:GildiExchange",
        "label": "releases",
        "offset": 0,
        "slot": "11",
        "type": "t_mapping(t_uint256,t_struct(Release)13297_storage)"
      },
      {
        "astId": 13204,
        "contract": "contracts/marketplace/exchange/GildiExchange.sol:GildiExchange",
        "label": "initialSales",
        "offset": 0,
        "slot": "12",
        "type": "t_mapping(t_uint256,t_struct(InitialSale)13325_storage)"
      },
      {
        "astId": 13210,
        "contract": "contracts/marketplace/exchange/GildiExchange.sol:GildiExchange",
        "label": "initialSaleWhitelistBuyers",
        "offset": 0,
        "slot": "13",
        "type": "t_mapping(t_uint256,t_array(t_address)dyn_storage)"
      },
      {
        "astId": 13217,
        "contract": "contracts/marketplace/exchange/GildiExchange.sol:GildiExchange",
        "label": "isInitialSaleWhitelistBuyer",
        "offset": 0,
        "slot": "14",
        "type": "t_mapping(t_uint256,t_mapping(t_address,t_bool))"
      },
      {
        "astId": 13224,
        "contract": "contracts/marketplace/exchange/GildiExchange.sol:GildiExchange",
        "label": "initialSaleMaxBuyCounts",
        "offset": 0,
        "slot": "15",
        "type": "t_mapping(t_uint256,t_mapping(t_address,t_uint256))"
      },
      {
        "astId": 13229,
        "contract": "contracts/marketplace/exchange/GildiExchange.sol:GildiExchange",
        "label": "initialSaleListedQuantities",
        "offset": 0,
        "slot": "16",
        "type": "t_mapping(t_uint256,t_uint256)"
      }
    ],
    "types": {
      "t_address": {
        "encoding": "inplace",
        "label": "address",
        "numberOfBytes": "20"
      },
      "t_array(t_address)dyn_storage": {
        "base": "t_address",
        "encoding": "dynamic_array",
        "label": "address[]",
        "numberOfBytes": "32"
      },
      "t_array(t_struct(FeeDistribution)12077_storage)dyn_storage": {
        "base": "t_struct(FeeDistribution)12077_storage",
        "encoding": "dynamic_array",
        "label": "struct IGildiExchange.FeeDistribution[]",
        "numberOfBytes": "32"
      },
      "t_array(t_struct(Receiver)12066_storage)dyn_storage": {
        "base": "t_struct(Receiver)12066_storage",
        "encoding": "dynamic_array",
        "label": "struct IGildiExchange.Receiver[]",
        "numberOfBytes": "32"
      },
      "t_array(t_uint256)dyn_storage": {
        "base": "t_uint256",
        "encoding": "dynamic_array",
        "label": "uint256[]",
        "numberOfBytes": "32"
      },
      "t_bool": {
        "encoding": "inplace",
        "label": "bool",
        "numberOfBytes": "1"
      },
      "t_contract(IERC20)1826": {
        "encoding": "inplace",
        "label": "contract IERC20",
        "numberOfBytes": "20"
      },
      "t_contract(IGildiExchangeFundManager)12376": {
        "encoding": "inplace",
        "label": "contract IGildiExchangeFundManager",
        "numberOfBytes": "20"
      },
      "t_contract(IGildiExchangeOrderBook)12572": {
        "encoding": "inplace",
        "label": "contract IGildiExchangeOrderBook",
        "numberOfBytes": "20"
      },
      "t_contract(IGildiExchangePaymentAggregator)12653": {
        "encoding": "inplace",
        "label": "contract IGildiExchangePaymentAggregator",
        "numberOfBytes": "20"
      },
      "t_contract(IGildiExchangePaymentProcessor)12703": {
        "encoding": "inplace",
        "label": "contract IGildiExchangePaymentProcessor",
        "numberOfBytes": "20"
      },
      "t_contract(IGildiManager)12034": {
        "encoding": "inplace",
        "label": "contract IGildiManager",
        "numberOfBytes": "20"
      },
      "t_contract(IGildiPriceOracle)12989": {
        "encoding": "inplace",
        "label": "contract IGildiPriceOracle",
        "numberOfBytes": "20"
      },
      "t_mapping(t_address,t_bool)": {
        "encoding": "mapping",
        "key": "t_address",
        "label": "mapping(address => bool)",
        "numberOfBytes": "32",
        "value": "t_bool"
      },
      "t_mapping(t_address,t_uint256)": {
        "encoding": "mapping",
        "key": "t_address",
        "label": "mapping(address => uint256)",
        "numberOfBytes": "32",
        "value": "t_uint256"
      },
      "t_mapping(t_uint256,t_array(t_address)dyn_storage)": {
        "encoding": "mapping",
        "key": "t_uint256",
        "label": "mapping(uint256 => address[])",
        "numberOfBytes": "32",
        "value": "t_array(t_address)dyn_storage"
      },
      "t_mapping(t_uint256,t_mapping(t_address,t_bool))": {
        "encoding": "mapping",
        "key": "t_uint256",
        "label": "mapping(uint256 => mapping(address => bool))",
        "numberOfBytes": "32",
        "value": "t_mapping(t_address,t_bool)"
      },
      "t_mapping(t_uint256,t_mapping(t_address,t_uint256))": {
        "encoding": "mapping",
        "key": "t_uint256",
        "label": "mapping(uint256 => mapping(address => uint256))",
        "numberOfBytes": "32",
        "value": "t_mapping(t_address,t_uint256)"
      },
      "t_mapping(t_uint256,t_struct(InitialSale)13325_storage)": {
        "encoding": "mapping",
        "key": "t_uint256",
        "label": "mapping(uint256 => struct GildiExchange.InitialSale)",
        "numberOfBytes": "32",
        "value": "t_struct(InitialSale)13325_storage"
      },
      "t_mapping(t_uint256,t_struct(Release)13297_storage)": {
        "encoding": "mapping",
        "key": "t_uint256",
        "label": "mapping(uint256 => struct GildiExchange.Release)",
        "numberOfBytes": "32",
        "value": "t_struct(Release)13297_storage"
      },
      "t_mapping(t_uint256,t_uint256)": {
        "encoding": "mapping",
        "key": "t_uint256",
        "label": "mapping(uint256 => uint256)",
        "numberOfBytes": "32",
        "value": "t_uint256"
      },
      "t_struct(AppSettings)12136_storage": {
        "encoding": "inplace",
        "label": "struct IGildiExchange.AppSettings",
        "members": [
          {
            "astId": 12099,
            "contract": "contracts/marketplace/exchange/GildiExchange.sol:GildiExchange",
            "label": "priceAskDecimals",
            "offset": 0,
            "slot": "0",
            "type": "t_uint8"
          },
          {
            "astId": 12104,
            "contract": "contracts/marketplace/exchange/GildiExchange.sol:GildiExchange",
            "label": "fees",
            "offset": 0,
            "slot": "1",
            "type": "t_array(t_struct(FeeDistribution)12077_storage)dyn_storage"
          },
          {
            "astId": 12108,
            "contract": "contracts/marketplace/exchange/GildiExchange.sol:GildiExchange",
            "label": "marketplaceCurrency",
            "offset": 0,
            "slot": "2",
            "type": "t_contract(IERC20)1826"
          },
          {
            "astId": 12111,
            "contract": "contracts/marketplace/exchange/GildiExchange.sol:GildiExchange",
            "label": "maxBuyPerTransaction",
            "offset": 0,
            "slot": "3",
            "type": "t_uint256"
          },
          {
            "astId": 12115,
            "contract": "contracts/marketplace/exchange/GildiExchange.sol:GildiExchange",
            "label": "gildiManager",
            "offset": 0,
            "slot": "4",
            "type": "t_contract(IGildiManager)12034"
          },
          {
            "astId": 12119,
            "contract": "contracts/marketplace/exchange/GildiExchange.sol:GildiExchange",
            "label": "orderBook",
            "offset": 0,
            "slot": "5",
            "type": "t_contract(IGildiExchangeOrderBook)12572"
          },
          {
            "astId": 12123,
            "contract": "contracts/marketplace/exchange/GildiExchange.sol:GildiExchange",
            "label": "gildiPriceOracle",
            "offset": 0,
            "slot": "6",
            "type": "t_contract(IGildiPriceOracle)12989"
          },
          {
            "astId": 12127,
            "contract": "contracts/marketplace/exchange/GildiExchange.sol:GildiExchange",
            "label": "fundManager",
            "offset": 0,
            "slot": "7",
            "type": "t_contract(IGildiExchangeFundManager)12376"
          },
          {
            "astId": 12131,
            "contract": "contracts/marketplace/exchange/GildiExchange.sol:GildiExchange",
            "label": "paymentProcessor",
            "offset": 0,
            "slot": "8",
            "type": "t_contract(IGildiExchangePaymentProcessor)12703"
          },
          {
            "astId": 12135,
            "contract": "contracts/marketplace/exchange/GildiExchange.sol:GildiExchange",
            "label": "paymentAggregator",
            "offset": 0,
            "slot": "9",
            "type": "t_contract(IGildiExchangePaymentAggregator)12653"
          }
        ],
        "numberOfBytes": "320"
      },
      "t_struct(FeeDistribution)12077_storage": {
        "encoding": "inplace",
        "label": "struct IGildiExchange.FeeDistribution",
        "members": [
          {
            "astId": 12071,
            "contract": "contracts/marketplace/exchange/GildiExchange.sol:GildiExchange",
            "label": "feeReceiver",
            "offset": 0,
            "slot": "0",
            "type": "t_struct(Receiver)12066_storage"
          },
          {
            "astId": 12076,
            "contract": "contracts/marketplace/exchange/GildiExchange.sol:GildiExchange",
            "label": "subFeeReceivers",
            "offset": 0,
            "slot": "2",
            "type": "t_array(t_struct(Receiver)12066_storage)dyn_storage"
          }
        ],
        "numberOfBytes": "96"
      },
      "t_struct(InitialSale)13325_storage": {
        "encoding": "inplace",
        "label": "struct GildiExchange.InitialSale",
        "members": [
          {
            "astId": 13301,
            "contract": "contracts/marketplace/exchange/GildiExchange.sol:GildiExchange",
            "label": "active",
            "offset": 0,
            "slot": "0",
            "type": "t_bool"
          },
          {
            "astId": 13304,
            "contract": "contracts/marketplace/exchange/GildiExchange.sol:GildiExchange",
            "label": "whitelist",
            "offset": 1,
            "slot": "0",
            "type": "t_bool"
          },
          {
            "astId": 13307,
            "contract": "contracts/marketplace/exchange/GildiExchange.sol:GildiExchange",
            "label": "startTime",
            "offset": 0,
            "slot": "1",
            "type": "t_uint256"
          },
          {
            "astId": 13310,
            "contract": "contracts/marketplace/exchange/GildiExchange.sol:GildiExchange",
            "label": "endTime",
            "offset": 0,
            "slot": "2",
            "type": "t_uint256"
          },
          {
            "astId": 13313,
            "contract": "contracts/marketplace/exchange/GildiExchange.sol:GildiExchange",
            "label": "whitelistUntil",
            "offset": 0,
            "slot": "3",
            "type": "t_uint256"
          },
          {
            "astId": 13316,
            "contract": "contracts/marketplace/exchange/GildiExchange.sol:GildiExchange",
            "label": "maxBuy",
            "offset": 0,
            "slot": "4",
            "type": "t_uint256"
          },
          {
            "astId": 13319,
            "contract": "contracts/marketplace/exchange/GildiExchange.sol:GildiExchange",
            "label": "saleCurrency",
            "offset": 0,
            "slot": "5",
            "type": "t_address"
          },
          {
            "astId": 13324,
            "contract": "contracts/marketplace/exchange/GildiExchange.sol:GildiExchange",
            "label": "fees",
            "offset": 0,
            "slot": "6",
            "type": "t_array(t_struct(FeeDistribution)12077_storage)dyn_storage"
          }
        ],
        "numberOfBytes": "224"
      },
      "t_struct(Receiver)12066_storage": {
        "encoding": "inplace",
        "label": "struct IGildiExchange.Receiver",
        "members": [
          {
            "astId": 12059,
            "contract": "contracts/marketplace/exchange/GildiExchange.sol:GildiExchange",
            "label": "receiverAddress",
            "offset": 0,
            "slot": "0",
            "type": "t_address"
          },
          {
            "astId": 12062,
            "contract": "contracts/marketplace/exchange/GildiExchange.sol:GildiExchange",
            "label": "payoutCurrency",
            "offset": 0,
            "slot": "1",
            "type": "t_address"
          },
          {
            "astId": 12065,
            "contract": "contracts/marketplace/exchange/GildiExchange.sol:GildiExchange",
            "label": "value",
            "offset": 20,
            "slot": "1",
            "type": "t_uint16"
          }
        ],
        "numberOfBytes": "64"
      },
      "t_struct(Release)13297_storage": {
        "encoding": "inplace",
        "label": "struct GildiExchange.Release",
        "members": [
          {
            "astId": 13282,
            "contract": "contracts/marketplace/exchange/GildiExchange.sol:GildiExchange",
            "label": "releaseId",
            "offset": 0,
            "slot": "0",
            "type": "t_uint256"
          },
          {
            "astId": 13287,
            "contract": "contracts/marketplace/exchange/GildiExchange.sol:GildiExchange",
            "label": "additionalFees",
            "offset": 0,
            "slot": "1",
            "type": "t_array(t_struct(FeeDistribution)12077_storage)dyn_storage"
          },
          {
            "astId": 13290,
            "contract": "contracts/marketplace/exchange/GildiExchange.sol:GildiExchange",
            "label": "initialized",
            "offset": 0,
            "slot": "2",
            "type": "t_bool"
          },
          {
            "astId": 13293,
            "contract": "contracts/marketplace/exchange/GildiExchange.sol:GildiExchange",
            "label": "active",
            "offset": 1,
            "slot": "2",
            "type": "t_bool"
          },
          {
            "astId": 13296,
            "contract": "contracts/marketplace/exchange/GildiExchange.sol:GildiExchange",
            "label": "isCancelling",
            "offset": 2,
            "slot": "2",
            "type": "t_bool"
          }
        ],
        "numberOfBytes": "96"
      },
      "t_uint16": {
        "encoding": "inplace",
        "label": "uint16",
        "numberOfBytes": "2"
      },
      "t_uint256": {
        "encoding": "inplace",
        "label": "uint256",
        "numberOfBytes": "32"
      },
      "t_uint8": {
        "encoding": "inplace",
        "label": "uint8",
        "numberOfBytes": "1"
      }
    }
  }
}