{
  "address": "0x90164f001753dd44756616f621dda4Fee12f5a8D",
  "abi": [
    {
      "inputs": [],
      "stateMutability": "nonpayable",
      "type": "constructor"
    },
    {
      "inputs": [],
      "name": "AccessControlBadConfirmation",
      "type": "error"
    },
    {
      "inputs": [
        {
          "internalType": "address",
          "name": "account",
          "type": "address"
        },
        {
          "internalType": "bytes32",
          "name": "neededRole",
          "type": "bytes32"
        }
      ],
      "name": "AccessControlUnauthorizedAccount",
      "type": "error"
    },
    {
      "inputs": [
        {
          "internalType": "address",
          "name": "account",
          "type": "address"
        },
        {
          "internalType": "bytes32[]",
          "name": "roles",
          "type": "bytes32[]"
        }
      ],
      "name": "AccessControlUnauthorizedAccountAny",
      "type": "error"
    },
    {
      "inputs": [],
      "name": "AddressZeroNotAllowed",
      "type": "error"
    },
    {
      "inputs": [],
      "name": "AmountMustBeGreaterThanZero",
      "type": "error"
    },
    {
      "inputs": [
        {
          "internalType": "uint256",
          "name": "tokenId",
          "type": "uint256"
        },
        {
          "internalType": "address",
          "name": "account",
          "type": "address"
        }
      ],
      "name": "InsufficientAvailableBalance",
      "type": "error"
    },
    {
      "inputs": [
        {
          "internalType": "uint256",
          "name": "unassignedShares",
          "type": "uint256"
        },
        {
          "internalType": "uint256",
          "name": "requiredAmount",
          "type": "uint256"
        }
      ],
      "name": "InsufficientUnassignedShares",
      "type": "error"
    },
    {
      "inputs": [
        {
          "internalType": "uint256",
          "name": "batchSizeMin",
          "type": "uint256"
        },
        {
          "internalType": "uint256",
          "name": "batchSizeMax",
          "type": "uint256"
        }
      ],
      "name": "InvalidBatchSize",
      "type": "error"
    },
    {
      "inputs": [],
      "name": "InvalidInitialization",
      "type": "error"
    },
    {
      "inputs": [
        {
          "internalType": "bool",
          "name": "expectedState",
          "type": "bool"
        },
        {
          "internalType": "bool",
          "name": "actualState",
          "type": "bool"
        }
      ],
      "name": "InvalidLockState",
      "type": "error"
    },
    {
      "inputs": [],
      "name": "NotFullyAssignedShares",
      "type": "error"
    },
    {
      "inputs": [],
      "name": "NotInitializing",
      "type": "error"
    },
    {
      "inputs": [],
      "name": "ReentrancyGuardReentrantCall",
      "type": "error"
    },
    {
      "inputs": [
        {
          "internalType": "uint256",
          "name": "tokenId",
          "type": "uint256"
        }
      ],
      "name": "ReleaseAlreadyExists",
      "type": "error"
    },
    {
      "inputs": [
        {
          "internalType": "uint256",
          "name": "tokenId",
          "type": "uint256"
        }
      ],
      "name": "ReleaseDoesNotExist",
      "type": "error"
    },
    {
      "inputs": [
        {
          "internalType": "uint256",
          "name": "tokenId",
          "type": "uint256"
        }
      ],
      "name": "ReleaseIsDeleting",
      "type": "error"
    },
    {
      "inputs": [
        {
          "internalType": "uint256",
          "name": "tokenId",
          "type": "uint256"
        }
      ],
      "name": "ReleaseTokenAlreadyExists",
      "type": "error"
    },
    {
      "inputs": [],
      "name": "SharesMustNotBeEmpty",
      "type": "error"
    },
    {
      "inputs": [
        {
          "internalType": "uint256",
          "name": "maxShares",
          "type": "uint256"
        }
      ],
      "name": "TooManyShares",
      "type": "error"
    },
    {
      "inputs": [
        {
          "internalType": "bool",
          "name": "expectedState",
          "type": "bool"
        },
        {
          "internalType": "bool",
          "name": "actualState",
          "type": "bool"
        }
      ],
      "name": "WrongInitialSaleState",
      "type": "error"
    },
    {
      "anonymous": false,
      "inputs": [
        {
          "indexed": true,
          "internalType": "uint256",
          "name": "releaseId",
          "type": "uint256"
        }
      ],
      "name": "InitialSaleEnded",
      "type": "event"
    },
    {
      "anonymous": false,
      "inputs": [
        {
          "indexed": true,
          "internalType": "uint256",
          "name": "releaseId",
          "type": "uint256"
        }
      ],
      "name": "InitialSaleStarted",
      "type": "event"
    },
    {
      "anonymous": false,
      "inputs": [
        {
          "indexed": false,
          "internalType": "uint64",
          "name": "version",
          "type": "uint64"
        }
      ],
      "name": "Initialized",
      "type": "event"
    },
    {
      "anonymous": false,
      "inputs": [
        {
          "indexed": true,
          "internalType": "uint256",
          "name": "releaseId",
          "type": "uint256"
        },
        {
          "indexed": false,
          "internalType": "uint256",
          "name": "deletedShares",
          "type": "uint256"
        },
        {
          "indexed": false,
          "internalType": "uint256",
          "name": "remainingOwners",
          "type": "uint256"
        }
      ],
      "name": "ReleaseBatchDeleted",
      "type": "event"
    },
    {
      "anonymous": false,
      "inputs": [
        {
          "indexed": true,
          "internalType": "uint256",
          "name": "releaseId",
          "type": "uint256"
        },
        {
          "indexed": false,
          "internalType": "uint256",
          "name": "amount",
          "type": "uint256"
        }
      ],
      "name": "ReleaseCreated",
      "type": "event"
    },
    {
      "anonymous": false,
      "inputs": [
        {
          "indexed": true,
          "internalType": "uint256",
          "name": "releaseId",
          "type": "uint256"
        }
      ],
      "name": "ReleaseDeleted",
      "type": "event"
    },
    {
      "anonymous": false,
      "inputs": [
        {
          "indexed": true,
          "internalType": "uint256",
          "name": "releaseId",
          "type": "uint256"
        }
      ],
      "name": "ReleaseMarkedForDeletion",
      "type": "event"
    },
    {
      "anonymous": false,
      "inputs": [
        {
          "indexed": true,
          "internalType": "uint256",
          "name": "releaseId",
          "type": "uint256"
        }
      ],
      "name": "ReleaseUnlocked",
      "type": "event"
    },
    {
      "anonymous": false,
      "inputs": [
        {
          "indexed": true,
          "internalType": "bytes32",
          "name": "role",
          "type": "bytes32"
        },
        {
          "indexed": true,
          "internalType": "bytes32",
          "name": "previousAdminRole",
          "type": "bytes32"
        },
        {
          "indexed": true,
          "internalType": "bytes32",
          "name": "newAdminRole",
          "type": "bytes32"
        }
      ],
      "name": "RoleAdminChanged",
      "type": "event"
    },
    {
      "anonymous": false,
      "inputs": [
        {
          "indexed": true,
          "internalType": "bytes32",
          "name": "role",
          "type": "bytes32"
        },
        {
          "indexed": true,
          "internalType": "address",
          "name": "account",
          "type": "address"
        },
        {
          "indexed": true,
          "internalType": "address",
          "name": "sender",
          "type": "address"
        }
      ],
      "name": "RoleGranted",
      "type": "event"
    },
    {
      "anonymous": false,
      "inputs": [
        {
          "indexed": true,
          "internalType": "bytes32",
          "name": "role",
          "type": "bytes32"
        },
        {
          "indexed": true,
          "internalType": "address",
          "name": "account",
          "type": "address"
        },
        {
          "indexed": true,
          "internalType": "address",
          "name": "sender",
          "type": "address"
        }
      ],
      "name": "RoleRevoked",
      "type": "event"
    },
    {
      "anonymous": false,
      "inputs": [
        {
          "indexed": true,
          "internalType": "uint256",
          "name": "releaseId",
          "type": "uint256"
        },
        {
          "indexed": true,
          "internalType": "address",
          "name": "user",
          "type": "address"
        },
        {
          "indexed": false,
          "internalType": "uint256",
          "name": "shares",
          "type": "uint256"
        }
      ],
      "name": "ShareAssigned",
      "type": "event"
    },
    {
      "anonymous": false,
      "inputs": [
        {
          "indexed": true,
          "internalType": "uint256",
          "name": "releaseId",
          "type": "uint256"
        },
        {
          "indexed": false,
          "internalType": "uint256",
          "name": "totalShares",
          "type": "uint256"
        }
      ],
      "name": "SharesAssigned",
      "type": "event"
    },
    {
      "anonymous": false,
      "inputs": [
        {
          "indexed": true,
          "internalType": "uint256",
          "name": "tokenId",
          "type": "uint256"
        },
        {
          "indexed": true,
          "internalType": "address",
          "name": "account",
          "type": "address"
        },
        {
          "indexed": false,
          "internalType": "uint256",
          "name": "amount",
          "type": "uint256"
        }
      ],
      "name": "TokenDeposited",
      "type": "event"
    },
    {
      "anonymous": false,
      "inputs": [
        {
          "indexed": true,
          "internalType": "uint256",
          "name": "tokenId",
          "type": "uint256"
        },
        {
          "indexed": true,
          "internalType": "address",
          "name": "account",
          "type": "address"
        },
        {
          "indexed": false,
          "internalType": "uint256",
          "name": "amount",
          "type": "uint256"
        }
      ],
      "name": "TokenLocked",
      "type": "event"
    },
    {
      "anonymous": false,
      "inputs": [
        {
          "indexed": true,
          "internalType": "uint256",
          "name": "tokenId",
          "type": "uint256"
        },
        {
          "indexed": true,
          "internalType": "address",
          "name": "from",
          "type": "address"
        },
        {
          "indexed": true,
          "internalType": "address",
          "name": "to",
          "type": "address"
        },
        {
          "indexed": false,
          "internalType": "uint256",
          "name": "amount",
          "type": "uint256"
        }
      ],
      "name": "TokenTransferred",
      "type": "event"
    },
    {
      "anonymous": false,
      "inputs": [
        {
          "indexed": true,
          "internalType": "uint256",
          "name": "tokenId",
          "type": "uint256"
        },
        {
          "indexed": true,
          "internalType": "address",
          "name": "account",
          "type": "address"
        },
        {
          "indexed": false,
          "internalType": "uint256",
          "name": "amount",
          "type": "uint256"
        }
      ],
      "name": "TokenUnlocked",
      "type": "event"
    },
    {
      "anonymous": false,
      "inputs": [
        {
          "indexed": true,
          "internalType": "uint256",
          "name": "tokenId",
          "type": "uint256"
        },
        {
          "indexed": true,
          "internalType": "address",
          "name": "account",
          "type": "address"
        },
        {
          "indexed": false,
          "internalType": "uint256",
          "name": "amount",
          "type": "uint256"
        }
      ],
      "name": "TokenWithdrawn",
      "type": "event"
    },
    {
      "inputs": [],
      "name": "ADMIN_ROLE",
      "outputs": [
        {
          "internalType": "bytes32",
          "name": "",
          "type": "bytes32"
        }
      ],
      "stateMutability": "view",
      "type": "function"
    },
    {
      "inputs": [],
      "name": "DEFAULT_ADMIN_ROLE",
      "outputs": [
        {
          "internalType": "bytes32",
          "name": "",
          "type": "bytes32"
        }
      ],
      "stateMutability": "view",
      "type": "function"
    },
    {
      "inputs": [],
      "name": "MARKETPLACE_ROLE",
      "outputs": [
        {
          "internalType": "bytes32",
          "name": "",
          "type": "bytes32"
        }
      ],
      "stateMutability": "view",
      "type": "function"
    },
    {
      "inputs": [],
      "name": "RELEASE_MANAGER_ROLE",
      "outputs": [
        {
          "internalType": "bytes32",
          "name": "",
          "type": "bytes32"
        }
      ],
      "stateMutability": "view",
      "type": "function"
    },
    {
      "inputs": [
        {
          "internalType": "uint256",
          "name": "_releaseId",
          "type": "uint256"
        },
        {
          "components": [
            {
              "internalType": "address",
              "name": "user",
              "type": "address"
            },
            {
              "internalType": "uint256",
              "name": "shares",
              "type": "uint256"
            }
          ],
          "internalType": "struct IGildiManager.UserShare[]",
          "name": "_sharesBatch",
          "type": "tuple[]"
        }
      ],
      "name": "assignShares",
      "outputs": [],
      "stateMutability": "nonpayable",
      "type": "function"
    },
    {
      "inputs": [
        {
          "internalType": "uint256",
          "name": "_tokenId",
          "type": "uint256"
        },
        {
          "internalType": "address",
          "name": "_account",
          "type": "address"
        }
      ],
      "name": "balanceOf",
      "outputs": [
        {
          "components": [
            {
              "internalType": "uint256",
              "name": "tokenId",
              "type": "uint256"
            },
            {
              "internalType": "uint256",
              "name": "amount",
              "type": "uint256"
            },
            {
              "internalType": "uint256",
              "name": "lockedAmount",
              "type": "uint256"
            }
          ],
          "internalType": "struct IGildiManager.TokenBalance",
          "name": "",
          "type": "tuple"
        }
      ],
      "stateMutability": "view",
      "type": "function"
    },
    {
      "inputs": [
        {
          "internalType": "address",
          "name": "_account",
          "type": "address"
        }
      ],
      "name": "balanceOf",
      "outputs": [
        {
          "components": [
            {
              "internalType": "uint256",
              "name": "tokenId",
              "type": "uint256"
            },
            {
              "internalType": "uint256",
              "name": "amount",
              "type": "uint256"
            },
            {
              "internalType": "uint256",
              "name": "lockedAmount",
              "type": "uint256"
            }
          ],
          "internalType": "struct IGildiManager.TokenBalance[]",
          "name": "",
          "type": "tuple[]"
        }
      ],
      "stateMutability": "view",
      "type": "function"
    },
    {
      "inputs": [
        {
          "internalType": "uint256",
          "name": "_releaseId",
          "type": "uint256"
        },
        {
          "internalType": "uint256",
          "name": "_batchSizeOwners",
          "type": "uint256"
        }
      ],
      "name": "batchDeleteRelease",
      "outputs": [],
      "stateMutability": "nonpayable",
      "type": "function"
    },
    {
      "inputs": [
        {
          "internalType": "uint256",
          "name": "_releaseId",
          "type": "uint256"
        }
      ],
      "name": "cancelInitialSale",
      "outputs": [],
      "stateMutability": "nonpayable",
      "type": "function"
    },
    {
      "inputs": [
        {
          "internalType": "uint256",
          "name": "_tokenId",
          "type": "uint256"
        },
        {
          "internalType": "uint256",
          "name": "_amount",
          "type": "uint256"
        },
        {
          "internalType": "uint256",
          "name": "_ownershipTrackingTimePeriod",
          "type": "uint256"
        }
      ],
      "name": "createNewRelease",
      "outputs": [],
      "stateMutability": "nonpayable",
      "type": "function"
    },
    {
      "inputs": [
        {
          "internalType": "uint256",
          "name": "_tokenId",
          "type": "uint256"
        },
        {
          "internalType": "address",
          "name": "_account",
          "type": "address"
        },
        {
          "internalType": "uint256",
          "name": "_amount",
          "type": "uint256"
        }
      ],
      "name": "deposit",
      "outputs": [],
      "stateMutability": "nonpayable",
      "type": "function"
    },
    {
      "inputs": [
        {
          "internalType": "uint256",
          "name": "_releaseId",
          "type": "uint256"
        }
      ],
      "name": "endInitialSale",
      "outputs": [],
      "stateMutability": "nonpayable",
      "type": "function"
    },
    {
      "inputs": [
        {
          "internalType": "uint256",
          "name": "_tokenId",
          "type": "uint256"
        },
        {
          "internalType": "uint256",
          "name": "_start",
          "type": "uint256"
        },
        {
          "internalType": "uint256",
          "name": "_end",
          "type": "uint256"
        },
        {
          "internalType": "uint256",
          "name": "_cursor",
          "type": "uint256"
        },
        {
          "internalType": "uint256",
          "name": "_limit",
          "type": "uint256"
        }
      ],
      "name": "fetchSharesInPeriod",
      "outputs": [
        {
          "components": [
            {
              "internalType": "uint256",
              "name": "tokenId",
              "type": "uint256"
            },
            {
              "internalType": "uint256",
              "name": "start",
              "type": "uint256"
            },
            {
              "internalType": "uint256",
              "name": "end",
              "type": "uint256"
            },
            {
              "internalType": "uint256",
              "name": "totalNumberOfShares",
              "type": "uint256"
            },
            {
              "components": [
                {
                  "internalType": "address",
                  "name": "user",
                  "type": "address"
                },
                {
                  "internalType": "uint256",
                  "name": "shares",
                  "type": "uint256"
                }
              ],
              "internalType": "struct IGildiManager.UserShare[]",
              "name": "userShares",
              "type": "tuple[]"
            },
            {
              "internalType": "bool",
              "name": "hasMore",
              "type": "bool"
            },
            {
              "internalType": "uint256",
              "name": "nextCursor",
              "type": "uint256"
            }
          ],
          "internalType": "struct IGildiManager.SharesReport",
          "name": "",
          "type": "tuple"
        }
      ],
      "stateMutability": "view",
      "type": "function"
    },
    {
      "inputs": [],
      "name": "getAllReleaseIds",
      "outputs": [
        {
          "internalType": "uint256[]",
          "name": "",
          "type": "uint256[]"
        }
      ],
      "stateMutability": "view",
      "type": "function"
    },
    {
      "inputs": [
        {
          "internalType": "uint256",
          "name": "_tokenId",
          "type": "uint256"
        },
        {
          "internalType": "address",
          "name": "_account",
          "type": "address"
        }
      ],
      "name": "getAvailableBalance",
      "outputs": [
        {
          "internalType": "uint256",
          "name": "",
          "type": "uint256"
        }
      ],
      "stateMutability": "view",
      "type": "function"
    },
    {
      "inputs": [
        {
          "internalType": "uint256",
          "name": "_releaseId",
          "type": "uint256"
        }
      ],
      "name": "getReleaseById",
      "outputs": [
        {
          "components": [
            {
              "internalType": "uint256",
              "name": "tokenId",
              "type": "uint256"
            },
            {
              "internalType": "bool",
              "name": "locked",
              "type": "bool"
            },
            {
              "internalType": "uint256",
              "name": "unlockedAt",
              "type": "uint256"
            },
            {
              "internalType": "bool",
              "name": "inInitialSale",
              "type": "bool"
            },
            {
              "internalType": "uint256",
              "name": "totalShares",
              "type": "uint256"
            },
            {
              "internalType": "uint256",
              "name": "unassignedShares",
              "type": "uint256"
            },
            {
              "internalType": "uint256",
              "name": "burnedShares",
              "type": "uint256"
            },
            {
              "internalType": "bool",
              "name": "deleting",
              "type": "bool"
            },
            {
              "internalType": "uint256",
              "name": "deletedShares",
              "type": "uint256"
            },
            {
              "internalType": "uint256",
              "name": "createdAt",
              "type": "uint256"
            }
          ],
          "internalType": "struct IGildiManager.RWARelease",
          "name": "",
          "type": "tuple"
        }
      ],
      "stateMutability": "view",
      "type": "function"
    },
    {
      "inputs": [
        {
          "internalType": "bytes32",
          "name": "role",
          "type": "bytes32"
        }
      ],
      "name": "getRoleAdmin",
      "outputs": [
        {
          "internalType": "bytes32",
          "name": "",
          "type": "bytes32"
        }
      ],
      "stateMutability": "view",
      "type": "function"
    },
    {
      "inputs": [],
      "name": "gildiToken",
      "outputs": [
        {
          "internalType": "contract IGildiToken",
          "name": "",
          "type": "address"
        }
      ],
      "stateMutability": "view",
      "type": "function"
    },
    {
      "inputs": [
        {
          "internalType": "bytes32",
          "name": "role",
          "type": "bytes32"
        },
        {
          "internalType": "address",
          "name": "account",
          "type": "address"
        }
      ],
      "name": "grantRole",
      "outputs": [],
      "stateMutability": "nonpayable",
      "type": "function"
    },
    {
      "inputs": [
        {
          "internalType": "bytes32",
          "name": "role",
          "type": "bytes32"
        },
        {
          "internalType": "address",
          "name": "account",
          "type": "address"
        }
      ],
      "name": "hasRole",
      "outputs": [
        {
          "internalType": "bool",
          "name": "",
          "type": "bool"
        }
      ],
      "stateMutability": "view",
      "type": "function"
    },
    {
      "inputs": [
        {
          "internalType": "address",
          "name": "_defaultAdmin",
          "type": "address"
        },
        {
          "internalType": "address",
          "name": "_initialAdmin",
          "type": "address"
        },
        {
          "internalType": "address",
          "name": "_initialReleaseManager",
          "type": "address"
        },
        {
          "internalType": "contract IGildiToken",
          "name": "_rwaToken",
          "type": "address"
        }
      ],
      "name": "initialize",
      "outputs": [],
      "stateMutability": "nonpayable",
      "type": "function"
    },
    {
      "inputs": [
        {
          "internalType": "uint256",
          "name": "_releaseId",
          "type": "uint256"
        }
      ],
      "name": "isFullyAssigned",
      "outputs": [
        {
          "internalType": "bool",
          "name": "",
          "type": "bool"
        }
      ],
      "stateMutability": "view",
      "type": "function"
    },
    {
      "inputs": [
        {
          "internalType": "uint256",
          "name": "_releaseId",
          "type": "uint256"
        }
      ],
      "name": "isInInitialSale",
      "outputs": [
        {
          "internalType": "bool",
          "name": "",
          "type": "bool"
        }
      ],
      "stateMutability": "view",
      "type": "function"
    },
    {
      "inputs": [
        {
          "internalType": "uint256",
          "name": "_releaseId",
          "type": "uint256"
        }
      ],
      "name": "isLocked",
      "outputs": [
        {
          "internalType": "bool",
          "name": "",
          "type": "bool"
        }
      ],
      "stateMutability": "view",
      "type": "function"
    },
    {
      "inputs": [
        {
          "internalType": "address",
          "name": "_account",
          "type": "address"
        },
        {
          "internalType": "uint256",
          "name": "_tokenId",
          "type": "uint256"
        },
        {
          "internalType": "uint256",
          "name": "_amountToLock",
          "type": "uint256"
        }
      ],
      "name": "lockTokens",
      "outputs": [],
      "stateMutability": "nonpayable",
      "type": "function"
    },
    {
      "inputs": [
        {
          "internalType": "address",
          "name": "",
          "type": "address"
        },
        {
          "internalType": "address",
          "name": "",
          "type": "address"
        },
        {
          "internalType": "uint256[]",
          "name": "",
          "type": "uint256[]"
        },
        {
          "internalType": "uint256[]",
          "name": "",
          "type": "uint256[]"
        },
        {
          "internalType": "bytes",
          "name": "",
          "type": "bytes"
        }
      ],
      "name": "onERC1155BatchReceived",
      "outputs": [
        {
          "internalType": "bytes4",
          "name": "",
          "type": "bytes4"
        }
      ],
      "stateMutability": "nonpayable",
      "type": "function"
    },
    {
      "inputs": [
        {
          "internalType": "address",
          "name": "",
          "type": "address"
        },
        {
          "internalType": "address",
          "name": "",
          "type": "address"
        },
        {
          "internalType": "uint256",
          "name": "",
          "type": "uint256"
        },
        {
          "internalType": "uint256",
          "name": "",
          "type": "uint256"
        },
        {
          "internalType": "bytes",
          "name": "",
          "type": "bytes"
        }
      ],
      "name": "onERC1155Received",
      "outputs": [
        {
          "internalType": "bytes4",
          "name": "",
          "type": "bytes4"
        }
      ],
      "stateMutability": "nonpayable",
      "type": "function"
    },
    {
      "inputs": [
        {
          "internalType": "uint256",
          "name": "_tokenId",
          "type": "uint256"
        }
      ],
      "name": "ownersOfToken",
      "outputs": [
        {
          "internalType": "address[]",
          "name": "",
          "type": "address[]"
        }
      ],
      "stateMutability": "view",
      "type": "function"
    },
    {
      "inputs": [
        {
          "internalType": "uint256",
          "name": "_releaseId",
          "type": "uint256"
        }
      ],
      "name": "releaseExists",
      "outputs": [
        {
          "internalType": "bool",
          "name": "",
          "type": "bool"
        }
      ],
      "stateMutability": "view",
      "type": "function"
    },
    {
      "inputs": [
        {
          "internalType": "uint256",
          "name": "",
          "type": "uint256"
        }
      ],
      "name": "releaseOwnershipStorages",
      "outputs": [
        {
          "internalType": "contract GildiManagerOwnershipStorage",
          "name": "",
          "type": "address"
        }
      ],
      "stateMutability": "view",
      "type": "function"
    },
    {
      "inputs": [
        {
          "internalType": "bytes32",
          "name": "role",
          "type": "bytes32"
        },
        {
          "internalType": "address",
          "name": "callerConfirmation",
          "type": "address"
        }
      ],
      "name": "renounceRole",
      "outputs": [],
      "stateMutability": "nonpayable",
      "type": "function"
    },
    {
      "inputs": [
        {
          "internalType": "bytes32",
          "name": "role",
          "type": "bytes32"
        },
        {
          "internalType": "address",
          "name": "account",
          "type": "address"
        }
      ],
      "name": "revokeRole",
      "outputs": [],
      "stateMutability": "nonpayable",
      "type": "function"
    },
    {
      "inputs": [
        {
          "internalType": "uint256",
          "name": "",
          "type": "uint256"
        }
      ],
      "name": "rwaReleaseIds",
      "outputs": [
        {
          "internalType": "uint256",
          "name": "",
          "type": "uint256"
        }
      ],
      "stateMutability": "view",
      "type": "function"
    },
    {
      "inputs": [
        {
          "internalType": "uint256",
          "name": "",
          "type": "uint256"
        }
      ],
      "name": "rwaReleases",
      "outputs": [
        {
          "internalType": "uint256",
          "name": "tokenId",
          "type": "uint256"
        },
        {
          "internalType": "bool",
          "name": "locked",
          "type": "bool"
        },
        {
          "internalType": "uint256",
          "name": "unlockedAt",
          "type": "uint256"
        },
        {
          "internalType": "bool",
          "name": "inInitialSale",
          "type": "bool"
        },
        {
          "internalType": "uint256",
          "name": "totalShares",
          "type": "uint256"
        },
        {
          "internalType": "uint256",
          "name": "unassignedShares",
          "type": "uint256"
        },
        {
          "internalType": "uint256",
          "name": "burnedShares",
          "type": "uint256"
        },
        {
          "internalType": "bool",
          "name": "deleting",
          "type": "bool"
        },
        {
          "internalType": "uint256",
          "name": "deletedShares",
          "type": "uint256"
        },
        {
          "internalType": "uint256",
          "name": "createdAt",
          "type": "uint256"
        }
      ],
      "stateMutability": "view",
      "type": "function"
    },
    {
      "inputs": [
        {
          "internalType": "uint256",
          "name": "_releaseId",
          "type": "uint256"
        }
      ],
      "name": "startInitialSale",
      "outputs": [],
      "stateMutability": "nonpayable",
      "type": "function"
    },
    {
      "inputs": [
        {
          "internalType": "bytes4",
          "name": "_interfaceId",
          "type": "bytes4"
        }
      ],
      "name": "supportsInterface",
      "outputs": [
        {
          "internalType": "bool",
          "name": "",
          "type": "bool"
        }
      ],
      "stateMutability": "view",
      "type": "function"
    },
    {
      "inputs": [
        {
          "internalType": "uint256",
          "name": "_tokenId",
          "type": "uint256"
        },
        {
          "internalType": "address",
          "name": "_from",
          "type": "address"
        },
        {
          "internalType": "address",
          "name": "_to",
          "type": "address"
        },
        {
          "internalType": "uint256",
          "name": "_amount",
          "type": "uint256"
        }
      ],
      "name": "transferOwnership",
      "outputs": [],
      "stateMutability": "nonpayable",
      "type": "function"
    },
    {
      "inputs": [
        {
          "internalType": "uint256",
          "name": "_tokenId",
          "type": "uint256"
        },
        {
          "internalType": "address",
          "name": "_from",
          "type": "address"
        },
        {
          "internalType": "address",
          "name": "_to",
          "type": "address"
        },
        {
          "internalType": "uint256",
          "name": "_amount",
          "type": "uint256"
        }
      ],
      "name": "transferOwnershipInitialSale",
      "outputs": [],
      "stateMutability": "nonpayable",
      "type": "function"
    },
    {
      "inputs": [
        {
          "internalType": "uint256",
          "name": "_releaseId",
          "type": "uint256"
        }
      ],
      "name": "unlockRelease",
      "outputs": [],
      "stateMutability": "nonpayable",
      "type": "function"
    },
    {
      "inputs": [
        {
          "internalType": "address",
          "name": "_account",
          "type": "address"
        },
        {
          "internalType": "uint256",
          "name": "_tokenId",
          "type": "uint256"
        },
        {
          "internalType": "uint256",
          "name": "_amountToUnlock",
          "type": "uint256"
        }
      ],
      "name": "unlockTokens",
      "outputs": [],
      "stateMutability": "nonpayable",
      "type": "function"
    },
    {
      "inputs": [
        {
          "internalType": "uint256",
          "name": "_tokenId",
          "type": "uint256"
        },
        {
          "internalType": "address",
          "name": "_account",
          "type": "address"
        },
        {
          "internalType": "uint256",
          "name": "_amount",
          "type": "uint256"
        }
      ],
      "name": "withdraw",
      "outputs": [],
      "stateMutability": "nonpayable",
      "type": "function"
    }
  ],
  "transactionHash": "0xa870cb237fd1e813e0d8285fc6bd79e04c38dd9cc669ed162598b3b81e3f8c4a",
  "args": [],
  "numDeployments": 1,
  "solcInputHash": "5fcb370cb2b9ee0340656465635a79fa",
  "bytecode": "0x60808060405234620000bd577ff0c57e16840df040f15088dc2f81fe391c3923bec73e23a9662efc9c229c6a009081549060ff8260401c16620000ae57506001600160401b036002600160401b03198282160162000068575b6040516154e19081620000c38239f35b6001600160401b031990911681179091556040519081527fc7f505b2f371ae2175ee4913f4499e1f2633a7b5936321eed1cdaeb6115181d290602090a138808062000058565b63f92ee8a960e01b8152600490fd5b600080fdfe6101e08060405260043610156200001557600080fd5b600061010052610100513560e01c90816301ffc9a71462002fca575080631137660a1462002f935780631815d88e1462002f645780632014f8921462002f2a578063248a9ca31462002ee7578063293b9e0b1462002e8e5780632f2ff15d1462002e3557806333ddb2ac1462002d8857806336568abe1462002d3a5780633656eec21462002cea5780634d57bab41462002cb057806352ff4c3c1462002b0c57806358e9ac0814620023d45780636896b20514620023155780636ae21bb014620022e757806370a08231146200211857806375b238fc14620020ea57806378021e7c146200201e5780637de1d4501462001e635780638d073d1b1462001dc957806391d148541462001d62578063a217fddf1462001d40578063a25983e51462001c88578063a5ab6a101462001b1f578063ba0c5c5914620018d2578063bad545bb146200182d578063bc157ac11462001603578063bc197c81146200156c578063c3439f3f146200153e578063cd3877df1462001464578063d3d23d1c14620010de578063d547741f146200107d578063e63697c81462000e27578063eb7720671462000df3578063ecee5b021462000b5f578063ed304d951462000b23578063f2384f8c14620005d0578063f23a6e611462000572578063f6aacfb11462000538578063f8c8765e14620003435763fd77c6f4146200021557600080fd5b346200033c5760203660031901126200033c57600435806101005152600360205260ff600160406101005120015416156200031a5762000254620036a1565b806101005152600360205260406101005120600381019081549060ff821680620002f5575060ff600782015416620002d95760050154620002c75760ff19166001179055610100517fbdc9a0579dc2f365c35b6a183ee5f7307d7f5b04c58c19198acba9fe16efcb039080a26101005180f35b604051630ade1a7760e01b8152600490fd5b6040516001620455d760e11b0319815260048101859052602490fd5b604051631e9d1cd160e21b8152901560048201819052156024820152604490fd5b0390fd5b60405163377da9cf60e01b815260016004820152610100516024820152604490fd5b6101005180fd5b346200033c5760803660031901126200033c57620003606200306d565b6200036a62003056565b6001600160a01b0391906044358381168082036200053357606435928584168094036200033c577ff0c57e16840df040f15088dc2f81fe391c3923bec73e23a9662efc9c229c6a0095865460ff8160401c1615966001600160401b038216801590816200052a575b60011490816200051f575b15908162000515575b50620005035767ffffffffffffffff1982166001178955620004419188620004e3575b506200041462004479565b6200041e62004479565b6200042862004479565b60016000805160206200546c833981519152556200378c565b508116620004d0575b50620004bd575b506bffffffffffffffffffffffff60a01b6101005154161761010051556200047b575b6101005180f35b68ff00000000000000001981541690557fc7f505b2f371ae2175ee4913f4499e1f2633a7b5936321eed1cdaeb6115181d2602060405160018152a18062000474565b620004c890620038bf565b508362000451565b620004db906200381d565b50856200044a565b68ffffffffffffffffff1916680100000000000000011789558962000409565b60405163f92ee8a960e01b8152600490fd5b9050158a620003e6565b303b159150620003dd565b899150620003d2565b600080fd5b346200033c5760203660031901126200033c5760043561010051526003602052602060ff6001604061010051200154166040519015158152f35b346200033c5760a03660031901126200033c576200058f6200306d565b506200059a62003056565b506084356001600160401b0381116200033c57620005bd90369060040162003255565b5060405163f23a6e6160e01b8152602090f35b346200033c5760403660031901126200033c576004356101005152600360205260ff600160406101005120015416156200031a576200060e6200370b565b600435610100515260036020526040610100512060243515801562000b16575b62000af65760ff60038201541680620002f5575060078101600160ff198254161790556004357fe59f8649642eb71b4a02565ae510c844441ad7c9d86c09dbe48bfb9d7a1482766101005161010051a2610100515b602435811062000912575b5060043561010051526004602052604061010051205415620006f6575b600801546004602052604061010051205460405191825260208201527f679dfa960cc44d02ecbd6c08ee6f63d79fa5ab9caa75e6fb8b49537fe245fe99604060043592a26101005180f35b61010051546001600160a01b0316803b156200033c576040519063a7f908ff60e01b8252600435600483015281602481610100519361010051905af180156200090457620008e9575b50600435610100515260036020526000600960406101005120828155610100516001820155826002820155610100516003820155826004820155826005820155826006820155610100516007820155826008820155015560026020526040610100512060ff19815416905561010051905b60015480831015620008de57620007c783620032b0565b60043591549060031b1c14620007e357509060010190620007b0565b60001992818401918211620008c45762000813620008056200082c93620032b0565b90549060031b1c91620032b0565b90919082549060031b91821b91600019901b1916179055565b600154918215620008aa578060089301906200084882620032b0565b909182549160031b1b191690556001555b610100805160043590819052600760205290516040812080546001600160a01b03191690557f4e822af0b988e6543be0497735a5645d614dd814a0de69a1282c98dd4816fce69080a29050620006ab565b634e487b7160e01b61010051526031600452602461010051fd5b634e487b7160e01b61010051526011600452602461010051fd5b506008915062000859565b620008f4906200319f565b610100516200033c57816200073f565b6040513d61010051823e3d90fd5b600435610100515260046020526040610100512080541562000aef576200093990620032fe565b60018060a01b0391549060031b1c1690600435610100515260066020526040610100512082600052602052600160406000200154916004356101005152600760205260018060a01b03604061010051205416803b156200033c5760405190639fc812df60e01b825282600483015281602481610100519361010051905af18015620009045762000ad4575b5060043561010051526006602052604061010051208160005260205260006002604082208281558260018201550155610100515260056020526040610100512060043561010051526020526040610100512060ff19815416905560046020526040610100512080549283600019810111620008c45762000a5062000ac892600195600019019062003314565b858060a01b0391549060031b1c166004356101005152600460205262000a9d62000a8060406101005120620032fe565b819391549060031b9160018060a01b03809116831b921b19161790565b90556004356101005152600460205262000abd604061010051206200365b565b60088501546200349b565b60088401550162000683565b62000adf906200319f565b610100516200033c5784620009c4565b506200068e565b6040516325128c9560e01b81526001600482015260646024820152604490fd5b506064602435116200062e565b346200033c5760203660031901126200033c576004356001548110156200033c5762000b51602091620032b0565b90546040519160031b1c8152f35b346200033c576020806003193601126200033c576004359081610100515260039081815260ff6001908082604061010051200154161562000dd15762000ba4620036a1565b846101005152838352836040610100512001928354938285168015908162000daf57505060ff1980951690558561010051528481528183604061010051200154161562000d8d5760405162000bf98162003166565b60028152604036838301376000805160206200542c83398151915262000c1f82620033cd565b526000805160206200540c83398151915262000c3b82620033db565b52610100518481815b62000d2b575b50501562000d0b575084908661010051525260406101005120936005850154620002c7578160078601541662000cef578401541680620002f557508201908154169055600242910155807faca655362176dac0f19f6abad5e71484df95770771d5b7f789e714e0c826e2b46101005161010051a27f64c64ca7ab916fab6a741368067628b70d8975e69483389acadd1ba7bd54c2226101005161010051a26101005180f35b6040516001620455d760e11b0319815260048101879052602490fd5b6040516362caf48760e11b81529081906200031690336004840162003401565b835181101562000d875762000d418185620033ec565b5161010051526000805160206200544c833981519152855260406101005120336000528552856040600020541662000d7c5781018162000c44565b509050848962000c4a565b62000c4a565b60405163377da9cf60e01b815260048101849052610100516024820152604490fd5b604051631e9d1cd160e21b815290151560048201529015156024820152604490fd5b60405163377da9cf60e01b815260048101839052610100516024820152604490fd5b346200033c5760403660031901126200033c57602062000e1f62000e1662003056565b60043562003606565b604051908152f35b346200033c5762000e3836620030ec565b62000e45929192620039d3565b816101005152600360205260ff6001604061010051200154166200105b57816101005152600260205260ff6040610100512054161562001042576001600160a01b038381169390338514158062000ffb575b62000fce578262000ea9838662003606565b1062000fa357821562000f9157610100515416803b156200033c57604051637921219560e11b815261010080513060048401526001600160a01b0385166024840152604483018790526064830186905260a06084840152600060a4840152905191929091839160c49183915af18015620009045762000f76575b508162000f557f2d121a16681009646109f76ebe11dc6f1f7e08294e84d8eea3dfaff6c63a6247936020938662004019565b604051908152a360016000805160206200546c833981519152556101005180f35b62000f81906200319f565b610100516200033c578462000f23565b604051635e85ae7360e01b8152600490fd5b50604051634f4bdaaf60e11b8152600481018490526001600160a01b03919091166024820152604490fd5b60405163e2517d3f60e01b81523360048201526000805160206200548c8339815191526024820152604490fd5b506000805160206200548c83398151915261010051526000805160206200544c833981519152602052604061010051203360005260205260ff604060002054161562000e97565b60405163254b7ba960e21b815260048101839052602490fd5b60405163377da9cf60e01b815261010051600482015260016024820152604490fd5b346200033c5760403660031901126200033c57620010d6600435620010a162003056565b908061010051526000805160206200544c833981519152602052620010d0600160406101005120015462003757565b62003acb565b506101005180f35b346200033c5760603660031901126200033c5760043560246044358135620011056200370b565b811562001459575b8361010051526020916002835260ff6040610100512054168015620013d4575b620013bc57811562000f915761010051546001600160a01b0394908516803b156200033c576040519063731133e960e01b82523060048301528783830152846044830152608060648301526101005160848301528160a481610100519361010051905af180156200090457620013a1575b50604051620011ad8162003182565b868152848101600988876200128e600180968187528a604082016101005181526200126460608401610100518152608085019284845260a086019485526200124660c087019661010051885260e0810198610100518a52600361010083019c8d61010051905261012084019e8f429052610100515252604061010051209e8f9251835551151591019060ff801983541691151516179055565b5160028c015551151560038b019060ff801983541691151516179055565b516004890155516005880155516006870155511515600786019060ff801983541691151516179055565b516008840155519101558054600160401b811015620013885787620008138284620012bc94018555620032b0565b86610100515260028552604061010051209060ff1982541617905560405191610f30808401928484106001600160401b03851117620013715750918391604093620044bc84398882528682015203019061010051f0801562000904577ff59fe5d1f23ae058a845dac57f5074b3168f32985784b0ad8509f3d02964916b93856101005152600784526040610100512091166bffffffffffffffffffffffff60a01b825416179055604051908152a26101005180f35b6101008051634e487b7160e01b9052604160045251fd5b82634e487b7160e01b6101005152604160045261010051fd5b620013ac906200319f565b610100516200033c57866200119e565b6040516302d8753760e21b8152600481018690528490fd5b506101005154604051634f558e7960e01b8152600481018790529084908290879082906001600160a01b03165afa908115620009045761010051916200141c575b506200112d565b90508381813d831162001451575b620014368183620031b3565b810103126200033c575180151581036200033c578662001415565b503d6200142a565b61070891506200110d565b346200033c576200147536620030c0565b6200147f620036a1565b8161010051526006602052604061010051209260018060a01b0381169384600052602052816002604060002001541062001514575060207fee2a18ee2bc0fe152d62f395feacb9dacb1e9f3fdb444b21ec9d6aadd81c6de7918361010051526006825260406101005120856000528252600260406000200162001504828254620035c2565b9055604051908152a36101005180f35b604051634f4bdaaf60e11b8152600481018490526001600160a01b03919091166024820152604490fd5b346200033c57610100513660031901126200033c5760206040516000805160206200540c8339815191528152f35b346200033c5760a03660031901126200033c57620015896200306d565b506200159462003056565b506001600160401b036044358181116200033c57620015b8903690600401620031ed565b506064358181116200033c57620015d4903690600401620031ed565b506084359081116200033c57620015f090369060040162003255565b5060405163bc197c8160e01b8152602090f35b346200033c576200161436620030ec565b919062001620620039d3565b81610100515260206003815260ff6001604061010051200154166200105b578261010051526002815260ff6040610100512054161562001814576101005154604051627eeac760e11b81526001600160a01b038481166004830181905260248301879052969216908381604481855afa8015620009045783916101005191620017dd575b5010620017b557811562000f915785331415806200176c575b62000fce57803b156200033c57604051637921219560e11b815261010080516001600160a01b0387166004840152306024840152604483018890526064830185905260a06084840152600060a4840152905191929091839160c49183915af1801562000904577f756280617abfd1bdc475830a3a4d03cea884ac63c5b517fcc23209de9ea01de39462000f559284926200175a575b508662003b50565b62001765906200319f565b8862001752565b506000805160206200548c83398151915261010051526000805160206200544c833981519152835260406101005120336101005152835260ff60406101005120541615620016bd565b604051634f4bdaaf60e11b8152600481018690526001600160a01b0385166024820152604490fd5b809250858092503d83116200180c575b620017f98183620031b3565b810103126200033c5782905188620016a4565b503d620017ed565b60405163254b7ba960e21b815260048101849052602490fd5b346200033c5760203660031901126200033c57600435610100515260036020526101406040610100512080549060ff60018201541690600281015460ff600383015416600483015460058401549060068501549260ff600787015416946009600888015497015497604051998a52151560208a0152604089015215156060880152608087015260a086015260c0850152151560e0840152610100830152610120820152f35b346200033c5760403660031901126200033c5760246004356001600160401b0382358181116200033c57366023820112156200033c5780600401359182116200033c57838101908436918460061b0101116200033c5782610100515260209160038352600160ff6001604061010051200154161562001afe57620019556200370b565b811562001aec576064821162001ad45784610100515260038452604061010051209160ff60078401541662001ab9576101005193849291905b81841062001a045750505050600501805494858311620019e75750620019d7827f6611a7e8ce2aaaec887d27a9eabf8b92aba069b12d1ab3cf9f453ab5395388399596620035c2565b9055604051908152a26101005180f35b85836044926040519263bcc85ac960e01b84526004840152820152fd5b909162001a2484968862001a1b84978787620035e0565b0135906200349b565b9562001a5862001a4062001a3a838787620035e0565b620035f1565b8962001a4e848888620035e0565b0135908b62003b50565b62001a6962001a3a828686620035e0565b897f0a2f0de55e4fa42edc9ec9715812d29cc41255fadad75cd10437161c882850748a8062001a9a868a8a620035e0565b60405191013581526001600160a01b0390941693a3019291906200198e565b6040516001620455d760e11b03198152600481018790528790fd5b604051630f7d410960e01b8152606460048201528690fd5b60405163d0e90af160e01b8152600490fd5b60405163377da9cf60e01b8152600160048201526101005181880152604490fd5b346200033c5760203660031901126200033c5761014060405162001b438162003182565b6101005181526101005160208201526101005160408201526101005160608201526101005160808201526101005160a08201526101005160c08201526101005160e08201526101009061010051828201526101209081610100519101526004356101005152600360205260406101005120916040519062001bc48262003182565b83549384835260ff60018201541660208401901515815260028201546040850190815260ff60038401541660608601901515815260048401546080870190815260058501549160a0880192835260068601549360c0890194855260ff6007880154169560e08a0196151587528a600960088a0154998b8d019a8b5201549a01998a526040519b8c5251151560208c01525160408b015251151560608a01525160808901525160a08801525160c087015251151560e086015251908401525190820152f35b346200033c5762001c9936620030c0565b62001ca3620036a1565b8062001cb0848462003606565b1062001d145760207f8e4a0a3e5f4e0b0868f3ce7f7975ec5e9ab4961d3aebffca6de5f43ae95e7c6b9183610100515260068252604061010051209460018060a01b031694856101005152825260026040610100512001620015048282546200349b565b50604051634f4bdaaf60e11b815260048101919091526001600160a01b03919091166024820152604490fd5b346200033c57610100513660031901126200033c576020604051610100518152f35b346200033c5760403660031901126200033c5762001d7f62003056565b60043561010051526000805160206200544c833981519152602052604061010051209060018060a01b03166101005152602052602060ff6040610100512054166040519015158152f35b346200033c5760203660031901126200033c57600435806101005152600360205260ff600160406101005120015416156200031a5762001e08620036a1565b806101005152600360205260036040610100512001805460ff81168015908162000daf57505060ff19169055610100517f64c64ca7ab916fab6a741368067628b70d8975e69483389acadd1ba7bd54c2229080a26101005180f35b346200033c5762001e743662003084565b929062001e80620039d3565b8161010051526020906003825260ff6001604061010051200154166200105b576001600160a01b0384811694909190338614158062001fd5575b8062001f8c575b62001f1b579062001ef887827fdc5e8cc6b36001921ea942b2d0334e09fcc347e33b47a83d9a6c5c2a521d329c9695948862003a05565b6040519687521694a460016000805160206200546c833981519152556101005180f35b6200031684604080519162001f308362003166565b6002835236908301376000805160206200548c83398151915262001f5482620033cd565b526000805160206200540c83398151915262001f7082620033db565b526040516362caf48760e11b8152918291336004840162003401565b506000805160206200540c83398151915261010051526000805160206200544c833981519152845260406101005120336101005152845260ff6040610100512054161562001ec1565b506000805160206200548c83398151915261010051526000805160206200544c833981519152845260406101005120336101005152845260ff6040610100512054161562001eba565b346200033c576020806003193601126200033c576004356101005152600481526040610100512060405190818382549182815201908192610100515284610100512090610100515b86828210620020cc5786866200207f82880383620031b3565b6040519283928184019082855251809152604084019291610100515b828110620020ab57505050500390f35b83516001600160a01b0316855286955093810193928101926001016200209b565b83546001600160a01b03168552909301926001928301920162002066565b346200033c57610100513660031901126200033c5760206040516000805160206200548c8339815191528152f35b346200033c576020806003193601126200033c57620021366200306d565b90600180546200214681620031d5565b93620021566040519586620031b3565b8185526200216482620031d5565b601f1901610100515b818110620022c2575050610100516001600160a01b03909116905b828110620021f4575050506040519180830181845284518091528160408501950191610100515b828110620021bd5785870386f35b9091929382606088620021e6849a89516040809180518452602081015160208501520151910152565b0197950193929101620021af565b928362002203829795620032b0565b90549060031b1c806101005152600687526040610100512084610100515287526040610100512081604051916200223a8362003166565b8054808452868201548b850152600290910154604084015214620022a0575060405190620022688262003166565b81526101005187820152610100516040820152620022878287620033ec565b52620022948186620033ec565b505b0194929462002188565b9050620022ae8287620033ec565b52620022bb8186620033ec565b5062002296565b8590620022d49795979493946200332d565b828288010152019593959291926200216d565b346200033c57610100513660031901126200033c5760206040516000805160206200542c8339815191528152f35b346200033c57610100513660031901126200033c5760405180600180549283815260208091018094600161010051527fb10e2d527612073b26eecdfd717e6a320cf44b4afac2b0732d9fcbe2b7fa0cf690610100515b818110620023c0575050508362002384910384620031b3565b604051928184019082855251809152604084019491610100515b828110620023ac5785870386f35b83518752958101959281019284016200239e565b82548452928401929185019185016200236b565b346200033c5760a03660031901126200033c576024356101a052604051620023fc8162003118565b610100518152610100516020820152610100516040820152610100516060820152606060808201526101005160a082015260c0610100519101526004356101005152600260205260ff6040610100512054161562002af3576004356101005152600760205260018060a01b0360406101005120541660405163b957e51560e01b8152602081600481855afa801562000904576101005160e05262002aba575b5060043561010051526003602052600260406101005120015461016052620024d660e051620024d060e0516101605162003450565b62003471565b620024ed60e051620024d060e05160243562003450565b6101a0526200250860e051620024d060e05160443562003450565b90806101a0511062002aaf575b6101a05182111562002a95575b610100516101805262002537608435620034a9565b61010051606435610100519060405163bfcad43360e01b815261010051816004818b5afa90811562000904576101005191620029c7575b5060649793959735935b8151851015620029ba576084358410156200288d576001600160a01b03620025a18684620033ec565b5116986040516101c0526378591ad560e01b6101c051528960046101c0510152610100516101c05160246101c051855afa9788156200090457610100519862002857575b6101005161012052885180156200284c5780600019810111620008c4576200261290600019018a620033ec565b51515b610140526101a0518211156200283e5762002635825b60e05190620035c2565b60c052610100515b89518110156200275d5762002653818b620033ec565b516080526020608051015160a05260a051158062002750575b6200272f575b6101a05160a05110158062002723575b62002691575b6001016200263d565b620026ae60e051620026a860c05160a051620035c2565b62003450565b9081600019810111620008c4576001916000198101620026f6575b50620026dc60805151610120516200349b565b61012052608051516101405260a05160c052905062002688565b6200270e620027189161014051906000190162003471565b610120516200349b565b610120528d620026c9565b508a60a0511062002682565b6200274760e051620024d060e0516101605162003450565b60a05262002672565b506101605115156200266c565b50959391999097506200277a60e051620026a860c0518c620035c2565b80600019810111620008c45760001981016200281b575b5061012051620027b5575b50620027aa600191620035d0565b920193959762002578565b6200281260019295620027aa9260405190620027d1826200314a565b8152610120516020820152620027e8828b620033ec565b52620027f5818a620033ec565b506200280861012051610180516200349b565b61018052620035d0565b9491506200279c565b6200270e620028339161014051906000190162003471565b610120528a62002791565b620026356101a0516200262b565b506101005162002615565b9750620028863d80610100516101c0513e62002877816101c051620031b3565b6101c051016101c05162003516565b97620025e5565b50509295509250506001915b620028a481620034a9565b94610100515b828110620029895750505060405193620028c48562003118565b600435855260208501936101a05185526040860190815260608601906101805182526080870192835260a08701941515855260c087019384526040519560208752610100870197516020880152516040870152516060860152516080850152519160e060a0850152825180955260206101208501930161010051955b8087106200295f57505083945051151560c08401525160e08301520390f35b909360206040600192828851858060a01b0381511683520151838201520195019601959062002940565b806200299860019284620033ec565b51620029a5828a620033ec565b52620029b28189620033ec565b5001620028aa565b5050929550905062002899565b90503d8061010051833e620029dd8183620031b3565b60208282810103126200033c5781516001600160401b0381116200033c57818301601f8285010112156200033c57808301519062002a1b82620031d5565b9362002a2b6040519586620031b3565b8285526020850193810160208460051b8484010101116200033c5780820160200193915b60208460051b8284010101851062002a6d575050505050886200256e565b8451926001600160a01b03841684036200033c57602081819582935201950194925062002a4f565b905062002aa860e0516101a0516200349b565b9062002522565b806101a05262002515565b6020813d60201162002aea575b8162002ad660209383620031b3565b810103126200033c575160e052816200249b565b3d915062002ac7565b602460405163254b7ba960e21b81526004356004820152fd5b346200033c576020806003193601126200033c57600435908161010051526003815260ff9060019160ff83604061010051200154161562000d8d576040519062002b568262003166565b60028252604036848401376000805160206200542c83398151915262002b7c83620033cd565b526000805160206200540c83398151915262002b9883620033db565b526101005190849082825b62002c48575b5050501562000d0b57506003908361010051525260406101005120906005820154620002c75760ff60078301541662002c2c5760ff60038301541680620002f55750810160ff1981541690556002429101557faca655362176dac0f19f6abad5e71484df95770771d5b7f789e714e0c826e2b46101005161010051a26101005180f35b6040516001620455d760e11b0319815260048101849052602490fd5b845181101562002caa5762002c5e8186620033ec565b5161010051526000805160206200544c83398151915286526040610100512033610100515286528160406101005120541662002c9d5782018262002ba3565b5050905083868062002ba9565b62002ba9565b346200033c5760203660031901126200033c5760043561010051526003602052602060ff6003604061010051200154166040519015158152f35b346200033c5760403660031901126200033c57606062002d1662002d0d62003056565b6004356200334e565b62002d3860405180926040809180518452602081015160208501520151910152565bf35b346200033c5760403660031901126200033c5762002d5762003056565b336001600160a01b0382160362002d7657620010d69060043562003acb565b60405163334bd91960e11b8152600490fd5b346200033c5762002d993662003084565b91929062002da6620039d3565b62002db0620036a1565b816101005152600360205260ff6003604061010051200154168015908162000daf57505060208162002e06857fdc5e8cc6b36001921ea942b2d0334e09fcc347e33b47a83d9a6c5c2a521d329c94888762003a05565b6040519485526001600160a01b03908116951693a460016000805160206200546c833981519152556101005180f35b346200033c5760403660031901126200033c57620010d660043562002e5962003056565b908061010051526000805160206200544c83398151915260205262002e88600160406101005120015462003757565b6200395b565b346200033c5760203660031901126200033c57600435610100515260036020526020604061010051206002825260ff604061010051205416908162002ed9575b506040519015158152f35b600591500154158262002ece565b346200033c5760203660031901126200033c5760043561010051526000805160206200544c83398151915260205260206001604061010051200154604051908152f35b346200033c5760203660031901126200033c5760043561010051526007602052602060018060a01b03604061010051205416604051908152f35b346200033c57610100513660031901126200033c5761010051546040516001600160a01b039091168152602090f35b346200033c5760203660031901126200033c5760043561010051526002602052602060ff6040610100512054166040519015158152f35b346200033c5760203660031901126200033c576004359063ffffffff60e01b82168092036200033c57602091630271189760e51b81149081156200302a575b811562003018575b5015158152f35b634aae842d60e11b1490508362003011565b9050637965db0b60e01b8114801562003045575b9062003009565b506301ffc9a760e01b81146200303e565b602435906001600160a01b03821682036200053357565b600435906001600160a01b03821682036200053357565b60809060031901126200053357600435906001600160a01b03906024358281168103620005335791604435908116810362000533579060643590565b606090600319011262000533576004356001600160a01b03811681036200053357906024359060443590565b60609060031901126200053357600435906024356001600160a01b038116810362000533579060443590565b60e081019081106001600160401b038211176200313457604052565b634e487b7160e01b600052604160045260246000fd5b604081019081106001600160401b038211176200313457604052565b606081019081106001600160401b038211176200313457604052565b61014081019081106001600160401b038211176200313457604052565b6001600160401b0381116200313457604052565b90601f801991011681019081106001600160401b038211176200313457604052565b6001600160401b038111620031345760051b60200190565b9080601f83011215620005335760209082356200320a81620031d5565b936200321a6040519586620031b3565b81855260208086019260051b8201019283116200053357602001905b82821062003245575050505090565b8135815290830190830162003236565b81601f8201121562000533578035906001600160401b0382116200313457604051926200328d601f8401601f191660200185620031b3565b828452602083830101116200053357816000926020809301838601378301015290565b600154811015620032e85760016000527fb10e2d527612073b26eecdfd717e6a320cf44b4afac2b0732d9fcbe2b7fa0cf60190600090565b634e487b7160e01b600052603260045260246000fd5b805415620032e857600052602060002090600090565b8054821015620032e85760005260206000200190600090565b604051906200333c8262003166565b60006040838281528260208201520152565b620033586200332d565b50600081815260066020526040928382209060018060a01b0316825260205282812092828151946200338a8662003166565b60028154918288526001810154602089015201548387015203620033ae5750505090565b805193509091620033bf8462003166565b835281602084015282015290565b805115620032e85760200190565b805160011015620032e85760400190565b8051821015620032e85760209160051b010190565b6001600160a01b03909116815260406020808301829052835191830182905260609092019282019160005b8281106200343b575050505090565b8351855293810193928101926001016200342c565b81156200345b570490565b634e487b7160e01b600052601260045260246000fd5b818102929181159184041417156200348557565b634e487b7160e01b600052601160045260246000fd5b919082018092116200348557565b90620034b582620031d5565b604090620034c76040519182620031b3565b8381528093620034da601f1991620031d5565b019160009060005b848110620034f1575050505050565b602090825162003501816200314a565b848152828581830152828701015201620034e2565b90602091828183031262000533578051906001600160401b03821162000533570181601f8201121562000533578051926200355184620031d5565b93604093620035646040519687620031b3565b818652828087019260061b8501019381851162000533578301915b848310620035905750505050505090565b858383031262000533578386918251620035aa816200314a565b8551815282860151838201528152019201916200357f565b919082039182116200348557565b6000198114620034855760010190565b9190811015620032e85760061b0190565b356001600160a01b0381168103620005335790565b600052600660205260406000209060018060a01b0316600052602052620036586040806000208151620036398162003166565b81548152600260018301549283602084015201549283910152620035c2565b90565b805480156200368b57600019019062003675828262003314565b81549060018060a01b039060031b1b1916905555565b634e487b7160e01b600052603160045260246000fd5b3360009081527f91d8fe36e587b1c02b80f930a15e1c8e402441ade3f4f16e2bd2fa9b5677ce1b60205260409020546000805160206200540c8339815191529060ff1615620036ed5750565b6044906040519063e2517d3f60e01b82523360048301526024820152fd5b3360009081527f01ad0a5c2995d6fc2f61c01367d1aec57c110fc8134bff838fea8fc24ba4ca0d60205260409020546000805160206200542c8339815191529060ff1615620036ed5750565b806000526000805160206200544c83398151915260205260406000203360005260205260ff6040600020541615620036ed5750565b6001600160a01b031660008181527fb7db2dd08fcb62d0c9e08c51941cae53c267786a0b75803fb7960902fc8ef97d60205260408120549091906000805160206200544c8339815191529060ff1662003818578280526020526040822081835260205260408220600160ff198254161790553391600080516020620053ec8339815191528180a4600190565b505090565b6001600160a01b031660008181527fb16e88c42fd4e48df2dd6a2eabd6bc9aec654ec170056b470819f8892cc6431c60205260408120549091906000805160206200548c833981519152906000805160206200544c8339815191529060ff16620038b9578184526020526040832082845260205260408320600160ff19825416179055600080516020620053ec833981519152339380a4600190565b50505090565b6001600160a01b031660008181527f01ad0a5c2995d6fc2f61c01367d1aec57c110fc8134bff838fea8fc24ba4ca0d60205260408120549091906000805160206200542c833981519152906000805160206200544c8339815191529060ff16620038b9578184526020526040832082845260205260408320600160ff19825416179055600080516020620053ec833981519152339380a4600190565b906000918083526000805160206200544c83398151915280602052604084209260018060a01b03169283855260205260ff60408520541615600014620038b9578184526020526040832082845260205260408320600160ff19825416179055600080516020620053ec833981519152339380a4600190565b6000805160206200546c8339815191526002815414620039f35760029055565b604051633ee5aeb560e01b8152600490fd5b939291909380600052600260205260ff604060002054161562003ab3576001600160a01b0382811690811562003aa157841562000f915786161462003a9a578262003a51868362003606565b1062003a715762003a698362003a6f95968362004019565b62003b50565b565b604051634f4bdaaf60e11b815260048101919091526001600160a01b0385166024820152604490fd5b5050509050565b6040516302154e0360e21b8152600490fd5b6024906040519063254b7ba960e21b82526004820152fd5b906000918083526000805160206200544c83398151915280602052604084209260018060a01b03169283855260205260ff604085205416600014620038b957818452602052604083208284526020526040832060ff1981541690557ff6391f5c32d9c69d2a47ea670b442974b53935d1edc7fd64eb21e047a839171b339380a4600190565b600081815260076020908152604080832054905163b957e51560e01b81529295946001600160a01b03918216949093909281600481885afa9081156200400e57879162003fd2575b506040516378591ad560e01b81528483166004820152908782602481895afa91821562003f0557889262003fa9575b508388526003602052604088209260ff6001850154161560001462003fa15762003bf782620024d0814262003450565b945b8187168a52600560205260408a20818b5260205260ff60408b2054161560001462003f7357808a52600460205260408a20805490600160401b82101562003f5f5762003c538262003c759260016002969501815562003314565b858b939293169083549060031b9160018060a01b03809116831b921b19161790565b90558288168b52600560205260408b20818c5260205260408b20600160ff198254161790556040519262003ca98462003166565b81845260208401908b825260408501928d84528d52600660205260408d20908a168d5260205260408c2093518455516001840155519101555b8151928362003d8057505050506040519362003cfe856200314a565b84526020840152813b1562003d7c5760405163233f068360e21b81526001600160a01b0391909116600482015282516024820152602090920151604483015282908290606490829084905af1801562003d715762003d5a575050565b62003d6682916200319f565b62003d6e5750565b80fd5b6040513d84823e3d90fd5b8380fd5b90919294936000199586810190811162003f4b5762003da09085620033ec565b5197899360208a01938451158062003f3b575b62003f14575b505062003dc982918a516200349b565b92510362003e86575086525060015b62003de6575b505050505050565b5191820191821162003e7257823b1562003e6e57604051630c02695760e31b81526001600160a01b03919091166004820152602481019190915282516044820152602090920151606483015282908290608490829084905af1801562003d715762003e56575b8080808062003dde565b62003e6282916200319f565b62003d6e578062003e4c565b8480fd5b634e487b7160e01b85526011600452602485fd5b6040519162003e95836200314a565b82526020820152853b1562003f105760405163233f068360e21b81526001600160a01b03851660048201528151602482015260209091015160448201528781606481838a5af1801562003f055762003eef575b5062003dd8565b62003efd909791976200319f565b953862003ee8565b6040513d8a823e3d90fd5b8780fd5b62003f2b929550816002620024d092015462003450565b825260019262003dc98262003db9565b5060ff6001820154161562003db3565b634e487b7160e01b8a52601160045260248afd5b634e487b7160e01b8c52604160045260248cfd5b5060066020526040892090861689526020526001604089200162003f998882546200349b565b905562003ce2565b889462003bf9565b62003fca9192503d808a833e62003fc18183620031b3565b81019062003516565b903862003bc7565b90506020813d60201162004005575b8162003ff060209383620031b3565b810103126200400157513862003b98565b8680fd5b3d915062003fe1565b6040513d89823e3d90fd5b9091600092828452600760205260018060a01b03604085205416916040519363b957e51560e01b8552602085600481875afa9485156200446e57869562004430575b506040516378591ad560e01b81526001600160a01b0384166004820152918683602481885afa9283156200400e57879362004410575b508187526003602052604087209160066020526040882060018060a01b0386168952602052620040c982600160408b200154620035c2565b9060ff600185015416156000146200440857620040ec88620024d0814262003450565b905b8215620042cb57895260066020526040892060018060a01b0387168a5260205281600160408b2001555b889385516000198101908111620042b757620041359087620033ec565b519860208a019182511580620042a7575b62004283575b5050518103620042025750506200416691508551620035c2565b845260015b62004178575b5050505050565b5160001981019190821162003e7257823b1562003e6e57604051630c02695760e31b81526001600160a01b03919091166004820152602481019190915282516044820152602090920151606483015282908290608490829084905af1801562003d7157620041ea575b80808062004171565b620041f682916200319f565b62003d6e5780620041e1565b60405192509062004213836200314a565b82526020820152843b15620040015760405163233f068360e21b81526001600160a01b0385166004820152815160248201526020909101516044820152868160648183895af180156200400e576200426d575b506200416b565b6200427b909691966200319f565b943862004266565b6200429a929650816002620024d092015462003450565b845260019381386200414c565b5060ff6001820154161562004146565b634e487b7160e01b8b52601160045260248bfd5b98979695949392919089895260066020526040892060018060a01b0387168a526020528860026040822082815582600182015501556005602052604089208a8a526020526040892060ff198154169055885b8a8a52600460205260408a208054821015620043f657816200433f9162003314565b905460039190911b1c6001600160a01b039081169088161462004365576001016200431d565b8a8a9b92939495969798999a52600460205260408b20805480600019810111620043e2578c926040620043a6620043c59462000a8094600019019062003314565b60018060a01b0391549060031b1c169486815260046020522062003314565b905589526004602052620043dc60408a206200365b565b62004118565b634e487b7160e01b8d52601160045260248dfd5b50509091929394959697985062004118565b8890620040ee565b620044289193503d8089833e62003fc18183620031b3565b913862004091565b9094506020813d60201162004465575b816200444f60209383620031b3565b8101031262004461575193386200405b565b8580fd5b3d915062004440565b6040513d88823e3d90fd5b60ff7ff0c57e16840df040f15088dc2f81fe391c3923bec73e23a9662efc9c229c6a005460401c1615620044a957565b604051631afcd79f60e31b8152600490fdfe60c03461011357601f610f3038819003918201601f19168301916001600160401b03831184841017610118578084926040948552833981010312610113576020815191015133156100fa5760008054336001600160a01b03198216811783556040519290916001600160a01b0316907f8be0079c531659141344cd1fd0a4f28419497f9722a3daafe3b4186f6b6457e09080a36004549060ff82166100ec575060ff191660011760045561025890818110156100e557505b60805260a052604051610e01908161012f823960805181610247015260a05181818161030501526104d30152f35b90506100b7565b62dc149f60e41b8152600490fd5b604051631e4fbdf760e01b815260006004820152602490fd5b600080fd5b634e487b7160e01b600052604160045260246000fdfe604060808152600436101561001357600080fd5b600090813560e01c806360134ab814610610578063715018a6146105b657806378591ad5146105815780638cfc1a0c146103c45780638da5cb5b1461039d5780639fc812df1461026a578063b957e51514610230578063bfcad4331461010a5763f2fde38b1461008257600080fd5b346101065760203660031901126101065761009b6106f0565b6100a3610ac9565b6001600160a01b039081169182156100ef575082546001600160a01b0319811683178455167f8be0079c531659141344cd1fd0a4f28419497f9722a3daafe3b4186f6b6457e08380a380f35b51631e4fbdf760e01b815260048101849052602490fd5b5080fd5b50903461022d578060031936011261022d5781518092600254808352846020809401600286527f405787fa12a823e0f2b7631cc41b3ba8828b3321ca811111fa75cd3aa3bb5ace92865b868282106102175750505061016b92500385610787565b83519161018f61017a846107a9565b9361018784519586610787565b8085526107a9565b8382019190601f1901368337845b86518110156101ce576001906001600160a01b036101bb828a6107e5565b51166101c782886107e5565b520161019d565b509190848483519485948186019282875251809352850193925b8281106101f757505050500390f35b83516001600160a01b0316855286955093810193928101926001016101e8565b855484526001958601958a955093019201610154565b80fd5b5034610106578160031936011261010657602090517f00000000000000000000000000000000000000000000000000000000000000008152f35b5034610106576020366003190112610106576001600160a01b0361028c6106f0565b1690610296610ac9565b6102ad826000526003602052604060002054151590565b156103875760207f5236602858fa598e0b1c0f4eab28a46d135d76a3a28731d8dca95bc52c91bc33916102df84610ce1565b5083855260018252848181206102f58154610af5565b8061034b575b50505051838152a17f00000000000000000000000000000000000000000000000000000000000000007f63d376bb675e9271b3adb34cb36d1a798dd118ca053517b25f7acd15ec5ee8cd8380a380f35b82601f8211600114610363575050555b8438806102fb565b9091808252610380601f878420940160051c840160018501610c11565b555561035b565b6024925051906206faff60ea1b82526004820152fd5b5034610106578160031936011261010657905490516001600160a01b039091168152602090f35b5034610106576060366003190112610106576103de6106f0565b8160231936011261057d576103f16107c1565b6001600160a01b03821660008181526003602052604090205490939190610566575b80519060018083018093116105525761042b836107a9565b9261043885519485610787565b808452610447601f19916107a9565b01875b8181106105305750508087905b6104f7575b5050906104c77f4c8c66c8551f3e7ed813eb3ec55ec7b27797d5a48b34e05d06b98fdf40ebab7f939251946104c184519361049685610755565b6104bb60243598898752604435968760208201526104b482856107e5565b52826107e5565b506108f1565b90610915565b815193845260208401527f000000000000000000000000000000000000000000000000000000000000000092a380f35b825181101561052b57818161050d8293866107e5565b5161051882886107e5565b5261052381876107e5565b500190610457565b61045c565b602090865161053e81610755565b8a8152828b8183015282880101520161044a565b634e487b7160e01b87526011600452602487fd5b5061057861057384610b2f565b610844565b610413565b8280fd5b5034610106576020366003190112610106576105b2906105a76105a26106f0565b61080f565b90519182918261070b565b0390f35b823461022d578060031936011261022d576105cf610ac9565b80546001600160a01b03198116825581906001600160a01b03167f8be0079c531659141344cd1fd0a4f28419497f9722a3daafe3b4186f6b6457e08280a380f35b50346101065760803660031901126101065761062a6106f0565b9060243590806043193601126106ec576106426107c1565b6001600160a01b0384166000818152600360205260409020549094906106d8575b81518410156106c057906104c783926104c17f0953de6dfd7eb23c71ebe51a20db652910a836a763478811242e3e04d501b7599551936106a285610755565b6104bb60443598898752606435968760208201526104b482856107e5565b825163112517f360e21b815260048101859052602490fd5b90506106e661057385610b2f565b90610663565b8380fd5b600435906001600160a01b038216820361070657565b600080fd5b60208082019080835283518092528060408094019401926000905b83821061073557505050505090565b845180518752830151868401529485019493820193600190910190610726565b6040810190811067ffffffffffffffff82111761077157604052565b634e487b7160e01b600052604160045260246000fd5b90601f8019910116810190811067ffffffffffffffff82111761077157604052565b67ffffffffffffffff81116107715760051b60200190565b6040516020810181811067ffffffffffffffff821117610771576040526000815290565b80518210156107f95760209160051b010190565b634e487b7160e01b600052603260045260246000fd5b6001600160a01b03166000818152600360205260409020541561083b5761057361083891610b2f565b90565b506108386107c1565b80519060209181019082820190838184031261070657838101519067ffffffffffffffff821161070657019281603f85011215610706578084015160409361088b826107a9565b9561089886519788610787565b828752858488019360061b820101948511610706578501915b8483106108c15750505050505090565b858484840301126107065783869182516108da81610755565b8551815282860151838201528152019201916108b1565b610838610907916040519283916020830161070b565b03601f198101835282610787565b6001600160a01b03169190610928610ac9565b61093f836000526003602052604060002054151590565b610a9a5761094c83610c5f565b507f3a6c576d3a0788c605bd39cfac04db1e53b67f30a383f05ef356fe866e7203636020604051858152a15b6000928352600192602060018152604082209280519267ffffffffffffffff8411610a86576109a78554610af5565b601f8111610a4d575b5082601f85116001146109ea57508394959650926109df575b50508160011b916000199060031b1c1916179055565b0151905038806109c9565b858252808220601f198616989094939291905b898310610a365750505083600195969710610a1d575b505050811b019055565b015160001960f88460031b161c19169055388080610a13565b8385015186559485019493810193918101916109fd565b610a7690868352848320601f870160051c810191868810610a7c575b601f0160051c0190610c11565b386109b0565b9091508190610a69565b634e487b7160e01b81526041600452602490fd5b7f3127c1223c3e044893fdbef142783b113140774723e7a54693844985a4f8fc066020604051858152a1610978565b6000546001600160a01b03163303610add57565b60405163118cdaa760e01b8152336004820152602490fd5b90600182811c92168015610b25575b6020831014610b0f57565b634e487b7160e01b600052602260045260246000fd5b91607f1691610b04565b610b46816000526003602052604060002054151590565b15610bfa576000908152600160209060018252604083209260405193849282825492610b7184610af5565b8087529360018116908115610bd65750600114610b99575b5050505061083892500382610787565b815285812095935091905b818310610bbe575050610838935082010138808080610b89565b85548784018501529485019486945091830191610ba4565b935050505061083894925060ff191682840152151560051b82010138808080610b89565b602490604051906206faff60ea1b82526004820152fd5b818110610c1c575050565b60008155600101610c11565b6002548110156107f95760026000527f405787fa12a823e0f2b7631cc41b3ba8828b3321ca811111fa75cd3aa3bb5ace0190600090565b600081815260036020526040812054610cdc5760025468010000000000000000811015610cc8579082610cb4610c9d84600160409601600255610c28565b819391549060031b91821b91600019901b19161790565b905560025492815260036020522055600190565b634e487b7160e01b82526041600452602482fd5b905090565b6000818152600360205260408120549091908015610dc65760001990808201818111610db25760025490838201918211610d9e57818103610d6a575b5050506002548015610d5657810190610d3582610c28565b909182549160031b1b19169055600255815260036020526040812055600190565b634e487b7160e01b84526031600452602484fd5b610d88610d79610c9d93610c28565b90549060031b1c928392610c28565b9055845260036020526040842055388080610d1d565b634e487b7160e01b86526011600452602486fd5b634e487b7160e01b85526011600452602485fd5b50509056fea2646970667358221220eefebb496fe05ad927593d4d6297b139568122c4fbce1c7868451f6ca98f5a4564736f6c634300081800332f8788117e7eff1d82e926ec794901d17c78024a50270940304540a733656f0d0ea61da3a8a09ad801432653699f8c1860b1ae9d2ea4a141fadfd63227717bc8e4224a9d862eb61445087219a10cb28481aeb3456a8198060c513a5159ccd7df02dd7bc7dec4dceedda775e58dd541e08a116c6c53815c0bd028192f7b6268009b779b17422d0df92223018b32b4d1fa46e071723d6817e2486d003becc55f00a49807205ce4d355092ef5a8a18f56e8913cf4a201fbe287825b095693c21775a264697066735822122059ac1352b621216373f0f1906e99c36397162c22cecc92e3373b6d9a2321a67564736f6c63430008180033",
  "devdoc": {
    "author": "Patrick Fischer (Pathin) > https://pathin.me",
    "custom:security-contact": "security@gildi.io",
    "errors": {
      "AccessControlBadConfirmation()": [
        {
          "details": "The caller of a function is not the expected one. NOTE: Don't confuse with {AccessControlUnauthorizedAccount}."
        }
      ],
      "AccessControlUnauthorizedAccount(address,bytes32)": [
        {
          "details": "The `account` is missing a role."
        }
      ],
      "InvalidInitialization()": [
        {
          "details": "The contract is already initialized."
        }
      ],
      "NotInitializing()": [
        {
          "details": "The contract is not initializing."
        }
      ],
      "ReentrancyGuardReentrantCall()": [
        {
          "details": "Unauthorized reentrant call."
        }
      ]
    },
    "events": {
      "Initialized(uint64)": {
        "details": "Triggered when the contract has been initialized or reinitialized."
      },
      "RoleAdminChanged(bytes32,bytes32,bytes32)": {
        "details": "Emitted when `newAdminRole` is set as ``role``'s admin role, replacing `previousAdminRole` `DEFAULT_ADMIN_ROLE` is the starting admin for all roles, despite {RoleAdminChanged} not being emitted to signal this."
      },
      "RoleGranted(bytes32,address,address)": {
        "details": "Emitted when `account` is granted `role`. `sender` is the account that originated the contract call. This account bears the admin role (for the granted role). Expected in cases where the role was granted using the internal {AccessControl-_grantRole}."
      },
      "RoleRevoked(bytes32,address,address)": {
        "details": "Emitted when `account` is revoked `role`. `sender` is the account that originated the contract call:   - if using `revokeRole`, it is the admin role bearer   - if using `renounceRole`, it is the role bearer (i.e. `account`)"
      }
    },
    "kind": "dev",
    "methods": {
      "assignShares(uint256,(address,uint256)[])": {
        "details": "The shares are assigned in a batch to prevent gas limit issues.",
        "params": {
          "_releaseId": "The ID of the Royalty Rights Token / release.",
          "_sharesBatch": "The shares to assign."
        }
      },
      "balanceOf(address)": {
        "params": {
          "_account": "The account to fetch the balance for."
        }
      },
      "balanceOf(uint256,address)": {
        "params": {
          "_account": "The account to fetch the balance for.",
          "_tokenId": "The token ID."
        }
      },
      "batchDeleteRelease(uint256,uint256)": {
        "details": "Batch deletion is used to prevent gas limit issues.",
        "params": {
          "_batchSizeOwners": "The number of owners to delete in a batch.",
          "_releaseId": "The ID of the Royalty Rights Token / release."
        }
      },
      "cancelInitialSale(uint256)": {
        "params": {
          "_releaseId": "The ID of the Royalty Rights Token / release."
        }
      },
      "constructor": {
        "custom:oz-upgrades-unsafe-allow": "constructor"
      },
      "createNewRelease(uint256,uint256,uint256)": {
        "params": {
          "_amount": "The amount of the token.",
          "_ownershipTrackingTimePeriod": "The time period in which we aggregate the shares owned by a user.",
          "_releaseId": "The ID of the Royalty Rights Token / release."
        }
      },
      "deposit(uint256,address,uint256)": {
        "params": {
          "_account": "The account to deposit the tokens to.",
          "_amount": "The amount of tokens to deposit.",
          "_tokenId": "The ID of the Royalty Rights Token / release."
        }
      },
      "endInitialSale(uint256)": {
        "params": {
          "_releaseId": "The ID of the Royalty Rights Token / release."
        }
      },
      "fetchSharesInPeriod(uint256,uint256,uint256,uint256,uint256)": {
        "params": {
          "_cursor": "The cursor for pagination.",
          "_end": "The end timestamp (exclusive).",
          "_limit": "The limit for pagination.",
          "_releaseId": "The release ID.",
          "_start": "The start timestamp."
        }
      },
      "getAllReleaseIds()": {
        "returns": {
          "_0": "An array of all the release IDs."
        }
      },
      "getAvailableBalance(uint256,address)": {
        "params": {
          "_account": "The account to fetch the balance for.",
          "_tokenId": "The token ID."
        },
        "returns": {
          "_0": "The available balance of the user for the token."
        }
      },
      "getReleaseById(uint256)": {
        "params": {
          "_releaseId": "The release ID."
        },
        "returns": {
          "_0": "The release."
        }
      },
      "getRoleAdmin(bytes32)": {
        "details": "Returns the admin role that controls `role`. See {grantRole} and {revokeRole}. To change a role's admin, use {_setRoleAdmin}."
      },
      "grantRole(bytes32,address)": {
        "details": "Grants `role` to `account`. If `account` had not been already granted `role`, emits a {RoleGranted} event. Requirements: - the caller must have ``role``'s admin role. May emit a {RoleGranted} event."
      },
      "hasRole(bytes32,address)": {
        "details": "Returns `true` if `account` has been granted `role`."
      },
      "initialize(address,address,address,address)": {
        "params": {
          "_defaultAdmin": "The default admin.",
          "_initialAdmin": "The initial admin.",
          "_initialReleaseManager": "The initial release manager.",
          "_rwaToken": "The RWA token contract."
        }
      },
      "isInInitialSale(uint256)": {
        "params": {
          "_releaseId": "The release ID."
        },
        "returns": {
          "_0": "True if the release is in the initial sale, false otherwise."
        }
      },
      "isLocked(uint256)": {
        "params": {
          "_releaseId": "The release ID."
        },
        "returns": {
          "_0": "True if the release is locked, false otherwise."
        }
      },
      "lockTokens(address,uint256,uint256)": {
        "params": {
          "_account": "The account to lock the tokens for.",
          "_amountToLock": "The amount of tokens to lock.",
          "_tokenId": "The ID of the Royalty Rights Token / release."
        }
      },
      "ownersOfToken(uint256)": {
        "returns": {
          "_0": "The token owners."
        }
      },
      "releaseExists(uint256)": {
        "params": {
          "_releaseId": "The ID of the Royalty Rights Token / release."
        },
        "returns": {
          "_0": "True if the release exists, false otherwise."
        }
      },
      "renounceRole(bytes32,address)": {
        "details": "Revokes `role` from the calling account. Roles are often managed via {grantRole} and {revokeRole}: this function's purpose is to provide a mechanism for accounts to lose their privileges if they are compromised (such as when a trusted device is misplaced). If the calling account had been revoked `role`, emits a {RoleRevoked} event. Requirements: - the caller must be `callerConfirmation`. May emit a {RoleRevoked} event."
      },
      "revokeRole(bytes32,address)": {
        "details": "Revokes `role` from `account`. If `account` had been granted `role`, emits a {RoleRevoked} event. Requirements: - the caller must have ``role``'s admin role. May emit a {RoleRevoked} event."
      },
      "startInitialSale(uint256)": {
        "params": {
          "_releaseId": "The ID of the Royalty Rights Token / release."
        }
      },
      "supportsInterface(bytes4)": {
        "details": "Returns true if this contract implements the interface defined by `interfaceId`. See the corresponding https://eips.ethereum.org/EIPS/eip-165#how-interfaces-are-identified[ERC section] to learn more about how these ids are created. This function call must use less than 30 000 gas."
      },
      "transferOwnership(uint256,address,address,uint256)": {
        "params": {
          "_amount": "The amount of shares to transfer.",
          "_from": "The address of the current owner.",
          "_to": "The address of the new owner.",
          "_tokenId": "The ID of the Royalty Rights Token / release."
        }
      },
      "transferOwnershipInitialSale(uint256,address,address,uint256)": {
        "params": {
          "_amount": "The amount of shares to transfer.",
          "_from": "The address of the current owner.",
          "_to": "The address of the new owner.",
          "_tokenId": "The ID of the Royalty Rights Token / release."
        }
      },
      "unlockRelease(uint256)": {
        "params": {
          "_releaseId": "The ID of the Royalty Rights Token / release."
        }
      },
      "unlockTokens(address,uint256,uint256)": {
        "params": {
          "_account": "The account to unlock the tokens for.",
          "_amountToUnlock": "The amount of tokens to unlock.",
          "_tokenId": "The ID of the Royalty Rights Token / release."
        }
      },
      "withdraw(uint256,address,uint256)": {
        "params": {
          "_account": "The account to withdraw the tokens from.",
          "_amount": "The amount of tokens to withdraw.",
          "_tokenId": "The ID of the Royalty Rights Token / release."
        }
      }
    },
    "title": "GildiManager",
    "version": 1
  },
  "userdoc": {
    "errors": {
      "AccessControlUnauthorizedAccountAny(address,bytes32[])": [
        {
          "notice": "Throws if the caller does not have any of the required roles."
        }
      ]
    },
    "kind": "user",
    "methods": {
      "ADMIN_ROLE()": {
        "notice": "A role for the admin."
      },
      "MARKETPLACE_ROLE()": {
        "notice": "A role for marketplace contracts."
      },
      "RELEASE_MANAGER_ROLE()": {
        "notice": "A role that allows the contract to manage releases."
      },
      "assignShares(uint256,(address,uint256)[])": {
        "notice": "Assigns the user shares to a royalty rights release in a batch operation."
      },
      "balanceOf(address)": {
        "notice": "Fetches the balance of a user for all tokens."
      },
      "balanceOf(uint256,address)": {
        "notice": "Fetches the balance of a user for a specific token."
      },
      "batchDeleteRelease(uint256,uint256)": {
        "notice": "Deletes a release in batches."
      },
      "cancelInitialSale(uint256)": {
        "notice": "Cancels the initial sale of a release."
      },
      "createNewRelease(uint256,uint256,uint256)": {
        "notice": "Create a new release."
      },
      "deposit(uint256,address,uint256)": {
        "notice": "Deposits royalty rights tokens into the manager."
      },
      "endInitialSale(uint256)": {
        "notice": "Ends the initial sale of a release."
      },
      "fetchSharesInPeriod(uint256,uint256,uint256,uint256,uint256)": {
        "notice": "Fetch the shares of a release owned by a user in a specific time period paginated."
      },
      "getAllReleaseIds()": {
        "notice": "Fetches all the release IDs."
      },
      "getAvailableBalance(uint256,address)": {
        "notice": "Fetches the available balance of a user for a specific token."
      },
      "getReleaseById(uint256)": {
        "notice": "Gets a release by its ID."
      },
      "gildiToken()": {
        "notice": "The Gildi token contract."
      },
      "initialize(address,address,address,address)": {
        "notice": "Initialize the contract."
      },
      "isFullyAssigned(uint256)": {
        "notice": "Checks if the release is fully assigned."
      },
      "isInInitialSale(uint256)": {
        "notice": "Returns if the release is in the initial sale."
      },
      "isLocked(uint256)": {
        "notice": "Checks if the release is locked."
      },
      "lockTokens(address,uint256,uint256)": {
        "notice": "Locks tokens for a user."
      },
      "ownersOfToken(uint256)": {
        "notice": "Get the owners of a token."
      },
      "releaseExists(uint256)": {
        "notice": "Check if a release exists."
      },
      "releaseOwnershipStorages(uint256)": {
        "notice": "Mapping of ownership storages."
      },
      "rwaReleaseIds(uint256)": {
        "notice": "An array of releases."
      },
      "rwaReleases(uint256)": {
        "notice": "The RWA releases."
      },
      "startInitialSale(uint256)": {
        "notice": "Starts the initial sale of a release."
      },
      "transferOwnership(uint256,address,address,uint256)": {
        "notice": "Transfers ownership of a release's shares to another user."
      },
      "transferOwnershipInitialSale(uint256,address,address,uint256)": {
        "notice": "Transfers ownership of a release's shares to another user during the initial sale."
      },
      "unlockRelease(uint256)": {
        "notice": "Unlocks a release."
      },
      "unlockTokens(address,uint256,uint256)": {
        "notice": "Unlocks tokens for a user."
      },
      "withdraw(uint256,address,uint256)": {
        "notice": "Withdraws royalty rights tokens from the manager."
      }
    },
    "notice": "A contract which tracks ownership of ERC1155 RWAs and allows for the transfer of ownership.",
    "version": 1
  },
  "storageLayout": {
    "storage": [
      {
        "astId": 26776,
        "contract": "contracts/manager/GildiManager.sol:GildiManager",
        "label": "gildiToken",
        "offset": 0,
        "slot": "0",
        "type": "t_contract(IGildiToken)23693"
      },
      {
        "astId": 26780,
        "contract": "contracts/manager/GildiManager.sol:GildiManager",
        "label": "rwaReleaseIds",
        "offset": 0,
        "slot": "1",
        "type": "t_array(t_uint256)dyn_storage"
      },
      {
        "astId": 26785,
        "contract": "contracts/manager/GildiManager.sol:GildiManager",
        "label": "existingReleases",
        "offset": 0,
        "slot": "2",
        "type": "t_mapping(t_uint256,t_bool)"
      },
      {
        "astId": 26791,
        "contract": "contracts/manager/GildiManager.sol:GildiManager",
        "label": "rwaReleases",
        "offset": 0,
        "slot": "3",
        "type": "t_mapping(t_uint256,t_struct(RWARelease)22137_storage)"
      },
      {
        "astId": 26797,
        "contract": "contracts/manager/GildiManager.sol:GildiManager",
        "label": "tokenOwners",
        "offset": 0,
        "slot": "4",
        "type": "t_mapping(t_uint256,t_array(t_address)dyn_storage)"
      },
      {
        "astId": 26804,
        "contract": "contracts/manager/GildiManager.sol:GildiManager",
        "label": "isTokenOwner",
        "offset": 0,
        "slot": "5",
        "type": "t_mapping(t_address,t_mapping(t_uint256,t_bool))"
      },
      {
        "astId": 26812,
        "contract": "contracts/manager/GildiManager.sol:GildiManager",
        "label": "userTokenBalance",
        "offset": 0,
        "slot": "6",
        "type": "t_mapping(t_uint256,t_mapping(t_address,t_struct(TokenBalance)22105_storage))"
      },
      {
        "astId": 26818,
        "contract": "contracts/manager/GildiManager.sol:GildiManager",
        "label": "releaseOwnershipStorages",
        "offset": 0,
        "slot": "7",
        "type": "t_mapping(t_uint256,t_contract(GildiManagerOwnershipStorage)29808)"
      }
    ],
    "types": {
      "t_address": {
        "encoding": "inplace",
        "label": "address",
        "numberOfBytes": "20"
      },
      "t_array(t_address)dyn_storage": {
        "base": "t_address",
        "encoding": "dynamic_array",
        "label": "address[]",
        "numberOfBytes": "32"
      },
      "t_array(t_uint256)dyn_storage": {
        "base": "t_uint256",
        "encoding": "dynamic_array",
        "label": "uint256[]",
        "numberOfBytes": "32"
      },
      "t_bool": {
        "encoding": "inplace",
        "label": "bool",
        "numberOfBytes": "1"
      },
      "t_contract(GildiManagerOwnershipStorage)29808": {
        "encoding": "inplace",
        "label": "contract GildiManagerOwnershipStorage",
        "numberOfBytes": "20"
      },
      "t_contract(IGildiToken)23693": {
        "encoding": "inplace",
        "label": "contract IGildiToken",
        "numberOfBytes": "20"
      },
      "t_mapping(t_address,t_mapping(t_uint256,t_bool))": {
        "encoding": "mapping",
        "key": "t_address",
        "label": "mapping(address => mapping(uint256 => bool))",
        "numberOfBytes": "32",
        "value": "t_mapping(t_uint256,t_bool)"
      },
      "t_mapping(t_address,t_struct(TokenBalance)22105_storage)": {
        "encoding": "mapping",
        "key": "t_address",
        "label": "mapping(address => struct IGildiManager.TokenBalance)",
        "numberOfBytes": "32",
        "value": "t_struct(TokenBalance)22105_storage"
      },
      "t_mapping(t_uint256,t_array(t_address)dyn_storage)": {
        "encoding": "mapping",
        "key": "t_uint256",
        "label": "mapping(uint256 => address[])",
        "numberOfBytes": "32",
        "value": "t_array(t_address)dyn_storage"
      },
      "t_mapping(t_uint256,t_bool)": {
        "encoding": "mapping",
        "key": "t_uint256",
        "label": "mapping(uint256 => bool)",
        "numberOfBytes": "32",
        "value": "t_bool"
      },
      "t_mapping(t_uint256,t_contract(GildiManagerOwnershipStorage)29808)": {
        "encoding": "mapping",
        "key": "t_uint256",
        "label": "mapping(uint256 => contract GildiManagerOwnershipStorage)",
        "numberOfBytes": "32",
        "value": "t_contract(GildiManagerOwnershipStorage)29808"
      },
      "t_mapping(t_uint256,t_mapping(t_address,t_struct(TokenBalance)22105_storage))": {
        "encoding": "mapping",
        "key": "t_uint256",
        "label": "mapping(uint256 => mapping(address => struct IGildiManager.TokenBalance))",
        "numberOfBytes": "32",
        "value": "t_mapping(t_address,t_struct(TokenBalance)22105_storage)"
      },
      "t_mapping(t_uint256,t_struct(RWARelease)22137_storage)": {
        "encoding": "mapping",
        "key": "t_uint256",
        "label": "mapping(uint256 => struct IGildiManager.RWARelease)",
        "numberOfBytes": "32",
        "value": "t_struct(RWARelease)22137_storage"
      },
      "t_struct(RWARelease)22137_storage": {
        "encoding": "inplace",
        "label": "struct IGildiManager.RWARelease",
        "members": [
          {
            "astId": 22109,
            "contract": "contracts/manager/GildiManager.sol:GildiManager",
            "label": "tokenId",
            "offset": 0,
            "slot": "0",
            "type": "t_uint256"
          },
          {
            "astId": 22112,
            "contract": "contracts/manager/GildiManager.sol:GildiManager",
            "label": "locked",
            "offset": 0,
            "slot": "1",
            "type": "t_bool"
          },
          {
            "astId": 22115,
            "contract": "contracts/manager/GildiManager.sol:GildiManager",
            "label": "unlockedAt",
            "offset": 0,
            "slot": "2",
            "type": "t_uint256"
          },
          {
            "astId": 22118,
            "contract": "contracts/manager/GildiManager.sol:GildiManager",
            "label": "inInitialSale",
            "offset": 0,
            "slot": "3",
            "type": "t_bool"
          },
          {
            "astId": 22121,
            "contract": "contracts/manager/GildiManager.sol:GildiManager",
            "label": "totalShares",
            "offset": 0,
            "slot": "4",
            "type": "t_uint256"
          },
          {
            "astId": 22124,
            "contract": "contracts/manager/GildiManager.sol:GildiManager",
            "label": "unassignedShares",
            "offset": 0,
            "slot": "5",
            "type": "t_uint256"
          },
          {
            "astId": 22127,
            "contract": "contracts/manager/GildiManager.sol:GildiManager",
            "label": "burnedShares",
            "offset": 0,
            "slot": "6",
            "type": "t_uint256"
          },
          {
            "astId": 22130,
            "contract": "contracts/manager/GildiManager.sol:GildiManager",
            "label": "deleting",
            "offset": 0,
            "slot": "7",
            "type": "t_bool"
          },
          {
            "astId": 22133,
            "contract": "contracts/manager/GildiManager.sol:GildiManager",
            "label": "deletedShares",
            "offset": 0,
            "slot": "8",
            "type": "t_uint256"
          },
          {
            "astId": 22136,
            "contract": "contracts/manager/GildiManager.sol:GildiManager",
            "label": "createdAt",
            "offset": 0,
            "slot": "9",
            "type": "t_uint256"
          }
        ],
        "numberOfBytes": "320"
      },
      "t_struct(TokenBalance)22105_storage": {
        "encoding": "inplace",
        "label": "struct IGildiManager.TokenBalance",
        "members": [
          {
            "astId": 22100,
            "contract": "contracts/manager/GildiManager.sol:GildiManager",
            "label": "tokenId",
            "offset": 0,
            "slot": "0",
            "type": "t_uint256"
          },
          {
            "astId": 22102,
            "contract": "contracts/manager/GildiManager.sol:GildiManager",
            "label": "amount",
            "offset": 0,
            "slot": "1",
            "type": "t_uint256"
          },
          {
            "astId": 22104,
            "contract": "contracts/manager/GildiManager.sol:GildiManager",
            "label": "lockedAmount",
            "offset": 0,
            "slot": "2",
            "type": "t_uint256"
          }
        ],
        "numberOfBytes": "96"
      },
      "t_uint256": {
        "encoding": "inplace",
        "label": "uint256",
        "numberOfBytes": "32"
      }
    }
  }
}