{
  "address": "0x4e11F1AC807BC3a80A8DaC0aA6636f79f72891A8",
  "abi": [
    {
      "inputs": [],
      "stateMutability": "nonpayable",
      "type": "constructor"
    },
    {
      "inputs": [],
      "name": "AccessControlBadConfirmation",
      "type": "error"
    },
    {
      "inputs": [
        {
          "internalType": "address",
          "name": "account",
          "type": "address"
        },
        {
          "internalType": "bytes32",
          "name": "neededRole",
          "type": "bytes32"
        }
      ],
      "name": "AccessControlUnauthorizedAccount",
      "type": "error"
    },
    {
      "inputs": [
        {
          "internalType": "uint256",
          "name": "assetId",
          "type": "uint256"
        }
      ],
      "name": "AssetNotFound",
      "type": "error"
    },
    {
      "inputs": [],
      "name": "IndexOutOfBounds",
      "type": "error"
    },
    {
      "inputs": [],
      "name": "InvalidInitialization",
      "type": "error"
    },
    {
      "inputs": [],
      "name": "InvalidPairId",
      "type": "error"
    },
    {
      "inputs": [],
      "name": "InvalidSymbol",
      "type": "error"
    },
    {
      "inputs": [],
      "name": "InvalidSymbolLength",
      "type": "error"
    },
    {
      "inputs": [],
      "name": "NotAdmin",
      "type": "error"
    },
    {
      "inputs": [],
      "name": "NotInitializing",
      "type": "error"
    },
    {
      "inputs": [],
      "name": "PairNotFound",
      "type": "error"
    },
    {
      "inputs": [],
      "name": "ResolverAddressZero",
      "type": "error"
    },
    {
      "inputs": [],
      "name": "SymbolTaken",
      "type": "error"
    },
    {
      "anonymous": false,
      "inputs": [
        {
          "indexed": false,
          "internalType": "uint256",
          "name": "assetId",
          "type": "uint256"
        },
        {
          "indexed": false,
          "internalType": "string",
          "name": "symbol",
          "type": "string"
        },
        {
          "indexed": false,
          "internalType": "string",
          "name": "name",
          "type": "string"
        }
      ],
      "name": "AssetDeleted",
      "type": "event"
    },
    {
      "anonymous": false,
      "inputs": [
        {
          "indexed": false,
          "internalType": "uint64",
          "name": "version",
          "type": "uint64"
        }
      ],
      "name": "Initialized",
      "type": "event"
    },
    {
      "anonymous": false,
      "inputs": [
        {
          "indexed": false,
          "internalType": "bytes32",
          "name": "pairId",
          "type": "bytes32"
        },
        {
          "indexed": false,
          "internalType": "uint256",
          "name": "baseAssetId",
          "type": "uint256"
        },
        {
          "indexed": false,
          "internalType": "uint256",
          "name": "quoteAssetId",
          "type": "uint256"
        }
      ],
      "name": "PairDeleted",
      "type": "event"
    },
    {
      "anonymous": false,
      "inputs": [
        {
          "indexed": false,
          "internalType": "string",
          "name": "baseAsset",
          "type": "string"
        },
        {
          "indexed": false,
          "internalType": "string",
          "name": "quoteAsset",
          "type": "string"
        },
        {
          "indexed": true,
          "internalType": "address",
          "name": "resolver",
          "type": "address"
        }
      ],
      "name": "ResolverAdded",
      "type": "event"
    },
    {
      "anonymous": false,
      "inputs": [
        {
          "indexed": true,
          "internalType": "bytes32",
          "name": "role",
          "type": "bytes32"
        },
        {
          "indexed": true,
          "internalType": "bytes32",
          "name": "previousAdminRole",
          "type": "bytes32"
        },
        {
          "indexed": true,
          "internalType": "bytes32",
          "name": "newAdminRole",
          "type": "bytes32"
        }
      ],
      "name": "RoleAdminChanged",
      "type": "event"
    },
    {
      "anonymous": false,
      "inputs": [
        {
          "indexed": true,
          "internalType": "bytes32",
          "name": "role",
          "type": "bytes32"
        },
        {
          "indexed": true,
          "internalType": "address",
          "name": "account",
          "type": "address"
        },
        {
          "indexed": true,
          "internalType": "address",
          "name": "sender",
          "type": "address"
        }
      ],
      "name": "RoleGranted",
      "type": "event"
    },
    {
      "anonymous": false,
      "inputs": [
        {
          "indexed": true,
          "internalType": "bytes32",
          "name": "role",
          "type": "bytes32"
        },
        {
          "indexed": true,
          "internalType": "address",
          "name": "account",
          "type": "address"
        },
        {
          "indexed": true,
          "internalType": "address",
          "name": "sender",
          "type": "address"
        }
      ],
      "name": "RoleRevoked",
      "type": "event"
    },
    {
      "inputs": [],
      "name": "ADMIN_ROLE",
      "outputs": [
        {
          "internalType": "bytes32",
          "name": "",
          "type": "bytes32"
        }
      ],
      "stateMutability": "view",
      "type": "function"
    },
    {
      "inputs": [],
      "name": "DEFAULT_ADMIN_ROLE",
      "outputs": [
        {
          "internalType": "bytes32",
          "name": "",
          "type": "bytes32"
        }
      ],
      "stateMutability": "view",
      "type": "function"
    },
    {
      "inputs": [
        {
          "internalType": "string",
          "name": "_symbol",
          "type": "string"
        },
        {
          "internalType": "string",
          "name": "_name",
          "type": "string"
        }
      ],
      "name": "addAsset",
      "outputs": [
        {
          "internalType": "uint256",
          "name": "",
          "type": "uint256"
        }
      ],
      "stateMutability": "nonpayable",
      "type": "function"
    },
    {
      "inputs": [
        {
          "internalType": "uint256",
          "name": "_baseAssetId",
          "type": "uint256"
        },
        {
          "internalType": "uint256",
          "name": "_quoteAssetId",
          "type": "uint256"
        },
        {
          "internalType": "contract IGildiPriceResolver",
          "name": "_resolver",
          "type": "address"
        }
      ],
      "name": "addPair",
      "outputs": [],
      "stateMutability": "nonpayable",
      "type": "function"
    },
    {
      "inputs": [
        {
          "internalType": "uint256",
          "name": "_assetId",
          "type": "uint256"
        }
      ],
      "name": "deleteAsset",
      "outputs": [],
      "stateMutability": "nonpayable",
      "type": "function"
    },
    {
      "inputs": [
        {
          "internalType": "bytes32",
          "name": "_pairId",
          "type": "bytes32"
        }
      ],
      "name": "deletePair",
      "outputs": [],
      "stateMutability": "nonpayable",
      "type": "function"
    },
    {
      "inputs": [
        {
          "internalType": "uint256",
          "name": "_assetId",
          "type": "uint256"
        }
      ],
      "name": "getAssetById",
      "outputs": [
        {
          "components": [
            {
              "internalType": "uint256",
              "name": "id",
              "type": "uint256"
            },
            {
              "internalType": "string",
              "name": "symbol",
              "type": "string"
            },
            {
              "internalType": "string",
              "name": "name",
              "type": "string"
            }
          ],
          "internalType": "struct IGildiPriceOracle.Asset",
          "name": "",
          "type": "tuple"
        }
      ],
      "stateMutability": "view",
      "type": "function"
    },
    {
      "inputs": [],
      "name": "getAssets",
      "outputs": [
        {
          "components": [
            {
              "internalType": "uint256",
              "name": "id",
              "type": "uint256"
            },
            {
              "internalType": "string",
              "name": "symbol",
              "type": "string"
            },
            {
              "internalType": "string",
              "name": "name",
              "type": "string"
            }
          ],
          "internalType": "struct IGildiPriceOracle.Asset[]",
          "name": "",
          "type": "tuple[]"
        }
      ],
      "stateMutability": "view",
      "type": "function"
    },
    {
      "inputs": [],
      "name": "getPairs",
      "outputs": [
        {
          "components": [
            {
              "internalType": "bytes32",
              "name": "pairId",
              "type": "bytes32"
            },
            {
              "components": [
                {
                  "internalType": "uint256",
                  "name": "id",
                  "type": "uint256"
                },
                {
                  "internalType": "string",
                  "name": "symbol",
                  "type": "string"
                },
                {
                  "internalType": "string",
                  "name": "name",
                  "type": "string"
                }
              ],
              "internalType": "struct IGildiPriceOracle.Asset",
              "name": "baseAsset",
              "type": "tuple"
            },
            {
              "components": [
                {
                  "internalType": "uint256",
                  "name": "id",
                  "type": "uint256"
                },
                {
                  "internalType": "string",
                  "name": "symbol",
                  "type": "string"
                },
                {
                  "internalType": "string",
                  "name": "name",
                  "type": "string"
                }
              ],
              "internalType": "struct IGildiPriceOracle.Asset",
              "name": "quoteAsset",
              "type": "tuple"
            }
          ],
          "internalType": "struct IGildiPriceOracle.PairInfo[]",
          "name": "",
          "type": "tuple[]"
        }
      ],
      "stateMutability": "view",
      "type": "function"
    },
    {
      "inputs": [
        {
          "internalType": "uint256",
          "name": "_quoteAssetId",
          "type": "uint256"
        }
      ],
      "name": "getPairsByQuoteAsset",
      "outputs": [
        {
          "internalType": "string[]",
          "name": "",
          "type": "string[]"
        }
      ],
      "stateMutability": "view",
      "type": "function"
    },
    {
      "inputs": [
        {
          "internalType": "bytes32",
          "name": "_pairId",
          "type": "bytes32"
        }
      ],
      "name": "getPrice",
      "outputs": [
        {
          "components": [
            {
              "internalType": "uint256",
              "name": "price",
              "type": "uint256"
            },
            {
              "internalType": "uint8",
              "name": "decimals",
              "type": "uint8"
            },
            {
              "internalType": "uint256",
              "name": "timestamp",
              "type": "uint256"
            }
          ],
          "internalType": "struct IGildiPriceResolver.PriceData",
          "name": "",
          "type": "tuple"
        }
      ],
      "stateMutability": "view",
      "type": "function"
    },
    {
      "inputs": [
        {
          "internalType": "uint256",
          "name": "_baseAssetId",
          "type": "uint256"
        },
        {
          "internalType": "uint256",
          "name": "_quoteAssetId",
          "type": "uint256"
        }
      ],
      "name": "getPriceById",
      "outputs": [
        {
          "components": [
            {
              "internalType": "uint256",
              "name": "price",
              "type": "uint256"
            },
            {
              "internalType": "uint8",
              "name": "decimals",
              "type": "uint8"
            },
            {
              "internalType": "uint256",
              "name": "timestamp",
              "type": "uint256"
            }
          ],
          "internalType": "struct IGildiPriceResolver.PriceData",
          "name": "",
          "type": "tuple"
        }
      ],
      "stateMutability": "view",
      "type": "function"
    },
    {
      "inputs": [
        {
          "internalType": "bytes32",
          "name": "_pairId",
          "type": "bytes32"
        },
        {
          "internalType": "uint256",
          "name": "_age",
          "type": "uint256"
        }
      ],
      "name": "getPriceNoOlderThan",
      "outputs": [
        {
          "components": [
            {
              "internalType": "uint256",
              "name": "price",
              "type": "uint256"
            },
            {
              "internalType": "uint8",
              "name": "decimals",
              "type": "uint8"
            },
            {
              "internalType": "uint256",
              "name": "timestamp",
              "type": "uint256"
            }
          ],
          "internalType": "struct IGildiPriceResolver.PriceData",
          "name": "",
          "type": "tuple"
        }
      ],
      "stateMutability": "view",
      "type": "function"
    },
    {
      "inputs": [
        {
          "internalType": "bytes32",
          "name": "_pairId",
          "type": "bytes32"
        }
      ],
      "name": "getResolver",
      "outputs": [
        {
          "internalType": "contract IGildiPriceResolver",
          "name": "resolver",
          "type": "address"
        }
      ],
      "stateMutability": "view",
      "type": "function"
    },
    {
      "inputs": [
        {
          "internalType": "bytes32",
          "name": "role",
          "type": "bytes32"
        }
      ],
      "name": "getRoleAdmin",
      "outputs": [
        {
          "internalType": "bytes32",
          "name": "",
          "type": "bytes32"
        }
      ],
      "stateMutability": "view",
      "type": "function"
    },
    {
      "inputs": [
        {
          "internalType": "bytes32",
          "name": "role",
          "type": "bytes32"
        },
        {
          "internalType": "address",
          "name": "account",
          "type": "address"
        }
      ],
      "name": "grantRole",
      "outputs": [],
      "stateMutability": "nonpayable",
      "type": "function"
    },
    {
      "inputs": [
        {
          "internalType": "bytes32",
          "name": "role",
          "type": "bytes32"
        },
        {
          "internalType": "address",
          "name": "account",
          "type": "address"
        }
      ],
      "name": "hasRole",
      "outputs": [
        {
          "internalType": "bool",
          "name": "",
          "type": "bool"
        }
      ],
      "stateMutability": "view",
      "type": "function"
    },
    {
      "inputs": [
        {
          "internalType": "address",
          "name": "_defaultAdmin",
          "type": "address"
        },
        {
          "internalType": "address",
          "name": "_contractAdmin",
          "type": "address"
        }
      ],
      "name": "initialize",
      "outputs": [],
      "stateMutability": "nonpayable",
      "type": "function"
    },
    {
      "inputs": [
        {
          "internalType": "bytes32",
          "name": "_pairId",
          "type": "bytes32"
        }
      ],
      "name": "pairExistsById",
      "outputs": [
        {
          "internalType": "bool",
          "name": "",
          "type": "bool"
        }
      ],
      "stateMutability": "view",
      "type": "function"
    },
    {
      "inputs": [
        {
          "internalType": "bytes32",
          "name": "role",
          "type": "bytes32"
        },
        {
          "internalType": "address",
          "name": "callerConfirmation",
          "type": "address"
        }
      ],
      "name": "renounceRole",
      "outputs": [],
      "stateMutability": "nonpayable",
      "type": "function"
    },
    {
      "inputs": [
        {
          "internalType": "bytes32",
          "name": "role",
          "type": "bytes32"
        },
        {
          "internalType": "address",
          "name": "account",
          "type": "address"
        }
      ],
      "name": "revokeRole",
      "outputs": [],
      "stateMutability": "nonpayable",
      "type": "function"
    },
    {
      "inputs": [
        {
          "internalType": "bytes4",
          "name": "interfaceId",
          "type": "bytes4"
        }
      ],
      "name": "supportsInterface",
      "outputs": [
        {
          "internalType": "bool",
          "name": "",
          "type": "bool"
        }
      ],
      "stateMutability": "view",
      "type": "function"
    },
    {
      "inputs": [
        {
          "internalType": "uint256",
          "name": "_baseAssetId",
          "type": "uint256"
        },
        {
          "internalType": "uint256",
          "name": "_quoteAssetId",
          "type": "uint256"
        },
        {
          "internalType": "contract IGildiPriceResolver",
          "name": "_resolver",
          "type": "address"
        }
      ],
      "name": "updateResolver",
      "outputs": [],
      "stateMutability": "nonpayable",
      "type": "function"
    }
  ],
  "transactionHash": "0x7d0704563697a9a594f420ad8d5dc83cc6406cfd73ad0efac316b2d9cbc1969f",
  "args": [],
  "numDeployments": 1,
  "solcInputHash": "5fcb370cb2b9ee0340656465635a79fa",
  "bytecode": "0x608080604052346100b8577ff0c57e16840df040f15088dc2f81fe391c3923bec73e23a9662efc9c229c6a009081549060ff8260401c166100a957506001600160401b036002600160401b031982821601610064575b6040516123da90816100be8239f35b6001600160401b031990911681179091556040519081527fc7f505b2f371ae2175ee4913f4499e1f2633a7b5936321eed1cdaeb6115181d290602090a1388080610055565b63f92ee8a960e01b8152600490fd5b600080fdfe608060408181526004918236101561001657600080fd5b600090813560e01c90816301ffc9a714611863575080631e08cf0614611676578063248a9ca31461163e5780632f2ff15d1461161457806331d98b3f1461157b578063328fe7ad1461131457806336568abe146112ce57806337410dfa14610edf578063485cc95514610d7d57806361408e6c14610d0857806367e4ac2c14610c2657806375b238fc14610beb578063767eb5ef14610a455780637eb79b531461068057806391d148541461062c578063a217fddf14610611578063a4ae35e014610571578063ac5ae002146103c5578063b3e444a71461037f578063d22696b0146101f7578063d547741f146101aa578063e7c9eaf6146101795763ea6ec3de1461012157600080fd5b34610176576020366003190112610176578235808252600260205260ff8383205416156101675781526020818152908290205491516001600160a01b0390921682529150f35b50505163a8c399e560e01b8152fd5b80fd5b5091346101a65760203660031901126101a6578160209360ff923581526002855220541690519015158152f35b8280fd5b509190346101a657806003193601126101a6576101f391356101ee60016101cf6118e6565b9383875260008051602061238583398151915260205286200154611f81565b612301565b5080f35b509190346101a657806003193601126101a6576024358235610217611b62565b508085526003602052828520541561036957818552600360205282852054156103535761026d61028661028b9361027f93885260036020526001868920019088526102746001878a200191875194858092611a7c565b0384611992565b855193848092611a7c565b0383611992565b611fb4565b8084528360205260018060a01b03828520541692600260205260ff83862054161561034557906024606092845195869384926331d98b3f60e01b84528301525afa91821561033b57610306939261030a575b50519182918291909160408060608301948051845260ff60208201511660208501520151910152565b0390f35b61032d91925060603d606011610334575b6103258183611992565b810190611b81565b90386102dd565b503d61031b565b81513d85823e3d90fd5b825163a8c399e560e01b8152fd5b50905163ad917ae760e01b815291820152602490fd5b8360249184519163ad917ae760e01b8352820152fd5b5091346101a65760203660031901126101a65781610306936103b2926103a3611bbf565b50358152600360205220611bdf565b9051918291602083526020830190611a0b565b50346101765760208060031936011261056d5783356103e2611f07565b8083526002825260ff84842054161561055d5780835282825283832080546001600160a01b031916905560028252838320805460ff19169055919283929083805b6001805490818310156105295761043983611b12565b50548852600380885261044d868a20611bdf565b9161045785611b12565b50015489528752610469858920611bdf565b918661047c898401518a86015190611fb4565b1461048c57505050600101610423565b929350939495509596506000198101908111610516577f8d4fcfa1c49eaf4fe4869705d7f4ba530c099e8f1d8669dbf3b956b848158d3e9697506105109392916104e26104db6104e893611b12565b5091611b12565b90611ea8565b6104f0611ec8565b519351905b51938493846040919493926060820195825260208201520152565b0390a180f35b634e487b7160e01b875260118852602487fd5b505050939550610510919250937f8d4fcfa1c49eaf4fe4869705d7f4ba530c099e8f1d8669dbf3b956b848158d3e946104f5565b5050505163d719ab6960e01b8152fd5b5080fd5b509190346101a657806003193601126101a657813561058e611b62565b508084528360205260018060a01b03828520541692600260205260ff838620541615610345579060446060928451958693849263052571af60e51b845283015260243560248301525afa91821561033b57610306939261030a5750519182918291909160408060608301948051845260ff60208201511660208501520151910152565b50903461056d578160031936011261056d5751908152602090f35b5091346101a657816003193601126101a6578160209360ff9261064d6118e6565b9035825260008051602061238583398151915286528282206001600160a01b039091168252855220549151911615158152f35b50903461056d57602090816003193601126101a6578335906106a0611f07565b818452600394600384526106b5828620611bdf565b9583875103610a2f57838652600385528286209186835560016106d9818501611e5f565b6106e66002809501611e5f565b868901938451828a905b61099e575b50888151910120895260058852888681205560068054908a5b8281106108dd575b50505081549389945b80861061077d578a7f71ce3c978265c49a3ec3706039ecedd12f11fb57ed7bedbe44a8a4294ccfef358b8b8f8c61051091610770828f5192015191606084519788978852870152606086019061191f565b918483039085015261191f565b8a8a61078888611b12565b508a5161079481611944565b8782549283835201548d8085840194838652149182156108d3575b5050156108be577f8d4fcfa1c49eaf4fe4869705d7f4ba530c099e8f1d8669dbf3b956b848158d3e93929161085d915184528683526107ef8d8520611bdf565b905184528683528c610802818620611bdf565b9489610815868501518789015190611fb4565b958683528281528383206bffffffffffffffffffffffff60a01b8154169055522060ff1981541690555192518c51938493846040919493926060820195825260208201520152565b0390a16000198101908082116108ab5761088361087983611b12565b506104e289611b12565b61088b611ec8565b1561089857925b9261071f565b634e487b7160e01b8b526011855260248bfd5b634e487b7160e01b8c526011865260248cfd5b5050505092946108cd90611c2a565b94610892565b1490508d386107af565b93848a6108eb839997611cfd565b5054146108fb570195939561070e565b919260001992915082810190811161098b579061092461091d61092a93611cfd565b5091611cfd565b90611e16565b8154801561097857019061093d82611cfd565b6109665783818d61095a9355610954898201611e5f565b01611e5f565b55388080959395610716565b634e487b7160e01b8c528b865260248cfd5b634e487b7160e01b8c526031865260248cfd5b634e487b7160e01b8d526011875260248dfd5b928095938251811015610a275781906001600160f81b0319606160f81b816109c68488611c7b565b5116101580610a0d575b6109df575b50019093956106f0565b6109e98286611c7b565b516109f760f891821c611c8c565b901b168d1a610a068286611c7b565b53386109d5565b50603d60f91b81610a1e8488611c7b565b511611156109d0565b5092946106f5565b5082602492519163ad917ae760e01b8352820152fd5b50903461056d578160031936011261056d57906001805491610a6683611c4f565b93610a7381519586611992565b838552610a7f84611c4f565b60209490601f1901835b818110610bac575050825b818110610b2157505080519380850191818652865180935280860182828560051b890101980194915b848310610aca5787890388f35b9091929394958480610b0f839b603f198c82030187528a519086610aff60608451845286850151908088860152840190611a0b565b9201519087818403910152611a0b565b9a980196959491909101920190610abd565b9384610b31829896979497611b12565b505485526003808552610b45888720611bdf565b9083610b5084611b12565b50015487528552610b62888720611bdf565b610b73868301518783015190611fb4565b91895192610b8084611976565b83528683015288820152610b948288611c67565b52610b9f8187611c67565b5001959395949194610a94565b958396819498969851610bbe81611976565b868152610bc9611bbf565b83820152610bd5611bbf565b8982015282828901015201969496959295610a89565b50903461056d578160031936011261056d57602090517fa49807205ce4d355092ef5a8a18f56e8913cf4a201fbe287825b095693c217758152f35b5034610176578060031936011261017657600654610c4381611c4f565b91610c5084519384611992565b8183526006815260209283810192827ff652222313e28459528d920b65115c16c04f3efc82aaedc97be59f3f377c0d3f855b838310610ce357505050508451938085019181865251809252858501958260051b8601019392955b828710610cb75785850386f35b909192938280610cd3600193603f198a82030186528851611a0b565b9601920196019592919092610caa565b600388600192610cf6859b98999b611bdf565b81520192019201919096949396610c82565b50903461056d5761028690610d5461027f61026d610d25366118b7565b9691610d2f611f07565b885260036020526001868920019088526102746001878a200191875194858092611a7c565b83526020839052822080546001600160a01b0319166001600160a01b0390921691909117905580f35b5091346101a657816003193601126101a6578035906001600160a01b0382168203610edb57610daa6118e6565b7ff0c57e16840df040f15088dc2f81fe391c3923bec73e23a9662efc9c229c6a009283549260ff84871c16159367ffffffffffffffff811680159081610ed3575b6001149081610ec9575b159081610ec0575b50610eb15767ffffffffffffffff198116600117865584610e92575b5060ff8554871c1615610e84575090610e34610e3a92612118565b506121b8565b50610e43578280f35b805468ff00000000000000001916905551600181527fc7f505b2f371ae2175ee4913f4499e1f2633a7b5936321eed1cdaeb6115181d290602090a138808280f35b8551631afcd79f60e31b8152fd5b68ffffffffffffffffff19166801000000000000000117855538610e19565b50855163f92ee8a960e01b8152fd5b90501538610dfd565b303b159150610df5565b869150610deb565b8380fd5b50903461056d578060031936011261056d5767ffffffffffffffff91833583811161056d57610f1190369086016119b4565b9060243584811161056d57610f2990369087016119b4565b610f31611f07565b8251600381109081156112c3575b506112b357815b8351811015611056576001600160f81b0319606160f81b81610f688488611c7b565b511610158061103c575b61100e575b600360fc1b81610f878488611c7b565b511610908115610ff3575b81610fb5575b50610fa557600101610f46565b845163010466f160e21b81528790fd5b9050604160f81b81610fc78488611c7b565b511610908115610fd9575b5038610f98565b602d60f91b9150610fea8387611c7b565b51161138610fd2565b9050603960f81b816110058488611c7b565b51161190610f92565b806110198387611c7b565b5161102760f891821c611c8c565b901b16841a6110368387611c7b565b53610f77565b50603d60f91b8161104d8488611c7b565b51161115610f72565b50949293825195602096878501209182845260058852868420546112a35761107e8654611c2a565b80875587519061108d82611976565b808252898201968752888201938452855260038952878520905181556001958682019051805190848211611290576110cf826110c98554611a42565b85611cb6565b8b908c601f8411600114611227575091806111059260029695948b926111aa575b50508160011b916000199060031b1c19161790565b90555b019151805191821161121457611122826110c98554611a42565b8890601f83116001146111b55761115092918691836111aa5750508160011b916000199060031b1c19161790565b90555b83549082526005865280858320558152600385528381209160065491600160401b8310156111975750816109249161118f949301600655611cfd565b549051908152f35b634e487b7160e01b815260418552602490fd5b0151905038806110f0565b8386528986208793929091601f198416885b8d8282106111fe57505084116111e5575b505050811b019055611153565b015160001960f88460031b161c191690553880806111d8565b8385015186558b979095019493840193016111c7565b634e487b7160e01b855260418752602485fd5b8a92601f9695949296198316858c52828c20928c905b82821061127757505096836002981061125e575b505050811b019055611108565b015160001960f88460031b161c19169055388080611251565b838a015185558e9690940193928301929081019061123d565b634e487b7160e01b885260418a52602488fd5b865163f0c5992760e01b81528690fd5b83516306a7103560e01b81528690fd5b600691501138610f3f565b50903461056d578060031936011261056d576112e86118e6565b90336001600160a01b0383160361130557506101f3919235612301565b5163334bd91960e11b81528390fd5b509190346101a6576020928360031936011261017657823593848252600393600382528383205415611564575092916113639482526003845260019261136a8483852001835197888092611a7c565b0387611992565b611372611bbf565b5082958390855492878201925b84811061151157506113a86113938a611c4f565b996113a087519b8c611992565b808b52611c4f565b601f1901865b8181106115025750508591865b8581106114225750505050505080519380850191818652865180935281818701918460051b880101970193905b8382106113f55786880387f35b90919293948380611411839a603f198b8203018652895161191f565b9997019594939190910191016113e8565b978881611433819d9b9c999c611b12565b50015489528388528a8880611449838d20611bdf565b018b815183815191012087518b201461146d575b50505050019997999895986113bb565b916114dd918161149486889c97966114876114f89a611b12565b505481528c845220611bdf565b01519051935193816114af86935180928680870191016118fc565b8201602f60f81b848201526114cf602194835193849187850191016118fc565b010386810184520182611992565b6114e7828d611c67565b526114f2818c611c67565b50611c2a565b938a88388b61145d565b60608b82018b015289016113ae565b968781611522819c9a9b989b611b12565b5001548852828752866115368b8a20611bdf565b01518781519101208451862014611554575b0198969897949761137f565b9761155e90611c2a565b97611548565b835163ad917ae760e01b8152908101869052602490fd5b509190346101a65760203660031901126101a6578135611599611b62565b508084528360205260018060a01b03828520541692600260205260ff83862054161561034557906024606092845195869384926331d98b3f60e01b84528301525afa91821561033b57610306939261030a5750519182918291909160408060608301948051845260ff60208201511660208501520151910152565b509190346101a657806003193601126101a6576101f3913561163960016101cf6118e6565b61227a565b5091346101a65760203660031901126101a6578160209360019235815260008051602061238583398151915285522001549051908152f35b50903461056d57611686366118b7565b61169293919293611f07565b83855260209060038252828620541561184c57838652600382528286205415611835576001600160a01b0316938415611825578086526003825260019061170361027f61026d6102868a6116f8878a8181852001938d81522001918a5194858092611a7c565b885193848092611a7c565b80885287845284882080546001600160a01b03191688179055600284528488205460ff161561178f575b5091611789917f82c83109e5f14eb4b46ffbed56ed4c551e94cbaaf954198815cde6e308a6c23b95949388526003825280848920019488528388200161177c8451958587968752860190611a7c565b9184830390850152611a7c565b0390a280f35b8188526003845284882054868952858920548651916117ad83611944565b82528582019081528454600160401b8110156118125780866117d192018755611b12565b929092611800575182555190840155875260028352838720805460ff191683179055959650869561178961172d565b634e487b7160e01b8b528a8c5260248bfd5b634e487b7160e01b8b5260418c5260248bfd5b8251637ea067a160e01b81528790fd5b825163ad917ae760e01b8152808801859052602490fd5b825163ad917ae760e01b8152808801869052602490fd5b905083346101a65760203660031901126101a6573563ffffffff60e01b81168091036101a65760209250637965db0b60e01b81149081156118a6575b5015158152f35b6301ffc9a760e01b1490508361189f565b60609060031901126118e15760043590602435906044356001600160a01b03811681036118e15790565b600080fd5b602435906001600160a01b03821682036118e157565b60005b83811061190f5750506000910152565b81810151838201526020016118ff565b90602091611938815180928185528580860191016118fc565b601f01601f1916010190565b6040810190811067ffffffffffffffff82111761196057604052565b634e487b7160e01b600052604160045260246000fd5b6060810190811067ffffffffffffffff82111761196057604052565b90601f8019910116810190811067ffffffffffffffff82111761196057604052565b81601f820112156118e15780359067ffffffffffffffff821161196057604051926119e9601f8401601f191660200185611992565b828452602083830101116118e157816000926020809301838601378301015290565b611a3f91815181526040611a2e602084015160606020850152606084019061191f565b92015190604081840391015261191f565b90565b90600182811c92168015611a72575b6020831014611a5c57565b634e487b7160e01b600052602260045260246000fd5b91607f1691611a51565b805460009392611a8b82611a42565b91828252602093600191600181169081600014611af35750600114611ab2575b5050505050565b90939495506000929192528360002092846000945b838610611adf57505050500101903880808080611aab565b805485870183015294019385908201611ac7565b60ff19168685015250505090151560051b010191503880808080611aab565b600154811015611b4c57600160005260011b7fb10e2d527612073b26eecdfd717e6a320cf44b4afac2b0732d9fcbe2b7fa0cf60190600090565b634e487b7160e01b600052603260045260246000fd5b60405190611b6f82611976565b60006040838281528260208201520152565b908160609103126118e15760405190611b9982611976565b8051825260208101519060ff821682036118e15760409160208401520151604082015290565b60405190611bcc82611976565b6060604083600081528260208201520152565b90600260408051611bef81611976565b611c268195805483528351611c1281611c0b8160018601611a7c565b0382611992565b602084015261026d84518096819301611a7c565b0152565b6000198114611c395760010190565b634e487b7160e01b600052601160045260246000fd5b67ffffffffffffffff81116119605760051b60200190565b8051821015611b4c5760209160051b010190565b908151811015611b4c570160200190565b60ff601f199116019060ff8211611c3957565b818110611caa575050565b60008155600101611c9f565b9190601f8111611cc557505050565b611cf1926000526020600020906020601f840160051c83019310611cf3575b601f0160051c0190611c9f565b565b9091508190611ce4565b600654811015611b4c576003906006600052027ff652222313e28459528d920b65115c16c04f3efc82aaedc97be59f3f377c0d3f0190600090565b90808214611e1257611d4a8154611a42565b9067ffffffffffffffff821161196057611d68826110c98554611a42565b600090601f8311600114611da757611d98929160009183611d9c5750508160011b916000199060031b1c19161790565b9055565b0154905038806110f0565b815260208082208483528183209291601f1985169083905b828210611df9575050908460019594939210611de0575b505050811b019055565b015460001960f88460031b161c19169055388080611dd6565b8495819295850154815560018091019601940190611dbf565b5050565b90611e4957818103611e26575050565b60028083611cf194548455611e416001820160018601611d38565b019101611d38565b634e487b7160e01b600052600060045260246000fd5b611e698154611a42565b9081611e73575050565b81601f60009311600114611e85575055565b908083918252611ea4601f60208420940160051c840160018501611c9f565b5555565b9190611e4957808203611eb9575050565b60018181925484550154910155565b6001548015611ef15760001901611ede81611b12565b611e495760018160008093550155600155565b634e487b7160e01b600052603160045260246000fd5b3360009081527fb16e88c42fd4e48df2dd6a2eabd6bc9aec654ec170056b470819f8892cc6431c60205260409020547fa49807205ce4d355092ef5a8a18f56e8913cf4a201fbe287825b095693c217759060ff1615611f635750565b6044906040519063e2517d3f60e01b82523360048301526024820152fd5b8060005260008051602061238583398151915260205260406000203360005260205260ff6040600020541615611f635750565b60005b815181101561203b576001906001600160f81b0319606160f81b81611fdc8487611c7b565b5116101580612021575b611ff2575b5001611fb7565b611ffc8285611c7b565b5161200a60f891821c611c8c565b901b1660001a61201a8285611c7b565b5338611feb565b50603d60f91b816120328487611c7b565b51161115611fe6565b509060005b81518110156120c4576001906001600160f81b0319606160f81b816120658487611c7b565b51161015806120aa575b61207b575b5001612040565b6120858285611c7b565b5161209360f891821c611c8c565b901b1660001a6120a38285611c7b565b5338612074565b50603d60f91b816120bb8487611c7b565b5116111561206f565b506121126021604051809360206120e481840197888151938492016118fc565b8201602f60f81b602082015261210382518093602087850191016118fc565b01036001810184520182611992565b51902090565b6001600160a01b031660008181527fb7db2dd08fcb62d0c9e08c51941cae53c267786a0b75803fb7960902fc8ef97d60205260408120549091906000805160206123858339815191529060ff166121b3578280526020526040822081835260205260408220600160ff1982541617905533917f2f8788117e7eff1d82e926ec794901d17c78024a50270940304540a733656f0d8180a4600190565b505090565b6001600160a01b031660008181527fb16e88c42fd4e48df2dd6a2eabd6bc9aec654ec170056b470819f8892cc6431c60205260408120549091907fa49807205ce4d355092ef5a8a18f56e8913cf4a201fbe287825b095693c21775906000805160206123858339815191529060ff16612274578184526020526040832082845260205260408320600160ff198254161790557f2f8788117e7eff1d82e926ec794901d17c78024a50270940304540a733656f0d339380a4600190565b50505090565b9060009180835260008051602061238583398151915280602052604084209260018060a01b03169283855260205260ff60408520541615600014612274578184526020526040832082845260205260408320600160ff198254161790557f2f8788117e7eff1d82e926ec794901d17c78024a50270940304540a733656f0d339380a4600190565b9060009180835260008051602061238583398151915280602052604084209260018060a01b03169283855260205260ff60408520541660001461227457818452602052604083208284526020526040832060ff1981541690557ff6391f5c32d9c69d2a47ea670b442974b53935d1edc7fd64eb21e047a839171b339380a460019056fe02dd7bc7dec4dceedda775e58dd541e08a116c6c53815c0bd028192f7b626800a2646970667358221220e5f17d752fc1480ba9771ecd51d83d700e7b129699ed753e0ab161b7a552453964736f6c63430008180033",
  "devdoc": {
    "author": "Gildi Company",
    "custom:security-contact": "security@gildi.io",
    "errors": {
      "AccessControlBadConfirmation()": [
        {
          "details": "The caller of a function is not the expected one. NOTE: Don't confuse with {AccessControlUnauthorizedAccount}."
        }
      ],
      "AccessControlUnauthorizedAccount(address,bytes32)": [
        {
          "details": "The `account` is missing a role."
        }
      ],
      "AssetNotFound(uint256)": [
        {
          "details": "Thrown when an asset is not found",
          "params": {
            "assetId": "The ID of the asset that was not found"
          }
        }
      ],
      "IndexOutOfBounds()": [
        {
          "details": "Thrown when an index is out of bounds"
        }
      ],
      "InvalidInitialization()": [
        {
          "details": "The contract is already initialized."
        }
      ],
      "InvalidPairId()": [
        {
          "details": "Thrown when an invalid pair ID is provided"
        }
      ],
      "InvalidSymbol()": [
        {
          "details": "Thrown when a symbol contains invalid characters"
        }
      ],
      "InvalidSymbolLength()": [
        {
          "details": "Thrown when a symbol length is invalid"
        }
      ],
      "NotAdmin()": [
        {
          "details": "Thrown when a non-admin attempts to perform an admin-only action"
        }
      ],
      "NotInitializing()": [
        {
          "details": "The contract is not initializing."
        }
      ],
      "PairNotFound()": [
        {
          "details": "Thrown when a pair is not found"
        }
      ],
      "ResolverAddressZero()": [
        {
          "details": "Thrown when a resolver address is zero"
        }
      ],
      "SymbolTaken()": [
        {
          "details": "Thrown when a symbol is already taken"
        }
      ]
    },
    "events": {
      "AssetDeleted(uint256,string,string)": {
        "params": {
          "assetId": "The asset ID",
          "name": "The asset name",
          "symbol": "The asset symbol"
        }
      },
      "Initialized(uint64)": {
        "details": "Triggered when the contract has been initialized or reinitialized."
      },
      "PairDeleted(bytes32,uint256,uint256)": {
        "params": {
          "baseAssetId": "The base asset id",
          "pairId": "The pair ID",
          "quoteAssetId": "The quote asset id"
        }
      },
      "ResolverAdded(string,string,address)": {
        "params": {
          "baseAsset": "The base asset address",
          "quoteAsset": "The quote asset address",
          "resolver": "The address of the resolver contract"
        }
      },
      "RoleAdminChanged(bytes32,bytes32,bytes32)": {
        "details": "Emitted when `newAdminRole` is set as ``role``'s admin role, replacing `previousAdminRole` `DEFAULT_ADMIN_ROLE` is the starting admin for all roles, despite {RoleAdminChanged} not being emitted to signal this."
      },
      "RoleGranted(bytes32,address,address)": {
        "details": "Emitted when `account` is granted `role`. `sender` is the account that originated the contract call. This account bears the admin role (for the granted role). Expected in cases where the role was granted using the internal {AccessControl-_grantRole}."
      },
      "RoleRevoked(bytes32,address,address)": {
        "details": "Emitted when `account` is revoked `role`. `sender` is the account that originated the contract call:   - if using `revokeRole`, it is the admin role bearer   - if using `renounceRole`, it is the role bearer (i.e. `account`)"
      }
    },
    "kind": "dev",
    "methods": {
      "addAsset(string,string)": {
        "params": {
          "_name": "The name of the asset",
          "_symbol": "The symbol of the asset"
        },
        "returns": {
          "_0": "The ID of the newly added asset"
        }
      },
      "addPair(uint256,uint256,address)": {
        "params": {
          "_baseAssetId": "The ID of the base asset",
          "_quoteAssetId": "The ID of the quote asset",
          "_resolver": "The resolver contract for the pair"
        }
      },
      "constructor": {
        "custom:oz-upgrades-unsafe-allow": "constructor"
      },
      "deleteAsset(uint256)": {
        "params": {
          "_assetId": "The ID of the asset to delete"
        }
      },
      "deletePair(bytes32)": {
        "params": {
          "_pairId": "The ID of the pair to delete"
        }
      },
      "getAssetById(uint256)": {
        "params": {
          "_assetId": "The ID of the asset to retrieve"
        },
        "returns": {
          "_0": "The asset with the specified ID"
        }
      },
      "getAssets()": {
        "returns": {
          "_0": "An array of all assets in the registry"
        }
      },
      "getPairs()": {
        "returns": {
          "_0": "An array of PairInfo structs containing all registered pairs"
        }
      },
      "getPairsByQuoteAsset(uint256)": {
        "params": {
          "_quoteAssetId": "The ID of the quote asset to filter by"
        },
        "returns": {
          "_0": "An array of pair strings in the format \"BASE/QUOTE\""
        }
      },
      "getPrice(bytes32)": {
        "params": {
          "pairId": "The identifier of the asset pair"
        },
        "returns": {
          "_0": "The price data for the asset pair"
        }
      },
      "getPriceById(uint256,uint256)": {
        "params": {
          "_baseAssetId": "The ID of the base asset",
          "_quoteAssetId": "The ID of the quote asset"
        },
        "returns": {
          "_0": "Price data for the specified asset pair"
        }
      },
      "getPriceNoOlderThan(bytes32,uint256)": {
        "params": {
          "age": "The maximum age of the price data in seconds",
          "pairId": "The identifier of the asset pair"
        }
      },
      "getResolver(bytes32)": {
        "params": {
          "_pairId": "The identifier of the asset pair"
        }
      },
      "getRoleAdmin(bytes32)": {
        "details": "Returns the admin role that controls `role`. See {grantRole} and {revokeRole}. To change a role's admin, use {_setRoleAdmin}."
      },
      "grantRole(bytes32,address)": {
        "details": "Grants `role` to `account`. If `account` had not been already granted `role`, emits a {RoleGranted} event. Requirements: - the caller must have ``role``'s admin role. May emit a {RoleGranted} event."
      },
      "hasRole(bytes32,address)": {
        "details": "Returns `true` if `account` has been granted `role`."
      },
      "initialize(address,address)": {
        "params": {
          "_contractAdmin": "The address of the contract admin",
          "_defaultAdmin": "The address of the default admin"
        }
      },
      "pairExistsById(bytes32)": {
        "params": {
          "_pairId": "The identifier of the asset pair"
        },
        "returns": {
          "_0": "True if the pair exists"
        }
      },
      "renounceRole(bytes32,address)": {
        "details": "Revokes `role` from the calling account. Roles are often managed via {grantRole} and {revokeRole}: this function's purpose is to provide a mechanism for accounts to lose their privileges if they are compromised (such as when a trusted device is misplaced). If the calling account had been revoked `role`, emits a {RoleRevoked} event. Requirements: - the caller must be `callerConfirmation`. May emit a {RoleRevoked} event."
      },
      "revokeRole(bytes32,address)": {
        "details": "Revokes `role` from `account`. If `account` had been granted `role`, emits a {RoleRevoked} event. Requirements: - the caller must have ``role``'s admin role. May emit a {RoleRevoked} event."
      },
      "supportsInterface(bytes4)": {
        "details": "Returns true if this contract implements the interface defined by `interfaceId`. See the corresponding https://eips.ethereum.org/EIPS/eip-165#how-interfaces-are-identified[ERC section] to learn more about how these ids are created. This function call must use less than 30 000 gas."
      },
      "updateResolver(uint256,uint256,address)": {
        "params": {
          "_baseAssetId": "The ID of the base asset",
          "_quoteAssetId": "The ID of the quote asset",
          "_resolver": "The new resolver contract for the pair"
        }
      }
    },
    "stateVariables": {
      "allAssets": {
        "details": "Store assets in an array for getAssets()"
      },
      "assetRegistry": {
        "details": "Map asset ID -> Asset"
      },
      "nextAssetId": {
        "details": "Next asset ID to be assigned"
      },
      "pairExists": {
        "details": "Mapping to track if a pair exists"
      },
      "pairResolvers": {
        "details": "Mapping from pair hash to IGildiPriceResolver implementation"
      },
      "pairs": {
        "details": "Array of all pairs"
      },
      "symbolToId": {
        "details": "Maps uppercase symbol -> assetId"
      }
    },
    "title": "Gildi Price Oracle",
    "version": 1
  },
  "userdoc": {
    "events": {
      "AssetDeleted(uint256,string,string)": {
        "notice": "Emitted when an asset is deleted"
      },
      "PairDeleted(bytes32,uint256,uint256)": {
        "notice": "Emitted when a pair is deleted"
      },
      "ResolverAdded(string,string,address)": {
        "notice": "Emitted when a resolver is added for a pair"
      }
    },
    "kind": "user",
    "methods": {
      "addAsset(string,string)": {
        "notice": "Adds a new asset to the registry"
      },
      "addPair(uint256,uint256,address)": {
        "notice": "Add a new pair using numeric asset IDs"
      },
      "deleteAsset(uint256)": {
        "notice": "Deletes an asset and all pairs that reference it"
      },
      "deletePair(bytes32)": {
        "notice": "Deletes a pair from the oracle"
      },
      "getAssetById(uint256)": {
        "notice": "Return asset by ID"
      },
      "getAssets()": {
        "notice": "Return all registered assets"
      },
      "getPairs()": {
        "notice": "Return all pairs in the form \"BASE/QUOTE\" for direct usage"
      },
      "getPairsByQuoteAsset(uint256)": {
        "notice": "Return pairs that use a specific quote asset ID"
      },
      "getPrice(bytes32)": {
        "notice": "Retrieves the price data for a given pair ID"
      },
      "getPriceById(uint256,uint256)": {
        "notice": "Overload to get price by numeric IDs"
      },
      "getPriceNoOlderThan(bytes32,uint256)": {
        "notice": "Retrieves the price data for a given pair ID, with a maximum age"
      },
      "getResolver(bytes32)": {
        "notice": "Retrieves the resolver for a specific asset pair"
      },
      "initialize(address,address)": {
        "notice": "Initializes the contract and sets up roles"
      },
      "pairExistsById(bytes32)": {
        "notice": "Checks if a pair with the given ID exists"
      },
      "updateResolver(uint256,uint256,address)": {
        "notice": "Update the resolver for an existing pair"
      }
    },
    "notice": "Manages asset pairs and delegates price resolution to resolvers",
    "version": 1
  },
  "storageLayout": {
    "storage": [
      {
        "astId": 49956,
        "contract": "contracts/oracles/price/GildiPriceOracle.sol:GildiPriceOracle",
        "label": "pairResolvers",
        "offset": 0,
        "slot": "0",
        "type": "t_mapping(t_bytes32,t_contract(IGildiPriceResolver)23535)"
      },
      {
        "astId": 50014,
        "contract": "contracts/oracles/price/GildiPriceOracle.sol:GildiPriceOracle",
        "label": "pairs",
        "offset": 0,
        "slot": "1",
        "type": "t_array(t_struct(Pair)50046_storage)dyn_storage"
      },
      {
        "astId": 50019,
        "contract": "contracts/oracles/price/GildiPriceOracle.sol:GildiPriceOracle",
        "label": "pairExists",
        "offset": 0,
        "slot": "2",
        "type": "t_mapping(t_bytes32,t_bool)"
      },
      {
        "astId": 50025,
        "contract": "contracts/oracles/price/GildiPriceOracle.sol:GildiPriceOracle",
        "label": "assetRegistry",
        "offset": 0,
        "slot": "3",
        "type": "t_mapping(t_uint256,t_struct(Asset)23400_storage)"
      },
      {
        "astId": 50028,
        "contract": "contracts/oracles/price/GildiPriceOracle.sol:GildiPriceOracle",
        "label": "nextAssetId",
        "offset": 0,
        "slot": "4",
        "type": "t_uint256"
      },
      {
        "astId": 50033,
        "contract": "contracts/oracles/price/GildiPriceOracle.sol:GildiPriceOracle",
        "label": "symbolToId",
        "offset": 0,
        "slot": "5",
        "type": "t_mapping(t_bytes32,t_uint256)"
      },
      {
        "astId": 50038,
        "contract": "contracts/oracles/price/GildiPriceOracle.sol:GildiPriceOracle",
        "label": "allAssets",
        "offset": 0,
        "slot": "6",
        "type": "t_array(t_struct(Asset)23400_storage)dyn_storage"
      }
    ],
    "types": {
      "t_array(t_struct(Asset)23400_storage)dyn_storage": {
        "base": "t_struct(Asset)23400_storage",
        "encoding": "dynamic_array",
        "label": "struct IGildiPriceOracle.Asset[]",
        "numberOfBytes": "32"
      },
      "t_array(t_struct(Pair)50046_storage)dyn_storage": {
        "base": "t_struct(Pair)50046_storage",
        "encoding": "dynamic_array",
        "label": "struct GildiPriceOracle.Pair[]",
        "numberOfBytes": "32"
      },
      "t_bool": {
        "encoding": "inplace",
        "label": "bool",
        "numberOfBytes": "1"
      },
      "t_bytes32": {
        "encoding": "inplace",
        "label": "bytes32",
        "numberOfBytes": "32"
      },
      "t_contract(IGildiPriceResolver)23535": {
        "encoding": "inplace",
        "label": "contract IGildiPriceResolver",
        "numberOfBytes": "20"
      },
      "t_mapping(t_bytes32,t_bool)": {
        "encoding": "mapping",
        "key": "t_bytes32",
        "label": "mapping(bytes32 => bool)",
        "numberOfBytes": "32",
        "value": "t_bool"
      },
      "t_mapping(t_bytes32,t_contract(IGildiPriceResolver)23535)": {
        "encoding": "mapping",
        "key": "t_bytes32",
        "label": "mapping(bytes32 => contract IGildiPriceResolver)",
        "numberOfBytes": "32",
        "value": "t_contract(IGildiPriceResolver)23535"
      },
      "t_mapping(t_bytes32,t_uint256)": {
        "encoding": "mapping",
        "key": "t_bytes32",
        "label": "mapping(bytes32 => uint256)",
        "numberOfBytes": "32",
        "value": "t_uint256"
      },
      "t_mapping(t_uint256,t_struct(Asset)23400_storage)": {
        "encoding": "mapping",
        "key": "t_uint256",
        "label": "mapping(uint256 => struct IGildiPriceOracle.Asset)",
        "numberOfBytes": "32",
        "value": "t_struct(Asset)23400_storage"
      },
      "t_string_storage": {
        "encoding": "bytes",
        "label": "string",
        "numberOfBytes": "32"
      },
      "t_struct(Asset)23400_storage": {
        "encoding": "inplace",
        "label": "struct IGildiPriceOracle.Asset",
        "members": [
          {
            "astId": 23393,
            "contract": "contracts/oracles/price/GildiPriceOracle.sol:GildiPriceOracle",
            "label": "id",
            "offset": 0,
            "slot": "0",
            "type": "t_uint256"
          },
          {
            "astId": 23396,
            "contract": "contracts/oracles/price/GildiPriceOracle.sol:GildiPriceOracle",
            "label": "symbol",
            "offset": 0,
            "slot": "1",
            "type": "t_string_storage"
          },
          {
            "astId": 23399,
            "contract": "contracts/oracles/price/GildiPriceOracle.sol:GildiPriceOracle",
            "label": "name",
            "offset": 0,
            "slot": "2",
            "type": "t_string_storage"
          }
        ],
        "numberOfBytes": "96"
      },
      "t_struct(Pair)50046_storage": {
        "encoding": "inplace",
        "label": "struct GildiPriceOracle.Pair",
        "members": [
          {
            "astId": 50042,
            "contract": "contracts/oracles/price/GildiPriceOracle.sol:GildiPriceOracle",
            "label": "baseAssetId",
            "offset": 0,
            "slot": "0",
            "type": "t_uint256"
          },
          {
            "astId": 50045,
            "contract": "contracts/oracles/price/GildiPriceOracle.sol:GildiPriceOracle",
            "label": "quoteAssetId",
            "offset": 0,
            "slot": "1",
            "type": "t_uint256"
          }
        ],
        "numberOfBytes": "64"
      },
      "t_uint256": {
        "encoding": "inplace",
        "label": "uint256",
        "numberOfBytes": "32"
      }
    }
  }
}