{
  "address": "0x49b150Aae083523EDa614b18501d777EA423f3b3",
  "abi": [
    {
      "inputs": [],
      "stateMutability": "nonpayable",
      "type": "constructor"
    },
    {
      "inputs": [],
      "name": "InvalidInitialization",
      "type": "error"
    },
    {
      "inputs": [
        {
          "internalType": "uint256",
          "name": "listingId",
          "type": "uint256"
        }
      ],
      "name": "ListingError",
      "type": "error"
    },
    {
      "inputs": [],
      "name": "NotAllowed",
      "type": "error"
    },
    {
      "inputs": [],
      "name": "NotGildiExchange",
      "type": "error"
    },
    {
      "inputs": [],
      "name": "NotInitializing",
      "type": "error"
    },
    {
      "inputs": [],
      "name": "ParamError",
      "type": "error"
    },
    {
      "anonymous": false,
      "inputs": [
        {
          "indexed": false,
          "internalType": "uint64",
          "name": "version",
          "type": "uint64"
        }
      ],
      "name": "Initialized",
      "type": "event"
    },
    {
      "anonymous": false,
      "inputs": [
        {
          "indexed": true,
          "internalType": "uint256",
          "name": "listingId",
          "type": "uint256"
        },
        {
          "indexed": true,
          "internalType": "uint256",
          "name": "releaseId",
          "type": "uint256"
        },
        {
          "indexed": true,
          "internalType": "address",
          "name": "seller",
          "type": "address"
        },
        {
          "indexed": false,
          "internalType": "uint256",
          "name": "price",
          "type": "uint256"
        },
        {
          "indexed": false,
          "internalType": "uint256",
          "name": "quantity",
          "type": "uint256"
        }
      ],
      "name": "Listed",
      "type": "event"
    },
    {
      "anonymous": false,
      "inputs": [
        {
          "indexed": true,
          "internalType": "uint256",
          "name": "listingId",
          "type": "uint256"
        },
        {
          "indexed": true,
          "internalType": "uint256",
          "name": "releaseId",
          "type": "uint256"
        },
        {
          "indexed": true,
          "internalType": "address",
          "name": "seller",
          "type": "address"
        },
        {
          "indexed": false,
          "internalType": "uint256",
          "name": "price",
          "type": "uint256"
        },
        {
          "indexed": false,
          "internalType": "uint256",
          "name": "quantity",
          "type": "uint256"
        }
      ],
      "name": "Modified",
      "type": "event"
    },
    {
      "anonymous": false,
      "inputs": [
        {
          "indexed": true,
          "internalType": "uint256",
          "name": "listingId",
          "type": "uint256"
        },
        {
          "indexed": true,
          "internalType": "uint256",
          "name": "releaseId",
          "type": "uint256"
        },
        {
          "indexed": true,
          "internalType": "address",
          "name": "seller",
          "type": "address"
        },
        {
          "indexed": false,
          "internalType": "uint256",
          "name": "quantity",
          "type": "uint256"
        }
      ],
      "name": "Unlisted",
      "type": "event"
    },
    {
      "stateMutability": "payable",
      "type": "fallback"
    },
    {
      "inputs": [
        {
          "internalType": "uint256",
          "name": "_releaseId",
          "type": "uint256"
        },
        {
          "internalType": "address",
          "name": "_user",
          "type": "address"
        }
      ],
      "name": "getAvailableBuyQuantity",
      "outputs": [
        {
          "internalType": "uint256",
          "name": "",
          "type": "uint256"
        }
      ],
      "stateMutability": "view",
      "type": "function"
    },
    {
      "inputs": [
        {
          "internalType": "uint256",
          "name": "_releaseId",
          "type": "uint256"
        }
      ],
      "name": "getHeadListingId",
      "outputs": [
        {
          "internalType": "uint256",
          "name": "",
          "type": "uint256"
        }
      ],
      "stateMutability": "view",
      "type": "function"
    },
    {
      "inputs": [
        {
          "internalType": "uint256",
          "name": "_listingId",
          "type": "uint256"
        }
      ],
      "name": "getListing",
      "outputs": [
        {
          "components": [
            {
              "internalType": "uint256",
              "name": "id",
              "type": "uint256"
            },
            {
              "internalType": "uint256",
              "name": "releaseId",
              "type": "uint256"
            },
            {
              "internalType": "address",
              "name": "seller",
              "type": "address"
            },
            {
              "internalType": "uint256",
              "name": "pricePerItem",
              "type": "uint256"
            },
            {
              "internalType": "address",
              "name": "payoutCurrency",
              "type": "address"
            },
            {
              "internalType": "uint256",
              "name": "quantity",
              "type": "uint256"
            },
            {
              "internalType": "uint16",
              "name": "slippageBps",
              "type": "uint16"
            },
            {
              "internalType": "uint256",
              "name": "createdAt",
              "type": "uint256"
            },
            {
              "internalType": "uint256",
              "name": "modifiedAt",
              "type": "uint256"
            },
            {
              "internalType": "uint256",
              "name": "nextListingId",
              "type": "uint256"
            },
            {
              "internalType": "uint256",
              "name": "prevListingId",
              "type": "uint256"
            },
            {
              "internalType": "address",
              "name": "fundsReceiver",
              "type": "address"
            }
          ],
          "internalType": "struct IGildiExchangeOrderBook.Listing",
          "name": "",
          "type": "tuple"
        }
      ],
      "stateMutability": "view",
      "type": "function"
    },
    {
      "inputs": [
        {
          "internalType": "address",
          "name": "_seller",
          "type": "address"
        }
      ],
      "name": "getListingsOfSeller",
      "outputs": [
        {
          "components": [
            {
              "internalType": "uint256",
              "name": "id",
              "type": "uint256"
            },
            {
              "internalType": "uint256",
              "name": "releaseId",
              "type": "uint256"
            },
            {
              "internalType": "address",
              "name": "seller",
              "type": "address"
            },
            {
              "internalType": "uint256",
              "name": "pricePerItem",
              "type": "uint256"
            },
            {
              "internalType": "address",
              "name": "payoutCurrency",
              "type": "address"
            },
            {
              "internalType": "uint256",
              "name": "quantity",
              "type": "uint256"
            },
            {
              "internalType": "uint16",
              "name": "slippageBps",
              "type": "uint16"
            },
            {
              "internalType": "uint256",
              "name": "createdAt",
              "type": "uint256"
            },
            {
              "internalType": "uint256",
              "name": "modifiedAt",
              "type": "uint256"
            },
            {
              "internalType": "uint256",
              "name": "nextListingId",
              "type": "uint256"
            },
            {
              "internalType": "uint256",
              "name": "prevListingId",
              "type": "uint256"
            },
            {
              "internalType": "address",
              "name": "fundsReceiver",
              "type": "address"
            }
          ],
          "internalType": "struct IGildiExchangeOrderBook.Listing[]",
          "name": "",
          "type": "tuple[]"
        }
      ],
      "stateMutability": "view",
      "type": "function"
    },
    {
      "inputs": [
        {
          "internalType": "uint256",
          "name": "_listingId",
          "type": "uint256"
        }
      ],
      "name": "getNextListingId",
      "outputs": [
        {
          "internalType": "uint256",
          "name": "",
          "type": "uint256"
        }
      ],
      "stateMutability": "view",
      "type": "function"
    },
    {
      "inputs": [
        {
          "internalType": "uint256",
          "name": "_releaseId",
          "type": "uint256"
        },
        {
          "internalType": "uint256",
          "name": "_cursor",
          "type": "uint256"
        },
        {
          "internalType": "uint256",
          "name": "_limit",
          "type": "uint256"
        }
      ],
      "name": "getOrderedListings",
      "outputs": [
        {
          "components": [
            {
              "internalType": "uint256",
              "name": "id",
              "type": "uint256"
            },
            {
              "internalType": "uint256",
              "name": "releaseId",
              "type": "uint256"
            },
            {
              "internalType": "address",
              "name": "seller",
              "type": "address"
            },
            {
              "internalType": "uint256",
              "name": "pricePerItem",
              "type": "uint256"
            },
            {
              "internalType": "address",
              "name": "payoutCurrency",
              "type": "address"
            },
            {
              "internalType": "uint256",
              "name": "quantity",
              "type": "uint256"
            },
            {
              "internalType": "uint16",
              "name": "slippageBps",
              "type": "uint16"
            },
            {
              "internalType": "uint256",
              "name": "createdAt",
              "type": "uint256"
            },
            {
              "internalType": "uint256",
              "name": "modifiedAt",
              "type": "uint256"
            },
            {
              "internalType": "uint256",
              "name": "nextListingId",
              "type": "uint256"
            },
            {
              "internalType": "uint256",
              "name": "prevListingId",
              "type": "uint256"
            },
            {
              "internalType": "address",
              "name": "fundsReceiver",
              "type": "address"
            }
          ],
          "internalType": "struct IGildiExchangeOrderBook.Listing[]",
          "name": "orderedListings",
          "type": "tuple[]"
        },
        {
          "internalType": "uint256",
          "name": "cursor",
          "type": "uint256"
        }
      ],
      "stateMutability": "view",
      "type": "function"
    },
    {
      "inputs": [],
      "name": "gildiExchange",
      "outputs": [
        {
          "internalType": "contract IGildiExchange",
          "name": "",
          "type": "address"
        }
      ],
      "stateMutability": "view",
      "type": "function"
    },
    {
      "inputs": [],
      "name": "gildiManager",
      "outputs": [
        {
          "internalType": "contract IGildiManager",
          "name": "",
          "type": "address"
        }
      ],
      "stateMutability": "view",
      "type": "function"
    },
    {
      "inputs": [
        {
          "internalType": "uint256",
          "name": "_releaseId",
          "type": "uint256"
        },
        {
          "internalType": "address",
          "name": "_seller",
          "type": "address"
        },
        {
          "internalType": "uint256",
          "name": "_pricePerItem",
          "type": "uint256"
        },
        {
          "internalType": "uint256",
          "name": "_quantity",
          "type": "uint256"
        },
        {
          "internalType": "address",
          "name": "_payoutCurrency",
          "type": "address"
        },
        {
          "internalType": "address",
          "name": "_fundsReceiver",
          "type": "address"
        },
        {
          "internalType": "uint16",
          "name": "_slippageBps",
          "type": "uint16"
        }
      ],
      "name": "handleCreateListing",
      "outputs": [],
      "stateMutability": "nonpayable",
      "type": "function"
    },
    {
      "inputs": [
        {
          "internalType": "uint256",
          "name": "_listingId",
          "type": "uint256"
        },
        {
          "internalType": "uint256",
          "name": "_quantityToBuy",
          "type": "uint256"
        }
      ],
      "name": "handleDecreaseListingQuantity",
      "outputs": [],
      "stateMutability": "nonpayable",
      "type": "function"
    },
    {
      "inputs": [
        {
          "internalType": "uint256",
          "name": "_listingId",
          "type": "uint256"
        },
        {
          "internalType": "uint256",
          "name": "_pricePerItem",
          "type": "uint256"
        },
        {
          "internalType": "uint256",
          "name": "_quantity",
          "type": "uint256"
        },
        {
          "internalType": "address",
          "name": "_payoutCurrency",
          "type": "address"
        },
        {
          "internalType": "address",
          "name": "_fundsReceiver",
          "type": "address"
        },
        {
          "internalType": "uint16",
          "name": "_slippageBps",
          "type": "uint16"
        }
      ],
      "name": "handleModifyListing",
      "outputs": [],
      "stateMutability": "nonpayable",
      "type": "function"
    },
    {
      "inputs": [
        {
          "internalType": "uint256",
          "name": "_listingId",
          "type": "uint256"
        }
      ],
      "name": "handleRemoveListing",
      "outputs": [],
      "stateMutability": "nonpayable",
      "type": "function"
    },
    {
      "inputs": [
        {
          "internalType": "uint256",
          "name": "_releaseId",
          "type": "uint256"
        },
        {
          "internalType": "uint256",
          "name": "_batchSize",
          "type": "uint256"
        }
      ],
      "name": "handleUnlistReleaseListings",
      "outputs": [
        {
          "internalType": "uint256",
          "name": "processedListings",
          "type": "uint256"
        }
      ],
      "stateMutability": "nonpayable",
      "type": "function"
    },
    {
      "inputs": [
        {
          "internalType": "address",
          "name": "_gildiExchange",
          "type": "address"
        },
        {
          "internalType": "address",
          "name": "_gildiManager",
          "type": "address"
        }
      ],
      "name": "initialize",
      "outputs": [],
      "stateMutability": "nonpayable",
      "type": "function"
    },
    {
      "inputs": [
        {
          "internalType": "uint256",
          "name": "_releaseId",
          "type": "uint256"
        }
      ],
      "name": "listedQuantities",
      "outputs": [
        {
          "internalType": "uint256",
          "name": "",
          "type": "uint256"
        }
      ],
      "stateMutability": "view",
      "type": "function"
    },
    {
      "inputs": [
        {
          "internalType": "uint256",
          "name": "_releaseId",
          "type": "uint256"
        },
        {
          "internalType": "address",
          "name": "_buyer",
          "type": "address"
        },
        {
          "internalType": "uint256",
          "name": "_amountToBuy",
          "type": "uint256"
        }
      ],
      "name": "previewPurchase",
      "outputs": [
        {
          "components": [
            {
              "internalType": "uint256",
              "name": "totalQuantityAvailable",
              "type": "uint256"
            },
            {
              "internalType": "uint256",
              "name": "totalPriceInCurrency",
              "type": "uint256"
            },
            {
              "internalType": "address",
              "name": "currency",
              "type": "address"
            },
            {
              "internalType": "uint256",
              "name": "totalPriceUsd",
              "type": "uint256"
            }
          ],
          "internalType": "struct IGildiExchangeOrderBook.PurchasePreview",
          "name": "",
          "type": "tuple"
        }
      ],
      "stateMutability": "view",
      "type": "function"
    },
    {
      "stateMutability": "payable",
      "type": "receive"
    }
  ],
  "transactionHash": "0xfc1528cc4252b00424f7891be0c6d8ad86a7dbaf7a01df6ec9f4cd056529d491",
  "args": [],
  "numDeployments": 1,
  "solcInputHash": "594efa0505e6449b9b54376cc6a6f699",
  "bytecode": "0x608080604052346100b8577ff0c57e16840df040f15088dc2f81fe391c3923bec73e23a9662efc9c229c6a009081549060ff8260401c166100a957506001600160401b036002600160401b031982821601610064575b6040516129ee90816100be8239f35b6001600160401b031990911681179091556040519081527fc7f505b2f371ae2175ee4913f4499e1f2633a7b5936321eed1cdaeb6115181d290602090a1388080610055565b63f92ee8a960e01b8152600490fd5b600080fdfe6101006040526004361015610039575b361561002757604051631eb49d6d60e11b8152600490fd5b604051631eb49d6d60e11b8152600490fd5b60006080526080513560e01c8063107a274a14611ca457806340538bf214611b7b578063485cc95514611a245780634b3f3b4a1461180c57806352fa313e146117de5780635cad88701461110b578063727ea566146110da578063b7b8514614610e00578063b9344ea514610abf578063c7fd86d014610a95578063cfd24ba514610a37578063d4d5347f14610a0c578063e544e41c14610933578063ea9e580214610560578063f16a1eed146105325763fa8d346b0361000f57346104db5761010236611e81565b608051546001600160a01b0316330361050b5760808051928352600460205251604090205b81831080610528575b1561051d57805460001981019081116104205761014d9082611fd9565b9054608051549194916001600160a01b0316330361050b57808560031b1c608051526003602052604060805120926040519361018885611e97565b80548086526001820154602087015260028201546001600160a01b0390811660408801526003808401546060890152600484015482166080890152600584015460a0890152600684015461ffff1660c0890152600784015460e089015260088401546101008901526009840154610120890152600a840154610140890152600b90930154166101608701529087901b83901c036104ee5760a084015180610456575b50610239828760031b1c6128f0565b60018060a01b03604085015116608051526005602052604060805120946080515b8654808210156104495761026e8289611fd9565b868b60031b1c91549060031b1c14610289575060010161025a565b806000999596979892939919810111610420576102e0926102c26102b46102db936000190185611fd9565b90549060031b1c9184611fd9565b90919082549060031b91821b91600019901b1916179055565b612111565b60a08501516020860151608051526008602052610304604060805120918254612040565b90556020850151608051526004602052604060805120956080515b87548082101561043857610333828a611fd9565b878760031b1c91549060031b1c1461034e575060010161031f565b9594939296919786600019810111610420576102db61037b926102c26102b46104199a6000190185611fd9565b8051602082015190600080516020612999833981519152602060a0600180821b03604087015116950151604051908152a460031b1c608051526003602052604060805120600081556000600182015560805160028201556000600382015560805160048201556000600582015560805160068201556000600782015560006008820155600060098201556000600a820155600b60805191015561201b565b9190610127565b634e487b7160e01b6080515260116004526024608051fd5b50509550939061041993929161037b565b50509591929394506102e0565b60015460408601516020870151926001600160a01b0391821692909116803b156104db5760405163cd3877df60e01b81526080516001600160a01b0390941660048201526024810194909452604484019190915282908180606481010391608051905af180156104e1571561022a576104ce90611ee4565b6080516104db573861022a565b60805180fd5b6040513d608051823e3d90fd5b6024868360405191631dd5343d60e31b835260031b1c6004820152fd5b604051637ac8704360e11b8152600490fd5b602083604051908152f35b5080541515610130565b346104db5760203660031901126104db57600435608051526008602052602060406080512054604051908152f35b346104db5761056e36611e81565b608051546001600160a01b0316330361050b57816080515260036020526040608051208281540361091a576005810191825480821161090857816105b191612040565b835560018201546080515260086020526105d2604060805120918254612040565b905560084291015554156105e7575b60805180f35b608051546001600160a01b0316330361050b5780608051526003602052604060805120816040519161061883611e97565b80548084526001820154602085015260028201546001600160a01b03908116604086015260038301546060860152600483015481166080860152600583015460a0860152600683015461ffff1660c0860152600783015460e086015260088301546101008601526009830154610120860152600a830154610140860152600b90920154909116610160840152036108ef5760a08101518061086a575b506106be826128f0565b60018060a01b03604082015116608051526005602052604060805120906080515b82548082101561086157846106f48386611fd9565b90549060031b1c1461070957506001016106df565b9192909160001981019081116104205761072d926102c26102b46102db9385611fd9565b60a08101516020820151608051526008602052610751604060805120918254612040565b90556020810151608051526004602052604060805120906080515b82548082101561085857846107818386611fd9565b90549060031b1c14610796575060010161076c565b8060009492939419810111610420576107bd926102c26102b46102db936000190185611fd9565b8051602082015190600080516020612999833981519152602060a0600180821b03604087015116950151604051908152a4608051526003602052604060805120600081556000600182015560805160028201556000600382015560805160048201556000600582015560805160068201556000600782015560006008820155600060098201556000600a820155600b608051910155806105e1565b505090506107bd565b5050905061072d565b60015460408301516020840151926001600160a01b0391821692909116803b156104db5760405163cd3877df60e01b81526080516001600160a01b0390941660048201526024810194909452604484019190915282908180606481010391608051905af180156104e157156106b4576108e290611ee4565b6080516104db57826106b4565b604051631dd5343d60e31b815260048101839052602490fd5b604051633ee76a8d60e11b8152600490fd5b604051631dd5343d60e31b815260048101849052602490fd5b346104db5760403660031901126104db5760043561094f611e13565b6080805183905260086020908152905160408120549193926001600160a01b031691905b826080515260058086526040608051208054831015610a02578261099691611fd9565b9054600391821b1c608051528087528560016040608051200154146109c0575b5050600101610973565b926109fa916001939486608051528189526109e086604060805120611fd9565b905490821b1c608051528852604060805120015490612040565b9190866109b6565b8684604051908152f35b346104db576080513660031901126104db57608051546040516001600160a01b039091168152602090f35b346104db5760c03660031901126104db576064356001600160a01b038082168203610a9057610a64611e29565b60a4359161ffff83168303610a90576080515416330361050b576105e192604435602435600435612151565b600080fd5b346104db576080513660031901126104db576001546040516001600160a01b039091168152602090f35b346104db576020806003193601126104db57608051546001600160a01b0316330361050b576004356080515260039081815260406080512060405190610b0482611e97565b805480835260018201548484015260028201546001600160a01b03908116604085015285830154606085015260048084015482166080860152600584015460a0860152600684015461ffff1660c0860152600784015460e086015260088401546101008601526009840154610120860152600a840154610140860152600b9093015416610160840152903503610de75760a081015180610d63575b50610bab6004356128f0565b60018060a01b036040820151166080515260058252604060805120916080515b835480821015610d5957610bdf8286611fd9565b600435915490881b1c14610bf65750600101610bcb565b6000949192939419810190811161042057610c28926102c2610c1b6102db9385611fd9565b905490891b1c9184611fd9565b60a0820151818301516080515260088252610c4a604060805120918254612040565b9055808201516080515260048152604060805120906080515b82548581831015610d4e5750610c798285611fd9565b600435915490881b1c14610c905750600101610c63565b93919284600019810111610420576102db610cb7926102c2610c1b89986000190185611fd9565b805182820151906000805160206129998339815191528460a0600180821b03604087015116950151604051908152a46004356080515252600060406080512091818355816001840155608051600284015582015560805160048201556000600582015560805160068201556000600782015560006008820155600060098201556000600a820155600b608051910155608051608051f35b949293505050610cb7565b5050909150610c28565b600154604083015184840151926001600160a01b0391821692909116803b156104db5760405163cd3877df60e01b81526080516001600160a01b0390941660048201526024810194909452604484019190915282908180606481010391608051905af180156104e15715610b9f57610dda90611ee4565b6080516104db5783610b9f565b6024604051631dd5343d60e31b81526004356004820152fd5b346104db5760e03660031901126104db57610e19611e13565b610e21611e29565b60a43591906001600160a01b03831683036104db5760c4359061ffff821682036104db57608051546001600160a01b0316330361050b5760643515610908576001546001600160a01b0316803b156104db5760405163a25983e560e01b8152608080516001600160a01b0387166004808501919091523560248401526064803560448501529151929390928492918391905af180156104e1576110cb575b5060025493610ecd8561201b565b60025560405191610edd83611e97565b858352600435602084015260018060a01b0385166040840152604435606084015260018060a01b0316608083015261ffff60a083019360643585521660c08301524260e08301524261010083015260805161012083015260805161014083015260018060a01b0316610160820152836080515260036020526040608051208151815560208201516001820155600b600282019160018060a01b03604085015116926bffffffffffffffffffffffff60a01b9384825416179055606084015160038201556004810160018060a01b0360808601511684825416179055845160058201556006810161ffff60c08601511661ffff1982541617905560e0840151600782015561010084015160088201556101208401516009820155610140840151600a820155019161016060018060a01b03910151169082541617905561102760443584600435612787565b5160043560805152600860205261104560406080512091825461204d565b905560018060a01b038116608051526005602052611068826040608051206120e7565b600435608051526004602052611083826040608051206120e7565b604051906044358252606435602083015260018060a01b0316917f1e9d45789795021c76ee4b02700b847667a4f82249aed1f3a7d92b7806d1087e604060043593a460805180f35b6110d490611ee4565b84610ebf565b346104db5760203660031901126104db57600435608051526003602052602060096040608051200154604051908152f35b346104db5760603660031901126104db57611124611e13565b60a05260405161113381611ec9565b608051815260805160208201526080516040820152606060805191015260018060a01b03608051541660c052604051639662022560e01b81526080518160048160c0515afa9081156104e157608051916113bc575b50604435906080519060805192608051600435608051526006602052604060805120549460405195636c493fa160e11b8752600435600488015260208760248160c0515afa9687156104e15760805197611380575b50929190925b80151580611377575b15611323576080515260036020526040608051209260018060a01b0360a0511660018060a01b0360028601541614611317576005840154801561130a578381106113055750825b855161010001516003860154604051633e535d2f60e11b8152600481018290526001600160a01b038b811660248301529199909492909160209186916044918391165afa9384156104e157608051946112cd575b50826112b481936112a8836112ae6112ba966112a86112c09a60099c6120d4565b9061204d565b9d6120d4565b9561204d565b94612040565b9301545b929190926111e3565b935091906020843d6020116112fd575b816112ea60209383611ef7565b810103126104db57925192909182611287565b3d91506112dd565b611233565b50909192600901546112c4565b909192600901546112c4565b608082858989606060405161133781611ec9565b85815260208101928352604081019360018060a01b031684520192835260405193845251602084015260018060a01b039051166040830152516060820152f35b508215156111ec565b9096506020813d6020116113b4575b8161139c60209383611ef7565b810103126104db576113ad9061205a565b95876111dd565b3d915061138f565b90503d9081608051823e6113d08282611ef7565b60208183810103126104db5780516001600160401b0381116104db5760a081830184840103126104db57604051928360a08101106001600160401b0360a0860111176117c65760a084016040528183015160e0526001600160401b0360e051116104db5761014060e0518385010182850103126104db576101e0840160a0850181106001600160401b038211176117c65760405260e051828401015160ff811681036104db5760a0850152602060e051838501010151906001600160401b0382116104db57808401601f8360e05186880101010112156104db578160e051848601010151906114be82611f72565b926114cc6040519485611ef7565b828452602084019180870160208560051b8460e0518a8c0101010101116104db5760208260e051888a01010101925b60208560051b8460e0518a8c0101010101841061165457505050505060c084015260e05182820101604001516001600160a01b03811681036104db5760e084810191909152805183830190810160600151610100860152905101608001516001600160a01b03811681036104db5761012084015260e0518282010160a001516001600160a01b03811681036104db5761014084015260e0518282010160c001516001600160a01b03811681036104db5761016084015260e080518383010101516001600160a01b03811681036104db5761018084015260e0518282010161010001516001600160a01b03811681036104db576101a084015260e051828201016101200151916001600160a01b03831683036104db576080926101c085015260a08401845261162d60208383010161206e565b60208501520160408181015190840152606080820151908401520151608082015281611188565b83516001600160401b0381116104db576080601f1982868c8c60e0519101010101858c010301126104db57604051908160408101106001600160401b036040840111176117c6576116bd89602083888e604088016040528981019460e05191010101010161207d565b825260e051898b010185018101608001516001600160401b0381116104db5789603f8284898f8a81019560e0519101010101010112156104db578960208284898f8560e05191010101010101519161171483611f72565b936117226040519586611ef7565b8385528d6040602087019484848d8d86019560608b029460e0519101010101010101116104db578d928d8a604085858360e051868b010101010101925b8b604060608a028888868c8960e0519101010101010101851061179e5750505050505050505060209282849392848094015281520194019390506114fb565b604093926060602089946117b58a958d018a61207d565b81520196019592509293505061175f565b634e487b7160e01b6080515260416004526024608051fd5b346104db5760203660031901126104db57600435608051526006602052602060406080512054604051908152f35b346104db576060806003193601126104db5760043560243590604435816080515260209060048252604060805120549461184586611f72565b956118536040519788611ef7565b808752611862601f1991611f72565b01368488013760805193608051526006916006845260406080512054805b6119f55750858511156119ec576118978686612040565b905b808210156119e45750955b6118ad87611f89565b946080519787985b828a10806119db575b1561199c57611990611996916118d48c87612007565b51608051526003808a5260406080512090600b604051926118f484611e97565b8054845260018101548d85015260028101546001600160a01b039081166040860152928101548b850152600481015483166080850152600581015460a08501528b81015461ffff1660c0850152600781015460e085015260088101546101008501526009810154610120850152600a81015461014085015201541661016082015261197f828c612007565b5261198a818b612007565b5061201b565b9961201b565b986118b5565b6119cb8888856119ac868e61204d565b90808210156119d3575b50604051938493604085526040850190611e3f565b918301520390f35b9050846119b6565b508181106118be565b9050956118a4565b60805190611899565b948086611a05611a0b938b612007565b5261201b565b9460805152600384526009604060805120015480611880565b346104db5760403660031901126104db57611a3d611dfd565b611a45611e13565b7ff0c57e16840df040f15088dc2f81fe391c3923bec73e23a9662efc9c229c6a009081549260ff8460401c1615916001600160401b03851694851580611b74575b60018097149081611b6a575b159081611b61575b50611b4f5767ffffffffffffffff1981168617855583611b30575b5060805180546001600160a01b03199081166001600160a01b039485161790915585541691161783556002839055611aed5760805180f35b805468ff0000000000000000191690556040519081527fc7f505b2f371ae2175ee4913f4499e1f2633a7b5936321eed1cdaeb6115181d290602090a180806105e1565b68ffffffffffffffffff19166801000000000000000117845585611ab5565b60405163f92ee8a960e01b8152600490fd5b90501587611a9a565b303b159150611a92565b5083611a86565b346104db576020806003193601126104db576001600160a01b039081611b9f611dfd565b1660805152600580825260406080512092835491611bbc83611f89565b946080515b848110611bdf5760405186815280611bdb8189018a611e3f565b0390f35b80611bec60019284611fd9565b9054600391821b1c6080515280885285600b60406080512060405193611c1185611e97565b81548552868201548c86015283600283015416604086015281015460608501528260048201541660808501528781015460a085015261ffff60068201541660c0850152600781015460e085015260088101546101008501526009810154610120850152600a810154610140850152015416610160820152611c92828a612007565b52611c9d8189612007565b5001611bc1565b346104db5760203660031901126104db57611cbd611f18565b5060043560805152600360205261018060406080512060405190611ce082611e97565b8054825260018101546020830152600b60018060a01b039182600282015416604085015260038101546060850152826004820154166080850152600581015460a085015261ffff60068201541660c0850152600781015460e085015260088101546101008501526009810154610120850152600a810154610140850152015416610160820152611d736040518092611d75565bf35b8051825260208101516020830152604081015160018060a01b0380911660408401526060820151606084015280608083015116608084015260a082015160a084015261ffff60c08301511660c084015260e082015160e08401526101008083015190840152610120808301519084015261014080830151908401526101608092015116910152565b600435906001600160a01b0382168203610a9057565b602435906001600160a01b0382168203610a9057565b608435906001600160a01b0382168203610a9057565b90815180825260208080930193019160005b828110611e5f575050505090565b909192938261018082611e756001948951611d75565b01950193929101611e51565b6040906003190112610a90576004359060243590565b61018081019081106001600160401b03821117611eb357604052565b634e487b7160e01b600052604160045260246000fd5b608081019081106001600160401b03821117611eb357604052565b6001600160401b038111611eb357604052565b90601f801991011681019081106001600160401b03821117611eb357604052565b60405190611f2582611e97565b816101606000918281528260208201528260408201528260608201528260808201528260a08201528260c08201528260e08201528261010082015282610120820152826101408201520152565b6001600160401b038111611eb35760051b60200190565b90611f9382611f72565b611fa06040519182611ef7565b8281528092611fb1601f1991611f72565b019060005b828110611fc257505050565b602090611fcd611f18565b82828501015201611fb6565b8054821015611ff15760005260206000200190600090565b634e487b7160e01b600052603260045260246000fd5b8051821015611ff15760209160051b010190565b600019811461202a5760010190565b634e487b7160e01b600052601160045260246000fd5b9190820391821161202a57565b9190820180921161202a57565b51906001600160a01b0382168203610a9057565b519061ffff82168203610a9057565b9190826060910312610a9057604051606081018181106001600160401b03821117611eb35760405260406120cf8183956120b68161205a565b85526120c46020820161205a565b60208601520161206e565b910152565b8181029291811591840414171561202a57565b9081549168010000000000000000831015611eb357826102c291600161210f95018155611fd9565b565b805490811561213b576000199182019161212b8383611fd9565b909182549160031b1b1916905555565b634e487b7160e01b600052603160045260246000fd5b91959490600096838852600394602096868852604094858b20978789540361276f5784156123fe57600589019b8c54868181106000146122eb5761219491612040565b6001805460028d0154918d01805493949390926001600160a01b039283169216823b156122e7578c5163cd3877df60e01b81526001600160a01b039190911660048201526024810191909152604481018590529083908290606490829084905af180156122dd576122c5575b50928c9d9e926122428b7f03e25477b1dc4274373a7929466a81230ed4d559f0cd576121d6bea4aac88ebc9d9e9f9460088d968d995483525220918254612040565b90555b61224e8c6128f0565b8c0155554260088a015561ffff60068a01911661ffff19825416179055600488019160018060a01b0392836bffffffffffffffffffffffff60a01b92168282541617905582600b8a019216908254161790556002600188016122b48582548b5490612787565b5497015416968351928352820152a4565b6122cf8391611ee4565b6122d95738612200565b5080fd5b8b513d85823e3d90fd5b8480fd5b8110612322575b50507f03e25477b1dc4274373a7929466a81230ed4d559f0cd576121d6bea4aac88ebc9798999a9b868692612245565b61232c9087612040565b6001805460028d0154918d01805493949390926001600160a01b039283169216823b156122e7578c5163a25983e560e01b81526001600160a01b039190911660048201526024810191909152604481018590529083908290606490829084905af180156122dd576123ea575b50928c9d9e926123da8b7f03e25477b1dc4274373a7929466a81230ed4d559f0cd576121d6bea4aac88ebc9d9e9f9460088d968d99548352522091825461204d565b90559250819d9c9b9a99506122f2565b6123f48391611ee4565b6122d95738612398565b8b54979b996001600160a01b039950979096955088163303935061275f925050505786855281835280852092815197889461243886611e97565b80548087526001978883015490858901918252848160028601541693888b019485528986015460608c015260049a838c88015416608082015261016084600b60058a01549960a085019a8b5261ffff60068201541660c0860152600781015460e086015260088101546101008601526009810154610120860152600a81015461014086015201541691015203612748578351806126ca575b506124da856128f0565b808351168b526005865289878c20818d905b61265a575b505050835182518c526008875261250c888d20918254612040565b905581518b52888652868b209c8b8b5b61259c575b508b9c9d509388969293600b9c9a99946000805160206129998339815191528560009b98958c9a9651935194511694518951908152a4885252852095818755860155836002860155840155820155600060058201558260068201556000600782015560006008820155600060098201556000600a8201550155565b8e5480821015612654578f6125b2838a92611fd9565b9054908d1b1c146125c657508b018b61251c565b9d9e9192939495969798999a9b9c9d600019810190811161264157946000805160206129998339815191528f9c99949a600b9f9e9c98939660009c612629878f9d988f9c9b6102c28e61261d899f6102db95611fd9565b9054911b1c9184611fd9565b95999c5095995050509397509398999b8e9d50612521565b634e487b7160e01b8f5260118d5260248ffd5b50612521565b8154808210156126c457888c6126708486611fd9565b9054911b1c1461268357508201826124ec565b9192509060001981019081116126b15782916102c28c61261d6102db946126a997611fd9565b8938806124f1565b634e487b7160e01b8e5260118c5260248efd5b506124f1565b818b54168285511690845191813b15612744578a5163cd3877df60e01b81526001600160a01b03909116818e01908152602081019390935260408301939093528d9183919082908490829060600103925af1801561273a57156124d057612733909b919b611ee4565b99386124d0565b88513d8e823e3d90fd5b8e80fd5b8651631dd5343d60e31b8152808a01869052602490fd5b51637ac8704360e11b8152600490fd5b8651631dd5343d60e31b815260048101899052602490fd5b919091600090808252600690602090828252604094868686208054156128e457505083835285852054855260039081845281878720015481106000146127fc57508185528383528585205487865281845260098787200155818552838352858520548552825285600a86862001558352522055565b909192938386526007855286862054865282855282878720015482101560001461285b575050906007929181855283835285852054878652818452600a8787200155818552838352858520548552825285600986862001558352522055565b90928596979552835285852054805b612878575b50505050505050565b80865281845282828888200154116128985750858520600901548061286a565b94925050508181949294526009928084848420015580825284600a948585852001548285528686862001558284528585852001548452848420015581522001553880808080808061286f565b55505060079052502055565b6000908082526003602052604082209060018201805484526006602052604084208281541461298b575b505483526007602052604083209081541461297e575b50816009600a830192835480612965575b500180548061294f57505555565b83549083526003602052600a6040842001555555565b8282015490845260036020528260408520015538612941565b600a820154905538612930565b600984015490553861291a56fe381688c7e132c3df74f88650a504a39f1d591ab9a54bbe57fa80b41a40289e75a2646970667358221220c7306e1aa17e4a87a9af7ff3adc1f67699d319a629507f40749943f54024c6af64736f6c63430008180033",
  "devdoc": {
    "author": "Gildi Company",
    "custom:security-contact": "security@gildi.io",
    "errors": {
      "InvalidInitialization()": [
        {
          "details": "The contract is already initialized."
        }
      ],
      "ListingError(uint256)": [
        {
          "details": "Emitted when a listing ID is invalid or does not match storage data",
          "params": {
            "listingId": "The ID that caused the error"
          }
        }
      ],
      "NotAllowed()": [
        {
          "details": "Emitted when an operation is not allowed for the caller"
        }
      ],
      "NotGildiExchange()": [
        {
          "details": "Error thrown when the caller is not the GildiExchange"
        }
      ],
      "NotInitializing()": [
        {
          "details": "The contract is not initializing."
        }
      ],
      "ParamError()": [
        {
          "details": "Emitted when a function parameter is invalid or out-of-range (e.g. zero batchSize, zero price, etc.)"
        }
      ]
    },
    "events": {
      "Initialized(uint64)": {
        "details": "Triggered when the contract has been initialized or reinitialized."
      },
      "Listed(uint256,uint256,address,uint256,uint256)": {
        "params": {
          "listingId": "The ID of the listing",
          "price": "The price per item",
          "quantity": "The quantity listed",
          "releaseId": "The ID of the release",
          "seller": "The address of the seller"
        }
      },
      "Modified(uint256,uint256,address,uint256,uint256)": {
        "params": {
          "listingId": "The ID of the listing",
          "price": "The new price per item",
          "quantity": "The new quantity",
          "releaseId": "The ID of the release",
          "seller": "The address of the seller"
        }
      },
      "Unlisted(uint256,uint256,address,uint256)": {
        "params": {
          "listingId": "The ID of the listing",
          "quantity": "The quantity unlisted",
          "releaseId": "The ID of the release",
          "seller": "The address of the seller"
        }
      }
    },
    "kind": "dev",
    "methods": {
      "constructor": {
        "custom:oz-upgrades-unsafe-allow": "constructor"
      },
      "getAvailableBuyQuantity(uint256,address)": {
        "params": {
          "_releaseId": "The release ID",
          "_user": "The user address"
        },
        "returns": {
          "_0": "The available quantity to buy"
        }
      },
      "getHeadListingId(uint256)": {
        "params": {
          "_releaseId": "The ID of the release"
        },
        "returns": {
          "_0": "The ID of the listing with the lowest price for this release"
        }
      },
      "getListing(uint256)": {
        "params": {
          "_listingId": "The listing ID"
        },
        "returns": {
          "_0": "The listing"
        }
      },
      "getListingsOfSeller(address)": {
        "params": {
          "_seller": "The address of the seller"
        },
        "returns": {
          "_0": "An array of listings for the seller"
        }
      },
      "getNextListingId(uint256)": {
        "params": {
          "_listingId": "The current listing ID"
        },
        "returns": {
          "_0": "The ID of the next listing with a higher price, or 0 if none exists"
        }
      },
      "getOrderedListings(uint256,uint256,uint256)": {
        "params": {
          "_cursor": "The cursor to start from",
          "_limit": "The limit of listings to return",
          "_releaseId": "The ID of the release"
        },
        "returns": {
          "cursor": "The cursor to continue from",
          "orderedListings": "An array of listings for the release"
        }
      },
      "handleCreateListing(uint256,address,uint256,uint256,address,address,uint16)": {
        "details": "Takes the slippage setting literally, 0 = no slippage, 10000 = 100%, does not make assumptions about the default, caller must know what they are doing",
        "params": {
          "_payoutCurrency": "The payout currency of the listing",
          "_pricePerItem": "The price per item",
          "_quantity": "The quantity being listed",
          "_releaseId": "The ID of the release",
          "_seller": "The address of the seller",
          "_slippageBps": "Optional slippage protection in basis points (100 = 1%, 500 = 5%)"
        }
      },
      "handleDecreaseListingQuantity(uint256,uint256)": {
        "params": {
          "_listingId": "The ID of the listing",
          "_quantityToBuy": "The amount to reduce from the listing's quantity (if this reduces quantity to 0, the listing will be removed)"
        }
      },
      "handleModifyListing(uint256,uint256,uint256,address,address,uint16)": {
        "details": "Takes the slippage setting literally, 0 = no slippage, 10000 = 100%, does not make assumptions about the default, caller must know what they are doing",
        "params": {
          "_listingId": "The ID of the listing to modify",
          "_payoutCurrency": "The new payout currency",
          "_pricePerItem": "The new price per item",
          "_quantity": "The new quantity (if 0, the listing will be removed)",
          "_slippageBps": "Slippage protection in basis points (100 = 1%, 500 = 5%)"
        }
      },
      "handleRemoveListing(uint256)": {
        "params": {
          "_listingId": "The ID of the listing to cancel"
        }
      },
      "handleUnlistReleaseListings(uint256,uint256)": {
        "params": {
          "_batchSize": "The batch size",
          "_releaseId": "The ID of the release"
        },
        "returns": {
          "processedListings": "The number of listings processed"
        }
      },
      "initialize(address,address)": {
        "params": {
          "_gildiExchange": "The address of the GildiExchange contract",
          "_gildiManager": "The address of the GildiManager contract"
        }
      },
      "listedQuantities(uint256)": {
        "params": {
          "_releaseId": "The ID of the release"
        },
        "returns": {
          "_0": "The total quantity listed"
        }
      },
      "previewPurchase(uint256,address,uint256)": {
        "params": {
          "_amountToBuy": "The amount of tokens to buy",
          "_buyer": "The address of the buyer",
          "_releaseId": "The ID of the release to purchase"
        },
        "returns": {
          "_0": "Preview information for the purchase"
        }
      }
    },
    "stateVariables": {
      "headListingIds": {
        "details": "Mapping from release ID to the ID of the listing with the lowest price for that release"
      },
      "listedQuantitiesMap": {
        "details": "Mapping from release ID to the total quantity of tokens listed for that release"
      },
      "listings": {
        "details": "Mapping from listing ID to Listing struct"
      },
      "nextListingId": {
        "details": "The next available listing ID to assign"
      },
      "sellerListings": {
        "details": "Mapping from seller address to an array of their listing IDs"
      },
      "tailListingIds": {
        "details": "Mapping from release ID to the ID of the listing with the highest price for that release"
      },
      "tokenListings": {
        "details": "Mapping from release ID to an array of listing IDs for that release"
      }
    },
    "title": "Gildi Exchange Order Book",
    "version": 1
  },
  "userdoc": {
    "events": {
      "Listed(uint256,uint256,address,uint256,uint256)": {
        "notice": "Emitted when a new listing is created"
      },
      "Modified(uint256,uint256,address,uint256,uint256)": {
        "notice": "Emitted when a listing is modified"
      },
      "Unlisted(uint256,uint256,address,uint256)": {
        "notice": "Emitted when a listing is removed"
      }
    },
    "kind": "user",
    "methods": {
      "getAvailableBuyQuantity(uint256,address)": {
        "notice": "Gets the available buy quantity for a user"
      },
      "getHeadListingId(uint256)": {
        "notice": "Gets the first listing ID (with lowest price) for a specific release"
      },
      "getListing(uint256)": {
        "notice": "Gets a listing by ID"
      },
      "getListingsOfSeller(address)": {
        "notice": "Gets all the listings of a specific seller"
      },
      "getNextListingId(uint256)": {
        "notice": "Gets the next listing ID in the price-ordered linked list"
      },
      "getOrderedListings(uint256,uint256,uint256)": {
        "notice": "Gets all the listings of a specific release, ordered by price"
      },
      "gildiExchange()": {
        "notice": "The GildiExchange contract that this order book is associated with"
      },
      "gildiManager()": {
        "notice": "The GildiManager contract used for token management"
      },
      "handleCreateListing(uint256,address,uint256,uint256,address,address,uint16)": {
        "notice": "Creates a listing"
      },
      "handleDecreaseListingQuantity(uint256,uint256)": {
        "notice": "Decreases a listing's quantity after a purchase"
      },
      "handleModifyListing(uint256,uint256,uint256,address,address,uint16)": {
        "notice": "Modifies an existing listing's price, quantity, and slippage settings"
      },
      "handleRemoveListing(uint256)": {
        "notice": "Removes a listing"
      },
      "handleUnlistReleaseListings(uint256,uint256)": {
        "notice": "Unlists all listings of a release in batches."
      },
      "initialize(address,address)": {
        "notice": "Initializes the contract"
      },
      "listedQuantities(uint256)": {
        "notice": "Gets the total quantity listed for a specific release"
      },
      "previewPurchase(uint256,address,uint256)": {
        "notice": "Preview a purchase"
      }
    },
    "notice": "Manages listings and order book functionality for the Gildi Exchange marketplace.",
    "version": 1
  },
  "storageLayout": {
    "storage": [
      {
        "astId": 18920,
        "contract": "contracts/marketplace/exchange/GildiExchangeOrderBook.sol:GildiExchangeOrderBook",
        "label": "gildiExchange",
        "offset": 0,
        "slot": "0",
        "type": "t_contract(IGildiExchange)12307"
      },
      {
        "astId": 18924,
        "contract": "contracts/marketplace/exchange/GildiExchangeOrderBook.sol:GildiExchangeOrderBook",
        "label": "gildiManager",
        "offset": 0,
        "slot": "1",
        "type": "t_contract(IGildiManager)12034"
      },
      {
        "astId": 18927,
        "contract": "contracts/marketplace/exchange/GildiExchangeOrderBook.sol:GildiExchangeOrderBook",
        "label": "nextListingId",
        "offset": 0,
        "slot": "2",
        "type": "t_uint256"
      },
      {
        "astId": 18933,
        "contract": "contracts/marketplace/exchange/GildiExchangeOrderBook.sol:GildiExchangeOrderBook",
        "label": "listings",
        "offset": 0,
        "slot": "3",
        "type": "t_mapping(t_uint256,t_struct(Listing)12451_storage)"
      },
      {
        "astId": 18939,
        "contract": "contracts/marketplace/exchange/GildiExchangeOrderBook.sol:GildiExchangeOrderBook",
        "label": "tokenListings",
        "offset": 0,
        "slot": "4",
        "type": "t_mapping(t_uint256,t_array(t_uint256)dyn_storage)"
      },
      {
        "astId": 18945,
        "contract": "contracts/marketplace/exchange/GildiExchangeOrderBook.sol:GildiExchangeOrderBook",
        "label": "sellerListings",
        "offset": 0,
        "slot": "5",
        "type": "t_mapping(t_address,t_array(t_uint256)dyn_storage)"
      },
      {
        "astId": 18950,
        "contract": "contracts/marketplace/exchange/GildiExchangeOrderBook.sol:GildiExchangeOrderBook",
        "label": "headListingIds",
        "offset": 0,
        "slot": "6",
        "type": "t_mapping(t_uint256,t_uint256)"
      },
      {
        "astId": 18955,
        "contract": "contracts/marketplace/exchange/GildiExchangeOrderBook.sol:GildiExchangeOrderBook",
        "label": "tailListingIds",
        "offset": 0,
        "slot": "7",
        "type": "t_mapping(t_uint256,t_uint256)"
      },
      {
        "astId": 18960,
        "contract": "contracts/marketplace/exchange/GildiExchangeOrderBook.sol:GildiExchangeOrderBook",
        "label": "listedQuantitiesMap",
        "offset": 0,
        "slot": "8",
        "type": "t_mapping(t_uint256,t_uint256)"
      }
    ],
    "types": {
      "t_address": {
        "encoding": "inplace",
        "label": "address",
        "numberOfBytes": "20"
      },
      "t_array(t_uint256)dyn_storage": {
        "base": "t_uint256",
        "encoding": "dynamic_array",
        "label": "uint256[]",
        "numberOfBytes": "32"
      },
      "t_contract(IGildiExchange)12307": {
        "encoding": "inplace",
        "label": "contract IGildiExchange",
        "numberOfBytes": "20"
      },
      "t_contract(IGildiManager)12034": {
        "encoding": "inplace",
        "label": "contract IGildiManager",
        "numberOfBytes": "20"
      },
      "t_mapping(t_address,t_array(t_uint256)dyn_storage)": {
        "encoding": "mapping",
        "key": "t_address",
        "label": "mapping(address => uint256[])",
        "numberOfBytes": "32",
        "value": "t_array(t_uint256)dyn_storage"
      },
      "t_mapping(t_uint256,t_array(t_uint256)dyn_storage)": {
        "encoding": "mapping",
        "key": "t_uint256",
        "label": "mapping(uint256 => uint256[])",
        "numberOfBytes": "32",
        "value": "t_array(t_uint256)dyn_storage"
      },
      "t_mapping(t_uint256,t_struct(Listing)12451_storage)": {
        "encoding": "mapping",
        "key": "t_uint256",
        "label": "mapping(uint256 => struct IGildiExchangeOrderBook.Listing)",
        "numberOfBytes": "32",
        "value": "t_struct(Listing)12451_storage"
      },
      "t_mapping(t_uint256,t_uint256)": {
        "encoding": "mapping",
        "key": "t_uint256",
        "label": "mapping(uint256 => uint256)",
        "numberOfBytes": "32",
        "value": "t_uint256"
      },
      "t_struct(Listing)12451_storage": {
        "encoding": "inplace",
        "label": "struct IGildiExchangeOrderBook.Listing",
        "members": [
          {
            "astId": 12417,
            "contract": "contracts/marketplace/exchange/GildiExchangeOrderBook.sol:GildiExchangeOrderBook",
            "label": "id",
            "offset": 0,
            "slot": "0",
            "type": "t_uint256"
          },
          {
            "astId": 12420,
            "contract": "contracts/marketplace/exchange/GildiExchangeOrderBook.sol:GildiExchangeOrderBook",
            "label": "releaseId",
            "offset": 0,
            "slot": "1",
            "type": "t_uint256"
          },
          {
            "astId": 12423,
            "contract": "contracts/marketplace/exchange/GildiExchangeOrderBook.sol:GildiExchangeOrderBook",
            "label": "seller",
            "offset": 0,
            "slot": "2",
            "type": "t_address"
          },
          {
            "astId": 12426,
            "contract": "contracts/marketplace/exchange/GildiExchangeOrderBook.sol:GildiExchangeOrderBook",
            "label": "pricePerItem",
            "offset": 0,
            "slot": "3",
            "type": "t_uint256"
          },
          {
            "astId": 12429,
            "contract": "contracts/marketplace/exchange/GildiExchangeOrderBook.sol:GildiExchangeOrderBook",
            "label": "payoutCurrency",
            "offset": 0,
            "slot": "4",
            "type": "t_address"
          },
          {
            "astId": 12432,
            "contract": "contracts/marketplace/exchange/GildiExchangeOrderBook.sol:GildiExchangeOrderBook",
            "label": "quantity",
            "offset": 0,
            "slot": "5",
            "type": "t_uint256"
          },
          {
            "astId": 12435,
            "contract": "contracts/marketplace/exchange/GildiExchangeOrderBook.sol:GildiExchangeOrderBook",
            "label": "slippageBps",
            "offset": 0,
            "slot": "6",
            "type": "t_uint16"
          },
          {
            "astId": 12438,
            "contract": "contracts/marketplace/exchange/GildiExchangeOrderBook.sol:GildiExchangeOrderBook",
            "label": "createdAt",
            "offset": 0,
            "slot": "7",
            "type": "t_uint256"
          },
          {
            "astId": 12441,
            "contract": "contracts/marketplace/exchange/GildiExchangeOrderBook.sol:GildiExchangeOrderBook",
            "label": "modifiedAt",
            "offset": 0,
            "slot": "8",
            "type": "t_uint256"
          },
          {
            "astId": 12444,
            "contract": "contracts/marketplace/exchange/GildiExchangeOrderBook.sol:GildiExchangeOrderBook",
            "label": "nextListingId",
            "offset": 0,
            "slot": "9",
            "type": "t_uint256"
          },
          {
            "astId": 12447,
            "contract": "contracts/marketplace/exchange/GildiExchangeOrderBook.sol:GildiExchangeOrderBook",
            "label": "prevListingId",
            "offset": 0,
            "slot": "10",
            "type": "t_uint256"
          },
          {
            "astId": 12450,
            "contract": "contracts/marketplace/exchange/GildiExchangeOrderBook.sol:GildiExchangeOrderBook",
            "label": "fundsReceiver",
            "offset": 0,
            "slot": "11",
            "type": "t_address"
          }
        ],
        "numberOfBytes": "384"
      },
      "t_uint16": {
        "encoding": "inplace",
        "label": "uint16",
        "numberOfBytes": "2"
      },
      "t_uint256": {
        "encoding": "inplace",
        "label": "uint256",
        "numberOfBytes": "32"
      }
    }
  }
}