{
  "address": "0x4C9DA1D9165597D053479049bE2456df86c74Ab7",
  "abi": [
    {
      "inputs": [],
      "stateMutability": "nonpayable",
      "type": "constructor"
    },
    {
      "inputs": [
        {
          "internalType": "uint256",
          "name": "releaseId",
          "type": "uint256"
        },
        {
          "internalType": "address",
          "name": "participant",
          "type": "address"
        }
      ],
      "name": "FundNotFound",
      "type": "error"
    },
    {
      "inputs": [],
      "name": "InvalidCaller",
      "type": "error"
    },
    {
      "inputs": [],
      "name": "InvalidCurrency",
      "type": "error"
    },
    {
      "inputs": [],
      "name": "InvalidInitialization",
      "type": "error"
    },
    {
      "inputs": [],
      "name": "NotAllowed",
      "type": "error"
    },
    {
      "inputs": [],
      "name": "NotInitializing",
      "type": "error"
    },
    {
      "inputs": [],
      "name": "ParamError",
      "type": "error"
    },
    {
      "inputs": [],
      "name": "ReentrancyGuardReentrantCall",
      "type": "error"
    },
    {
      "inputs": [
        {
          "internalType": "address",
          "name": "token",
          "type": "address"
        }
      ],
      "name": "SafeERC20FailedOperation",
      "type": "error"
    },
    {
      "anonymous": false,
      "inputs": [
        {
          "indexed": true,
          "internalType": "uint256",
          "name": "releaseId",
          "type": "uint256"
        },
        {
          "indexed": true,
          "internalType": "address",
          "name": "fundParticipant",
          "type": "address"
        },
        {
          "indexed": false,
          "internalType": "uint256",
          "name": "amount",
          "type": "uint256"
        },
        {
          "indexed": false,
          "internalType": "address",
          "name": "amountCurrency",
          "type": "address"
        },
        {
          "indexed": false,
          "internalType": "address",
          "name": "payoutCurrency",
          "type": "address"
        }
      ],
      "name": "FundAdded",
      "type": "event"
    },
    {
      "anonymous": false,
      "inputs": [
        {
          "indexed": true,
          "internalType": "uint256",
          "name": "releaseId",
          "type": "uint256"
        },
        {
          "indexed": true,
          "internalType": "address",
          "name": "fundParticipant",
          "type": "address"
        },
        {
          "indexed": true,
          "internalType": "address",
          "name": "returnedTo",
          "type": "address"
        },
        {
          "indexed": false,
          "internalType": "uint256",
          "name": "amount",
          "type": "uint256"
        },
        {
          "indexed": false,
          "internalType": "address",
          "name": "currency",
          "type": "address"
        }
      ],
      "name": "FundCancelled",
      "type": "event"
    },
    {
      "anonymous": false,
      "inputs": [
        {
          "indexed": true,
          "internalType": "uint256",
          "name": "releaseId",
          "type": "uint256"
        },
        {
          "indexed": true,
          "internalType": "address",
          "name": "fundParticipant",
          "type": "address"
        },
        {
          "indexed": false,
          "internalType": "uint256",
          "name": "amount",
          "type": "uint256"
        },
        {
          "indexed": false,
          "internalType": "address",
          "name": "currency",
          "type": "address"
        }
      ],
      "name": "FundClaimed",
      "type": "event"
    },
    {
      "anonymous": false,
      "inputs": [
        {
          "indexed": true,
          "internalType": "uint256",
          "name": "releaseId",
          "type": "uint256"
        },
        {
          "indexed": true,
          "internalType": "address",
          "name": "from",
          "type": "address"
        },
        {
          "indexed": true,
          "internalType": "address",
          "name": "to",
          "type": "address"
        },
        {
          "indexed": false,
          "internalType": "address",
          "name": "sourceToken",
          "type": "address"
        },
        {
          "indexed": false,
          "internalType": "uint256",
          "name": "amount",
          "type": "uint256"
        },
        {
          "indexed": false,
          "internalType": "address",
          "name": "payoutToken",
          "type": "address"
        },
        {
          "indexed": false,
          "internalType": "uint256",
          "name": "swapAmount",
          "type": "uint256"
        },
        {
          "indexed": false,
          "internalType": "bool",
          "name": "swapRequested",
          "type": "bool"
        },
        {
          "indexed": false,
          "internalType": "bool",
          "name": "swapSuccessful",
          "type": "bool"
        },
        {
          "indexed": false,
          "internalType": "uint16",
          "name": "slippageBps",
          "type": "uint16"
        }
      ],
      "name": "FundTransferred",
      "type": "event"
    },
    {
      "anonymous": false,
      "inputs": [
        {
          "indexed": false,
          "internalType": "uint64",
          "name": "version",
          "type": "uint64"
        }
      ],
      "name": "Initialized",
      "type": "event"
    },
    {
      "stateMutability": "payable",
      "type": "fallback"
    },
    {
      "inputs": [],
      "name": "DEFAULT_SLIPPAGE_BPS",
      "outputs": [
        {
          "internalType": "uint16",
          "name": "",
          "type": "uint16"
        }
      ],
      "stateMutability": "view",
      "type": "function"
    },
    {
      "inputs": [],
      "name": "claimAllFunds",
      "outputs": [],
      "stateMutability": "nonpayable",
      "type": "function"
    },
    {
      "inputs": [
        {
          "internalType": "address",
          "name": "_fundParticipant",
          "type": "address"
        },
        {
          "internalType": "uint16",
          "name": "_slippageBps",
          "type": "uint16"
        }
      ],
      "name": "claimAllFunds",
      "outputs": [],
      "stateMutability": "nonpayable",
      "type": "function"
    },
    {
      "inputs": [
        {
          "internalType": "address",
          "name": "_fundParticipant",
          "type": "address"
        }
      ],
      "name": "claimAllFunds",
      "outputs": [],
      "stateMutability": "nonpayable",
      "type": "function"
    },
    {
      "inputs": [
        {
          "internalType": "uint256",
          "name": "_releaseId",
          "type": "uint256"
        }
      ],
      "name": "claimAllFundsByReleaseId",
      "outputs": [],
      "stateMutability": "nonpayable",
      "type": "function"
    },
    {
      "inputs": [
        {
          "internalType": "uint256",
          "name": "_releaseId",
          "type": "uint256"
        },
        {
          "internalType": "address",
          "name": "_fundParticipant",
          "type": "address"
        }
      ],
      "name": "claimFunds",
      "outputs": [],
      "stateMutability": "nonpayable",
      "type": "function"
    },
    {
      "inputs": [
        {
          "internalType": "uint256",
          "name": "_releaseId",
          "type": "uint256"
        },
        {
          "internalType": "address",
          "name": "_fundParticipant",
          "type": "address"
        },
        {
          "internalType": "uint16",
          "name": "_slippageBps",
          "type": "uint16"
        }
      ],
      "name": "claimFunds",
      "outputs": [],
      "stateMutability": "nonpayable",
      "type": "function"
    },
    {
      "inputs": [
        {
          "internalType": "uint256",
          "name": "_releaseId",
          "type": "uint256"
        },
        {
          "internalType": "address",
          "name": "_participant",
          "type": "address"
        }
      ],
      "name": "fetchPendingFundAmounts",
      "outputs": [
        {
          "components": [
            {
              "internalType": "uint256",
              "name": "releaseId",
              "type": "uint256"
            },
            {
              "internalType": "address[]",
              "name": "participants",
              "type": "address[]"
            },
            {
              "components": [
                {
                  "internalType": "uint256",
                  "name": "value",
                  "type": "uint256"
                },
                {
                  "internalType": "address",
                  "name": "currencyAddress",
                  "type": "address"
                }
              ],
              "internalType": "struct IGildiExchangeFundManager.FundAmount[]",
              "name": "amounts",
              "type": "tuple[]"
            },
            {
              "internalType": "bool",
              "name": "claimable",
              "type": "bool"
            }
          ],
          "internalType": "struct GildiExchangeFundManager.PendingFundAmounts[]",
          "name": "",
          "type": "tuple[]"
        }
      ],
      "stateMutability": "view",
      "type": "function"
    },
    {
      "inputs": [
        {
          "internalType": "uint256",
          "name": "_releaseId",
          "type": "uint256"
        },
        {
          "internalType": "address",
          "name": "_participant",
          "type": "address"
        }
      ],
      "name": "getReleaseFundAmount",
      "outputs": [
        {
          "components": [
            {
              "internalType": "uint256",
              "name": "value",
              "type": "uint256"
            },
            {
              "internalType": "address",
              "name": "currencyAddress",
              "type": "address"
            }
          ],
          "internalType": "struct IGildiExchangeFundManager.FundAmount",
          "name": "",
          "type": "tuple"
        }
      ],
      "stateMutability": "view",
      "type": "function"
    },
    {
      "inputs": [
        {
          "internalType": "uint256",
          "name": "_releaseId",
          "type": "uint256"
        }
      ],
      "name": "getReleaseFundParticipants",
      "outputs": [
        {
          "internalType": "address[]",
          "name": "",
          "type": "address[]"
        }
      ],
      "stateMutability": "view",
      "type": "function"
    },
    {
      "inputs": [
        {
          "internalType": "uint256",
          "name": "_releaseId",
          "type": "uint256"
        },
        {
          "internalType": "address",
          "name": "_participant",
          "type": "address"
        },
        {
          "internalType": "uint256",
          "name": "_cursor",
          "type": "uint256"
        },
        {
          "internalType": "uint256",
          "name": "_length",
          "type": "uint256"
        }
      ],
      "name": "getReleaseFunds",
      "outputs": [
        {
          "components": [
            {
              "internalType": "address",
              "name": "buyer",
              "type": "address"
            },
            {
              "internalType": "address",
              "name": "operator",
              "type": "address"
            },
            {
              "internalType": "address",
              "name": "fundParticipant",
              "type": "address"
            },
            {
              "internalType": "bool",
              "name": "isProxyOperation",
              "type": "bool"
            },
            {
              "components": [
                {
                  "internalType": "uint256",
                  "name": "value",
                  "type": "uint256"
                },
                {
                  "internalType": "address",
                  "name": "currencyAddress",
                  "type": "address"
                }
              ],
              "internalType": "struct IGildiExchangeFundManager.FundAmount",
              "name": "amount",
              "type": "tuple"
            },
            {
              "internalType": "address",
              "name": "payoutCurrency",
              "type": "address"
            }
          ],
          "internalType": "struct IGildiExchangeFundManager.Fund[]",
          "name": "funds",
          "type": "tuple[]"
        },
        {
          "internalType": "uint256",
          "name": "nextCursor",
          "type": "uint256"
        }
      ],
      "stateMutability": "view",
      "type": "function"
    },
    {
      "inputs": [],
      "name": "getReleaseIdsWithFunds",
      "outputs": [
        {
          "internalType": "uint256[]",
          "name": "",
          "type": "uint256[]"
        }
      ],
      "stateMutability": "view",
      "type": "function"
    },
    {
      "inputs": [],
      "name": "gildiExchange",
      "outputs": [
        {
          "internalType": "contract IGildiExchange",
          "name": "",
          "type": "address"
        }
      ],
      "stateMutability": "view",
      "type": "function"
    },
    {
      "inputs": [
        {
          "internalType": "uint256",
          "name": "_releaseId",
          "type": "uint256"
        },
        {
          "internalType": "address",
          "name": "_participant",
          "type": "address"
        },
        {
          "internalType": "address",
          "name": "_buyer",
          "type": "address"
        },
        {
          "internalType": "address",
          "name": "_operator",
          "type": "address"
        },
        {
          "internalType": "bool",
          "name": "_isProxyOperation",
          "type": "bool"
        },
        {
          "internalType": "uint256",
          "name": "_amount",
          "type": "uint256"
        },
        {
          "internalType": "address",
          "name": "_amountCurrency",
          "type": "address"
        },
        {
          "internalType": "address",
          "name": "_payoutCurrency",
          "type": "address"
        }
      ],
      "name": "handleAddToFund",
      "outputs": [],
      "stateMutability": "nonpayable",
      "type": "function"
    },
    {
      "inputs": [
        {
          "internalType": "uint256",
          "name": "_releaseId",
          "type": "uint256"
        },
        {
          "internalType": "uint256",
          "name": "_batchSize",
          "type": "uint256"
        }
      ],
      "name": "handleCancelReleaseFunds",
      "outputs": [
        {
          "internalType": "uint256",
          "name": "processed",
          "type": "uint256"
        }
      ],
      "stateMutability": "nonpayable",
      "type": "function"
    },
    {
      "inputs": [
        {
          "internalType": "address",
          "name": "_gildiExchange",
          "type": "address"
        }
      ],
      "name": "initialize",
      "outputs": [],
      "stateMutability": "nonpayable",
      "type": "function"
    },
    {
      "inputs": [
        {
          "internalType": "uint256",
          "name": "_releaseId",
          "type": "uint256"
        }
      ],
      "name": "releaseHasFunds",
      "outputs": [
        {
          "internalType": "bool",
          "name": "",
          "type": "bool"
        }
      ],
      "stateMutability": "view",
      "type": "function"
    },
    {
      "stateMutability": "payable",
      "type": "receive"
    }
  ],
  "transactionHash": "0x73bb90bc7aebe2793ba5e8508f13deabb86016637604b04448f4f92f970d8327",
  "args": [],
  "numDeployments": 1,
  "solcInputHash": "594efa0505e6449b9b54376cc6a6f699",
  "bytecode": "0x60808060405234620000bd577ff0c57e16840df040f15088dc2f81fe391c3923bec73e23a9662efc9c229c6a009081549060ff8260401c16620000ae57506001600160401b036002600160401b03198282160162000068575b6040516145d29081620000c38239f35b6001600160401b031990911681179091556040519081527fc7f505b2f371ae2175ee4913f4499e1f2633a7b5936321eed1cdaeb6115181d290602090a138808062000058565b63f92ee8a960e01b8152600490fd5b600080fdfe608080604052600436101561003a575b50361561002857604051631eb49d6d60e11b8152600490fd5b604051631eb49d6d60e11b8152600490fd5b60003560e01c9081630bd01dcb146125765750806321f22dc5146123d9578063390d6855146123ad57806354b660a71461235e57806356f8ab1f1461234157806392b01b46146121eb5780639a45db0014612133578063a9fb6d89146120a7578063c30be57314612071578063c4d66de814611f17578063cf8626b114611b62578063cf9ab30514611194578063d17a868114610dac578063d4d5347f14610d83578063eb9bafa314610ca9578063ed7b42e3146101805763f85f735814610102573861000f565b3461017b57604036600319011261017b5761011b6128a9565b6000602060405161012b81612962565b8281520152600435600052600560205260406000209060018060a01b0316600052602052604061015d81600020612eff565b8151815181526020918201516001600160a01b031691810191909152f35b600080fd5b3461017b57602036600319011261017b576101996130e9565b6101a4600435613119565b156100285760008054604051639662022560e01b8152916001600160a01b039091169082600481845afa9081156109d857608060209261021394600091610c8e575b500151604051632474521560e21b8152600481019190915233602482015292839190829081906044820190565b03915afa9081156109d857600091610c54575b5015610c4257600435600052600460205260406000208054805b61025857600160008051602061457d83398151915255005b600019810181811161062f5761026e9083612919565b905490600381901b82901c6001600160a01b031615610b0357600054604051631355eead60e21b815260048035908201526001600160a01b039091169190602081602481865afa9081156109d857600091610c08575b5061002857604051639662022560e01b8152600081600481865afa80156109d857608060209161032093600091610bed575b500151604051632474521560e21b8152600481019190915233602482015291829081906044820190565b0381865afa9081156109d857600091610bb3575b501580610b99575b610028576004356000526005602052604060002060018060a01b03848360031b1c166000526020526040600020928354928315610b65576004356000526003602052604060002060018060a01b03838560031b1c16600052602052604060002094855415610b3057600101546001600160a01b0316946103bb90612931565b5060050154604051639662022560e01b81526001600160a01b039091169190600081600481855afa9081156109d85761ffff91602091600091610b15575b5001511690816101f411610b0357600090600092879480158015610afa575b15610645575050506104388660018060a01b03868860031b1c168961449d565b86925b6040519388855287602086015260018060a01b03166040850152606084015215156080830152151560a08201526101f460c082015260018060a01b03828460031b1c1690309060008051602061453d83398151915260e060043592a46004356000526003602052604060002060018060a01b03828460031b1c166000526020526104c86040600020612a1e565b6004356000526005602052604060002060018060a01b03828460031b1c166000526020526000600160408220828155015560043560005260046020526040600020805460005b81811061057a575b50509160008051602061455d83398151915291610563969594935415610569575b604080519485526001600160a01b03958616602086015260039290921b1c9093169260043592a3612ad8565b80610240565b61057460043561427b565b50610537565b6105848184612919565b9054600391821b1c6001600160a01b039081169187901b86901c16146105ac5760010161050e565b92909695949391600019880197881161062f5761061960008051602061455d833981519152946105fb6105e26105639b85612919565b905460039190911b1c6001600160a01b03169184612919565b90919060018060a01b038084549260031b9316831b921b1916179055565b61062281612a95565b9193949596819350610516565b634e487b7160e01b600052601160045260246000fd5b909192506004600060019460405192838092639662022560e01b82525afa9081156109d857600091610ad7575b505161012001516001600160a01b031691826106aa575050506106a38660018060a01b03868860031b1c168961449d565b869261043b565b604051636eb1769f60e11b8152306004820152602481018490526020816044818e5afa80156109d8578a91600091610aa2575b50106109e4575b604051633dccbfc560e01b8152600481018a90526001600160a01b038b8116602483015283166044820152600081606481875afa9081156109d857600090600092610849575b5080610840575b15610824576101f31982019061ffff821161062f5761ffff610754921690612a0b565b92811561080e5760a48a60008d93602095604051988996879563545ac70d60e01b8752600487015260248601528860448601520460648401528c8c60018060a01b039160031b1c1660848401525af1600092816107da575b506107cf57506106a3905086600387901b86901c6001600160a01b03168961449d565b93506001925061043b565b9092506020813d602011610806575b816107f6602093836129ce565b8101031261017b5751918c6107ac565b3d91506107e9565b634e487b7160e01b600052601260045260246000fd5b505050506106a38660018060a01b03868860031b1c168961449d565b50801515610731565b9150503d90816000823e61085d82826129ce565b606081838101031261017b57610872816129ef565b906020810151926040820151906001600160401b03821161017b5760a0828401828501031261017b57604051926108a8846129b3565b6108b3838201612b42565b8452602083820101516001600160401b03811161017b57828201601f828685010101121561017b578084830101516108ea81612ae5565b916108f860405193846129ce565b818352602083019085850160208460051b838a89010101011161017b576020818887010101915b60208460051b838a890101010183106109c057505050506020850152604083820101516001600160401b03811161017b5761096190838301908584010161437c565b6040850152606083820101516001600160401b03811161017b5761098c90838301908584010161437c565b6060850152608083820101516001600160401b03811161017b576080936109b793830192010161437c565b9101528e61072a565b602080916109cd85612b42565b81520192019161091f565b6040513d6000823e3d90fd5b60405163095ea7b360e01b60208083019182526001600160a01b03861660248401526000196044808501919091528352906000908d90610a256064866129ce565b828551925af16000513d82610a86575b505015610a43575b506106e4565b610a8090610a7a60405163095ea7b360e01b60208201528660248201526000604482015260448152610a7481612998565b8d6144e0565b8b6144e0565b8c610a3d565b909150610a9a57508a3b15155b8e80610a35565b600114610a93565b9150506020813d602011610acf575b81610abe602093836129ce565b8101031261017b578990518e6106dd565b3d9150610ab1565b610af491503d806000833e610aec81836129ce565b810190612bbc565b8c610672565b50898114610418565b604051633ee76a8d60e11b8152600490fd5b610b2a91503d806000833e610aec81836129ce565b8b6103f9565b5050604051632eee564760e01b8152600480359082015260039290921b1c6001600160a01b0316602482015280604481010390fd5b50604051632eee564760e01b8152600480359082015260039290921b1c6001600160a01b0316602482015280604481010390fd5b5033600382901b84901c6001600160a01b0316141561033c565b90506020813d602011610be5575b81610bce602093836129ce565b8101031261017b57610bdf906129ef565b86610334565b3d9150610bc1565b610c0291503d806000833e610aec81836129ce565b896102f6565b90506020813d602011610c3a575b81610c23602093836129ce565b8101031261017b57610c34906129ef565b866102c4565b3d9150610c16565b6040516348f5c3ed60e01b8152600490fd5b90506020813d602011610c86575b81610c6f602093836129ce565b8101031261017b57610c80906129ef565b81610226565b3d9150610c62565b610ca391503d806000833e610aec81836129ce565b856101e6565b3461017b5760808060031936011261017b57610cd6610cc66128a9565b6064359060443590600435612f26565b91604051916040830160408452815180915260609160608501936020809201936000915b848310610d0e578780888b60208301520390f35b9091929394958460e0600192895160a08580821b03918281511684528286820151168685015282604082015116604085015288810151151589850152610d6d8882015189860190602090805183528160018060a01b0391015116910152565b01511660c0820152019701959493019190610cfa565b3461017b57600036600319011261017b576000546040516001600160a01b039091168152602090f35b3461017b57604036600319011261017b57600435610dc86128a9565b811561114f5760405191610ddb83612962565b6001835260208301602036823783511561113957525b610dfb8251612e2d565b906000805b8451821015610fe557610e138286612b2e565b5180600052600460205260406000208054908115610fd957906000610e3782612afc565b91610e4181612e9c565b936000915b808310610f25575050508015610f1857610e5f81612afc565b92610e6982612e9c565b9260005b838110610ecf57505050509160019391610ec693610e8a83613119565b9160405193610e9885612998565b84526020840152604083015215156060820152610eb58288612b2e565b52610ec08187612b2e565b506129fc565b915b0190610e00565b6001906001600160a01b03610ee48285612b2e565b5116610ef08289612b2e565b52610efb8185612b2e565b51610f068288612b2e565b52610f118187612b2e565b5001610e6d565b5050505090600190610ec8565b909192610f328484612919565b90546001600160a01b0360039290921b1c8116908b1680151590610fc6575b610fbc57876000526005602052604060002081600052602052604060002090815415610fb15791610f92610fa792600194610f8c848b612b2e565b52612eff565b610f9c828a612b2e565b52610ec08189612b2e565b935b019190610e46565b505092600190610fa9565b5092600190610fa9565b506001600160a01b038b16811415610f51565b50505090600190610ec8565b8390610ff081612e2d565b9160005b82811061110f578360405180916020808301818452825180915260408401918060408360051b8701019401926000905b8382106110315786860387f35b919395509193603f198782030182528386516080908184018151855283820151928486015282518091528360a086019301906000905b8082106110ec5750505060408101519184810360408601528380845192838152019301906000905b8082106110bc57505050906001938392606080910151151591015297019201920186959492939193611024565b8251805186526020908101516001600160a01b03169086015289956040909501949092019160019091019061108f565b82516001600160a01b031685528995948501949092019160019190910190611067565b8061111c60019284612b2e565b516111278287612b2e565b526111328186612b2e565b5001610ff4565b634e487b7160e01b600052603260045260246000fd5b60018054925061115e83612afc565b9260005b81811061117157505050610df1565b8061117c84926128e2565b90549060031b1c61118d8288612b2e565b5201611162565b3461017b57602036600319011261017b576111ad6128bf565b6111b56130e9565b600154805b6111d257600160008051602061457d83398151915255005b600019810181811161062f576111e7906128e2565b9054906111f8828260031b1c613119565b15611b5757818160031b1c60005260046020526040600020918254805b61122c575050505061122690612ad8565b806111ba565b6001600160a01b03861680151590611b23575b611253575b61124d90612ad8565b80611215565b6001600160a01b03861615610b035760018060a01b0360005416604051631355eead60e21b8152838560031b1c6004820152602081602481855afa9081156109d857600091611ae9575b5061002857604051639662022560e01b8152600081600481855afa80156109d85760806020916112f893600091611ace57500151604051632474521560e21b8152600481019190915233602482015291829081906044820190565b0381855afa9081156109d857600091611a94575b501580611a81575b61002857828460031b1c6000526005602052604060002060018060a01b0388166000526020526040600020908154908115611a5357848660031b1c6000526003602052604060002060018060a01b038a16600052602052604060002092835415611a2557600101546001600160a01b03169261138f90612931565b5060050154604051639662022560e01b81526001600160a01b039091169190600081600481855afa9081156109d85761ffff91602091600091611a0a575b5001511690816101f411610b0357600090600092859480158015611a01575b156115a4575050506113ff848c8761449d565b84925b6040519386855285602086015260018060a01b03166040850152606084015215156080830152151560a08201526101f460c082015260018060a01b03891690309060008051602061453d83398151915260e0888a60031b1c92a4838560031b1c6000526003602052604060002060018060a01b03891660005260205261148b6040600020612a1e565b838560031b1c6000526005602052604060002060018060a01b03891660005260205260006001604082208281550155838560031b1c60005260046020526040600020805460005b81811061153b575b50509061124d9392915415611527575b604080519182526001600160a01b03928316602083015291891691600387901b86901c9160008051602061455d8339815191529190a39050611244565b611535858760031b1c61427b565b506114ea565b6115458184612919565b905460039190911b1c6001600160a01b03908116908c1614611569576001016114d2565b94939291908060001981011161062f5761124d956105fb6105e2611591936000190185612919565b61159a81612a95565b909192938a6114da565b909192506004600060019460405192838092639662022560e01b82525afa9081156109d8576000916119e6575b505161012001516001600160a01b0316806115fb575050506115f4848c8761449d565b8492611402565b604051636eb1769f60e11b8152306004820152602481018290526020816044818c5afa80156109d85788916000916119b1575b50106118f4575b604051633dccbfc560e01b8152600481018890526001600160a01b03898116602483015283166044820152600081606481855afa9081156109d857600090600092611765575b508061175c575b1561174d576101f31984019061ffff821161062f5761ffff6116a5921690612a0b565b92801561080e5760405163545ac70d60e01b815260048101899052602481018a905260448101849052930460648401526001600160a01b038e166084840152602090839060a49082906000905af160009281611719575b5061170e5750506115f4848c8761449d565b935060019250611402565b9092506020813d602011611745575b81611735602093836129ce565b8101031261017b5751918e6116fc565b3d9150611728565b505050506115f4848c8761449d565b50801515611682565b9150503d90816000823e61177982826129ce565b606081838101031261017b5761178e816129ef565b906020810151926040820151906001600160401b03821161017b5760a0828401828501031261017b57604051926117c4846129b3565b6117cf838201612b42565b8452602083820101516001600160401b03811161017b57828201601f828685010101121561017b5780848301015161180681612ae5565b9161181460405193846129ce565b818352602083019085850160208460051b838a89010101011161017b576020818887010101915b60208460051b838a890101010183106118dc57505050506020850152604083820101516001600160401b03811161017b5761187d90838301908584010161437c565b6040850152606083820101516001600160401b03811161017b576118a890838301908584010161437c565b6060850152608083820101516001600160401b03811161017b576080936118d393830192010161437c565b9101523861167b565b602080916118e985612b42565b81520192019161183b565b60405163095ea7b360e01b60208083019182526001600160a01b038416602484015260001960448401529060009061193984606481015b03601f1981018652856129ce565b835190828d5af16000513d82611995575b505015611958575b50611635565b61198f9061198960405163095ea7b360e01b60208201528460248201526000604482015260448152610a7a81612998565b896144e0565b8e611952565b9091506119a95750883b15155b388061194a565b6001146119a2565b9150506020813d6020116119de575b816119cd602093836129ce565b8101031261017b578790513861162e565b3d91506119c0565b6119fb91503d806000833e610aec81836129ce565b8e6115d1565b508781146113ec565b611a1f91503d806000833e610aec81836129ce565b8d6113cd565b604051632eee564760e01b8152600388901b87901c60048201526001600160a01b038b166024820152604490fd5b604051632eee564760e01b8152600387901b86901c60048201526001600160a01b038a166024820152604490fd5b50336001600160a01b0388161415611314565b90506020813d602011611ac6575b81611aaf602093836129ce565b8101031261017b57611ac0906129ef565b8861130c565b3d9150611aa2565b611ae391503d806000833e610aec81836129ce565b8b6102f6565b90506020813d602011611b1b575b81611b04602093836129ce565b8101031261017b57611b15906129ef565b8861129d565b3d9150611af7565b50600019810181811161062f57611b3a9085612919565b905460039190911b1c6001600160a01b039081169087161461123f565b505061122690612ad8565b3461017b5761010036600319011261017b57611b7c6128a9565b6044356001600160a01b038116810361017b57606435906001600160a01b038216820361017b5760843590811515820361017b5760c4356001600160a01b038116900361017b5760e4356001600160a01b038116900361017b5760008054604051639662022560e01b81529190829060049082906001600160a01b03165afa9081156109d857600091611efc575b505161010001516001600160a01b03163303610c42576004356000526003602052604060002060018060a01b03851660005260205260406000205415611e9c575b6004356000526003602052604060002060018060a01b038516600052602052604060002091604051611c7c81612962565b60a435815260c4356001600160a01b0316602082015260405192611c9f8461297d565b6001600160a01b0390811684529485166020840190815286861660408501908152921515606085019081526080850192835260e43590961660a08501908152855491969095909391600160401b811015611e8657611d0291600182018155612946565b939093611e7057935183546001600160a01b03199081166001600160a01b039283161785559651600185810180548a1692841692909217909155915160028501805496516001600160a81b03199097169183169190911795151560a01b60ff60a01b1695909517909455905180516003840155602090810151600480850180548916928716929092179091559451600593840180548816918616919091179055933560009081529184526040808320938716835292909352208054611dca9060a43590612e20565b815501805490916001600160a01b03821680611e4857501660c4356001600160a01b03161790555b6040805160a43581526001600160a01b0360c4358116602083015260e435811692820192909252911690600435907fec0c6f71633237438c3cd75ed1c85f0548173de51a81e7ee34a578c37440ac6190606090a3005b60c4356001600160a01b0316149250611df291505057604051631eb3268560e31b8152600490fd5b634e487b7160e01b600052600060045260246000fd5b634e487b7160e01b600052604160045260246000fd5b600435600052600460205260406000208054600160401b811015611e86576105fb81611ece9360018994018155612919565b611ee76004356000526002602052604060002054151590565b611c4b57611ef6600435614437565b50611c4b565b611f1191503d806000833e610aec81836129ce565b85611c0a565b3461017b57602036600319011261017b57611f306128bf565b7ff0c57e16840df040f15088dc2f81fe391c3923bec73e23a9662efc9c229c6a009081549060ff8260401c1615916001600160401b03811680159081612069575b600114908161205f575b159081612056575b506120445767ffffffffffffffff198116600117845582612025575b50611fa86143f6565b611fb06143f6565b600160008051602061457d8339815191525560018060a01b03166bffffffffffffffffffffffff60a01b6000541617600055611fe857005b68ff00000000000000001981541690557fc7f505b2f371ae2175ee4913f4499e1f2633a7b5936321eed1cdaeb6115181d2602060405160018152a1005b68ffffffffffffffffff19166801000000000000000117835583611f9f565b60405163f92ee8a960e01b8152600490fd5b90501585611f83565b303b159150611f7b565b849150611f71565b3461017b57602036600319011261017b57602061209d6004356000526002602052604060002054151590565b6040519015158152f35b3461017b57600036600319011261017b57600180546120c581612afc565b9060005b81811061211057828460405190602080830160208452845180915260206040850195019160005b8281106120fd5785870386f35b83518752958101959281019284016120f0565b8061211b85926128e2565b90549060031b1c61212c8286612b2e565b52016120c9565b3461017b5760208060031936011261017b5760043560005260048152604060002060405190818382549182815201908192600052846000209060005b868282106121ce578686612185828803836129ce565b604051928392818401908285525180915260408401929160005b8281106121ae57505050500390f35b83516001600160a01b03168552869550938101939281019260010161219f565b83546001600160a01b03168552909301926001928301920161216f565b3461017b57604036600319011261017b576122046128bf565b6024906024359061ffff8216820361017b5761221e6130e9565b6001549160018060a01b03908183169284841515955b61224c57600160008051602061457d83398151915255005b60001981810182811161232c57612262906128e2565b9054600391821b1c9061227482613119565b156123205781600052600460205260406000208054805b6122a357505050505061229d90612ad8565b80612234565b8a80969b9a959a999499906122e0575b906122c1916122d057612ad8565b809a959a99949998939861228b565b6122db89898c613a6d565b612ad8565b508981019080821161230b57846122fa6122c19385612919565b905490861b1c1686149091506122b3565b8c634e487b7160e01b60005260116004526000fd5b50505061229d90612ad8565b88634e487b7160e01b60005260116004526000fd5b3461017b57600036600319011261017b5760206040516101f48152f35b3461017b57606036600319011261017b576123776128a9565b60443561ffff8116810361017b57612399916123916130e9565b600435613a6d565b600160008051602061457d83398151915255005b3461017b57604036600319011261017b576123996123c96128a9565b6123d16130e9565b6004356131d7565b3461017b57600036600319011261017b576123f26130e9565b600154805b61240f57600160008051602061457d83398151915255005b6000199080820181811161062f57612426906128e2565b929054600393841b1c9261243984613119565b612450575b505061244a9150612ad8565b806123f7565b60008054604051639662022560e01b81526001600160a01b039692909187169082600481845afa9182156109d8576124c09260809160009161255b575b500151604051632474521560e21b8152600481019190915233602482015260209290918391839190829081906044820190565b03915afa9081156109d857600091612526575b5015610c425760049082600052526040600020948554805b6124f75750505061243e565b8481019080821161062f576122db83612513612520948b612919565b905490881b1c16856131d7565b806124eb565b90508181813d8311612554575b61253d81836129ce565b8101031261017b5761254e906129ef565b876124d3565b503d612533565b61257091503d806000833e610aec81836129ce565b8961248d565b3461017b57604036600319011261017b57600054602491600435916001600160a01b03918435918316330361289a5750916000905b8060005260206004815260406000209081549283151580612891575b15612886576000199283850194851161232c5786946125e591612919565b949054600395861b1c16968160005284835260406000208860005283526040600020955b86548015158061287d575b156127e7578581019081116127d25761262d9088612946565b5090886002928884820160ff815460a01c166000146127bd57600089612690600487875416955b8701960196875416865460405194858094819363a9059cbb60e01b83528a6004840160209093929193604081019460018060a01b031681520152565b03925af160009181612786575b506126ba575b50505050506126b291506129fc565b975b97612609565b1561277a57549154925460408051948552908d166001600160a01b03166020850152908c1692918c169187917f0adc28922429a8215a5d1f826665bec9bdd0118be4fdc15f00412690684b1b7c91a48754801561276557860161271d818a612946565b6127505760058160006126b29681809555816001840155820155828b820155826004820155015588558b808080806126a3565b8c634e487b7160e01b60005260006004526000fd5b8b634e487b7160e01b60005260316004526000fd5b505050509890506126b4565b9091508a81813d83116127b6575b61279e81836129ce565b8101031261017b576127af906129ef565b903861269d565b503d612794565b60008961269060048760018801541695612654565b8a634e487b7160e01b60005260116004526000fd5b509791949350945415612800575b5050509290926125ab565b60049284600052825260406000208160005282526128216040600020612a1e565b8360005260058252604060002090600052815260006001604082208281550155826000528181526128556040600020612a95565b82600052526040600020541561286e575b8580806127f5565b6128778161427b565b50612866565b50828210612614565b602085604051908152f35b508685106125c7565b6348f5c3ed60e01b8152600490fd5b602435906001600160a01b038216820361017b57565b600435906001600160a01b038216820361017b57565b9190820391821161062f57565b6001548110156111395760016000527fb10e2d527612073b26eecdfd717e6a320cf44b4afac2b0732d9fcbe2b7fa0cf60190600090565b80548210156111395760005260206000200190600090565b80541561113957600052602060002090600090565b8054821015611139576000526006602060002091020190600090565b604081019081106001600160401b03821117611e8657604052565b60c081019081106001600160401b03821117611e8657604052565b608081019081106001600160401b03821117611e8657604052565b60a081019081106001600160401b03821117611e8657604052565b90601f801991011681019081106001600160401b03821117611e8657604052565b5190811515820361017b57565b600019811461062f5760010190565b8181029291811591840414171561062f57565b8054600080835581612a2f57505050565b60069282600602926006840403612a8157815260208120918201915b828110612a585750505050565b808285925582600182015582600282015582600382015582600482015582600582015501612a4b565b634e487b7160e01b82526011600452602482fd5b80548015612ac2576000190190612aac8282612919565b81549060018060a01b039060031b1b1916905555565b634e487b7160e01b600052603160045260246000fd5b801561062f576000190190565b6001600160401b038111611e865760051b60200190565b90612b0682612ae5565b612b1360405191826129ce565b8281528092612b24601f1991612ae5565b0190602036910137565b80518210156111395760209160051b010190565b51906001600160a01b038216820361017b57565b519061ffff8216820361017b57565b919082606091031261017b57604051606081018181106001600160401b03821117611e86576040526040612bb7818395612b9e81612b42565b8552612bac60208201612b42565b602086015201612b56565b910152565b906020808383031261017b5782516001600160401b039384821161017b57019060a08284031261017b57604090815194612bf5866129b3565b835181811161017b5784019461014091828783031261017b57845192830183811082821117611e86578552865160ff8116810361017b5783528387015181811161017b5787019082601f8301121561017b57815190612c5382612ae5565b93612c60885195866129ce565b828552868086019360051b8501019381851161017b57878101935b858510612d565750505050508284019190915250848301516001600160a01b0390818116810361017b5784830152606086015160608301526080860151818116810361017b57608083015260a0860151818116810361017b5760a083015260c0860151818116810361017b5760c083015260e0860151818116810361017b5760e08301526101008087015190828216820361017b5783015261012080960151908116810361017b576080958201528552612d36818401612b56565b908501528082015190840152606081015160608401520151608082015290565b845184811161017b57820160809081601f19828703011261017b578b5191612d7d83612962565b612d89868d8401612b65565b83528101519086821161017b570184603f8201121561017b578a8101518c91612dbd612db483612ae5565b935193846129ce565b8183528d8d84019060608094028301019188831161017b57918f8f969492979593015b818110612dfc5750505083809550820152815201940193612c7b565b9193958491939597612e0e8b85612b65565b8152019101918e959391969492612de0565b9190820180921161062f57565b90612e3782612ae5565b604090612e4760405191826129ce565b8381528093612e58601f1991612ae5565b019160009160005b848110612e6e575050505050565b6020908351612e7c81612998565b858152606086849180838501528088850152830152828501015201612e60565b90612ea682612ae5565b604090612eb660405191826129ce565b8381528093612ec7601f1991612ae5565b019160009060005b848110612edd575050505050565b6020908251612eeb81612962565b848152828581830152828701015201612ecf565b90604051612f0c81612962565b825481526001909201546001600160a01b03166020830152565b60009081526003602081815260408084206001600160a01b03958616855282528084208054969897909593949390878a10156130ae5780156130a6575b612f6d908a612e20565b9680881161309e575b50612f8189886128d5565b93612f8b85612ae5565b94612f98845196876129ce565b808652612fa7601f1991612ae5565b019084815b83811061305457505050508398805b888110612fcd57505050505050505090565b8061304d612fdd6001938b612946565b50612fe885846128d5565b908a8760058a5193612ff98561297d565b8281541685528289820154168d8601526130306002820154948d8587169088015260ff60a096871c16151560608801528201612eff565b608086015201541690820152613046828b612b2e565b5288612b2e565b5001612fbb565b855161305f8161297d565b83815283838201528387820152836060820152865161307d81612962565b848152848482015260808201528360a082015282828a010152018590612fac565b965038612f76565b506064612f63565b50508051959750919350840191506001600160401b038211848310176130d5575281529190565b634e487b7160e01b83526041600452602483fd5b60008051602061457d83398151915260028154146131075760029055565b604051633ee5aeb560e01b8152600490fd5b60008054604051631355eead60e21b815260048101849052919290602090839060249082906001600160a01b03165afa9182156131cc57839261318c575b50811561316d575b5061316a5750600190565b90565b61318591506000526002602052604060002054151590565b153861315f565b9091506020813d6020116131c4575b816131a8602093836129ce565b810103126131c0576131b9906129ef565b9038613157565b8280fd5b3d915061319b565b6040513d85823e3d90fd5b6001600160a01b03821615610b0357600054604051631355eead60e21b8152600481018390526001600160a01b039091169190602081602481865afa9081156109d857600091613a33575b5061002857604051639662022560e01b8152600081600481865afa80156109d857608060209161327d93600091613a1857500151604051632474521560e21b8152600481019190915233602482015291829081906044820190565b0381865afa9081156109d8576000916139de575b5015806139cb575b61002857806000526005602052604060002060018060a01b038416600052602052604060002080549283156139a357826000526003602052604060002060018060a01b03861660005260205260406000209182541561397b57600101546001600160a01b03169161330990612931565b5060050154604051639662022560e01b81526001600160a01b039091169190600081600481855afa9081156109d85761ffff91602091600091613960575b5001511690816101f411610b0357600090600092879480158015613957575b156134fe5750505061337986888661449d565b83925b6040519385855287602086015260018060a01b03166040850152606084015215156080830152151560a08201526101f460c082015260018060a01b038516908360008051602061453d83398151915260e03093a4816000526003602052604060002060018060a01b0385166000526020526133fa6040600020612a1e565b816000526005602052604060002060018060a01b0385166000526020526000600160408220828155015581600052600460205260406000209384549460005b868110613490575b5060008051602061455d833981519152939495505415613481575b604080519586526001600160a01b03928316602087015291169390819081015b0390a3565b61348a8461427b565b5061345c565b61349a8183612919565b905460039190911b1c6001600160a01b03908116908416146134be57600101613439565b939495600019810190811161062f5760008051602061455d833981519152946105fb6105e26134ed9385612919565b6134f681612a95565b859493613441565b909192506004600060019460405192838092639662022560e01b82525afa9081156109d85760009161393c575b505161012001516001600160a01b031691826135565750505061354f86888661449d565b839261337c565b604051636eb1769f60e11b8152306004820152602481018490526020816044818b5afa80156109d8578a91600091613907575b501061384e575b604051633dccbfc560e01b8152600481018a90526001600160a01b03888116602483015283166044820152600081606481875afa9081156109d8576000906000926136bb575b50806136b2575b156136a3576101f31982019061ffff821161062f5761ffff613600921690612a0b565b92811561080e5760a48a60008a938e602096604051998a97889663545ac70d60e01b88526004880152602487015289604487015204606485015260018060a01b031660848401525af16000928161366f575b5061366457505061354f86888661449d565b93506001925061337c565b9092506020813d60201161369b575b8161368b602093836129ce565b8101031261017b57519138613652565b3d915061367e565b5050505061354f86888661449d565b508015156135dd565b9150503d90816000823e6136cf82826129ce565b606081838101031261017b576136e4816129ef565b906020810151926040820151906001600160401b03821161017b5760a0828401828501031261017b576040519261371a846129b3565b613725838201612b42565b8452602083820101516001600160401b03811161017b57828201601f828685010101121561017b5780848301015161375c81612ae5565b9161376a60405193846129ce565b818352602083019085850160208460051b838a89010101011161017b57906020828887010101915b60208460051b828a8901010101831061383357505050506020850152604083820101516001600160401b03811161017b576137d490838301908584010161437c565b6040850152606083820101516001600160401b03811161017b576137ff90838301908584010161437c565b6060850152608083820101516001600160401b03811161017b5760809361382a93830192010161437c565b910152386135d6565b602080809361384186612b42565b8152019301929150613792565b60405163095ea7b360e01b60208083019182526001600160a01b0386166024840152600019604484015290600090613889846064810161192b565b835190828c5af16000513d826138eb575b5050156138a8575b50613590565b6138e5906138df60405163095ea7b360e01b602082015286602482015260006044820152604481526138d981612998565b8a6144e0565b886144e0565b386138a2565b9091506138ff5750873b15155b388061389a565b6001146138f8565b9150506020813d602011613934575b81613923602093836129ce565b8101031261017b5789905138613589565b3d9150613916565b61395191503d806000833e610aec81836129ce565b3861352b565b50868114613366565b61397591503d806000833e610aec81836129ce565b38613347565b604051632eee564760e01b8152600481018590526001600160a01b0387166024820152604490fd5b604051632eee564760e01b8152600481018490526001600160a01b0386166024820152604490fd5b50336001600160a01b0384161415613299565b90506020813d602011613a10575b816139f9602093836129ce565b8101031261017b57613a0a906129ef565b38613291565b3d91506139ec565b613a2d91503d806000833e610aec81836129ce565b386102f6565b90506020813d602011613a65575b81613a4e602093836129ce565b8101031261017b57613a5f906129ef565b38613222565b3d9150613a41565b9091906001600160a01b03831615610b0357600054604051631355eead60e21b8152600481018390526001600160a01b0390911690602081602481855afa9081156109d857600091614241575b5061002857604051639662022560e01b8152600081600481855afa80156109d8576080602091613b1593600091613a1857500151604051632474521560e21b8152600481019190915233602482015291829081906044820190565b0381855afa9081156109d857600091614207575b5015806141f4575b61002857816000526005602052604060002060018060a01b038516600052602052604060002090815493841561397b57836000526003602052604060002060018060a01b0387166000526020526040600020928354156141cc57600101546001600160a01b031692613ba290612931565b5060050154604051639662022560e01b81526001600160a01b039091169190600081600481875afa9081156109d85761ffff916020916000916141b1575b50015116928361ffff831611610b0357600080918894801580156141a8575b15613d4857505061ffff939450613c17888a8861449d565b85945b6040519587875289602088015260018060a01b03166040870152606086015215156080850152151560a08401521660c082015260018060a01b038516908360008051602061453d83398151915260e03093a4816000526003602052604060002060018060a01b038516600052602052613c966040600020612a1e565b816000526005602052604060002060018060a01b0385166000526020526000600160408220828155015581600052600460205260406000209384549460005b868110613d1a575060008051602061455d83398151915293949550541561348157604080519586526001600160a01b039283166020870152911693908190810161347c565b613d248183612919565b905460039190911b1c6001600160a01b03908116908416146134be57600101613cd5565b9091506004600060019360405192838092639662022560e01b82525afa9081156109d85760009161418d575b505161012001516001600160a01b03169586613da457505061ffff939450613d9d888a8861449d565b8594613c1a565b604051636eb1769f60e11b8152306004820152602481018890526020816044818c5afa80156109d8578b91600091614158575b50106140ab575b604051633dccbfc560e01b8152600481018b90526001600160a01b038981166024830152831660448201526000816064818b5afa9081156109d857600090600092613f18575b5080613f0f575b15613efb5761ffff861682039061ffff821161062f5761ffff613e4f921690612a0b565b96811561080e5760a48b60008b938f6020966040519d8e97889663545ac70d60e01b88526004880152602487015289604487015204606485015260018060a01b031660848401525af160009681613ec7575b50613eb8575061ffff939450613d9d888a8861449d565b9461ffff945060019250613c1a565b9096506020813d602011613ef3575b81613ee3602093836129ce565b8101031261017b57519538613ea1565b3d9150613ed6565b50505061ffff939450613d9d888a8861449d565b50801515613e2b565b9150503d90816000823e613f2c82826129ce565b606081838101031261017b57613f41816129ef565b906020810151926040820151906001600160401b03821161017b5760a0828401828501031261017b5760405192613f77846129b3565b613f82838201612b42565b8452602083820101516001600160401b03811161017b57828201601f828685010101121561017b57808483010151613fb981612ae5565b91613fc760405193846129ce565b818352602083019085850160208460051b838a89010101011161017b57906020828887010101915b60208460051b828a8901010101831061409057505050506020850152604083820101516001600160401b03811161017b5761403190838301908584010161437c565b6040850152606083820101516001600160401b03811161017b5761405c90838301908584010161437c565b6060850152608083820101516001600160401b03811161017b5760809361408793830192010161437c565b91015238613e24565b602080809361409e86612b42565b8152019301929150613fef565b60405163095ea7b360e01b60208083019182526001600160a01b038a1660248401526000196044840152906000906140e6846064810161192b565b835190828d5af16000513d8261413c575b505015614105575b50613dde565b6141369061198960405163095ea7b360e01b60208201528a60248201526000604482015260448152610a7a81612998565b386140ff565b9091506141505750883b15155b38806140f7565b600114614149565b9150506020813d602011614185575b81614174602093836129ce565b8101031261017b578a905138613dd7565b3d9150614167565b6141a291503d806000833e610aec81836129ce565b38613d74565b50878114613bff565b6141c691503d806000833e610aec81836129ce565b38613be0565b604051632eee564760e01b8152600481018690526001600160a01b0388166024820152604490fd5b50336001600160a01b0385161415613b31565b90506020813d602011614239575b81614222602093836129ce565b8101031261017b57614233906129ef565b38613b29565b3d9150614215565b90506020813d602011614273575b8161425c602093836129ce565b8101031261017b5761426d906129ef565b38613aba565b3d915061424f565b60008181526002602052604081205490919080156143775760001990808201818111614363576001549083820191821161434f57818103614304575b50505060015480156142f0578101906142cf826128e2565b909182549160031b1b19169055600155815260026020526040812055600190565b634e487b7160e01b84526031600452602484fd5b614339614313614322936128e2565b90549060031b1c9283926128e2565b819391549060031b91821b91600019901b19161790565b90558452600260205260408420553880806142b7565b634e487b7160e01b86526011600452602486fd5b634e487b7160e01b85526011600452602485fd5b505090565b9080601f8301121561017b5781519060209161439781612ae5565b936143a560405195866129ce565b81855260208086019260051b82010192831161017b57602001905b8282106143ce575050505090565b81516fffffffffffffffffffffffffffffffff8116810361017b5781529083019083016143c0565b60ff7ff0c57e16840df040f15088dc2f81fe391c3923bec73e23a9662efc9c229c6a005460401c161561442557565b604051631afcd79f60e31b8152600490fd5b60008181526002602052604081205461449857600154600160401b811015614484579082614470614322846001604096016001556128e2565b905560015492815260026020522055600190565b634e487b7160e01b82526041600452602482fd5b905090565b60405163a9059cbb60e01b60208201526001600160a01b039290921660248301526044808301939093529181526144de916144d96064836129ce565b6144e0565b565b906000602091828151910182855af1156109d8576000513d61453357506001600160a01b0381163b155b6145115750565b604051635274afe760e01b81526001600160a01b039091166004820152602490fd5b6001141561450a56fecc38713e5e2de070bfab33e9628de4b3cd0514b73596e57c65f757544ffae4f3c4dc55ebb404cdb4121dc2e8739cb7c2bf00e3d237028f6c485602154d995ee19b779b17422d0df92223018b32b4d1fa46e071723d6817e2486d003becc55f00a2646970667358221220f258e8b0e5bfde84625b57895c406d650500e72bb6d5383d90a93c05f1f6241e64736f6c63430008180033",
  "devdoc": {
    "author": "Gildi Company",
    "custom:security-contact": "security@gildi.io",
    "errors": {
      "FundNotFound(uint256,address)": [
        {
          "details": "Error thrown when a fund is not found",
          "params": {
            "participant": "The address of the fund participant",
            "releaseId": "The ID of the release"
          }
        }
      ],
      "InvalidCaller()": [
        {
          "details": "Emitted when the caller is invalid"
        }
      ],
      "InvalidCurrency()": [
        {
          "details": "Error thrown when an incompatible currency is provided"
        }
      ],
      "InvalidInitialization()": [
        {
          "details": "The contract is already initialized."
        }
      ],
      "NotAllowed()": [
        {
          "details": "Emitted when an operation is not allowed for the caller"
        }
      ],
      "NotInitializing()": [
        {
          "details": "The contract is not initializing."
        }
      ],
      "ParamError()": [
        {
          "details": "Emitted when a function parameter is invalid or out-of-range (e.g. zero batchSize, zero price, etc.)"
        }
      ],
      "ReentrancyGuardReentrantCall()": [
        {
          "details": "Unauthorized reentrant call."
        }
      ],
      "SafeERC20FailedOperation(address)": [
        {
          "details": "An operation with an ERC-20 token failed."
        }
      ]
    },
    "events": {
      "FundAdded(uint256,address,uint256,address,address)": {
        "params": {
          "amount": "The amount added",
          "amountCurrency": "The currency of the fund amount",
          "fundParticipant": "The fund participant (seller or fee participant)",
          "payoutCurrency": "The currency to payout in",
          "releaseId": "The ID of the release"
        }
      },
      "FundCancelled(uint256,address,address,uint256,address)": {
        "params": {
          "amount": "The amount returned",
          "currency": "The currency of the fund",
          "fundParticipant": "The fund participant (seller or fee participant)",
          "releaseId": "The ID of the release",
          "returnedTo": "The address that received the returned funds"
        }
      },
      "FundClaimed(uint256,address,uint256,address)": {
        "params": {
          "amount": "The amount claimed",
          "currency": "The currency of the fund",
          "fundParticipant": "The fund participant (seller or fee participant) claiming funds",
          "releaseId": "The ID of the release"
        }
      },
      "FundTransferred(uint256,address,address,address,uint256,address,uint256,bool,bool,uint16)": {
        "params": {
          "amount": "The amount of source token",
          "from": "The contract address (normally this contract)",
          "payoutToken": "The token received by the recipient (may differ from sourceToken if swapped)",
          "releaseId": "The ID of the release",
          "slippageBps": "The slippage tolerance in basis points used for swaps",
          "sourceToken": "The source token used for payment",
          "swapAmount": "The amount received after swap (if performed)",
          "swapRequested": "Whether a token swap was requested",
          "swapSuccessful": "Whether the swap was successful (if requested)",
          "to": "The fund participant receiving the funds"
        }
      },
      "Initialized(uint64)": {
        "details": "Triggered when the contract has been initialized or reinitialized."
      }
    },
    "kind": "dev",
    "methods": {
      "claimAllFunds(address)": {
        "params": {
          "_fundParticipant": "The address of the fund participant"
        }
      },
      "claimAllFunds(address,uint16)": {
        "params": {
          "_fundParticipant": "The address of the fund participant",
          "_slippageBps": "Optional slippage tolerance in basis points (100 = 1%, 500 = 5%)"
        }
      },
      "claimAllFundsByReleaseId(uint256)": {
        "params": {
          "_releaseId": "The ID of the release"
        }
      },
      "claimFunds(uint256,address)": {
        "params": {
          "_fundParticipant": "The address of the fund participant",
          "_releaseId": "The ID of the release"
        }
      },
      "claimFunds(uint256,address,uint16)": {
        "params": {
          "_fundParticipant": "The address of the fund participant",
          "_releaseId": "The ID of the release",
          "_slippageBps": "Optional slippage tolerance in basis points (100 = 1%, 500 = 5%)"
        }
      },
      "constructor": {
        "custom:oz-upgrades-unsafe-allow": "constructor"
      },
      "fetchPendingFundAmounts(uint256,address)": {
        "details": "if releaseId is 0, fetches for all releases, if participant is 0, fetches for all participants",
        "params": {
          "_participant": "The address of the fund participant",
          "_releaseId": "The ID of the release"
        },
        "returns": {
          "_0": "An array of pending fund amounts with claimable status"
        }
      },
      "getReleaseFundAmount(uint256,address)": {
        "params": {
          "_participant": "The address of the fund participant",
          "_releaseId": "The ID of the release"
        },
        "returns": {
          "_0": "The fund amount details"
        }
      },
      "getReleaseFundParticipants(uint256)": {
        "params": {
          "_releaseId": "The ID of the release"
        },
        "returns": {
          "_0": "An array of participant addresses"
        }
      },
      "getReleaseFunds(uint256,address,uint256,uint256)": {
        "params": {
          "_cursor": "The starting index for pagination",
          "_length": "The number of funds to retrieve",
          "_participant": "The address of the fund participant",
          "_releaseId": "The ID of the release"
        },
        "returns": {
          "funds": "An array of funds",
          "nextCursor": "The next cursor for pagination"
        }
      },
      "getReleaseIdsWithFunds()": {
        "returns": {
          "_0": "An array of release IDs that currently have active funds"
        }
      },
      "handleAddToFund(uint256,address,address,address,bool,uint256,address,address)": {
        "params": {
          "_amount": "The amount to add to fund",
          "_amountCurrency": "The currency of the fund amount",
          "_buyer": "The address of the buyer",
          "_isProxyOperation": "Whether this is a proxy operation",
          "_operator": "The address of the operator",
          "_participant": "The address of the fund participant",
          "_payoutCurrency": "The currency to payout in",
          "_releaseId": "The ID of the release"
        }
      },
      "handleCancelReleaseFunds(uint256,uint256)": {
        "params": {
          "_batchSize": "The number of funds to process in this batch",
          "_releaseId": "The ID of the release"
        },
        "returns": {
          "processed": "The number of funds processed"
        }
      },
      "initialize(address)": {
        "params": {
          "_gildiExchange": "The address of the GildiExchange contract"
        }
      },
      "releaseHasFunds(uint256)": {
        "params": {
          "_releaseId": "The ID of the release"
        },
        "returns": {
          "_0": "True if the release has funds, false otherwise"
        }
      }
    },
    "stateVariables": {
      "releaseFundAmountByParticipant": {
        "details": "releaseId => participant => amount"
      },
      "releaseFundParticipants": {
        "details": "releaseId => participants[]"
      },
      "releaseFundsByParticipant": {
        "details": "releaseId => participant => funds[]"
      }
    },
    "title": "Gildi Exchange Fund Manager",
    "version": 1
  },
  "userdoc": {
    "events": {
      "FundAdded(uint256,address,uint256,address,address)": {
        "notice": "Emitted when an fund is added"
      },
      "FundCancelled(uint256,address,address,uint256,address)": {
        "notice": "Emitted when an fund is cancelled and funds are returned"
      },
      "FundClaimed(uint256,address,uint256,address)": {
        "notice": "Emitted when a user claims funds"
      },
      "FundTransferred(uint256,address,address,address,uint256,address,uint256,bool,bool,uint16)": {
        "notice": "Emitted when funds are transferred to a participant"
      }
    },
    "kind": "user",
    "methods": {
      "DEFAULT_SLIPPAGE_BPS()": {
        "notice": "Default slippage tolerance in basis points (5%)"
      },
      "claimAllFunds()": {
        "notice": "Claims all funds for all participants across all releases"
      },
      "claimAllFunds(address)": {
        "notice": "Claims all funds for a participant across all releases with default slippage (5%)"
      },
      "claimAllFunds(address,uint16)": {
        "notice": "Claims all funds for a participant across all releases"
      },
      "claimAllFundsByReleaseId(uint256)": {
        "notice": "Claims all funds for all participants of a specific release"
      },
      "claimFunds(uint256,address)": {
        "notice": "Claims funds for a participant of a release with default slippage (5%)"
      },
      "claimFunds(uint256,address,uint16)": {
        "notice": "Claims funds for a participant of a release"
      },
      "fetchPendingFundAmounts(uint256,address)": {
        "notice": "Fetches pending fund amounts for a participant and release"
      },
      "getReleaseFundAmount(uint256,address)": {
        "notice": "Gets the total fund amount for a participant of a release"
      },
      "getReleaseFundParticipants(uint256)": {
        "notice": "Gets all fund participants for a release"
      },
      "getReleaseFunds(uint256,address,uint256,uint256)": {
        "notice": "Retrieves funds for a participant of a release"
      },
      "getReleaseIdsWithFunds()": {
        "notice": "Gets all release IDs that have funds"
      },
      "gildiExchange()": {
        "notice": "The GildiExchange contract that calls this contract"
      },
      "handleAddToFund(uint256,address,address,address,bool,uint256,address,address)": {
        "notice": "Adds funds to fund for a participant"
      },
      "handleCancelReleaseFunds(uint256,uint256)": {
        "notice": "Cancels funds for a release in batches"
      },
      "initialize(address)": {
        "notice": "Initializes the contract"
      },
      "releaseHasFunds(uint256)": {
        "notice": "Checks if a release has any funds"
      }
    },
    "notice": "Manages fund functionality for the Gildi Exchange marketplace.",
    "version": 1
  },
  "storageLayout": {
    "storage": [
      {
        "astId": 17136,
        "contract": "contracts/marketplace/exchange/GildiExchangeFundManager.sol:GildiExchangeFundManager",
        "label": "gildiExchange",
        "offset": 0,
        "slot": "0",
        "type": "t_contract(IGildiExchange)12307"
      },
      {
        "astId": 17140,
        "contract": "contracts/marketplace/exchange/GildiExchangeFundManager.sol:GildiExchangeFundManager",
        "label": "releaseIdsWithFunds",
        "offset": 0,
        "slot": "1",
        "type": "t_struct(UintSet)10906_storage"
      },
      {
        "astId": 17149,
        "contract": "contracts/marketplace/exchange/GildiExchangeFundManager.sol:GildiExchangeFundManager",
        "label": "releaseFundsByParticipant",
        "offset": 0,
        "slot": "3",
        "type": "t_mapping(t_uint256,t_mapping(t_address,t_array(t_struct(Fund)12331_storage)dyn_storage))"
      },
      {
        "astId": 17155,
        "contract": "contracts/marketplace/exchange/GildiExchangeFundManager.sol:GildiExchangeFundManager",
        "label": "releaseFundParticipants",
        "offset": 0,
        "slot": "4",
        "type": "t_mapping(t_uint256,t_array(t_address)dyn_storage)"
      },
      {
        "astId": 17163,
        "contract": "contracts/marketplace/exchange/GildiExchangeFundManager.sol:GildiExchangeFundManager",
        "label": "releaseFundAmountByParticipant",
        "offset": 0,
        "slot": "5",
        "type": "t_mapping(t_uint256,t_mapping(t_address,t_struct(FundAmount)12339_storage))"
      }
    ],
    "types": {
      "t_address": {
        "encoding": "inplace",
        "label": "address",
        "numberOfBytes": "20"
      },
      "t_array(t_address)dyn_storage": {
        "base": "t_address",
        "encoding": "dynamic_array",
        "label": "address[]",
        "numberOfBytes": "32"
      },
      "t_array(t_bytes32)dyn_storage": {
        "base": "t_bytes32",
        "encoding": "dynamic_array",
        "label": "bytes32[]",
        "numberOfBytes": "32"
      },
      "t_array(t_struct(Fund)12331_storage)dyn_storage": {
        "base": "t_struct(Fund)12331_storage",
        "encoding": "dynamic_array",
        "label": "struct IGildiExchangeFundManager.Fund[]",
        "numberOfBytes": "32"
      },
      "t_bool": {
        "encoding": "inplace",
        "label": "bool",
        "numberOfBytes": "1"
      },
      "t_bytes32": {
        "encoding": "inplace",
        "label": "bytes32",
        "numberOfBytes": "32"
      },
      "t_contract(IGildiExchange)12307": {
        "encoding": "inplace",
        "label": "contract IGildiExchange",
        "numberOfBytes": "20"
      },
      "t_mapping(t_address,t_array(t_struct(Fund)12331_storage)dyn_storage)": {
        "encoding": "mapping",
        "key": "t_address",
        "label": "mapping(address => struct IGildiExchangeFundManager.Fund[])",
        "numberOfBytes": "32",
        "value": "t_array(t_struct(Fund)12331_storage)dyn_storage"
      },
      "t_mapping(t_address,t_struct(FundAmount)12339_storage)": {
        "encoding": "mapping",
        "key": "t_address",
        "label": "mapping(address => struct IGildiExchangeFundManager.FundAmount)",
        "numberOfBytes": "32",
        "value": "t_struct(FundAmount)12339_storage"
      },
      "t_mapping(t_bytes32,t_uint256)": {
        "encoding": "mapping",
        "key": "t_bytes32",
        "label": "mapping(bytes32 => uint256)",
        "numberOfBytes": "32",
        "value": "t_uint256"
      },
      "t_mapping(t_uint256,t_array(t_address)dyn_storage)": {
        "encoding": "mapping",
        "key": "t_uint256",
        "label": "mapping(uint256 => address[])",
        "numberOfBytes": "32",
        "value": "t_array(t_address)dyn_storage"
      },
      "t_mapping(t_uint256,t_mapping(t_address,t_array(t_struct(Fund)12331_storage)dyn_storage))": {
        "encoding": "mapping",
        "key": "t_uint256",
        "label": "mapping(uint256 => mapping(address => struct IGildiExchangeFundManager.Fund[]))",
        "numberOfBytes": "32",
        "value": "t_mapping(t_address,t_array(t_struct(Fund)12331_storage)dyn_storage)"
      },
      "t_mapping(t_uint256,t_mapping(t_address,t_struct(FundAmount)12339_storage))": {
        "encoding": "mapping",
        "key": "t_uint256",
        "label": "mapping(uint256 => mapping(address => struct IGildiExchangeFundManager.FundAmount))",
        "numberOfBytes": "32",
        "value": "t_mapping(t_address,t_struct(FundAmount)12339_storage)"
      },
      "t_struct(Fund)12331_storage": {
        "encoding": "inplace",
        "label": "struct IGildiExchangeFundManager.Fund",
        "members": [
          {
            "astId": 12314,
            "contract": "contracts/marketplace/exchange/GildiExchangeFundManager.sol:GildiExchangeFundManager",
            "label": "buyer",
            "offset": 0,
            "slot": "0",
            "type": "t_address"
          },
          {
            "astId": 12317,
            "contract": "contracts/marketplace/exchange/GildiExchangeFundManager.sol:GildiExchangeFundManager",
            "label": "operator",
            "offset": 0,
            "slot": "1",
            "type": "t_address"
          },
          {
            "astId": 12320,
            "contract": "contracts/marketplace/exchange/GildiExchangeFundManager.sol:GildiExchangeFundManager",
            "label": "fundParticipant",
            "offset": 0,
            "slot": "2",
            "type": "t_address"
          },
          {
            "astId": 12323,
            "contract": "contracts/marketplace/exchange/GildiExchangeFundManager.sol:GildiExchangeFundManager",
            "label": "isProxyOperation",
            "offset": 20,
            "slot": "2",
            "type": "t_bool"
          },
          {
            "astId": 12327,
            "contract": "contracts/marketplace/exchange/GildiExchangeFundManager.sol:GildiExchangeFundManager",
            "label": "amount",
            "offset": 0,
            "slot": "3",
            "type": "t_struct(FundAmount)12339_storage"
          },
          {
            "astId": 12330,
            "contract": "contracts/marketplace/exchange/GildiExchangeFundManager.sol:GildiExchangeFundManager",
            "label": "payoutCurrency",
            "offset": 0,
            "slot": "5",
            "type": "t_address"
          }
        ],
        "numberOfBytes": "192"
      },
      "t_struct(FundAmount)12339_storage": {
        "encoding": "inplace",
        "label": "struct IGildiExchangeFundManager.FundAmount",
        "members": [
          {
            "astId": 12335,
            "contract": "contracts/marketplace/exchange/GildiExchangeFundManager.sol:GildiExchangeFundManager",
            "label": "value",
            "offset": 0,
            "slot": "0",
            "type": "t_uint256"
          },
          {
            "astId": 12338,
            "contract": "contracts/marketplace/exchange/GildiExchangeFundManager.sol:GildiExchangeFundManager",
            "label": "currencyAddress",
            "offset": 0,
            "slot": "1",
            "type": "t_address"
          }
        ],
        "numberOfBytes": "64"
      },
      "t_struct(Set)10214_storage": {
        "encoding": "inplace",
        "label": "struct EnumerableSet.Set",
        "members": [
          {
            "astId": 10209,
            "contract": "contracts/marketplace/exchange/GildiExchangeFundManager.sol:GildiExchangeFundManager",
            "label": "_values",
            "offset": 0,
            "slot": "0",
            "type": "t_array(t_bytes32)dyn_storage"
          },
          {
            "astId": 10213,
            "contract": "contracts/marketplace/exchange/GildiExchangeFundManager.sol:GildiExchangeFundManager",
            "label": "_positions",
            "offset": 0,
            "slot": "1",
            "type": "t_mapping(t_bytes32,t_uint256)"
          }
        ],
        "numberOfBytes": "64"
      },
      "t_struct(UintSet)10906_storage": {
        "encoding": "inplace",
        "label": "struct EnumerableSet.UintSet",
        "members": [
          {
            "astId": 10905,
            "contract": "contracts/marketplace/exchange/GildiExchangeFundManager.sol:GildiExchangeFundManager",
            "label": "_inner",
            "offset": 0,
            "slot": "0",
            "type": "t_struct(Set)10214_storage"
          }
        ],
        "numberOfBytes": "64"
      },
      "t_uint256": {
        "encoding": "inplace",
        "label": "uint256",
        "numberOfBytes": "32"
      }
    }
  }
}