{
  "address": "0xBB04bfA235F242b31205269dE2db6dFEa2b3f596",
  "abi": [
    {
      "inputs": [],
      "stateMutability": "nonpayable",
      "type": "constructor"
    },
    {
      "inputs": [
        {
          "internalType": "uint256",
          "name": "releaseId",
          "type": "uint256"
        },
        {
          "internalType": "address",
          "name": "participant",
          "type": "address"
        }
      ],
      "name": "FundNotFound",
      "type": "error"
    },
    {
      "inputs": [],
      "name": "InvalidCaller",
      "type": "error"
    },
    {
      "inputs": [],
      "name": "InvalidCurrency",
      "type": "error"
    },
    {
      "inputs": [],
      "name": "InvalidInitialization",
      "type": "error"
    },
    {
      "inputs": [],
      "name": "NotAllowed",
      "type": "error"
    },
    {
      "inputs": [],
      "name": "NotInitializing",
      "type": "error"
    },
    {
      "inputs": [],
      "name": "ParamError",
      "type": "error"
    },
    {
      "inputs": [],
      "name": "ReentrancyGuardReentrantCall",
      "type": "error"
    },
    {
      "inputs": [
        {
          "internalType": "address",
          "name": "token",
          "type": "address"
        }
      ],
      "name": "SafeERC20FailedOperation",
      "type": "error"
    },
    {
      "anonymous": false,
      "inputs": [
        {
          "indexed": true,
          "internalType": "uint256",
          "name": "releaseId",
          "type": "uint256"
        },
        {
          "indexed": true,
          "internalType": "address",
          "name": "fundParticipant",
          "type": "address"
        },
        {
          "indexed": false,
          "internalType": "uint256",
          "name": "amount",
          "type": "uint256"
        },
        {
          "indexed": false,
          "internalType": "address",
          "name": "amountCurrency",
          "type": "address"
        },
        {
          "indexed": false,
          "internalType": "address",
          "name": "payoutCurrency",
          "type": "address"
        }
      ],
      "name": "FundAdded",
      "type": "event"
    },
    {
      "anonymous": false,
      "inputs": [
        {
          "indexed": true,
          "internalType": "uint256",
          "name": "releaseId",
          "type": "uint256"
        },
        {
          "indexed": true,
          "internalType": "address",
          "name": "fundParticipant",
          "type": "address"
        },
        {
          "indexed": true,
          "internalType": "address",
          "name": "returnedTo",
          "type": "address"
        },
        {
          "indexed": false,
          "internalType": "uint256",
          "name": "amount",
          "type": "uint256"
        },
        {
          "indexed": false,
          "internalType": "address",
          "name": "currency",
          "type": "address"
        }
      ],
      "name": "FundCancelled",
      "type": "event"
    },
    {
      "anonymous": false,
      "inputs": [
        {
          "indexed": true,
          "internalType": "uint256",
          "name": "releaseId",
          "type": "uint256"
        },
        {
          "indexed": true,
          "internalType": "address",
          "name": "fundParticipant",
          "type": "address"
        },
        {
          "indexed": false,
          "internalType": "uint256",
          "name": "amount",
          "type": "uint256"
        },
        {
          "indexed": false,
          "internalType": "address",
          "name": "currency",
          "type": "address"
        }
      ],
      "name": "FundClaimed",
      "type": "event"
    },
    {
      "anonymous": false,
      "inputs": [
        {
          "indexed": true,
          "internalType": "uint256",
          "name": "releaseId",
          "type": "uint256"
        },
        {
          "indexed": true,
          "internalType": "address",
          "name": "from",
          "type": "address"
        },
        {
          "indexed": true,
          "internalType": "address",
          "name": "to",
          "type": "address"
        },
        {
          "indexed": false,
          "internalType": "address",
          "name": "sourceToken",
          "type": "address"
        },
        {
          "indexed": false,
          "internalType": "uint256",
          "name": "amount",
          "type": "uint256"
        },
        {
          "indexed": false,
          "internalType": "address",
          "name": "payoutToken",
          "type": "address"
        },
        {
          "indexed": false,
          "internalType": "uint256",
          "name": "swapAmount",
          "type": "uint256"
        },
        {
          "indexed": false,
          "internalType": "bool",
          "name": "swapRequested",
          "type": "bool"
        },
        {
          "indexed": false,
          "internalType": "bool",
          "name": "swapSuccessful",
          "type": "bool"
        },
        {
          "indexed": false,
          "internalType": "uint16",
          "name": "slippageBps",
          "type": "uint16"
        }
      ],
      "name": "FundTransferred",
      "type": "event"
    },
    {
      "anonymous": false,
      "inputs": [
        {
          "indexed": false,
          "internalType": "uint64",
          "name": "version",
          "type": "uint64"
        }
      ],
      "name": "Initialized",
      "type": "event"
    },
    {
      "stateMutability": "payable",
      "type": "fallback"
    },
    {
      "inputs": [],
      "name": "DEFAULT_SLIPPAGE_BPS",
      "outputs": [
        {
          "internalType": "uint16",
          "name": "",
          "type": "uint16"
        }
      ],
      "stateMutability": "view",
      "type": "function"
    },
    {
      "inputs": [],
      "name": "claimAllFunds",
      "outputs": [],
      "stateMutability": "nonpayable",
      "type": "function"
    },
    {
      "inputs": [
        {
          "internalType": "address",
          "name": "_fundParticipant",
          "type": "address"
        },
        {
          "internalType": "uint16",
          "name": "_slippageBps",
          "type": "uint16"
        }
      ],
      "name": "claimAllFunds",
      "outputs": [],
      "stateMutability": "nonpayable",
      "type": "function"
    },
    {
      "inputs": [
        {
          "internalType": "address",
          "name": "_fundParticipant",
          "type": "address"
        }
      ],
      "name": "claimAllFunds",
      "outputs": [],
      "stateMutability": "nonpayable",
      "type": "function"
    },
    {
      "inputs": [
        {
          "internalType": "uint256",
          "name": "_releaseId",
          "type": "uint256"
        }
      ],
      "name": "claimAllFundsByReleaseId",
      "outputs": [],
      "stateMutability": "nonpayable",
      "type": "function"
    },
    {
      "inputs": [
        {
          "internalType": "uint256",
          "name": "_releaseId",
          "type": "uint256"
        },
        {
          "internalType": "address",
          "name": "_fundParticipant",
          "type": "address"
        }
      ],
      "name": "claimFunds",
      "outputs": [],
      "stateMutability": "nonpayable",
      "type": "function"
    },
    {
      "inputs": [
        {
          "internalType": "uint256",
          "name": "_releaseId",
          "type": "uint256"
        },
        {
          "internalType": "address",
          "name": "_fundParticipant",
          "type": "address"
        },
        {
          "internalType": "uint16",
          "name": "_slippageBps",
          "type": "uint16"
        }
      ],
      "name": "claimFunds",
      "outputs": [],
      "stateMutability": "nonpayable",
      "type": "function"
    },
    {
      "inputs": [
        {
          "internalType": "uint256",
          "name": "_releaseId",
          "type": "uint256"
        },
        {
          "internalType": "address",
          "name": "_participant",
          "type": "address"
        }
      ],
      "name": "fetchPendingFundAmounts",
      "outputs": [
        {
          "components": [
            {
              "internalType": "uint256",
              "name": "releaseId",
              "type": "uint256"
            },
            {
              "internalType": "address[]",
              "name": "participants",
              "type": "address[]"
            },
            {
              "components": [
                {
                  "internalType": "uint256",
                  "name": "value",
                  "type": "uint256"
                },
                {
                  "internalType": "address",
                  "name": "currencyAddress",
                  "type": "address"
                }
              ],
              "internalType": "struct IGildiExchangeFundManager.FundAmount[]",
              "name": "amounts",
              "type": "tuple[]"
            },
            {
              "internalType": "bool",
              "name": "claimable",
              "type": "bool"
            }
          ],
          "internalType": "struct GildiExchangeFundManager.PendingFundAmounts[]",
          "name": "",
          "type": "tuple[]"
        }
      ],
      "stateMutability": "view",
      "type": "function"
    },
    {
      "inputs": [
        {
          "internalType": "uint256",
          "name": "_releaseId",
          "type": "uint256"
        },
        {
          "internalType": "address",
          "name": "_participant",
          "type": "address"
        }
      ],
      "name": "getReleaseFundAmount",
      "outputs": [
        {
          "components": [
            {
              "internalType": "uint256",
              "name": "value",
              "type": "uint256"
            },
            {
              "internalType": "address",
              "name": "currencyAddress",
              "type": "address"
            }
          ],
          "internalType": "struct IGildiExchangeFundManager.FundAmount",
          "name": "",
          "type": "tuple"
        }
      ],
      "stateMutability": "view",
      "type": "function"
    },
    {
      "inputs": [
        {
          "internalType": "uint256",
          "name": "_releaseId",
          "type": "uint256"
        }
      ],
      "name": "getReleaseFundParticipants",
      "outputs": [
        {
          "internalType": "address[]",
          "name": "",
          "type": "address[]"
        }
      ],
      "stateMutability": "view",
      "type": "function"
    },
    {
      "inputs": [
        {
          "internalType": "uint256",
          "name": "_releaseId",
          "type": "uint256"
        },
        {
          "internalType": "address",
          "name": "_participant",
          "type": "address"
        },
        {
          "internalType": "uint256",
          "name": "_cursor",
          "type": "uint256"
        },
        {
          "internalType": "uint256",
          "name": "_length",
          "type": "uint256"
        }
      ],
      "name": "getReleaseFunds",
      "outputs": [
        {
          "components": [
            {
              "internalType": "address",
              "name": "buyer",
              "type": "address"
            },
            {
              "internalType": "address",
              "name": "operator",
              "type": "address"
            },
            {
              "internalType": "address",
              "name": "fundParticipant",
              "type": "address"
            },
            {
              "internalType": "bool",
              "name": "isProxyOperation",
              "type": "bool"
            },
            {
              "components": [
                {
                  "internalType": "uint256",
                  "name": "value",
                  "type": "uint256"
                },
                {
                  "internalType": "address",
                  "name": "currencyAddress",
                  "type": "address"
                }
              ],
              "internalType": "struct IGildiExchangeFundManager.FundAmount",
              "name": "amount",
              "type": "tuple"
            },
            {
              "internalType": "address",
              "name": "payoutCurrency",
              "type": "address"
            }
          ],
          "internalType": "struct IGildiExchangeFundManager.Fund[]",
          "name": "funds",
          "type": "tuple[]"
        },
        {
          "internalType": "uint256",
          "name": "nextCursor",
          "type": "uint256"
        }
      ],
      "stateMutability": "view",
      "type": "function"
    },
    {
      "inputs": [],
      "name": "getReleaseIdsWithFunds",
      "outputs": [
        {
          "internalType": "uint256[]",
          "name": "",
          "type": "uint256[]"
        }
      ],
      "stateMutability": "view",
      "type": "function"
    },
    {
      "inputs": [],
      "name": "gildiExchange",
      "outputs": [
        {
          "internalType": "contract IGildiExchange",
          "name": "",
          "type": "address"
        }
      ],
      "stateMutability": "view",
      "type": "function"
    },
    {
      "inputs": [
        {
          "internalType": "uint256",
          "name": "_releaseId",
          "type": "uint256"
        },
        {
          "internalType": "address",
          "name": "_participant",
          "type": "address"
        },
        {
          "internalType": "address",
          "name": "_buyer",
          "type": "address"
        },
        {
          "internalType": "address",
          "name": "_operator",
          "type": "address"
        },
        {
          "internalType": "bool",
          "name": "_isProxyOperation",
          "type": "bool"
        },
        {
          "internalType": "uint256",
          "name": "_amount",
          "type": "uint256"
        },
        {
          "internalType": "address",
          "name": "_amountCurrency",
          "type": "address"
        },
        {
          "internalType": "address",
          "name": "_payoutCurrency",
          "type": "address"
        }
      ],
      "name": "handleAddToFund",
      "outputs": [],
      "stateMutability": "nonpayable",
      "type": "function"
    },
    {
      "inputs": [
        {
          "internalType": "uint256",
          "name": "_releaseId",
          "type": "uint256"
        },
        {
          "internalType": "uint256",
          "name": "_batchSize",
          "type": "uint256"
        }
      ],
      "name": "handleCancelReleaseFunds",
      "outputs": [
        {
          "internalType": "uint256",
          "name": "processed",
          "type": "uint256"
        }
      ],
      "stateMutability": "nonpayable",
      "type": "function"
    },
    {
      "inputs": [
        {
          "internalType": "address",
          "name": "_gildiExchange",
          "type": "address"
        }
      ],
      "name": "initialize",
      "outputs": [],
      "stateMutability": "nonpayable",
      "type": "function"
    },
    {
      "inputs": [
        {
          "internalType": "uint256",
          "name": "_releaseId",
          "type": "uint256"
        }
      ],
      "name": "releaseHasFunds",
      "outputs": [
        {
          "internalType": "bool",
          "name": "",
          "type": "bool"
        }
      ],
      "stateMutability": "view",
      "type": "function"
    },
    {
      "stateMutability": "payable",
      "type": "receive"
    }
  ],
  "transactionHash": "0x8e32ec380670e6e657a2b831bb9ce5cb2fd6bdf345da4805e525c58e3b5c0978",
  "args": [],
  "numDeployments": 2,
  "solcInputHash": "1e10828a34271bc2b619ac58f0876cd3",
  "bytecode": "0x60808060405234620000bd577ff0c57e16840df040f15088dc2f81fe391c3923bec73e23a9662efc9c229c6a009081549060ff8260401c16620000ae57506001600160401b036002600160401b03198282160162000068575b604051614f6e9081620000c38239f35b6001600160401b031990911681179091556040519081527fc7f505b2f371ae2175ee4913f4499e1f2633a7b5936321eed1cdaeb6115181d290602090a138808062000058565b63f92ee8a960e01b8152600490fd5b600080fdfe608080604052600436101561003a575b50361561002857604051631eb49d6d60e11b8152600490fd5b604051631eb49d6d60e11b8152600490fd5b60003560e01c9081630bd01dcb1461371b5750806321f22dc514612c9c578063390d6855146123b457806354b660a71461236557806356f8ab1f1461234957806392b01b46146121f35780639a45db001461213b578063a9fb6d89146120af578063c30be57314612079578063c4d66de814611f1f578063cf8626b114611b6a578063cf9ab3051461119f578063d17a868114610db7578063d4d5347f14610d8e578063eb9bafa314610cb4578063ed7b42e3146101805763f85f735814610102573861000f565b3461017b57604036600319011261017b5761011b613a4e565b6000602060405161012b81613b07565b8281520152600435600052600560205260406000209060018060a01b0316600052602052604061015d816000206140a4565b8151815181526020918201516001600160a01b031691810191909152f35b600080fd5b3461017b57602036600319011261017b5761019961428e565b6101a46004356142be565b156100285760008054604051639662022560e01b8152916001600160a01b039091169082600481845afa9081156109dd57608060209261021394600091610c99575b500151604051632474521560e21b8152600481019190915233602482015292839190829081906044820190565b03915afa9081156109dd57600091610c5f575b5015610c4d57600435600052600460205260406000208054805b610258576001600080516020614f1983398151915255005b60001981018181116106355761026e9083613abe565b905490600381901b82901c6001600160a01b031615610b0e57600054604051631355eead60e21b815260048035908201526001600160a01b039091169190602081602481865afa9081156109dd57600091610c13575b5061002857604051639662022560e01b8152600081600481865afa80156109dd57608060209161032093600091610bf8575b500151604051632474521560e21b8152600481019190915233602482015291829081906044820190565b0381865afa9081156109dd57600091610bbe575b501580610ba4575b610028576004356000526005602052604060002060018060a01b03848360031b1c166000526020526040600020928354928315610b70576004356000526003602052604060002060018060a01b03838560031b1c16600052602052604060002094855415610b3b57600101546001600160a01b0316946103bb90613ad6565b5060050154604051639662022560e01b81526001600160a01b039091169190600081600481855afa9081156109dd5761ffff91602091600091610b20575b500151169081606411610b0e57600090600092879480158015610b05575b1561064b575050506104378660018060a01b03868860031b1c1689614e39565b86925b6040519388855287602086015260018060a01b03166040850152606084015215156080830152151560a0820152606460c082015260018060a01b03828460031b1c16903090600080516020614ed983398151915260e060043592a46004356000526003602052604060002060018060a01b03828460031b1c166000526020526104c66040600020613bc3565b6004356000526005602052604060002060018060a01b03828460031b1c166000526020526000600160408220828155015560043560005260046020526040600020805460005b818110610580575b505091600080516020614ef98339815191529161056996959493541561056f575b604080519485526001600160a01b03958616602086015260039290921b1c909316926004359290819081015b0390a3613c7d565b80610240565b61057a600435614c17565b50610535565b61058a8184613abe565b9054600391821b1c6001600160a01b039081169187901b86901c16146105b25760010161050c565b9290969594939160001988019788116106355761061f600080516020614ef9833981519152946106016105e86105699b85613abe565b905460039190911b1c6001600160a01b03169184613abe565b90919060018060a01b038084549260031b9316831b921b1916179055565b61062881613c3a565b9193949596819350610514565b634e487b7160e01b600052601160045260246000fd5b909192506004600060019460405192838092639662022560e01b82525afa9081156109dd57600091610ae2575b505161012001516001600160a01b031691826106b0575050506106a98660018060a01b03868860031b1c1689614e39565b869261043a565b604051636eb1769f60e11b8152306004820152602481018490526020816044818e5afa80156109dd578a91600091610aad575b50106109e9575b604051633dccbfc560e01b8152600481018a90526001600160a01b038b8116602483015283166044820152600081606481875afa9081156109dd5760009060009261084e575b5080610845575b156108295760631982019061ffff82116106355761ffff610759921690613bb0565b9281156108135760a48a60008d93602095604051988996879563545ac70d60e01b8752600487015260248601528860448601520460648401528c8c60018060a01b039160031b1c1660848401525af1600092816107df575b506107d457506106a9905086600387901b86901c6001600160a01b031689614e39565b93506001925061043a565b9092506020813d60201161080b575b816107fb60209383613b73565b8101031261017b5751918c6107b1565b3d91506107ee565b634e487b7160e01b600052601260045260246000fd5b505050506106a98660018060a01b03868860031b1c1689614e39565b50801515610737565b9150503d90816000823e6108628282613b73565b606081838101031261017b5761087781613b94565b906020810151926040820151906001600160401b03821161017b5760a0828401828501031261017b57604051926108ad84613b58565b6108b8838201613ce7565b8452602083820101516001600160401b03811161017b57828201601f828685010101121561017b578084830101516108ef81613c8a565b916108fd6040519384613b73565b818352602083019085850160208460051b838a89010101011161017b576020818887010101915b60208460051b838a890101010183106109c557505050506020850152604083820101516001600160401b03811161017b57610966908383019085840101614d18565b6040850152606083820101516001600160401b03811161017b57610991908383019085840101614d18565b6060850152608083820101516001600160401b03811161017b576080936109bc938301920101614d18565b9101528e610730565b602080916109d285613ce7565b815201920191610924565b6040513d6000823e3d90fd5b60405163095ea7b360e01b60208083019182526001600160a01b03861660248401526000196044840152906000908d90610a3085606481015b03601f198101875286613b73565b828551925af16000513d82610a91575b505015610a4e575b506106ea565b610a8b90610a8560405163095ea7b360e01b60208201528660248201526000604482015260448152610a7f81613b3d565b8d614e7c565b8b614e7c565b8c610a48565b909150610aa557508a3b15155b8e80610a40565b600114610a9e565b9150506020813d602011610ada575b81610ac960209383613b73565b8101031261017b578990518e6106e3565b3d9150610abc565b610aff91503d806000833e610af78183613b73565b810190613d61565b8c610678565b50898114610417565b604051633ee76a8d60e11b8152600490fd5b610b3591503d806000833e610af78183613b73565b8b6103f9565b5050604051632eee564760e01b8152600480359082015260039290921b1c6001600160a01b0316602482015280604481010390fd5b50604051632eee564760e01b8152600480359082015260039290921b1c6001600160a01b0316602482015280604481010390fd5b5033600382901b84901c6001600160a01b0316141561033c565b90506020813d602011610bf0575b81610bd960209383613b73565b8101031261017b57610bea90613b94565b86610334565b3d9150610bcc565b610c0d91503d806000833e610af78183613b73565b896102f6565b90506020813d602011610c45575b81610c2e60209383613b73565b8101031261017b57610c3f90613b94565b866102c4565b3d9150610c21565b6040516348f5c3ed60e01b8152600490fd5b90506020813d602011610c91575b81610c7a60209383613b73565b8101031261017b57610c8b90613b94565b81610226565b3d9150610c6d565b610cae91503d806000833e610af78183613b73565b856101e6565b3461017b5760808060031936011261017b57610ce1610cd1613a4e565b60643590604435906004356140cb565b91604051916040830160408452815180915260609160608501936020809201936000915b848310610d19578780888b60208301520390f35b9091929394958460e0600192895160a08580821b03918281511684528286820151168685015282604082015116604085015288810151151589850152610d788882015189860190602090805183528160018060a01b0391015116910152565b01511660c0820152019701959493019190610d05565b3461017b57600036600319011261017b576000546040516001600160a01b039091168152602090f35b3461017b57604036600319011261017b57600435610dd3613a4e565b811561115a5760405191610de683613b07565b6001835260208301602036823783511561114457525b610e068251613fd2565b906000805b8451821015610ff057610e1e8286613cd3565b5180600052600460205260406000208054908115610fe457906000610e4282613ca1565b91610e4c81614041565b936000915b808310610f30575050508015610f2357610e6a81613ca1565b92610e7482614041565b9260005b838110610eda57505050509160019391610ed193610e95836142be565b9160405193610ea385613b3d565b84526020840152604083015215156060820152610ec08288613cd3565b52610ecb8187613cd3565b50613ba1565b915b0190610e0b565b6001906001600160a01b03610eef8285613cd3565b5116610efb8289613cd3565b52610f068185613cd3565b51610f118288613cd3565b52610f1c8187613cd3565b5001610e78565b5050505090600190610ed3565b909192610f3d8484613abe565b90546001600160a01b0360039290921b1c8116908b1680151590610fd1575b610fc757876000526005602052604060002081600052602052604060002090815415610fbc5791610f9d610fb292600194610f97848b613cd3565b526140a4565b610fa7828a613cd3565b52610ecb8189613cd3565b935b019190610e51565b505092600190610fb4565b5092600190610fb4565b506001600160a01b038b16811415610f5c565b50505090600190610ed3565b8390610ffb81613fd2565b9160005b82811061111a578360405180916020808301818452825180915260408401918060408360051b8701019401926000905b83821061103c5786860387f35b919395509193603f198782030182528386516080908184018151855283820151928486015282518091528360a086019301906000905b8082106110f75750505060408101519184810360408601528380845192838152019301906000905b8082106110c75750505090600193839260608091015115159101529701920192018695949293919361102f565b8251805186526020908101516001600160a01b03169086015289956040909501949092019160019091019061109a565b82516001600160a01b031685528995948501949092019160019190910190611072565b8061112760019284613cd3565b516111328287613cd3565b5261113d8186613cd3565b5001610fff565b634e487b7160e01b600052603260045260246000fd5b60018054925061116983613ca1565b9260005b81811061117c57505050610dfc565b806111878492613a87565b90549060031b1c6111988288613cd3565b520161116d565b3461017b57602036600319011261017b576111b8613a64565b6111c061428e565b600154805b6111dd576001600080516020614f1983398151915255005b6000198101818111610635576111f290613a87565b905490611203828260031b1c6142be565b15611b5f57818160031b1c60005260046020526040600020918254805b611237575050505061123190613c7d565b806111c5565b6001600160a01b03861680151590611b2b575b61125e575b61125890613c7d565b80611220565b6001600160a01b03861615610b0e5760018060a01b0360005416604051631355eead60e21b8152838560031b1c6004820152602081602481855afa9081156109dd57600091611af1575b5061002857604051639662022560e01b8152600081600481855afa80156109dd57608060209161130393600091611ad657500151604051632474521560e21b8152600481019190915233602482015291829081906044820190565b0381855afa9081156109dd57600091611a9c575b501580611a89575b61002857828460031b1c6000526005602052604060002060018060a01b0388166000526020526040600020908154908115611a5b57848660031b1c6000526003602052604060002060018060a01b038a16600052602052604060002092835415611a2d57600101546001600160a01b03169261139a90613ad6565b5060050154604051639662022560e01b81526001600160a01b039091169190600081600481855afa9081156109dd5761ffff91602091600091611a12575b500151169081606411610b0e57600090600092859480158015611a09575b156115ad57505050611409848c87614e39565b84925b6040519386855285602086015260018060a01b03166040850152606084015215156080830152151560a0820152606460c082015260018060a01b038916903090600080516020614ed983398151915260e0888a60031b1c92a4838560031b1c6000526003602052604060002060018060a01b0389166000526020526114946040600020613bc3565b838560031b1c6000526005602052604060002060018060a01b03891660005260205260006001604082208281550155838560031b1c60005260046020526040600020805460005b818110611544575b5050906112589392915415611530575b604080519182526001600160a01b03928316602083015291891691600387901b86901c91600080516020614ef98339815191529190a3905061124f565b61153e858760031b1c614c17565b506114f3565b61154e8184613abe565b905460039190911b1c6001600160a01b03908116908c1614611572576001016114db565b94939291908060001981011161063557611258956106016105e861159a936000190185613abe565b6115a381613c3a565b909192938a6114e3565b909192506004600060019460405192838092639662022560e01b82525afa9081156109dd576000916119ee575b505161012001516001600160a01b031680611604575050506115fd848c87614e39565b849261140c565b604051636eb1769f60e11b8152306004820152602481018290526020816044818c5afa80156109dd5788916000916119b9575b50106118fc575b604051633dccbfc560e01b8152600481018890526001600160a01b03898116602483015283166044820152600081606481855afa9081156109dd5760009060009261176d575b5080611764575b156117555760631984019061ffff82116106355761ffff6116ad921690613bb0565b9280156108135760405163545ac70d60e01b815260048101899052602481018a905260448101849052930460648401526001600160a01b038e166084840152602090839060a49082906000905af160009281611721575b506117165750506115fd848c87614e39565b93506001925061140c565b9092506020813d60201161174d575b8161173d60209383613b73565b8101031261017b5751918e611704565b3d9150611730565b505050506115fd848c87614e39565b5080151561168b565b9150503d90816000823e6117818282613b73565b606081838101031261017b5761179681613b94565b906020810151926040820151906001600160401b03821161017b5760a0828401828501031261017b57604051926117cc84613b58565b6117d7838201613ce7565b8452602083820101516001600160401b03811161017b57828201601f828685010101121561017b5780848301015161180e81613c8a565b9161181c6040519384613b73565b818352602083019085850160208460051b838a89010101011161017b576020818887010101915b60208460051b838a890101010183106118e457505050506020850152604083820101516001600160401b03811161017b57611885908383019085840101614d18565b6040850152606083820101516001600160401b03811161017b576118b0908383019085840101614d18565b6060850152608083820101516001600160401b03811161017b576080936118db938301920101614d18565b91015238611684565b602080916118f185613ce7565b815201920191611843565b60405163095ea7b360e01b60208083019182526001600160a01b038416602484015260001960448401529060009061194184606481015b03601f198101865285613b73565b835190828d5af16000513d8261199d575b505015611960575b5061163e565b6119979061199160405163095ea7b360e01b60208201528460248201526000604482015260448152610a8581613b3d565b89614e7c565b8e61195a565b9091506119b15750883b15155b3880611952565b6001146119aa565b9150506020813d6020116119e6575b816119d560209383613b73565b8101031261017b5787905138611637565b3d91506119c8565b611a0391503d806000833e610af78183613b73565b8e6115da565b508781146113f6565b611a2791503d806000833e610af78183613b73565b8d6113d8565b604051632eee564760e01b8152600388901b87901c60048201526001600160a01b038b166024820152604490fd5b604051632eee564760e01b8152600387901b86901c60048201526001600160a01b038a166024820152604490fd5b50336001600160a01b038816141561131f565b90506020813d602011611ace575b81611ab760209383613b73565b8101031261017b57611ac890613b94565b88611317565b3d9150611aaa565b611aeb91503d806000833e610af78183613b73565b8b6102f6565b90506020813d602011611b23575b81611b0c60209383613b73565b8101031261017b57611b1d90613b94565b886112a8565b3d9150611aff565b50600019810181811161063557611b429085613abe565b905460039190911b1c6001600160a01b039081169087161461124a565b505061123190613c7d565b3461017b5761010036600319011261017b57611b84613a4e565b6044356001600160a01b038116810361017b57606435906001600160a01b038216820361017b5760843590811515820361017b5760c4356001600160a01b038116900361017b5760e4356001600160a01b038116900361017b5760008054604051639662022560e01b81529190829060049082906001600160a01b03165afa9081156109dd57600091611f04575b505161010001516001600160a01b03163303610c4d576004356000526003602052604060002060018060a01b03851660005260205260406000205415611ea4575b6004356000526003602052604060002060018060a01b038516600052602052604060002091604051611c8481613b07565b60a435815260c4356001600160a01b0316602082015260405192611ca784613b22565b6001600160a01b0390811684529485166020840190815286861660408501908152921515606085019081526080850192835260e43590961660a08501908152855491969095909391600160401b811015611e8e57611d0a91600182018155613aeb565b939093611e7857935183546001600160a01b03199081166001600160a01b039283161785559651600185810180548a1692841692909217909155915160028501805496516001600160a81b03199097169183169190911795151560a01b60ff60a01b1695909517909455905180516003840155602090810151600480850180548916928716929092179091559451600593840180548816918616919091179055933560009081529184526040808320938716835292909352208054611dd29060a43590613fc5565b815501805490916001600160a01b03821680611e5057501660c4356001600160a01b03161790555b6040805160a43581526001600160a01b0360c4358116602083015260e435811692820192909252911690600435907fec0c6f71633237438c3cd75ed1c85f0548173de51a81e7ee34a578c37440ac6190606090a3005b60c4356001600160a01b0316149250611dfa91505057604051631eb3268560e31b8152600490fd5b634e487b7160e01b600052600060045260246000fd5b634e487b7160e01b600052604160045260246000fd5b600435600052600460205260406000208054600160401b811015611e8e5761060181611ed69360018994018155613abe565b611eef6004356000526002602052604060002054151590565b611c5357611efe600435614dd3565b50611c53565b611f1991503d806000833e610af78183613b73565b85611c12565b3461017b57602036600319011261017b57611f38613a64565b7ff0c57e16840df040f15088dc2f81fe391c3923bec73e23a9662efc9c229c6a009081549060ff8260401c1615916001600160401b03811680159081612071575b6001149081612067575b15908161205e575b5061204c5767ffffffffffffffff19811660011784558261202d575b50611fb0614d92565b611fb8614d92565b6001600080516020614f198339815191525560018060a01b03166bffffffffffffffffffffffff60a01b6000541617600055611ff057005b68ff00000000000000001981541690557fc7f505b2f371ae2175ee4913f4499e1f2633a7b5936321eed1cdaeb6115181d2602060405160018152a1005b68ffffffffffffffffff19166801000000000000000117835583611fa7565b60405163f92ee8a960e01b8152600490fd5b90501585611f8b565b303b159150611f83565b849150611f79565b3461017b57602036600319011261017b5760206120a56004356000526002602052604060002054151590565b6040519015158152f35b3461017b57600036600319011261017b57600180546120cd81613ca1565b9060005b81811061211857828460405190602080830160208452845180915260206040850195019160005b8281106121055785870386f35b83518752958101959281019284016120f8565b806121238592613a87565b90549060031b1c6121348286613cd3565b52016120d1565b3461017b5760208060031936011261017b5760043560005260048152604060002060405190818382549182815201908192600052846000209060005b868282106121d657868661218d82880383613b73565b604051928392818401908285525180915260408401929160005b8281106121b657505050500390f35b83516001600160a01b0316855286955093810193928101926001016121a7565b83546001600160a01b031685529093019260019283019201612177565b3461017b57604036600319011261017b5761220c613a64565b6024906024359061ffff8216820361017b5761222661428e565b6001549160018060a01b03908183169284841515955b612254576001600080516020614f1983398151915255005b6000198181018281116123345761226a90613a87565b9054600391821b1c9061227c826142be565b156123285781600052600460205260406000208054805b6122ab5750505050506122a590613c7d565b8061223c565b8a80969b9a959a999499906122e8575b906122c9916122d857613c7d565b809a959a999499989398612293565b6122e389898c61437c565b613c7d565b508981019080821161231357846123026122c99385613abe565b905490861b1c1686149091506122bb565b8c634e487b7160e01b60005260116004526000fd5b5050506122a590613c7d565b88634e487b7160e01b60005260116004526000fd5b3461017b57600036600319011261017b57602060405160648152f35b3461017b57606036600319011261017b5761237e613a4e565b60443561ffff8116810361017b576123a09161239861428e565b60043561437c565b6001600080516020614f1983398151915255005b3461017b57604036600319011261017b576123cd613a4e565b6123d561428e565b6001600160a01b03811615610b0e57600054604051631355eead60e21b815260048035908201526001600160a01b039091169190602081602481865afa9081156109dd57600091612c62575b5061002857604051639662022560e01b8152600081600481865afa80156109dd57608060209161247c93600091612c4757500151604051632474521560e21b8152600481019190915233602482015291829081906044820190565b0381865afa9081156109dd57600091612c0d575b501580612bfa575b610028576004356000526005602052604060002060018060a01b0382166000526020526040600020918254908115612bd1576004356000526003602052604060002060018060a01b038416600052602052604060002093845415612ba857600101546001600160a01b03169361250d90613ad6565b5060050154604051639662022560e01b81526001600160a01b039091169190600081600481855afa9081156109dd5761ffff91602091600091612b8d575b500151169081606411610b0e57600090600092859480158015612b84575b1561272b5750505061257c848688614e39565b85925b6040519387855285602086015260018060a01b03166040850152606084015215156080830152151560a0820152606460c082015260018060a01b038316903090600080516020614ed983398151915260e060043592a46004356000526003602052604060002060018060a01b0383166000526020526126016040600020613bc3565b6004356000526005602052604060002060018060a01b038316600052602052600060016040822082815501556004356000526004602052604060002091825460005b8181106126b7575b505061268f90600080516020614ef9833981519152929354156126a6575b604080519485526001600160a01b03958616602086015294169360043593918291820190565b0390a36001600080516020614f1983398151915255005b6126b1600435614c17565b50612669565b6126c18186613abe565b905460039190911b1c6001600160a01b03908116908416146126e557600101612643565b9293600019820193929184116106355761271861268f936106016105e8600080516020614ef98339815191529785613abe565b61272181613c3a565b939281925061264b565b909192506004600060019460405192838092639662022560e01b82525afa9081156109dd57600091612b69575b505161012001516001600160a01b031691826127835750505061277c848688614e39565b859261257f565b604051636eb1769f60e11b8152306004820152602481018490526020816044818d5afa80156109dd578891600091612b34575b5010612a7a575b604051633dccbfc560e01b8152600481018890526001600160a01b038a8116602483015283166044820152600081606481875afa9081156109dd576000906000926128e7575b50806128de575b156128cf5760631982019061ffff82116106355761ffff61282c921690613bb0565b9281156108135760a48860008c93602095604051988996879563545ac70d60e01b87526004870152602486015288604486015204606484015260018060a01b038d1660848401525af16000928161289b575b5061289057505061277c848688614e39565b93506001925061257f565b9092506020813d6020116128c7575b816128b760209383613b73565b8101031261017b5751918961287e565b3d91506128aa565b5050505061277c848688614e39565b5080151561280a565b9150503d90816000823e6128fb8282613b73565b606081838101031261017b5761291081613b94565b906020810151926040820151906001600160401b03821161017b5760a0828401828501031261017b576040519261294684613b58565b612951838201613ce7565b8452602083820101516001600160401b03811161017b57828201601f828685010101121561017b5780848301015161298881613c8a565b916129966040519384613b73565b818352602083019085850160208460051b838a89010101011161017b57906020828887010101915b60208460051b828a89010101018310612a5f57505050506020850152604083820101516001600160401b03811161017b57612a00908383019085840101614d18565b6040850152606083820101516001600160401b03811161017b57612a2b908383019085840101614d18565b6060850152608083820101516001600160401b03811161017b57608093612a56938301920101614d18565b9101528b612803565b6020808093612a6d86613ce7565b81520193019291506129be565b60405163095ea7b360e01b60208083019182526001600160a01b03861660248401526000196044840152906000908c90612ab78560648101610a22565b828551925af16000513d82612b18575b505015612ad5575b506127bd565b612b1290612b0c60405163095ea7b360e01b60208201528660248201526000604482015260448152612b0681613b3d565b8c614e7c565b8a614e7c565b89612acf565b909150612b2c5750893b15155b8b80612ac7565b600114612b25565b9150506020813d602011612b61575b81612b5060209383613b73565b8101031261017b578790518b6127b6565b3d9150612b43565b612b7e91503d806000833e610af78183613b73565b89612758565b50888114612569565b612ba291503d806000833e610af78183613b73565b8861254b565b604051632eee564760e01b815260048035908201526001600160a01b0385166024820152604490fd5b604051632eee564760e01b815260048035908201526001600160a01b0384166024820152604490fd5b50336001600160a01b0382161415612498565b90506020813d602011612c3f575b81612c2860209383613b73565b8101031261017b57612c3990613b94565b83612490565b3d9150612c1b565b612c5c91503d806000833e610af78183613b73565b866102f6565b90506020813d602011612c94575b81612c7d60209383613b73565b8101031261017b57612c8e90613b94565b83612421565b3d9150612c70565b3461017b57600036600319011261017b57612cb561428e565b600154805b612cd2576001600080516020614f1983398151915255005b600019810181811161063557612ce790613a87565b91905491612cf9838260031b1c6142be565b612d0f575b50612d099150613c7d565b80612cba565b60008054604051639662022560e01b8152916001600160a01b039091169082600481845afa9081156109dd576080602092612d789460009161370057500151604051632474521560e21b8152600481019190915233602482015292839190829081906044820190565b03915afa9081156109dd576000916136c6575b5015610c4d57828160031b1c60005260046020526040600020805493845b612db4575050612cfe565b919291600019850185811161063557612dcd9083613abe565b905460039190911b1c6001600160a01b0316948515610b0e5760018060a01b036000541695604051631355eead60e21b8152838760031b1c60048201526020816024818b5afa9081156109dd5760009161368c575b5061002857604051639662022560e01b81526000816004818b5afa80156109dd576080602091612e7d93600091611ad657500151604051632474521560e21b8152600481019190915233602482015291829081906044820190565b03818b5afa9081156109dd57600091613652575b501580613648575b61002857828660031b1c6000526005602052604060002081600052602052604060002096875490811561361a57848860031b1c60005260036020526040600020836000526020526040600020988954156135ec57600101546001600160a01b031698612f0490613ad6565b5060050154604051639662022560e01b81526001600160a01b0390911690600081600481865afa9081156109dd5761ffff916020916000916135d1575b500151169182606411610b0e578492848c6000926000948396801580156135c8575b1561311d575050509085612f7692614e39565b8b925b604051938d855286602086015260018060a01b03166040850152606084015215156080830152151560a0820152606460c08201523090600080516020614ed983398151915260e0888c60031b1c92a4838760031b1c6000526003602052604060002082600052602052612fef6040600020613bc3565b838760031b1c600052600560205260406000208260005260205260006001604082208281550155838760031b1c6000526004602052604060002097885460005b8181106130a0575b5050610561600080516020614ef983398151915291613083969798999a541561308c575b604080519485526001600160a01b03909116602085015260038b901b88901c93918291820190565b93919084612da9565b61309a888c60031b1c614c17565b5061305b565b846130ab828d613abe565b905460039190911b1c6001600160a01b0316146130ca5760010161302f565b90918260009b9798999a9b198101116106355761308396613108610561936106016105e8600080516020614ef9833981519152976000190185613abe565b61311181613c3a565b9a999897965091613037565b935093509550506004600060019360405192838092639662022560e01b82525afa9182156109dd5788968f929389946000916135ad575b505161012001516001600160a01b0316908161317f57505050908561317892614e39565b8b92612f79565b926044929850602091945060405192838092636eb1769f60e11b82523060048301528760248301525afa80156109dd578f9089908993600091613570575b50916132049391600093106134b7575b604051633dccbfc560e01b8152600481018c90526001600160a01b0391821660248201529116604482015291829081906064820190565b0381865afa9081156109dd578f89908b9260009060009561331d575b5080613314575b156133025750505060631982019061ffff82116106355761ffff61324c921690613bb0565b9181156108135788968f9260209060a48b966000604051968794859363545ac70d60e01b85528b60048601528a60248601528860448601520460648401528d60848401525af1600092816132c2575b5088939291906132b2575050906131789291614e39565b9550955050505060019192612f79565b985093509150506020863d6020116132fa575b816132e260209383613b73565b8101031261017b579451879587928f9291908861329b565b3d91506132d5565b91985092506131789350879150614e39565b50831515613227565b9450505050503d90816000823e6133348282613b73565b606081838101031261017b578f9161334b82613b94565b9260208301519360408401516001600160401b03811161017b5760a0818601858701031261017b576040519061338082613b58565b61338b818701613ce7565b8252602081870101516001600160401b03811161017b57858701601f82848a010101121561017b578082880101516133c281613c8a565b916133d06040519384613b73565b8183526020830190888a0160208b83888760051b92010101011161017b57602081868c010101915b60208b83888760051b9201010101831061349f57505050506020830152604081870101516001600160401b03811161017b5761343b908688019083890101614d18565b6040830152606081870101516001600160401b03811161017b57613466908688019083890101614d18565b606083015260808187010151946001600160401b03861161017b578f968f96608093613496938301920101614d18565b91015238613220565b602080916134ac85613ce7565b8152019201916133f8565b60405163095ea7b360e01b60208083019182526001600160a01b038916602484015260001960448401529085906134f18460648101611933565b83519082865af184513d82613551575b50501561350f575b506131cd565b61354b9061354560405163095ea7b360e01b60208201528960248201528660448201526044815261353f81613b3d565b84614e7c565b82614e7c565b38613509565b9091501585146135685750813b15155b3880613501565b600114613561565b93505050506020813d6020116135a5575b8161358e60209383613b73565b8101031261017b575186908f9089906132046131bd565b3d9150613581565b6135c291503d806000833e610af78183613b73565b38613154565b50838114612f63565b6135e691503d806000833e610af78183613b73565b8d612f41565b604051632eee564760e01b815260038a901b87901c60048201526001600160a01b0385166024820152604490fd5b604051632eee564760e01b8152600389901b86901c60048201526001600160a01b0384166024820152604490fd5b5080331415612e99565b90506020813d602011613684575b8161366d60209383613b73565b8101031261017b5761367e90613b94565b88612e91565b3d9150613660565b90506020813d6020116136be575b816136a760209383613b73565b8101031261017b576136b890613b94565b88612e22565b3d915061369a565b90506020813d6020116136f8575b816136e160209383613b73565b8101031261017b576136f290613b94565b84612d8b565b3d91506136d4565b61371591503d806000833e610af78183613b73565b886101e6565b3461017b57604036600319011261017b57600054602491600435916001600160a01b039184359183163303613a3f5750916000905b8060005260206004815260406000209081549283151580613a36575b15613a2b576000199283850194851161233457869461378a91613abe565b949054600395861b1c16968160005284835260406000208860005283526040600020955b865480151580613a22575b1561398c57858101908111613977576137d29088613aeb565b5090886002928884820160ff815460a01c1660001461396257600089613835600487875416955b8701960196875416865460405194858094819363a9059cbb60e01b83528a6004840160209093929193604081019460018060a01b031681520152565b03925af16000918161392b575b5061385f575b50505050506138579150613ba1565b975b976137ae565b1561391f57549154925460408051948552908d166001600160a01b03166020850152908c1692918c169187917f0adc28922429a8215a5d1f826665bec9bdd0118be4fdc15f00412690684b1b7c91a48754801561390a5786016138c2818a613aeb565b6138f55760058160006138579681809555816001840155820155828b820155826004820155015588558b80808080613848565b8c634e487b7160e01b60005260006004526000fd5b8b634e487b7160e01b60005260316004526000fd5b50505050989050613859565b9091508a81813d831161395b575b6139438183613b73565b8101031261017b5761395490613b94565b9038613842565b503d613939565b600089613835600487600188015416956137f9565b8a634e487b7160e01b60005260116004526000fd5b5097919493509454156139a5575b505050929092613750565b60049284600052825260406000208160005282526139c66040600020613bc3565b8360005260058252604060002090600052815260006001604082208281550155826000528181526139fa6040600020613c3a565b826000525260406000205415613a13575b85808061399a565b613a1c81614c17565b50613a0b565b508282106137b9565b602085604051908152f35b5086851061376c565b6348f5c3ed60e01b8152600490fd5b602435906001600160a01b038216820361017b57565b600435906001600160a01b038216820361017b57565b9190820391821161063557565b6001548110156111445760016000527fb10e2d527612073b26eecdfd717e6a320cf44b4afac2b0732d9fcbe2b7fa0cf60190600090565b80548210156111445760005260206000200190600090565b80541561114457600052602060002090600090565b8054821015611144576000526006602060002091020190600090565b604081019081106001600160401b03821117611e8e57604052565b60c081019081106001600160401b03821117611e8e57604052565b608081019081106001600160401b03821117611e8e57604052565b60a081019081106001600160401b03821117611e8e57604052565b90601f801991011681019081106001600160401b03821117611e8e57604052565b5190811515820361017b57565b60001981146106355760010190565b8181029291811591840414171561063557565b8054600080835581613bd457505050565b60069282600602926006840403613c2657815260208120918201915b828110613bfd5750505050565b808285925582600182015582600282015582600382015582600482015582600582015501613bf0565b634e487b7160e01b82526011600452602482fd5b80548015613c67576000190190613c518282613abe565b81549060018060a01b039060031b1b1916905555565b634e487b7160e01b600052603160045260246000fd5b8015610635576000190190565b6001600160401b038111611e8e5760051b60200190565b90613cab82613c8a565b613cb86040519182613b73565b8281528092613cc9601f1991613c8a565b0190602036910137565b80518210156111445760209160051b010190565b51906001600160a01b038216820361017b57565b519061ffff8216820361017b57565b919082606091031261017b57604051606081018181106001600160401b03821117611e8e576040526040613d5c818395613d4381613ce7565b8552613d5160208201613ce7565b602086015201613cfb565b910152565b906020808383031261017b5782516001600160401b039384821161017b57019060a08284031261017b57604090815194613d9a86613b58565b835181811161017b5784019461014091828783031261017b57845192830183811082821117611e8e578552865160ff8116810361017b5783528387015181811161017b5787019082601f8301121561017b57815190613df882613c8a565b93613e0588519586613b73565b828552868086019360051b8501019381851161017b57878101935b858510613efb5750505050508284019190915250848301516001600160a01b0390818116810361017b5784830152606086015160608301526080860151818116810361017b57608083015260a0860151818116810361017b5760a083015260c0860151818116810361017b5760c083015260e0860151818116810361017b5760e08301526101008087015190828216820361017b5783015261012080960151908116810361017b576080958201528552613edb818401613cfb565b908501528082015190840152606081015160608401520151608082015290565b845184811161017b57820160809081601f19828703011261017b578b5191613f2283613b07565b613f2e868d8401613d0a565b83528101519086821161017b570184603f8201121561017b578a8101518c91613f62613f5983613c8a565b93519384613b73565b8183528d8d84019060608094028301019188831161017b57918f8f969492979593015b818110613fa15750505083809550820152815201940193613e20565b9193958491939597613fb38b85613d0a565b8152019101918e959391969492613f85565b9190820180921161063557565b90613fdc82613c8a565b604090613fec6040519182613b73565b8381528093613ffd601f1991613c8a565b019160009160005b848110614013575050505050565b602090835161402181613b3d565b858152606086849180838501528088850152830152828501015201614005565b9061404b82613c8a565b60409061405b6040519182613b73565b838152809361406c601f1991613c8a565b019160009060005b848110614082575050505050565b602090825161409081613b07565b848152828581830152828701015201614074565b906040516140b181613b07565b825481526001909201546001600160a01b03166020830152565b60009081526003602081815260408084206001600160a01b03958616855282528084208054969897909593949390878a101561425357801561424b575b614112908a613fc5565b96808811614243575b506141268988613a7a565b9361413085613c8a565b9461413d84519687613b73565b80865261414c601f1991613c8a565b019084815b8381106141f957505050508398805b88811061417257505050505050505090565b806141f26141826001938b613aeb565b5061418d8584613a7a565b908a8760058a519361419e85613b22565b8281541685528289820154168d8601526141d56002820154948d8587169088015260ff60a096871c161515606088015282016140a4565b6080860152015416908201526141eb828b613cd3565b5288613cd3565b5001614160565b855161420481613b22565b83815283838201528387820152836060820152865161422281613b07565b848152848482015260808201528360a082015282828a010152018590614151565b96503861411b565b506064614108565b50508051959750919350840191506001600160401b0382118483101761427a575281529190565b634e487b7160e01b83526041600452602483fd5b600080516020614f1983398151915260028154146142ac5760029055565b604051633ee5aeb560e01b8152600490fd5b60008054604051631355eead60e21b815260048101849052919290602090839060249082906001600160a01b03165afa918215614371578392614331575b508115614312575b5061430f5750600190565b90565b61432a91506000526002602052604060002054151590565b1538614304565b9091506020813d602011614369575b8161434d60209383613b73565b810103126143655761435e90613b94565b90386142fc565b8280fd5b3d9150614340565b6040513d85823e3d90fd5b9091906001600160a01b03831615610b0e57600054604051631355eead60e21b8152600481018390526001600160a01b0390911690602081602481855afa9081156109dd57600091614bdd575b5061002857604051639662022560e01b8152600081600481855afa80156109dd57608060209161442493600091614bc257500151604051632474521560e21b8152600481019190915233602482015291829081906044820190565b0381855afa9081156109dd57600091614b88575b501580614b75575b61002857816000526005602052604060002060018060a01b0385166000526020526040600020908154938415614b4d57836000526003602052604060002060018060a01b038716600052602052604060002092835415614b2557600101546001600160a01b0316926144b190613ad6565b5060050154604051639662022560e01b81526001600160a01b039091169190600081600481875afa9081156109dd5761ffff91602091600091614b0a575b50015116928361ffff831611610b0e5760008091889480158015614b01575b156146a157505061ffff939450614526888a88614e39565b85945b6040519587875289602088015260018060a01b03166040870152606086015215156080850152151560a08401521660c082015260018060a01b0385169083600080516020614ed983398151915260e03093a4816000526003602052604060002060018060a01b0385166000526020526145a56040600020613bc3565b816000526005602052604060002060018060a01b0385166000526020526000600160408220828155015581600052600460205260406000209384549460005b868110614633575b50600080516020614ef9833981519152939495505415614624575b604080519586526001600160a01b039283166020870152911693a3565b61462d84614c17565b50614607565b61463d8183613abe565b905460039190911b1c6001600160a01b0390811690841614614661576001016145e4565b939495600019810190811161063557600080516020614ef9833981519152946106016105e86146909385613abe565b61469981613c3a565b8594936145ec565b9091506004600060019360405192838092639662022560e01b82525afa9081156109dd57600091614ae6575b505161012001516001600160a01b031695866146fd57505061ffff9394506146f6888a88614e39565b8594614529565b604051636eb1769f60e11b8152306004820152602481018890526020816044818c5afa80156109dd578b91600091614ab1575b5010614a04575b604051633dccbfc560e01b8152600481018b90526001600160a01b038981166024830152831660448201526000816064818b5afa9081156109dd57600090600092614871575b5080614868575b156148545761ffff861682039061ffff82116106355761ffff6147a8921690613bb0565b9681156108135760a48b60008b938f6020966040519d8e97889663545ac70d60e01b88526004880152602487015289604487015204606485015260018060a01b031660848401525af160009681614820575b50614811575061ffff9394506146f6888a88614e39565b9461ffff945060019250614529565b9096506020813d60201161484c575b8161483c60209383613b73565b8101031261017b575195386147fa565b3d915061482f565b50505061ffff9394506146f6888a88614e39565b50801515614784565b9150503d90816000823e6148858282613b73565b606081838101031261017b5761489a81613b94565b906020810151926040820151906001600160401b03821161017b5760a0828401828501031261017b57604051926148d084613b58565b6148db838201613ce7565b8452602083820101516001600160401b03811161017b57828201601f828685010101121561017b5780848301015161491281613c8a565b916149206040519384613b73565b818352602083019085850160208460051b838a89010101011161017b57906020828887010101915b60208460051b828a890101010183106149e957505050506020850152604083820101516001600160401b03811161017b5761498a908383019085840101614d18565b6040850152606083820101516001600160401b03811161017b576149b5908383019085840101614d18565b6060850152608083820101516001600160401b03811161017b576080936149e0938301920101614d18565b9101523861477d565b60208080936149f786613ce7565b8152019301929150614948565b60405163095ea7b360e01b60208083019182526001600160a01b038a166024840152600019604484015290600090614a3f8460648101611933565b835190828d5af16000513d82614a95575b505015614a5e575b50614737565b614a8f9061199160405163095ea7b360e01b60208201528a60248201526000604482015260448152610a8581613b3d565b38614a58565b909150614aa95750883b15155b3880614a50565b600114614aa2565b9150506020813d602011614ade575b81614acd60209383613b73565b8101031261017b578a905138614730565b3d9150614ac0565b614afb91503d806000833e610af78183613b73565b386146cd565b5087811461450e565b614b1f91503d806000833e610af78183613b73565b386144ef565b604051632eee564760e01b8152600481018690526001600160a01b0388166024820152604490fd5b604051632eee564760e01b8152600481018590526001600160a01b0387166024820152604490fd5b50336001600160a01b0385161415614440565b90506020813d602011614bba575b81614ba360209383613b73565b8101031261017b57614bb490613b94565b38614438565b3d9150614b96565b614bd791503d806000833e610af78183613b73565b386102f6565b90506020813d602011614c0f575b81614bf860209383613b73565b8101031261017b57614c0990613b94565b386143c9565b3d9150614beb565b6000818152600260205260408120549091908015614d135760001990808201818111614cff5760015490838201918211614ceb57818103614ca0575b5050506001548015614c8c57810190614c6b82613a87565b909182549160031b1b19169055600155815260026020526040812055600190565b634e487b7160e01b84526031600452602484fd5b614cd5614caf614cbe93613a87565b90549060031b1c928392613a87565b819391549060031b91821b91600019901b19161790565b9055845260026020526040842055388080614c53565b634e487b7160e01b86526011600452602486fd5b634e487b7160e01b85526011600452602485fd5b505090565b9080601f8301121561017b57815190602091614d3381613c8a565b93614d416040519586613b73565b81855260208086019260051b82010192831161017b57602001905b828210614d6a575050505090565b81516fffffffffffffffffffffffffffffffff8116810361017b578152908301908301614d5c565b60ff7ff0c57e16840df040f15088dc2f81fe391c3923bec73e23a9662efc9c229c6a005460401c1615614dc157565b604051631afcd79f60e31b8152600490fd5b600081815260026020526040812054614e3457600154600160401b811015614e20579082614e0c614cbe84600160409601600155613a87565b905560015492815260026020522055600190565b634e487b7160e01b82526041600452602482fd5b905090565b60405163a9059cbb60e01b60208201526001600160a01b03929092166024830152604480830193909352918152614e7a91614e75606483613b73565b614e7c565b565b906000602091828151910182855af1156109dd576000513d614ecf57506001600160a01b0381163b155b614ead5750565b604051635274afe760e01b81526001600160a01b039091166004820152602490fd5b60011415614ea656fecc38713e5e2de070bfab33e9628de4b3cd0514b73596e57c65f757544ffae4f3c4dc55ebb404cdb4121dc2e8739cb7c2bf00e3d237028f6c485602154d995ee19b779b17422d0df92223018b32b4d1fa46e071723d6817e2486d003becc55f00a264697066735822122019daed82abd26850430cd63083657be334eb56d26f2ddd86d0aa4de9345dc55364736f6c63430008180033",
  "devdoc": {
    "author": "Gildi Company",
    "custom:security-contact": "security@gildi.io",
    "errors": {
      "FundNotFound(uint256,address)": [
        {
          "details": "Error thrown when a fund is not found",
          "params": {
            "participant": "The address of the fund participant",
            "releaseId": "The ID of the release"
          }
        }
      ],
      "InvalidCaller()": [
        {
          "details": "Emitted when the caller is invalid"
        }
      ],
      "InvalidCurrency()": [
        {
          "details": "Error thrown when an incompatible currency is provided"
        }
      ],
      "InvalidInitialization()": [
        {
          "details": "The contract is already initialized."
        }
      ],
      "NotAllowed()": [
        {
          "details": "Emitted when an operation is not allowed for the caller"
        }
      ],
      "NotInitializing()": [
        {
          "details": "The contract is not initializing."
        }
      ],
      "ParamError()": [
        {
          "details": "Emitted when a function parameter is invalid or out-of-range (e.g. zero batchSize, zero price, etc.)"
        }
      ],
      "ReentrancyGuardReentrantCall()": [
        {
          "details": "Unauthorized reentrant call."
        }
      ],
      "SafeERC20FailedOperation(address)": [
        {
          "details": "An operation with an ERC-20 token failed."
        }
      ]
    },
    "events": {
      "FundAdded(uint256,address,uint256,address,address)": {
        "params": {
          "amount": "The amount added",
          "amountCurrency": "The currency of the fund amount",
          "fundParticipant": "The fund participant (seller or fee participant)",
          "payoutCurrency": "The currency to payout in",
          "releaseId": "The ID of the release"
        }
      },
      "FundCancelled(uint256,address,address,uint256,address)": {
        "params": {
          "amount": "The amount returned",
          "currency": "The currency of the fund",
          "fundParticipant": "The fund participant (seller or fee participant)",
          "releaseId": "The ID of the release",
          "returnedTo": "The address that received the returned funds"
        }
      },
      "FundClaimed(uint256,address,uint256,address)": {
        "params": {
          "amount": "The amount claimed",
          "currency": "The currency of the fund",
          "fundParticipant": "The fund participant (seller or fee participant) claiming funds",
          "releaseId": "The ID of the release"
        }
      },
      "FundTransferred(uint256,address,address,address,uint256,address,uint256,bool,bool,uint16)": {
        "params": {
          "amount": "The amount of source token",
          "from": "The contract address (normally this contract)",
          "payoutToken": "The token received by the recipient (may differ from sourceToken if swapped)",
          "releaseId": "The ID of the release",
          "slippageBps": "The slippage tolerance in basis points used for swaps",
          "sourceToken": "The source token used for payment",
          "swapAmount": "The amount received after swap (if performed)",
          "swapRequested": "Whether a token swap was requested",
          "swapSuccessful": "Whether the swap was successful (if requested)",
          "to": "The fund participant receiving the funds"
        }
      },
      "Initialized(uint64)": {
        "details": "Triggered when the contract has been initialized or reinitialized."
      }
    },
    "kind": "dev",
    "methods": {
      "claimAllFunds(address)": {
        "params": {
          "_fundParticipant": "The address of the fund participant"
        }
      },
      "claimAllFunds(address,uint16)": {
        "params": {
          "_fundParticipant": "The address of the fund participant",
          "_slippageBps": "Optional slippage tolerance in basis points (100 = 1%, 500 = 5%)"
        }
      },
      "claimAllFundsByReleaseId(uint256)": {
        "params": {
          "_releaseId": "The ID of the release"
        }
      },
      "claimFunds(uint256,address)": {
        "params": {
          "_fundParticipant": "The address of the fund participant",
          "_releaseId": "The ID of the release"
        }
      },
      "claimFunds(uint256,address,uint16)": {
        "params": {
          "_fundParticipant": "The address of the fund participant",
          "_releaseId": "The ID of the release",
          "_slippageBps": "Optional slippage tolerance in basis points (100 = 1%, 500 = 5%)"
        }
      },
      "constructor": {
        "custom:oz-upgrades-unsafe-allow": "constructor"
      },
      "fetchPendingFundAmounts(uint256,address)": {
        "details": "if releaseId is 0, fetches for all releases, if participant is 0, fetches for all participants",
        "params": {
          "_participant": "The address of the fund participant",
          "_releaseId": "The ID of the release"
        },
        "returns": {
          "_0": "An array of pending fund amounts with claimable status"
        }
      },
      "getReleaseFundAmount(uint256,address)": {
        "params": {
          "_participant": "The address of the fund participant",
          "_releaseId": "The ID of the release"
        },
        "returns": {
          "_0": "The fund amount details"
        }
      },
      "getReleaseFundParticipants(uint256)": {
        "params": {
          "_releaseId": "The ID of the release"
        },
        "returns": {
          "_0": "An array of participant addresses"
        }
      },
      "getReleaseFunds(uint256,address,uint256,uint256)": {
        "params": {
          "_cursor": "The starting index for pagination",
          "_length": "The number of funds to retrieve",
          "_participant": "The address of the fund participant",
          "_releaseId": "The ID of the release"
        },
        "returns": {
          "funds": "An array of funds",
          "nextCursor": "The next cursor for pagination"
        }
      },
      "getReleaseIdsWithFunds()": {
        "returns": {
          "_0": "An array of release IDs that currently have active funds"
        }
      },
      "handleAddToFund(uint256,address,address,address,bool,uint256,address,address)": {
        "params": {
          "_amount": "The amount to add to fund",
          "_amountCurrency": "The currency of the fund amount",
          "_buyer": "The address of the buyer",
          "_isProxyOperation": "Whether this is a proxy operation",
          "_operator": "The address of the operator",
          "_participant": "The address of the fund participant",
          "_payoutCurrency": "The currency to payout in",
          "_releaseId": "The ID of the release"
        }
      },
      "handleCancelReleaseFunds(uint256,uint256)": {
        "params": {
          "_batchSize": "The number of funds to process in this batch",
          "_releaseId": "The ID of the release"
        },
        "returns": {
          "processed": "The number of funds processed"
        }
      },
      "initialize(address)": {
        "params": {
          "_gildiExchange": "The address of the GildiExchange contract"
        }
      },
      "releaseHasFunds(uint256)": {
        "params": {
          "_releaseId": "The ID of the release"
        },
        "returns": {
          "_0": "True if the release has funds, false otherwise"
        }
      }
    },
    "stateVariables": {
      "releaseFundAmountByParticipant": {
        "details": "releaseId => participant => amount"
      },
      "releaseFundParticipants": {
        "details": "releaseId => participants[]"
      },
      "releaseFundsByParticipant": {
        "details": "releaseId => participant => funds[]"
      }
    },
    "title": "Gildi Exchange Fund Manager",
    "version": 1
  },
  "userdoc": {
    "events": {
      "FundAdded(uint256,address,uint256,address,address)": {
        "notice": "Emitted when an fund is added"
      },
      "FundCancelled(uint256,address,address,uint256,address)": {
        "notice": "Emitted when an fund is cancelled and funds are returned"
      },
      "FundClaimed(uint256,address,uint256,address)": {
        "notice": "Emitted when a user claims funds"
      },
      "FundTransferred(uint256,address,address,address,uint256,address,uint256,bool,bool,uint16)": {
        "notice": "Emitted when funds are transferred to a participant"
      }
    },
    "kind": "user",
    "methods": {
      "DEFAULT_SLIPPAGE_BPS()": {
        "notice": "Default slippage tolerance in basis points (1%)"
      },
      "claimAllFunds()": {
        "notice": "Claims all funds for all participants across all releases"
      },
      "claimAllFunds(address)": {
        "notice": "Claims all funds for a participant across all releases with default slippage (5%)"
      },
      "claimAllFunds(address,uint16)": {
        "notice": "Claims all funds for a participant across all releases"
      },
      "claimAllFundsByReleaseId(uint256)": {
        "notice": "Claims all funds for all participants of a specific release"
      },
      "claimFunds(uint256,address)": {
        "notice": "Claims funds for a participant of a release with default slippage (5%)"
      },
      "claimFunds(uint256,address,uint16)": {
        "notice": "Claims funds for a participant of a release"
      },
      "fetchPendingFundAmounts(uint256,address)": {
        "notice": "Fetches pending fund amounts for a participant and release"
      },
      "getReleaseFundAmount(uint256,address)": {
        "notice": "Gets the total fund amount for a participant of a release"
      },
      "getReleaseFundParticipants(uint256)": {
        "notice": "Gets all fund participants for a release"
      },
      "getReleaseFunds(uint256,address,uint256,uint256)": {
        "notice": "Retrieves funds for a participant of a release"
      },
      "getReleaseIdsWithFunds()": {
        "notice": "Gets all release IDs that have funds"
      },
      "gildiExchange()": {
        "notice": "The GildiExchange contract that calls this contract"
      },
      "handleAddToFund(uint256,address,address,address,bool,uint256,address,address)": {
        "notice": "Adds funds to fund for a participant"
      },
      "handleCancelReleaseFunds(uint256,uint256)": {
        "notice": "Cancels funds for a release in batches"
      },
      "initialize(address)": {
        "notice": "Initializes the contract"
      },
      "releaseHasFunds(uint256)": {
        "notice": "Checks if a release has any funds"
      }
    },
    "notice": "Manages fund functionality for the Gildi Exchange marketplace.",
    "version": 1
  },
  "storageLayout": {
    "storage": [
      {
        "astId": 17073,
        "contract": "contracts/marketplace/exchange/GildiExchangeFundManager.sol:GildiExchangeFundManager",
        "label": "gildiExchange",
        "offset": 0,
        "slot": "0",
        "type": "t_contract(IGildiExchange)12273"
      },
      {
        "astId": 17077,
        "contract": "contracts/marketplace/exchange/GildiExchangeFundManager.sol:GildiExchangeFundManager",
        "label": "releaseIdsWithFunds",
        "offset": 0,
        "slot": "1",
        "type": "t_struct(UintSet)10906_storage"
      },
      {
        "astId": 17086,
        "contract": "contracts/marketplace/exchange/GildiExchangeFundManager.sol:GildiExchangeFundManager",
        "label": "releaseFundsByParticipant",
        "offset": 0,
        "slot": "3",
        "type": "t_mapping(t_uint256,t_mapping(t_address,t_array(t_struct(Fund)12297_storage)dyn_storage))"
      },
      {
        "astId": 17092,
        "contract": "contracts/marketplace/exchange/GildiExchangeFundManager.sol:GildiExchangeFundManager",
        "label": "releaseFundParticipants",
        "offset": 0,
        "slot": "4",
        "type": "t_mapping(t_uint256,t_array(t_address)dyn_storage)"
      },
      {
        "astId": 17100,
        "contract": "contracts/marketplace/exchange/GildiExchangeFundManager.sol:GildiExchangeFundManager",
        "label": "releaseFundAmountByParticipant",
        "offset": 0,
        "slot": "5",
        "type": "t_mapping(t_uint256,t_mapping(t_address,t_struct(FundAmount)12305_storage))"
      }
    ],
    "types": {
      "t_address": {
        "encoding": "inplace",
        "label": "address",
        "numberOfBytes": "20"
      },
      "t_array(t_address)dyn_storage": {
        "base": "t_address",
        "encoding": "dynamic_array",
        "label": "address[]",
        "numberOfBytes": "32"
      },
      "t_array(t_bytes32)dyn_storage": {
        "base": "t_bytes32",
        "encoding": "dynamic_array",
        "label": "bytes32[]",
        "numberOfBytes": "32"
      },
      "t_array(t_struct(Fund)12297_storage)dyn_storage": {
        "base": "t_struct(Fund)12297_storage",
        "encoding": "dynamic_array",
        "label": "struct IGildiExchangeFundManager.Fund[]",
        "numberOfBytes": "32"
      },
      "t_bool": {
        "encoding": "inplace",
        "label": "bool",
        "numberOfBytes": "1"
      },
      "t_bytes32": {
        "encoding": "inplace",
        "label": "bytes32",
        "numberOfBytes": "32"
      },
      "t_contract(IGildiExchange)12273": {
        "encoding": "inplace",
        "label": "contract IGildiExchange",
        "numberOfBytes": "20"
      },
      "t_mapping(t_address,t_array(t_struct(Fund)12297_storage)dyn_storage)": {
        "encoding": "mapping",
        "key": "t_address",
        "label": "mapping(address => struct IGildiExchangeFundManager.Fund[])",
        "numberOfBytes": "32",
        "value": "t_array(t_struct(Fund)12297_storage)dyn_storage"
      },
      "t_mapping(t_address,t_struct(FundAmount)12305_storage)": {
        "encoding": "mapping",
        "key": "t_address",
        "label": "mapping(address => struct IGildiExchangeFundManager.FundAmount)",
        "numberOfBytes": "32",
        "value": "t_struct(FundAmount)12305_storage"
      },
      "t_mapping(t_bytes32,t_uint256)": {
        "encoding": "mapping",
        "key": "t_bytes32",
        "label": "mapping(bytes32 => uint256)",
        "numberOfBytes": "32",
        "value": "t_uint256"
      },
      "t_mapping(t_uint256,t_array(t_address)dyn_storage)": {
        "encoding": "mapping",
        "key": "t_uint256",
        "label": "mapping(uint256 => address[])",
        "numberOfBytes": "32",
        "value": "t_array(t_address)dyn_storage"
      },
      "t_mapping(t_uint256,t_mapping(t_address,t_array(t_struct(Fund)12297_storage)dyn_storage))": {
        "encoding": "mapping",
        "key": "t_uint256",
        "label": "mapping(uint256 => mapping(address => struct IGildiExchangeFundManager.Fund[]))",
        "numberOfBytes": "32",
        "value": "t_mapping(t_address,t_array(t_struct(Fund)12297_storage)dyn_storage)"
      },
      "t_mapping(t_uint256,t_mapping(t_address,t_struct(FundAmount)12305_storage))": {
        "encoding": "mapping",
        "key": "t_uint256",
        "label": "mapping(uint256 => mapping(address => struct IGildiExchangeFundManager.FundAmount))",
        "numberOfBytes": "32",
        "value": "t_mapping(t_address,t_struct(FundAmount)12305_storage)"
      },
      "t_struct(Fund)12297_storage": {
        "encoding": "inplace",
        "label": "struct IGildiExchangeFundManager.Fund",
        "members": [
          {
            "astId": 12280,
            "contract": "contracts/marketplace/exchange/GildiExchangeFundManager.sol:GildiExchangeFundManager",
            "label": "buyer",
            "offset": 0,
            "slot": "0",
            "type": "t_address"
          },
          {
            "astId": 12283,
            "contract": "contracts/marketplace/exchange/GildiExchangeFundManager.sol:GildiExchangeFundManager",
            "label": "operator",
            "offset": 0,
            "slot": "1",
            "type": "t_address"
          },
          {
            "astId": 12286,
            "contract": "contracts/marketplace/exchange/GildiExchangeFundManager.sol:GildiExchangeFundManager",
            "label": "fundParticipant",
            "offset": 0,
            "slot": "2",
            "type": "t_address"
          },
          {
            "astId": 12289,
            "contract": "contracts/marketplace/exchange/GildiExchangeFundManager.sol:GildiExchangeFundManager",
            "label": "isProxyOperation",
            "offset": 20,
            "slot": "2",
            "type": "t_bool"
          },
          {
            "astId": 12293,
            "contract": "contracts/marketplace/exchange/GildiExchangeFundManager.sol:GildiExchangeFundManager",
            "label": "amount",
            "offset": 0,
            "slot": "3",
            "type": "t_struct(FundAmount)12305_storage"
          },
          {
            "astId": 12296,
            "contract": "contracts/marketplace/exchange/GildiExchangeFundManager.sol:GildiExchangeFundManager",
            "label": "payoutCurrency",
            "offset": 0,
            "slot": "5",
            "type": "t_address"
          }
        ],
        "numberOfBytes": "192"
      },
      "t_struct(FundAmount)12305_storage": {
        "encoding": "inplace",
        "label": "struct IGildiExchangeFundManager.FundAmount",
        "members": [
          {
            "astId": 12301,
            "contract": "contracts/marketplace/exchange/GildiExchangeFundManager.sol:GildiExchangeFundManager",
            "label": "value",
            "offset": 0,
            "slot": "0",
            "type": "t_uint256"
          },
          {
            "astId": 12304,
            "contract": "contracts/marketplace/exchange/GildiExchangeFundManager.sol:GildiExchangeFundManager",
            "label": "currencyAddress",
            "offset": 0,
            "slot": "1",
            "type": "t_address"
          }
        ],
        "numberOfBytes": "64"
      },
      "t_struct(Set)10214_storage": {
        "encoding": "inplace",
        "label": "struct EnumerableSet.Set",
        "members": [
          {
            "astId": 10209,
            "contract": "contracts/marketplace/exchange/GildiExchangeFundManager.sol:GildiExchangeFundManager",
            "label": "_values",
            "offset": 0,
            "slot": "0",
            "type": "t_array(t_bytes32)dyn_storage"
          },
          {
            "astId": 10213,
            "contract": "contracts/marketplace/exchange/GildiExchangeFundManager.sol:GildiExchangeFundManager",
            "label": "_positions",
            "offset": 0,
            "slot": "1",
            "type": "t_mapping(t_bytes32,t_uint256)"
          }
        ],
        "numberOfBytes": "64"
      },
      "t_struct(UintSet)10906_storage": {
        "encoding": "inplace",
        "label": "struct EnumerableSet.UintSet",
        "members": [
          {
            "astId": 10905,
            "contract": "contracts/marketplace/exchange/GildiExchangeFundManager.sol:GildiExchangeFundManager",
            "label": "_inner",
            "offset": 0,
            "slot": "0",
            "type": "t_struct(Set)10214_storage"
          }
        ],
        "numberOfBytes": "64"
      },
      "t_uint256": {
        "encoding": "inplace",
        "label": "uint256",
        "numberOfBytes": "32"
      }
    }
  }
}