{
  "address": "0xB274af3762Cfea8Eb35d0D14d2b2950E8A3F2539",
  "abi": [
    {
      "inputs": [],
      "stateMutability": "nonpayable",
      "type": "constructor"
    },
    {
      "inputs": [],
      "name": "AccessControlBadConfirmation",
      "type": "error"
    },
    {
      "inputs": [
        {
          "internalType": "address",
          "name": "account",
          "type": "address"
        },
        {
          "internalType": "bytes32",
          "name": "neededRole",
          "type": "bytes32"
        }
      ],
      "name": "AccessControlUnauthorizedAccount",
      "type": "error"
    },
    {
      "inputs": [],
      "name": "EnforcedPause",
      "type": "error"
    },
    {
      "inputs": [],
      "name": "ExpectedPause",
      "type": "error"
    },
    {
      "inputs": [
        {
          "internalType": "uint256",
          "name": "requested",
          "type": "uint256"
        },
        {
          "internalType": "uint256",
          "name": "available",
          "type": "uint256"
        }
      ],
      "name": "InsufficientQuantity",
      "type": "error"
    },
    {
      "inputs": [],
      "name": "InvalidCaller",
      "type": "error"
    },
    {
      "inputs": [],
      "name": "InvalidInitialization",
      "type": "error"
    },
    {
      "inputs": [],
      "name": "NotAllowed",
      "type": "error"
    },
    {
      "inputs": [
        {
          "internalType": "uint256",
          "name": "requested",
          "type": "uint256"
        },
        {
          "internalType": "uint256",
          "name": "available",
          "type": "uint256"
        }
      ],
      "name": "NotEnoughTokensInListings",
      "type": "error"
    },
    {
      "inputs": [],
      "name": "NotInitializing",
      "type": "error"
    },
    {
      "inputs": [],
      "name": "ParamError",
      "type": "error"
    },
    {
      "inputs": [],
      "name": "PurchaseError",
      "type": "error"
    },
    {
      "inputs": [],
      "name": "ReentrancyGuardReentrantCall",
      "type": "error"
    },
    {
      "inputs": [
        {
          "internalType": "uint256",
          "name": "releaseId",
          "type": "uint256"
        }
      ],
      "name": "ReleaseNotFound",
      "type": "error"
    },
    {
      "inputs": [
        {
          "internalType": "uint256",
          "name": "releaseId",
          "type": "uint256"
        }
      ],
      "name": "ReleaseStateError",
      "type": "error"
    },
    {
      "inputs": [
        {
          "internalType": "address",
          "name": "token",
          "type": "address"
        }
      ],
      "name": "SafeERC20FailedOperation",
      "type": "error"
    },
    {
      "inputs": [],
      "name": "SetupError",
      "type": "error"
    },
    {
      "anonymous": false,
      "inputs": [
        {
          "indexed": false,
          "internalType": "uint8",
          "name": "askDecimals",
          "type": "uint8"
        }
      ],
      "name": "AskDecimalsSet",
      "type": "event"
    },
    {
      "anonymous": false,
      "inputs": [
        {
          "indexed": true,
          "internalType": "uint256",
          "name": "releaseId",
          "type": "uint256"
        }
      ],
      "name": "FeesUpdated",
      "type": "event"
    },
    {
      "anonymous": false,
      "inputs": [
        {
          "indexed": true,
          "internalType": "uint256",
          "name": "releaseId",
          "type": "uint256"
        },
        {
          "indexed": true,
          "internalType": "address",
          "name": "seller",
          "type": "address"
        },
        {
          "indexed": false,
          "internalType": "uint256[]",
          "name": "assetQuantities",
          "type": "uint256[]"
        },
        {
          "indexed": false,
          "internalType": "uint256[]",
          "name": "assetPrices",
          "type": "uint256[]"
        },
        {
          "indexed": false,
          "internalType": "uint256",
          "name": "maxBuy",
          "type": "uint256"
        },
        {
          "indexed": false,
          "internalType": "uint256",
          "name": "startTime",
          "type": "uint256"
        },
        {
          "indexed": false,
          "internalType": "uint256",
          "name": "duration",
          "type": "uint256"
        },
        {
          "indexed": false,
          "internalType": "bool",
          "name": "whitelistEnabled",
          "type": "bool"
        },
        {
          "indexed": false,
          "internalType": "uint256",
          "name": "whitelistDuration",
          "type": "uint256"
        },
        {
          "indexed": false,
          "internalType": "address",
          "name": "saleCurrency",
          "type": "address"
        },
        {
          "indexed": false,
          "internalType": "address",
          "name": "payoutCurrency",
          "type": "address"
        },
        {
          "components": [
            {
              "components": [
                {
                  "internalType": "address",
                  "name": "receiverAddress",
                  "type": "address"
                },
                {
                  "internalType": "address",
                  "name": "payoutCurrency",
                  "type": "address"
                },
                {
                  "internalType": "uint16",
                  "name": "value",
                  "type": "uint16"
                }
              ],
              "internalType": "struct IGildiExchange.Receiver",
              "name": "feeReceiver",
              "type": "tuple"
            },
            {
              "components": [
                {
                  "internalType": "address",
                  "name": "receiverAddress",
                  "type": "address"
                },
                {
                  "internalType": "address",
                  "name": "payoutCurrency",
                  "type": "address"
                },
                {
                  "internalType": "uint16",
                  "name": "value",
                  "type": "uint16"
                }
              ],
              "internalType": "struct IGildiExchange.Receiver[]",
              "name": "subFeeReceivers",
              "type": "tuple[]"
            }
          ],
          "indexed": false,
          "internalType": "struct IGildiExchange.FeeDistribution[]",
          "name": "saleFees",
          "type": "tuple[]"
        }
      ],
      "name": "InitialSaleCreated",
      "type": "event"
    },
    {
      "anonymous": false,
      "inputs": [
        {
          "indexed": true,
          "internalType": "uint256",
          "name": "releaseId",
          "type": "uint256"
        }
      ],
      "name": "InitialSaleEnded",
      "type": "event"
    },
    {
      "anonymous": false,
      "inputs": [
        {
          "indexed": false,
          "internalType": "uint64",
          "name": "version",
          "type": "uint64"
        }
      ],
      "name": "Initialized",
      "type": "event"
    },
    {
      "anonymous": false,
      "inputs": [
        {
          "indexed": false,
          "internalType": "address",
          "name": "marketplaceCurrency",
          "type": "address"
        }
      ],
      "name": "MarketplaceCurrencySet",
      "type": "event"
    },
    {
      "anonymous": false,
      "inputs": [
        {
          "indexed": false,
          "internalType": "address",
          "name": "account",
          "type": "address"
        }
      ],
      "name": "Paused",
      "type": "event"
    },
    {
      "anonymous": false,
      "inputs": [
        {
          "indexed": true,
          "internalType": "uint256",
          "name": "releaseId",
          "type": "uint256"
        },
        {
          "indexed": true,
          "internalType": "address",
          "name": "buyer",
          "type": "address"
        },
        {
          "indexed": true,
          "internalType": "address",
          "name": "seller",
          "type": "address"
        },
        {
          "indexed": false,
          "internalType": "address",
          "name": "operator",
          "type": "address"
        },
        {
          "indexed": false,
          "internalType": "uint256",
          "name": "listingId",
          "type": "uint256"
        },
        {
          "indexed": false,
          "internalType": "uint256",
          "name": "priceInUSD",
          "type": "uint256"
        },
        {
          "indexed": false,
          "internalType": "uint256",
          "name": "quantity",
          "type": "uint256"
        },
        {
          "indexed": false,
          "internalType": "uint256",
          "name": "priceInAsset",
          "type": "uint256"
        },
        {
          "indexed": false,
          "internalType": "address",
          "name": "asset",
          "type": "address"
        }
      ],
      "name": "Purchased",
      "type": "event"
    },
    {
      "anonymous": false,
      "inputs": [
        {
          "indexed": true,
          "internalType": "uint256",
          "name": "releaseId",
          "type": "uint256"
        },
        {
          "indexed": false,
          "internalType": "bool",
          "name": "isActive",
          "type": "bool"
        }
      ],
      "name": "ReleaseActiveStateChanged",
      "type": "event"
    },
    {
      "anonymous": false,
      "inputs": [
        {
          "indexed": true,
          "internalType": "uint256",
          "name": "releaseId",
          "type": "uint256"
        }
      ],
      "name": "ReleaseCancellationStarted",
      "type": "event"
    },
    {
      "anonymous": false,
      "inputs": [
        {
          "indexed": true,
          "internalType": "uint256",
          "name": "releaseId",
          "type": "uint256"
        }
      ],
      "name": "ReleaseCancelled",
      "type": "event"
    },
    {
      "anonymous": false,
      "inputs": [
        {
          "indexed": true,
          "internalType": "uint256",
          "name": "releaseId",
          "type": "uint256"
        }
      ],
      "name": "ReleaseInitialized",
      "type": "event"
    },
    {
      "anonymous": false,
      "inputs": [
        {
          "indexed": true,
          "internalType": "bytes32",
          "name": "role",
          "type": "bytes32"
        },
        {
          "indexed": true,
          "internalType": "bytes32",
          "name": "previousAdminRole",
          "type": "bytes32"
        },
        {
          "indexed": true,
          "internalType": "bytes32",
          "name": "newAdminRole",
          "type": "bytes32"
        }
      ],
      "name": "RoleAdminChanged",
      "type": "event"
    },
    {
      "anonymous": false,
      "inputs": [
        {
          "indexed": true,
          "internalType": "bytes32",
          "name": "role",
          "type": "bytes32"
        },
        {
          "indexed": true,
          "internalType": "address",
          "name": "account",
          "type": "address"
        },
        {
          "indexed": true,
          "internalType": "address",
          "name": "sender",
          "type": "address"
        }
      ],
      "name": "RoleGranted",
      "type": "event"
    },
    {
      "anonymous": false,
      "inputs": [
        {
          "indexed": true,
          "internalType": "bytes32",
          "name": "role",
          "type": "bytes32"
        },
        {
          "indexed": true,
          "internalType": "address",
          "name": "account",
          "type": "address"
        },
        {
          "indexed": true,
          "internalType": "address",
          "name": "sender",
          "type": "address"
        }
      ],
      "name": "RoleRevoked",
      "type": "event"
    },
    {
      "anonymous": false,
      "inputs": [
        {
          "indexed": false,
          "internalType": "address",
          "name": "account",
          "type": "address"
        }
      ],
      "name": "Unpaused",
      "type": "event"
    },
    {
      "stateMutability": "payable",
      "type": "fallback"
    },
    {
      "inputs": [],
      "name": "DEFAULT_ADMIN_ROLE",
      "outputs": [
        {
          "internalType": "bytes32",
          "name": "",
          "type": "bytes32"
        }
      ],
      "stateMutability": "view",
      "type": "function"
    },
    {
      "inputs": [],
      "name": "DEFAULT_SLIPPAGE_BPS",
      "outputs": [
        {
          "internalType": "uint16",
          "name": "",
          "type": "uint16"
        }
      ],
      "stateMutability": "view",
      "type": "function"
    },
    {
      "inputs": [
        {
          "internalType": "uint256",
          "name": "_releaseId",
          "type": "uint256"
        },
        {
          "internalType": "address",
          "name": "_address",
          "type": "address"
        }
      ],
      "name": "canBuy",
      "outputs": [
        {
          "internalType": "bool",
          "name": "buyAllowed",
          "type": "bool"
        },
        {
          "internalType": "uint256",
          "name": "maxBuyAmount",
          "type": "uint256"
        }
      ],
      "stateMutability": "view",
      "type": "function"
    },
    {
      "inputs": [
        {
          "internalType": "uint256[]",
          "name": "_releaseIds",
          "type": "uint256[]"
        }
      ],
      "name": "canSell",
      "outputs": [
        {
          "internalType": "bool[]",
          "name": "",
          "type": "bool[]"
        }
      ],
      "stateMutability": "view",
      "type": "function"
    },
    {
      "inputs": [
        {
          "internalType": "uint256",
          "name": "_listingId",
          "type": "uint256"
        }
      ],
      "name": "cancelListing",
      "outputs": [],
      "stateMutability": "nonpayable",
      "type": "function"
    },
    {
      "inputs": [
        {
          "internalType": "uint256",
          "name": "_releaseId",
          "type": "uint256"
        },
        {
          "internalType": "uint256",
          "name": "_batchSize",
          "type": "uint256"
        }
      ],
      "name": "cancelRelease",
      "outputs": [],
      "stateMutability": "nonpayable",
      "type": "function"
    },
    {
      "inputs": [
        {
          "components": [
            {
              "internalType": "uint256",
              "name": "releaseId",
              "type": "uint256"
            },
            {
              "internalType": "uint256[]",
              "name": "assetQuantities",
              "type": "uint256[]"
            },
            {
              "internalType": "uint256[]",
              "name": "assetPrices",
              "type": "uint256[]"
            },
            {
              "internalType": "address",
              "name": "seller",
              "type": "address"
            },
            {
              "internalType": "uint256",
              "name": "maxBuy",
              "type": "uint256"
            },
            {
              "internalType": "uint256",
              "name": "start",
              "type": "uint256"
            },
            {
              "internalType": "uint256",
              "name": "duration",
              "type": "uint256"
            },
            {
              "internalType": "bool",
              "name": "whitelist",
              "type": "bool"
            },
            {
              "internalType": "address[]",
              "name": "whitelistAddresses",
              "type": "address[]"
            },
            {
              "internalType": "uint256",
              "name": "whitelistDuration",
              "type": "uint256"
            },
            {
              "internalType": "address",
              "name": "initialSaleCurrency",
              "type": "address"
            },
            {
              "internalType": "address",
              "name": "payoutCurrency",
              "type": "address"
            },
            {
              "internalType": "address",
              "name": "fundsReceiver",
              "type": "address"
            },
            {
              "components": [
                {
                  "components": [
                    {
                      "internalType": "address",
                      "name": "receiverAddress",
                      "type": "address"
                    },
                    {
                      "internalType": "address",
                      "name": "payoutCurrency",
                      "type": "address"
                    },
                    {
                      "internalType": "uint16",
                      "name": "value",
                      "type": "uint16"
                    }
                  ],
                  "internalType": "struct IGildiExchange.Receiver",
                  "name": "feeReceiver",
                  "type": "tuple"
                },
                {
                  "components": [
                    {
                      "internalType": "address",
                      "name": "receiverAddress",
                      "type": "address"
                    },
                    {
                      "internalType": "address",
                      "name": "payoutCurrency",
                      "type": "address"
                    },
                    {
                      "internalType": "uint16",
                      "name": "value",
                      "type": "uint16"
                    }
                  ],
                  "internalType": "struct IGildiExchange.Receiver[]",
                  "name": "subFeeReceivers",
                  "type": "tuple[]"
                }
              ],
              "internalType": "struct IGildiExchange.FeeDistribution[]",
              "name": "fees",
              "type": "tuple[]"
            }
          ],
          "internalType": "struct GildiExchange.InitialSaleParams",
          "name": "_params",
          "type": "tuple"
        }
      ],
      "name": "createInitialSale",
      "outputs": [],
      "stateMutability": "nonpayable",
      "type": "function"
    },
    {
      "inputs": [
        {
          "internalType": "uint256",
          "name": "_releaseId",
          "type": "uint256"
        },
        {
          "internalType": "address",
          "name": "_seller",
          "type": "address"
        },
        {
          "internalType": "uint256",
          "name": "_pricePerItem",
          "type": "uint256"
        },
        {
          "internalType": "uint256",
          "name": "_quantity",
          "type": "uint256"
        },
        {
          "internalType": "address",
          "name": "_payoutCurrency",
          "type": "address"
        },
        {
          "internalType": "address",
          "name": "_fundsReceiver",
          "type": "address"
        },
        {
          "internalType": "uint16",
          "name": "_slippageBps",
          "type": "uint16"
        }
      ],
      "name": "createListing",
      "outputs": [],
      "stateMutability": "nonpayable",
      "type": "function"
    },
    {
      "inputs": [
        {
          "internalType": "uint256",
          "name": "_releaseId",
          "type": "uint256"
        },
        {
          "internalType": "address",
          "name": "_seller",
          "type": "address"
        },
        {
          "internalType": "uint256",
          "name": "_pricePerItem",
          "type": "uint256"
        },
        {
          "internalType": "uint256",
          "name": "_quantity",
          "type": "uint256"
        },
        {
          "internalType": "address",
          "name": "_payoutCurrency",
          "type": "address"
        },
        {
          "internalType": "address",
          "name": "_fundsReceiver",
          "type": "address"
        }
      ],
      "name": "createListing",
      "outputs": [],
      "stateMutability": "nonpayable",
      "type": "function"
    },
    {
      "inputs": [
        {
          "internalType": "uint256",
          "name": "_releaseId",
          "type": "uint256"
        }
      ],
      "name": "getActiveMarketplaceReleaseAsset",
      "outputs": [
        {
          "internalType": "address",
          "name": "",
          "type": "address"
        }
      ],
      "stateMutability": "view",
      "type": "function"
    },
    {
      "inputs": [],
      "name": "getAppEnvironment",
      "outputs": [
        {
          "components": [
            {
              "components": [
                {
                  "internalType": "uint8",
                  "name": "priceAskDecimals",
                  "type": "uint8"
                },
                {
                  "components": [
                    {
                      "components": [
                        {
                          "internalType": "address",
                          "name": "receiverAddress",
                          "type": "address"
                        },
                        {
                          "internalType": "address",
                          "name": "payoutCurrency",
                          "type": "address"
                        },
                        {
                          "internalType": "uint16",
                          "name": "value",
                          "type": "uint16"
                        }
                      ],
                      "internalType": "struct IGildiExchange.Receiver",
                      "name": "feeReceiver",
                      "type": "tuple"
                    },
                    {
                      "components": [
                        {
                          "internalType": "address",
                          "name": "receiverAddress",
                          "type": "address"
                        },
                        {
                          "internalType": "address",
                          "name": "payoutCurrency",
                          "type": "address"
                        },
                        {
                          "internalType": "uint16",
                          "name": "value",
                          "type": "uint16"
                        }
                      ],
                      "internalType": "struct IGildiExchange.Receiver[]",
                      "name": "subFeeReceivers",
                      "type": "tuple[]"
                    }
                  ],
                  "internalType": "struct IGildiExchange.FeeDistribution[]",
                  "name": "fees",
                  "type": "tuple[]"
                },
                {
                  "internalType": "contract IERC20",
                  "name": "marketplaceCurrency",
                  "type": "address"
                },
                {
                  "internalType": "uint256",
                  "name": "maxBuyPerTransaction",
                  "type": "uint256"
                },
                {
                  "internalType": "contract IGildiManager",
                  "name": "gildiManager",
                  "type": "address"
                },
                {
                  "internalType": "contract IGildiExchangeOrderBook",
                  "name": "orderBook",
                  "type": "address"
                },
                {
                  "internalType": "contract IGildiPriceOracle",
                  "name": "gildiPriceOracle",
                  "type": "address"
                },
                {
                  "internalType": "contract IGildiExchangeFundManager",
                  "name": "fundManager",
                  "type": "address"
                },
                {
                  "internalType": "contract IGildiExchangePaymentProcessor",
                  "name": "paymentProcessor",
                  "type": "address"
                },
                {
                  "internalType": "contract IGildiExchangePaymentAggregator",
                  "name": "paymentAggregator",
                  "type": "address"
                }
              ],
              "internalType": "struct IGildiExchange.AppSettings",
              "name": "settings",
              "type": "tuple"
            },
            {
              "internalType": "uint16",
              "name": "basisPoints",
              "type": "uint16"
            },
            {
              "internalType": "bytes32",
              "name": "adminRole",
              "type": "bytes32"
            },
            {
              "internalType": "bytes32",
              "name": "marketplaceManagerRole",
              "type": "bytes32"
            },
            {
              "internalType": "bytes32",
              "name": "claimerRole",
              "type": "bytes32"
            }
          ],
          "internalType": "struct IGildiExchange.AppEnvironment",
          "name": "",
          "type": "tuple"
        }
      ],
      "stateMutability": "view",
      "type": "function"
    },
    {
      "inputs": [
        {
          "internalType": "uint256",
          "name": "_releaseId",
          "type": "uint256"
        }
      ],
      "name": "getInitialSaleByReleaseId",
      "outputs": [
        {
          "components": [
            {
              "internalType": "bool",
              "name": "active",
              "type": "bool"
            },
            {
              "internalType": "bool",
              "name": "whitelist",
              "type": "bool"
            },
            {
              "internalType": "uint256",
              "name": "startTime",
              "type": "uint256"
            },
            {
              "internalType": "uint256",
              "name": "endTime",
              "type": "uint256"
            },
            {
              "internalType": "uint256",
              "name": "whitelistUntil",
              "type": "uint256"
            },
            {
              "internalType": "uint256",
              "name": "maxBuy",
              "type": "uint256"
            },
            {
              "internalType": "address",
              "name": "saleCurrency",
              "type": "address"
            },
            {
              "components": [
                {
                  "components": [
                    {
                      "internalType": "address",
                      "name": "receiverAddress",
                      "type": "address"
                    },
                    {
                      "internalType": "address",
                      "name": "payoutCurrency",
                      "type": "address"
                    },
                    {
                      "internalType": "uint16",
                      "name": "value",
                      "type": "uint16"
                    }
                  ],
                  "internalType": "struct IGildiExchange.Receiver",
                  "name": "feeReceiver",
                  "type": "tuple"
                },
                {
                  "components": [
                    {
                      "internalType": "address",
                      "name": "receiverAddress",
                      "type": "address"
                    },
                    {
                      "internalType": "address",
                      "name": "payoutCurrency",
                      "type": "address"
                    },
                    {
                      "internalType": "uint16",
                      "name": "value",
                      "type": "uint16"
                    }
                  ],
                  "internalType": "struct IGildiExchange.Receiver[]",
                  "name": "subFeeReceivers",
                  "type": "tuple[]"
                }
              ],
              "internalType": "struct IGildiExchange.FeeDistribution[]",
              "name": "fees",
              "type": "tuple[]"
            }
          ],
          "internalType": "struct GildiExchange.InitialSale",
          "name": "",
          "type": "tuple"
        }
      ],
      "stateMutability": "view",
      "type": "function"
    },
    {
      "inputs": [
        {
          "internalType": "uint256",
          "name": "_releaseId",
          "type": "uint256"
        }
      ],
      "name": "getReleaseById",
      "outputs": [
        {
          "components": [
            {
              "internalType": "uint256",
              "name": "releaseId",
              "type": "uint256"
            },
            {
              "components": [
                {
                  "components": [
                    {
                      "internalType": "address",
                      "name": "receiverAddress",
                      "type": "address"
                    },
                    {
                      "internalType": "address",
                      "name": "payoutCurrency",
                      "type": "address"
                    },
                    {
                      "internalType": "uint16",
                      "name": "value",
                      "type": "uint16"
                    }
                  ],
                  "internalType": "struct IGildiExchange.Receiver",
                  "name": "feeReceiver",
                  "type": "tuple"
                },
                {
                  "components": [
                    {
                      "internalType": "address",
                      "name": "receiverAddress",
                      "type": "address"
                    },
                    {
                      "internalType": "address",
                      "name": "payoutCurrency",
                      "type": "address"
                    },
                    {
                      "internalType": "uint16",
                      "name": "value",
                      "type": "uint16"
                    }
                  ],
                  "internalType": "struct IGildiExchange.Receiver[]",
                  "name": "subFeeReceivers",
                  "type": "tuple[]"
                }
              ],
              "internalType": "struct IGildiExchange.FeeDistribution[]",
              "name": "additionalFees",
              "type": "tuple[]"
            },
            {
              "internalType": "bool",
              "name": "initialized",
              "type": "bool"
            },
            {
              "internalType": "bool",
              "name": "active",
              "type": "bool"
            },
            {
              "internalType": "bool",
              "name": "isCancelling",
              "type": "bool"
            }
          ],
          "internalType": "struct GildiExchange.Release",
          "name": "",
          "type": "tuple"
        }
      ],
      "stateMutability": "view",
      "type": "function"
    },
    {
      "inputs": [
        {
          "internalType": "uint256",
          "name": "_releaseId",
          "type": "uint256"
        }
      ],
      "name": "getReleaseFees",
      "outputs": [
        {
          "components": [
            {
              "components": [
                {
                  "internalType": "address",
                  "name": "receiverAddress",
                  "type": "address"
                },
                {
                  "internalType": "address",
                  "name": "payoutCurrency",
                  "type": "address"
                },
                {
                  "internalType": "uint16",
                  "name": "value",
                  "type": "uint16"
                }
              ],
              "internalType": "struct IGildiExchange.Receiver",
              "name": "feeReceiver",
              "type": "tuple"
            },
            {
              "components": [
                {
                  "internalType": "address",
                  "name": "receiverAddress",
                  "type": "address"
                },
                {
                  "internalType": "address",
                  "name": "payoutCurrency",
                  "type": "address"
                },
                {
                  "internalType": "uint16",
                  "name": "value",
                  "type": "uint16"
                }
              ],
              "internalType": "struct IGildiExchange.Receiver[]",
              "name": "subFeeReceivers",
              "type": "tuple[]"
            }
          ],
          "internalType": "struct IGildiExchange.FeeDistribution[]",
          "name": "",
          "type": "tuple[]"
        }
      ],
      "stateMutability": "view",
      "type": "function"
    },
    {
      "inputs": [
        {
          "internalType": "bool",
          "name": "_activeOnly",
          "type": "bool"
        }
      ],
      "name": "getReleaseIds",
      "outputs": [
        {
          "internalType": "uint256[]",
          "name": "",
          "type": "uint256[]"
        }
      ],
      "stateMutability": "view",
      "type": "function"
    },
    {
      "inputs": [
        {
          "internalType": "bytes32",
          "name": "role",
          "type": "bytes32"
        }
      ],
      "name": "getRoleAdmin",
      "outputs": [
        {
          "internalType": "bytes32",
          "name": "",
          "type": "bytes32"
        }
      ],
      "stateMutability": "view",
      "type": "function"
    },
    {
      "inputs": [
        {
          "internalType": "uint256",
          "name": "_releaseId",
          "type": "uint256"
        }
      ],
      "name": "getWhitelist",
      "outputs": [
        {
          "internalType": "address[]",
          "name": "",
          "type": "address[]"
        }
      ],
      "stateMutability": "view",
      "type": "function"
    },
    {
      "inputs": [
        {
          "internalType": "bytes32",
          "name": "role",
          "type": "bytes32"
        },
        {
          "internalType": "address",
          "name": "account",
          "type": "address"
        }
      ],
      "name": "grantRole",
      "outputs": [],
      "stateMutability": "nonpayable",
      "type": "function"
    },
    {
      "inputs": [
        {
          "internalType": "bytes32",
          "name": "role",
          "type": "bytes32"
        },
        {
          "internalType": "address",
          "name": "account",
          "type": "address"
        }
      ],
      "name": "hasRole",
      "outputs": [
        {
          "internalType": "bool",
          "name": "",
          "type": "bool"
        }
      ],
      "stateMutability": "view",
      "type": "function"
    },
    {
      "inputs": [
        {
          "internalType": "address",
          "name": "_initialDefaultAdmin",
          "type": "address"
        },
        {
          "internalType": "address",
          "name": "_initialAdmin",
          "type": "address"
        },
        {
          "internalType": "address",
          "name": "_initialMarketplaceManager",
          "type": "address"
        },
        {
          "internalType": "contract IGildiManager",
          "name": "_gildiManager",
          "type": "address"
        },
        {
          "internalType": "contract IERC20",
          "name": "_marketplaceCurrency",
          "type": "address"
        }
      ],
      "name": "initialize",
      "outputs": [],
      "stateMutability": "nonpayable",
      "type": "function"
    },
    {
      "inputs": [
        {
          "internalType": "uint256",
          "name": "_tokenId",
          "type": "uint256"
        },
        {
          "components": [
            {
              "components": [
                {
                  "internalType": "address",
                  "name": "receiverAddress",
                  "type": "address"
                },
                {
                  "internalType": "address",
                  "name": "payoutCurrency",
                  "type": "address"
                },
                {
                  "internalType": "uint16",
                  "name": "value",
                  "type": "uint16"
                }
              ],
              "internalType": "struct IGildiExchange.Receiver",
              "name": "feeReceiver",
              "type": "tuple"
            },
            {
              "components": [
                {
                  "internalType": "address",
                  "name": "receiverAddress",
                  "type": "address"
                },
                {
                  "internalType": "address",
                  "name": "payoutCurrency",
                  "type": "address"
                },
                {
                  "internalType": "uint16",
                  "name": "value",
                  "type": "uint16"
                }
              ],
              "internalType": "struct IGildiExchange.Receiver[]",
              "name": "subFeeReceivers",
              "type": "tuple[]"
            }
          ],
          "internalType": "struct IGildiExchange.FeeDistribution[]",
          "name": "_additionalFees",
          "type": "tuple[]"
        }
      ],
      "name": "initializeRelease",
      "outputs": [],
      "stateMutability": "nonpayable",
      "type": "function"
    },
    {
      "inputs": [
        {
          "internalType": "uint256",
          "name": "_releaseId",
          "type": "uint256"
        }
      ],
      "name": "isInInitialSale",
      "outputs": [
        {
          "internalType": "bool",
          "name": "",
          "type": "bool"
        }
      ],
      "stateMutability": "view",
      "type": "function"
    },
    {
      "inputs": [
        {
          "internalType": "uint256",
          "name": "",
          "type": "uint256"
        },
        {
          "internalType": "address",
          "name": "",
          "type": "address"
        }
      ],
      "name": "isInitialSaleWhitelistBuyer",
      "outputs": [
        {
          "internalType": "bool",
          "name": "",
          "type": "bool"
        }
      ],
      "stateMutability": "view",
      "type": "function"
    },
    {
      "inputs": [
        {
          "internalType": "uint256",
          "name": "_releaseId",
          "type": "uint256"
        }
      ],
      "name": "isWhitelistSale",
      "outputs": [
        {
          "internalType": "bool",
          "name": "",
          "type": "bool"
        }
      ],
      "stateMutability": "view",
      "type": "function"
    },
    {
      "inputs": [
        {
          "internalType": "uint256",
          "name": "_listingId",
          "type": "uint256"
        },
        {
          "internalType": "uint256",
          "name": "_newPricePerItem",
          "type": "uint256"
        },
        {
          "internalType": "uint256",
          "name": "_newQuantity",
          "type": "uint256"
        },
        {
          "internalType": "address",
          "name": "_payoutCurrency",
          "type": "address"
        },
        {
          "internalType": "address",
          "name": "_fundsReceiver",
          "type": "address"
        },
        {
          "internalType": "uint16",
          "name": "_slippageBps",
          "type": "uint16"
        }
      ],
      "name": "modifyListing",
      "outputs": [],
      "stateMutability": "nonpayable",
      "type": "function"
    },
    {
      "inputs": [
        {
          "internalType": "uint256",
          "name": "_listingId",
          "type": "uint256"
        },
        {
          "internalType": "uint256",
          "name": "_newPricePerItem",
          "type": "uint256"
        },
        {
          "internalType": "uint256",
          "name": "_newQuantity",
          "type": "uint256"
        },
        {
          "internalType": "address",
          "name": "_payoutCurrency",
          "type": "address"
        },
        {
          "internalType": "address",
          "name": "_fundsReceiver",
          "type": "address"
        }
      ],
      "name": "modifyListing",
      "outputs": [],
      "stateMutability": "nonpayable",
      "type": "function"
    },
    {
      "inputs": [],
      "name": "pause",
      "outputs": [],
      "stateMutability": "nonpayable",
      "type": "function"
    },
    {
      "inputs": [],
      "name": "paused",
      "outputs": [
        {
          "internalType": "bool",
          "name": "",
          "type": "bool"
        }
      ],
      "stateMutability": "view",
      "type": "function"
    },
    {
      "inputs": [
        {
          "internalType": "uint256",
          "name": "_releaseId",
          "type": "uint256"
        },
        {
          "internalType": "uint256",
          "name": "_amount",
          "type": "uint256"
        },
        {
          "internalType": "uint256",
          "name": "_maxTotalPrice",
          "type": "uint256"
        },
        {
          "internalType": "address",
          "name": "_beneficiary",
          "type": "address"
        },
        {
          "internalType": "bool",
          "name": "_isProxyOperation",
          "type": "bool"
        }
      ],
      "name": "purchase",
      "outputs": [
        {
          "internalType": "uint256",
          "name": "amountSpent",
          "type": "uint256"
        },
        {
          "internalType": "uint256",
          "name": "amountUsdSpent",
          "type": "uint256"
        }
      ],
      "stateMutability": "nonpayable",
      "type": "function"
    },
    {
      "inputs": [
        {
          "internalType": "uint256",
          "name": "_releaseId",
          "type": "uint256"
        },
        {
          "internalType": "uint256",
          "name": "_priceInUsd",
          "type": "uint256"
        }
      ],
      "name": "quotePrice",
      "outputs": [
        {
          "internalType": "address",
          "name": "activeMarketplaceReleaseAsset",
          "type": "address"
        },
        {
          "internalType": "uint256",
          "name": "priceInAsset",
          "type": "uint256"
        }
      ],
      "stateMutability": "view",
      "type": "function"
    },
    {
      "inputs": [
        {
          "internalType": "uint256",
          "name": "_releaseId",
          "type": "uint256"
        },
        {
          "internalType": "uint256",
          "name": "_amountToBuy",
          "type": "uint256"
        },
        {
          "internalType": "address",
          "name": "_buyer",
          "type": "address"
        }
      ],
      "name": "quotePricePreview",
      "outputs": [
        {
          "internalType": "uint256",
          "name": "",
          "type": "uint256"
        },
        {
          "internalType": "address",
          "name": "",
          "type": "address"
        },
        {
          "internalType": "uint256",
          "name": "",
          "type": "uint256"
        }
      ],
      "stateMutability": "view",
      "type": "function"
    },
    {
      "inputs": [
        {
          "internalType": "uint256",
          "name": "",
          "type": "uint256"
        }
      ],
      "name": "releases",
      "outputs": [
        {
          "internalType": "uint256",
          "name": "releaseId",
          "type": "uint256"
        },
        {
          "internalType": "bool",
          "name": "initialized",
          "type": "bool"
        },
        {
          "internalType": "bool",
          "name": "active",
          "type": "bool"
        },
        {
          "internalType": "bool",
          "name": "isCancelling",
          "type": "bool"
        }
      ],
      "stateMutability": "view",
      "type": "function"
    },
    {
      "inputs": [
        {
          "internalType": "bytes32",
          "name": "role",
          "type": "bytes32"
        },
        {
          "internalType": "address",
          "name": "callerConfirmation",
          "type": "address"
        }
      ],
      "name": "renounceRole",
      "outputs": [],
      "stateMutability": "nonpayable",
      "type": "function"
    },
    {
      "inputs": [
        {
          "internalType": "bytes32",
          "name": "role",
          "type": "bytes32"
        },
        {
          "internalType": "address",
          "name": "account",
          "type": "address"
        }
      ],
      "name": "revokeRole",
      "outputs": [],
      "stateMutability": "nonpayable",
      "type": "function"
    },
    {
      "inputs": [
        {
          "internalType": "uint8",
          "name": "_askDecimals",
          "type": "uint8"
        }
      ],
      "name": "setAskDecimals",
      "outputs": [],
      "stateMutability": "nonpayable",
      "type": "function"
    },
    {
      "inputs": [
        {
          "components": [
            {
              "components": [
                {
                  "internalType": "address",
                  "name": "receiverAddress",
                  "type": "address"
                },
                {
                  "internalType": "address",
                  "name": "payoutCurrency",
                  "type": "address"
                },
                {
                  "internalType": "uint16",
                  "name": "value",
                  "type": "uint16"
                }
              ],
              "internalType": "struct IGildiExchange.Receiver",
              "name": "feeReceiver",
              "type": "tuple"
            },
            {
              "components": [
                {
                  "internalType": "address",
                  "name": "receiverAddress",
                  "type": "address"
                },
                {
                  "internalType": "address",
                  "name": "payoutCurrency",
                  "type": "address"
                },
                {
                  "internalType": "uint16",
                  "name": "value",
                  "type": "uint16"
                }
              ],
              "internalType": "struct IGildiExchange.Receiver[]",
              "name": "subFeeReceivers",
              "type": "tuple[]"
            }
          ],
          "internalType": "struct IGildiExchange.FeeDistribution[]",
          "name": "_fees",
          "type": "tuple[]"
        }
      ],
      "name": "setFees",
      "outputs": [],
      "stateMutability": "nonpayable",
      "type": "function"
    },
    {
      "inputs": [
        {
          "internalType": "address",
          "name": "_marketplaceCurrency",
          "type": "address"
        }
      ],
      "name": "setMarketplaceCurrency",
      "outputs": [],
      "stateMutability": "nonpayable",
      "type": "function"
    },
    {
      "inputs": [
        {
          "internalType": "uint256",
          "name": "_maxBuyPerTransaction",
          "type": "uint256"
        }
      ],
      "name": "setMaxBuyPerTransaction",
      "outputs": [],
      "stateMutability": "nonpayable",
      "type": "function"
    },
    {
      "inputs": [
        {
          "internalType": "uint256",
          "name": "_releaseId",
          "type": "uint256"
        },
        {
          "internalType": "bool",
          "name": "_active",
          "type": "bool"
        }
      ],
      "name": "setReleaseActive",
      "outputs": [],
      "stateMutability": "nonpayable",
      "type": "function"
    },
    {
      "inputs": [
        {
          "internalType": "uint256",
          "name": "_releaseId",
          "type": "uint256"
        },
        {
          "components": [
            {
              "components": [
                {
                  "internalType": "address",
                  "name": "receiverAddress",
                  "type": "address"
                },
                {
                  "internalType": "address",
                  "name": "payoutCurrency",
                  "type": "address"
                },
                {
                  "internalType": "uint16",
                  "name": "value",
                  "type": "uint16"
                }
              ],
              "internalType": "struct IGildiExchange.Receiver",
              "name": "feeReceiver",
              "type": "tuple"
            },
            {
              "components": [
                {
                  "internalType": "address",
                  "name": "receiverAddress",
                  "type": "address"
                },
                {
                  "internalType": "address",
                  "name": "payoutCurrency",
                  "type": "address"
                },
                {
                  "internalType": "uint16",
                  "name": "value",
                  "type": "uint16"
                }
              ],
              "internalType": "struct IGildiExchange.Receiver[]",
              "name": "subFeeReceivers",
              "type": "tuple[]"
            }
          ],
          "internalType": "struct IGildiExchange.FeeDistribution[]",
          "name": "_additionalFees",
          "type": "tuple[]"
        }
      ],
      "name": "setReleaseFees",
      "outputs": [],
      "stateMutability": "nonpayable",
      "type": "function"
    },
    {
      "inputs": [
        {
          "internalType": "contract IGildiPriceOracle",
          "name": "_gildiPriceOracle",
          "type": "address"
        },
        {
          "internalType": "uint8",
          "name": "_askDecimals",
          "type": "uint8"
        },
        {
          "internalType": "contract IGildiExchangeOrderBook",
          "name": "_orderBook",
          "type": "address"
        },
        {
          "internalType": "contract IGildiExchangeFundManager",
          "name": "_fundManager",
          "type": "address"
        },
        {
          "internalType": "contract IGildiExchangePaymentProcessor",
          "name": "_paymentProcessor",
          "type": "address"
        },
        {
          "internalType": "contract IGildiExchangePaymentAggregator",
          "name": "_paymentAggregator",
          "type": "address"
        }
      ],
      "name": "setup",
      "outputs": [],
      "stateMutability": "nonpayable",
      "type": "function"
    },
    {
      "inputs": [
        {
          "internalType": "bytes4",
          "name": "interfaceId",
          "type": "bytes4"
        }
      ],
      "name": "supportsInterface",
      "outputs": [
        {
          "internalType": "bool",
          "name": "",
          "type": "bool"
        }
      ],
      "stateMutability": "view",
      "type": "function"
    },
    {
      "inputs": [
        {
          "internalType": "address",
          "name": "_from",
          "type": "address"
        },
        {
          "internalType": "address",
          "name": "_to",
          "type": "address"
        },
        {
          "internalType": "uint256",
          "name": "_value",
          "type": "uint256"
        },
        {
          "internalType": "address",
          "name": "_amountCurrency",
          "type": "address"
        }
      ],
      "name": "transferTokenInContext",
      "outputs": [],
      "stateMutability": "nonpayable",
      "type": "function"
    },
    {
      "inputs": [
        {
          "internalType": "address",
          "name": "_from",
          "type": "address"
        },
        {
          "internalType": "uint256",
          "name": "_value",
          "type": "uint256"
        },
        {
          "internalType": "address",
          "name": "_amountCurrency",
          "type": "address"
        }
      ],
      "name": "tryBurnTokenInContext",
      "outputs": [
        {
          "internalType": "bool",
          "name": "",
          "type": "bool"
        }
      ],
      "stateMutability": "nonpayable",
      "type": "function"
    },
    {
      "inputs": [
        {
          "internalType": "uint256",
          "name": "_releaseId",
          "type": "uint256"
        },
        {
          "internalType": "uint256",
          "name": "_batchSize",
          "type": "uint256"
        }
      ],
      "name": "unlistAllListings",
      "outputs": [],
      "stateMutability": "nonpayable",
      "type": "function"
    },
    {
      "inputs": [],
      "name": "unpause",
      "outputs": [],
      "stateMutability": "nonpayable",
      "type": "function"
    },
    {
      "stateMutability": "payable",
      "type": "receive"
    }
  ],
  "transactionHash": "0x168f0c72456263506428d5990ce95f6bf62bbb0551805b5d2a7904ab900ff99e",
  "args": [],
  "numDeployments": 1,
  "solcInputHash": "f05b3caebdcc6799c93085f6a444a0e9",
  "bytecode": "0x60808060405234620000bd577ff0c57e16840df040f15088dc2f81fe391c3923bec73e23a9662efc9c229c6a009081549060ff8260401c16620000ae57506001600160401b036002600160401b03198282160162000068575b604051615fe59081620000c38239f35b6001600160401b031990911681179091556040519081527fc7f505b2f371ae2175ee4913f4499e1f2633a7b5936321eed1cdaeb6115181d290602090a138808062000058565b63f92ee8a960e01b8152600490fd5b600080fdfe61010080604052600436101561003b575b50361561002957604051631eb49d6d60e11b8152600490fd5b604051631eb49d6d60e11b8152600490fd5b600060c05260c0513560e01c90816301ffc9a714613fcb5750806302c1bab414613e94578063037889ff14613e605780630db4eb0a14613bfc5780631459457a14613a07578063248a9ca3146139c95780632f2ff15d1461397b578063305a67a8146137e557806336568abe1461379e5780633bc6d5c0146135b05780633f4ba83a14613534578063401ee72c146132ac57806343da82ea1461319357806344c4ad1714612f5c5780634d57bab414612f3e5780634deee03e14612f1457806355d2a70b14612e5657806356f8ab1f14612e385780635ae19be214612dcd5780635c975abb14612d9c5780635e44cbd214612d7757806366445b3f14612c2e5780636feec2f214612a2657806379fa9ba4146129f65780637aec70ed14611efb5780637b98b19614611ed35780638144116014611da05780638456cb5914611d3457806391d1485414611cd857806394a1dd8d14611c895780639662022514611a0057806396db752a1461194257806399d1891b14611923578063a217fddf14611905578063a5ab6a101461181f578063ae67e06d14611464578063b6a9f40f1461140c578063b9a28500146109ea578063cc1bdf8a146109c1578063cc3dcc8f14610984578063d547741f1461092f578063d6d625491461074d578063d8927f421461071d578063dfd4b9c114610448578063e2636f2b1461036a5763e9754b35146102485738610010565b3461035f5760c036600319011261035f576001600160a01b036004358181169081900361035f5760243560ff811681036103655760443583811680910361035f576064359084821680920361035f576084359285841680940361035f5760a43595861680960361035f576102cb906102be6159f4565b6102c66159f4565b614bb8565b83158015610357575b801561034f575b8015610347575b801561033f575b61032d576001600160601b0360a01b93846006541617600655836005541617600555826007541617600755816008541617600855600954161760095560c05160c051f35b604051633ee76a8d60e11b8152600490fd5b5082156102e9565b5084156102e2565b5081156102db565b5080156102d4565b60c05180fd5b600080fd5b3461035f57604036600319011261035f5760043560243580151590818103610365576103946159f4565b8260c05152600b6020526002604060c0512001805460ff81161561042f57829081610421575b5061040857805461ff00191691151560081b61ff00169190911790557f1e3f43a599d18ce73815d1c5cdc10ba47dc43f357ba6ebdcd458d2793d5083c490602090604051908152a260c05180f35b6040516337852fe560e21b815260048101859052602490fd5b60ff915060101c16856103ba565b6040516337852fe560e21b815260048101869052602490fd5b3461035f57602036600319011261035f576004356001600160401b03811161035f576104789036906004016141b9565b6104806159f4565b61049361048e368385614f1e565b615b9e565b600160401b8111610707576001548160015580821061068b575b5081600160c05152600080516020615f308339815191529060c051935b8385106104fe5760c0517f9fe6eeb0f0541c644a56c67efeb872dbadd803a60b909d7dde1b35a3fe230b0e8180a260c05180f35b6105088183614744565b6001600160a01b0361051982614a2d565b85546001600160a01b0319169116178455600184016001600160a01b0361054260208401614a2d565b82546001600160a01b0319169116178155604082013561ffff8116810361035f57815461ffff60a01b191660a09190911b61ffff60a01b16179055606081013590601e198136030182121561035f57016001600160401b0381351161035f5760608135023603602082011361035f576105bf8135600286016148de565b60208101906002850160c05152602060c051209160c051905b823582106105f7575050505060036020600192019301940193916104ca565b6001600160a01b0361060882614a2d565b85546001600160a01b03191691161784556001600160a01b0361062d60208301614a2d565b166001600160601b0360a01b60018601541617600185015561ffff60408201351660408201350361035f576001848101805461ffff60a01b1916604084013560a01b61ffff60a01b16179055906002906060019401910190926105d8565b600390806003029060038204036106f157826003026003810484036106f1576001600052600080516020615f3083398151915291820191015b8181106106d25750506104ad565b806000849255600060018201556106eb60028201614878565b016106c4565b634e487b7160e01b600052601160045260246000fd5b634e487b7160e01b600052604160045260246000fd5b3461035f57602036600319011261035f57602061073b6004356156db565b6040516001600160a01b039091168152f35b3461035f57606036600319011261035f5760043560243561076c61416a565b908260c05152600b602052604060c05120600c60205260ff604060c051205416908161091f575b811561090d575b81156108fa575b506108e1576005546040516305cad88760e41b815260048101949094526001600160a01b039283166024850152604484018290526080908490606490829086165afa9283156108d45760c0519361085a575b50825181811061083c5750506108386060602084015192604085015116930151604051938493846040919493926060820195825260018060a01b031660208201520152565b0390f35b6044925060405191633d346c4760e01b835260048301526024820152fd5b9092506080813d6080116108cc575b81610876608093836142ce565b8101031261035f576040519060808201908282106001600160401b038311176107075760609160405280518352602081015160208401526108b96040820161456b565b60408401520151606082015291836107f3565b3d9150610869565b6040513d60c051823e3d90fd5b6040516337852fe560e21b815260048101849052602490fd5b60ff91506002015460081c1615846107a1565b600281015460101c60ff16915061079a565b600281015460ff16159150610793565b3461035f57604036600319011261035f5761097d60043561094e614112565b908060c05152600080516020615f108339815191526020526109786001604060c051200154615ab8565b615b1b565b5060c05180f35b3461035f57608036600319011261035f576109bb6109a0614154565b6109a8614112565b906109b1614180565b91604435916155e1565b60c05180f35b3461035f57602036600319011261035f576109bb6109dd614154565b6109e56159f4565b6159a8565b3461035f5760a036600319011261035f57610a03614180565b60843560e05260e051151560e0510361036557610a1e615aeb565b610a26615732565b6001600160a01b0381166114075750335b610a4381600435614486565b901561133c5780151590816113fb575b5061133c57610a63600435615c6e565b610a6e6004356156db565b60043560c05152600b6020526002604060c05120015460ff8116159081156113ec575b81156113dd575b506110f657600554604051633951390760e21b815260048035908201526001600160a01b0384811660248301529091169190602081604481865afa9081156108d45760c051916113ab575b50602435811061138b5750610af9600435614b28565b9160243560a05260c0519060c051946024602060c051936040519283809263297d189f60e11b825260043560048301525afa9081156108d45760c05191611359575b5095909195925b8315158061134e575b156111f05760055460405163083d13a560e11b81526004810186905292906001600160a01b031661018084602481845afa9384156108d45760c051946111bd575b5060408401516001600160a01b03868116911614611151575090829160a0610c1d9594015160c05160805260a051811015600014611149575060a0516080525b610bda60805160a051614479565b60a0526008546060840151604051633e535d2f60e11b815260048101919091526001600160a01b0389811660248301529096911690602090879081906044820190565b0381845afa9586156108d45760c05196611115575b50610c3f60805187614865565b91610c506080516060870151614865565b6101608601519092906001600160a01b03168061110f575060408601516001600160a01b0316905b86519060018060a01b0360808901511661ffff60c08a0151169160043560c05152600b60205260ff6002604060c05120015416156110f657610cbb600435614b28565b1561106457506008546001600160a01b031692833b1561035f57604051634e61dea160e01b815260048035908201526001600160a01b038c81166024830152958616604482015260648101899052948e166084860152600160a48601523360c486015260e051151560e486015261010485015261012484015261014483015260c05190829061016490829084905af180156108d45761104e575b50610d6992610d6391614659565b99614659565b600454604084015160208501519296926001600160a01b039182169290911690813b1561035f576040519263cd3877df60e01b84526004840152602483015260805160448301528160648160c0519360c051905af180156108d457611038575b508715610fa85760045460408401516001600160a01b039182169116813b1561035f57604051630cf76cab60e21b815260c0805160805160048035908501526001600160a01b0394851660248501529389166044840152606483019390935251909283916084918391905af180156108d457610f92575b50610ec2925b60018060a01b03604082015116916060825192015160405192338452602084015260408301526080516060830152608082015260018060a01b03881660a082015260018060a01b038516907f64ed19115a88ec244d5b99e1b64c488e9d277040094c45ab2cd318de2212fcad60c060043592a460805190614659565b60055460405163393f52b360e11b8152600481018690529194906001600160a01b0316602083602481845afa9283156108d45760c05193610f5e575b50803b1561035f576040519163754f2c0160e11b8352600483015260805160248301528160448160c0519360c051905af180156108d457610f48575b50945b949295909195610b42565b610f519061424e565b60c05161035f5787610f3a565b9092506020813d602011610f8a575b81610f7a602093836142ce565b8101031261036557519189610efe565b3d9150610f6d565b610f9b9061424e565b60c05161035f5789610e40565b60045460408401516001600160a01b039182169116813b1561035f576040516307de1d4560e41b815260c0805160805160048035908501526001600160a01b0394851660248501529389166044840152606483019390935251909283916084918391905af180156108d457611022575b50610ec292610e46565b61102b9061424e565b60c05161035f5789611018565b6110419061424e565b60c05161035f5789610dc9565b6110579061424e565b60c05161035f578b610d55565b92833b1561035f57604051634e61dea160e01b815260048035908201526001600160a01b038c81166024830152958616604482015260648101899052948e166084860152600060a486018190523360c487015260e486015261010485015261012484015261014483015260c05190829061016490829084905af180156108d45761104e5750610d6992610d6391614659565b60246040516337852fe560e21b81526004356004820152fd5b90610c78565b9095506020813d602011611141575b81611131602093836142ce565b810103126103655751948a610c32565b3d9150611124565b608052610bcc565b91946020919894935060246040518094819363393f52b360e11b835260048301525afa9081156108d45760c0519161118b575b5094610f3d565b90506020813d6020116111b5575b816111a6602093836142ce565b81010312610365575187611184565b3d9150611199565b6111e29194506101803d610180116111e9575b6111da81836142ce565b81019061457f565b9289610b8c565b503d6111d0565b91869086604435841161133c5760a05161130f5761122b575b604083836001600080516020615f708339815191525582519182526020820152f35b60249360043560c05152601060205261124b604060c05120918254614479565b905560043560c05152600f602052604060c051209060018060a01b0316600052602052604060002061127f84358254614659565b905560055460405163f16a1eed60e01b815260048035908201529360209185919082906001600160a01b03165afa80156108d45760c051906112dc575b60409350156112cc575b83611209565b6112d7600435615ce7565b6112c6565b506020833d602011611307575b816112f6602093836142ce565b8101031261036557604092516112bc565b3d91506112e9565b604461131f60a051602435614479565b60405190632a2d98e760e11b825260243560048301526024820152fd5b604051637741130160e11b8152600490fd5b5060a0511515610b4b565b90506020813d602011611383575b81611374602093836142ce565b81010312610365575187610b3b565b3d9150611367565b60449060405190632a2d98e760e11b825260243560048301526024820152fd5b90506020813d6020116113d5575b816113c6602093836142ce565b81010312610365575184610ae3565b3d91506113b9565b60ff915060081c161583610a98565b905060ff8160101c1690610a91565b90506024351182610a53565b610a37565b3461035f57602036600319011261035f5760043560c05152600b6020526080604060c0512060ff6002825492015460405192835281811615156020840152818160081c161515604084015260101c1615156060820152f35b3461035f57611472366141e9565b9061147b6159f4565b8260c05152600b60205260ff6002604060c051200154166108e1576004805460405163089bb30560e11b8152918201859052602090829060249082906001600160a01b03165afa9081156108d45760c051916117f0575b50156117d7576001546114ed6114e88483614659565b614666565b60c051909181905b8082106117a057505060c051905b8482106117635750509061151961153092615b9e565b6040519261152684614261565b8484523691614f1e565b602082019081526001604083015260c051606083015260c05160808301528260c05152600b602052604060c05120908251825551602081519161157683600186016149b6565b016001830160c05152602060c0512060c051915b83831061165e576040860151600286018054606089015161ff0090151560081b1692151560ff1661ffff199091161791909117815587906080880151815462ff0000191690151560101b62ff000016179055600a54600160401b81101561164657816115ff8260016116189401600a55614b69565b90919082549060031b91821b91600019901b1916179055565b7facae4de470639cd8948c4ab5ca6850bab5f54cd1d6c7ad560fafb9016e2f5c4560c05160c051a260c05180f35b634e487b7160e01b60c051526041600452602460c051fd5b80518051805184546001600160a01b0319166001600160a01b0391821617855560208201516001860180546040909401516001600160b01b0319909416919092161760a09290921b61ffff60a01b169190911790556020600284019101519060208251926116cc84846148de565b019060c05152602060c051209060c051905b8382106116fc5750505050600360206001920192019201919061158a565b8051805184546001600160a01b039182166001600160a01b03199091161785556020808301516001808801805460409096015161ffff60a01b60a09190911b16929094166001600160b01b03199095169490941717909155600290940193920191016116de565b61179860019161177d36611778868a8a614759565b6147ba565b6117878287614721565b526117928186614721565b50614735565b910190611503565b90916117cf6001916117ba6117b4866146e2565b50614341565b6117c48288614721565b526117928187614721565b9201906114f5565b60405163f0e5261160e01b815260048101849052602490fd5b611812915060203d602011611818575b61180a81836142ce565b810190614641565b846114d2565b503d611800565b3461035f5760208060031936011261035f5760405161183d81614261565b60c051815260608282015260c051604082015260c0516060820152608060c05191015260043560c05152600b8152604060c051206040519061187e82614261565b80548252600261189060018301614423565b918484019283520154604083019160ff8216151583526118e8606085019160ff8460081c161515835260ff608087019460101c161515845260405196879681885251908701525160a0604087015260c086019061401e565b925115156060850152511515608084015251151560a08301520390f35b3461035f5760c05136600319011261035f57602060405160c0518152f35b3461035f576109bb6119343661421c565b9061193d615a5c565b6150af565b3461035f5760208060031936011261035f5760043560c05152600d8152604060c051206040519081838254918281520190819260c051528460c051209060c0515b868282106119e3578686611999828803836142ce565b604051928392818401908285525180915260408401929160c0515b8281106119c357505050500390f35b83516001600160a01b0316855286955093810193928101926001016119b4565b83546001600160a01b031685529093019260019283019201611983565b3461035f5760c05136600319011261035f57604051611a1e81614261565b604051611a2a8161427c565b60c05181526060602082015260c051604082015260c051606082015260c051608082015260c05160a082015260c05160c082015260c05160e082015260c05161010082015260c051610120820152815260c051602082015260c051604082015260c0516060820152608060c051910152604051611aa681614261565b604051611ab28161427c565b60ff60c05154168152611ac36143bb565b602082015260018060a01b03600254166040820152600354606082015260018060a01b0360045416608082015260018060a01b036005541660a082015260018060a01b036006541660c082015260018060a01b036007541660e082015260018060a01b036008541661010082015260018060a01b036009541661012082015281526127106020820152600080516020615f9083398151915260408201527feaf9385a147c4441b7cff84a8a185a566b6f7c496b77a003346be0e33336974160608201527f11a8cb5a02bd6c42679835e867ef2118ba78f088f8300511420c6603c21d9c786080820152604051809160208252608081519160a0602085015260ff83511660c0850152611be6602084015161014060e087015261020086019061401e565b6040808501516001600160a01b0390811661010088810191909152606080880151610120808b01919091528789015184166101408b015260a0808a015185166101608c015260c08a015185166101808c015260e08a015185166101a08c01529289015184166101c08b0152909701519091166101e0880152602084015161ffff168783015290830151858701529382015183860152910151918301919091520390f35b3461035f57604036600319011261035f57611ca2614112565b60043560c05152600e602052604060c051209060018060a01b0316600052602052602060ff604060002054166040519015158152f35b3461035f57604036600319011261035f57611cf1614112565b60043560c05152600080516020615f10833981519152602052604060c051209060018060a01b0316600052602052602060ff604060002054166040519015158152f35b3461035f5760c05136600319011261035f57611d4e6159f4565b611d56615732565b600080516020615f50833981519152600160ff198254161790557f62e78cea01bee320cd4e420270b5ea74000d11b0c9f74754ebdbfc544b05a2586020604051338152a160c05180f35b3461035f5760208060031936011261035f576004356001600160401b03811161035f57611dd19036906004016141b9565b90611ddb826142ef565b90611de960405192836142ce565b828252611df5836142ef565b8285019390601f190136853760c0515b818110611e535750505090604051928392818401908285525180915260408401929160c0515b828110611e3a57505050500390f35b8351151585528695509381019392810192600101611e2b565b80611e616001928486614f8d565b358060c05152600b88526002604060c0512001549060ff8083169283611ec5575b83611eb7575b505081611ea6575b50611e9b8287614721565b901515905201611e05565b611eb09150614b28565b1588611e90565b60101c161591508980611e88565b9250808360081c1692611e82565b3461035f57602036600319011261035f576020611ef1600435615001565b6040519015158152f35b3461035f5760031960203682011261035f576001600160401b036004351161035f576101c0906004353603011261035f57611f34615732565b611f3c615a5c565b6004356004013560c05152600b6020526002604060c0512001805460ff8116159081156129e7575b81156129d9575b508015612974575b8015612910575b80156128fb575b6128de57611f99602460043501600435600401614edc565b9050611faf604460043501600435600401614edc565b919050148015906128ab575b8015612876575b61032d576001600160a01b03611fdd60043561014401614a2d565b161515806127e8575b61032d574260043560a4013510156127dc57425b60043560c401356127cf5762093a80905b61201960e460043501614f11565b806127bf575b156127b657612035610124600435013582614659565b925b6004356004013560c05152600c602052604060c051209361207561205f60e460043501614f11565b865461ff00191690151560081b61ff0016178655565b600385015560846004350135600485015561209561014460043501614a2d565b6005850180546001600160a01b0319166001600160a01b039092169190911790556120d661048e6120cf600480356101a481019101614edc565b3691614f1e565b6120eb6101a460043501600435600401614edc565b60068601916120fa82846149b6565b809260c05152602060c051209060c051935b83851061263557505050505061212d61010460043501600435600401614edc565b905060c0515b81811061254357825461ff001916610100178355855460ff19166001908117875586018490558560026121668787614659565b9101556004546001600160a01b0316803b1561035f5760405190633f5df1bd60e21b82526004356004013560048301528160248160c0519360c051905af180156108d45761252d575b5060c0515b6121c8602460043501600435600401614edc565b9050811015612317576121ef816121e9602460043501600435600401614edc565b90614f8d565b356004356004013560c051526010602052612211604060c05120918254614659565b90556005546001600160a01b031661222d600435606401614a2d565b612245836121e9604460043501600435600401614edc565b359161225f846121e9602460043501600435600401614edc565b359061227061016460043501614a2d565b9161228061018460043501614a2d565b94823b1561035f57604051635bdc28a360e11b815260c05160048035810135908301526001600160a01b0396871660248301526044820192909252606481019290925292841660848201529390921660a48401526101f460c4840152908290818060e48101039160c051905af180156108d457612301575b506001016121b4565b61230a9061424e565b60c05161035f57816122f8565b612325606460043501614a2d565b6123b261233c602460043501600435600401614edc565b9290612352604460043501600435600401614edc565b61236360e460049693963501614f11565b946123c061237661014460043501614a2d565b9161238661016460043501614a2d565b9361239c6101a460043501600435600401614edc565b9690976040519b8c6101408091528d0191614f9d565b918a830360208c0152614f9d565b600435608481013560408a015260a481013560608a015260c481013560808a015296151560a08901526101249096013560c0808901919091526001600160a01b0391821660e0890152911661010087015285850361012087015281855251600582901b85016020908101959081019084905b848410612475576001600160a01b0387166004803501357f9401a85db6ce4cfc10f6fcec81b17413228beef77927e835634b317f2a0741858b8b038ca360c05180f35b909192939496601f198282030184528735607e198436030181121561035f57830160808201906124a58382614fc1565b6060810135601e198236030181121561035f570190602082359201926001600160401b03831161035f57606083023603841361035f578260a092608060608401525201919060c051905b80821061250f575050506020806001929901940194019294939190612432565b9091926060808261252260019488614fc1565b0194019201906124ef565b6125369061424e565b60c05161035f57806121af565b61256461255f826121e961010460043501600435600401614edc565b614a2d565b906004356004013560c05152600e80602052604060c0512060018060a01b03841660005260205260ff60406000205416156125a5575b506001915001612133565b6004356004013560c05152602052604060c0512060018060a01b0383166000526020526040600020600160ff198254161790556004356004013560c05152600d602052604060c0512091825492600160401b841015611646578361260f9160018096018155614ba0565b819291549060031b91858060a01b0316821b91858060a01b03901b19161790558761259a565b61263f8183614744565b6001600160a01b0361265082614a2d565b85546001600160a01b0319169116178455600184016001600160a01b0361267960208401614a2d565b82546001600160a01b0319169116178155604082013561ffff8116810361035f57815461ffff60a01b191660a09190911b61ffff60a01b16179055606081013590601e198136030182121561035f57016001600160401b0381351161035f5760608135023603602082011361035f576126f68135600286016148de565b60208101906002850160c05152602060c0512060c051925b8235841061272d5750505050600360206001920193019401939161210c565b6001600160a01b0361273e82614a2d565b83546001600160a01b0319169116178255600182016001600160a01b0361276760208401614a2d565b82546001600160a01b0319169116178155604082013561ffff8116810361035f57815461ffff60a01b191660a09190911b61ffff60a01b1617905560019060029060600192019301929061270e565b60c05192612037565b506101246004350135151561201f565b60c460043501359061200b565b60a46004350135611ffa565b506008546001600160a01b0316602061280660043561014401614a2d565b6040516324c9e93f60e21b81526001600160a01b03909116600482015291829060249082905afa9081156108d45760c05191612844575b5015611fe6565b90506020813d60201161286e575b8161285f602093836142ce565b8101031261035f57518261283d565b3d9150612852565b5061288560e460043501614f11565b158015611fc257506128a261010460043501600435600401614edc565b90501515611fc2565b506128ba60e460043501614f11565b8015611fbb57506128d661010460043501600435600401614edc565b905015611fbb565b60246040516337852fe560e21b8152600435600401356004820152fd5b5061290b60043560040135614b28565b611f81565b506024602060018060a01b036004541660405192838092631355eead60e21b82526004356004013560048301525afa9081156108d45760c05191612955575b50611f7a565b61296e915060203d6020116118185761180a81836142ce565b8261294f565b506024602060018060a01b03600454166040519283809263f6aacfb160e01b82526004356004013560048301525afa9081156108d45760c051916129ba575b5015611f73565b6129d3915060203d6020116118185761180a81836142ce565b826129b3565b60ff915060101c1682611f6b565b905060ff8160081c1690611f64565b3461035f57606036600319011261035f576020611ef1612a14614154565b612a1c61416a565b9060243590614e31565b3461035f5760a036600319011261035f57600435612a42614180565b612a4a614128565b612a52615732565b612a5a615aeb565b612a6383615c6e565b60055460405163083d13a560e11b8152600481018590526001600160a01b039182169391929190610180908181602481895afa9182156108d45760c05192612c11575b50508360408201511633141580612bcf575b610029576020846004541691019060208251602460405180948193631355eead60e21b835260048301525afa9081156108d45760c05191612bb0575b5080612ba0575b612b875750833b1561035f5782906040519563cfd24ba560e01b87526004870152602435602487015260443560448701521660648501521660848301526101f460a48301528160c48160c0519360c051905af180156108d457612b71575b6001600080516020615f708339815191525560c05180f35b612b7a9061424e565b60c05161035f5780612b59565b60249051604051906337852fe560e21b82526004820152fd5b50612bab8151614b28565b612afb565b612bc9915060203d6020116118185761180a81836142ce565b87612af4565b50600080516020615f9083398151915260c05152600080516020615f10833981519152602052604060c051203360005260205260ff6040600020541615612ab8565b612c279250803d106111e9576111da81836142ce565b8680612aa6565b3461035f57612c3c3661421c565b90612c456159f4565b8115612d6d575b60c05190815b600a54811080612d64575b15612d5b57612c6b81614b69565b90549060031b1c928284141580612d52575b612d4757612c8b8186614479565b60649081811115612d3f5750905b60055460405163fa8d346b60e01b815260048101969096526024860183905260c051602096918791839160449183916001600160a01b03165af19586156108d45760c05196612d0d575b505084612cef91614659565b9310612d0357612cfe90614735565b612c52565b5050505060c05180f35b9080929650813d8311612d38575b612d2581836142ce565b81010312610365575193612cef87612ce3565b503d612d1b565b905090612c99565b9250612cfe90614735565b50821515612c7d565b505050506109bb565b50838310612c5d565b6000199150612c4c565b3461035f57602036600319011261035f57612d906159f4565b60043560035560c05180f35b3461035f5760c05136600319011261035f57602060ff600080516020615f5083398151915254166040519015158152f35b3461035f5760208060031936011261035f57600435801515810361036557612df490614cf4565b906040519181839283018184528251809152816040850193019160c0515b828110612e2157505050500390f35b835185528695509381019392810192600101612e12565b3461035f5760c05136600319011261035f5760206040516101f48152f35b3461035f57612eaf612e736020612e6c3661421c565b92906156db565b600854604051633e535d2f60e11b815260048101949094526001600160a01b038083166024860152939491938592911690829081906044820190565b03915afa9182156108d45760c05192612ee0575b50604080516001600160a01b039290921682526020820192909252f35b9091506020813d602011612f0c575b81612efc602093836142ce565b8101031261036557519082612ec3565b3d9150612eef565b3461035f57602036600319011261035f5760043560ff81168103610365576109bb906102c66159f4565b3461035f57602036600319011261035f576020611ef1600435614b28565b3461035f5760c036600319011261035f57600435612f78614112565b90612f81614128565b612f8961413e565b90612f92615732565b612f9a615aeb565b612fa383615c6e565b8260c051526020600b8152604060c051209060018060a01b039133838816141580613153575b610029576002015460ff8160101c16908115613144575b5061042f57816004541660405163f6aacfb160e01b81528660048201528281602481855afa9081156108d45760c05191613127575b5061310e578160249160405192838092631355eead60e21b82528a60048301525afa9182156108d45760c051926130f1575b5050806130e2575b610408576005541690813b1561035f57604051635bdc28a360e11b815260c05160048201959095526001600160a01b0395861660248201526044803590820152606480359082015290851660848201529390911660a48401526101f460c48401528290818060e48101039160c051905af180156108d457612b71576001600080516020615f708339815191525560c05180f35b506130ec84614b28565b61304f565b6131079250803d106118185761180a81836142ce565b8680613047565b6040516337852fe560e21b815260048101879052602490fd5b61313e9150833d85116118185761180a81836142ce565b88613015565b60ff915060081c161587612fe0565b50600080516020615f9083398151915260c05152600080516020615f108339815191528252604060c0512033600052825260ff6040600020541615612fc9565b3461035f5760208060031936011261035f576131b0600435614a41565b90604051918183928301818452825180915260408401918060408360051b87010194019260c051905b8382106131e65786860387f35b919395509193603f1987820301825283865160808260a0818387019461322f88825161ffff6040809260018060a01b038082511686526020820151166020860152015116910152565b0151956060938482015286518095520194019160c051915b818310613268575050505080600192970192019201869594929391936131d9565b9193828661329d8698600195975161ffff6040809260018060a01b038082511686526020820151166020860152015116910152565b01950193019091879392613247565b3461035f576132ba366141e9565b6132c26159f4565b8260c05152600b602052604060c0512060ff60028201541615610408576001546132ef6114e88483614659565b60c051909181905b80821061351857505060c051905b8482106134fb5750509061331a600192615b9e565b019161332682846149b6565b809260c05152602060c051209060c051935b83851061336e57857f9fe6eeb0f0541c644a56c67efeb872dbadd803a60b909d7dde1b35a3fe230b0e60c05160c051a260c05180f35b6133788183614744565b6001600160a01b0361338982614a2d565b85546001600160a01b0319169116178455600184016001600160a01b036133b260208401614a2d565b82546001600160a01b0319169116178155604082013561ffff8116810361035f57815461ffff60a01b191660a09190911b61ffff60a01b16179055606081013590601e198136030182121561035f57016001600160401b0381351161035f5760608135023603602082011361035f5761342f8135600286016148de565b60208101906002850160c05152602060c051209160c051905b8235821061346757505050506003602060019201930194019391613338565b6001600160a01b0361347882614a2d565b85546001600160a01b03191691161784556001600160a01b0361349d60208301614a2d565b166001600160601b0360a01b60018601541617600185015561ffff60408201351660408201350361035f576001848101805461ffff60a01b1916604084013560a01b61ffff60a01b1617905590600290606001940191019092613448565b61351060019161177d36611778868a8c614759565b910190613305565b909161352c6001916117ba6117b4866146e2565b9201906132f7565b3461035f5760c05136600319011261035f5761354e6159f4565b600080516020615f50833981519152805460ff81161561359e5760ff191690557f5db9ee0a495bf2e6ff9c91a7834c1ba4fdd244a5e8aa4e537bd38aeae4b073aa6020604051338152a160c05180f35b604051638dfc202b60e01b8152600490fd5b3461035f5760c036600319011261035f576004356135cc614180565b6135d4614128565b60a4359061ffff8216809203610365576135ec615732565b6135f4615aeb565b6135fd84615c6e565b60055460405163083d13a560e11b8152600481018690526001600160a01b0391821694919291906101809081816024818a5afa9182156108d45760c05192613781575b5050836040820151163314158061373f575b610029576020846004541691019060208251602460405180948193631355eead60e21b835260048301525afa9081156108d45760c05191613720575b5080613710575b612b875750612710841161032d57843b1561035f5782906040519663cfd24ba560e01b885260048801526024356024880152604435604488015216606486015216608484015260a48301528160c48160c0519360c051905af180156108d457612b71576001600080516020615f708339815191525560c05180f35b5061371b8151614b28565b613695565b613739915060203d6020116118185761180a81836142ce565b8861368e565b50600080516020615f9083398151915260c05152600080516020615f10833981519152602052604060c051203360005260205260ff6040600020541615613652565b6137979250803d106111e9576111da81836142ce565b8780613640565b3461035f57604036600319011261035f576137b7614112565b336001600160a01b038216036137d35761097d90600435615b1b565b60405163334bd91960e11b8152600490fd5b3461035f5760208060031936011261035f5760043590613803615aeb565b61380b615732565b60055460405163083d13a560e11b8152600481018490526001600160a01b03918216926101809290918381602481885afa9384156108d45760c0519461395c575b5050806040840151163314158061391c575b61002957819060045416920191818351602460405180948193631355eead60e21b835260048301525afa9182156108d45760c051926138ff575b5050806138ef575b612b875750803b1561035f576040519163b9344ea560e01b835260048301528160248160c0519360c051905af180156108d457612b71576001600080516020615f708339815191525560c05180f35b506138fa8151614b28565b6138a0565b6139159250803d106118185761180a81836142ce565b8480613898565b50600080516020615f9083398151915260c05152600080516020615f108339815191528252604060c0512033600052825260ff604060002054161561385e565b613973929450803d106111e9576111da81836142ce565b91858061384c565b3461035f57604036600319011261035f5761097d60043561399a614112565b908060c05152600080516020615f108339815191526020526139c46001604060c051200154615ab8565b615933565b3461035f57602036600319011261035f5760043560c05152600080516020615f1083398151915260205260206001604060c051200154604051908152f35b3461035f5760a036600319011261035f57613a20614154565b613a28614112565b90613a3161416a565b6001600160a01b0392906064358481169081900361035f576084359185831680930361035f577ff0c57e16840df040f15088dc2f81fe391c3923bec73e23a9662efc9c229c6a009586549460ff8660401c1615966001600160401b03871680159081613bf4575b6001149081613bea575b159081613be1575b50613bcf5767ffffffffffffffff1987166001178955613b3e9688613bb0575b508281613ad5615ca6565b613add615ca6565b613ae5615ca6565b613aed615ca6565b6001600080516020615f70833981519152551615613ba9575b613b0f9061575d565b50818116613b99575b508116613b89575b50600f6003556001600160601b0360a01b60045416176004556159a8565b613b485760c05180f35b68ff00000000000000001981541690557fc7f505b2f371ae2175ee4913f4499e1f2633a7b5936321eed1cdaeb6115181d2602060405160018152a1806109bb565b613b9290615889565b5085613b20565b613ba2906157eb565b5087613b18565b5033613b06565b68ffffffffffffffffff19166801000000000000000117895589613aca565b60405163f92ee8a960e01b8152600490fd5b9050158a613aaa565b303b159150613aa2565b899150613a98565b3461035f5760e036600319011261035f57600435613c18614112565b613c20614128565b90613c2961413e565b9060c4359161ffff831680930361035f57613c42615732565b613c4a615aeb565b613c5385615c6e565b8460c051526020600b8152604060c051209060018060a01b03809416913383141580613e1e575b610029576002015460ff8160101c16908115613e0f575b50613df657836004541660405163f6aacfb160e01b81528860048201528281602481855afa9081156108d45760c05191613dd9575b50613dc0578160249160405192838092631355eead60e21b82528c60048301525afa9182156108d45760c05192613da3575b505080613d94575b61310e57612710841161032d57826005541694853b1561035f57839160405197635bdc28a360e11b895260048901526024880152604435604488015260643560648801521660848601521660a484015260c48301528160e48160c0519360c051905af180156108d457613d85576001600080516020615f708339815191525560c05180f35b613d8e9061424e565b80612b59565b50613d9e86614b28565b613d00565b613db99250803d106118185761180a81836142ce565b8780613cf8565b6040516337852fe560e21b815260048101899052602490fd5b613df09150833d85116118185761180a81836142ce565b89613cc6565b6040516337852fe560e21b815260048101889052602490fd5b60ff915060081c161588613c91565b50600080516020615f9083398151915260c05152600080516020615f108339815191528252604060c051203360c05152825260ff604060c05120541615613c7a565b3461035f57604036600319011261035f576040613e86613e7e614112565b600435614486565b825191151582526020820152f35b3461035f5760208060031936011261035f57606060e0604051613eb681614232565b60c051815260c0518482015260c051604082015260c0518382015260c051608082015260c05160a082015260c05160c0820152015260043560c05152600c8152604060c0512061083860405191613f0c83614232565b80549060ff82161515845260ff8585019260081c16151582526001810154906040850191825260028101546060860190815260038201546080870190815260048301549160a0880192835260018060a01b0394613f796006876005880154169660c08c0197885201614423565b9660e08a019788526040519a8b9a818c52511515908b015251151560408a01525160608901525160808801525160a08701525160c0860152511660e0840152516101008084015261012083019061401e565b3461035f57602036600319011261035f576004359063ffffffff60e01b821680920361035f57602091637965db0b60e01b811490811561400d575b5015158152f35b6301ffc9a760e01b14905083614006565b908082519081815260208091019281808460051b830101950193600080925b85841061404e575050505050505090565b90919293949596601f1982820301845285885160808260a0818387019461409888825161ffff6040809260018060a01b038082511686526020820151166020860152015116910152565b0151956060938482015286518095520194019186915b8183106140ce57505050508060019299019401940192959493919061403d565b919382866141038698600195975161ffff6040809260018060a01b038082511686526020820151166020860152015116910152565b019501930190918993926140ae565b602435906001600160a01b038216820361036557565b608435906001600160a01b038216820361036557565b60a435906001600160a01b038216820361036557565b600435906001600160a01b038216820361036557565b604435906001600160a01b038216820361036557565b606435906001600160a01b038216820361036557565b35906001600160a01b038216820361036557565b359061ffff8216820361036557565b9181601f84011215610365578235916001600160401b038311610365576020808501948460051b01011161036557565b9060406003198301126103655760043591602435906001600160401b03821161036557614218916004016141b9565b9091565b6040906003190112610365576004359060243590565b61010081019081106001600160401b0382111761070757604052565b6001600160401b03811161070757604052565b60a081019081106001600160401b0382111761070757604052565b61014081019081106001600160401b0382111761070757604052565b606081019081106001600160401b0382111761070757604052565b604081019081106001600160401b0382111761070757604052565b90601f801991011681019081106001600160401b0382111761070757604052565b6001600160401b0381116107075760051b60200190565b9060405161431381614298565b82546001600160a01b039081168252600190930154928316602082015260a09290921c61ffff166040830152565b906040519161434f836142b3565b8261435982614306565b815260028092019182549061436d826142ef565b9361437b60405195866142ce565b828552600090815260208082208187015b85841061439f5750505050505060200152565b84836001926143ad85614306565b81520192019301929061438c565b600190600154916143cb836142ef565b926143d960405194856142ce565b808452600160009081526020600080516020615f308339815191528187015b84841061440757505050505050565b600383879261441585614341565b8152019201930192906143f8565b90815461442f816142ef565b9261443d60405194856142ce565b818452600090815260208082208186015b84841061445c575050505050565b60038360019261446b85614341565b81520192019301929061444e565b919082039182116106f157565b9190600092808452602091600b835260409160ff6002848820015460081c161561453d576144b381615001565b80614545575b61453d576144c681614b28565b1561452e578552600c83528185206001810154421061453d576004015492831561452e57600f81528286206001600160a01b03909216865252832054908082101561452857614516929350614479565b90600354600192818082109118021890565b50508190565b50506003546001945092915050565b505050508190565b50808652600e84528286206001600160a01b038316875284528286205460ff16156144b9565b51906001600160a01b038216820361036557565b80916101809283910312610365576040519182018281106001600160401b038211176107075760405280518252602081015160208301526145c26040820161456b565b6040830152606081015160608301526145dd6080820161456b565b608083015260a081015160a083015260c081015161ffff811681036103655760c083015260e081015160e083015261010080820151908301526101208082015190830152610140808201519083015261463a61016080920161456b565b9082015290565b90816020910312610365575180151581036103655790565b919082018092116106f157565b90614670826142ef565b60409061468060405191826142ce565b8381528093614691601f19916142ef565b019160009160005b8481106146a7575050505050565b60209083516146b5816142b3565b84516146c081614298565b8681528390878282015287878201528252606081830152828501015201614699565b60015481101561470b57600390600160005202600080516020615f308339815191520190600090565b634e487b7160e01b600052603260045260246000fd5b805182101561470b5760209160051b010190565b60001981146106f15760010190565b903590607e1981360301821215610365570190565b9082101561470b576147709160051b810190614744565b90565b91908260609103126103655760405161478b81614298565b60406147b581839561479c81614196565b85526147aa60208201614196565b6020860152016141aa565b910152565b9190608083820312610365576040516147d2816142b3565b80936147de8382614773565b82526060906060810135906001600160401b038211610365570183601f820112156103655760208135614810816142ef565b9561481e60405197886142ce565b8187526020606081890193028501019381851161036557602001915b84831061484d5750505050505060200152565b83869161485a8486614773565b81520192019161483a565b818102929181159184041417156106f157565b8054906000908181558261488b57505050565b6001906001600160ff1b03841684036148ca578252602082209260011b8301925b8381106148b95750505050565b8083600292558383820155016148ac565b634e487b7160e01b83526011600452602483fd5b600160401b82116107075780548282558083106148fa57505050565b6001906001600160ff1b0380821682036106f157841684036106f15760009260005260206000209060011b81019360011b015b83811061493a5750505050565b80836002925583838201550161492d565b805460008083558161495c57505050565b600392826003029260038404036149a257815260208120918201915b8281106149855750505050565b808285925582600182015561499c60028201614878565b01614978565b634e487b7160e01b82526011600452602482fd5b600160401b8211610707578054908281558183106149d357505050565b600392826003029260038404036106f157806003029060038204036106f157600091600052602060002092830192015b828110614a105750505050565b8082859255826001820155614a2760028201614878565b01614a03565b356001600160a01b03811681036103655790565b60009081526020600b6020526040822090600c6020526040832060ff815416614b1757506001809201928354918215614b0a5760015491614a856114e88585614659565b9585825b858110614ae0575050815b858110614aa5575050505050505090565b8690828452614ad9858520614ac8614abd848a614659565b916003850201614341565b614ad2828d614721565b528a614721565b5001614a94565b614aec6117b4826146e2565b614af6828b614721565b52614b01818a614721565b50018690614a89565b50505050506147706143bb565b905061477092506006915001614423565b600052600c602052604060002060ff8154169081614b5b575b5080614b4a5790565b506010602052604060002054151590565b600291500154421038614b41565b600a5481101561470b57600a6000527fc65a7bb8d6351c1cf70c95a316cc6a92839c986682d98bc35f958f4883f9d2a80190600090565b805482101561470b5760005260206000200190600090565b600060ff815492169160ff81168314614cbd576008831161032d57600a546005546001600160a01b031690835b818110614c255750505060ff1916821790556040519081527f3eef9f8a630843d5ed0b5b835c35621f2e3c1d707bf6ff4a774417e1b5f35fe290602090a1565b614c2e81614b69565b905460409081519063f16a1eed60e01b825260049360031b1c8382015260209081816024818a5afa918215614cb3578992614c81575b5050614c74575050600101614be5565b516304b80b4560e21b8152fd5b90809250813d8311614cac575b614c9881836142ce565b81010312614ca857513880614c64565b8780fd5b503d614c8e565b83513d8b823e3d90fd5b505050565b90614ccc826142ef565b614cd960405191826142ce565b8281528092614cea601f19916142ef565b0190602036910137565b15614dc557600a5490614d0682614cc2565b91600090815b818110614d4f575050614d1e81614cc2565b9060005b818110614d30575090925050565b80614d3d60019287614721565b51614d488286614721565b5201614d22565b614d5881614b69565b90549060031b1c806000526020600b815260ff604081600282600020015460081c16928315614db2575b505050614d93575b50600101614d0c565b83614dab91614da56001949689614721565b52614735565b9290614d8a565b600c905260002054169050388080614d82565b6040518081600a54808352602080930190600a6000527fc65a7bb8d6351c1cf70c95a316cc6a92839c986682d98bc35f958f4883f9d2a8936000905b828210614e1757505050614770925003826142ce565b855484526001958601958795509381019390910190614e01565b9092916000916001600160a01b039182169182158015614ed2575b61032d57600854163303614ec057813b15614ebc5760405163079cc67960e41b81526001600160a01b03919091166004820152602481019490945291929181908390604490829084905af19182614ead575b5090614ea75790565b50600190565b614eb69061424e565b38614e9e565b8280fd5b6040516348f5c3ed60e01b8152600490fd5b5080821615614e4c565b903590601e198136030182121561036557018035906001600160401b03821161036557602001918160051b3603831361036557565b3580151581036103655790565b92919092614f2b846142ef565b91614f3960405193846142ce565b829480845260208094019060051b8301928284116103655780915b848310614f6357505050505050565b82356001600160401b038111610365578691614f8286849386016147ba565b815201920191614f54565b919081101561470b5760051b0190565b81835290916001600160fb1b0383116103655760209260051b809284830137010190565b60409061ffff90614ffb9083906001600160a01b0380614fe083614196565b168752614fef60208301614196565b166020870152016141aa565b16910152565b61500a81614b28565b1561504157600052600c602052604060002060ff815460081c16156150415760030154801590811561503a575090565b9050421090565b50600090565b805490600090600081558261505b57505050565b6000526020600020918201915b82811061507457505050565b818155600101615068565b60066150ad91600080825580600183015580600283015580600383015580600483015560058201550161494b565b565b6064821192916000908480156155d9575b61032d57828252602090600b8252604095868420600c845260028886209101805460ff8116156155c15760ff8160081c166155c157908160ff899695949360101c1615615588575b505060ff81541661551b575b859115615515576064925b60018060a01b039187878c6044866005541691518094819363fa8d346b60e01b835260049c8d84015260249b8c8401525af18991816154e6575b506154de575b50818410156151e1578a878a6044898c886007541661517e8b8a614479565b96519687958694630bd01dcb60e01b86528501528c8401525af18991816154af575b5061549e575b508a878a87866005541693518094819363f16a1eed60e01b83528c8301525afa908115615467578991615471575b501580615415575b6151ee575b5050505050505050509050565b5460ff1661534f575b50505090919561523190858552600b8852600c8186209860008a5586600260019b6152246001820161494b565b015587875252842061507f565b82865b615272575b5050507f1efbd6f0c0cbcc55b40dc3c05fdb53ca42b3db697c33a7d3e146abe31bd1ecc59192935080a2803880808080808080806151e1565b600a8054808310156153485790869161528a84614b69565b939054600394851b1c146152a357505050860186615234565b929093919498506000199283810190811161533657906115ff6152c86152d493614b69565b905490881b1c91614b69565b8254978815615325575050807f1efbd6f0c0cbcc55b40dc3c05fdb53ca42b3db697c33a7d3e146abe31bd1ecc5959697019261530f84614b69565b81939154921b1b19169055558392913880615239565b634e487b7160e01b86526031905284fd5b634e487b7160e01b875260118a528287fd5b5050615239565b9297919594959390935b878652600d8752898620805482108061540c575b156153c5579085615381826153c094614ba0565b90549060031b1c16898852600e89528b88208160005289528b60002060ff198154169055898852600f89528b882090600052885260008b812055614735565b615359565b50509250959050929192848452600d83528684208054615402576002976153ee61523192615047565b8686526010855260008187205597386151f7565b5050505050509050565b5084821061536d565b508a878a87866007541693518094819363c30be57360e01b83528c8301525afa90811561546757899161544a575b50156151dc565b6154619150883d8a116118185761180a81836142ce565b38615443565b8c513d8b823e3d90fd5b90508781813d8311615497575b61548881836142ce565b810103126103655751386151d4565b503d61547e565b6154a89194614659565b92386151a6565b9091508881813d83116154d7575b6154c781836142ce565b81010312610365575190386151a0565b503d6154bd565b93503861515f565b9091508881813d831161550e575b6154fe81836142ce565b8101031261036557519038615159565b503d6154f4565b8261511f565b60045492935090916001600160a01b0316803b156155845785809160248b5180948193638d073d1b60e01b83528c60048401525af1801561557a57908794939291615567575b50615114565b6155739096919661424e565b9438615561565b89513d88823e3d90fd5b8580fd5b62ff0000191662010000179055837f226c41535648539c2f2d1bbdd79eb9f3dab29955870bf65f69fb53cbdf5297818780a23880615108565b89516337852fe560e21b815260048101899052602490fd5b5080156150c0565b90926001600160a01b039081169190821580156156d1575b80156156c7575b61032d578060085416331415806156b9575b614ec05780851691169080821480156156b1575b6156aa5730820361567557505060405163a9059cbb60e01b60208201526001600160a01b039390931660248401526044808401929092529082526150ad91906156706064836142ce565b615e87565b6150ad9450604093919351936323b872dd60e01b60208601526024850152604484015260648301526064825261567082614261565b5050505050565b508315615626565b508060075416331415615612565b5080851615615600565b50808216156155f9565b80600052600c6020526156f2604060002091614b28565b8061571c575b61570c57506002546001600160a01b031690565b600501546001600160a01b031690565b5060058101546001600160a01b031615156156f8565b60ff600080516020615f50833981519152541661574b57565b60405163d93c066560e01b8152600490fd5b6001600160a01b031660008181527fb7db2dd08fcb62d0c9e08c51941cae53c267786a0b75803fb7960902fc8ef97d6020526040812054909190600080516020615f108339815191529060ff166157e6578280526020526040822081835260205260408220600160ff198254161790553391600080516020615ef08339815191528180a4600190565b505090565b6001600160a01b031660008181527fb16e88c42fd4e48df2dd6a2eabd6bc9aec654ec170056b470819f8892cc6431c6020526040812054909190600080516020615f9083398151915290600080516020615f108339815191529060ff16615883578184526020526040832082845260205260408320600160ff19825416179055600080516020615ef0833981519152339380a4600190565b50505090565b6001600160a01b031660008181527f146147d4d830fbfd39acc320fe8416a5d16accbaf9578d5f5b064dbe9ba900a660205260408120549091907feaf9385a147c4441b7cff84a8a185a566b6f7c496b77a003346be0e33336974190600080516020615f108339815191529060ff16615883578184526020526040832082845260205260408320600160ff19825416179055600080516020615ef0833981519152339380a4600190565b90600091808352600080516020615f1083398151915280602052604084209260018060a01b03169283855260205260ff60408520541615600014615883578184526020526040832082845260205260408320600160ff19825416179055600080516020615ef0833981519152339380a4600190565b600280546001600160a01b0319166001600160a01b0390921691821790556040519081527f058be4c9ec2ed08dd5bb1ef29557642983ca585ca9afaead168a9686736b59e690602090a1565b3360009081527fb16e88c42fd4e48df2dd6a2eabd6bc9aec654ec170056b470819f8892cc6431c6020526040902054600080516020615f908339815191529060ff1615615a3e5750565b6044906040519063e2517d3f60e01b82523360048301526024820152fd5b3360009081527f146147d4d830fbfd39acc320fe8416a5d16accbaf9578d5f5b064dbe9ba900a660205260409020547feaf9385a147c4441b7cff84a8a185a566b6f7c496b77a003346be0e3333697419060ff1615615a3e5750565b80600052600080516020615f1083398151915260205260406000203360005260205260ff6040600020541615615a3e5750565b600080516020615f708339815191526002815414615b095760029055565b604051633ee5aeb560e01b8152600490fd5b90600091808352600080516020615f1083398151915280602052604084209260018060a01b03169283855260205260ff60408520541660001461588357818452602052604083208284526020526040832060ff1981541690557ff6391f5c32d9c69d2a47ea670b442974b53935d1edc7fd64eb21e047a839171b339380a4600190565b600081519160005b838110615bb35750505050565b61ffff92615bd46040918583615bc98688614721565b515101511690614659565b9361271090818611615c5d57600090602080615bf08789614721565b5101515183925b86888a848710615c26575050505050505011615c165750600101615ba6565b516304b80b4560e21b8152600490fd5b92615c5392615c498888615c4185999a9b9c96600199614721565b510151614721565b5101511690614659565b9401929190615bf7565b82516304b80b4560e21b8152600490fd5b80600052600c60205260ff6040600020541680615c96575b615c8d5750565b6150ad90615ce7565b50615ca081614b28565b15615c86565b60ff7ff0c57e16840df040f15088dc2f81fe391c3923bec73e23a9662efc9c229c6a005460401c1615615cd557565b604051631afcd79f60e31b8152600490fd5b60008181526020600d8152604090818320805490600c8352615d0a84862061507f565b845b828110615e3857505050838352600d8152615d28828420615047565b83835260108152818320839055600480548351631355eead60e21b81529182018690526001600160a01b031691908181602481865afa918215615e2e578592615e11575b5050615d9b575b5050807f64c64ca7ab916fab6a741368067628b70d8975e69483389acadd1ba7bd54c22291a2565b803b15614ebc579082809260248351809581936376772d8160e11b83528960048401525af1908115615e085750907f64c64ca7ab916fab6a741368067628b70d8975e69483389acadd1ba7bd54c2229291615df9575b819250615d73565b615e029061424e565b38615df1565b513d84823e3d90fd5b615e279250803d106118185761180a81836142ce565b3880615d6c565b84513d87823e3d90fd5b80615e4560019284614ba0565b838060a01b0391549060031b1c16888852600e8652868820818952865286882060ff198154169055888852600f86528688209088528552868681205501615d0c565b906000602091828151910182855af115615ee3576000513d615eda57506001600160a01b0381163b155b615eb85750565b604051635274afe760e01b81526001600160a01b039091166004820152602490fd5b60011415615eb1565b6040513d6000823e3d90fdfe2f8788117e7eff1d82e926ec794901d17c78024a50270940304540a733656f0d02dd7bc7dec4dceedda775e58dd541e08a116c6c53815c0bd028192f7b626800b10e2d527612073b26eecdfd717e6a320cf44b4afac2b0732d9fcbe2b7fa0cf6cd5ed15c6e187e77e9aee88184c21f4f2182ab5827cb3b7e07fbedcd63f033009b779b17422d0df92223018b32b4d1fa46e071723d6817e2486d003becc55f00a49807205ce4d355092ef5a8a18f56e8913cf4a201fbe287825b095693c21775a264697066735822122028d8f42c9143c95f6f7b39164efbb900e2abc2192977afba319ea5f6632f420464736f6c63430008180033",
  "devdoc": {
    "author": "Gildi Digital LLC",
    "custom:security-contact": "security@gildi.to",
    "errors": {
      "AccessControlBadConfirmation()": [
        {
          "details": "The caller of a function is not the expected one. NOTE: Don't confuse with {AccessControlUnauthorizedAccount}."
        }
      ],
      "AccessControlUnauthorizedAccount(address,bytes32)": [
        {
          "details": "The `account` is missing a role."
        }
      ],
      "EnforcedPause()": [
        {
          "details": "The operation failed because the contract is paused."
        }
      ],
      "ExpectedPause()": [
        {
          "details": "The operation failed because the contract is not paused."
        }
      ],
      "InsufficientQuantity(uint256,uint256)": [
        {
          "details": "Emitted when the requested quantity exceeds available inventory.The quantity that was requested.The quantity that was available."
        }
      ],
      "InvalidCaller()": [
        {
          "details": "Emitted when the caller is invalid"
        }
      ],
      "InvalidInitialization()": [
        {
          "details": "The contract is already initialized."
        }
      ],
      "NotAllowed()": [
        {
          "details": "Emitted when an operation is not allowed for the caller"
        }
      ],
      "NotEnoughTokensInListings(uint256,uint256)": [
        {
          "details": "Emitted when the requested number of tokens to buy cannot be fulfilled by the available listings.The total amount of tokens requestedThe amount of tokens actually found in listings"
        }
      ],
      "NotInitializing()": [
        {
          "details": "The contract is not initializing."
        }
      ],
      "ParamError()": [
        {
          "details": "Emitted when a function parameter is invalid or out-of-range (e.g. zero batchSize, zero price, etc.)"
        }
      ],
      "PurchaseError()": [
        {
          "details": "Emitted when a purchase cannot proceed (e.g. buyer not whitelisted, amount exceeds max buy, not enough tokens)."
        }
      ],
      "ReentrancyGuardReentrantCall()": [
        {
          "details": "Unauthorized reentrant call."
        }
      ],
      "ReleaseNotFound(uint256)": [
        {
          "details": "Emitted when a release is not found in the manager (e.g. gildiManager.releaseExists(...) fails).The ID that could not be found."
        }
      ],
      "ReleaseStateError(uint256)": [
        {
          "details": "Emitted when a release is in a wrong state (e.g. uninitialized, cancelling when it should not be, or active/inactive mismatch).The ID of the release in question."
        }
      ],
      "SafeERC20FailedOperation(address)": [
        {
          "details": "An operation with an ERC-20 token failed."
        }
      ],
      "SetupError()": [
        {
          "details": "Emitted when there is a setup/configuration issue (e.g. oracle decimals not set, invalid fee distribution)."
        }
      ]
    },
    "events": {
      "AskDecimalsSet(uint8)": {
        "params": {
          "askDecimals": "The new ask decimals"
        }
      },
      "FeesUpdated(uint256)": {
        "params": {
          "releaseId": "The ID of the release"
        }
      },
      "InitialSaleCreated(uint256,address,uint256[],uint256[],uint256,uint256,uint256,bool,uint256,address,address,((address,address,uint16),(address,address,uint16)[])[])": {
        "params": {
          "assetPrices": "The prices of the asset for the quantity bracket",
          "assetQuantities": "The quantities of the asset",
          "duration": "The duration of the initial sale",
          "maxBuy": "The maximum amount of tokens a buyer can buy in the initial sale",
          "payoutCurrency": "The currency of the payout",
          "releaseId": "The ID of the release",
          "saleCurrency": "The currency of the initial sale",
          "saleFees": "The fees for the initial sale",
          "seller": "The address of the seller",
          "startTime": "The start time of the initial sale",
          "whitelistDuration": "The duration the whitelist is enforced",
          "whitelistEnabled": "If the initial sale is a whitelist sale"
        }
      },
      "InitialSaleEnded(uint256)": {
        "params": {
          "releaseId": "The ID of the release"
        }
      },
      "Initialized(uint64)": {
        "details": "Triggered when the contract has been initialized or reinitialized."
      },
      "MarketplaceCurrencySet(address)": {
        "params": {
          "marketplaceCurrency": "The new marketplace currency"
        }
      },
      "Paused(address)": {
        "details": "Emitted when the pause is triggered by `account`."
      },
      "Purchased(uint256,address,address,address,uint256,uint256,uint256,uint256,address)": {
        "params": {
          "buyer": "The address of the buyer",
          "listingId": "The ID of the listing",
          "operator": "The address of the operator",
          "priceInUSD": "The price per item in USD",
          "quantity": "The quantity of the release being purchased",
          "releaseId": "The ID of the release being purchased",
          "seller": "The address of the seller"
        }
      },
      "ReleaseActiveStateChanged(uint256,bool)": {
        "params": {
          "isActive": "The new active state",
          "releaseId": "The ID of the release"
        }
      },
      "ReleaseCancellationStarted(uint256)": {
        "params": {
          "releaseId": "The ID of the release being cancelled"
        }
      },
      "ReleaseCancelled(uint256)": {
        "params": {
          "releaseId": "The ID of the release being cancelled"
        }
      },
      "ReleaseInitialized(uint256)": {
        "params": {
          "releaseId": "The ID of the release"
        }
      },
      "RoleAdminChanged(bytes32,bytes32,bytes32)": {
        "details": "Emitted when `newAdminRole` is set as ``role``'s admin role, replacing `previousAdminRole` `DEFAULT_ADMIN_ROLE` is the starting admin for all roles, despite {RoleAdminChanged} not being emitted to signal this."
      },
      "RoleGranted(bytes32,address,address)": {
        "details": "Emitted when `account` is granted `role`. `sender` is the account that originated the contract call. This account bears the admin role (for the granted role). Expected in cases where the role was granted using the internal {AccessControl-_grantRole}."
      },
      "RoleRevoked(bytes32,address,address)": {
        "details": "Emitted when `account` is revoked `role`. `sender` is the account that originated the contract call:   - if using `revokeRole`, it is the admin role bearer   - if using `renounceRole`, it is the role bearer (i.e. `account`)"
      },
      "Unpaused(address)": {
        "details": "Emitted when the pause is lifted by `account`."
      }
    },
    "kind": "dev",
    "methods": {
      "canBuy(uint256,address)": {
        "details": "Considers whitelist status, initial sale status, and transaction limits",
        "params": {
          "_address": "The address of the buyer",
          "_releaseId": "The ID of the release"
        },
        "returns": {
          "buyAllowed": "True if the user can buy the release, false otherwise",
          "maxBuyAmount": "The maximum amount the user can buy (0 if not allowed)"
        }
      },
      "canSell(uint256[])": {
        "params": {
          "_releaseIds": "The IDs of the releases"
        },
        "returns": {
          "_0": "result An array containing whether or not each release can be sold"
        }
      },
      "cancelListing(uint256)": {
        "params": {
          "_listingId": "The ID of the listing"
        }
      },
      "cancelRelease(uint256,uint256)": {
        "params": {
          "_batchSize": "The batch size (min 1, max 100)",
          "_releaseId": "The ID of the release"
        }
      },
      "constructor": {
        "custom:oz-upgrades-unsafe-allow": "constructor"
      },
      "createInitialSale((uint256,uint256[],uint256[],address,uint256,uint256,uint256,bool,address[],uint256,address,address,address,((address,address,uint16),(address,address,uint16)[])[]))": {
        "params": {
          "_params": "The parameters for creating the initial sale"
        }
      },
      "createListing(uint256,address,uint256,uint256,address,address)": {
        "params": {
          "_fundsReceiver": "The address to receive funds from the sale (if address(0), defaults to seller)",
          "_payoutCurrency": "The currency the seller wants to receive payment in",
          "_pricePerItem": "The price per item in USD",
          "_quantity": "The quantity being listed",
          "_releaseId": "The ID of the release",
          "_seller": "The address of the seller"
        }
      },
      "createListing(uint256,address,uint256,uint256,address,address,uint16)": {
        "params": {
          "_fundsReceiver": "The address to receive funds from the sale (if address(0), defaults to seller)",
          "_payoutCurrency": "The currency the seller wants to receive payment in",
          "_pricePerItem": "The price per item in USD",
          "_quantity": "The quantity being listed",
          "_releaseId": "The ID of the release",
          "_seller": "The address of the seller",
          "_slippageBps": "Slippage tolerance in basis points"
        }
      },
      "getActiveMarketplaceReleaseAsset(uint256)": {
        "params": {
          "_releaseId": "The ID of the release"
        },
        "returns": {
          "_0": "The address of the active marketplace asset for the release"
        }
      },
      "getAppEnvironment()": {
        "returns": {
          "_0": "appEnvironment The app environment"
        }
      },
      "getInitialSaleByReleaseId(uint256)": {
        "params": {
          "_releaseId": "The ID of the release"
        },
        "returns": {
          "_0": "initialSale The initial sale"
        }
      },
      "getReleaseById(uint256)": {
        "params": {
          "_releaseId": "The ID of the release"
        },
        "returns": {
          "_0": "release The release"
        }
      },
      "getReleaseFees(uint256)": {
        "params": {
          "_releaseId": "The ID of the release"
        },
        "returns": {
          "_0": "An array of fee distributions for the release"
        }
      },
      "getReleaseIds(bool)": {
        "params": {
          "_activeOnly": "Whether or not to only return active releases"
        },
        "returns": {
          "_0": "activeReleases An array of release IDs"
        }
      },
      "getRoleAdmin(bytes32)": {
        "details": "Returns the admin role that controls `role`. See {grantRole} and {revokeRole}. To change a role's admin, use {_setRoleAdmin}."
      },
      "getWhitelist(uint256)": {
        "params": {
          "_releaseId": "The ID of the release"
        },
        "returns": {
          "_0": "whitelist The whitelist of the release"
        }
      },
      "grantRole(bytes32,address)": {
        "details": "Grants `role` to `account`. If `account` had not been already granted `role`, emits a {RoleGranted} event. Requirements: - the caller must have ``role``'s admin role. May emit a {RoleGranted} event."
      },
      "hasRole(bytes32,address)": {
        "details": "Returns `true` if `account` has been granted `role`."
      },
      "initialize(address,address,address,address,address)": {
        "params": {
          "_gildiManager": "The address of the Gildi Manager",
          "_initialAdmin": "The address of the initial admin",
          "_initialDefaultAdmin": "The address of the initial default admin",
          "_initialMarketplaceManager": "The address of the initial marketplace manager",
          "_marketplaceCurrency": "The address of the marketplace currency"
        }
      },
      "initializeRelease(uint256,((address,address,uint16),(address,address,uint16)[])[])": {
        "params": {
          "_additionalFees": "Additional fees for the release",
          "_tokenId": "The ID of the release"
        }
      },
      "isInInitialSale(uint256)": {
        "params": {
          "_releaseId": "The ID of the release"
        },
        "returns": {
          "_0": "True if the release is in active initial sale, false otherwise"
        }
      },
      "isWhitelistSale(uint256)": {
        "params": {
          "_releaseId": "The ID of the release"
        }
      },
      "modifyListing(uint256,uint256,uint256,address,address)": {
        "params": {
          "_fundsReceiver": "The address to receive funds from the sale (if address(0), defaults to seller)",
          "_listingId": "The ID of the listing to modify",
          "_newPricePerItem": "The new price per item in USD",
          "_newQuantity": "The new quantity (if 0, the listing will be removed)",
          "_payoutCurrency": "The new payout currency"
        }
      },
      "modifyListing(uint256,uint256,uint256,address,address,uint16)": {
        "params": {
          "_fundsReceiver": "The address to receive funds from the sale (if address(0), defaults to seller)",
          "_listingId": "The ID of the listing to modify",
          "_newPricePerItem": "The new price per item in USD",
          "_newQuantity": "The new quantity (if 0, the listing will be removed)",
          "_payoutCurrency": "The new payout currency",
          "_slippageBps": "Slippage tolerance in basis points"
        }
      },
      "paused()": {
        "details": "Returns true if the contract is paused, and false otherwise."
      },
      "purchase(uint256,uint256,uint256,address,bool)": {
        "details": "Sweeps the floor",
        "params": {
          "_amount": "The amount of tokens to purchase",
          "_beneficiary": "The address to send the tokens to",
          "_isProxyOperation": "Whether the operation is a proxy operation",
          "_maxTotalPrice": "The maximum total price to spend in Marketplace Currency",
          "_releaseId": "The ID of the release"
        },
        "returns": {
          "amountSpent": "The amount of Marketplace Currency spent",
          "amountUsdSpent": "The amount spent in USD"
        }
      },
      "quotePrice(uint256,uint256)": {
        "params": {
          "_priceInUsd": "The price in USD to convert",
          "_releaseId": "The ID of the release"
        },
        "returns": {
          "activeMarketplaceReleaseAsset": "The address of the active marketplace asset for the release",
          "priceInAsset": "The equivalent amount in the active marketplace asset"
        }
      },
      "quotePricePreview(uint256,uint256,address)": {
        "params": {
          "_amountToBuy": "The amount of tokens to buy",
          "_buyer": "The address of the buyer (optional)",
          "_releaseId": "The ID of the release"
        },
        "returns": {
          "_0": "The total cost in marketplace currency",
          "_1": "The asset the price is in",
          "_2": "The total price in USD (using exchange's priceAskDecimals)"
        }
      },
      "renounceRole(bytes32,address)": {
        "details": "Revokes `role` from the calling account. Roles are often managed via {grantRole} and {revokeRole}: this function's purpose is to provide a mechanism for accounts to lose their privileges if they are compromised (such as when a trusted device is misplaced). If the calling account had been revoked `role`, emits a {RoleRevoked} event. Requirements: - the caller must be `callerConfirmation`. May emit a {RoleRevoked} event."
      },
      "revokeRole(bytes32,address)": {
        "details": "Revokes `role` from `account`. If `account` had been granted `role`, emits a {RoleRevoked} event. Requirements: - the caller must have ``role``'s admin role. May emit a {RoleRevoked} event."
      },
      "setAskDecimals(uint8)": {
        "params": {
          "_askDecimals": "The number of decimals for price asks (max 8)"
        }
      },
      "setMarketplaceCurrency(address)": {
        "params": {
          "_marketplaceCurrency": "The address of the marketplace currency"
        }
      },
      "setMaxBuyPerTransaction(uint256)": {
        "params": {
          "_maxBuyPerTransaction": "The maximum buy per transaction (0 = unlimited)"
        }
      },
      "setReleaseActive(uint256,bool)": {
        "params": {
          "_active": "The active state",
          "_releaseId": "The ID of the release"
        }
      },
      "setReleaseFees(uint256,((address,address,uint16),(address,address,uint16)[])[])": {
        "params": {
          "_additionalFees": "The additional fees for the release",
          "_releaseId": "The ID of the release"
        }
      },
      "setup(address,uint8,address,address,address,address)": {
        "params": {
          "_askDecimals": "The number of decimals for price asks",
          "_fundManager": "The fund manager contract for handling funds",
          "_gildiPriceOracle": "The price oracle for currency conversions",
          "_orderBook": "The order book contract for managing listings",
          "_paymentAggregator": "The payment aggregator for handling payments"
        }
      },
      "supportsInterface(bytes4)": {
        "details": "Returns true if this contract implements the interface defined by `interfaceId`. See the corresponding https://eips.ethereum.org/EIPS/eip-165#how-interfaces-are-identified[ERC section] to learn more about how these ids are created. This function call must use less than 30 000 gas."
      },
      "transferTokenInContext(address,address,uint256,address)": {
        "params": {
          "_amountCurrency": "The currency of the amount",
          "_from": "The address to transfer from",
          "_to": "The address to transfer to",
          "_value": "The amount to transfer"
        }
      },
      "tryBurnTokenInContext(address,uint256,address)": {
        "params": {
          "_amountCurrency": "The currency of the amount",
          "_from": "The address to burn from",
          "_value": "The amount to burn"
        },
        "returns": {
          "_0": "Whether the burn was successful"
        }
      },
      "unlistAllListings(uint256,uint256)": {
        "params": {
          "_batchSize": "The batch size (0 = unlimited)",
          "_releaseId": "The ID of the release (0 = all)"
        }
      }
    },
    "title": "Gildi Exchange",
    "version": 1
  },
  "userdoc": {
    "events": {
      "AskDecimalsSet(uint8)": {
        "notice": "Emitted when the ask decimals are set"
      },
      "FeesUpdated(uint256)": {
        "notice": "Emitted when a release's fees are updated"
      },
      "InitialSaleCreated(uint256,address,uint256[],uint256[],uint256,uint256,uint256,bool,uint256,address,address,((address,address,uint16),(address,address,uint16)[])[])": {
        "notice": "Emitted when an initial sale is created"
      },
      "InitialSaleEnded(uint256)": {
        "notice": "Emitted when the initial sale ends"
      },
      "MarketplaceCurrencySet(address)": {
        "notice": "Emitted when the marketplace currency is set"
      },
      "Purchased(uint256,address,address,address,uint256,uint256,uint256,uint256,address)": {
        "notice": "Emitted when a purchase is made"
      },
      "ReleaseActiveStateChanged(uint256,bool)": {
        "notice": "Emitted when a release's active state is changed"
      },
      "ReleaseCancellationStarted(uint256)": {
        "notice": "Emitted when a release cancellation is started"
      },
      "ReleaseCancelled(uint256)": {
        "notice": "Emitted when a release is fully cancelled"
      },
      "ReleaseInitialized(uint256)": {
        "notice": "Emitted when a release is initialized"
      }
    },
    "kind": "user",
    "methods": {
      "DEFAULT_SLIPPAGE_BPS()": {
        "notice": "Default slippage tolerance in basis points (5%)"
      },
      "canBuy(uint256,address)": {
        "notice": "Checks if a user can buy a release and determines the maximum amount they can buy"
      },
      "canSell(uint256[])": {
        "notice": "Checks whether or not a list of releases can be sold."
      },
      "cancelListing(uint256)": {
        "notice": "Cancels a listing by ID"
      },
      "cancelRelease(uint256,uint256)": {
        "notice": "Cancels a release in batches."
      },
      "createInitialSale((uint256,uint256[],uint256[],address,uint256,uint256,uint256,bool,address[],uint256,address,address,address,((address,address,uint16),(address,address,uint16)[])[]))": {
        "notice": "Creates an initial sale."
      },
      "createListing(uint256,address,uint256,uint256,address,address)": {
        "notice": "Creates a listing with default slippage"
      },
      "createListing(uint256,address,uint256,uint256,address,address,uint16)": {
        "notice": "Creates a listing with custom slippage"
      },
      "getActiveMarketplaceReleaseAsset(uint256)": {
        "notice": "Gets the active marketplace asset for a release"
      },
      "getAppEnvironment()": {
        "notice": "Returns the app environment."
      },
      "getInitialSaleByReleaseId(uint256)": {
        "notice": "Gets the initial sale by release ID"
      },
      "getReleaseById(uint256)": {
        "notice": "Gets a release by ID"
      },
      "getReleaseFees(uint256)": {
        "notice": "Get the fees of a specific release"
      },
      "getReleaseIds(bool)": {
        "notice": "Get a list of release IDs"
      },
      "getWhitelist(uint256)": {
        "notice": "Gets the whitelist of a release."
      },
      "initialize(address,address,address,address,address)": {
        "notice": "Initializes the contract"
      },
      "initializeRelease(uint256,((address,address,uint16),(address,address,uint16)[])[])": {
        "notice": "Initializes the release"
      },
      "isInInitialSale(uint256)": {
        "notice": "Checks if a release is currently in its initial sale period"
      },
      "isInitialSaleWhitelistBuyer(uint256,address)": {
        "notice": "Mapping from release ID to buyer address to whitelist status"
      },
      "isWhitelistSale(uint256)": {
        "notice": "Whether or not the release is in a whitelist sale state"
      },
      "modifyListing(uint256,uint256,uint256,address,address)": {
        "notice": "Modifies a listing with default slippage"
      },
      "modifyListing(uint256,uint256,uint256,address,address,uint16)": {
        "notice": "Modifies a listing with custom slippage"
      },
      "pause()": {
        "notice": "Pauses the contract"
      },
      "purchase(uint256,uint256,uint256,address,bool)": {
        "notice": "Purchases tokens of a release"
      },
      "quotePrice(uint256,uint256)": {
        "notice": "Converts a price in USD to the equivalent amount in the release's active marketplace asset"
      },
      "quotePricePreview(uint256,uint256,address)": {
        "notice": "Gets the price needed to pay in marketplace currency to buy `_amountToBuy` units of `_releaseId`."
      },
      "releases(uint256)": {
        "notice": "Mapping from release ID to Release struct"
      },
      "setAskDecimals(uint8)": {
        "notice": "Sets the number of decimals for price asks"
      },
      "setFees(((address,address,uint16),(address,address,uint16)[])[])": {
        "notice": "Sets the marketplace fees"
      },
      "setMarketplaceCurrency(address)": {
        "notice": "Sets the marketplace currency"
      },
      "setMaxBuyPerTransaction(uint256)": {
        "notice": "Sets the max buy per transaction"
      },
      "setReleaseActive(uint256,bool)": {
        "notice": "Sets the active state of a release"
      },
      "setReleaseFees(uint256,((address,address,uint16),(address,address,uint16)[])[])": {
        "notice": "Sets the fees for a specific release"
      },
      "setup(address,uint8,address,address,address,address)": {
        "notice": "Sets up the exchange with required dependencies"
      },
      "transferTokenInContext(address,address,uint256,address)": {
        "notice": "Transfer a token in the context of the Gildi Exchange"
      },
      "tryBurnTokenInContext(address,uint256,address)": {
        "notice": "Tries to burn a token in the context of the Gildi Exchange"
      },
      "unlistAllListings(uint256,uint256)": {
        "notice": "Unlists all listings of a release in batches."
      },
      "unpause()": {
        "notice": "Unpauses the contract"
      }
    },
    "notice": "Marketplace of the Gildi platform.",
    "version": 1
  },
  "storageLayout": {
    "storage": [
      {
        "astId": 6647,
        "contract": "contracts/marketplace/exchange/GildiExchange.sol:GildiExchange",
        "label": "appSettings",
        "offset": 0,
        "slot": "0",
        "type": "t_struct(AppSettings)5688_storage"
      },
      {
        "astId": 6651,
        "contract": "contracts/marketplace/exchange/GildiExchange.sol:GildiExchange",
        "label": "releaseIds",
        "offset": 0,
        "slot": "10",
        "type": "t_array(t_uint256)dyn_storage"
      },
      {
        "astId": 6657,
        "contract": "contracts/marketplace/exchange/GildiExchange.sol:GildiExchange",
        "label": "releases",
        "offset": 0,
        "slot": "11",
        "type": "t_mapping(t_uint256,t_struct(Release)6756_storage)"
      },
      {
        "astId": 6663,
        "contract": "contracts/marketplace/exchange/GildiExchange.sol:GildiExchange",
        "label": "initialSales",
        "offset": 0,
        "slot": "12",
        "type": "t_mapping(t_uint256,t_struct(InitialSale)6784_storage)"
      },
      {
        "astId": 6669,
        "contract": "contracts/marketplace/exchange/GildiExchange.sol:GildiExchange",
        "label": "initialSaleWhitelistBuyers",
        "offset": 0,
        "slot": "13",
        "type": "t_mapping(t_uint256,t_array(t_address)dyn_storage)"
      },
      {
        "astId": 6676,
        "contract": "contracts/marketplace/exchange/GildiExchange.sol:GildiExchange",
        "label": "isInitialSaleWhitelistBuyer",
        "offset": 0,
        "slot": "14",
        "type": "t_mapping(t_uint256,t_mapping(t_address,t_bool))"
      },
      {
        "astId": 6683,
        "contract": "contracts/marketplace/exchange/GildiExchange.sol:GildiExchange",
        "label": "initialSaleMaxBuyCounts",
        "offset": 0,
        "slot": "15",
        "type": "t_mapping(t_uint256,t_mapping(t_address,t_uint256))"
      },
      {
        "astId": 6688,
        "contract": "contracts/marketplace/exchange/GildiExchange.sol:GildiExchange",
        "label": "initialSaleListedQuantities",
        "offset": 0,
        "slot": "16",
        "type": "t_mapping(t_uint256,t_uint256)"
      }
    ],
    "types": {
      "t_address": {
        "encoding": "inplace",
        "label": "address",
        "numberOfBytes": "20"
      },
      "t_array(t_address)dyn_storage": {
        "base": "t_address",
        "encoding": "dynamic_array",
        "label": "address[]",
        "numberOfBytes": "32"
      },
      "t_array(t_struct(FeeDistribution)5629_storage)dyn_storage": {
        "base": "t_struct(FeeDistribution)5629_storage",
        "encoding": "dynamic_array",
        "label": "struct IGildiExchange.FeeDistribution[]",
        "numberOfBytes": "32"
      },
      "t_array(t_struct(Receiver)5618_storage)dyn_storage": {
        "base": "t_struct(Receiver)5618_storage",
        "encoding": "dynamic_array",
        "label": "struct IGildiExchange.Receiver[]",
        "numberOfBytes": "32"
      },
      "t_array(t_uint256)dyn_storage": {
        "base": "t_uint256",
        "encoding": "dynamic_array",
        "label": "uint256[]",
        "numberOfBytes": "32"
      },
      "t_bool": {
        "encoding": "inplace",
        "label": "bool",
        "numberOfBytes": "1"
      },
      "t_contract(IERC20)1381": {
        "encoding": "inplace",
        "label": "contract IERC20",
        "numberOfBytes": "20"
      },
      "t_contract(IGildiExchangeFundManager)5962": {
        "encoding": "inplace",
        "label": "contract IGildiExchangeFundManager",
        "numberOfBytes": "20"
      },
      "t_contract(IGildiExchangeOrderBook)6158": {
        "encoding": "inplace",
        "label": "contract IGildiExchangeOrderBook",
        "numberOfBytes": "20"
      },
      "t_contract(IGildiExchangePaymentAggregator)6239": {
        "encoding": "inplace",
        "label": "contract IGildiExchangePaymentAggregator",
        "numberOfBytes": "20"
      },
      "t_contract(IGildiExchangePaymentProcessor)6289": {
        "encoding": "inplace",
        "label": "contract IGildiExchangePaymentProcessor",
        "numberOfBytes": "20"
      },
      "t_contract(IGildiManager)5586": {
        "encoding": "inplace",
        "label": "contract IGildiManager",
        "numberOfBytes": "20"
      },
      "t_contract(IGildiPriceOracle)6510": {
        "encoding": "inplace",
        "label": "contract IGildiPriceOracle",
        "numberOfBytes": "20"
      },
      "t_mapping(t_address,t_bool)": {
        "encoding": "mapping",
        "key": "t_address",
        "label": "mapping(address => bool)",
        "numberOfBytes": "32",
        "value": "t_bool"
      },
      "t_mapping(t_address,t_uint256)": {
        "encoding": "mapping",
        "key": "t_address",
        "label": "mapping(address => uint256)",
        "numberOfBytes": "32",
        "value": "t_uint256"
      },
      "t_mapping(t_uint256,t_array(t_address)dyn_storage)": {
        "encoding": "mapping",
        "key": "t_uint256",
        "label": "mapping(uint256 => address[])",
        "numberOfBytes": "32",
        "value": "t_array(t_address)dyn_storage"
      },
      "t_mapping(t_uint256,t_mapping(t_address,t_bool))": {
        "encoding": "mapping",
        "key": "t_uint256",
        "label": "mapping(uint256 => mapping(address => bool))",
        "numberOfBytes": "32",
        "value": "t_mapping(t_address,t_bool)"
      },
      "t_mapping(t_uint256,t_mapping(t_address,t_uint256))": {
        "encoding": "mapping",
        "key": "t_uint256",
        "label": "mapping(uint256 => mapping(address => uint256))",
        "numberOfBytes": "32",
        "value": "t_mapping(t_address,t_uint256)"
      },
      "t_mapping(t_uint256,t_struct(InitialSale)6784_storage)": {
        "encoding": "mapping",
        "key": "t_uint256",
        "label": "mapping(uint256 => struct GildiExchange.InitialSale)",
        "numberOfBytes": "32",
        "value": "t_struct(InitialSale)6784_storage"
      },
      "t_mapping(t_uint256,t_struct(Release)6756_storage)": {
        "encoding": "mapping",
        "key": "t_uint256",
        "label": "mapping(uint256 => struct GildiExchange.Release)",
        "numberOfBytes": "32",
        "value": "t_struct(Release)6756_storage"
      },
      "t_mapping(t_uint256,t_uint256)": {
        "encoding": "mapping",
        "key": "t_uint256",
        "label": "mapping(uint256 => uint256)",
        "numberOfBytes": "32",
        "value": "t_uint256"
      },
      "t_struct(AppSettings)5688_storage": {
        "encoding": "inplace",
        "label": "struct IGildiExchange.AppSettings",
        "members": [
          {
            "astId": 5651,
            "contract": "contracts/marketplace/exchange/GildiExchange.sol:GildiExchange",
            "label": "priceAskDecimals",
            "offset": 0,
            "slot": "0",
            "type": "t_uint8"
          },
          {
            "astId": 5656,
            "contract": "contracts/marketplace/exchange/GildiExchange.sol:GildiExchange",
            "label": "fees",
            "offset": 0,
            "slot": "1",
            "type": "t_array(t_struct(FeeDistribution)5629_storage)dyn_storage"
          },
          {
            "astId": 5660,
            "contract": "contracts/marketplace/exchange/GildiExchange.sol:GildiExchange",
            "label": "marketplaceCurrency",
            "offset": 0,
            "slot": "2",
            "type": "t_contract(IERC20)1381"
          },
          {
            "astId": 5663,
            "contract": "contracts/marketplace/exchange/GildiExchange.sol:GildiExchange",
            "label": "maxBuyPerTransaction",
            "offset": 0,
            "slot": "3",
            "type": "t_uint256"
          },
          {
            "astId": 5667,
            "contract": "contracts/marketplace/exchange/GildiExchange.sol:GildiExchange",
            "label": "gildiManager",
            "offset": 0,
            "slot": "4",
            "type": "t_contract(IGildiManager)5586"
          },
          {
            "astId": 5671,
            "contract": "contracts/marketplace/exchange/GildiExchange.sol:GildiExchange",
            "label": "orderBook",
            "offset": 0,
            "slot": "5",
            "type": "t_contract(IGildiExchangeOrderBook)6158"
          },
          {
            "astId": 5675,
            "contract": "contracts/marketplace/exchange/GildiExchange.sol:GildiExchange",
            "label": "gildiPriceOracle",
            "offset": 0,
            "slot": "6",
            "type": "t_contract(IGildiPriceOracle)6510"
          },
          {
            "astId": 5679,
            "contract": "contracts/marketplace/exchange/GildiExchange.sol:GildiExchange",
            "label": "fundManager",
            "offset": 0,
            "slot": "7",
            "type": "t_contract(IGildiExchangeFundManager)5962"
          },
          {
            "astId": 5683,
            "contract": "contracts/marketplace/exchange/GildiExchange.sol:GildiExchange",
            "label": "paymentProcessor",
            "offset": 0,
            "slot": "8",
            "type": "t_contract(IGildiExchangePaymentProcessor)6289"
          },
          {
            "astId": 5687,
            "contract": "contracts/marketplace/exchange/GildiExchange.sol:GildiExchange",
            "label": "paymentAggregator",
            "offset": 0,
            "slot": "9",
            "type": "t_contract(IGildiExchangePaymentAggregator)6239"
          }
        ],
        "numberOfBytes": "320"
      },
      "t_struct(FeeDistribution)5629_storage": {
        "encoding": "inplace",
        "label": "struct IGildiExchange.FeeDistribution",
        "members": [
          {
            "astId": 5623,
            "contract": "contracts/marketplace/exchange/GildiExchange.sol:GildiExchange",
            "label": "feeReceiver",
            "offset": 0,
            "slot": "0",
            "type": "t_struct(Receiver)5618_storage"
          },
          {
            "astId": 5628,
            "contract": "contracts/marketplace/exchange/GildiExchange.sol:GildiExchange",
            "label": "subFeeReceivers",
            "offset": 0,
            "slot": "2",
            "type": "t_array(t_struct(Receiver)5618_storage)dyn_storage"
          }
        ],
        "numberOfBytes": "96"
      },
      "t_struct(InitialSale)6784_storage": {
        "encoding": "inplace",
        "label": "struct GildiExchange.InitialSale",
        "members": [
          {
            "astId": 6760,
            "contract": "contracts/marketplace/exchange/GildiExchange.sol:GildiExchange",
            "label": "active",
            "offset": 0,
            "slot": "0",
            "type": "t_bool"
          },
          {
            "astId": 6763,
            "contract": "contracts/marketplace/exchange/GildiExchange.sol:GildiExchange",
            "label": "whitelist",
            "offset": 1,
            "slot": "0",
            "type": "t_bool"
          },
          {
            "astId": 6766,
            "contract": "contracts/marketplace/exchange/GildiExchange.sol:GildiExchange",
            "label": "startTime",
            "offset": 0,
            "slot": "1",
            "type": "t_uint256"
          },
          {
            "astId": 6769,
            "contract": "contracts/marketplace/exchange/GildiExchange.sol:GildiExchange",
            "label": "endTime",
            "offset": 0,
            "slot": "2",
            "type": "t_uint256"
          },
          {
            "astId": 6772,
            "contract": "contracts/marketplace/exchange/GildiExchange.sol:GildiExchange",
            "label": "whitelistUntil",
            "offset": 0,
            "slot": "3",
            "type": "t_uint256"
          },
          {
            "astId": 6775,
            "contract": "contracts/marketplace/exchange/GildiExchange.sol:GildiExchange",
            "label": "maxBuy",
            "offset": 0,
            "slot": "4",
            "type": "t_uint256"
          },
          {
            "astId": 6778,
            "contract": "contracts/marketplace/exchange/GildiExchange.sol:GildiExchange",
            "label": "saleCurrency",
            "offset": 0,
            "slot": "5",
            "type": "t_address"
          },
          {
            "astId": 6783,
            "contract": "contracts/marketplace/exchange/GildiExchange.sol:GildiExchange",
            "label": "fees",
            "offset": 0,
            "slot": "6",
            "type": "t_array(t_struct(FeeDistribution)5629_storage)dyn_storage"
          }
        ],
        "numberOfBytes": "224"
      },
      "t_struct(Receiver)5618_storage": {
        "encoding": "inplace",
        "label": "struct IGildiExchange.Receiver",
        "members": [
          {
            "astId": 5611,
            "contract": "contracts/marketplace/exchange/GildiExchange.sol:GildiExchange",
            "label": "receiverAddress",
            "offset": 0,
            "slot": "0",
            "type": "t_address"
          },
          {
            "astId": 5614,
            "contract": "contracts/marketplace/exchange/GildiExchange.sol:GildiExchange",
            "label": "payoutCurrency",
            "offset": 0,
            "slot": "1",
            "type": "t_address"
          },
          {
            "astId": 5617,
            "contract": "contracts/marketplace/exchange/GildiExchange.sol:GildiExchange",
            "label": "value",
            "offset": 20,
            "slot": "1",
            "type": "t_uint16"
          }
        ],
        "numberOfBytes": "64"
      },
      "t_struct(Release)6756_storage": {
        "encoding": "inplace",
        "label": "struct GildiExchange.Release",
        "members": [
          {
            "astId": 6741,
            "contract": "contracts/marketplace/exchange/GildiExchange.sol:GildiExchange",
            "label": "releaseId",
            "offset": 0,
            "slot": "0",
            "type": "t_uint256"
          },
          {
            "astId": 6746,
            "contract": "contracts/marketplace/exchange/GildiExchange.sol:GildiExchange",
            "label": "additionalFees",
            "offset": 0,
            "slot": "1",
            "type": "t_array(t_struct(FeeDistribution)5629_storage)dyn_storage"
          },
          {
            "astId": 6749,
            "contract": "contracts/marketplace/exchange/GildiExchange.sol:GildiExchange",
            "label": "initialized",
            "offset": 0,
            "slot": "2",
            "type": "t_bool"
          },
          {
            "astId": 6752,
            "contract": "contracts/marketplace/exchange/GildiExchange.sol:GildiExchange",
            "label": "active",
            "offset": 1,
            "slot": "2",
            "type": "t_bool"
          },
          {
            "astId": 6755,
            "contract": "contracts/marketplace/exchange/GildiExchange.sol:GildiExchange",
            "label": "isCancelling",
            "offset": 2,
            "slot": "2",
            "type": "t_bool"
          }
        ],
        "numberOfBytes": "96"
      },
      "t_uint16": {
        "encoding": "inplace",
        "label": "uint16",
        "numberOfBytes": "2"
      },
      "t_uint256": {
        "encoding": "inplace",
        "label": "uint256",
        "numberOfBytes": "32"
      },
      "t_uint8": {
        "encoding": "inplace",
        "label": "uint8",
        "numberOfBytes": "1"
      }
    }
  }
}