{
  "address": "0x24A0016666F71ab7058CB4DE3Eb9A83e96D7B609",
  "abi": [
    {
      "inputs": [],
      "stateMutability": "nonpayable",
      "type": "constructor"
    },
    {
      "inputs": [],
      "name": "AccessControlBadConfirmation",
      "type": "error"
    },
    {
      "inputs": [
        {
          "internalType": "address",
          "name": "account",
          "type": "address"
        },
        {
          "internalType": "bytes32",
          "name": "neededRole",
          "type": "bytes32"
        }
      ],
      "name": "AccessControlUnauthorizedAccount",
      "type": "error"
    },
    {
      "inputs": [
        {
          "internalType": "address",
          "name": "sender",
          "type": "address"
        },
        {
          "internalType": "uint256",
          "name": "balance",
          "type": "uint256"
        },
        {
          "internalType": "uint256",
          "name": "needed",
          "type": "uint256"
        },
        {
          "internalType": "uint256",
          "name": "tokenId",
          "type": "uint256"
        }
      ],
      "name": "ERC1155InsufficientBalance",
      "type": "error"
    },
    {
      "inputs": [
        {
          "internalType": "address",
          "name": "approver",
          "type": "address"
        }
      ],
      "name": "ERC1155InvalidApprover",
      "type": "error"
    },
    {
      "inputs": [
        {
          "internalType": "uint256",
          "name": "idsLength",
          "type": "uint256"
        },
        {
          "internalType": "uint256",
          "name": "valuesLength",
          "type": "uint256"
        }
      ],
      "name": "ERC1155InvalidArrayLength",
      "type": "error"
    },
    {
      "inputs": [
        {
          "internalType": "address",
          "name": "operator",
          "type": "address"
        }
      ],
      "name": "ERC1155InvalidOperator",
      "type": "error"
    },
    {
      "inputs": [
        {
          "internalType": "address",
          "name": "receiver",
          "type": "address"
        }
      ],
      "name": "ERC1155InvalidReceiver",
      "type": "error"
    },
    {
      "inputs": [
        {
          "internalType": "address",
          "name": "sender",
          "type": "address"
        }
      ],
      "name": "ERC1155InvalidSender",
      "type": "error"
    },
    {
      "inputs": [
        {
          "internalType": "address",
          "name": "operator",
          "type": "address"
        },
        {
          "internalType": "address",
          "name": "owner",
          "type": "address"
        }
      ],
      "name": "ERC1155MissingApprovalForAll",
      "type": "error"
    },
    {
      "inputs": [],
      "name": "EnforcedPause",
      "type": "error"
    },
    {
      "inputs": [
        {
          "internalType": "bytes32",
          "name": "key",
          "type": "bytes32"
        }
      ],
      "name": "EnumerableMapNonexistentKey",
      "type": "error"
    },
    {
      "inputs": [],
      "name": "ExpectedPause",
      "type": "error"
    },
    {
      "inputs": [],
      "name": "InvalidId",
      "type": "error"
    },
    {
      "inputs": [],
      "name": "InvalidInitialization",
      "type": "error"
    },
    {
      "inputs": [],
      "name": "InvalidMintBatch",
      "type": "error"
    },
    {
      "inputs": [],
      "name": "NotInitializing",
      "type": "error"
    },
    {
      "anonymous": false,
      "inputs": [
        {
          "indexed": true,
          "internalType": "address",
          "name": "account",
          "type": "address"
        },
        {
          "indexed": true,
          "internalType": "address",
          "name": "operator",
          "type": "address"
        },
        {
          "indexed": false,
          "internalType": "bool",
          "name": "approved",
          "type": "bool"
        }
      ],
      "name": "ApprovalForAll",
      "type": "event"
    },
    {
      "anonymous": false,
      "inputs": [
        {
          "indexed": false,
          "internalType": "uint64",
          "name": "version",
          "type": "uint64"
        }
      ],
      "name": "Initialized",
      "type": "event"
    },
    {
      "anonymous": false,
      "inputs": [
        {
          "indexed": false,
          "internalType": "string",
          "name": "newName",
          "type": "string"
        }
      ],
      "name": "NameChanged",
      "type": "event"
    },
    {
      "anonymous": false,
      "inputs": [
        {
          "indexed": false,
          "internalType": "address",
          "name": "account",
          "type": "address"
        }
      ],
      "name": "Paused",
      "type": "event"
    },
    {
      "anonymous": false,
      "inputs": [
        {
          "indexed": true,
          "internalType": "bytes32",
          "name": "role",
          "type": "bytes32"
        },
        {
          "indexed": true,
          "internalType": "bytes32",
          "name": "previousAdminRole",
          "type": "bytes32"
        },
        {
          "indexed": true,
          "internalType": "bytes32",
          "name": "newAdminRole",
          "type": "bytes32"
        }
      ],
      "name": "RoleAdminChanged",
      "type": "event"
    },
    {
      "anonymous": false,
      "inputs": [
        {
          "indexed": true,
          "internalType": "bytes32",
          "name": "role",
          "type": "bytes32"
        },
        {
          "indexed": true,
          "internalType": "address",
          "name": "account",
          "type": "address"
        },
        {
          "indexed": true,
          "internalType": "address",
          "name": "sender",
          "type": "address"
        }
      ],
      "name": "RoleGranted",
      "type": "event"
    },
    {
      "anonymous": false,
      "inputs": [
        {
          "indexed": true,
          "internalType": "bytes32",
          "name": "role",
          "type": "bytes32"
        },
        {
          "indexed": true,
          "internalType": "address",
          "name": "account",
          "type": "address"
        },
        {
          "indexed": true,
          "internalType": "address",
          "name": "sender",
          "type": "address"
        }
      ],
      "name": "RoleRevoked",
      "type": "event"
    },
    {
      "anonymous": false,
      "inputs": [
        {
          "indexed": false,
          "internalType": "string",
          "name": "newSymbol",
          "type": "string"
        }
      ],
      "name": "SymbolChanged",
      "type": "event"
    },
    {
      "anonymous": false,
      "inputs": [
        {
          "indexed": false,
          "internalType": "bool",
          "name": "replaceId",
          "type": "bool"
        }
      ],
      "name": "TokenUriReplaceIdChanged",
      "type": "event"
    },
    {
      "anonymous": false,
      "inputs": [
        {
          "indexed": true,
          "internalType": "address",
          "name": "operator",
          "type": "address"
        },
        {
          "indexed": true,
          "internalType": "address",
          "name": "from",
          "type": "address"
        },
        {
          "indexed": true,
          "internalType": "address",
          "name": "to",
          "type": "address"
        },
        {
          "indexed": false,
          "internalType": "uint256[]",
          "name": "ids",
          "type": "uint256[]"
        },
        {
          "indexed": false,
          "internalType": "uint256[]",
          "name": "values",
          "type": "uint256[]"
        }
      ],
      "name": "TransferBatch",
      "type": "event"
    },
    {
      "anonymous": false,
      "inputs": [
        {
          "indexed": true,
          "internalType": "address",
          "name": "operator",
          "type": "address"
        },
        {
          "indexed": true,
          "internalType": "address",
          "name": "from",
          "type": "address"
        },
        {
          "indexed": true,
          "internalType": "address",
          "name": "to",
          "type": "address"
        },
        {
          "indexed": false,
          "internalType": "uint256",
          "name": "id",
          "type": "uint256"
        },
        {
          "indexed": false,
          "internalType": "uint256",
          "name": "value",
          "type": "uint256"
        }
      ],
      "name": "TransferSingle",
      "type": "event"
    },
    {
      "anonymous": false,
      "inputs": [
        {
          "indexed": false,
          "internalType": "string",
          "name": "value",
          "type": "string"
        },
        {
          "indexed": true,
          "internalType": "uint256",
          "name": "id",
          "type": "uint256"
        }
      ],
      "name": "URI",
      "type": "event"
    },
    {
      "anonymous": false,
      "inputs": [
        {
          "indexed": false,
          "internalType": "string",
          "name": "newURI",
          "type": "string"
        }
      ],
      "name": "URIChanged",
      "type": "event"
    },
    {
      "anonymous": false,
      "inputs": [
        {
          "indexed": false,
          "internalType": "address",
          "name": "account",
          "type": "address"
        }
      ],
      "name": "Unpaused",
      "type": "event"
    },
    {
      "inputs": [],
      "name": "ADMIN_ROLE",
      "outputs": [
        {
          "internalType": "bytes32",
          "name": "",
          "type": "bytes32"
        }
      ],
      "stateMutability": "view",
      "type": "function"
    },
    {
      "inputs": [],
      "name": "DEFAULT_ADMIN_ROLE",
      "outputs": [
        {
          "internalType": "bytes32",
          "name": "",
          "type": "bytes32"
        }
      ],
      "stateMutability": "view",
      "type": "function"
    },
    {
      "inputs": [],
      "name": "GILDI_MANAGER_ROLE",
      "outputs": [
        {
          "internalType": "bytes32",
          "name": "",
          "type": "bytes32"
        }
      ],
      "stateMutability": "view",
      "type": "function"
    },
    {
      "inputs": [
        {
          "internalType": "address",
          "name": "account",
          "type": "address"
        },
        {
          "internalType": "uint256",
          "name": "id",
          "type": "uint256"
        }
      ],
      "name": "balanceOf",
      "outputs": [
        {
          "internalType": "uint256",
          "name": "",
          "type": "uint256"
        }
      ],
      "stateMutability": "view",
      "type": "function"
    },
    {
      "inputs": [
        {
          "internalType": "address[]",
          "name": "accounts",
          "type": "address[]"
        },
        {
          "internalType": "uint256[]",
          "name": "ids",
          "type": "uint256[]"
        }
      ],
      "name": "balanceOfBatch",
      "outputs": [
        {
          "internalType": "uint256[]",
          "name": "",
          "type": "uint256[]"
        }
      ],
      "stateMutability": "view",
      "type": "function"
    },
    {
      "inputs": [
        {
          "internalType": "address",
          "name": "_account",
          "type": "address"
        },
        {
          "internalType": "uint256",
          "name": "_id",
          "type": "uint256"
        },
        {
          "internalType": "uint256",
          "name": "_value",
          "type": "uint256"
        }
      ],
      "name": "burn",
      "outputs": [],
      "stateMutability": "nonpayable",
      "type": "function"
    },
    {
      "inputs": [
        {
          "internalType": "uint256",
          "name": "_id",
          "type": "uint256"
        }
      ],
      "name": "burnAllById",
      "outputs": [],
      "stateMutability": "nonpayable",
      "type": "function"
    },
    {
      "inputs": [
        {
          "internalType": "address",
          "name": "_account",
          "type": "address"
        },
        {
          "internalType": "uint256[]",
          "name": "_ids",
          "type": "uint256[]"
        },
        {
          "internalType": "uint256[]",
          "name": "_values",
          "type": "uint256[]"
        }
      ],
      "name": "burnBatch",
      "outputs": [],
      "stateMutability": "nonpayable",
      "type": "function"
    },
    {
      "inputs": [
        {
          "internalType": "uint256",
          "name": "_id",
          "type": "uint256"
        }
      ],
      "name": "exists",
      "outputs": [
        {
          "internalType": "bool",
          "name": "",
          "type": "bool"
        }
      ],
      "stateMutability": "view",
      "type": "function"
    },
    {
      "inputs": [
        {
          "internalType": "bytes32",
          "name": "role",
          "type": "bytes32"
        }
      ],
      "name": "getRoleAdmin",
      "outputs": [
        {
          "internalType": "bytes32",
          "name": "",
          "type": "bytes32"
        }
      ],
      "stateMutability": "view",
      "type": "function"
    },
    {
      "inputs": [
        {
          "internalType": "bytes32",
          "name": "role",
          "type": "bytes32"
        },
        {
          "internalType": "address",
          "name": "account",
          "type": "address"
        }
      ],
      "name": "grantRole",
      "outputs": [],
      "stateMutability": "nonpayable",
      "type": "function"
    },
    {
      "inputs": [
        {
          "internalType": "bytes32",
          "name": "role",
          "type": "bytes32"
        },
        {
          "internalType": "address",
          "name": "account",
          "type": "address"
        }
      ],
      "name": "hasRole",
      "outputs": [
        {
          "internalType": "bool",
          "name": "",
          "type": "bool"
        }
      ],
      "stateMutability": "view",
      "type": "function"
    },
    {
      "inputs": [
        {
          "internalType": "address",
          "name": "_defaultAdmin",
          "type": "address"
        },
        {
          "internalType": "address",
          "name": "_initialAdmin",
          "type": "address"
        },
        {
          "internalType": "string",
          "name": "_baseUri",
          "type": "string"
        }
      ],
      "name": "initialize",
      "outputs": [],
      "stateMutability": "nonpayable",
      "type": "function"
    },
    {
      "inputs": [
        {
          "internalType": "address",
          "name": "account",
          "type": "address"
        },
        {
          "internalType": "address",
          "name": "operator",
          "type": "address"
        }
      ],
      "name": "isApprovedForAll",
      "outputs": [
        {
          "internalType": "bool",
          "name": "",
          "type": "bool"
        }
      ],
      "stateMutability": "view",
      "type": "function"
    },
    {
      "inputs": [
        {
          "internalType": "address",
          "name": "_account",
          "type": "address"
        },
        {
          "internalType": "uint256",
          "name": "_id",
          "type": "uint256"
        },
        {
          "internalType": "uint256",
          "name": "_amount",
          "type": "uint256"
        },
        {
          "internalType": "bytes",
          "name": "_data",
          "type": "bytes"
        }
      ],
      "name": "mint",
      "outputs": [],
      "stateMutability": "nonpayable",
      "type": "function"
    },
    {
      "inputs": [
        {
          "internalType": "address",
          "name": "_to",
          "type": "address"
        },
        {
          "internalType": "uint256[]",
          "name": "_ids",
          "type": "uint256[]"
        },
        {
          "internalType": "uint256[]",
          "name": "_amounts",
          "type": "uint256[]"
        },
        {
          "internalType": "bytes",
          "name": "_data",
          "type": "bytes"
        }
      ],
      "name": "mintBatch",
      "outputs": [],
      "stateMutability": "nonpayable",
      "type": "function"
    },
    {
      "inputs": [
        {
          "components": [
            {
              "internalType": "address",
              "name": "to",
              "type": "address"
            },
            {
              "internalType": "uint256[]",
              "name": "ids",
              "type": "uint256[]"
            },
            {
              "internalType": "uint256[]",
              "name": "amounts",
              "type": "uint256[]"
            },
            {
              "internalType": "bytes",
              "name": "data",
              "type": "bytes"
            }
          ],
          "internalType": "struct IGildiToken.MintBatch[]",
          "name": "_mintBatches",
          "type": "tuple[]"
        }
      ],
      "name": "mintBatchMany",
      "outputs": [],
      "stateMutability": "nonpayable",
      "type": "function"
    },
    {
      "inputs": [],
      "name": "name",
      "outputs": [
        {
          "internalType": "string",
          "name": "",
          "type": "string"
        }
      ],
      "stateMutability": "view",
      "type": "function"
    },
    {
      "inputs": [],
      "name": "pause",
      "outputs": [],
      "stateMutability": "nonpayable",
      "type": "function"
    },
    {
      "inputs": [],
      "name": "paused",
      "outputs": [
        {
          "internalType": "bool",
          "name": "",
          "type": "bool"
        }
      ],
      "stateMutability": "view",
      "type": "function"
    },
    {
      "inputs": [
        {
          "internalType": "bytes32",
          "name": "role",
          "type": "bytes32"
        },
        {
          "internalType": "address",
          "name": "callerConfirmation",
          "type": "address"
        }
      ],
      "name": "renounceRole",
      "outputs": [],
      "stateMutability": "nonpayable",
      "type": "function"
    },
    {
      "inputs": [
        {
          "internalType": "bytes32",
          "name": "role",
          "type": "bytes32"
        },
        {
          "internalType": "address",
          "name": "account",
          "type": "address"
        }
      ],
      "name": "revokeRole",
      "outputs": [],
      "stateMutability": "nonpayable",
      "type": "function"
    },
    {
      "inputs": [
        {
          "internalType": "address",
          "name": "from",
          "type": "address"
        },
        {
          "internalType": "address",
          "name": "to",
          "type": "address"
        },
        {
          "internalType": "uint256[]",
          "name": "ids",
          "type": "uint256[]"
        },
        {
          "internalType": "uint256[]",
          "name": "values",
          "type": "uint256[]"
        },
        {
          "internalType": "bytes",
          "name": "data",
          "type": "bytes"
        }
      ],
      "name": "safeBatchTransferFrom",
      "outputs": [],
      "stateMutability": "nonpayable",
      "type": "function"
    },
    {
      "inputs": [
        {
          "internalType": "address",
          "name": "from",
          "type": "address"
        },
        {
          "internalType": "address",
          "name": "to",
          "type": "address"
        },
        {
          "internalType": "uint256",
          "name": "id",
          "type": "uint256"
        },
        {
          "internalType": "uint256",
          "name": "value",
          "type": "uint256"
        },
        {
          "internalType": "bytes",
          "name": "data",
          "type": "bytes"
        }
      ],
      "name": "safeTransferFrom",
      "outputs": [],
      "stateMutability": "nonpayable",
      "type": "function"
    },
    {
      "inputs": [
        {
          "internalType": "address",
          "name": "operator",
          "type": "address"
        },
        {
          "internalType": "bool",
          "name": "approved",
          "type": "bool"
        }
      ],
      "name": "setApprovalForAll",
      "outputs": [],
      "stateMutability": "nonpayable",
      "type": "function"
    },
    {
      "inputs": [
        {
          "internalType": "string",
          "name": "_name",
          "type": "string"
        }
      ],
      "name": "setName",
      "outputs": [],
      "stateMutability": "nonpayable",
      "type": "function"
    },
    {
      "inputs": [
        {
          "internalType": "string",
          "name": "_symbol",
          "type": "string"
        }
      ],
      "name": "setSymbol",
      "outputs": [],
      "stateMutability": "nonpayable",
      "type": "function"
    },
    {
      "inputs": [
        {
          "internalType": "bool",
          "name": "_replaceId",
          "type": "bool"
        }
      ],
      "name": "setTokenUriReplaceId",
      "outputs": [],
      "stateMutability": "nonpayable",
      "type": "function"
    },
    {
      "inputs": [
        {
          "internalType": "string",
          "name": "_newUri",
          "type": "string"
        }
      ],
      "name": "setURI",
      "outputs": [],
      "stateMutability": "nonpayable",
      "type": "function"
    },
    {
      "inputs": [
        {
          "internalType": "bytes4",
          "name": "_interfaceId",
          "type": "bytes4"
        }
      ],
      "name": "supportsInterface",
      "outputs": [
        {
          "internalType": "bool",
          "name": "",
          "type": "bool"
        }
      ],
      "stateMutability": "view",
      "type": "function"
    },
    {
      "inputs": [],
      "name": "symbol",
      "outputs": [
        {
          "internalType": "string",
          "name": "",
          "type": "string"
        }
      ],
      "stateMutability": "view",
      "type": "function"
    },
    {
      "inputs": [
        {
          "internalType": "address",
          "name": "_account",
          "type": "address"
        }
      ],
      "name": "tokensOfOwner",
      "outputs": [
        {
          "components": [
            {
              "internalType": "uint256",
              "name": "tokenId",
              "type": "uint256"
            },
            {
              "internalType": "uint256",
              "name": "balance",
              "type": "uint256"
            }
          ],
          "internalType": "struct IGildiToken.TokenBalance[]",
          "name": "ownedTokens",
          "type": "tuple[]"
        }
      ],
      "stateMutability": "view",
      "type": "function"
    },
    {
      "inputs": [],
      "name": "totalSupply",
      "outputs": [
        {
          "internalType": "uint256",
          "name": "",
          "type": "uint256"
        }
      ],
      "stateMutability": "view",
      "type": "function"
    },
    {
      "inputs": [
        {
          "internalType": "uint256",
          "name": "_id",
          "type": "uint256"
        }
      ],
      "name": "totalSupply",
      "outputs": [
        {
          "internalType": "uint256",
          "name": "",
          "type": "uint256"
        }
      ],
      "stateMutability": "view",
      "type": "function"
    },
    {
      "inputs": [],
      "name": "unpause",
      "outputs": [],
      "stateMutability": "nonpayable",
      "type": "function"
    },
    {
      "inputs": [
        {
          "internalType": "uint256",
          "name": "_tokenId",
          "type": "uint256"
        }
      ],
      "name": "uri",
      "outputs": [
        {
          "internalType": "string",
          "name": "",
          "type": "string"
        }
      ],
      "stateMutability": "view",
      "type": "function"
    }
  ],
  "transactionHash": "0xb65ed01710c9d77ca1524c62d3f74b0ccb8a89b8be7ab65630cb37489c714606",
  "args": [],
  "numDeployments": 1,
  "solcInputHash": "5fcb370cb2b9ee0340656465635a79fa",
  "bytecode": "0x60808060405234620000bd577ff0c57e16840df040f15088dc2f81fe391c3923bec73e23a9662efc9c229c6a009081549060ff8260401c16620000ae57506001600160401b036002600160401b03198282160162000068575b604051613cee9081620000c38239f35b6001600160401b031990911681179091556040519081527fc7f505b2f371ae2175ee4913f4499e1f2633a7b5936321eed1cdaeb6115181d290602090a138808062000058565b63f92ee8a960e01b8152600490fd5b600080fdfe6080604052600436101561001257600080fd5b60003560e01c8062fdd58e1461025657806301ffc9a71461025157806302fe53051461024c57806306fdde03146102475780630e89341c1461024257806318160ddd1461023d5780631f7fdffa14610238578063248a9ca3146102335780632eb2c2d61461022e5780632f2ff15d1461022957806336568abe146102245780633f4ba83a1461021f5780634571e3a61461021a578063466683cd146102155780634e1273f4146102105780634f558e791461020b5780635c975abb146102065780636b20c45414610201578063731133e9146101fc57806375b238fc146101f75780638456cb59146101f25780638462151c146101ed5780638ab4b411146101e857806391d14854146101e357806395d89b41146101de578063a217fddf146101d9578063a22cb465146101d4578063a7f908ff146101cf578063b84c8246146101ca578063bd85b039146101c5578063c47f0027146101c0578063cdb65e2b146101bb578063d547741f146101b6578063e985e9c5146101b1578063f242432a146101ac5763f5298aca146101a757600080fd5b61193b565b61185b565b61182a565b6117de565b6117a3565b61165c565b611611565b6114cf565b611438565b6113a1565b611385565b6112f0565b611291565b611197565b611088565b610fd7565b610f9c565b610ecd565b610e11565b610de1565b610d94565b610cda565b610c33565b610ae0565b610a69565b610a22565b6109d6565b6108a5565b6107e9565b610707565b61067f565b610660565b61058b565b6104d6565b61031e565b6102a0565b600435906001600160a01b038216820361027157565b600080fd5b602435906001600160a01b038216820361027157565b35906001600160a01b038216820361027157565b346102715760403660031901126102715760206103036102be61025b565b6024356000527f88be536d5240c274a3b1d3a1be54482fd9caa294f08c62a7cde569f49a3c4500835260406000209060018060a01b0316600052602052604060002090565b54604051908152f35b6001600160e01b031981160361027157565b3461027157602036600319011261027157602060043561033d8161030c565b63ffffffff60e01b16637965db0b60e01b811490811561037b575b811561036a575b506040519015158152f35b6399b61ec360e01b1490503861035f565b9050636cdb3d1360e11b811480156103ab575b801561039b575b90610358565b506301ffc9a760e01b8114610395565b506303a24d0760e21b811461038e565b634e487b7160e01b600052604160045260246000fd5b604081019081106001600160401b038211176103ec57604052565b6103bb565b602081019081106001600160401b038211176103ec57604052565b90601f801991011681019081106001600160401b038211176103ec57604052565b6040519061043a826103d1565b565b6001600160401b0381116103ec57601f01601f191660200190565b9291926104638261043c565b91610471604051938461040c565b829481845281830111610271578281602093846000960137010152565b9080601f83011215610271578160206104a993359101610457565b90565b602060031982011261027157600435906001600160401b038211610271576104a99160040161048e565b34610271577fbd06d92759c326896ec0f7c3a981e801ae4644e020f89b2a198909b692df0ddd61052d610508366104ac565b6105106121b1565b610519816122b3565b604051918291602083526020830190610555565b0390a1005b60005b8381106105455750506000910152565b8181015183820152602001610535565b9060209161056e81518092818552858086019101610532565b601f01601f1916010190565b9060206104a9928181520190610555565b346102715760008060031936011261065d5760405190808054906105ae82611a56565b8085529160209160019182811690811561063057506001146105eb575b6105e7866105db8188038261040c565b6040519182918261057a565b0390f35b8080955052600080516020613bd98339815191525b83851061061d575050505081016020016105db826105e7386105cb565b8054868601840152938201938101610600565b90508695506105e7969350602092506105db94915060ff191682840152151560051b8201019293386105cb565b80fd5b34610271576020366003190112610271576105e7610519600435611c1b565b34610271576000366003190112610271576020600080516020613c5983398151915254604051908152f35b9181601f84011215610271578235916001600160401b038311610271576020808501948460051b01011161027157565b9181601f84011215610271578235916001600160401b038311610271576020838186019501011161027157565b346102715760803660031901126102715761072061025b565b602435906001600160401b038083116102715761074360049336906004016106aa565b916044358181116102715761075c9036906004016106aa565b929091606435908111610271576107779036906004016106da565b94909661078261222d565b61078a61261e565b60005b8281106107c55750506107bd926107ad6107c398936107b593369161083c565b94369161083c565b933691610457565b92612649565b005b8060051b840135156107d95760010161078d565b50604051631bf4348160e31b8152fd5b3461027157602036600319011261027157600435600052600080516020613bf98339815191526020526020600160406000200154604051908152f35b6001600160401b0381116103ec5760051b60200190565b929161084782610825565b91610855604051938461040c565b829481845260208094019160051b810192831161027157905b82821061087b5750505050565b8135815290830190830161086e565b9080601f83011215610271578160206104a99335910161083c565b346102715760a0366003190112610271576108be61025b565b6108c6610276565b90604435916001600160401b0390818411610271576108ea6004943690860161088a565b9060643583811161027157610902903690870161088a565b926084359081116102715761091a903690870161048e565b936001600160a01b038082169033821415806109a7575b61097a57831615610962571561094b576107c39550612c9a565b604051626a0d4560e21b8152600081880152602490fd5b604051632bfa23e760e11b8152600081890152602490fd5b6040805163711bec9160e11b815233818b019081526001600160a01b038616602082015290918291010390fd5b5060ff6109ce336109b7866119d2565b9060018060a01b0316600052602052604060002090565b541615610931565b34610271576040366003190112610271576107c36004356109f5610276565b9080600052600080516020613bf9833981519152602052610a1d600160406000200154612285565b6127f3565b3461027157604036600319011261027157610a3b610276565b336001600160a01b03821603610a57576107c39060043561282d565b60405163334bd91960e11b8152600490fd5b3461027157600036600319011261027157610a826121b1565b600080516020613c39833981519152805460ff811615610ace5760ff191690557f5db9ee0a495bf2e6ff9c91a7834c1ba4fdd244a5e8aa4e537bd38aeae4b073aa6020604051338152a1005b604051638dfc202b60e01b8152600490fd5b3461027157606036600319011261027157610af961025b565b610b01610276565b6001600160401b03919060443583811161027157610b2390369060040161048e565b90600080516020613c79833981519152549360ff8560401c1615941680159081610c2b575b6001149081610c21575b159081610c18575b50610c0657600080516020613c79833981519152805467ffffffffffffffff19166001179055610b8e9284610be157611f61565b610b9457005b600080516020613c79833981519152805460ff60401b19169055604051600181527fc7f505b2f371ae2175ee4913f4499e1f2633a7b5936321eed1cdaeb6115181d290806020810161052d565b600080516020613c79833981519152805460ff60401b1916600160401b179055611f61565b60405163f92ee8a960e01b8152600490fd5b90501538610b5a565b303b159150610b52565b859150610b48565b34610271576020366003190112610271576004358015158091036102715760207fbffb37a8d6b0a186b56fe0c4a0cb5d46b63dffd5171473c24d5b957f75a8f8d591610c7d6121b1565b60ff196002541660ff821617600255604051908152a1005b90815180825260208080930193019160005b828110610cb5575050505090565b835185529381019392810192600101610ca7565b9060206104a9928181520190610c95565b34610271576040366003190112610271576004356001600160401b038082116102715736602383011215610271578160040135610d1681610825565b92610d24604051948561040c565b8184526020916024602086019160051b8301019136831161027157602401905b828210610d7d5785602435868111610271576105e791610d6b610d7192369060040161088a565b9061205a565b60405191829182610cc9565b838091610d898461028c565b815201910190610d44565b34610271576020366003190112610271576004356000527f4a593662ee04d27b6a00ebb31be7fe0c102c2ade82a7c5d764f2df05dc4e280060205260206040600020541515604051908152f35b3461027157600036600319011261027157602060ff600080516020613c3983398151915254166040519015158152f35b3461027157606036600319011261027157610e2a61025b565b6001600160401b0360243581811161027157610e4a9036906004016106aa565b60449291923591821161027157610e85610e6b610e8d9336906004016106aa565b949092610e7661261e565b610e7e61222d565b369161083c565b92369161083c565b906001600160a01b03831615610eb5576107c3926000604051610eaf816103f1565b526129cb565b604051626a0d4560e21b815260006004820152602490fd5b3461027157608036600319011261027157610ee661025b565b602435906064356001600160401b03811161027157610f099036906004016106da565b90610f1261222d565b610f1a61261e565b8315610f8a57610f2b913691610457565b906001600160a01b03811615610f7157610f6b6107c393604435909160405192600184526020840152604083019160018352606084015260808301604052565b91612b10565b604051632bfa23e760e11b815260006004820152602490fd5b604051631bf4348160e31b8152600490fd5b346102715760003660031901126102715760206040517fa49807205ce4d355092ef5a8a18f56e8913cf4a201fbe287825b095693c217758152f35b3461027157600036600319011261027157610ff06121b1565b610ff861261e565b600080516020613c39833981519152600160ff198254161790557f62e78cea01bee320cd4e420270b5ea74000d11b0c9f74754ebdbfc544b05a2586020604051338152a1005b60208082019080835283518092528060408094019401926000905b83821061106857505050505090565b845180518752830151868401529485019493820193600190910190611059565b3461027157602080600319360112610271576110a261025b565b60009160018060a01b0382168352600481526040926110c360408220612e8e565b908151946110d086610825565b956110de604051978861040c565b8087526110ed601f1991610825565b019084835b83811061117657505050505b815181101561116857806111318561112c61111b60019587612046565b516000526003602052604060002090565b612915565b61113b8285612046565b519061114561042d565b918252858201526111568288612046565b526111618187612046565b50016110fe565b604051806105e7878261103e565b8251611181816103d1565b858152858382015282828b0101520185906110f2565b3461027157602080600319360112610271576004906004356001600160401b038111610271576111cb9036906004016106aa565b91906111d561222d565b6111dd61261e565b60005b8381106111e957005b6111fc6111f78286856120ff565b612121565b93838501908151519360409586880195865151036112815760005b8451805182101561124a578161122c91612046565b511561123a57600101611217565b8751631bf4348160e31b81528a90fd5b505096611278929650600194939195606061126b835160018060a01b031690565b9351915192015192612649565b019291926111e0565b8651639f914a3f60e01b81528990fd5b3461027157604036600319011261027157602060ff6112e46112b1610276565b600435600052600080516020613bf9833981519152845260406000209060018060a01b0316600052602052604060002090565b54166040519015158152f35b346102715760008060031936011261065d576040519080600180549061131582611a56565b8086529260209260018116908115610630575060011461133f576105e7866105db8188038261040c565b935060018452600080516020613c198339815191525b838510611372575050505081016020016105db826105e7386105cb565b8054868601840152938201938101611355565b3461027157600036600319011261027157602060405160008152f35b34610271576040366003190112610271576113ba61025b565b602435801515809103610271576001600160a01b038216918215611420576113e5906109b7336119d2565b60ff1981541660ff83161790556040519081527f17307eab39ab6107e8899845ad3d59bd9653f200f220920489ca2b5937696c3160203392a3005b60405162ced3e160e81b815260006004820152602490fd5b3461027157602080600319360112610271576004359061145661222d565b61145e61261e565b6000918083526003906003602052604061147a60408620612e8e565b92855b84518110156114cb576001908488528287526114c5848920866114b3858060a01b0392836114ab878d612046565b511690612915565b916114be858b612046565b5116612981565b0161147d565b8680f35b34610271576114dd366104ac565b6114e56121b1565b80516001600160401b0381116103ec5760019061150b816115068454611a56565b611e26565b602080601f831160011461157b575091611562827f57c940aa14b51ea5f96b7a2bea757ce355d996e2c5d7a3c68aff1c75a326269b959361052d95600091611570575b508160011b916000199060031b1c19161790565b90556040519182918261057a565b90508401513861154e565b600160005290601f198316600080516020613c19833981519152926000905b8282106115fa57505092849261052d9592827f57c940aa14b51ea5f96b7a2bea757ce355d996e2c5d7a3c68aff1c75a326269b9896106115e1575b5050811b0190556105db565b85015160001960f88460031b161c1916905538806115d5565b808785968294968b0151815501950193019061159a565b34610271576020366003190112610271576004356000527f4a593662ee04d27b6a00ebb31be7fe0c102c2ade82a7c5d764f2df05dc4e28006020526020604060002054604051908152f35b346102715761166a366104ac565b6116726121b1565b8051906001600160401b0382116103ec57600090611699836116948454611a56565b611e75565b602080601f851160011461170d5750906116ee8484956116fc947f4737457377f528cc8afd815f73ecb8b05df80d047dbffc41c17750a4033592bc969161170257508160011b916000199060031b1c19161790565b84556040519182918261057a565b0390a180f35b90508301513861154e565b6000805290601f198516600080516020613bd98339815191529285905b82821061178b575050946116fc9392600192827f4737457377f528cc8afd815f73ecb8b05df80d047dbffc41c17750a4033592bc979810611772575b5050811b0184556105db565b84015160001960f88460031b161c191690553880611766565b8060018596829496890151815501950193019061172a565b346102715760003660031901126102715760206040517f9a6b366b64aae14578e1fa4987c62b443b066b9bf4d8b58278c84a5c127cadb78152f35b34610271576040366003190112610271576107c36004356117fd610276565b9080600052600080516020613bf9833981519152602052611825600160406000200154612285565b61282d565b3461027157604036600319011261027157602060ff6112e461184a61025b565b6109b7611855610276565b916119d2565b346102715760a03660031901126102715761187461025b565b61187c610276565b6084356001600160401b0381116102715761189b90369060040161048e565b906001600160a01b03838116903382141580611923575b6118fc57821615610f715715610eb5576107c3926118f46064356044359160405192600184526020840152604083019160018352606084015260808301604052565b929091612c9a565b60405163711bec9160e11b81523360048201526001600160a01b0386166024820152604490fd5b5060ff611933336109b7886119d2565b5416156118b2565b34610271576060366003190112610271576107c361195761025b565b61195f61261e565b61196761222d565b6044359060243590612981565b6000527f4a593662ee04d27b6a00ebb31be7fe0c102c2ade82a7c5d764f2df05dc4e2800602052604060002090565b6000527f88be536d5240c274a3b1d3a1be54482fd9caa294f08c62a7cde569f49a3c4500602052604060002090565b6001600160a01b031660009081527f88be536d5240c274a3b1d3a1be54482fd9caa294f08c62a7cde569f49a3c45016020526040902090565b611a52916000527f88be536d5240c274a3b1d3a1be54482fd9caa294f08c62a7cde569f49a3c450060205260406000209060018060a01b0316600052602052604060002090565b5490565b90600182811c92168015611a86575b6020831014611a7057565b634e487b7160e01b600052602260045260246000fd5b91607f1691611a65565b60405190600082600080516020613c9983398151915291825492611ab384611a56565b80845293602091600191828116908115611b405750600114611adf575b50505061043a9250038361040c565b60009081527ff429cb5e2ec84cbb765e76b31964a56ccde03e7a6122d6cc4afb19edc55edeed9590935091905b828410611b28575061043a945050508101602001388080611ad0565b85548885018301529485019487945092810192611b0c565b925050506020925061043a94915060ff191682840152151560051b820101388080611ad0565b60405190611b73826103d1565b60048252637b69647d60e01b6020830152565b634e487b7160e01b600052601160045260246000fd5b600019810191908211611bab57565b611b86565b91908203918211611bab57565b9060018201809211611bab57565b91908201809211611bab57565b634e487b7160e01b600052603260045260246000fd5b908151811015611bff570160200190565b611bd8565b90611c1760209282815194859201610532565b0190565b611c2c611c26611a90565b916123ed565b8151611c36575090565b90611c3f611b66565b6000926000925b611c5b611c568251855190611bb0565b611bbd565b841015611d505760019460005b8451811015611d4757611c95611c87611c818389611bcb565b85611bee565b516001600160f81b03191690565b611cb2611ca5611c878489611bee565b6001600160f81b03191690565b6001600160f81b031990911603611ccb57600101611c68565b509390945060005b611ce2575b6001019293611c46565b6002546001945060ff1615611cd8576104a9935090611d33611d2286611d1a85611d12611d3997611d339b612531565b975190611bcb565b81519161259e565b916040519687956020870190611c04565b90611c04565b03601f19810183528261040c565b50939094611cd3565b939150915015611d5e575090565b602f60f81b60ff60f81b611d7e611c87611d788651611b9c565b86611bee565b1603611d9f57611d3391611d396104a9926040519485936020850190611c04565b611dbd91611d396104a992611d336040519586946020860190611c04565b602f60f81b815260010190565b91611de49183549060031b91821b91600019901b19161790565b9055565b600080516020613bd98339815191525b818110611e03575050565b60008155600101611df8565b818110611e1a575050565b60008155600101611e0f565b90601f8211611e33575050565b61043a916001600052600080516020613c19833981519152906020601f840160051c83019310611e6b575b601f0160051c0190611e0f565b9091508190611e5e565b90601f8211611e82575050565b61043a9160008052600080516020613bd9833981519152906020601f840160051c83019310611e6b57601f0160051c0190611e0f565b601f8111611ec35750565b60019060006001600052601f600080516020613c19833981519152920160051c8201915b828110611ef45750505050565b8181558301611ee7565b90601f8211611f0b575050565b61043a91600080516020613c998339815191526000527ff429cb5e2ec84cbb765e76b31964a56ccde03e7a6122d6cc4afb19edc55edeed906020601f840160051c83019310611e6b57601f0160051c0190611e0f565b611f7e611f9b9293611f71612e5f565b611f79612e5f565b6122b3565b611f86612e5f565b611f8e612e5f565b611f96612e5f565b612664565b506001600160a01b038116612036575b50611fb7600054611a56565b601f811161200d575b5060227023b4b632349029b430b932902a37b5b2b760791b01600055611fef611fea600154611a56565b611eb8565b600a6447494c444960d81b01600155600160ff196002541617600255565b601f61203091600080520160051c600080516020613bd983398151915201611de8565b38611fc0565b61203f90612719565b5038611fab565b8051821015611bff5760209160051b010190565b919091805183518082036120dd57505080519061208f61207983610825565b92612087604051948561040c565b808452610825565b60209190601f1901368484013760005b81518110156120d557806120c460019260051b85808287010151918a01015190611a0b565b6120ce8287612046565b520161209f565b509193505050565b604051635b05999160e01b815260048101919091526024810191909152604490fd5b9190811015611bff5760051b81013590607e1981360301821215610271570190565b60808136031261027157604051906001600160401b039060808301828111848210176103ec576040526121538161028c565b835260208101358281116102715761216e903690830161088a565b602084015260408101358281116102715761218c903690830161088a565b60408401526060810135918211610271576121a99136910161048e565b606082015290565b3360009081527fb16e88c42fd4e48df2dd6a2eabd6bc9aec654ec170056b470819f8892cc6431c602052604090207fa49807205ce4d355092ef5a8a18f56e8913cf4a201fbe287825b095693c217759060ff905b54161561220f5750565b6044906040519063e2517d3f60e01b82523360048301526024820152fd5b3360009081527fc05f784e1b1f47315ce2e74c8c7e300ce5a891a6822b4969c19c165315e5dc1e602052604090207f9a6b366b64aae14578e1fa4987c62b443b066b9bf4d8b58278c84a5c127cadb79060ff90612205565b6000818152600080516020613bf983398151915260209081526040808320338452909152902060ff90612205565b9081516001600160401b0381116103ec57600080516020613c99833981519152906122e7816122e28454611a56565b611efe565b602080601f831160011461232657508190611de493949560009261231b575b50508160011b916000199060031b1c19161790565b015190503880612306565b90601f19831695612366600080516020613c998339815191526000527ff429cb5e2ec84cbb765e76b31964a56ccde03e7a6122d6cc4afb19edc55edeed90565b926000905b8882106123a35750508360019596971061238a575b505050811b019055565b015160001960f88460031b161c19169055388080612380565b8060018596829496860151815501950193019061236b565b906123c58261043c565b6123d2604051918261040c565b82815280926123e3601f199161043c565b0190602036910137565b806000917a184f03e93ff9f4daa797ed6e38ed64bf6a1f01000000000000000080821015612523575b506d04ee2d6d415b85acef810000000080831015612514575b50662386f26fc1000080831015612505575b506305f5e100808310156124f6575b50612710808310156124e7575b5060648210156124d7575b600a809210156124cd575b600190816021612485600187016123bb565b95860101905b612497575b5050505090565b600019019083906f181899199a1a9b1b9c1cb0b131b232b360811b8282061a8353049182156124c85791908261248b565b612490565b9160010191612473565b9190606460029104910191612468565b6004919392049101913861245d565b60089193920491019138612450565b60109193920491019138612441565b6020919392049101913861242f565b604093508104915038612416565b9061253b8161043c565b91612549604051938461040c565b818352601f196125588361043c565b0136602085013760009060005b838110612573575050505090565b6001906001600160f81b03196125898285611bee565b5116841a6125978288611bee565b5301612565565b9181810392818411611bab576125b38461043c565b936125c1604051958661040c565b8085526125d0601f199161043c565b01366020860137825b8281106125e7575050505090565b6001600160f81b03196125fa8284611bee565b511690848103818111611bab5761261760019360001a9188611bee565b53016125d9565b60ff600080516020613c39833981519152541661263757565b60405163d93c066560e01b8152600490fd5b9291906001600160a01b03841615610f715761043a93612b10565b6001600160a01b03811660009081527fb7db2dd08fcb62d0c9e08c51941cae53c267786a0b75803fb7960902fc8ef97d6020526040812054600080516020613bf98339815191529060ff1661271357818052602090815260408083206001600160a01b038516600090815292529020805460ff1916600117905533916001600160a01b0316907f2f8788117e7eff1d82e926ec794901d17c78024a50270940304540a733656f0d8180a4600190565b50905090565b6001600160a01b03811660009081527fb16e88c42fd4e48df2dd6a2eabd6bc9aec654ec170056b470819f8892cc6431c602052604081207fa49807205ce4d355092ef5a8a18f56e8913cf4a201fbe287825b095693c2177590600080516020613bf98339815191529060ff905b54166127ec57818352602090815260408084206001600160a01b038616600090815292529020805460ff1916600117905533926001600160a01b0316917f2f8788117e7eff1d82e926ec794901d17c78024a50270940304540a733656f0d9080a4600190565b5050905090565b6000818152600080516020613bf9833981519152602081815260408084206001600160a01b0387168552909152822091929160ff90612786565b6000818152600080516020613bf9833981519152602081815260408084206001600160a01b038716855290915282205491929160ff16156127ec57818352602090815260408084206001600160a01b038616600090815292529020805460ff1916905533926001600160a01b0316917ff6391f5c32d9c69d2a47ea670b442974b53935d1edc7fd64eb21e047a839171b9080a4600190565b60008052600281016020526040600020549081159081612901575b506128e85790565b60405163015ab34360e11b815260006004820152602490fd5b6001016020525060406000205415386128e0565b6001600160a01b0390911660008181526002830160205260409020549182159082908261295f575b5050612947575090565b6024906040519063015ab34360e11b82526004820152fd5b612979925060019160005201602052604060002054151590565b15813861293d565b906001600160a01b03821615610eb55761043a926129bc60405192600184526020840152604083019160018352606084015260808301604052565b916000604051610eaf816103f1565b91926129d884838561355c565b6001600160a01b038316159081612a8e575b600091825b8451841015612a24576001908460051b90612a15602080848c0101519389010151611974565b828154039055019301926129ef565b612a529193509593949195600080516020613c598339815191525403600080516020613c5983398151915255565b82848315612a7d575b50505080612a75575b612a6c575050565b61043a91613394565b506000612a64565b612a86926132dd565b388284612a5b565b92600091825b8451841015612ad757612acf6001918560051b90612abd602080848d010151938a010151611974565b612ac8838254611bcb565b9055611bcb565b930192612a94565b612b0b919350612af990959295600080516020613c5983398151915254611bcb565b600080516020613c5983398151915255565b6129ea565b93919091612b1f8284876136b5565b600094855b8451871015612b5557612b4d6001918860051b90612abd602080848a010151938a010151611974565b960195612b24565b909493919550612b78612af9600080516020613c59833981519152928354611bcb565b6001600160a01b038516159081612c34575b508080612c2c575b612c1d575b1580612c0d575b8080612c05575b612beb575b612bb5575b50505050565b8051600103612bdc5790602080612bd395930151910151913361319b565b38808080612baf565b612be69333612fa1565b612bd3565b612bf58383613207565b612c0083838761347c565b612baa565b506000612ba5565b612c1883838761347c565b612b9e565b612c278383613207565b612b97565b506000612b92565b94909591936000966000975b8651891015612c75576001908960051b90612c66602080848b010151938b010151611974565b82815403905501980197612c40565b909296612c9492969498505403600080516020613c5983398151915255565b38612b8a565b91939290612caa828683866137cc565b6001600160a01b03838116159081612df9575b82161580612d85575b8080612d7d575b612d6d575b8180612d65575b612d55575b1580918192612d4c575b50612d31575b612cfa575b5050505050565b8451600103612d2057602080612d1696015192015192336131d0565b3880808080612cf3565b612d2c9491923361309c565b612d16565b612d3c8387866132dd565b612d4783878461347c565b612cee565b90501538612ce8565b612d6084888561347c565b612cde565b508015612cd9565b612d788488876132dd565b612cd2565b508115612ccd565b959491600094916000955b8751871015612dc5576001908760051b90612db6602080848b010151938c010151611974565b82815403905501960195612d90565b612df4919396509791939697600080516020613c598339815191525403600080516020613c5983398151915255565b612cc6565b959491600094916000955b8751871015612e3557612e2d6001918860051b90612abd602080848c010151938d010151611974565b960195612e04565b612e5a91939650612af9909892949798600080516020613c5983398151915254611bcb565b612cbd565b60ff600080516020613c798339815191525460401c1615612e7c57565b604051631afcd79f60e31b8152600490fd5b90604051918281549182825260209260208301916000526020600020936000905b828210612ec55750505061043a9250038361040c565b855484526001958601958895509381019390910190612eaf565b9081602091031261027157516104a98161030c565b92612f236104a99593612f319360018060a01b031686526000602087015260a0604087015260a0860190610c95565b908482036060860152610c95565b916080818403910152610555565b93906104a99593612f2391612f319460018060a01b03809216885216602087015260a0604087015260a0860190610c95565b3d15612f9c573d90612f828261043c565b91612f90604051938461040c565b82523d6000602084013e565b606090565b9293919093843b612fb3575050505050565b602091612fd6604051948593849363bc197c8160e01b9889865260048601612ef4565b038160006001600160a01b0388165af16000918161306b575b5061302e5782612ffd612f71565b805191908261302757604051632bfa23e760e11b81526001600160a01b0383166004820152602490fd5b6020915001fd5b6001600160e01b0319160361304857503880808080612cf3565b604051632bfa23e760e11b81526001600160a01b03919091166004820152602490fd5b61308e91925060203d602011613095575b613086818361040c565b810190612edf565b9038612fef565b503d61307c565b939290949194853b6130b1575b505050505050565b6130d4602093604051958694859463bc197c8160e01b998a875260048701612f3f565b038160006001600160a01b0388165af160009181613116575b506130fb5782612ffd612f71565b6001600160e01b0319160361304857503880808080806130a9565b61313091925060203d60201161309557613086818361040c565b90386130ed565b909260a0926104a99594600180861b0316835260006020840152604083015260608201528160808201520190610555565b91926104a995949160a094600180871b038092168552166020840152604083015260608201528160808201520190610555565b9293919093843b6131ad575050505050565b602091612fd6604051948593849363f23a6e6160e01b9889865260048601613137565b939290949194853b6131e457505050505050565b6130d4602093604051958694859463f23a6e6160e01b998a875260048701613168565b91909160005b81518110156132d7576132208183612046565b5160005260039061324f60209280845260409081600020946132428588612046565b51600052526000206128c5565b9161325a8287612046565b518303928311611bab576001926132709161399a565b5061328661328161111b8386612046565b6128c5565b15613292575b0161320d565b6000805260046020526132d17f17ef568e3e12ab5b9c7254a8d58478811de00f9e6eb34345acd53bf8fd09d3ec5b6132ca8386612046565b5190613a55565b5061328c565b50509050565b92919060005b815181101561338d576132f68183612046565b516000526003906133268660209380855260409081600020956133198689612046565b5160005252600020612915565b916133318286612046565b518303928311611bab5760019287613348926139b4565b5061335a8661112c61111b8487612046565b15613366575b016132e3565b6001600160a01b0386166000908152600460205260409020613387906132c0565b50613360565b5050509050565b91906000805b845181101561338d57806133b060019287612046565b51835260036020526133dc6133d8604085206001906000805201602052604060002054151590565b1590565b613461575b61341b6133f161111b8389612046565b61341561340461328161111b868c612046565b61340e8589612046565b5190611bcb565b9061399a565b5060008052600460205261345a7f17ef568e3e12ab5b9c7254a8d58478811de00f9e6eb34345acd53bf8fd09d3ec6134538389612046565b5190613b6a565b500161339a565b61347661347161111b8389612046565b61395a565b506133e1565b9092916000805b8551811015613554578061349960019288612046565b51835260036020526134cf6133d886604086206001600160a01b0390911660009081526001919091016020526040902054151590565b613538575b61350a87866135046134fa8261112c61111b886134f461111b828a612046565b97612046565b61340e868a612046565b916139b4565b506001600160a01b038516600090815260046020526040902061353190613453838a612046565b5001613483565b61354e8561354961111b848b612046565b613975565b506134d4565b505050509050565b92919061356761261e565b80518251908181036120dd57505060005b815181101561361557600581901b82810160209081015191850101516001600160a01b0387166135ad575b5050600101613578565b6135ba876109b7846119a3565b548181106135de57876109b760019594936135d69303936119a3565b5590386135a3565b6040516303dee4c560e01b81526001600160a01b038916600482015260248101919091526044810182905260648101839052608490fd5b5090600092939160018151148414613676576020908101519181015160408051938452918301526001600160a01b039092169133917fc3d58168c5ae7397731d063d5bbf3d657854427343f4c083240f7aacaa2d0f6291819081015b0390a4565b6040516001600160a01b039093169233927f4a39dc06d4c0dbc64b70af90fd698a233a518aa5d07e595d983b8c0526c8f7fb92829161367191836139d8565b9190916136c061261e565b82518251908181036120dd57505060005b835181101561372d57600581901b84810160209081015191850101516001929184906001600160a01b03821661370b575b505050016136d1565b613723916109b761371b926119a3565b918254611bcb565b9055388381613702565b5091600181511460001461378d576020908101519181015160408051938452918301526001600160a01b039092169160009133917fc3d58168c5ae7397731d063d5bbf3d657854427343f4c083240f7aacaa2d0f62919081908101613671565b7f4a39dc06d4c0dbc64b70af90fd698a233a518aa5d07e595d983b8c0526c8f7fb6136716000939460405191829160018060a01b0316963395836139d8565b9392916137d761261e565b80518351908181036120dd57505060005b81518110156138b557600581901b82810160209081015191860101516001600160a01b0392918590898516613845575b600194821661382b575b505050016137e8565b61383b916109b761371b926119a3565b9055388481613822565b9192939050613857896109b7846119a3565b5483811061387e57918691846001969594036138768c6109b7856119a3565b559450613818565b6040516303dee4c560e01b81526001600160a01b038b16600482015260248101919091526044810184905260648101839052608490fd5b508051939493919291600103613917576020908101519181015160408051938452918301526001600160a01b03928316939092169133917fc3d58168c5ae7397731d063d5bbf3d657854427343f4c083240f7aacaa2d0f629181908101613671565b6040516001600160a01b03938416949093169233927f4a39dc06d4c0dbc64b70af90fd698a233a518aa5d07e595d983b8c0526c8f7fb92829161367191836139d8565b6104a990600080526002810160205260006040812055613b0a565b6001600160a01b0390911660008181526002830160205260408120556104a991613b6a565b6104a9916000805260028201602052604060002055613b0a565b6104a9929160018060a01b0316918260005260028201602052604060002055613b6a565b90916139ef6104a993604084526040840190610c95565b916020818403910152610c95565b8054821015611bff5760005260206000200190600090565b8054908115613a3f5760001991820191613a2f83836139fd565b909182549160031b1b1916905555565b634e487b7160e01b600052603160045260246000fd5b6001810191806000528260205260406000205492831515600014613b01576000199284840190858211611bab578054948501948511611bab576000958583613ab897613aa99503613abe575b505050613a15565b90600052602052604060002090565b55600190565b613ae8613ae291613ad2613af894876139fd565b90549060031b1c928391876139fd565b90611dca565b8590600052602052604060002090565b55388080613aa1565b50505050600090565b6001810190600080805282602052604081205415600014613b6457815491600160401b8310156103ec57613b46836001604095018355826139fd565b8154906000199060031b1b1916905554928180526020522055600190565b91505090565b6000828152600182016020526040902054613bd157805490600160401b8210156103ec5782613bba613ba38460018096018555846139fd565b819391549060031b91821b91600019901b19161790565b905580549260005201602052604060002055600190565b505060009056fe290decd9548b62a8d60345a988386fc84ba6bc95484008f6362f93160ef3e56302dd7bc7dec4dceedda775e58dd541e08a116c6c53815c0bd028192f7b626800b10e2d527612073b26eecdfd717e6a320cf44b4afac2b0732d9fcbe2b7fa0cf6cd5ed15c6e187e77e9aee88184c21f4f2182ab5827cb3b7e07fbedcd63f033004a593662ee04d27b6a00ebb31be7fe0c102c2ade82a7c5d764f2df05dc4e2801f0c57e16840df040f15088dc2f81fe391c3923bec73e23a9662efc9c229c6a0088be536d5240c274a3b1d3a1be54482fd9caa294f08c62a7cde569f49a3c4502a2646970667358221220322628b5bd0c6c75d274371957c9dbb267609e2cae49037a72378bf3527c6edb64736f6c63430008180033",
  "devdoc": {
    "author": "Patrick Fischer (Pathin) > https://pathin.me",
    "custom:security-contact": "security@gildi.io",
    "errors": {
      "AccessControlBadConfirmation()": [
        {
          "details": "The caller of a function is not the expected one. NOTE: Don't confuse with {AccessControlUnauthorizedAccount}."
        }
      ],
      "AccessControlUnauthorizedAccount(address,bytes32)": [
        {
          "details": "The `account` is missing a role."
        }
      ],
      "ERC1155InsufficientBalance(address,uint256,uint256,uint256)": [
        {
          "details": "Indicates an error related to the current `balance` of a `sender`. Used in transfers.",
          "params": {
            "balance": "Current balance for the interacting account.",
            "needed": "Minimum amount required to perform a transfer.",
            "sender": "Address whose tokens are being transferred.",
            "tokenId": "Identifier number of a token."
          }
        }
      ],
      "ERC1155InvalidApprover(address)": [
        {
          "details": "Indicates a failure with the `approver` of a token to be approved. Used in approvals.",
          "params": {
            "approver": "Address initiating an approval operation."
          }
        }
      ],
      "ERC1155InvalidArrayLength(uint256,uint256)": [
        {
          "details": "Indicates an array length mismatch between ids and values in a safeBatchTransferFrom operation. Used in batch transfers.",
          "params": {
            "idsLength": "Length of the array of token identifiers",
            "valuesLength": "Length of the array of token amounts"
          }
        }
      ],
      "ERC1155InvalidOperator(address)": [
        {
          "details": "Indicates a failure with the `operator` to be approved. Used in approvals.",
          "params": {
            "operator": "Address that may be allowed to operate on tokens without being their owner."
          }
        }
      ],
      "ERC1155InvalidReceiver(address)": [
        {
          "details": "Indicates a failure with the token `receiver`. Used in transfers.",
          "params": {
            "receiver": "Address to which tokens are being transferred."
          }
        }
      ],
      "ERC1155InvalidSender(address)": [
        {
          "details": "Indicates a failure with the token `sender`. Used in transfers.",
          "params": {
            "sender": "Address whose tokens are being transferred."
          }
        }
      ],
      "ERC1155MissingApprovalForAll(address,address)": [
        {
          "details": "Indicates a failure with the `operator`s approval. Used in transfers.",
          "params": {
            "operator": "Address that may be allowed to operate on tokens without being their owner.",
            "owner": "Address of the current owner of a token."
          }
        }
      ],
      "EnforcedPause()": [
        {
          "details": "The operation failed because the contract is paused."
        }
      ],
      "EnumerableMapNonexistentKey(bytes32)": [
        {
          "details": "Query for a nonexistent map key."
        }
      ],
      "ExpectedPause()": [
        {
          "details": "The operation failed because the contract is not paused."
        }
      ],
      "InvalidInitialization()": [
        {
          "details": "The contract is already initialized."
        }
      ],
      "NotInitializing()": [
        {
          "details": "The contract is not initializing."
        }
      ]
    },
    "events": {
      "ApprovalForAll(address,address,bool)": {
        "details": "Emitted when `account` grants or revokes permission to `operator` to transfer their tokens, according to `approved`."
      },
      "Initialized(uint64)": {
        "details": "Triggered when the contract has been initialized or reinitialized."
      },
      "NameChanged(string)": {
        "details": "Emitted when the token name changed."
      },
      "Paused(address)": {
        "details": "Emitted when the pause is triggered by `account`."
      },
      "RoleAdminChanged(bytes32,bytes32,bytes32)": {
        "details": "Emitted when `newAdminRole` is set as ``role``'s admin role, replacing `previousAdminRole` `DEFAULT_ADMIN_ROLE` is the starting admin for all roles, despite {RoleAdminChanged} not being emitted to signal this."
      },
      "RoleGranted(bytes32,address,address)": {
        "details": "Emitted when `account` is granted `role`. `sender` is the account that originated the contract call. This account bears the admin role (for the granted role). Expected in cases where the role was granted using the internal {AccessControl-_grantRole}."
      },
      "RoleRevoked(bytes32,address,address)": {
        "details": "Emitted when `account` is revoked `role`. `sender` is the account that originated the contract call:   - if using `revokeRole`, it is the admin role bearer   - if using `renounceRole`, it is the role bearer (i.e. `account`)"
      },
      "SymbolChanged(string)": {
        "details": "Emitted when the token symbol changed."
      },
      "TokenUriReplaceIdChanged(bool)": {
        "details": "Emitted when wether to replace the token URI {id} placeholder changed."
      },
      "TransferBatch(address,address,address,uint256[],uint256[])": {
        "details": "Equivalent to multiple {TransferSingle} events, where `operator`, `from` and `to` are the same for all transfers."
      },
      "TransferSingle(address,address,address,uint256,uint256)": {
        "details": "Emitted when `value` amount of tokens of type `id` are transferred from `from` to `to` by `operator`."
      },
      "URI(string,uint256)": {
        "details": "Emitted when the URI for token type `id` changes to `value`, if it is a non-programmatic URI. If an {URI} event was emitted for `id`, the standard https://eips.ethereum.org/EIPS/eip-1155#metadata-extensions[guarantees] that `value` will equal the value returned by {IERC1155MetadataURI-uri}."
      },
      "URIChanged(string)": {
        "details": "Emitted when the token URI changed."
      },
      "Unpaused(address)": {
        "details": "Emitted when the pause is lifted by `account`."
      }
    },
    "kind": "dev",
    "methods": {
      "balanceOf(address,uint256)": {
        "details": "Returns the value of tokens of token type `id` owned by `account`."
      },
      "balanceOfBatch(address[],uint256[])": {
        "details": "See {IERC1155-balanceOfBatch}. Requirements: - `accounts` and `ids` must have the same length."
      },
      "burn(address,uint256,uint256)": {
        "params": {
          "_account": "The address to burn the token from.",
          "_id": "The ID of the token.",
          "_value": "The amount of the token to burn."
        }
      },
      "burnAllById(uint256)": {
        "params": {
          "_id": "The ID of the token."
        }
      },
      "burnBatch(address,uint256[],uint256[])": {
        "params": {
          "_account": "The address to burn the token from.",
          "_ids": "The IDs of the tokens.",
          "_values": "The amounts of the tokens to burn."
        }
      },
      "constructor": {
        "custom:oz-upgrades-unsafe-allow": "constructor"
      },
      "exists(uint256)": {
        "params": {
          "_id": "The ID of the token."
        },
        "returns": {
          "_0": "True if the token exists, false otherwise."
        }
      },
      "getRoleAdmin(bytes32)": {
        "details": "Returns the admin role that controls `role`. See {grantRole} and {revokeRole}. To change a role's admin, use {_setRoleAdmin}."
      },
      "grantRole(bytes32,address)": {
        "details": "Grants `role` to `account`. If `account` had not been already granted `role`, emits a {RoleGranted} event. Requirements: - the caller must have ``role``'s admin role. May emit a {RoleGranted} event."
      },
      "hasRole(bytes32,address)": {
        "details": "Returns `true` if `account` has been granted `role`."
      },
      "initialize(address,address,string)": {
        "params": {
          "_baseUri": "The base URI of the token.",
          "_defaultAdmin": "The default admin of the contract.",
          "_initialAdmin": "The initial admin of the contract."
        }
      },
      "isApprovedForAll(address,address)": {
        "details": "Returns true if `operator` is approved to transfer ``account``'s tokens. See {setApprovalForAll}."
      },
      "mint(address,uint256,uint256,bytes)": {
        "params": {
          "_account": "The address to mint the token to.",
          "_amount": "The amount of the token to mint.",
          "_data": "The data to pass to the receiver.",
          "_id": "The ID of the token."
        }
      },
      "mintBatch(address,uint256[],uint256[],bytes)": {
        "params": {
          "_amounts": "The amounts of the tokens to mint.",
          "_data": "The data to pass to the receiver.",
          "_ids": "The IDs of the tokens.",
          "_to": "The address to mint the tokens to."
        }
      },
      "mintBatchMany((address,uint256[],uint256[],bytes)[])": {
        "params": {
          "_mintBatches": "The mint batches."
        }
      },
      "paused()": {
        "details": "Returns true if the contract is paused, and false otherwise."
      },
      "renounceRole(bytes32,address)": {
        "details": "Revokes `role` from the calling account. Roles are often managed via {grantRole} and {revokeRole}: this function's purpose is to provide a mechanism for accounts to lose their privileges if they are compromised (such as when a trusted device is misplaced). If the calling account had been revoked `role`, emits a {RoleRevoked} event. Requirements: - the caller must be `callerConfirmation`. May emit a {RoleRevoked} event."
      },
      "revokeRole(bytes32,address)": {
        "details": "Revokes `role` from `account`. If `account` had been granted `role`, emits a {RoleRevoked} event. Requirements: - the caller must have ``role``'s admin role. May emit a {RoleRevoked} event."
      },
      "safeBatchTransferFrom(address,address,uint256[],uint256[],bytes)": {
        "details": "xref:ROOT:erc1155.adoc#batch-operations[Batched] version of {safeTransferFrom}. WARNING: This function can potentially allow a reentrancy attack when transferring tokens to an untrusted contract, when invoking {IERC1155Receiver-onERC1155BatchReceived} on the receiver. Ensure to follow the checks-effects-interactions pattern and consider employing reentrancy guards when interacting with untrusted contracts. Emits either a {TransferSingle} or a {TransferBatch} event, depending on the length of the array arguments. Requirements: - `ids` and `values` must have the same length. - If `to` refers to a smart contract, it must implement {IERC1155Receiver-onERC1155BatchReceived} and return the acceptance magic value."
      },
      "safeTransferFrom(address,address,uint256,uint256,bytes)": {
        "details": "Transfers a `value` amount of tokens of type `id` from `from` to `to`. WARNING: This function can potentially allow a reentrancy attack when transferring tokens to an untrusted contract, when invoking {IERC1155Receiver-onERC1155Received} on the receiver. Ensure to follow the checks-effects-interactions pattern and consider employing reentrancy guards when interacting with untrusted contracts. Emits a {TransferSingle} event. Requirements: - `to` cannot be the zero address. - If the caller is not `from`, it must have been approved to spend ``from``'s tokens via {setApprovalForAll}. - `from` must have a balance of tokens of type `id` of at least `value` amount. - If `to` refers to a smart contract, it must implement {IERC1155Receiver-onERC1155Received} and return the acceptance magic value."
      },
      "setApprovalForAll(address,bool)": {
        "details": "Grants or revokes permission to `operator` to transfer the caller's tokens, according to `approved`, Emits an {ApprovalForAll} event. Requirements: - `operator` cannot be the zero address."
      },
      "setName(string)": {
        "params": {
          "_name": "The new name of the token."
        }
      },
      "setSymbol(string)": {
        "params": {
          "_symbol": "The new symbol of the token."
        }
      },
      "setTokenUriReplaceId(bool)": {
        "params": {
          "_replaceId": "Wether to replace the token URI {id} placeholder."
        }
      },
      "setURI(string)": {
        "params": {
          "_newUri": "The new URI."
        }
      },
      "supportsInterface(bytes4)": {
        "details": "Returns true if this contract implements the interface defined by `interfaceId`. See the corresponding https://eips.ethereum.org/EIPS/eip-165#how-interfaces-are-identified[ERC section] to learn more about how these ids are created. This function call must use less than 30 000 gas."
      },
      "tokensOfOwner(address)": {
        "params": {
          "_account": "The address of the owner."
        }
      },
      "totalSupply()": {
        "returns": {
          "_0": "The total supply of all tokens."
        }
      },
      "totalSupply(uint256)": {
        "params": {
          "_id": "The ID of the token."
        },
        "returns": {
          "_0": "The total supply of the token."
        }
      },
      "uri(uint256)": {
        "details": "See {IERC1155MetadataURI-uri}. This implementation returns the same URI for *all* token types. It relies on the token type ID substitution mechanism https://eips.ethereum.org/EIPS/eip-1155#metadata[defined in the ERC]. Clients calling this function must replace the `\\{id\\}` substring with the actual token type ID."
      }
    },
    "stateVariables": {
      "_ownedTokens": {
        "details": "A mapping of owned tokens by address."
      },
      "_tokenBalances": {
        "details": "A mapping of token balances of an address by token ID."
      },
      "tokenName": {
        "details": "The name of the token."
      },
      "tokenSymbol": {
        "details": "The symbol of the token."
      },
      "tokenUriReplaceId": {
        "details": "Replace TokenUri {id} with the token ID."
      }
    },
    "title": "Gilde Company Share Token",
    "version": 1
  },
  "userdoc": {
    "kind": "user",
    "methods": {
      "ADMIN_ROLE()": {
        "notice": "A role that allows for setting the token name, symbol, and URI."
      },
      "GILDI_MANAGER_ROLE()": {
        "notice": "A role reserved for the Gildi Manager smart contract that allows for the burning of tokens."
      },
      "burn(address,uint256,uint256)": {
        "notice": "Burn a specific amount of a token."
      },
      "burnAllById(uint256)": {
        "notice": "Burn all tokens of a specific ID."
      },
      "burnBatch(address,uint256[],uint256[])": {
        "notice": "Burn a specific amount of a token in a batch."
      },
      "exists(uint256)": {
        "notice": "Check if a token exists."
      },
      "initialize(address,address,string)": {
        "notice": "Initialize the contract."
      },
      "mint(address,uint256,uint256,bytes)": {
        "notice": "Mint a specific amount of a token."
      },
      "mintBatch(address,uint256[],uint256[],bytes)": {
        "notice": "Batch mint a specific amount of tokens."
      },
      "mintBatchMany((address,uint256[],uint256[],bytes)[])": {
        "notice": "Batch mint to many addresses."
      },
      "name()": {
        "notice": "The name of the token."
      },
      "pause()": {
        "notice": "Pause the contract."
      },
      "setName(string)": {
        "notice": "Set the name of the token."
      },
      "setSymbol(string)": {
        "notice": "Set the symbol of the token."
      },
      "setTokenUriReplaceId(bool)": {
        "notice": "Sets wether to replace the token URI {id} placeholder."
      },
      "setURI(string)": {
        "notice": "Sets the URI of the token."
      },
      "symbol()": {
        "notice": "The symbol of the token."
      },
      "tokensOfOwner(address)": {
        "notice": "Fetch all tokens and their balances of an owner."
      },
      "totalSupply()": {
        "notice": "Fetch the total supply of all tokens."
      },
      "totalSupply(uint256)": {
        "notice": "Fetch the total supply of a specific token."
      },
      "unpause()": {
        "notice": "Unpause the contract."
      }
    },
    "notice": "ERC1155 token that represents company shares.",
    "version": 1
  },
  "storageLayout": {
    "storage": [
      {
        "astId": 55097,
        "contract": "contracts/token/GildiShareToken.sol:GildiShareToken",
        "label": "tokenName",
        "offset": 0,
        "slot": "0",
        "type": "t_string_storage"
      },
      {
        "astId": 55100,
        "contract": "contracts/token/GildiShareToken.sol:GildiShareToken",
        "label": "tokenSymbol",
        "offset": 0,
        "slot": "1",
        "type": "t_string_storage"
      },
      {
        "astId": 55103,
        "contract": "contracts/token/GildiShareToken.sol:GildiShareToken",
        "label": "tokenUriReplaceId",
        "offset": 0,
        "slot": "2",
        "type": "t_bool"
      },
      {
        "astId": 55109,
        "contract": "contracts/token/GildiShareToken.sol:GildiShareToken",
        "label": "_tokenBalances",
        "offset": 0,
        "slot": "3",
        "type": "t_mapping(t_uint256,t_struct(AddressToUintMap)14306_storage)"
      },
      {
        "astId": 55115,
        "contract": "contracts/token/GildiShareToken.sol:GildiShareToken",
        "label": "_ownedTokens",
        "offset": 0,
        "slot": "4",
        "type": "t_mapping(t_address,t_struct(UintSet)16689_storage)"
      }
    ],
    "types": {
      "t_address": {
        "encoding": "inplace",
        "label": "address",
        "numberOfBytes": "20"
      },
      "t_array(t_bytes32)dyn_storage": {
        "base": "t_bytes32",
        "encoding": "dynamic_array",
        "label": "bytes32[]",
        "numberOfBytes": "32"
      },
      "t_bool": {
        "encoding": "inplace",
        "label": "bool",
        "numberOfBytes": "1"
      },
      "t_bytes32": {
        "encoding": "inplace",
        "label": "bytes32",
        "numberOfBytes": "32"
      },
      "t_mapping(t_address,t_struct(UintSet)16689_storage)": {
        "encoding": "mapping",
        "key": "t_address",
        "label": "mapping(address => struct EnumerableSet.UintSet)",
        "numberOfBytes": "32",
        "value": "t_struct(UintSet)16689_storage"
      },
      "t_mapping(t_bytes32,t_bytes32)": {
        "encoding": "mapping",
        "key": "t_bytes32",
        "label": "mapping(bytes32 => bytes32)",
        "numberOfBytes": "32",
        "value": "t_bytes32"
      },
      "t_mapping(t_bytes32,t_uint256)": {
        "encoding": "mapping",
        "key": "t_bytes32",
        "label": "mapping(bytes32 => uint256)",
        "numberOfBytes": "32",
        "value": "t_uint256"
      },
      "t_mapping(t_uint256,t_struct(AddressToUintMap)14306_storage)": {
        "encoding": "mapping",
        "key": "t_uint256",
        "label": "mapping(uint256 => struct EnumerableMap.AddressToUintMap)",
        "numberOfBytes": "32",
        "value": "t_struct(AddressToUintMap)14306_storage"
      },
      "t_string_storage": {
        "encoding": "bytes",
        "label": "string",
        "numberOfBytes": "32"
      },
      "t_struct(AddressToUintMap)14306_storage": {
        "encoding": "inplace",
        "label": "struct EnumerableMap.AddressToUintMap",
        "members": [
          {
            "astId": 14305,
            "contract": "contracts/token/GildiShareToken.sol:GildiShareToken",
            "label": "_inner",
            "offset": 0,
            "slot": "0",
            "type": "t_struct(Bytes32ToBytes32Map)13238_storage"
          }
        ],
        "numberOfBytes": "96"
      },
      "t_struct(Bytes32Set)16313_storage": {
        "encoding": "inplace",
        "label": "struct EnumerableSet.Bytes32Set",
        "members": [
          {
            "astId": 16312,
            "contract": "contracts/token/GildiShareToken.sol:GildiShareToken",
            "label": "_inner",
            "offset": 0,
            "slot": "0",
            "type": "t_struct(Set)15997_storage"
          }
        ],
        "numberOfBytes": "64"
      },
      "t_struct(Bytes32ToBytes32Map)13238_storage": {
        "encoding": "inplace",
        "label": "struct EnumerableMap.Bytes32ToBytes32Map",
        "members": [
          {
            "astId": 13233,
            "contract": "contracts/token/GildiShareToken.sol:GildiShareToken",
            "label": "_keys",
            "offset": 0,
            "slot": "0",
            "type": "t_struct(Bytes32Set)16313_storage"
          },
          {
            "astId": 13237,
            "contract": "contracts/token/GildiShareToken.sol:GildiShareToken",
            "label": "_values",
            "offset": 0,
            "slot": "2",
            "type": "t_mapping(t_bytes32,t_bytes32)"
          }
        ],
        "numberOfBytes": "96"
      },
      "t_struct(Set)15997_storage": {
        "encoding": "inplace",
        "label": "struct EnumerableSet.Set",
        "members": [
          {
            "astId": 15992,
            "contract": "contracts/token/GildiShareToken.sol:GildiShareToken",
            "label": "_values",
            "offset": 0,
            "slot": "0",
            "type": "t_array(t_bytes32)dyn_storage"
          },
          {
            "astId": 15996,
            "contract": "contracts/token/GildiShareToken.sol:GildiShareToken",
            "label": "_positions",
            "offset": 0,
            "slot": "1",
            "type": "t_mapping(t_bytes32,t_uint256)"
          }
        ],
        "numberOfBytes": "64"
      },
      "t_struct(UintSet)16689_storage": {
        "encoding": "inplace",
        "label": "struct EnumerableSet.UintSet",
        "members": [
          {
            "astId": 16688,
            "contract": "contracts/token/GildiShareToken.sol:GildiShareToken",
            "label": "_inner",
            "offset": 0,
            "slot": "0",
            "type": "t_struct(Set)15997_storage"
          }
        ],
        "numberOfBytes": "64"
      },
      "t_uint256": {
        "encoding": "inplace",
        "label": "uint256",
        "numberOfBytes": "32"
      }
    }
  }
}