{
  "address": "0x44dF2B9818CBFA04CF3f5aa916CE39De9d8E32bB",
  "abi": [
    {
      "inputs": [
        {
          "internalType": "address",
          "name": "_initialDefaultAdmin",
          "type": "address"
        },
        {
          "internalType": "address",
          "name": "_initialContractAdmin",
          "type": "address"
        },
        {
          "internalType": "string",
          "name": "_overrideName",
          "type": "string"
        },
        {
          "internalType": "string",
          "name": "_overrideSymbol",
          "type": "string"
        }
      ],
      "stateMutability": "nonpayable",
      "type": "constructor"
    },
    {
      "inputs": [],
      "name": "AccessControlBadConfirmation",
      "type": "error"
    },
    {
      "inputs": [
        {
          "internalType": "address",
          "name": "account",
          "type": "address"
        },
        {
          "internalType": "bytes32",
          "name": "neededRole",
          "type": "bytes32"
        }
      ],
      "name": "AccessControlUnauthorizedAccount",
      "type": "error"
    },
    {
      "inputs": [],
      "name": "ECDSAInvalidSignature",
      "type": "error"
    },
    {
      "inputs": [
        {
          "internalType": "uint256",
          "name": "length",
          "type": "uint256"
        }
      ],
      "name": "ECDSAInvalidSignatureLength",
      "type": "error"
    },
    {
      "inputs": [
        {
          "internalType": "bytes32",
          "name": "s",
          "type": "bytes32"
        }
      ],
      "name": "ECDSAInvalidSignatureS",
      "type": "error"
    },
    {
      "inputs": [
        {
          "internalType": "address",
          "name": "spender",
          "type": "address"
        },
        {
          "internalType": "uint256",
          "name": "allowance",
          "type": "uint256"
        },
        {
          "internalType": "uint256",
          "name": "needed",
          "type": "uint256"
        }
      ],
      "name": "ERC20InsufficientAllowance",
      "type": "error"
    },
    {
      "inputs": [
        {
          "internalType": "address",
          "name": "sender",
          "type": "address"
        },
        {
          "internalType": "uint256",
          "name": "balance",
          "type": "uint256"
        },
        {
          "internalType": "uint256",
          "name": "needed",
          "type": "uint256"
        }
      ],
      "name": "ERC20InsufficientBalance",
      "type": "error"
    },
    {
      "inputs": [
        {
          "internalType": "address",
          "name": "approver",
          "type": "address"
        }
      ],
      "name": "ERC20InvalidApprover",
      "type": "error"
    },
    {
      "inputs": [
        {
          "internalType": "address",
          "name": "receiver",
          "type": "address"
        }
      ],
      "name": "ERC20InvalidReceiver",
      "type": "error"
    },
    {
      "inputs": [
        {
          "internalType": "address",
          "name": "sender",
          "type": "address"
        }
      ],
      "name": "ERC20InvalidSender",
      "type": "error"
    },
    {
      "inputs": [
        {
          "internalType": "address",
          "name": "spender",
          "type": "address"
        }
      ],
      "name": "ERC20InvalidSpender",
      "type": "error"
    },
    {
      "inputs": [
        {
          "internalType": "uint256",
          "name": "deadline",
          "type": "uint256"
        }
      ],
      "name": "ERC2612ExpiredSignature",
      "type": "error"
    },
    {
      "inputs": [
        {
          "internalType": "address",
          "name": "signer",
          "type": "address"
        },
        {
          "internalType": "address",
          "name": "owner",
          "type": "address"
        }
      ],
      "name": "ERC2612InvalidSigner",
      "type": "error"
    },
    {
      "inputs": [],
      "name": "EmptyName",
      "type": "error"
    },
    {
      "inputs": [],
      "name": "EmptySymbol",
      "type": "error"
    },
    {
      "inputs": [],
      "name": "EthTransferFailed",
      "type": "error"
    },
    {
      "inputs": [
        {
          "internalType": "address",
          "name": "account",
          "type": "address"
        },
        {
          "internalType": "uint256",
          "name": "currentNonce",
          "type": "uint256"
        }
      ],
      "name": "InvalidAccountNonce",
      "type": "error"
    },
    {
      "inputs": [],
      "name": "InvalidShortString",
      "type": "error"
    },
    {
      "inputs": [],
      "name": "ReentrancyGuardReentrantCall",
      "type": "error"
    },
    {
      "inputs": [
        {
          "internalType": "string",
          "name": "str",
          "type": "string"
        }
      ],
      "name": "StringTooLong",
      "type": "error"
    },
    {
      "anonymous": false,
      "inputs": [
        {
          "indexed": true,
          "internalType": "address",
          "name": "owner",
          "type": "address"
        },
        {
          "indexed": true,
          "internalType": "address",
          "name": "spender",
          "type": "address"
        },
        {
          "indexed": false,
          "internalType": "uint256",
          "name": "value",
          "type": "uint256"
        }
      ],
      "name": "Approval",
      "type": "event"
    },
    {
      "anonymous": false,
      "inputs": [
        {
          "indexed": false,
          "internalType": "string",
          "name": "previousName",
          "type": "string"
        },
        {
          "indexed": false,
          "internalType": "string",
          "name": "newName",
          "type": "string"
        }
      ],
      "name": "CustomNameUpdated",
      "type": "event"
    },
    {
      "anonymous": false,
      "inputs": [
        {
          "indexed": false,
          "internalType": "string",
          "name": "previousSymbol",
          "type": "string"
        },
        {
          "indexed": false,
          "internalType": "string",
          "name": "newSymbol",
          "type": "string"
        }
      ],
      "name": "CustomSymbolUpdated",
      "type": "event"
    },
    {
      "anonymous": false,
      "inputs": [
        {
          "indexed": true,
          "internalType": "address",
          "name": "dst",
          "type": "address"
        },
        {
          "indexed": false,
          "internalType": "uint256",
          "name": "wad",
          "type": "uint256"
        }
      ],
      "name": "Deposit",
      "type": "event"
    },
    {
      "anonymous": false,
      "inputs": [],
      "name": "EIP712DomainChanged",
      "type": "event"
    },
    {
      "anonymous": false,
      "inputs": [
        {
          "indexed": true,
          "internalType": "bytes32",
          "name": "role",
          "type": "bytes32"
        },
        {
          "indexed": true,
          "internalType": "bytes32",
          "name": "previousAdminRole",
          "type": "bytes32"
        },
        {
          "indexed": true,
          "internalType": "bytes32",
          "name": "newAdminRole",
          "type": "bytes32"
        }
      ],
      "name": "RoleAdminChanged",
      "type": "event"
    },
    {
      "anonymous": false,
      "inputs": [
        {
          "indexed": true,
          "internalType": "bytes32",
          "name": "role",
          "type": "bytes32"
        },
        {
          "indexed": true,
          "internalType": "address",
          "name": "account",
          "type": "address"
        },
        {
          "indexed": true,
          "internalType": "address",
          "name": "sender",
          "type": "address"
        }
      ],
      "name": "RoleGranted",
      "type": "event"
    },
    {
      "anonymous": false,
      "inputs": [
        {
          "indexed": true,
          "internalType": "bytes32",
          "name": "role",
          "type": "bytes32"
        },
        {
          "indexed": true,
          "internalType": "address",
          "name": "account",
          "type": "address"
        },
        {
          "indexed": true,
          "internalType": "address",
          "name": "sender",
          "type": "address"
        }
      ],
      "name": "RoleRevoked",
      "type": "event"
    },
    {
      "anonymous": false,
      "inputs": [
        {
          "indexed": true,
          "internalType": "address",
          "name": "from",
          "type": "address"
        },
        {
          "indexed": true,
          "internalType": "address",
          "name": "to",
          "type": "address"
        },
        {
          "indexed": false,
          "internalType": "uint256",
          "name": "value",
          "type": "uint256"
        }
      ],
      "name": "Transfer",
      "type": "event"
    },
    {
      "anonymous": false,
      "inputs": [
        {
          "indexed": true,
          "internalType": "address",
          "name": "src",
          "type": "address"
        },
        {
          "indexed": false,
          "internalType": "uint256",
          "name": "wad",
          "type": "uint256"
        }
      ],
      "name": "Withdrawal",
      "type": "event"
    },
    {
      "stateMutability": "payable",
      "type": "fallback"
    },
    {
      "inputs": [],
      "name": "CONTRACT_ADMIN_ROLE",
      "outputs": [
        {
          "internalType": "bytes32",
          "name": "",
          "type": "bytes32"
        }
      ],
      "stateMutability": "view",
      "type": "function"
    },
    {
      "inputs": [],
      "name": "DEFAULT_ADMIN_ROLE",
      "outputs": [
        {
          "internalType": "bytes32",
          "name": "",
          "type": "bytes32"
        }
      ],
      "stateMutability": "view",
      "type": "function"
    },
    {
      "inputs": [],
      "name": "DOMAIN_SEPARATOR",
      "outputs": [
        {
          "internalType": "bytes32",
          "name": "",
          "type": "bytes32"
        }
      ],
      "stateMutability": "view",
      "type": "function"
    },
    {
      "inputs": [],
      "name": "MINTER_ROLE",
      "outputs": [
        {
          "internalType": "bytes32",
          "name": "",
          "type": "bytes32"
        }
      ],
      "stateMutability": "view",
      "type": "function"
    },
    {
      "inputs": [
        {
          "internalType": "address",
          "name": "owner",
          "type": "address"
        },
        {
          "internalType": "address",
          "name": "spender",
          "type": "address"
        }
      ],
      "name": "allowance",
      "outputs": [
        {
          "internalType": "uint256",
          "name": "",
          "type": "uint256"
        }
      ],
      "stateMutability": "view",
      "type": "function"
    },
    {
      "inputs": [
        {
          "internalType": "address",
          "name": "spender",
          "type": "address"
        },
        {
          "internalType": "uint256",
          "name": "value",
          "type": "uint256"
        }
      ],
      "name": "approve",
      "outputs": [
        {
          "internalType": "bool",
          "name": "",
          "type": "bool"
        }
      ],
      "stateMutability": "nonpayable",
      "type": "function"
    },
    {
      "inputs": [
        {
          "internalType": "address",
          "name": "account",
          "type": "address"
        }
      ],
      "name": "balanceOf",
      "outputs": [
        {
          "internalType": "uint256",
          "name": "",
          "type": "uint256"
        }
      ],
      "stateMutability": "view",
      "type": "function"
    },
    {
      "inputs": [],
      "name": "clearCustomName",
      "outputs": [],
      "stateMutability": "nonpayable",
      "type": "function"
    },
    {
      "inputs": [],
      "name": "clearCustomSymbol",
      "outputs": [],
      "stateMutability": "nonpayable",
      "type": "function"
    },
    {
      "inputs": [],
      "name": "decimals",
      "outputs": [
        {
          "internalType": "uint8",
          "name": "",
          "type": "uint8"
        }
      ],
      "stateMutability": "view",
      "type": "function"
    },
    {
      "inputs": [],
      "name": "deposit",
      "outputs": [],
      "stateMutability": "payable",
      "type": "function"
    },
    {
      "inputs": [],
      "name": "eip712Domain",
      "outputs": [
        {
          "internalType": "bytes1",
          "name": "fields",
          "type": "bytes1"
        },
        {
          "internalType": "string",
          "name": "name",
          "type": "string"
        },
        {
          "internalType": "string",
          "name": "version",
          "type": "string"
        },
        {
          "internalType": "uint256",
          "name": "chainId",
          "type": "uint256"
        },
        {
          "internalType": "address",
          "name": "verifyingContract",
          "type": "address"
        },
        {
          "internalType": "bytes32",
          "name": "salt",
          "type": "bytes32"
        },
        {
          "internalType": "uint256[]",
          "name": "extensions",
          "type": "uint256[]"
        }
      ],
      "stateMutability": "view",
      "type": "function"
    },
    {
      "inputs": [
        {
          "internalType": "bytes32",
          "name": "role",
          "type": "bytes32"
        }
      ],
      "name": "getRoleAdmin",
      "outputs": [
        {
          "internalType": "bytes32",
          "name": "",
          "type": "bytes32"
        }
      ],
      "stateMutability": "view",
      "type": "function"
    },
    {
      "inputs": [
        {
          "internalType": "bytes32",
          "name": "role",
          "type": "bytes32"
        },
        {
          "internalType": "address",
          "name": "account",
          "type": "address"
        }
      ],
      "name": "grantRole",
      "outputs": [],
      "stateMutability": "nonpayable",
      "type": "function"
    },
    {
      "inputs": [
        {
          "internalType": "bytes32",
          "name": "role",
          "type": "bytes32"
        },
        {
          "internalType": "address",
          "name": "account",
          "type": "address"
        }
      ],
      "name": "hasRole",
      "outputs": [
        {
          "internalType": "bool",
          "name": "",
          "type": "bool"
        }
      ],
      "stateMutability": "view",
      "type": "function"
    },
    {
      "inputs": [
        {
          "internalType": "address",
          "name": "to",
          "type": "address"
        },
        {
          "internalType": "uint256",
          "name": "amount",
          "type": "uint256"
        }
      ],
      "name": "mint",
      "outputs": [],
      "stateMutability": "nonpayable",
      "type": "function"
    },
    {
      "inputs": [],
      "name": "name",
      "outputs": [
        {
          "internalType": "string",
          "name": "",
          "type": "string"
        }
      ],
      "stateMutability": "view",
      "type": "function"
    },
    {
      "inputs": [
        {
          "internalType": "address",
          "name": "owner",
          "type": "address"
        }
      ],
      "name": "nonces",
      "outputs": [
        {
          "internalType": "uint256",
          "name": "",
          "type": "uint256"
        }
      ],
      "stateMutability": "view",
      "type": "function"
    },
    {
      "inputs": [
        {
          "internalType": "address",
          "name": "owner",
          "type": "address"
        },
        {
          "internalType": "address",
          "name": "spender",
          "type": "address"
        },
        {
          "internalType": "uint256",
          "name": "value",
          "type": "uint256"
        },
        {
          "internalType": "uint256",
          "name": "deadline",
          "type": "uint256"
        },
        {
          "internalType": "uint8",
          "name": "v",
          "type": "uint8"
        },
        {
          "internalType": "bytes32",
          "name": "r",
          "type": "bytes32"
        },
        {
          "internalType": "bytes32",
          "name": "s",
          "type": "bytes32"
        }
      ],
      "name": "permit",
      "outputs": [],
      "stateMutability": "nonpayable",
      "type": "function"
    },
    {
      "inputs": [
        {
          "internalType": "bytes32",
          "name": "role",
          "type": "bytes32"
        },
        {
          "internalType": "address",
          "name": "callerConfirmation",
          "type": "address"
        }
      ],
      "name": "renounceRole",
      "outputs": [],
      "stateMutability": "nonpayable",
      "type": "function"
    },
    {
      "inputs": [
        {
          "internalType": "bytes32",
          "name": "role",
          "type": "bytes32"
        },
        {
          "internalType": "address",
          "name": "account",
          "type": "address"
        }
      ],
      "name": "revokeRole",
      "outputs": [],
      "stateMutability": "nonpayable",
      "type": "function"
    },
    {
      "inputs": [
        {
          "internalType": "string",
          "name": "_name",
          "type": "string"
        }
      ],
      "name": "setCustomName",
      "outputs": [],
      "stateMutability": "nonpayable",
      "type": "function"
    },
    {
      "inputs": [
        {
          "internalType": "string",
          "name": "_symbol",
          "type": "string"
        }
      ],
      "name": "setCustomSymbol",
      "outputs": [],
      "stateMutability": "nonpayable",
      "type": "function"
    },
    {
      "inputs": [
        {
          "internalType": "bytes4",
          "name": "interfaceId",
          "type": "bytes4"
        }
      ],
      "name": "supportsInterface",
      "outputs": [
        {
          "internalType": "bool",
          "name": "",
          "type": "bool"
        }
      ],
      "stateMutability": "view",
      "type": "function"
    },
    {
      "inputs": [],
      "name": "symbol",
      "outputs": [
        {
          "internalType": "string",
          "name": "",
          "type": "string"
        }
      ],
      "stateMutability": "view",
      "type": "function"
    },
    {
      "inputs": [],
      "name": "totalSupply",
      "outputs": [
        {
          "internalType": "uint256",
          "name": "",
          "type": "uint256"
        }
      ],
      "stateMutability": "view",
      "type": "function"
    },
    {
      "inputs": [
        {
          "internalType": "address",
          "name": "to",
          "type": "address"
        },
        {
          "internalType": "uint256",
          "name": "value",
          "type": "uint256"
        }
      ],
      "name": "transfer",
      "outputs": [
        {
          "internalType": "bool",
          "name": "",
          "type": "bool"
        }
      ],
      "stateMutability": "nonpayable",
      "type": "function"
    },
    {
      "inputs": [
        {
          "internalType": "address",
          "name": "from",
          "type": "address"
        },
        {
          "internalType": "address",
          "name": "to",
          "type": "address"
        },
        {
          "internalType": "uint256",
          "name": "value",
          "type": "uint256"
        }
      ],
      "name": "transferFrom",
      "outputs": [
        {
          "internalType": "bool",
          "name": "",
          "type": "bool"
        }
      ],
      "stateMutability": "nonpayable",
      "type": "function"
    },
    {
      "inputs": [
        {
          "internalType": "uint256",
          "name": "_amount",
          "type": "uint256"
        }
      ],
      "name": "withdraw",
      "outputs": [],
      "stateMutability": "nonpayable",
      "type": "function"
    },
    {
      "stateMutability": "payable",
      "type": "receive"
    }
  ],
  "transactionHash": "0x4e57971dc701859a8acf42bf6f6f19db812ce686c6245907f40220f9bb91a190",
  "args": [
    "0x76D0714e9e72aE7dD9509B7dCE05CfcaAe5572D5",
    "0xEB50824Badd87A4D6Ed74FbeE6cC6dB94B88A775",
    "",
    ""
  ],
  "numDeployments": 1,
  "solcInputHash": "5fcb370cb2b9ee0340656465635a79fa",
  "bytecode": "0x6101608060405234620007e3576200290c803803809162000021828562000804565b8339810190608081830312620007e3576200003c8162000828565b6200004a6020830162000828565b60408301519092906001600160401b038111620007e357846200006f91830162000862565b60608201519094906001600160401b038111620007e35762000092920162000862565b91604051620000a181620007e8565b600a8152694d6f636b20574554483960b01b602082015260405190620000c782620007e8565b60068252656d574554483960d01b602083015260405191620000e983620007e8565b60018352603160f81b602084015281516001600160401b038111620004bb57600354600181811c91168015620007d8575b60208210146200049a57601f81116200076e575b50806020601f8211600114620006e457600091620006d8575b508160011b916000199060031b1c1916176003555b8051906001600160401b038211620004bb5760045490600182811c92168015620006cd575b60208310146200049a5781601f84931162000658575b50602090601f8311600114620005c957600092620005bd575b50508160011b916000199060031b1c1916176004555b620001d181620009e1565b61012052620001e08262000b86565b6101405260208151910120908160e052602081519101209283610100524660a0526040519360208501927f8b73c3c69bb8fe3d512ecc4cf759cc79239f7b179b0ffacaa9a75d522b39400f8452604086015260608501524660808501523060a085015260a0845260c084019184831060018060401b03841117620004bb5762000294946200027b936040525190206080523060c052620008bd565b50601260ff1960095416176009556001600a556200093e565b5081516001600160401b038111620004bb57600b54600181811c91168015620005b2575b60208210146200049a57601f811162000548575b50602092601f8211600114620004dd5792819293600092620004d1575b50508160011b916000199060031b1c191617600b555b80516001600160401b038111620004bb57600c54600181811c91168015620004b0575b60208210146200049a57601f811162000430575b50602091601f8211600114620003c657918192600092620003ba575b50508160011b916000199060031b1c191617600c555b604051611c0e908162000cde82396080518161164f015260a0518161171b015260c05181611619015260e0518161169e015261010051816116c40152610120518161096d015261014051816109970152f35b01519050388062000352565b601f19821692600c60005260206000209160005b8581106200041757508360019510620003fd575b505050811b01600c5562000368565b015160001960f88460031b161c19169055388080620003ee565b91926020600181928685015181550194019201620003da565b600c6000527fdf6966c971051c3d54ec59162606531493a51404a002842f56009d7e5cf4a8c7601f830160051c810191602084106200048f575b601f0160051c01905b81811062000482575062000336565b6000815560010162000473565b90915081906200046a565b634e487b7160e01b600052602260045260246000fd5b90607f169062000322565b634e487b7160e01b600052604160045260246000fd5b015190503880620002e9565b601f19821693600b60005260206000209160005b8681106200052f575083600195961062000515575b505050811b01600b55620002ff565b015160001960f88460031b161c1916905538808062000506565b91926020600181928685015181550194019201620004f1565b600b6000527f0175b7a638427703f0dbe7bb9bbf987a2551717b34e79f33b5b1008d1fa01db9601f830160051c81019160208410620005a7575b601f0160051c01905b8181106200059a5750620002cc565b600081556001016200058b565b909150819062000582565b90607f1690620002b8565b015190503880620001b0565b6004600090815293507f8a35acfbc15ff81a39ae7d344fd709f28e8600b4aa8c65c6b64bfe7fe36bd19b91905b601f19841685106200063c576001945083601f1981161062000622575b505050811b01600455620001c6565b015160001960f88460031b161c1916905538808062000613565b81810151835560209485019460019093019290910190620005f6565b60046000529091507f8a35acfbc15ff81a39ae7d344fd709f28e8600b4aa8c65c6b64bfe7fe36bd19b601f840160051c81019160208510620006c2575b90601f859493920160051c01905b818110620006b2575062000197565b60008155849350600101620006a3565b909150819062000695565b91607f169162000181565b90508301513862000147565b6003600090815292507fc2575a0e9e593c00f959f8c92f12db2869c3395a3b0502d05e2516446f71f85b905b601f198316841062000755576001935082601f198116106200073b575b5050811b016003556200015c565b85015160001960f88460031b161c1916905538806200072d565b8581015182556020938401936001909201910162000710565b60036000527fc2575a0e9e593c00f959f8c92f12db2869c3395a3b0502d05e2516446f71f85b601f830160051c81019160208410620007cd575b601f0160051c01905b818110620007c057506200012e565b60008155600101620007b1565b9091508190620007a8565b90607f16906200011a565b600080fd5b604081019081106001600160401b03821117620004bb57604052565b601f909101601f19168101906001600160401b03821190821017620004bb57604052565b51906001600160a01b0382168203620007e357565b60005b838110620008515750506000910152565b818101518382015260200162000840565b81601f82011215620007e35780516001600160401b038111620004bb576040519262000899601f8301601f19166020018562000804565b81845260208284010111620007e357620008ba91602080850191016200083d565b90565b6001600160a01b031660008181527f5eff886ea0ce6ca488a3d6e336d6c0f75f46d19b42c06ce5ee98e42c96d256c7602052604081205490919060ff166200093a5781805260086020526040822081835260205260408220600160ff198254161790553391600080516020620028ec8339815191528180a4600190565b5090565b6001600160a01b031660008181527f5c767993772d96d7564a11beab881391b21ec861f9d102b8d3be2be9c4b612d360205260408120549091907f2ce8d04a9c35987429af538825cd2438cc5c5bb5dc427955f84daaa3ea1050169060ff16620009dc5780835260086020526040832082845260205260408320600160ff19825416179055600080516020620028ec833981519152339380a4600190565b505090565b8051602091908281101562000a61575090601f82511162000a1f578082519201519080831062000a1057501790565b82600019910360031b1b161790565b60449062000a539260405193849263305a27a960e01b8452806004850152825192839182602487015286860191016200083d565b601f01601f19168101030190fd5b6001600160401b038111620004bb576005928354926001938481811c9116801562000b7b575b838210146200049a57601f811162000b44575b5081601f841160011462000ada575092829391839260009462000ace575b50501b916000199060031b1c191617905560ff90565b01519250388062000ab8565b919083601f1981168760005284600020946000905b8883831062000b29575050501062000b0f575b505050811b01905560ff90565b015160001960f88460031b161c1916905538808062000b02565b85870151885590960195948501948793509081019062000aef565b8560005284601f846000209201871c820191601f8601881c015b82811062000b6e57505062000a9a565b6000815501859062000b5e565b90607f169062000a87565b80516020908181101562000bb35750601f82511162000a1f578082519201519080831062000a1057501790565b906001600160401b038211620004bb57600654926001938481811c9116801562000cd2575b838210146200049a57601f811162000c98575b5081601f841160011462000c2c575092829391839260009462000c20575b50501b916000199060031b1c19161760065560ff90565b01519250388062000c09565b919083601f198116600660005284600020946000905b8883831062000c7d575050501062000c63575b505050811b0160065560ff90565b015160001960f88460031b161c1916905538808062000c55565b85870151885590960195948501948793509081019062000c42565b600660005284601f84600020920160051c820191601f860160051c015b82811062000cc557505062000beb565b6000815501859062000cb5565b90607f169062000bd856fe608060409080825260049081361015610066575b5050361561005e576100236114d3565b61002d34336117b8565b513481527fe1fffcc4923d04b559f4d29a8bfc6cda04eb5b0d3c460751c2402c5c5cc9109c60203392a26001600a55005b6100236114d3565b600091823560e01c91826301ffc9a714610fa55750816306fdde0314610f5f578163095ea7b314610f3557816318160ddd14610f165781631da0331214610edb57816323b872dd14610de7578163248a9ca314610dbb5781632e1a7d4d14610c865781632f2ff15d14610c5c578163313ce56714610c3a5781633644e51514610c1657816336568abe14610bd057816340c10f1914610b4c57816341e03b9d14610ae457816370a0823114610aad5781637ecebe0014610a7557816384b0196e1461095557816391d148541461090d57816395d89b41146108a95781639cf3fc11146106e2578163a217fddf146106c7578163a8a292da146104d4578163a9059cbb146104a3578163c6e5b9c214610438578163d0e30db0146103e7578163d505accf14610280578163d539139314610245578163d547741f14610201575063dd62ed3e146101b55780610013565b90346101fd57806003193601126101fd57806020926101d2611038565b6101da611053565b6001600160a01b0391821683526001865283832091168252845220549051908152f35b5080fd5b9050823461024157806003193601126102415761023d91356102386001610226611053565b93838752600860205286200154611570565b611741565b5080f35b8280fd5b8284346101fd57816003193601126101fd57602090517f9f2df0fed2c77648de5860a4cc508cd0818c85b8b8a1ab4ceeef8d981c8956a68152f35b9050346101fd5760e03660031901126101fd5761029b611038565b6102a3611053565b906044359260643560843560ff811681036103e3578142116103cc5760018060a01b0390818516928389526007602052898920908154916001830190558a519060208201927f6e71edae12b1b97f4d1f60370fef10105fa2faae0126114a169c64845d6126c98452868d840152858a1660608401528a608084015260a083015260c082015260c0815260e0810181811067ffffffffffffffff8211176103b9578b525190206103879161037e91610358611616565b908c519161190160f01b83526002830152602282015260c43591604260a4359220611a83565b90929192611b13565b1681810361039e578661039b87878761182f565b80f35b87516325c0072360e11b815292830152602482015260449150fd5b634e487b7160e01b8b526041875260248bfd5b875163313c898160e11b8152808401839052602490fd5b8680fd5b8284816003193601126101fd576103fc6114d3565b61040634336117b8565b513481527fe1fffcc4923d04b559f4d29a8bfc6cda04eb5b0d3c460751c2402c5c5cc9109c60203392a26001600a5580f35b82346104a057806003193601126104a0576104516114f6565b61045c600c54611142565b601f811161046e575b506000600c5580f35b601f600080516020611b99833981519152910160051c8101905b8181106104955750610465565b828155600101610488565b80fd5b8284346101fd57806003193601126101fd576020906104cd6104c3611038565b60243590336113f5565b5160018152f35b9050346101fd576104e4366110d9565b906104ed6114f6565b8151156106b957600c549061050182611142565b156106a457845161051c816105158161133a565b038261109b565b915b83519167ffffffffffffffff8311610691575061053a90611142565b601f811161064a575b50602080601f83116001146105b3575094816105a29286977f1f5f83d5847bf8cd383dbc9fdc3fdfa12c8f5ec50b19b586cb978190d643b91097916105a8575b508160011b916000199060031b1c191617600c555b51928392836113cd565b0390a180f35b905085015138610583565b90601f198316600c8752600080516020611b998339815191529287905b828210610632575050927f1f5f83d5847bf8cd383dbc9fdc3fdfa12c8f5ec50b19b586cb978190d643b910969792600192826105a29610610619575b5050811b01600c55610598565b87015160001960f88460031b161c19169055388061060c565b80600185968294968b015181550195019301906105d0565b61068190600c8652600080516020611b99833981519152601f840160051c81019160208510610687575b601f0160051c01906113b6565b38610543565b9091508190610674565b634e487b7160e01b865260419052602485fd5b84516106b381610515816112ac565b9161051e565b8351630cc613fb60e11b8152fd5b8284346101fd57816003193601126101fd5751908152602090f35b9050346101fd576106f2366110d9565b906106fb6114f6565b81511561089b57600b549061070f82611142565b156108865784516107238161051581611230565b915b83519167ffffffffffffffff8311610691575061074190611142565b601f811161084a575b50602080601f83116001146107b3575094816105a29286977f549b1c14a8fca20883cd365306eb3e8a6580a4375791accfd91b5e160b16868e97916107a8575b508160011b916000199060031b1c191617600b5551928392836113cd565b90508501513861078a565b90601f198316600b8752600080516020611bb98339815191529287905b828210610832575050927f549b1c14a8fca20883cd365306eb3e8a6580a4375791accfd91b5e160b16868e969792600192826105a29610610819575b5050811b01600b55610598565b87015160001960f88460031b161c19169055388061080c565b80600185968294968b015181550195019301906107d0565b61088090600b8652600080516020611bb9833981519152601f840160051c8101916020851061068757601f0160051c01906113b6565b3861074a565b8451610895816105158161117c565b91610725565b8351632ef1310560e01b8152fd5b8284346101fd57816003193601126101fd576108f4916108ca600c54611142565b1590506108f85780516108e0816105158161133a565b905b51918291602083526020830190610ff8565b0390f35b805161090781610515816112ac565b906108e2565b839150346102415781600319360112610241578160209360ff9261092f611053565b90358252600886528282206001600160a01b039091168252855220549151911615158152f35b905082346102415782600319360112610241576109917f00000000000000000000000000000000000000000000000000000000000000006118c2565b926109bb7f00000000000000000000000000000000000000000000000000000000000000006119c3565b90825192602092602085019585871067ffffffffffffffff881117610a625750926020610a18838896610a0b998b9996528686528151998a99600f60f81b8b5260e0868c015260e08b0190610ff8565b91898303908a0152610ff8565b924660608801523060808801528460a088015286840360c088015251928381520193925b828110610a4b57505050500390f35b835185528695509381019392810192600101610a3c565b634e487b7160e01b845260419052602483fd5b8284346101fd5760203660031901126101fd5760209181906001600160a01b03610a9d611038565b1681526007845220549051908152f35b8284346101fd5760203660031901126101fd5760209181906001600160a01b03610ad5611038565b16815280845220549051908152f35b82346104a057806003193601126104a057610afd6114f6565b610b08600b54611142565b601f8111610b1a575b506000600b5580f35b601f600080516020611bb9833981519152910160051c8101905b818110610b415750610b11565b828155600101610b34565b83915034610241578160031936011261024157610b67611038565b917f9f2df0fed2c77648de5860a4cc508cd0818c85b8b8a1ab4ceeef8d981c8956a690818552600860205280852033865260205260ff818620541615610bb4578461039b602435866117b8565b60449350519163e2517d3f60e01b835233908301526024820152fd5b8284346101fd57806003193601126101fd57610bea611053565b90336001600160a01b03831603610c07575061023d919235611741565b5163334bd91960e11b81528390fd5b8284346101fd57816003193601126101fd57602090610c33611616565b9051908152f35b8284346101fd57816003193601126101fd5760209060ff600954169051908152f35b9050823461024157806003193601126102415761023d9135610c816001610226611053565b611596565b905082346102415760209081600319360112610db757823592610ca76114d3565b3315610da25733855284835281852054848110610d77578490338752868552038286205583600254036002558482518581527fddf252ad1be2c89b69c2b068fc378daa952ba7f163c4a11628f55a4df523b3ef853392a38480808087335af13d15610d72573d610d16816110bd565b90610d238551928361109b565b815286853d92013e5b15610d645750907f7fcf532c15f0a6db0bd6d0e038bea71d30d808c7d98cb3bf7268a95bf5081b6591519283523392a26001600a5580f35b9051630db2c7f160e31b8152fd5b610d2c565b915163391434e360e21b81523391810191825260208201929092526040810184905281906060010390fd5b846024925191634b637e8f60e11b8352820152fd5b8380fd5b839150346102415760203660031901126102415781602093600192358152600885522001549051908152f35b919050346104a05760603660031901126104a057610e03611038565b610e0b611053565b916044359360018060a01b038316808352600160205286832033845260205286832054916000198310610e47575b6020886104cd8989896113f5565b868310610eaf578115610e98573315610e81575082526001602090815286832033845281529186902090859003905582906104cd38610e39565b8751634a1406b160e11b8152908101849052602490fd5b875163e602df0560e01b8152908101849052602490fd5b8751637dc7a0d960e11b8152339181019182526020820193909352604081018790528291506060010390fd5b8284346101fd57816003193601126101fd57602090517f2ce8d04a9c35987429af538825cd2438cc5c5bb5dc427955f84daaa3ea1050168152f35b8284346101fd57816003193601126101fd576020906002549051908152f35b8284346101fd57806003193601126101fd576020906104cd610f55611038565b602435903361182f565b8284346101fd57816003193601126101fd576108f491610f80600b54611142565b159050610f965780516108e08161051581611230565b8051610907816105158161117c565b915034610241576020366003190112610241573563ffffffff60e01b81168091036102415760209250637965db0b60e01b8114908115610fe7575b5015158152f35b6301ffc9a760e01b14905083610fe0565b919082519283825260005b848110611024575050826000602080949584010152601f8019910116010190565b602081830181015184830182015201611003565b600435906001600160a01b038216820361104e57565b600080fd5b602435906001600160a01b038216820361104e57565b6040810190811067ffffffffffffffff82111761108557604052565b634e487b7160e01b600052604160045260246000fd5b90601f8019910116810190811067ffffffffffffffff82111761108557604052565b67ffffffffffffffff811161108557601f01601f191660200190565b602060031982011261104e5760043567ffffffffffffffff811161104e578160238201121561104e57806004013590611111826110bd565b9261111f604051948561109b565b8284526024838301011161104e5781600092602460209301838601378301015290565b90600182811c92168015611172575b602083101461115c57565b634e487b7160e01b600052602260045260246000fd5b91607f1691611151565b6003546000929161118c82611142565b8082529160209060019081811690811561120b57506001146111af575b50505050565b9293945060036000527fc2575a0e9e593c00f959f8c92f12db2869c3395a3b0502d05e2516446f71f85b926000935b8585106111f85750505060209250010190388080806111a9565b80548585018401529382019381016111de565b92505050602093945060ff929192191683830152151560051b010190388080806111a9565b600b546000929161124082611142565b8082529160209060019081811690811561120b57506001146112625750505050565b92939450600b600052600080516020611bb9833981519152926000935b8585106112995750505060209250010190388080806111a9565b805485850184015293820193810161127f565b600454600092916112bc82611142565b8082529160209060019081811690811561120b57506001146112de5750505050565b9293945060046000527f8a35acfbc15ff81a39ae7d344fd709f28e8600b4aa8c65c6b64bfe7fe36bd19b926000935b8585106113275750505060209250010190388080806111a9565b805485850184015293820193810161130d565b600c546000929161134a82611142565b8082529160209060019081811690811561120b575060011461136c5750505050565b92939450600c600052600080516020611b99833981519152926000935b8585106113a35750505060209250010190388080806111a9565b8054858501840152938201938101611389565b8181106113c1575050565b600081556001016113b6565b90916113e46113f293604084526040840190610ff8565b916020818403910152610ff8565b90565b916001600160a01b038084169283156114ba57169283156114a1576000908382528160205260408220549083821061146f575091604082827fddf252ad1be2c89b69c2b068fc378daa952ba7f163c4a11628f55a4df523b3ef958760209652828652038282205586815220818154019055604051908152a3565b60405163391434e360e21b81526001600160a01b03919091166004820152602481019190915260448101839052606490fd5b60405163ec442f0560e01b815260006004820152602490fd5b604051634b637e8f60e11b815260006004820152602490fd5b6002600a54146114e4576002600a55565b604051633ee5aeb560e01b8152600490fd5b3360009081527f5c767993772d96d7564a11beab881391b21ec861f9d102b8d3be2be9c4b612d360205260409020547f2ce8d04a9c35987429af538825cd2438cc5c5bb5dc427955f84daaa3ea1050169060ff16156115525750565b6044906040519063e2517d3f60e01b82523360048301526024820152fd5b80600052600860205260406000203360005260205260ff60406000205416156115525750565b906000918083526008602052604083209160018060a01b03169182845260205260ff604084205416156000146116115780835260086020526040832082845260205260408320600160ff198254161790557f2f8788117e7eff1d82e926ec794901d17c78024a50270940304540a733656f0d339380a4600190565b505090565b307f00000000000000000000000000000000000000000000000000000000000000006001600160a01b03161480611718575b15611671577f000000000000000000000000000000000000000000000000000000000000000090565b60405160208101907f8b73c3c69bb8fe3d512ecc4cf759cc79239f7b179b0ffacaa9a75d522b39400f82527f000000000000000000000000000000000000000000000000000000000000000060408201527f000000000000000000000000000000000000000000000000000000000000000060608201524660808201523060a082015260a0815260c0810181811067ffffffffffffffff8211176110855760405251902090565b507f00000000000000000000000000000000000000000000000000000000000000004614611648565b906000918083526008602052604083209160018060a01b03169182845260205260ff604084205416600014611611578083526008602052604083208284526020526040832060ff1981541690557ff6391f5c32d9c69d2a47ea670b442974b53935d1edc7fd64eb21e047a839171b339380a4600190565b6001600160a01b03169081156114a157600254908082018092116118195760207fddf252ad1be2c89b69c2b068fc378daa952ba7f163c4a11628f55a4df523b3ef9160009360025584845283825260408420818154019055604051908152a3565b634e487b7160e01b600052601160045260246000fd5b6001600160a01b039081169182156118a957169182156118905760207f8c5be1e5ebec7d5bd14f71427d1e84f3dd0314c0f7b2291e5b200ac8c7c3b925918360005260018252604060002085600052825280604060002055604051908152a3565b604051634a1406b160e11b815260006004820152602490fd5b60405163e602df0560e01b815260006004820152602490fd5b60ff81146119005760ff811690601f82116118ee57604051916118e483611069565b8252602082015290565b604051632cd44ac360e21b8152600490fd5b5060405160055481600061191383611142565b8083529260209060019081811690811561199f575060011461193e575b50506113f29250038261109b565b91509260056000527f036b6384b5eca791c62761152d0c79bb0604c104a5fb6f4eb0703f3154bb3db0936000925b82841061198757506113f29450505081016020013880611930565b8554878501830152948501948694509281019261196c565b915050602092506113f294915060ff191682840152151560051b8201013880611930565b60ff81146119e55760ff811690601f82116118ee57604051916118e483611069565b506040516006548160006119f883611142565b8083529260209060019081811690811561199f5750600114611a225750506113f29250038261109b565b91509260066000527ff652222313e28459528d920b65115c16c04f3efc82aaedc97be59f3f377c0d3f936000925b828410611a6b57506113f29450505081016020013880611930565b85548785018301529485019486945092810192611a50565b91907f7fffffffffffffffffffffffffffffff5d576e7357a4501ddfe92f46681b20a08411611b0757926020929160ff608095604051948552168484015260408301526060820152600092839182805260015afa15611afb5780516001600160a01b03811615611af257918190565b50809160019190565b604051903d90823e3d90fd5b50505060009160039190565b6004811015611b825780611b25575050565b60018103611b3f5760405163f645eedf60e01b8152600490fd5b60028103611b605760405163fce698f760e01b815260048101839052602490fd5b600314611b6a5750565b602490604051906335e2f38360e21b82526004820152fd5b634e487b7160e01b600052602160045260246000fdfedf6966c971051c3d54ec59162606531493a51404a002842f56009d7e5cf4a8c70175b7a638427703f0dbe7bb9bbf987a2551717b34e79f33b5b1008d1fa01db9a2646970667358221220afe87b54b0cc05fefe30775997ae37131a64c0af4845ce3a3c04723afa772ffc64736f6c634300081800332f8788117e7eff1d82e926ec794901d17c78024a50270940304540a733656f0d",
  "devdoc": {
    "author": "Gildi Company",
    "custom:security-contact": "security@gildi.io",
    "details": "Provides wrapped ETH functionality with deposit/withdraw capabilities and reentrancy protection",
    "errors": {
      "AccessControlBadConfirmation()": [
        {
          "details": "The caller of a function is not the expected one. NOTE: Don't confuse with {AccessControlUnauthorizedAccount}."
        }
      ],
      "AccessControlUnauthorizedAccount(address,bytes32)": [
        {
          "details": "The `account` is missing a role."
        }
      ],
      "ECDSAInvalidSignature()": [
        {
          "details": "The signature derives the `address(0)`."
        }
      ],
      "ECDSAInvalidSignatureLength(uint256)": [
        {
          "details": "The signature has an invalid length."
        }
      ],
      "ECDSAInvalidSignatureS(bytes32)": [
        {
          "details": "The signature has an S value that is in the upper half order."
        }
      ],
      "ERC20InsufficientAllowance(address,uint256,uint256)": [
        {
          "details": "Indicates a failure with the `spender`s `allowance`. Used in transfers.",
          "params": {
            "allowance": "Amount of tokens a `spender` is allowed to operate with.",
            "needed": "Minimum amount required to perform a transfer.",
            "spender": "Address that may be allowed to operate on tokens without being their owner."
          }
        }
      ],
      "ERC20InsufficientBalance(address,uint256,uint256)": [
        {
          "details": "Indicates an error related to the current `balance` of a `sender`. Used in transfers.",
          "params": {
            "balance": "Current balance for the interacting account.",
            "needed": "Minimum amount required to perform a transfer.",
            "sender": "Address whose tokens are being transferred."
          }
        }
      ],
      "ERC20InvalidApprover(address)": [
        {
          "details": "Indicates a failure with the `approver` of a token to be approved. Used in approvals.",
          "params": {
            "approver": "Address initiating an approval operation."
          }
        }
      ],
      "ERC20InvalidReceiver(address)": [
        {
          "details": "Indicates a failure with the token `receiver`. Used in transfers.",
          "params": {
            "receiver": "Address to which tokens are being transferred."
          }
        }
      ],
      "ERC20InvalidSender(address)": [
        {
          "details": "Indicates a failure with the token `sender`. Used in transfers.",
          "params": {
            "sender": "Address whose tokens are being transferred."
          }
        }
      ],
      "ERC20InvalidSpender(address)": [
        {
          "details": "Indicates a failure with the `spender` to be approved. Used in approvals.",
          "params": {
            "spender": "Address that may be allowed to operate on tokens without being their owner."
          }
        }
      ],
      "ERC2612ExpiredSignature(uint256)": [
        {
          "details": "Permit deadline has expired."
        }
      ],
      "ERC2612InvalidSigner(address,address)": [
        {
          "details": "Mismatched signature."
        }
      ],
      "EmptyName()": [
        {
          "details": "Reverts when no name is set"
        }
      ],
      "EmptySymbol()": [
        {
          "details": "Reverts when no symbol is set"
        }
      ],
      "EthTransferFailed()": [
        {
          "details": "Reverts when ETH transfer via withdraw fails"
        }
      ],
      "InvalidAccountNonce(address,uint256)": [
        {
          "details": "The nonce used for an `account` is not the expected current nonce."
        }
      ],
      "ReentrancyGuardReentrantCall()": [
        {
          "details": "Unauthorized reentrant call."
        }
      ]
    },
    "events": {
      "Approval(address,address,uint256)": {
        "details": "Emitted when the allowance of a `spender` for an `owner` is set by a call to {approve}. `value` is the new allowance."
      },
      "CustomNameUpdated(string,string)": {
        "params": {
          "newName": "The new token name",
          "previousName": "The previously observed token name"
        }
      },
      "CustomSymbolUpdated(string,string)": {
        "params": {
          "newSymbol": "The new token symbol",
          "previousSymbol": "The previously observed token symbol"
        }
      },
      "Deposit(address,uint256)": {
        "params": {
          "dst": "The address receiving the wrapped tokens",
          "wad": "The amount of ETH deposited and tokens minted"
        }
      },
      "EIP712DomainChanged()": {
        "details": "MAY be emitted to signal that the domain could have changed."
      },
      "RoleAdminChanged(bytes32,bytes32,bytes32)": {
        "details": "Emitted when `newAdminRole` is set as ``role``'s admin role, replacing `previousAdminRole` `DEFAULT_ADMIN_ROLE` is the starting admin for all roles, despite {RoleAdminChanged} not being emitted to signal this."
      },
      "RoleGranted(bytes32,address,address)": {
        "details": "Emitted when `account` is granted `role`. `sender` is the account that originated the contract call. This account bears the admin role (for the granted role). Expected in cases where the role was granted using the internal {AccessControl-_grantRole}."
      },
      "RoleRevoked(bytes32,address,address)": {
        "details": "Emitted when `account` is revoked `role`. `sender` is the account that originated the contract call:   - if using `revokeRole`, it is the admin role bearer   - if using `renounceRole`, it is the role bearer (i.e. `account`)"
      },
      "Transfer(address,address,uint256)": {
        "details": "Emitted when `value` tokens are moved from one account (`from`) to another (`to`). Note that `value` may be zero."
      },
      "Withdrawal(address,uint256)": {
        "params": {
          "src": "The address withdrawing the ETH",
          "wad": "The amount of tokens burned and ETH withdrawn"
        }
      }
    },
    "kind": "dev",
    "methods": {
      "DOMAIN_SEPARATOR()": {
        "details": "Returns the domain separator used in the encoding of the signature for {permit}, as defined by {EIP712}."
      },
      "allowance(address,address)": {
        "details": "Returns the remaining number of tokens that `spender` will be allowed to spend on behalf of `owner` through {transferFrom}. This is zero by default. This value changes when {approve} or {transferFrom} are called."
      },
      "approve(address,uint256)": {
        "details": "See {IERC20-approve}. NOTE: If `value` is the maximum `uint256`, the allowance is not updated on `transferFrom`. This is semantically equivalent to an infinite approval. Requirements: - `spender` cannot be the zero address."
      },
      "balanceOf(address)": {
        "details": "Returns the value of tokens owned by `account`."
      },
      "clearCustomName()": {
        "details": "Sets `overrideNameValue` to empty so `name()` falls back to `super.name()`"
      },
      "clearCustomSymbol()": {
        "details": "Sets `overrideSymbolValue` to empty so `symbol()` falls back to `super.symbol()`"
      },
      "constructor": {
        "details": "Sets up the ERC20 token with name \"Mock WETH9\", symbol \"mWETH9\", and 18 decimals",
        "params": {
          "_initialContractAdmin": "The address that will have admin privileges for the contract",
          "_initialDefaultAdmin": "The address that will have admin privileges for the token",
          "_overrideName": "The name of the token",
          "_overrideSymbol": "The symbol of the token"
        }
      },
      "decimals()": {
        "details": "Returns the number of decimals used to get its user representation. For example, if `decimals` equals `2`, a balance of `505` tokens should be displayed to a user as `5.05` (`505 / 10 ** 2`). Tokens usually opt for a value of 18, imitating the relationship between Ether and Wei. This is the default value returned by this function, unless it's overridden. NOTE: This information is only used for _display_ purposes: it in no way affects any of the arithmetic of the contract, including {IERC20-balanceOf} and {IERC20-transfer}."
      },
      "deposit()": {
        "details": "Mints wrapped tokens equivalent to the native currency sent"
      },
      "eip712Domain()": {
        "details": "returns the fields and values that describe the domain separator used by this contract for EIP-712 signature."
      },
      "getRoleAdmin(bytes32)": {
        "details": "Returns the admin role that controls `role`. See {grantRole} and {revokeRole}. To change a role's admin, use {_setRoleAdmin}."
      },
      "grantRole(bytes32,address)": {
        "details": "Grants `role` to `account`. If `account` had not been already granted `role`, emits a {RoleGranted} event. Requirements: - the caller must have ``role``'s admin role. May emit a {RoleGranted} event."
      },
      "hasRole(bytes32,address)": {
        "details": "Returns `true` if `account` has been granted `role`."
      },
      "mint(address,uint256)": {
        "params": {
          "amount": "The amount of token to mint",
          "to": "The address to mint the token to"
        }
      },
      "name()": {
        "details": "Returns the name of the token."
      },
      "nonces(address)": {
        "details": "Returns the current nonce for `owner`. This value must be included whenever a signature is generated for {permit}. Every successful call to {permit} increases ``owner``'s nonce by one. This prevents a signature from being used multiple times."
      },
      "permit(address,address,uint256,uint256,uint8,bytes32,bytes32)": {
        "details": "Sets `value` as the allowance of `spender` over ``owner``'s tokens, given ``owner``'s signed approval. IMPORTANT: The same issues {IERC20-approve} has related to transaction ordering also apply here. Emits an {Approval} event. Requirements: - `spender` cannot be the zero address. - `deadline` must be a timestamp in the future. - `v`, `r` and `s` must be a valid `secp256k1` signature from `owner` over the EIP712-formatted function arguments. - the signature must use ``owner``'s current nonce (see {nonces}). For more information on the signature format, see the https://eips.ethereum.org/EIPS/eip-2612#specification[relevant EIP section]. CAUTION: See Security Considerations above."
      },
      "renounceRole(bytes32,address)": {
        "details": "Revokes `role` from the calling account. Roles are often managed via {grantRole} and {revokeRole}: this function's purpose is to provide a mechanism for accounts to lose their privileges if they are compromised (such as when a trusted device is misplaced). If the calling account had been revoked `role`, emits a {RoleRevoked} event. Requirements: - the caller must be `callerConfirmation`. May emit a {RoleRevoked} event."
      },
      "revokeRole(bytes32,address)": {
        "details": "Revokes `role` from `account`. If `account` had been granted `role`, emits a {RoleRevoked} event. Requirements: - the caller must have ``role``'s admin role. May emit a {RoleRevoked} event."
      },
      "setCustomName(string)": {
        "params": {
          "_name": "The new token name to expose via `name()`."
        }
      },
      "setCustomSymbol(string)": {
        "params": {
          "_symbol": "The new token symbol to expose via `symbol()`."
        }
      },
      "supportsInterface(bytes4)": {
        "details": "Returns true if this contract implements the interface defined by `interfaceId`. See the corresponding https://eips.ethereum.org/EIPS/eip-165#how-interfaces-are-identified[ERC section] to learn more about how these ids are created. This function call must use less than 30 000 gas."
      },
      "symbol()": {
        "details": "Returns the symbol of the token, usually a shorter version of the name."
      },
      "totalSupply()": {
        "details": "Returns the value of tokens in existence."
      },
      "transfer(address,uint256)": {
        "details": "See {IERC20-transfer}. Requirements: - `to` cannot be the zero address. - the caller must have a balance of at least `value`."
      },
      "transferFrom(address,address,uint256)": {
        "details": "See {IERC20-transferFrom}. Skips emitting an {Approval} event indicating an allowance update. This is not required by the ERC. See {xref-ERC20-_approve-address-address-uint256-bool-}[_approve]. NOTE: Does not update the allowance if the current allowance is the maximum `uint256`. Requirements: - `from` and `to` cannot be the zero address. - `from` must have a balance of at least `value`. - the caller must have allowance for ``from``'s tokens of at least `value`."
      },
      "withdraw(uint256)": {
        "details": "Burns wrapped tokens and sends equivalent native currency to caller",
        "params": {
          "amount": "The amount of wrapped tokens to withdraw"
        }
      }
    },
    "stateVariables": {
      "overrideNameValue": {
        "details": "Optional override for the ERC20 name returned by `name()` when non-empty."
      },
      "overrideSymbolValue": {
        "details": "Optional override for the ERC20 symbol returned by `symbol()` when non-empty."
      }
    },
    "title": "MockWETH9Token",
    "version": 1
  },
  "userdoc": {
    "events": {
      "CustomNameUpdated(string,string)": {
        "notice": "Emitted when the token name override is updated"
      },
      "CustomSymbolUpdated(string,string)": {
        "notice": "Emitted when the token symbol override is updated"
      },
      "Deposit(address,uint256)": {
        "notice": "Emitted when ETH is deposited and WETH tokens are minted"
      },
      "Withdrawal(address,uint256)": {
        "notice": "Emitted when WETH tokens are burned and ETH is withdrawn"
      }
    },
    "kind": "user",
    "methods": {
      "CONTRACT_ADMIN_ROLE()": {
        "notice": "Role permitted to administer contract-level settings (e.g., name/symbol overrides)."
      },
      "clearCustomName()": {
        "notice": "Clears the custom token name override and restores the base ERC20 name"
      },
      "clearCustomSymbol()": {
        "notice": "Clears the custom token symbol override and restores the base ERC20 symbol"
      },
      "constructor": {
        "notice": "Initialize the MockWETH9Token contract"
      },
      "deposit()": {
        "notice": "Deposit native currency and receive wrapped tokens"
      },
      "mint(address,uint256)": {
        "notice": "Mints the token to the specified address."
      },
      "setCustomName(string)": {
        "notice": "Sets a new token name override."
      },
      "setCustomSymbol(string)": {
        "notice": "Sets a new token symbol override."
      },
      "withdraw(uint256)": {
        "notice": "Withdraw wrapped tokens and receive native currency"
      }
    },
    "notice": "Mock implementation of the WETH9 token for testing and development purposes",
    "version": 1
  },
  "storageLayout": {
    "storage": [
      {
        "astId": 4148,
        "contract": "contracts/mock/tokens/erc20/MockWETH9Token.sol:MockWETH9Token",
        "label": "_balances",
        "offset": 0,
        "slot": "0",
        "type": "t_mapping(t_address,t_uint256)"
      },
      {
        "astId": 4154,
        "contract": "contracts/mock/tokens/erc20/MockWETH9Token.sol:MockWETH9Token",
        "label": "_allowances",
        "offset": 0,
        "slot": "1",
        "type": "t_mapping(t_address,t_mapping(t_address,t_uint256))"
      },
      {
        "astId": 4156,
        "contract": "contracts/mock/tokens/erc20/MockWETH9Token.sol:MockWETH9Token",
        "label": "_totalSupply",
        "offset": 0,
        "slot": "2",
        "type": "t_uint256"
      },
      {
        "astId": 4158,
        "contract": "contracts/mock/tokens/erc20/MockWETH9Token.sol:MockWETH9Token",
        "label": "_name",
        "offset": 0,
        "slot": "3",
        "type": "t_string_storage"
      },
      {
        "astId": 4160,
        "contract": "contracts/mock/tokens/erc20/MockWETH9Token.sol:MockWETH9Token",
        "label": "_symbol",
        "offset": 0,
        "slot": "4",
        "type": "t_string_storage"
      },
      {
        "astId": 9376,
        "contract": "contracts/mock/tokens/erc20/MockWETH9Token.sol:MockWETH9Token",
        "label": "_nameFallback",
        "offset": 0,
        "slot": "5",
        "type": "t_string_storage"
      },
      {
        "astId": 9378,
        "contract": "contracts/mock/tokens/erc20/MockWETH9Token.sol:MockWETH9Token",
        "label": "_versionFallback",
        "offset": 0,
        "slot": "6",
        "type": "t_string_storage"
      },
      {
        "astId": 6943,
        "contract": "contracts/mock/tokens/erc20/MockWETH9Token.sol:MockWETH9Token",
        "label": "_nonces",
        "offset": 0,
        "slot": "7",
        "type": "t_mapping(t_address,t_uint256)"
      },
      {
        "astId": 2619,
        "contract": "contracts/mock/tokens/erc20/MockWETH9Token.sol:MockWETH9Token",
        "label": "_roles",
        "offset": 0,
        "slot": "8",
        "type": "t_mapping(t_bytes32,t_struct(RoleData)2614_storage)"
      },
      {
        "astId": 48749,
        "contract": "contracts/mock/tokens/erc20/MockWETH9Token.sol:MockWETH9Token",
        "label": "tokenDecimals",
        "offset": 0,
        "slot": "9",
        "type": "t_uint8"
      },
      {
        "astId": 7060,
        "contract": "contracts/mock/tokens/erc20/MockWETH9Token.sol:MockWETH9Token",
        "label": "_status",
        "offset": 0,
        "slot": "10",
        "type": "t_uint256"
      },
      {
        "astId": 48916,
        "contract": "contracts/mock/tokens/erc20/MockWETH9Token.sol:MockWETH9Token",
        "label": "overrideNameValue",
        "offset": 0,
        "slot": "11",
        "type": "t_string_storage"
      },
      {
        "astId": 48919,
        "contract": "contracts/mock/tokens/erc20/MockWETH9Token.sol:MockWETH9Token",
        "label": "overrideSymbolValue",
        "offset": 0,
        "slot": "12",
        "type": "t_string_storage"
      }
    ],
    "types": {
      "t_address": {
        "encoding": "inplace",
        "label": "address",
        "numberOfBytes": "20"
      },
      "t_bool": {
        "encoding": "inplace",
        "label": "bool",
        "numberOfBytes": "1"
      },
      "t_bytes32": {
        "encoding": "inplace",
        "label": "bytes32",
        "numberOfBytes": "32"
      },
      "t_mapping(t_address,t_bool)": {
        "encoding": "mapping",
        "key": "t_address",
        "label": "mapping(address => bool)",
        "numberOfBytes": "32",
        "value": "t_bool"
      },
      "t_mapping(t_address,t_mapping(t_address,t_uint256))": {
        "encoding": "mapping",
        "key": "t_address",
        "label": "mapping(address => mapping(address => uint256))",
        "numberOfBytes": "32",
        "value": "t_mapping(t_address,t_uint256)"
      },
      "t_mapping(t_address,t_uint256)": {
        "encoding": "mapping",
        "key": "t_address",
        "label": "mapping(address => uint256)",
        "numberOfBytes": "32",
        "value": "t_uint256"
      },
      "t_mapping(t_bytes32,t_struct(RoleData)2614_storage)": {
        "encoding": "mapping",
        "key": "t_bytes32",
        "label": "mapping(bytes32 => struct AccessControl.RoleData)",
        "numberOfBytes": "32",
        "value": "t_struct(RoleData)2614_storage"
      },
      "t_string_storage": {
        "encoding": "bytes",
        "label": "string",
        "numberOfBytes": "32"
      },
      "t_struct(RoleData)2614_storage": {
        "encoding": "inplace",
        "label": "struct AccessControl.RoleData",
        "members": [
          {
            "astId": 2611,
            "contract": "contracts/mock/tokens/erc20/MockWETH9Token.sol:MockWETH9Token",
            "label": "hasRole",
            "offset": 0,
            "slot": "0",
            "type": "t_mapping(t_address,t_bool)"
          },
          {
            "astId": 2613,
            "contract": "contracts/mock/tokens/erc20/MockWETH9Token.sol:MockWETH9Token",
            "label": "adminRole",
            "offset": 0,
            "slot": "1",
            "type": "t_bytes32"
          }
        ],
        "numberOfBytes": "64"
      },
      "t_uint256": {
        "encoding": "inplace",
        "label": "uint256",
        "numberOfBytes": "32"
      },
      "t_uint8": {
        "encoding": "inplace",
        "label": "uint8",
        "numberOfBytes": "1"
      }
    }
  }
}