{
  "address": "0x58ebA68A043a38322bd4C5D5b296aFb1B9a6cb83",
  "abi": [
    {
      "inputs": [],
      "stateMutability": "nonpayable",
      "type": "constructor"
    },
    {
      "inputs": [],
      "name": "InvalidInitialization",
      "type": "error"
    },
    {
      "inputs": [],
      "name": "NotInitializing",
      "type": "error"
    },
    {
      "inputs": [],
      "name": "R",
      "type": "error"
    },
    {
      "inputs": [],
      "name": "T",
      "type": "error"
    },
    {
      "anonymous": false,
      "inputs": [
        {
          "indexed": false,
          "internalType": "uint64",
          "name": "version",
          "type": "uint64"
        }
      ],
      "name": "Initialized",
      "type": "event"
    },
    {
      "inputs": [],
      "name": "factory",
      "outputs": [
        {
          "internalType": "address",
          "name": "",
          "type": "address"
        }
      ],
      "stateMutability": "view",
      "type": "function"
    },
    {
      "inputs": [
        {
          "internalType": "address",
          "name": "_factory",
          "type": "address"
        }
      ],
      "name": "initialize",
      "outputs": [],
      "stateMutability": "nonpayable",
      "type": "function"
    },
    {
      "inputs": [
        {
          "internalType": "bytes",
          "name": "_path",
          "type": "bytes"
        },
        {
          "internalType": "uint256",
          "name": "_amountIn",
          "type": "uint256"
        }
      ],
      "name": "quoteExactInput",
      "outputs": [
        {
          "internalType": "uint256",
          "name": "amountOut",
          "type": "uint256"
        },
        {
          "internalType": "uint160[]",
          "name": "sqrtPriceX96AfterList",
          "type": "uint160[]"
        },
        {
          "internalType": "uint32[]",
          "name": "initializedTicksCrossedList",
          "type": "uint32[]"
        }
      ],
      "stateMutability": "view",
      "type": "function"
    },
    {
      "inputs": [
        {
          "components": [
            {
              "internalType": "address",
              "name": "tokenIn",
              "type": "address"
            },
            {
              "internalType": "address",
              "name": "tokenOut",
              "type": "address"
            },
            {
              "internalType": "uint256",
              "name": "amountIn",
              "type": "uint256"
            },
            {
              "internalType": "uint24",
              "name": "fee",
              "type": "uint24"
            },
            {
              "internalType": "uint160",
              "name": "sqrtPriceLimitX96",
              "type": "uint160"
            }
          ],
          "internalType": "struct IUniswapV3ViewQuoter.QuoteExactInputSingleParams",
          "name": "_params",
          "type": "tuple"
        }
      ],
      "name": "quoteExactInputSingle",
      "outputs": [
        {
          "internalType": "uint256",
          "name": "amountReceived",
          "type": "uint256"
        },
        {
          "internalType": "uint160",
          "name": "sqrtPriceX96After",
          "type": "uint160"
        },
        {
          "internalType": "uint32",
          "name": "initializedTicksCrossed",
          "type": "uint32"
        }
      ],
      "stateMutability": "view",
      "type": "function"
    },
    {
      "inputs": [
        {
          "components": [
            {
              "internalType": "address",
              "name": "tokenIn",
              "type": "address"
            },
            {
              "internalType": "address",
              "name": "tokenOut",
              "type": "address"
            },
            {
              "internalType": "uint256",
              "name": "amountIn",
              "type": "uint256"
            },
            {
              "internalType": "address",
              "name": "pool",
              "type": "address"
            },
            {
              "internalType": "uint24",
              "name": "fee",
              "type": "uint24"
            },
            {
              "internalType": "uint160",
              "name": "sqrtPriceLimitX96",
              "type": "uint160"
            }
          ],
          "internalType": "struct IUniswapV3ViewQuoter.QuoteExactInputSingleWithPoolParams",
          "name": "params",
          "type": "tuple"
        }
      ],
      "name": "quoteExactInputSingleWithPool",
      "outputs": [
        {
          "internalType": "uint256",
          "name": "amountReceived",
          "type": "uint256"
        },
        {
          "internalType": "uint160",
          "name": "sqrtPriceX96After",
          "type": "uint160"
        },
        {
          "internalType": "uint32",
          "name": "initializedTicksCrossed",
          "type": "uint32"
        }
      ],
      "stateMutability": "view",
      "type": "function"
    },
    {
      "inputs": [
        {
          "internalType": "bytes",
          "name": "_path",
          "type": "bytes"
        },
        {
          "internalType": "uint256",
          "name": "_amountOut",
          "type": "uint256"
        }
      ],
      "name": "quoteExactOutput",
      "outputs": [
        {
          "internalType": "uint256",
          "name": "amountIn",
          "type": "uint256"
        },
        {
          "internalType": "uint160[]",
          "name": "sqrtPriceX96AfterList",
          "type": "uint160[]"
        },
        {
          "internalType": "uint32[]",
          "name": "initializedTicksCrossedList",
          "type": "uint32[]"
        }
      ],
      "stateMutability": "view",
      "type": "function"
    },
    {
      "inputs": [
        {
          "components": [
            {
              "internalType": "address",
              "name": "tokenIn",
              "type": "address"
            },
            {
              "internalType": "address",
              "name": "tokenOut",
              "type": "address"
            },
            {
              "internalType": "uint256",
              "name": "amount",
              "type": "uint256"
            },
            {
              "internalType": "uint24",
              "name": "fee",
              "type": "uint24"
            },
            {
              "internalType": "uint160",
              "name": "sqrtPriceLimitX96",
              "type": "uint160"
            }
          ],
          "internalType": "struct IUniswapV3ViewQuoter.QuoteExactOutputSingleParams",
          "name": "_params",
          "type": "tuple"
        }
      ],
      "name": "quoteExactOutputSingle",
      "outputs": [
        {
          "internalType": "uint256",
          "name": "amountIn",
          "type": "uint256"
        },
        {
          "internalType": "uint160",
          "name": "sqrtPriceX96After",
          "type": "uint160"
        },
        {
          "internalType": "uint32",
          "name": "initializedTicksCrossed",
          "type": "uint32"
        }
      ],
      "stateMutability": "view",
      "type": "function"
    },
    {
      "inputs": [
        {
          "components": [
            {
              "internalType": "address",
              "name": "tokenIn",
              "type": "address"
            },
            {
              "internalType": "address",
              "name": "tokenOut",
              "type": "address"
            },
            {
              "internalType": "uint256",
              "name": "amount",
              "type": "uint256"
            },
            {
              "internalType": "uint24",
              "name": "fee",
              "type": "uint24"
            },
            {
              "internalType": "address",
              "name": "pool",
              "type": "address"
            },
            {
              "internalType": "uint160",
              "name": "sqrtPriceLimitX96",
              "type": "uint160"
            }
          ],
          "internalType": "struct IUniswapV3ViewQuoter.QuoteExactOutputSingleWithPoolParams",
          "name": "_params",
          "type": "tuple"
        }
      ],
      "name": "quoteExactOutputSingleWithPool",
      "outputs": [
        {
          "internalType": "uint256",
          "name": "amountIn",
          "type": "uint256"
        },
        {
          "internalType": "uint160",
          "name": "sqrtPriceX96After",
          "type": "uint160"
        },
        {
          "internalType": "uint32",
          "name": "initializedTicksCrossed",
          "type": "uint32"
        }
      ],
      "stateMutability": "view",
      "type": "function"
    }
  ],
  "transactionHash": "0x84b784e31e5f22cb52c51120855e83c1f02babff74bf600dcd27f7edb2a156dc",
  "args": [],
  "numDeployments": 1,
  "solcInputHash": "5fcb370cb2b9ee0340656465635a79fa",
  "bytecode": "0x608080604052346100b9577ff0c57e16840df040f15088dc2f81fe391c3923bec73e23a9662efc9c229c6a009081549060ff8260401c166100aa57506001600160401b036002600160401b031982821601610065575b604051612d759081620000bf8239f35b6001600160401b031990911681179091556040519081527fc7f505b2f371ae2175ee4913f4499e1f2633a7b5936321eed1cdaeb6115181d290602090a1388080610055565b63f92ee8a960e01b8152600490fd5b600080fdfe6080604052600436101561001257600080fd5b60003560e01c80632f80bb1d1461009757806386e3a7cf14610092578063bd21704a1461008d578063c45a015514610088578063c4d66de814610083578063c6a5026a1461007e578063cdca1753146100795763d85c3d631461007457600080fd5b6105e9565b6105cf565b6105aa565b610440565b610417565b6103f2565b6102e1565b346100c4576100c06100b16100ab366101af565b90610704565b60409391935193849384610223565b0390f35b600080fd5b634e487b7160e01b600052604160045260246000fd5b60c081019081106001600160401b038211176100fa57604052565b6100c9565b60a081019081106001600160401b038211176100fa57604052565b606081019081106001600160401b038211176100fa57604052565b608081019081106001600160401b038211176100fa57604052565b90601f801991011681019081106001600160401b038211176100fa57604052565b60405190608082018281106001600160401b038211176100fa57604052565b6040519060e082018281106001600160401b038211176100fa57604052565b60406003198201126100c4576001600160401b036004358181116100c457826023820112156100c45780600401359182116100fa57604051926101fc601f8401601f191660200185610150565b828452602483830101116100c4578160009260246020930183860137830101529060243590565b919091606081019281526020926060848301528251809152836080830193019060005b81811061028f57505050604081830391015281808451928381520193019160005b828110610275575050505090565b835163ffffffff1685529381019392810192600101610267565b82516001600160a01b031685529385019391850191600101610246565b6001600160a01b038116036100c457565b6064359062ffffff821682036100c457565b6084359062ffffff821682036100c457565b346100c45760c03660031901126100c4576100c061035f604051610304816100df565b600435610310816102ac565b815260243561031e816102ac565b602082015260443560408201526103336102bd565b6060820152608435610344816102ac565b608082015260a435610355816102ac565b60a08201526107ff565b604080519384526001600160a01b03909216602084015263ffffffff16908201529081906060820190565b60a09060031901126100c457604051906103a3826100ff565b816004356103b0816102ac565b81526024356103be816102ac565b6020820152604435604082015260643562ffffff811681036100c45760608201526080608435916103ee836102ac565b0152565b346100c45760a03660031901126100c4576100c061035f6104123661038a565b61093c565b346100c45760003660031901126100c4576000546040516001600160a01b039091168152602090f35b346100c45760203660031901126100c45760043561045d816102ac565b600080516020612d2083398151915254906001600160401b0360ff8360401c16159216801590816105a2575b6001149081610598575b15908161058f575b5061057d57600080516020612d20833981519152805467ffffffffffffffff191660011790556104ec908261053b5760018060a01b03166bffffffffffffffffffffffff60a01b6000541617600055565b6104f257005b600080516020612d20833981519152805460ff60401b19169055604051600181527fc7f505b2f371ae2175ee4913f4499e1f2633a7b5936321eed1cdaeb6115181d290602090a1005b600080516020612d20833981519152805460ff60401b1916600160401b17905560018060a01b03166bffffffffffffffffffffffff60a01b6000541617600055565b60405163f92ee8a960e01b8152600490fd5b9050153861049b565b303b159150610493565b839150610489565b346100c45760a03660031901126100c4576100c061035f6105ca3661038a565b6109b3565b346100c4576100c06100b16105e3366101af565b90610a2a565b346100c45760c03660031901126100c4576100c061035f60405161060c816100df565b600435610618816102ac565b8152602435610626816102ac565b6020820152604435604082015260643561063f816102ac565b606082015261064c6102cf565b608082015260a43561065d816102ac565b60a0820152610ad7565b6001600160401b0381116100fa5760051b60200190565b9061068882610667565b6106956040519182610150565b82815280926106a6601f1991610667565b0190602036910137565b80518210156106c45760209160051b010190565b634e487b7160e01b600052603260045260246000fd5b634e487b7160e01b600052601160045260246000fd5b60001981146106ff5760010190565b6106da565b91909160009161079961071e61071984610c50565b61067e565b9461072b61071985610c50565b936107ae61077d6000935b62ffffff61074385610c64565b919390604090815195610755876100ff565b6001600160a01b0391821687521660208601528401521660608201526080810189905261093c565b91959061078a868c6106b0565b6001600160a01b039091169052565b6107a384886106b0565b9063ffffffff169052565b6107b883926106f0565b926042825110156000146107e65750916107ae61077d6107b8936107de61079996610d0a565b939450610736565b969550505050565b600160ff1b81146106ff5760000390565b80516108e091906001600160a01b031660208201516108da906108d590604090610839906001600160a01b03165b6001600160a01b031690565b60808601516001600160a01b039586169190911095906108ce9061085e90871661082d565b9561086f606084015162ffffff1690565b60a08401519091906001600160a01b031690811661093257508715610915576108be6401000276a45b915b6108ac6108a5610171565b9a15158b52565b600160208b015262ffffff1689860152565b6001600160a01b03166060880152565b0151610db2565b6107ee565b90610f62565b60008413949193909290851561090f57805b95156109055750610902906107ee565b50565b61090291506107ee565b816108f2565b6108be73fffd8963efd1fc6a506488495d951d5263988d25610898565b6108be909161089a565b6109ae9060018060a01b03808251166020830192828451169161096c606083019162ffffff94858451169161152e565b9260408580855116975116930151915116916040519561098b876100df565b8652602086015260408501526060840152166080820152600060a08201526107ff565b909192565b80516020820180516060840180516109ae9593946001600160a01b039362ffffff93926109e89290851691861690861661152e565b91604084808751169751169501519151169360405195610a07876100df565b8652602086015260408501521660608301526080820152600060a0820152610ad7565b919091600091610799610a3f61071984610c50565b94610a4c61071985610c50565b93610a9f61077d6000935b62ffffff610a6485610c64565b91604094919490815195610a77876100ff565b6001600160a01b039182168752166020860152840152166060820152608081018990526109b3565b610aa983926106f0565b926042825110156000146107e6575091610a9f61077d610aa993610acf61079996610d0a565b939450610a57565b8051610b9a91906001600160a01b031660208201516108da90604090610b05906001600160a01b031661082d565b60608501516001600160a01b039485169190911094906108ce90610b2a90861661082d565b94610b3b608084015162ffffff1690565b60a08401519091906001600160a01b0316908116610bdc57508615610bbf57610b8a6401000276a45b915b610b78610b71610171565b9915158a52565b600060208a015262ffffff1685890152565b6001600160a01b03166060870152565b91909260008113600014610bb55750610bb2906107ee565b92565b610bb291506107ee565b610b8a73fffd8963efd1fc6a506488495d951d5263988d25610b64565b610b8a9091610b66565b6000198101919082116106ff57565b90601f82018092116106ff57565b60170190816017116106ff57565b919082018092116106ff57565b634e487b7160e01b600052601260045260246000fd5b8015610c41576000190490565b610c1e565b8115610c41570490565b5160131981019081116106ff576017900490565b906014825110610ccd57602082015160601c916017815110610c9157610c8e601782015191611641565b91565b60405162461bcd60e51b8152602060048201526014602482015273746f55696e7432345f6f75744f66426f756e647360601b6044820152606490fd5b60405162461bcd60e51b8152602060048201526015602482015274746f416464726573735f6f75744f66426f756e647360581b6044820152606490fd5b805160161991828201908282116106ff57610d2f82610d2881610bf5565b1015611654565b610d448151610d3d84610c03565b1115611691565b60178303610d615750505050604051600081526020810160405290565b601760405194601f8416801560051b9182828901019687010193010101905b808410610d985750508252601f01601f191660405290565b9092835181526020809101930190610d80565b156100c457565b600160ff1b8110156100c45790565b51906001600160801b03821682036100c457565b908160209103126100c457610de990610dc1565b90565b6040513d6000823e3d90fd5b6040519060e082018281106001600160401b038211176100fa576040528160c06000918281528260208201528260408201528260608201528260808201528260a08201520152565b919091600083820193841291129080158216911516176106ff57565b818103929160001380158285131691841216176106ff57565b519081151582036100c457565b9190826101009103126100c457610e9882610dc1565b91602081015180600f0b81036100c4579160408201519160608101519160808201518060060b81036100c4579160a0810151610ed3816102ac565b9160c082015163ffffffff811681036100c45760e0610de9919301610e75565b600f0b6f7fffffffffffffffffffffffffffffff1981146106ff5760000390565b63ffffffff8091169081146106ff5760010190565b60020b6000190190627fffff198212627fffff8313176106ff57565b600291820b910b0390627fffff198212627fffff8313176106ff57565b929091928215801561151c575b61150e57600083136020850152600190610f8881611788565b80519093906001600160a01b031694610fa5602086015160020b90565b604051630d34328160e11b8152906020826004816001600160a01b0389165afa9081156113555761102c926000926114d9575b5061100e90611004610fe8610190565b868152600060208201526001600160a01b03909b1660408c0152565b60020b60608a0152565b60006080890181905260a08901526001600160801b031660c0880152565b85511515806114a1575b1561142e57611043610df8565b60408701516001600160a01b0316815261109161108761107d61106a60408a015160020b90565b60608b015160020b8c51151591896119d2565b1515604085015290565b60020b6020830152565b602081015160020b620d89e7198112156114165750620d89e71960208201525b6110da6110ca6110c5602084015160020b90565b611c25565b6001600160a01b03166060830152565b604087015161119b90611172906001600160a01b03168a51156113e6576060848101518c916111219161082d91906001600160a01b03165b9301516001600160a01b031690565b6001600160a01b03909116105b156113cf5760608b01518b908b906001600160a01b03165b61116c604061115f60c08501516001600160801b031690565b935194015162ffffff1690565b93611f95565b60c0860190815260a08601918252608086019283526001600160a01b0390931660408c01529192565b60208b01511561138f576111c16111bc6111df946111c89351905190610c11565b610db2565b8a51610e5c565b89526111d960208a01519151610db2565b906121a2565b60208801525b60408701516001600160a01b0316606082015161120a906001600160a01b031661082d565b6001600160a01b03821690810361135a5750506040810151611265575b611254906112358951151590565b15611259576020015161124a9060020b610f29565b60020b6060880152565b61102c565b6020015160020b61124a565b936112a1611277602087015160020b90565b60405163f30dba9360e01b815260029190910b600482015291610100918290849081906024820190565b03816001600160a01b038a165afa8015611355576112f38b611303926112549661130896600092611320575b50506112da819251151590565b611310575b5060c08c01516001600160801b03166124b6565b6001600160801b031660c08b0152565b610f14565b949050611227565b61131a9150610ef3565b386112df565b61133f9250803d1061134e575b6113378183610150565b810190610e82565b505050505050905038806112cd565b503d61132d565b610dec565b9151909190611371906001600160a01b031661082d565b0361137d575b5061102c565b61124a611389916121bf565b38611377565b906111bc6113c5936113ae6113a76113bf9451610db2565b8d51610e40565b8c5260208c01519351905190610c11565b90612185565b60208801526111e5565b60608401518b908b906001600160a01b0316611146565b6060848101518c916114059161082d91906001600160a01b0316611112565b6001600160a01b039091161161112e565b620d89e812156110b157620d89e860208201526110b1565b9294959150925061145461144f60206114478451151590565b930151151590565b151590565b9015150361148557835161146791610e5c565b91610c8e604060208601515b9501519394936001600160a01b031690565b91610c8e604061149c602087015195875190610e5c565b611473565b5060408601516001600160a01b031660608801516114c7906001600160a01b031661082d565b6001600160a01b039091161415611036565b61100e9192506115009060203d602011611507575b6114f88183610150565b810190610dd5565b9190610fd8565b503d6114ee565b506000925082915081908190565b506001600160a01b0381163b15610f6f565b61161561162361082d93610de99560018060a01b039485600054169583826115546116d1565b5082821683821611611632575b50509062ffffff826040938451936115788561011a565b16958684521693846020840152169182910152604051916020830193845260408301526060820152606081526115ad81610135565b5190206040516001600160f81b03196020820190815260609590951b6bffffffffffffffffffffffff1916602182015260358101919091527fe34f199b19b2b4f47f68442619d555527d244f78a3297ea89325f843f87b8b5460558201529182906075820190565b03601f198101835282610150565b5190206001600160a01b031690565b9450915062ffffff6040611561565b602b815110610ccd576037015160601c90565b1561165b57565b60405162461bcd60e51b815260206004820152600e60248201526d736c6963655f6f766572666c6f7760901b6044820152606490fd5b1561169857565b60405162461bcd60e51b8152602060048201526011602482015270736c6963655f6f75744f66426f756e647360781b6044820152606490fd5b604051906116de8261011a565b60006040838281528260208201520152565b51908160020b82036100c457565b519061ffff821682036100c457565b908160e09103126100c4578051611723816102ac565b91611730602083016116f0565b9161173d604082016116fe565b9161174a606083016116fe565b91611757608082016116fe565b9160a082015160ff811681036100c45760c0610de9919301610e75565b908160209103126100c457610de9906116f0565b6117906116d1565b604051633850c7bd60e01b815290916001600160a01b03169060e081600481855afa918215611355576117e3602092600494600091600091611843575b5060020b868501525b6001600160a01b03168552565b6040516334324e9f60e21b815292839182905afa801561135557610de991600091611814575b5060020b6040830152565b611836915060203d60201161183c575b61182e8183610150565b810190611774565b38611809565b503d611824565b6117d6925061186a915060e03d60e011611878575b6118628183610150565b81019061170d565b5050505050919091906117cd565b503d611858565b60020b9060020b908115610c4157627fffff1981146000198314166106ff570590565b9060020b908115610c415760020b0790565b60020b627fffff1981146106ff576000190190565b60020b60010190627fffff8213627fffff198312176106ff57565b9060020b9060020b0190627fffff198212627fffff8313176106ff57565b908160209103126100c4575190565b60ff1660ff039060ff82116106ff57565b60ff603f199116019060ff82116106ff57565b60ff601f199116019060ff82116106ff57565b60ff600f199116019060ff82116106ff57565b60ff6007199116019060ff82116106ff57565b60ff6003199116019060ff82116106ff57565b60ff6001199116019060ff82116106ff57565b60ff6000199116019060ff82116106ff57565b9060ff8091169116039060ff82116106ff57565b9060020b9060020b02908160020b9182036106ff57565b926119dd828461187f565b928260008260020b129182611c07575b5050611bf7575b15611b0257611a138260020b906101008260081d60010b920760ff1690565b9093611a5a602060ff841696611a346001891b611a2f81610be6565b610c11565b93604051808095819463299ce14b60e11b835260048301919091602081019260010b9052565b03916001600160a01b03165afa90811561135557600091611ad3575b5016801580159590611abf575092611ab4611aa9611aa3611aba94611a9d610c8e986126be565b906119a7565b60ff1690565b62ffffff1660020b90565b90610f45565b6119bb565b611aba9250610c8e94915060020b90610f45565b611af5915060203d602011611afb575b611aed8183610150565b810190611902565b38611a76565b503d611ae3565b602092611b62611b2a611b14856118c9565b60020b906101008260081d60010b920760ff1690565b9590611b3b600160ff89161b610be6565b1993604051808095819463299ce14b60e11b835260048301919091602081019260010b9052565b03916001600160a01b03165afa90811561135557600091611bd8575b5016801580159490611bb85790611bb2611aa9611aa3611aba94611bad611ba7610c8e996118c9565b9561254c565b6119a7565b906118e4565b611aba9150611bb2611aa9611aa3611bd2610c8e976118c9565b93611911565b611bf1915060203d602011611afb57611aed8183610150565b38611b7e565b91611c01906118b4565b916119f4565b611c1c925090611c16916118a2565b60020b90565b151582386119ed565b60020b6000811215611f8f5780600003905b620d89e88211611f7d576001821615611f6b576001600160881b036ffffcb933bd6fad37aa2d162d1a5940015b169160028116611f4f575b60048116611f33575b60088116611f17575b60108116611efb575b60208116611edf575b60408116611ec3575b608090818116611ea8575b6101008116611e8d575b6102008116611e72575b6104008116611e57575b6108008116611e3c575b6110008116611e21575b6120008116611e06575b6140008116611deb575b6180008116611dd0575b620100008116611db5575b620200008116611d9b575b620400008116611d81575b6208000016611d66575b50600012611d58575b63ffffffff8116611d50576000905b60201c60ff91909116016001600160a01b031690565b600190611d3a565b611d6190610c34565b611d2b565b6b048a170391f7dc42444e8fa26000929302901c9190611d22565b6d2216e584f5fa1ea926041bedfe98909302811c92611d18565b926e5d6af8dedb81196699c329225ee60402811c92611d0d565b926f09aa508b5b7a84e1c677de54f3e99bc902811c92611d02565b926f31be135f97d08fd981231505542fcfa602811c92611cf7565b926f70d869a156d2a1b890bb3df62baf32f702811c92611ced565b926fa9f746462d870fdf8a65dc1f90e061e502811c92611ce3565b926fd097f3bdfd2022b8845ad8f792aa582502811c92611cd9565b926fe7159475a2c29b7443b29c7fa6e889d902811c92611ccf565b926ff3392b0822b70005940c7a398e4b70f302811c92611cc5565b926ff987a7253ac413176f2b074cf7815e5402811c92611cbb565b926ffcbe86c7900a88aedcffc83b479aa3a402811c92611cb1565b926ffe5dee046a99a2a811c461f1969c305302811c92611ca7565b916fff2ea16466c96a3843ec78b326b528610260801c91611c9c565b916fff973b41fa98c081472e6896dfb254c00260801c91611c93565b916fffcb9843d60f6159c9db58835c9266440260801c91611c8a565b916fffe5caca7e10e4e61c3624eaa0941cd00260801c91611c81565b916ffff2e50f5f656932ef12357cf3c7fdcc0260801c91611c78565b916ffff97272373d413259a46990580e213a0260801c91611c6f565b6001600160881b03600160801b611c64565b6040516315e4079d60e11b8152600490fd5b80611c37565b94859460008086129592946001600160a01b03808616818a1681111596891594919382918c9089848c8f61213457905084929150611fdd62ffffff8c620f424003168d612972565b81156121225783611fef8187866127fe565b955b86831061211057505050509e8f965b8716968789149c6000146120b8578c806120b1575b156120a2575050505b9b8c998061209b575b1561208b5750505b985b80612080575b612075575b508261206a575b50501561204f57500390565b9050610de9915062ffffff8082620f42400316911685612bd8565b141590503880612043565b85900397503861203c565b508581038911612037565b61209692508d612853565b61202f565b508b612027565b6120ac93506127fe565b61201e565b5089612015565b809392918d80612109575b156120fa575050505b9c8d9a806120f3575b156120e4575050505b98612031565b6120ee93506127b1565b6120de565b508c6120d5565b6121049350612885565b6120cc565b508a6120c3565b61211a9450612b71565b9e8f96612000565b8361212e818588612885565b95611ff1565b9093859392965081600014612173578361214f818386612853565b915b919789039188831061216957505050509e8f96612000565b61211a94506128d7565b8361217f8185846127b1565b91612151565b91909160006121948483610e40565b93121590831215036100c457565b91909160006121b18483610e5c565b93121590831315036100c457565b6001600160a01b038116906401000276a38210158061244f575b1561243d57640100000000600160c01b039060201b16806001600160801b03811160071b9181831c926001600160401b03841160061b93841c9363ffffffff851160051b94851c9461ffff861160041b95861c60ff9687821160031b91821c92600f841160021b93841c94600160038711811b96871c1196171717171717179160808310156000146124315750607e1982011c5b8002607f928392828493841c81841c1c800280851c81851c1c800280861c81861c1c800280871c81871c1c80029081881c82881c1c80029283891c84891c1c800294858a1c868a1c1c800296878b1c888b1c1c800298898c1c8a8c1c1c80029a8b8d1c8c821c1c8002809d1c8d821c1c8002809e81901c90821c1c80029e8f80911c911c1c800260cd1c6604000000000000169d60cc1c6608000000000000169c60cb1c6610000000000000169b60ca1c6620000000000000169a60c91c6640000000000000169960c81c6680000000000000169860c71c670100000000000000169760c61c670200000000000000169660c51c670400000000000000169560c41c670800000000000000169460c31c671000000000000000169360c21c672000000000000000169260c11c674000000000000000169160c01c6780000000000000001690607f190160401b1717171717171717171717171717693627a301d71055774c85026f028f6481ab7f045a5af012a19d003aa919810160801d60020b906fdb2df09e81959a81455e260799a0632f0160801d60020b918282146000146124175750905090565b61242361082d84611c25565b1161242c575090565b905090565b905081607f031b61226d565b6040516324c070df60e11b8152600490fd5b5073fffd8963efd1fc6a506488495d951d5263988d2682106121d9565b6001600160801b0391821690821603919082116106ff57565b1561248c57565b60405162461bcd60e51b81526020600482015260026024820152614c5360f01b6044820152606490fd5b9190600081600f0b12600014612501576124ea6124e46124d86124ff93610ef3565b6001600160801b031690565b8461246c565b926001600160801b0380911690841610612485565b565b6001600160801b038080941691168101928084116106ff5783161061252257565b60405162461bcd60e51b81526020600482015260026024820152614c4160f01b6044820152606490fd5b90612558821515610dab565b60ff6001600160801b038316156126365750607f5b6001600160401b0383161561262c5761258590611922565b63ffffffff8316156126225761259a90611935565b61ffff831615612618576125ad90611948565b60ff83161561260e576125bf9061195b565b600f831615612604576125d19061196e565b60038316156125f8576125e5600191611981565b925b166125ee57565b90610de990611994565b9160019060021c6125e7565b9160041c916125d1565b9160081c916125bf565b9160101c916125ad565b9160201c9161259a565b9160401c91612585565b9160801c9161256d565b60ff60409116019060ff82116106ff57565b60ff60209116019060ff82116106ff57565b60ff60109116019060ff82116106ff57565b60ff60089116019060ff82116106ff57565b60ff60049116019060ff82116106ff57565b60ff60029116019060ff82116106ff57565b60ff60019116019060ff82116106ff57565b906000916126cd811515610dab565b600160801b8110156127a6575b80600160401b6002921015612793575b640100000000811015612780575b6201000081101561276d575b61010081101561275a575b6010811015612747575b6004811015612735575b101561272b57565b90610de9906126ac565b61274190821c9361269a565b92612723565b6127549060041c93612688565b92612719565b6127679060081c93612676565b9261270f565b61277a9060101c93612664565b92612704565b61278d9060201c93612652565b926126f8565b6127a09060401c93612640565b926126ea565b60809250821c6126da565b6001600160a01b0392909190838216848416116127f6575b8383169384156100c4576127f2938382169303169060601b600160601b600160e01b0316612ae9565b0490565b9190916127c9565b6001600160a01b03929091908382168484161161284b575b8383169384156100c45761283f938382169303169060601b600160601b600160e01b0316612bd8565b90808206151591040190565b919091612816565b610de992916001600160801b03916001600160a01b03918281168383161161287f575b031691166129d8565b90612876565b6001600160801b03916001600160a01b039190828116838316116128d1575b031691166128b28282612aa1565b91600160601b91096128c15790565b6000198110156100c45760010190565b906128a4565b6001600160a01b0393848216939092909184156100c4576001600160801b0382169384156100c4571561296357506000905084821161292c575060601b908082061515910401905b818111156100c457031690565b90916129388184612a16565b92600160601b900961294c575b509061291f565b600019821015612960575060010138612945565b80fd5b9193509150610de99350612c05565b9061297d8183612ce6565b9181156129cc57620f424090828211156129c7577fde8f6cefed634549b62c77574f722e1ac57e23f24d8fd5cb790fb65668c26139940990828211900360fa1b910360061c170290565b612ad6565b5050620f424091500490565b906129e38183612ce6565b9290918215612a0d57600160601b91838311156129c7570990828211900360a01b910360601c1790565b50505060601c90565b90612a2082612ccd565b9190928315612a955783821115612a88578190600160601b900981600003821680920460028082600302188083028203028083028203028083028203028083028203028083028203028092029003029360018380600003040190848311900302920304170290565b5015600302601118612cfa565b5090610de99250610c46565b90612aac8183612ce6565b9290918215612a0d57600160601b9183831115612ad6570990828211900360a01b910360601c1790565b634e487b7160005260116020526024601cfd5b91612af48284612ce6565b9290938415612b645784831115612b57579082910981600003821680920460028082600302188083028203028083028203028083028203028083028203028083028203028092029003029360018380600003040190848311900302920304170290565b8215600302601118612cfa565b505090610de99250610c46565b6001600160a01b03818116949085156100c4576001600160801b0384169182156100c45715612ba6575050610de99350612c62565b9093925082119050612bc95760601b045b81018091116106ff57610de990612d0b565b90612bd391612a16565b612bb7565b929190612be6828286612ae9565b938215610c415709612bf457565b906000198110156100c45760010190565b91908115612c5d576001600160a01b03909216918183029160609190911b600160601b600160e01b0316908204831480612c54575b156100c457610de992612c4f92820391612bd8565b612d0b565b50818111612c3a565b505090565b91908115612c5d576001600160a01b039260609190911b600160601b600160e01b0316919083168082028281048214612cb5575b508015610c415782049081018091116106ff5780820615159104011690565b8301838110612c96579150612cc992612bd8565b1690565b600019600160601b82099060601b908180821091030391565b906000198183099102908180821091030391565b634e487b716000526020526024601cfd5b6001600160a01b038116919082036100c45756fef0c57e16840df040f15088dc2f81fe391c3923bec73e23a9662efc9c229c6a00a2646970667358221220782d14f2b5b497162f98caf1511ad5749e2b382f590aa3edbba720550c2e999e64736f6c63430008180033",
  "devdoc": {
    "author": "Gildi Company",
    "errors": {
      "InvalidInitialization()": [
        {
          "details": "The contract is already initialized."
        }
      ],
      "NotInitializing()": [
        {
          "details": "The contract is not initializing."
        }
      ]
    },
    "events": {
      "Initialized(uint64)": {
        "details": "Triggered when the contract has been initialized or reinitialized."
      }
    },
    "kind": "dev",
    "methods": {
      "constructor": {
        "custom:oz-upgrades-unsafe-allow": "constructor"
      },
      "initialize(address)": {
        "params": {
          "_factory": "The Uniswap V3 factory address."
        }
      },
      "quoteExactInput(bytes,uint256)": {
        "params": {
          "_amountIn": "The amount of the first token to swap",
          "_path": "The path of the swap, i.e. each token pair and the pool fee"
        },
        "returns": {
          "amountOut": "The amount of the last token that would be received",
          "initializedTicksCrossedList": "List of number of initialized ticks loaded",
          "sqrtPriceX96AfterList": "List of the sqrt price after the swap for each pool in the path"
        }
      },
      "quoteExactInputSingle((address,address,uint256,uint24,uint160))": {
        "params": {
          "_params": "The params for the quote, which contains: tokenIn The token being swapped in tokenOut The token being swapped out amountIn The desired input amount fee The fee of the token pool to consider for the pair sqrtPriceLimitX96 The price limit of the pool that cannot be exceeded by the swap"
        },
        "returns": {
          "amountReceived": "The amount of tokenOut that would be received",
          "initializedTicksCrossed": "The number of initialized ticks loaded",
          "sqrtPriceX96After": "The sqrt price of the pool after the swap"
        }
      },
      "quoteExactInputSingleWithPool((address,address,uint256,address,uint24,uint160))": {
        "params": {
          "_params": "The params for the quote, which contains: tokenIn The token being swapped in tokenOut The token being swapped out amountIn The desired input amount fee The fee of the pool to consider for the pair pool The address of the pool to consider for the pair sqrtPriceLimitX96 The price limit of the pool that cannot be exceeded by the swap"
        },
        "returns": {
          "amountReceived": "The amount of tokenOut that would be received",
          "initializedTicksCrossed": "The number of initialized ticks loaded",
          "sqrtPriceX96After": "The sqrt price of the pool after the swap"
        }
      },
      "quoteExactOutput(bytes,uint256)": {
        "params": {
          "_amountOut": "The amount of the last token to receive",
          "_path": "The path of the swap, i.e. each token pair and the pool fee. Path must be provided in reverse order"
        },
        "returns": {
          "amountIn": "The amount of first token required to be paid",
          "initializedTicksCrossedList": "List of the initialized ticks that the swap crossed for each pool in the path",
          "sqrtPriceX96AfterList": "List of the sqrt price after the swap for each pool in the path"
        }
      },
      "quoteExactOutputSingle((address,address,uint256,uint24,uint160))": {
        "params": {
          "_params": "The params for the quote, which contains: tokenIn The token being swapped in tokenOut The token being swapped out amount The desired output amount fee The fee of the token pool to consider for the pair sqrtPriceLimitX96 The price limit of the pool that cannot be exceeded by the swap"
        },
        "returns": {
          "amountIn": "The amount required as the input for the swap in order to receive amountOut",
          "initializedTicksCrossed": "The number of initialized ticks loaded",
          "sqrtPriceX96After": "The sqrt price of the pool after the swap"
        }
      },
      "quoteExactOutputSingleWithPool((address,address,uint256,uint24,address,uint160))": {
        "params": {
          "_params": "The params for the quote, which contains: tokenIn The token being swapped in tokenOut The token being swapped out amount The desired output amount fee The fee of the token pool to consider for the pair pool The address of the pool to consider for the pair sqrtPriceLimitX96 The price limit of the pool that cannot be exceeded by the swap"
        },
        "returns": {
          "amountIn": "The amount required as the input for the swap in order to receive amountOut",
          "initializedTicksCrossed": "The number of initialized ticks loaded",
          "sqrtPriceX96After": "The sqrt price of the pool after the swap"
        }
      }
    },
    "title": "UniswapV3ViewQuoter Contract",
    "version": 1
  },
  "userdoc": {
    "kind": "user",
    "methods": {
      "initialize(address)": {
        "notice": "Initialize the contract."
      },
      "quoteExactInput(bytes,uint256)": {
        "notice": "Returns the amount out received for a given exact input swap without executing the swap"
      },
      "quoteExactInputSingle((address,address,uint256,uint24,uint160))": {
        "notice": "Returns the amount out received for a given exact input but for a swap of a single pool"
      },
      "quoteExactInputSingleWithPool((address,address,uint256,address,uint24,uint160))": {
        "notice": "Returns the amount out received for a given exact input but for a swap of a single pool"
      },
      "quoteExactOutput(bytes,uint256)": {
        "notice": "Returns the amount in required for a given exact output swap without executing the swap"
      },
      "quoteExactOutputSingle((address,address,uint256,uint24,uint160))": {
        "notice": "Returns the amount in required to receive the given exact output amount but for a swap of a single pool"
      },
      "quoteExactOutputSingleWithPool((address,address,uint256,uint24,address,uint160))": {
        "notice": "Returns the amount in required to receive the given exact output amount but for a swap of a single pool"
      }
    },
    "notice": "A contract that provides quotes for swaps in Uniswap V3 pools",
    "version": 1
  },
  "storageLayout": {
    "storage": [
      {
        "astId": 18805,
        "contract": "contracts/external/uniswap/v3/quoter/UniswapV3ViewQuoter.sol:UniswapV3ViewQuoter",
        "label": "factory",
        "offset": 0,
        "slot": "0",
        "type": "t_address"
      }
    ],
    "types": {
      "t_address": {
        "encoding": "inplace",
        "label": "address",
        "numberOfBytes": "20"
      }
    }
  }
}