{
  "address": "0xFc9A11327Cba1005073aFe86db82C85FE38E58Be",
  "abi": [
    {
      "inputs": [],
      "stateMutability": "nonpayable",
      "type": "constructor"
    },
    {
      "inputs": [],
      "name": "AccessControlBadConfirmation",
      "type": "error"
    },
    {
      "inputs": [
        {
          "internalType": "address",
          "name": "account",
          "type": "address"
        },
        {
          "internalType": "bytes32",
          "name": "neededRole",
          "type": "bytes32"
        }
      ],
      "name": "AccessControlUnauthorizedAccount",
      "type": "error"
    },
    {
      "inputs": [],
      "name": "ExceededMaxAmount",
      "type": "error"
    },
    {
      "inputs": [],
      "name": "IndexOutOfBounds",
      "type": "error"
    },
    {
      "inputs": [],
      "name": "InsufficientOutputAmount",
      "type": "error"
    },
    {
      "inputs": [],
      "name": "InvalidInitialization",
      "type": "error"
    },
    {
      "inputs": [],
      "name": "InvalidRouteLength",
      "type": "error"
    },
    {
      "inputs": [],
      "name": "NoValidRoute",
      "type": "error"
    },
    {
      "inputs": [],
      "name": "NotInitializing",
      "type": "error"
    },
    {
      "inputs": [],
      "name": "RouteMustEndWithTokenOut",
      "type": "error"
    },
    {
      "inputs": [],
      "name": "RouteMustStartWithTokenIn",
      "type": "error"
    },
    {
      "inputs": [
        {
          "internalType": "address",
          "name": "token",
          "type": "address"
        }
      ],
      "name": "SafeERC20FailedOperation",
      "type": "error"
    },
    {
      "anonymous": false,
      "inputs": [
        {
          "indexed": false,
          "internalType": "uint64",
          "name": "version",
          "type": "uint64"
        }
      ],
      "name": "Initialized",
      "type": "event"
    },
    {
      "anonymous": false,
      "inputs": [
        {
          "indexed": true,
          "internalType": "bytes32",
          "name": "role",
          "type": "bytes32"
        },
        {
          "indexed": true,
          "internalType": "bytes32",
          "name": "previousAdminRole",
          "type": "bytes32"
        },
        {
          "indexed": true,
          "internalType": "bytes32",
          "name": "newAdminRole",
          "type": "bytes32"
        }
      ],
      "name": "RoleAdminChanged",
      "type": "event"
    },
    {
      "anonymous": false,
      "inputs": [
        {
          "indexed": true,
          "internalType": "bytes32",
          "name": "role",
          "type": "bytes32"
        },
        {
          "indexed": true,
          "internalType": "address",
          "name": "account",
          "type": "address"
        },
        {
          "indexed": true,
          "internalType": "address",
          "name": "sender",
          "type": "address"
        }
      ],
      "name": "RoleGranted",
      "type": "event"
    },
    {
      "anonymous": false,
      "inputs": [
        {
          "indexed": true,
          "internalType": "bytes32",
          "name": "role",
          "type": "bytes32"
        },
        {
          "indexed": true,
          "internalType": "address",
          "name": "account",
          "type": "address"
        },
        {
          "indexed": true,
          "internalType": "address",
          "name": "sender",
          "type": "address"
        }
      ],
      "name": "RoleRevoked",
      "type": "event"
    },
    {
      "inputs": [],
      "name": "ADMIN_ROLE",
      "outputs": [
        {
          "internalType": "bytes32",
          "name": "",
          "type": "bytes32"
        }
      ],
      "stateMutability": "view",
      "type": "function"
    },
    {
      "inputs": [],
      "name": "DEFAULT_ADMIN_ROLE",
      "outputs": [
        {
          "internalType": "bytes32",
          "name": "",
          "type": "bytes32"
        }
      ],
      "stateMutability": "view",
      "type": "function"
    },
    {
      "inputs": [
        {
          "internalType": "address",
          "name": "_tokenIn",
          "type": "address"
        },
        {
          "internalType": "address",
          "name": "_tokenOut",
          "type": "address"
        },
        {
          "internalType": "address[]",
          "name": "_route",
          "type": "address[]"
        },
        {
          "internalType": "uint24[]",
          "name": "_fees",
          "type": "uint24[]"
        }
      ],
      "name": "addRoute",
      "outputs": [],
      "stateMutability": "nonpayable",
      "type": "function"
    },
    {
      "inputs": [
        {
          "internalType": "address",
          "name": "_tokenIn",
          "type": "address"
        },
        {
          "internalType": "address",
          "name": "_tokenOut",
          "type": "address"
        }
      ],
      "name": "clearRoutes",
      "outputs": [],
      "stateMutability": "nonpayable",
      "type": "function"
    },
    {
      "inputs": [
        {
          "internalType": "bytes32",
          "name": "role",
          "type": "bytes32"
        }
      ],
      "name": "getRoleAdmin",
      "outputs": [
        {
          "internalType": "bytes32",
          "name": "",
          "type": "bytes32"
        }
      ],
      "stateMutability": "view",
      "type": "function"
    },
    {
      "inputs": [
        {
          "internalType": "bytes32",
          "name": "role",
          "type": "bytes32"
        },
        {
          "internalType": "address",
          "name": "account",
          "type": "address"
        }
      ],
      "name": "grantRole",
      "outputs": [],
      "stateMutability": "nonpayable",
      "type": "function"
    },
    {
      "inputs": [
        {
          "internalType": "bytes32",
          "name": "role",
          "type": "bytes32"
        },
        {
          "internalType": "address",
          "name": "account",
          "type": "address"
        }
      ],
      "name": "hasRole",
      "outputs": [
        {
          "internalType": "bool",
          "name": "",
          "type": "bool"
        }
      ],
      "stateMutability": "view",
      "type": "function"
    },
    {
      "inputs": [
        {
          "internalType": "address",
          "name": "_quoter",
          "type": "address"
        },
        {
          "internalType": "address",
          "name": "_router",
          "type": "address"
        },
        {
          "internalType": "address",
          "name": "_initialDefaultAdmin",
          "type": "address"
        },
        {
          "internalType": "address",
          "name": "_initialContractAdmin",
          "type": "address"
        }
      ],
      "name": "initialize",
      "outputs": [],
      "stateMutability": "nonpayable",
      "type": "function"
    },
    {
      "inputs": [
        {
          "internalType": "address",
          "name": "_tokenIn",
          "type": "address"
        },
        {
          "internalType": "address",
          "name": "_tokenOut",
          "type": "address"
        }
      ],
      "name": "listRoutes",
      "outputs": [
        {
          "components": [
            {
              "internalType": "address[]",
              "name": "path",
              "type": "address[]"
            },
            {
              "internalType": "uint24[]",
              "name": "fees",
              "type": "uint24[]"
            }
          ],
          "internalType": "struct UniswapV3SwapAdapter.UniswapRoute[]",
          "name": "",
          "type": "tuple[]"
        }
      ],
      "stateMutability": "view",
      "type": "function"
    },
    {
      "inputs": [
        {
          "internalType": "address",
          "name": "_sourceToken",
          "type": "address"
        },
        {
          "internalType": "address",
          "name": "_marketplaceToken",
          "type": "address"
        },
        {
          "internalType": "uint256",
          "name": "_marketplaceAmountDesired",
          "type": "uint256"
        }
      ],
      "name": "quoteSwapIn",
      "outputs": [
        {
          "components": [
            {
              "internalType": "uint256",
              "name": "sourceTokenRequired",
              "type": "uint256"
            },
            {
              "internalType": "bytes",
              "name": "rawQuoteData",
              "type": "bytes"
            },
            {
              "components": [
                {
                  "internalType": "address",
                  "name": "marketplaceAdapter",
                  "type": "address"
                },
                {
                  "internalType": "address[]",
                  "name": "route",
                  "type": "address[]"
                },
                {
                  "internalType": "uint128[]",
                  "name": "fees",
                  "type": "uint128[]"
                },
                {
                  "internalType": "uint128[]",
                  "name": "amounts",
                  "type": "uint128[]"
                },
                {
                  "internalType": "uint128[]",
                  "name": "virtualAmountsWithoutSlippage",
                  "type": "uint128[]"
                }
              ],
              "internalType": "struct IGildiExchangeSwapAdapter.QuoteRoute",
              "name": "quoteRoute",
              "type": "tuple"
            },
            {
              "internalType": "bool",
              "name": "validRoute",
              "type": "bool"
            }
          ],
          "internalType": "struct IGildiExchangeSwapAdapter.SwapInQuote",
          "name": "quote",
          "type": "tuple"
        }
      ],
      "stateMutability": "view",
      "type": "function"
    },
    {
      "inputs": [
        {
          "internalType": "address",
          "name": "_sourceToken",
          "type": "address"
        },
        {
          "internalType": "address",
          "name": "_targetToken",
          "type": "address"
        },
        {
          "internalType": "uint256",
          "name": "_sourceAmount",
          "type": "uint256"
        }
      ],
      "name": "quoteSwapOut",
      "outputs": [
        {
          "components": [
            {
              "internalType": "uint256",
              "name": "targetTokenOut",
              "type": "uint256"
            },
            {
              "internalType": "bytes",
              "name": "rawQuoteData",
              "type": "bytes"
            },
            {
              "components": [
                {
                  "internalType": "address",
                  "name": "marketplaceAdapter",
                  "type": "address"
                },
                {
                  "internalType": "address[]",
                  "name": "route",
                  "type": "address[]"
                },
                {
                  "internalType": "uint128[]",
                  "name": "fees",
                  "type": "uint128[]"
                },
                {
                  "internalType": "uint128[]",
                  "name": "amounts",
                  "type": "uint128[]"
                },
                {
                  "internalType": "uint128[]",
                  "name": "virtualAmountsWithoutSlippage",
                  "type": "uint128[]"
                }
              ],
              "internalType": "struct IGildiExchangeSwapAdapter.QuoteRoute",
              "name": "quoteRoute",
              "type": "tuple"
            },
            {
              "internalType": "bool",
              "name": "validRoute",
              "type": "bool"
            }
          ],
          "internalType": "struct IGildiExchangeSwapAdapter.SwapOutQuote",
          "name": "quote",
          "type": "tuple"
        }
      ],
      "stateMutability": "view",
      "type": "function"
    },
    {
      "inputs": [],
      "name": "quoter",
      "outputs": [
        {
          "internalType": "address",
          "name": "",
          "type": "address"
        }
      ],
      "stateMutability": "view",
      "type": "function"
    },
    {
      "inputs": [
        {
          "internalType": "address",
          "name": "_tokenIn",
          "type": "address"
        },
        {
          "internalType": "address",
          "name": "_tokenOut",
          "type": "address"
        },
        {
          "internalType": "uint256",
          "name": "_routeIndex",
          "type": "uint256"
        }
      ],
      "name": "removeRoute",
      "outputs": [],
      "stateMutability": "nonpayable",
      "type": "function"
    },
    {
      "inputs": [
        {
          "internalType": "bytes32",
          "name": "role",
          "type": "bytes32"
        },
        {
          "internalType": "address",
          "name": "callerConfirmation",
          "type": "address"
        }
      ],
      "name": "renounceRole",
      "outputs": [],
      "stateMutability": "nonpayable",
      "type": "function"
    },
    {
      "inputs": [
        {
          "internalType": "bytes32",
          "name": "role",
          "type": "bytes32"
        },
        {
          "internalType": "address",
          "name": "account",
          "type": "address"
        }
      ],
      "name": "revokeRole",
      "outputs": [],
      "stateMutability": "nonpayable",
      "type": "function"
    },
    {
      "inputs": [],
      "name": "router",
      "outputs": [
        {
          "internalType": "address",
          "name": "",
          "type": "address"
        }
      ],
      "stateMutability": "view",
      "type": "function"
    },
    {
      "inputs": [
        {
          "internalType": "address",
          "name": "_quoter",
          "type": "address"
        }
      ],
      "name": "setQuoter",
      "outputs": [],
      "stateMutability": "nonpayable",
      "type": "function"
    },
    {
      "inputs": [
        {
          "internalType": "address",
          "name": "_router",
          "type": "address"
        }
      ],
      "name": "setRouter",
      "outputs": [],
      "stateMutability": "nonpayable",
      "type": "function"
    },
    {
      "inputs": [
        {
          "internalType": "bytes4",
          "name": "interfaceId",
          "type": "bytes4"
        }
      ],
      "name": "supportsInterface",
      "outputs": [
        {
          "internalType": "bool",
          "name": "",
          "type": "bool"
        }
      ],
      "stateMutability": "view",
      "type": "function"
    },
    {
      "inputs": [
        {
          "internalType": "address",
          "name": "_sourceToken",
          "type": "address"
        },
        {
          "internalType": "address",
          "name": "_targetToken",
          "type": "address"
        },
        {
          "internalType": "uint256",
          "name": "_sourceAmountMax",
          "type": "uint256"
        },
        {
          "internalType": "uint256",
          "name": "_marketplaceAmount",
          "type": "uint256"
        },
        {
          "internalType": "address",
          "name": "_to",
          "type": "address"
        },
        {
          "internalType": "bytes",
          "name": "_quoteData",
          "type": "bytes"
        }
      ],
      "name": "swapIn",
      "outputs": [
        {
          "internalType": "uint256",
          "name": "sourceSpent",
          "type": "uint256"
        }
      ],
      "stateMutability": "nonpayable",
      "type": "function"
    },
    {
      "inputs": [
        {
          "internalType": "address",
          "name": "_sourceToken",
          "type": "address"
        },
        {
          "internalType": "address",
          "name": "_targetToken",
          "type": "address"
        },
        {
          "internalType": "uint256",
          "name": "_sourceAmount",
          "type": "uint256"
        },
        {
          "internalType": "uint256",
          "name": "_minimumAmountOut",
          "type": "uint256"
        },
        {
          "internalType": "address",
          "name": "_to",
          "type": "address"
        },
        {
          "internalType": "bytes",
          "name": "_quoteData",
          "type": "bytes"
        }
      ],
      "name": "swapOut",
      "outputs": [
        {
          "internalType": "uint256",
          "name": "targetTokenReceived",
          "type": "uint256"
        }
      ],
      "stateMutability": "nonpayable",
      "type": "function"
    }
  ],
  "transactionHash": "0x77799af29ee58844ba622a9676da9da0b1767925b0af8d6b077978dea5dddf6c",
  "args": [],
  "numDeployments": 1,
  "solcInputHash": "5fcb370cb2b9ee0340656465635a79fa",
  "bytecode": "0x60808060405234620000bd577ff0c57e16840df040f15088dc2f81fe391c3923bec73e23a9662efc9c229c6a009081549060ff8260401c16620000ae57506001600160401b036002600160401b03198282160162000068575b6040516133b59081620000c38239f35b6001600160401b031990911681179091556040519081527fc7f505b2f371ae2175ee4913f4499e1f2633a7b5936321eed1cdaeb6115181d290602090a138808062000058565b63f92ee8a960e01b8152600490fd5b600080fdfe60806040908082526004918236101561001757600080fd5b600092833560e01c92836301ffc9a7146112715750826305977a53146111b85782631ccfbc4f1461119b578263248a9ca3146111625782632adcb0c61461112e5782632f2ff15d1461110557826336568abe146110bf57826375b238fc146110845782638af0007614610f5357826391d1485414610efe5782639300ff8814610bdd57826395a595ae1461092557826399a0174b146105675782639f7dde25146103f3578263a217fddf146103d8578263c0d7865514610398578263c6bbd5a714610370578263d547741f14610324578263f887ea40146102f7578263f8c8765e1461015057505063f912c64b1461010e57600080fd5b3461014d57602036600319011261014d576101276112c4565b61012f612cea565b81546001600160a01b0319166001600160a01b039190911617815580f35b80fd5b909150346102f35760803660031901126102f35761016c6112c4565b906101756112df565b916001600160a01b03906044359082821682036102ef576064359280841684036102eb577ff0c57e16840df040f15088dc2f81fe391c3923bec73e23a9662efc9c229c6a009586549560ff878a1c1615966001600160401b038116801590816102e3575b60011490816102d9575b1590816102d0575b506102c15767ffffffffffffffff1981166001178955876102a2575b5060ff88548a1c1615610294575091816102449361024a9695936001600160601b0360a01b9316838c5416178b5516906001541617600155612f9c565b5061303c565b50610253578280f35b805468ff00000000000000001916905551600181527fc7f505b2f371ae2175ee4913f4499e1f2633a7b5936321eed1cdaeb6115181d290602090a138808280f35b8851631afcd79f60e31b8152fd5b68ffffffffffffffffff19166801000000000000000117885538610207565b50885163f92ee8a960e01b8152fd5b905015386101eb565b303b1591506101e3565b8991506101d9565b8780fd5b8680fd5b8280fd5b83823461032057816003193601126103205760015490516001600160a01b039091168152602090f35b5080fd5b9150346102f357806003193601126102f35761036c913561036760016103486112df565b9383875260008051602061336083398151915260205286200154612d64565b613185565b5080f35b838234610320578160031936011261032057905490516001600160a01b039091168152602090f35b833461014d57602036600319011261014d576103b26112c4565b6103ba612cea565b60018060a01b03166001600160601b0360a01b600154161760015580f35b83823461032057816003193601126103205751908152602090f35b9150346102f357610403366112f5565b929161040d612cea565b6001600160a01b0390811680875260026020908152848820939092168088529282528387205485101561055757808752600282528387208388528252838720546000199590868101908111610544578082106104d0575b505086526002815282862091865252832090815480156104bd57019161048a83836117e8565b9190916104ab57506001816104a16104a79361166f565b016116c9565b5580f35b634e487b7160e01b8552849052602484fd5b634e487b7160e01b855260318452602485fd5b6104ee61050791848b5260028652878b20878c528652878b206117e8565b5091838a5260028552868a20868b528552868a206117e8565b61053257808214610464576001808361052361052b9585612be8565b019101612c55565b3880610464565b634e487b7160e01b8952888852602489fd5b634e487b7160e01b895260118852602489fd5b8351634e23d03560e01b81528690fd5b9150346102f35760803660031901126102f3576105826112c4565b9161058b6112df565b6001600160401b03916044358381116102ef576105ab9036908301611628565b94606435858111610921576105c39036908501611628565b97906105cd612cea565b600288106109115787156108fe576105e484612bd4565b6001600160a01b0396928716929087168390036108ee576000198901908982116108db57898210156108c8579087939291846106248360051b8901612bd4565b911694859116036108b8578a036108a857835194610641866114c2565b61064a8a611a71565b906106578651928361155f565b8a825260209a8b83019060051b8201913683116108a457905b8282106108885750505085526106858a611a71565b9961069285519b8c61155f565b808b52898b019060051b82019136831161088457905b8282106108655750505087840198895289526002875281892090895286528720928354600160401b811015610852576106e89060019586820181556117e8565b92909261084057519081519186831161082d579087839261070b86958997611695565b0190838b52888b20908b5b8481106108195750505050500194519081519384116108065750839061073c84876116f3565b0193855282852091600a93600a820494875b8681106107be575050600a85028083039203610768578680f35b9491908695875b82811061078757505050505001553880808080808680f35b909192826107b2869962ffffff84985116908560030260031b9162ffffff809116831b921b19161790565b9801949392910161076f565b88895b8381106107d4575086820155840161074e565b9890846107fd889262ffffff855116908d60030260031b9162ffffff809116831b921b19161790565b920199016107c1565b634e487b7160e01b875260419052602486fd5b83518216818401558896938b019301610716565b634e487b7160e01b8a526041855260248afd5b634e487b7160e01b8952888452602489fd5b634e487b7160e01b895260418452602489fd5b813562ffffff81168103610880578152908a01908a016106a8565b8d80fd5b8c80fd5b81358b811681036108a0578152908c01908c01610670565b8f80fd5b8e80fd5b8351633b4c3e8760e11b81528690fd5b845163ec5af92960e01b81528790fd5b634e487b7160e01b8c526032875260248cfd5b634e487b7160e01b8c526011875260248cfd5b83516331317ef960e01b81528690fd5b634e487b7160e01b8a526032855260248afd5b8251633b4c3e8760e11b81528590fd5b8880fd5b8382346103205761093536611580565b97949196939290885115610bac575b610959895199602080809c83010191016129e6565b6001600160a01b03938416949061097284303389613208565b6001548951636eb1769f60e11b815230818b019081526001600160a01b0392881692831660208201528d908290819060400103818b5afa908115610ba257908d979695949392918a91610b67575b508511610b57575b508781516002815114600014610ab057505093809260e494928262ffffff6109f58a610a469a0151611c44565b5116918d519a610a048c61150e565b8b5216888a01528b89015216606087015260808601528860a08601528560c0860152600154169385885195869485936304e45aaf60e01b85528a850190612b7f565b5af1918215610aa5578092610a75575b5050925b8310610a67575051908152f35b90516342301c2360e01b8152fd5b9091508582813d8311610a9e575b610a8d818361155f565b8101031261014d5750518580610a56565b503d610a83565b8451903d90823e3d90fd5b610ac9919850869495935087610b0d9793015190612ecb565b938a5194610ad6866114f3565b85521685840152888301528860608301526001541690875194858094819363b858183f60e01b8352878b8401526024830190612b42565b03925af1918215610aa5578092610b27575b505092610a5a565b9091508582813d8311610b50575b610b3f818361155f565b8101031261014d5750518580610b1f565b503d610b35565b610b61908861324a565b8c6109c8565b88819394959697989992503d8311610b9b575b610b84818361155f565b8101031261092157518c96959493929190856109c0565b503d610b7a565b8b513d8b823e3d90fd5b9750610bb98184846123fa565b606081015115610bcd576020015197610944565b86516317813d4560e01b81528690fd5b83823461032057610bed36611580565b979496909293885115610ecb575b50610c11885198602080809b83010191016129e6565b6001600160a01b0397881692610c2986303387613208565b6001548851636eb1769f60e11b8152308982019081526001600160a01b03928c1692831660208201528c90829081906040010381895afa908115610ec1579088918691610e8c575b5010610e7c575b508982516002815114600014610dda57505088610c958351611c44565b51169162ffffff610cb58c8c610cab8551611c51565b5116930151611c44565b511690895193610cc48561150e565b84528b84015288830152888516606083015260808201528460a08201528160c082015288610d0e60e48a6001541693858b519586948593635023b4df60e01b85528d850190612b7f565b5af1908115610dd0578291610da3575b50965b848810610d48575b505050508311610d3a575051908152f35b905163245eadfb60e11b8152fd5b87850391858311610d905750865163a9059cbb60e01b8a820152931660248401526044808401919091528252610d879190610d82826114f3565b613303565b85808080610d29565b634e487b7160e01b815260118752602490fd5b90508881813d8311610dc9575b610dba818361155f565b81010312610320575189610d1e565b503d610db0565b87513d84823e3d90fd5b610dee9082610e3695949394015190612d97565b90895191610dfb836114f3565b82528a87168383015289820152866060820152896001541682858a8c51968795869485936304dc09a360e11b85528401526024830190612b42565b03925af1908115610dd0578291610e4f575b5096610d21565b90508881813d8311610e75575b610e66818361155f565b81010312610320575189610e48565b503d610e5c565b610e86908561324a565b8a610c78565b8092508d8092503d8311610eba575b610ea5818361155f565b81010312610eb6578790518d610c71565b8480fd5b503d610e9b565b8a513d87823e3d90fd5b610ed9919850829088611d6c565b606081015115610eee57602001519688610bfb565b85516317813d4560e01b81528590fd5b909150346102f357816003193601126102f3578160209360ff92610f206112df565b9035825260008051602061336083398151915286528282206001600160a01b039091168252855220549151911615158152f35b50823461014d578160031936011261014d57610f6d6112c4565b90610f766112df565b9060018060a01b03809316815260029160209360028552858320911682528352838120918254610fa581611a71565b91610fb28751938461155f565b8183528583018095855286852085915b8483106110445750505050508451938085019181865251809252858501868360051b8701019493965b838810610ff85786860387f35b90919293948380611033600193603f198b820301875289519083611023835189845289840190611372565b9201519084818403910152611489565b970193019701969093929193610feb565b83896001928c9b98999b51611058816114c2565b6110618661181a565b815261106e858701611874565b8382015281520192019201919097959497610fc2565b838234610320578160031936011261032057602090517fa49807205ce4d355092ef5a8a18f56e8913cf4a201fbe287825b095693c217758152f35b8382346103205780600319360112610320576110d96112df565b90336001600160a01b038316036110f6575061036c919235613185565b5163334bd91960e11b81528390fd5b9150346102f357806003193601126102f35761036c913561112960016103486112df565b6130fe565b8382346103205761115e9061114b611145366112f5565b916123fa565b90519182916020835260208301906113ec565b0390f35b909150346102f35760203660031901126102f3578160209360019235815260008051602061336083398151915285522001549051908152f35b8382346103205761115e9061114b6111b2366112f5565b91611d6c565b909150346102f357816003193601126102f3576111d36112c4565b916111dc6112df565b6111e4612cea565b6001600160a01b03938416855260026020818152838720929095168652935283208054848255919082611215578480f35b6001916001600160ff1b038416840361125e57508452602084209160011b8201915b828110611242578480f35b8061124d859261166f565b6112588382016116c9565b01611237565b634e487b7160e01b865260119052602485fd5b8491346102f35760203660031901126102f3573563ffffffff60e01b81168091036102f35760209250637965db0b60e01b81149081156112b3575b5015158152f35b6301ffc9a760e01b149050836112ac565b600435906001600160a01b03821682036112da57565b600080fd5b602435906001600160a01b03821682036112da57565b60609060031901126112da576001600160a01b039060043582811681036112da579160243590811681036112da579060443590565b60005b83811061133d5750506000910152565b818101518382015260200161132d565b906020916113668151809281855285808601910161132a565b601f01601f1916010190565b90815180825260208080930193019160005b828110611392575050505090565b83516001600160a01b031685529381019392810192600101611384565b90815180825260208080930193019160005b8281106113cf575050505090565b83516001600160801b0316855293810193928101926001016113c1565b908151815260608061147e611410602086015160806020870152608086019061134d565b604086015190858103604087015260018060a01b038251168152608061146d61145d61144b602086015160a0602087015260a0860190611372565b604086015185820360408701526113af565b86850151848203888601526113af565b9201519060808184039101526113af565b930151151591015290565b90815180825260208080930193019160005b8281106114a9575050505090565b835162ffffff168552938101939281019260010161149b565b604081019081106001600160401b038211176114dd57604052565b634e487b7160e01b600052604160045260246000fd5b608081019081106001600160401b038211176114dd57604052565b60e081019081106001600160401b038211176114dd57604052565b60a081019081106001600160401b038211176114dd57604052565b606081019081106001600160401b038211176114dd57604052565b90601f801991011681019081106001600160401b038211176114dd57604052565b60c06003198201126112da576001600160a01b039160043583811681036112da579260243581811681036112da5792604435926064359260843590811681036112da57916001600160401b0360a4358181116112da57826023820112156112da5780600401359182116114dd5760405192611605601f8401601f19166020018561155f565b828452602483830101116112da5781600092602460209301838601378301015290565b9181601f840112156112da578235916001600160401b0383116112da576020808501948460051b0101116112da57565b818110611663575050565b60008155600101611658565b8054600082558061167e575050565b61169391600052602060002090810190611658565b565b90600160401b81116114dd578154908083558181106116b357505050565b6116939260005260206000209182019101611658565b805460008255806116d8575050565b61169391600052600a60096020600020920104810190611658565b90600160401b81116114dd57815481835580821061171057505050565b61169392600052600a6009602060002092600383808488010486019606028061173e575b5001040190611658565b600019908187019182549160200360031b1c16905538611734565b60405190611766826114f3565b60008281815260609081602082015260405161178181611529565b838152826020820152826040820152828082015282608082015260408201520152565b6040519060c082018281106001600160401b038211176114dd57604052600060a0838281526060602082015260606040820152606080820152606060808201520152565b80548210156118045760005260206000209060011b0190600090565b634e487b7160e01b600052603260045260246000fd5b90604051918281549182825260209260208301916000526020600020936000905b828210611851575050506116939250038361155f565b85546001600160a01b03168452600195860195889550938101939091019061183b565b9060409160405180938254928383526020918284019160005282600020946000915b8160098401106119e85750611693955491848282106119d3575b8282106119bb575b8282106119a3575b82821061198b575b828210611973575b82821061195b575b828210611943575b82821061192b575b828210611913575b5010611901575b509050038361155f565b60d81c62ffffff1681520180386118f7565b6001919462ffffff8560c01c168152019301846118f0565b6001919462ffffff8560a81c168152019301846118e8565b6001919462ffffff8560901c168152019301846118e0565b6001919462ffffff8560781c168152019301846118d8565b6001919462ffffff8560601c168152019301846118d0565b6001919462ffffff8560481c168152019301846118c8565b6001919462ffffff8560301c168152019301846118c0565b6001919462ffffff8560181c168152019301846118b8565b6001919462ffffff85168152019301846118b0565b93959450916001610140600a92875462ffffff908181168352818160181c168b840152818160301c168984015281816060828260481c16818701521c166080840152818160781c1660a0840152818160c0828260901c1681870152828260a81c1660e08701521c1661010084015260d81c16610120820152019501910190949291879492611896565b6001600160401b0381116114dd5760051b60200190565b51906001600160a01b03821682036112da57565b9080601f830112156112da57815190602091611ab781611a71565b93611ac5604051958661155f565b81855260208086019260051b8201019283116112da57602001905b828210611aee575050505090565b838091611afa84611a88565b815201910190611ae0565b519063ffffffff821682036112da57565b9080601f830112156112da57815190602091611b3181611a71565b93611b3f604051958661155f565b81855260208086019260051b8201019283116112da57602001905b828210611b68575050505090565b838091611b7484611b05565b815201910190611b5a565b916060838303126112da578251926020810151926001600160401b03938481116112da5781611baf918401611a9c565b9360408301519081116112da57611bc69201611b16565b90565b80541561180457600052602060002090600090565b908160609103126112da57805191611bc66040611bfd60208501611a88565b9301611b05565b80516001600160a01b0390811683526020808301518216908401526040808301519084015260608083015162ffffff169084015260809182015116910152565b8051156118045760200190565b8051600110156118045760400190565b80518210156118045760209160051b010190565b90602090818352611c91815160808486015260a0850190611372565b92611cad8383015194601f199586848303016040850152611489565b916040810151928583820301606084015284808551928381520194019060005b818110611d1d5750505060606080910151948284030191015281808451928381520193019160005b828110611d03575050505090565b835163ffffffff1685529381019392810192600101611cf5565b82516001600160a01b031686529486019491860191600101611ccd565b90611d4482611a71565b611d51604051918261155f565b8281528092611d62601f1991611a71565b0190602036910137565b929190611d77611759565b6001600160a01b03808616600090815260026020908152604080832093861683529290522090949091611da86117a4565b6000198152600060a0820152835490938161212e57505060409594955193611dcf85611544565b6002855260403660208701376001600160a01b038316611dee86611c44565b526001600160a01b038216611e0286611c51565b52611e0b612e73565b600080546001600160a01b031698905b8251811015611fbd5762ffffff908a6060611ebd60a485611e3c868a611c61565b51169560405196611e4c886114c2565b60018852602036818a0137611e6088611c44565b52611e6a87611c44565b511660405190611e7982611529565b6001600160a01b038d811683528c16602083015260408083018c9052858301919091526000608083015251635e90b82560e11b815294859384926004840190611c04565b5afa908115611fb15760019360008092600094611f7b575b5080151580611f65575b611eee575b5050505001611e1b565b8b528b60208c015260408b0152611f1f604051611f0a816114c2565b858152602036818301378060608d0152611c44565b90848060a01b0316905263ffffffff611f52604051611f3d816114c2565b858152602036818301378060808d0152611c44565b911690528160a089015238808080611ee4565b508b51811080611edf575060a08c015115611edf565b91935050611fa1915060603d606011611faa575b611f99818361155f565b810190611bde565b92909138611ed5565b503d611f8f565b6040513d6000823e3d90fd5b509750509492935050505b60a0820151156121215750602081019261202084519361202e60408501958651606087015160808801519160405193612000856114f3565b845260208401526040830152606082015260405193849160208301611c75565b03601f19810184528361155f565b612039865151611d3a565b906001600160801b03908186511661205084611c44565b5287515160001981019290831161210b5761206d91169183611c61565b52612079855151611d3a565b9360005b865180518210156120ac579062ffffff61209982600194611c61565b51166120a58289611c61565b520161207d565b50509295909391945051926120c18451611d3a565b91604051946120cf86611529565b30865260208601526040850152606084015260808301525191604051926120f5846114f3565b8352602083015260408201526001606082015290565b634e487b7160e01b600052601160045260246000fd5b9150506000606082015290565b91509150600095929394955b82811061214957505050611fc8565b61215381836117e8565b5090815460028114600014612302576000546001600160a01b03169061217884611bc9565b91905490600110156118045760a4612209916060938760005260018060a01b036001602060002001541662ffffff6121b260018b01611bc9565b90549060031b1c1691604051936121c885611529565b60018060a01b039160031b1c16835260208301528c604083015284820152600060808201526040519485938492635e90b82560e11b84526004840190611c04565b5afa908115611fb157600193600080926000946122dc575b50801515806122c6575b61223b575b505050505b0161213a565b6122579186918b5261224c8161181a565b60208c015201611874565b604089015261228060405161226b816114c2565b858152602036818301378060608b0152611c44565b90848060a01b0316905263ffffffff6122b360405161229e816114c2565b858152602036818301378060808b0152611c44565b911690528160a087015238808080612230565b50895181108061222b575060a08a01511561222b565b919350506122f9915060603d606011611faa57611f99818361155f565b92909138612221565b5061235360006123266123148561181a565b61232060018701611874565b90612d97565b60018060a01b038254166040518080958194632f80bb1d60e01b835260406004840152604483019061134d565b8d602483015203915afa908115611fb157600193600080926000946123d0575b50801515806123ba575b61238b575b50505050612235565b61239c9186918b5261224c8161181a565b6040890152606088015260808701528160a087015238808080612382565b50895181108061237d575060a08a01511561237d565b919350506123f191503d806000833e6123e9818361155f565b810190611b7f565b92909138612373565b929190612405611759565b6001600160a01b038086166000908152600260209081526040808320938616835292905220909490916124366117a4565b600080825260a082015283549093816127455750506040959495519361245b85611544565b6002855260403660208701376001600160a01b03831661247a86611c44565b526001600160a01b03821661248e86611c51565b52612497612e73565b600080546001600160a01b031698905b82518110156126035762ffffff908a606061254960a4856124c8868a611c61565b511695604051966124d8886114c2565b60018852602036818a01376124ec88611c44565b526124f687611c44565b51166040519061250582611529565b6001600160a01b038d811683528c16602083015260408083018c9052858301919091526000608083015251636352813560e11b815294859384926004840190611c04565b5afa908115611fb157600193600080926000946125dd575b50801515806125c7575b61257a575b50505050016124a7565b8b528b60208c015260408b0152612596604051611f0a816114c2565b90848060a01b0316905263ffffffff6125b4604051611f3d816114c2565b911690528160a089015238808080612570565b508b5181118061256b575060a08c01511561256b565b919350506125fa915060603d606011611faa57611f99818361155f565b92909138612561565b509694975050935050505b60a0840151156127395750602083019283519260408201938451606084015160808501519160405193612640856114f3565b845260208401526040830152606082015261265c865151611d3a565b936001600160801b0380911661267186611c44565b52835116865151600019810190811161210b5761268e9086611c61565b5261269a855151611d3a565b9360005b865180518210156126cd579062ffffff6126ba82600194611c61565b51166126c68289611c61565b520161269e565b50509361271e9391955061272c929651946126e88651611d3a565b91604051966126f688611529565b3088526020880152604087015260608601526080850152519360405192839160208301611c75565b03601f19810183528261155f565b604051926120f5846114f3565b60006060820152925050565b6000979497939291935b84811061276057505050505061260e565b61276a81836117e8565b509060028254146000146128ea576000546001600160a01b031660606127f660a48b62ffffff61279c60018901611bc9565b905490604051936127ac85611529565b8d60018060a01b0316855260018060a01b038d166020860152604085015260031b1c1684820152600060808201526040519485938492636352813560e11b84526004840190611c04565b5afa908115611fb1578b6001946000906000936000956128c1575b50811515806128ab575b61282c575b50505050505b0161274f565b8287926128489452602061283f8361181a565b91015201611874565b60408d015261287360608d604051918291612862836114c2565b888352602036818501370152611c44565b90848060a01b0316905263ffffffff61289760808d604051918291612862836114c2565b911690528160a08b015238808b8180612820565b50825182118061281b575060a08301511561281b565b915093506128df91925060603d606011611faa57611f99818361155f565b929190929338612811565b87600061293d61290e6128fc8661181a565b61290860018801611874565b90612ecb565b60018060a01b038354169060405180958194829363cdca175360e01b845260406004850152604484019061134d565b90602483015203915afa908115611fb1578b6001946000906000936000956129c1575b50811515806129ab575b612979575b5050505050612826565b82879261298c9452602061283f8361181a565b60408d015260608c015260808b01528160a08b015238808b818061296f565b50825182118061296a575060a08301511561296a565b915093506129db9192503d806000833e6123e9818361155f565b929190929338612960565b60209182828203126112da5781516001600160401b03928382116112da5701916080838303126112da5760405193612a1d856114f3565b83518281116112da57840183601f820112156112da57805190612a3f82611a71565b91612a4d604051938461155f565b808352838084019160051b830101918683116112da578401905b828210612b23575050508552808401518281116112da5784019083601f830112156112da57815191612a9883611a71565b92612aa6604051948561155f565b808452828085019160051b830101918683116112da578301905b828210612b085750505085015260408301518181116112da5782612ae5918501611a9c565b604085015260608301519081116112da57612b009201611b16565b606082015290565b815162ffffff811681036112da578152908301908301612ac0565b81516001600160a01b03811681036112da578152908401908401612a67565b90606080612b59845160808552608085019061134d565b6020808601516001600160a01b0316908501526040808601519085015293015191015290565b60c0908160018060a01b039182815116855282602082015116602086015262ffffff60408201511660408601528260608201511660608601526080810151608086015260a081015160a0860152015116910152565b356001600160a01b03811681036112da5790565b818114612c51578154916001600160401b0383116114dd57612c0a8383611695565b60005260206000209060005260206000208154916000925b848410612c30575050505050565b600191820180546001600160a01b0390921684860155939091019290612c22565b5050565b90808214612c51578054906001600160401b0382116114dd57612c7882846116f3565b600052602060002091600052602060002091600a82049181549160005b848110612ccd575050600a8302808203612cb1575b5050505050565b60039060001992030260031b1b19169101553880808080612caa565b600191820180546001600160f01b03909516878301559101612c95565b3360009081527fb16e88c42fd4e48df2dd6a2eabd6bc9aec654ec170056b470819f8892cc6431c60205260409020547fa49807205ce4d355092ef5a8a18f56e8913cf4a201fbe287825b095693c217759060ff1615612d465750565b6044906040519063e2517d3f60e01b82523360048301526024820152fd5b8060005260008051602061336083398151915260205260406000203360005260205260ff6040600020541615612d465750565b9190612da283611c44565b51604093604051946020956001600160601b0319908160609560601b16602082015260148152612dd1816114c2565b60009384915b8751861015612e685760018601808711612e5457612e4c8b89600194612e098b612e028f978a611c61565b5196611c61565b51898b519687941b168484015262ffffff60e81b9060e81b166034830152612e3c6037938251928391868601910161132a565b810103601781018452018261155f565b950194612dd7565b634e487b7160e01b84526011600452602484fd5b985050505050505050565b604051612e7f81611529565b600481526080366020830137610bb8612e9782611c44565b526101f4612ea482611c51565b52805160021015611804576127106060820152805160031015611804576064608082015290565b919091612ed781611c44565b519060408051906020936001600160601b0319928360609260601b16602082015260148152612f05816114c2565b60009788915b81518a1015612e6857612f1e8a83611c61565b5160018b01808c11612f885760376001938b938a612f3f612f80958e611c61565b518b519684612f57899651809284808a01910161132a565b85019362ffffff60e81b9060e81b16908401528a1b16602382015203601781018452018261155f565b990198612f0b565b634e487b7160e01b85526011600452602485fd5b6001600160a01b031660008181527fb7db2dd08fcb62d0c9e08c51941cae53c267786a0b75803fb7960902fc8ef97d60205260408120549091906000805160206133608339815191529060ff16613037578280526020526040822081835260205260408220600160ff1982541617905533917f2f8788117e7eff1d82e926ec794901d17c78024a50270940304540a733656f0d8180a4600190565b505090565b6001600160a01b031660008181527fb16e88c42fd4e48df2dd6a2eabd6bc9aec654ec170056b470819f8892cc6431c60205260408120549091907fa49807205ce4d355092ef5a8a18f56e8913cf4a201fbe287825b095693c21775906000805160206133608339815191529060ff166130f8578184526020526040832082845260205260408320600160ff198254161790557f2f8788117e7eff1d82e926ec794901d17c78024a50270940304540a733656f0d339380a4600190565b50505090565b9060009180835260008051602061336083398151915280602052604084209260018060a01b03169283855260205260ff604085205416156000146130f8578184526020526040832082845260205260408320600160ff198254161790557f2f8788117e7eff1d82e926ec794901d17c78024a50270940304540a733656f0d339380a4600190565b9060009180835260008051602061336083398151915280602052604084209260018060a01b03169283855260205260ff6040852054166000146130f857818452602052604083208284526020526040832060ff1981541690557ff6391f5c32d9c69d2a47ea670b442974b53935d1edc7fd64eb21e047a839171b339380a4600190565b6040516323b872dd60e01b60208201526001600160a01b03928316602482015292909116604483015260648083019390935291815261169391610d8282611529565b604051906020820163095ea7b360e01b938482526020600060018060a01b03809316938460248801528119604488015260448752613287876114f3565b86519082875af1903d60005190836132e2575b505050156132a9575b50505050565b6132d993610d8291604051916020830152602482015260006044820152604481526132d3816114f3565b82613303565b388080806132a3565b919250906132f9575082163b15155b38808061329a565b60019150146132f1565b906000602091828151910182855af115611fb1576000513d61335657506001600160a01b0381163b155b6133345750565b604051635274afe760e01b81526001600160a01b039091166004820152602490fd5b6001141561332d56fe02dd7bc7dec4dceedda775e58dd541e08a116c6c53815c0bd028192f7b626800a2646970667358221220a5c6002d88b56bdafcbaf084290509fd75f9f6058c77d3a212edf32aae2d382f64736f6c63430008180033",
  "devdoc": {
    "author": "Gildi Company",
    "custom:security-contact": "security@gildi.io",
    "errors": {
      "AccessControlBadConfirmation()": [
        {
          "details": "The caller of a function is not the expected one. NOTE: Don't confuse with {AccessControlUnauthorizedAccount}."
        }
      ],
      "AccessControlUnauthorizedAccount(address,bytes32)": [
        {
          "details": "The `account` is missing a role."
        }
      ],
      "ExceededMaxAmount()": [
        {
          "details": "Emitted when a maximum amount is exceeded"
        }
      ],
      "IndexOutOfBounds()": [
        {
          "details": "Emitted when an index is out of array bounds"
        }
      ],
      "InsufficientOutputAmount()": [
        {
          "details": "Emitted when the output amount is insufficient"
        }
      ],
      "InvalidInitialization()": [
        {
          "details": "The contract is already initialized."
        }
      ],
      "InvalidRouteLength()": [
        {
          "details": "Emitted when a route has invalid length"
        }
      ],
      "NoValidRoute()": [
        {
          "details": "Emitted when no valid route is found"
        }
      ],
      "NotInitializing()": [
        {
          "details": "The contract is not initializing."
        }
      ],
      "RouteMustEndWithTokenOut()": [
        {
          "details": "Emitted when the route does not end with the output token"
        }
      ],
      "RouteMustStartWithTokenIn()": [
        {
          "details": "Emitted when the route does not start with the input token"
        }
      ],
      "SafeERC20FailedOperation(address)": [
        {
          "details": "An operation with an ERC-20 token failed."
        }
      ]
    },
    "events": {
      "Initialized(uint64)": {
        "details": "Triggered when the contract has been initialized or reinitialized."
      },
      "RoleAdminChanged(bytes32,bytes32,bytes32)": {
        "details": "Emitted when `newAdminRole` is set as ``role``'s admin role, replacing `previousAdminRole` `DEFAULT_ADMIN_ROLE` is the starting admin for all roles, despite {RoleAdminChanged} not being emitted to signal this."
      },
      "RoleGranted(bytes32,address,address)": {
        "details": "Emitted when `account` is granted `role`. `sender` is the account that originated the contract call. This account bears the admin role (for the granted role). Expected in cases where the role was granted using the internal {AccessControl-_grantRole}."
      },
      "RoleRevoked(bytes32,address,address)": {
        "details": "Emitted when `account` is revoked `role`. `sender` is the account that originated the contract call:   - if using `revokeRole`, it is the admin role bearer   - if using `renounceRole`, it is the role bearer (i.e. `account`)"
      }
    },
    "kind": "dev",
    "methods": {
      "addRoute(address,address,address[],uint24[])": {
        "params": {
          "_fees": "The fee tiers for each hop in the route (must be one less than route length)",
          "_route": "The route to swap through",
          "_tokenIn": "The token to swap from",
          "_tokenOut": "The token to swap to"
        }
      },
      "clearRoutes(address,address)": {
        "params": {
          "_tokenIn": "The token to swap from.",
          "_tokenOut": "The token to swap to."
        }
      },
      "constructor": {
        "custom:oz-upgrades-unsafe-allow": "constructor"
      },
      "getRoleAdmin(bytes32)": {
        "details": "Returns the admin role that controls `role`. See {grantRole} and {revokeRole}. To change a role's admin, use {_setRoleAdmin}."
      },
      "grantRole(bytes32,address)": {
        "details": "Grants `role` to `account`. If `account` had not been already granted `role`, emits a {RoleGranted} event. Requirements: - the caller must have ``role``'s admin role. May emit a {RoleGranted} event."
      },
      "hasRole(bytes32,address)": {
        "details": "Returns `true` if `account` has been granted `role`."
      },
      "initialize(address,address,address,address)": {
        "params": {
          "_initialContractAdmin": "The address of the initial contract admin",
          "_initialDefaultAdmin": "The address of the initial default admin",
          "_quoter": "The address of the IUniswapV3ViewQuoter contract",
          "_router": "The address of the IUniswapV3SwapRouter contract"
        }
      },
      "listRoutes(address,address)": {
        "params": {
          "_tokenIn": "The token to swap from",
          "_tokenOut": "The token to swap to"
        },
        "returns": {
          "_0": "routes Array of UniswapRoute structs containing path and fees"
        }
      },
      "quoteSwapIn(address,address,uint256)": {
        "params": {
          "_marketplaceAmountDesired": "The amount of `_marketplaceToken` desired.",
          "_marketplaceToken": "The token to swap to.",
          "_sourceToken": "The token to swap from."
        },
        "returns": {
          "quote": "The swap in quote containing required source token amount, quote data and route information"
        }
      },
      "quoteSwapOut(address,address,uint256)": {
        "params": {
          "_sourceAmount": "The amount of `_sourceToken` available.",
          "_sourceToken": "The token to swap from.",
          "_targetToken": "The token to swap to."
        },
        "returns": {
          "quote": "The quote."
        }
      },
      "removeRoute(address,address,uint256)": {
        "params": {
          "_routeIndex": "The index of the route to remove",
          "_tokenIn": "The token to swap from",
          "_tokenOut": "The token to swap to"
        }
      },
      "renounceRole(bytes32,address)": {
        "details": "Revokes `role` from the calling account. Roles are often managed via {grantRole} and {revokeRole}: this function's purpose is to provide a mechanism for accounts to lose their privileges if they are compromised (such as when a trusted device is misplaced). If the calling account had been revoked `role`, emits a {RoleRevoked} event. Requirements: - the caller must be `callerConfirmation`. May emit a {RoleRevoked} event."
      },
      "revokeRole(bytes32,address)": {
        "details": "Revokes `role` from `account`. If `account` had been granted `role`, emits a {RoleRevoked} event. Requirements: - the caller must have ``role``'s admin role. May emit a {RoleRevoked} event."
      },
      "setQuoter(address)": {
        "params": {
          "_quoter": "The address of the IUniswapV3ViewQuoter contract"
        }
      },
      "setRouter(address)": {
        "params": {
          "_router": "The address of the IUniswapV3SwapRouter contract"
        }
      },
      "supportsInterface(bytes4)": {
        "details": "Returns true if this contract implements the interface defined by `interfaceId`. See the corresponding https://eips.ethereum.org/EIPS/eip-165#how-interfaces-are-identified[ERC section] to learn more about how these ids are created. This function call must use less than 30 000 gas."
      },
      "swapIn(address,address,uint256,uint256,address,bytes)": {
        "params": {
          "_marketplaceAmount": "The exact marketplace tokens we want out.",
          "_marketplaceToken": "The token to swap to.",
          "_quoteData": "The data previously returned by `quoteSwapIn`.",
          "_sourceAmountMax": "The max `_sourceToken` we can spend (slippage buffer).",
          "_sourceToken": "The token to swap from.",
          "_to": "The recipient of the marketplace tokens."
        }
      },
      "swapOut(address,address,uint256,uint256,address,bytes)": {
        "params": {
          "_minTargetAmount": "The minimum amount of `_targetToken` to receive (slippage protection).",
          "_quoteData": "The data previously returned by `quoteSwapOut`.",
          "_sourceAmount": "The exact amount of `_sourceToken` to swap.",
          "_sourceToken": "The token to swap from.",
          "_targetToken": "The token to swap to.",
          "_to": "The recipient of the target tokens."
        }
      }
    },
    "stateVariables": {
      "customRoutes": {
        "details": "Stores custom routes for token pairs"
      }
    },
    "title": "UniswapV3SwapAdapter",
    "version": 1
  },
  "userdoc": {
    "kind": "user",
    "methods": {
      "addRoute(address,address,address[],uint24[])": {
        "notice": "Adds a custom route for swapping tokens"
      },
      "clearRoutes(address,address)": {
        "notice": "Clears all custom routes for swapping tokens."
      },
      "initialize(address,address,address,address)": {
        "notice": "Initializes the UniswapV3SwapAdapter"
      },
      "listRoutes(address,address)": {
        "notice": "Lists all custom routes for swapping tokens"
      },
      "quoteSwapIn(address,address,uint256)": {
        "notice": "Quotes the amount of `_sourceToken` required to get `_marketplaceAmountDesired` of `_marketplaceToken`."
      },
      "quoteSwapOut(address,address,uint256)": {
        "notice": "Quotes the amount of `_targetToken` you can get by providing `_sourceAmount` of `_sourceToken`."
      },
      "removeRoute(address,address,uint256)": {
        "notice": "Removes a custom route for swapping tokens"
      },
      "setQuoter(address)": {
        "notice": "Sets the IUniswapV3ViewQuoter contract address"
      },
      "setRouter(address)": {
        "notice": "Sets the IUniswapV3SwapRouter contract address"
      },
      "swapIn(address,address,uint256,uint256,address,bytes)": {
        "notice": "Performs an \"exact out\" swap to get `_marketplaceAmount` of `_marketplaceToken`."
      },
      "swapOut(address,address,uint256,uint256,address,bytes)": {
        "notice": "Performs an \"exact in\" swap to convert `_sourceAmount` of `_sourceToken` into `_targetToken`."
      }
    },
    "notice": "An adapter for interfacing with Uniswap V3 liquidity pools",
    "version": 1
  },
  "storageLayout": {
    "storage": [
      {
        "astId": 40774,
        "contract": "contracts/marketplace/exchange/adapters/uniswap/v3/UniswapV3SwapAdapter.sol:UniswapV3SwapAdapter",
        "label": "quoter",
        "offset": 0,
        "slot": "0",
        "type": "t_address"
      },
      {
        "astId": 40776,
        "contract": "contracts/marketplace/exchange/adapters/uniswap/v3/UniswapV3SwapAdapter.sol:UniswapV3SwapAdapter",
        "label": "router",
        "offset": 0,
        "slot": "1",
        "type": "t_address"
      },
      {
        "astId": 40814,
        "contract": "contracts/marketplace/exchange/adapters/uniswap/v3/UniswapV3SwapAdapter.sol:UniswapV3SwapAdapter",
        "label": "customRoutes",
        "offset": 0,
        "slot": "2",
        "type": "t_mapping(t_address,t_mapping(t_address,t_array(t_struct(UniswapRoute)40805_storage)dyn_storage))"
      }
    ],
    "types": {
      "t_address": {
        "encoding": "inplace",
        "label": "address",
        "numberOfBytes": "20"
      },
      "t_array(t_address)dyn_storage": {
        "base": "t_address",
        "encoding": "dynamic_array",
        "label": "address[]",
        "numberOfBytes": "32"
      },
      "t_array(t_struct(UniswapRoute)40805_storage)dyn_storage": {
        "base": "t_struct(UniswapRoute)40805_storage",
        "encoding": "dynamic_array",
        "label": "struct UniswapV3SwapAdapter.UniswapRoute[]",
        "numberOfBytes": "32"
      },
      "t_array(t_uint24)dyn_storage": {
        "base": "t_uint24",
        "encoding": "dynamic_array",
        "label": "uint24[]",
        "numberOfBytes": "32"
      },
      "t_mapping(t_address,t_array(t_struct(UniswapRoute)40805_storage)dyn_storage)": {
        "encoding": "mapping",
        "key": "t_address",
        "label": "mapping(address => struct UniswapV3SwapAdapter.UniswapRoute[])",
        "numberOfBytes": "32",
        "value": "t_array(t_struct(UniswapRoute)40805_storage)dyn_storage"
      },
      "t_mapping(t_address,t_mapping(t_address,t_array(t_struct(UniswapRoute)40805_storage)dyn_storage))": {
        "encoding": "mapping",
        "key": "t_address",
        "label": "mapping(address => mapping(address => struct UniswapV3SwapAdapter.UniswapRoute[]))",
        "numberOfBytes": "32",
        "value": "t_mapping(t_address,t_array(t_struct(UniswapRoute)40805_storage)dyn_storage)"
      },
      "t_struct(UniswapRoute)40805_storage": {
        "encoding": "inplace",
        "label": "struct UniswapV3SwapAdapter.UniswapRoute",
        "members": [
          {
            "astId": 40801,
            "contract": "contracts/marketplace/exchange/adapters/uniswap/v3/UniswapV3SwapAdapter.sol:UniswapV3SwapAdapter",
            "label": "path",
            "offset": 0,
            "slot": "0",
            "type": "t_array(t_address)dyn_storage"
          },
          {
            "astId": 40804,
            "contract": "contracts/marketplace/exchange/adapters/uniswap/v3/UniswapV3SwapAdapter.sol:UniswapV3SwapAdapter",
            "label": "fees",
            "offset": 0,
            "slot": "1",
            "type": "t_array(t_uint24)dyn_storage"
          }
        ],
        "numberOfBytes": "64"
      },
      "t_uint24": {
        "encoding": "inplace",
        "label": "uint24",
        "numberOfBytes": "3"
      }
    }
  }
}